:100000000C945A030C948B2F0C94BD2F0C94EF2F4F
:100010000C9479030C9479030C9479030C94790370
:100020000C9479030C94592F0C9479030C94790354
:100030000C9479030C94B82D0C9479030C94B82D7E
:100040000C9479030C9479030C9479030C94790340
:100050000C9479030C9479030C9479030C94790330
:100060000C9479030C9479030C9479030C94790320
:100070000C9479030C9479030C9479030C94790310
:100080000C94EB2D0C9479030C9479030C94790364
:100090000C9479030C9479030C9479030C947903F0
:1000A0000C9479030C9479030C9479030C947903E0
:1000B0000C9479030C9479030C9479030C947903D0
:1000C0000C9479030C9479030C9479030C947903C0
:1000D0000C9479030C9479030C9479030C947903B0
:1000E0000C9479030C946D100C945E100C942E10EB
:1000F0000C941E110C941F100C9410100C94FE0FF5
:100100000C94EF0F0C9479030C9479030C947903FD
:100110000C9479030C9479030C9479030C9479036F
:100120009E12AB12B812C512D212DF12EC120F13CC
:100130001D132B1339134713551363138613881399
:100140008A138C138E1390139213B113D413F813D4
:100150001B143E1461148414BE14CB14D814E5147B
:10016000F214FF140C15251532153F154C155915B1
:1001700066157315961C9C1C9F1CA21CA51CA81C14
:10018000AE1CAB1CB11CB41CB71CC01CC31CC61CD1
:10019000C91CBD1C931C991CCC1CCF1CBA1C901CE8
:1001A000B81DBB1DC61DCB1DD21DDB1DDE1DE31DF5
:1001B000EA1DF31D4661696C656420746F207265E9
:1001C000676973746572207369676E616C0D0A00EC
:1001D00054444D41204552524F523A20637265615A
:1001E00074696E6720656E61626C65207369676E05
:1001F000616C206661696C65640D0A0054444D4170
:10020000204552524F523A206372656174696E679D
:10021000207478207369676E616C206661696C6513
:10022000640D0A0054444D41204552524F523A2029
:100230006372656174696E67207278207369676E96
:10024000616C206661696C65640D0A0054444D411F
:100250002054583A20576F6B65207570206F6E20C0
:1002600077726F6E67207369676E616C0D0A005458
:10027000444D412054583A204572726F7220636198
:100280006C6C696E67206576656E74207761697441
:100290000D0A004D616C666F726D656420455343B5
:1002A0002073657175656E63650D0A00436865634B
:1002B0006B73756D206661696C65643A2000534C00
:1002C0004950205258206572726F723A206E726BDC
:1002D0005F7369676E616C5F72656769737465727D
:1002E0000D0A00534C4950205258206572726F72AB
:1002F0003A20476574205369676E616C0D0A00539C
:100300004C4950205458204552524F523A202052C6
:10031000656C65617365206F662073656D617068DB
:100320006F7265206661696C65640D0A00534C4903
:1003300050205458204552524F523A202041636376
:1003400065737320746F2073656D6170686F72657B
:10035000206661696C65640D0A000D0A4E616E6F5E
:100360002D524B205461736B205374617469737404
:100370006963733A0D0A000D0A000D0A2020204F10
:10038000766572666C6F77204572726F7220537457
:10039000617475733A20000D0A2020204B65726E3F
:1003A000656C2056696F6C6174696F6E733A2000DA
:1003B0000D0A202020507265656D7074696F6E7330
:1003C0003A20000D0A202020537761702D696E734A
:1003D0003A20000D0A20202054696D65205B4D698C
:1003E0006E2C4C6173742C4D61785D3A20000D0ABF
:1003F000202020546F74616C204350553A20000D2A
:100400000A20202049646C65205461736B20446588
:10041000657020536C6565702054696D653A2000E5
:100420000D0A202020546F74616C20537973746519
:100430006D20557074696D653A2000205461736BAE
:100440002049443A2000554E4B4F574E0045787492
:1004500065726E616C2052657365740042726F77CD
:100460006E204F757420446574656374004661693D
:100470006C656420746F20637265617465205365D8
:100480006D6170686F7265004661696C65642074A7
:100490006F20637265617465205369676E616C00DB
:1004A0004B65726E656C2066756E6374696F6E2045
:1004B0006E6F7420696D706C656D656E7465640037
:1004C0004465766963652044726976657220457279
:1004D000726F72005761746368646F67205265734E
:1004E00074617274005357205761746368646F6756
:1004F00020526573746172740054696D6572204F87
:10050000766572666C6F7700556E68616E646C65B7
:100510006420496E746572727570742056656374D8
:100520006F72004C6F7720566F6C74616765004581
:1005300078747261205461736B2073746172746596
:10054000642C206973206E726B5F6366672E68206F
:100550006F6B3F0049646C65206F72204B65726E53
:10056000656C20537461636B204F766572666C6FA7
:100570007700556E657870656374656420526573A5
:1005800074617274004475706C6963617465642091
:100590005461736B204944005363686564756C65EE
:1005A00072204D69737365642057616B65757000C7
:1005B0005461736B20526573657276652056696F5E
:1005C0006C6174656400526573657276652045726E
:1005D000726F7220696E205363686564756C657212
:1005E00000496E76616C696420537461636B2050BE
:1005F0006F696E746572005461736B20537461632C
:100600006B204F766572666C6F7700537461636B15
:1006100020776173206E6F7420646566696E65640F
:10062000206173206C6172676520656E6F75676805
:1006300021005461736B20706572696F6420746F60
:100640006F206C617267652E20506572696F64203F
:100650006D757374206265206C65737320746861B6
:100660006E203631207365636F6E64732E00293AF5
:1006700020002A4E524B204552524F5228004E52D3
:100680004B205265626F6F742E2E2E0D0A000D0ADC
:10069000535441434B2044554D500D0A00454647A5
:1006A00065666700202B2D2E3031323334353637D6
:1006B0003839680011241FBECFEFD1E4DEBFCDBFB3
:1006C00013E0A0E0B2E0E2ECFCE600E00BBF02C009
:1006D00007900D92A23DB107D9F71CE0A2EDB3E05F
:1006E00001C01D92AE34B107E1F70E9404310C94B1
:1006F0005F360C94AE2DCF93DF931F92CDB7DEB74C
:1007000040E050E06DE081E00E9456066091460CAA
:100710007091470C20E040E08091440C9091450C92
:100720000E944C0B85E090E00E94C20482E090E0C1
:100730000E94D90480E092E00E9485040E94870410
:100740000E941307811103C00E94B223F9CF88E7EA
:10075000E82E82E0F82E9AE8C92E92E0D92E24E9FC
:10076000A22E22E0B22E37EA832E32E0932E20E032
:10077000AE014F5F5F4F69E778E08AE19AE00E943F
:1007800085058130A1F780E090E00E94BB15809143
:10079000280A8F938091270A8F938091220A8F9342
:1007A0008091210A8F93FF92EF920E9421348091D1
:1007B0001B0A8F9380911A0A8F93DF92CF920E9427
:1007C000213489811F928F93BF92AF920E9421346E
:1007D0000FB6F894DEBF0FBECDBF10E089811817A9
:1007E00088F4E12FF0E0E758F74F80811F928F9354
:1007F0009F928F920E9421341F5F0F900F900F9055
:100800000F90ECCF85E693E00E943B34698189E745
:1008100098E00E948C0B80E090E00E94A415A7CF86
:100820000E945B251F928F938AEA92E09F938F9399
:100830000E9421340F900F900F900F900E94130789
:10084000811103C00E94B223F9CF10E083ECE82E9F
:1008500082E0F82ECEE0D9E01F921F93FF92EF9234
:10086000DF93CF930E946B341F5FFE010190002045
:10087000E9F73197EE50F94041E04E0F20E06EE08D
:1008800079E087E698E00E94DE040E94B2230F9090
:100890000F900F900F900F900F90DECF6BE773E0EB
:1008A00084E498E00E945F3040E051E060E477E04B
:1008B00084E498E00E946330E4E4F8E081E080871B
:1008C000878381878287138614861586168680E43F
:1008D00098E7ADE7B1E08787908BA18BB28B138A45
:1008E000148A158A168A178A108E118E128E138E0C
:1008F000148E158E168E178E10A211A212A2CF0181
:100900000E9420230C94130B08950C946A1181E02B
:1009100080930804089581E08093080408958091ED
:10092000D5030895009731F09093D4038093D303B7
:1009300081E008958FEF089590930B0480930A044B
:1009400081E08093090408958FEF089580E090E09E
:100950000895803220F40E94490D81E008958FEFC0
:1009600008958B3168F4682F8093FB0324E132E112
:1009700040E254E283E296E00E948B0D81E008950C
:100980008FEF08959093030480930204E1EEF3E067
:10099000DC0120E432E44FE050E00E9479326483CD
:1009A000758386839783108211821282138281E07D
:1009B000089590930104809300040895CF92DF92EC
:1009C000EF92FF92CF93DF9300D0CDB7DEB76C01EB
:1009D0007B0180910404813009F48DC0442309F423
:1009E0008AC06115710509F486C0C114D10409F4E7
:1009F00082C0211108C0809180092A8349830E9406
:100A00000B2049812A8181E08093040482E894E0EC
:100A10009093350780933407F60181818093830496
:100A20008081809382048581968190938504809350
:100A30008404809107048093870410928604818542
:100A40009285019692878187909389048093880488
:100A5000838180938B04828180938A043091050482
:100A6000F0E13F9FC0011124832B80938C045E2D05
:100A7000F7018CE090E03E2F351B341750F4319194
:100A8000A0913407B0913507A80FB91F3C93019688
:100A9000F2CF445F4093330721112BC081E090E0F7
:100AA000A0E0B0E0BC01CD010090800904C0660F59
:100AB000771F881F991F0A94D2F70E94AE206B01FE
:100AC0007C01611571058105910521F48FE692E0A5
:100AD0000E946A120090800904C0F694E794D794AB
:100AE000C7940A94D2F7C0FC04C08CE492E00E9440
:100AF0006A1281E001C08FEF0F900F90DF91CF91CC
:100B0000FF90EF90DF90CF9008958F929F92AF92D9
:100B1000BF92CF92DF92EF92FF920F931F93CF93EA
:100B2000DF931F92CDB7DEB74C018B015A01809144
:100B3000FD0321111CC08130F1F480917F092983CC
:100B40000E940B2081E090E0A0E0B0E0BC01CD016C
:100B500000907F0904C0660F771F881F991F0A94B1
:100B6000D2F70E94AE206B017C01298104C0813044
:100B700011F48FEF7CC0809126068C30D4F38C501A
:100B8000D5018C9380E0F5019081891778F4482F86
:100B900050E0E0912806F0912906E40FF51F9485B6
:100BA000F801E40FF51F90838F5FEDCF80912B0646
:100BB000992787FD9095D4011E969C938E931D973F
:100BC00080912C061F968C931F9780912D0650962E
:100BD0008C93509780912E0651968C935197E0916B
:100BE0002806F0912906858190E0982F8827348186
:100BF000832B18969C938E931797838190E0982F60
:100C000088273281832B16969C938E93159781812A
:100C100090E0982F88273081832B11969C938E9398
:100C2000878190E0982F88273681832B1A969C9392
:100C30008E931997818590E0982F88273085832B94
:100C400013969C938E93129782851C968C932111F8
:100C50000BC000907F0904C0F694E794D794C79422
:100C60000A94D2F7C0FE85CF81E08093FD030F90F8
:100C7000DF91CF911F910F91FF90EF90DF90CF9078
:100C8000BF90AF909F908F900895009751F09093F0
:100C90002906809328066093270681E08093FD0350
:100CA00008958FEF08958093050408950F931F937F
:100CB000CF93DF93162FD42F052F9FEF9093D80358
:100CC0001092D7031092D603809306041092090461
:100CD00083E0809305041092D50380E094E0909324
:100CE00001048093000480E896E9A8E9B0E08093CD
:100CF000E5039093E603A093E703B093E803109213
:100D0000E1031092E2031092E3031092E4030E94C5
:100D1000FB1EC82F80937F098F3F19F484E292E075
:100D200009C00E94FB1EC82F809380098F3F69F481
:100D30008CEF91E00E946A12E091E10BF091E20BDE
:100D400060858EE00E94431D2DC00E94FB1EC82FAF
:100D50008093190A8F3F19F480ED91E0EBCF82E187
:100D600094E0909329068093280680E780932706D5
:100D7000C1E0C093FD03109204042D2F302F4FEFDC
:100D80005FEF612F83E296E00E948B0D1093FB03CF
:100D9000D093070483ED9FEF0E947C10C093FC0367
:100DA000C093FA038C2FDF91CF911F910F9108957B
:100DB00080917F090E940B2080917F090895809186
:100DC00080090E940B208091800908952091FD03E5
:100DD000213039F4FC011082FB01108280E090E0A8
:100DE000089520912606FC01208380912B06FB01AB
:100DF00080838091280690912906089581E0809350
:100E0000FD0308951092FA030C940A0D81E080937B
:100E1000FA030E94300D8091190A0C943D2081E064
:100E20008093150608958091FC0308958091FD0339
:100E3000813099F00E94010E0E94FB0D8091D20337
:100E40008F5F8093D203833030F01092FD03809146
:100E50007F090E943D208FEF08951092D2030E94D7
:100E6000050F813091F5609126066D306CF180910F
:100E70000804811107C01092FD0380917F090E9430
:100E80003D2022C080912806909129060E94DB1106
:100E9000809128069091290620912606820F911DA7
:100EA00027FD9A95FC01319720812A3CA1F63197C4
:100EB00020812E3F81F6319720812E3B61F63197BC
:100EC00080818F3EC1F2C7CF81E00895CF93DF9339
:100ED0008091FD03813011F08FEF40C0D4E60E9475
:100EE000050FC82F813089F5609126066D30ACF171
:100EF00080910804811107C01092FD0380917F0941
:100F00000E943D202AC080912806909129060E94C7
:100F1000DB11809128069091290620912606820FE8
:100F2000911D27FD9A95FC01319720812A3CA1F65D
:100F3000319720812E3F81F6319720812E3B61F63B
:100F4000319780818F3EC1F2C7CF84E690E00E9446
:100F50005D2CD15021F68C2F01C081E0DF91CF9123
:100F600008950F931F93CF9390910804992309F448
:100F700043C02091330784E0820F382F3F7031F057
:100F800087FF02C083E1820F807F805F80933307F9
:100F900080913307E0913407F0913507E80FF11D98
:100FA00087FDFA9531978AEC808380913307E09131
:100FB0003407F0913507E80FF11D87FDFA95329758
:100FC0008EEF808380913307E0913407F0913507ED
:100FD000E80FF11D87FDFA9533978EEB80838091A2
:100FE0003307E0913407F0913507E80FF11D87FDD5
:100FF000FA9534978FEE808360913307062F11277F
:1010000007FD1095E0913407F0913507C0E040E00E
:10101000242F30E0201731073CF42E0F3F1FD90159
:101020008C91C80F4F5FF4CF992319F0CF010E9424
:101030008C11E0913307FF27E7FDF095E657FE4F4F
:10104000C08381E397E00E94070E10920404809110
:1010500080090E943D2081E0CF911F910F9108955A
:10106000CF93DF9300D0CDB7DEB70E94B22380913B
:10107000FC038823D1F38091190A0E940B208A83F4
:101080008F3F21F484EB91E00E946A12612C712C55
:1010900022242A94322C80910604813009F0E1C088
:1010A0008093D5036114710409F088C08091040411
:1010B000811116C022E834E03093350720933407BD
:1010C0003FEF30938404309385041092860410928D
:1010D000870410928804109289048CE0809333076F
:1010E000E0913407F091350790910004809101045C
:1010F000908781871082E0913407F0913507118243
:10110000E0913407F09135072091050430E1239FE9
:10111000C0011124822B828780910204838789ED8C
:1011200093E00E946125309232072092310710929D
:101130003707109236070E94B1070E94FB0D80917D
:101140001506813009F043C0412C512CC20165E0E5
:1011500070E00E949432892B21F483E090E00E9499
:101160008D15E0913407F09135078FEF8083E09182
:101170003407F09135078183E0913407F09135070A
:101180001482E0913407F091350715829CE090932A
:1011900033070E94B1078AE090E00E945924EFEFE4
:1011A0004E1A5E0AF8EE4F16F3E05F0679F683E01A
:1011B00090E00E94A4151092150609C00E9416071F
:1011C0002A81213021F47092FF036092FE033FEFE9
:1011D000631A730A809100049091010486159705A3
:1011E00028F48AE090E00E945924ECC18090E10349
:1011F0009090E203A090E303B090E403C090E50375
:10120000D090E603E090E703F090E8030091D90363
:101210001091DA032091DB033091DC034091DD0370
:101220005091DE036091DF037091E00389ED93E05C
:101230000E946B2689ED93E00E944A262091D903F3
:101240003091DA034091DB035091DC036091DD03C0
:101250007091DE038091DF039091E0030E940525E9
:101260001ACF672809F057C00E94300D0E94FB0D6D
:10127000612C712C0E9466078A8389ED93E00E949D
:1012800061258A81813009F5E0912806F0912906CF
:10129000818190E0982F88272081822B258130E062
:1012A000322F22274481242B232B21F48F3F2FEF31
:1012B000920721F0892B09F488C102C0612C712C9E
:1012C00031E03093FD038FEF8A8394E66916710451
:1012D000C0F01092D503E091D303F091D40330977E
:1012E00029F0C3018456910909958983E981E13088
:1012F00019F4612C712C05C0F0E36F16F5E77F0639
:1013000018F42FEF621A720A31E03093FD038A81DC
:10131000813009F0AFCFE0912806F091290692853F
:10132000892F82958F709F70891B813118F480936B
:10133000F90302C01092F9031092F1031092F20324
:101340001092F3031092F4031092F5031092F60337
:101350001092F7031092F8031092E9031092EA0337
:101360001092EB031092EC03A0912606BB27A7FD79
:10137000B09520E03DE70E947232DC01CB01935B27
:10138000A74FBF4F8093ED039093EE03A093EF031D
:10139000B093F003612C712C8091F90390E06816F2
:1013A000790640F58090E9039090EA03A090EB0362
:1013B000B090EC03C090ED03D090EE03E090EF030B
:1013C000F090F0030091F1031091F2032091F303E8
:1013D0003091F4034091F5035091F6036091F703C7
:1013E0007091F80381EF93E00E946B269FEF691ADA
:1013F000790AD2CFE1E0E093D5030E94010E0E946A
:101400000A0D80910A0490910B0460900004709082
:1014100001048615970508F43C01412C512C461413
:10142000570441F18090E1039090E203A090E30320
:10143000B090E403C090E503D090E603E090E703AA
:10144000F090E8030091D9031091DA032091DB03B7
:101450003091DC034091DD035091DE036091DF03A6
:101460007091E00389ED93E00E946B26FFEF4F1A25
:101470005F0AD5CF8090F1039090F203A090F30320
:10148000B090F403C090F503D090F603E090F7031A
:10149000F090F8030091D9031091DA032091DB0357
:1014A0003091DC034091DD035091DE036091DF0356
:1014B0007091E00389ED93E00E94BE2589ED93E0F1
:1014C0000E944A262091D9033091DA034091DB0330
:1014D0005091DC036091DD037091DE038091DF03A6
:1014E0009091E0030E940525809104048130B1F4BD
:1014F000E0913407F09135076082E0913407F09174
:1015000035077182309232072092310710923707E7
:10151000109236070E94300D0E94B1070E94010E02
:101520000E940A0D412C512C8091000490910104DD
:10153000861997094816590640F58090E103909066
:10154000E203A090E303B090E403C090E503D090E1
:10155000E603E090E703F090E8030091D9031091CF
:10156000DA032091DB033091DC034091DD035091DD
:10157000DE036091DF037091E00389ED93E00E9448
:101580006B262FEF421A520ACFCF89ED93E00E94CB
:101590004A262091D9033091DA034091DB03509120
:1015A000DC036091DD037091DE038091DF03909195
:1015B000E0030E9405258091FA03811103C00E9477
:1015C000B223F9CF612C712C66CD828582958F7004
:1015D00080930504818590E0982F88272085822BB1
:1015E0009093010480930004A3858A2F90E0909348
:1015F000030480930204DC0120E432E44FE050E075
:101600000E9479326093E5037093E6038093E703C9
:101610009093E8031092E1031092E2031092E30327
:101620001092E40352CE60E378E082EF95E00E94EE
:101630005F3040E051E062EF74E082EF95E00E949D
:101640006330E2EFF5E084E1808781E08783818782
:10165000828781E090E0A0E0B0E083879487A5874F
:10166000B6871786108A118A128A87E090E0A0E078
:10167000B0E0838B948BA58BB68B178A108E118E5E
:10168000128E138E148E158E168E178E10A211A226
:1016900012A2CF010C9420239093B30A8093B20A34
:1016A0007093AE0A6093AD0A4093B10A2093AC0ADE
:1016B0006FEF81E00E94E8209093B00A8093AF0A18
:1016C000019631F40E945B25682F8FE00E94431D34
:1016D00081E0809310020895CF93C82F8091AC0AC7
:1016E000882351F028EE33E0482F429FC001439FEA
:1016F000900D11240E945D2C6091AD0A7091AE0A8C
:101700008C2F90E0CF910C94E9338091B20A9091A4
:10171000B30A0E94AB330895EF92FF920F931F9389
:10172000CF93DF93C82FE92ED62F613810F083E0D6
:1017300050C08091AF0A9091B00A0E9432218F3F31
:1017400031F48DE293E00E946A1281E042C080ECA5
:101750000E946C0B81EC0E946C0B8D2F0E946C0B15
:10176000FC2E0C2F1E2DC0E0802F8F198D17E8F452
:10177000F8018081803C41F48BED0E946C0B8CED74
:101780000E946C0BC0540EC08B3D39F40E946C0B50
:101790008DED0E946C0BC55205C00E946C0BF801C8
:1017A0008081C80F0F5F1F4FDFCF8C2F8F770E9474
:1017B0006C0B80EC0E946C0B8091AF0A9091B00A88
:1017C0000E9490218F3F49F48FEF92E00E946A12AD
:1017D00082E00E94CC1B8FEF01C081E0DF91CF91AE
:1017E0001F910F91FF90EF9008958091100208953E
:1017F0008F929F92AF92BF92CF92DF92EF92FF9221
:101800000F931F93CF93DF937C01D62E0E94591222
:1018100080931A068F3F21F483EE92E00E946A12B1
:1018200080911A060E940B208F3F21F48EEB92E0EC
:101830000E946A1280E00E945B12811119C081E04F
:1018400090E0A0E0B0E0BC01CD0100901A0604C019
:10185000660F771F881F991F0A94D2F70E94AE2047
:1018600060931606709317068093180690931906D6
:10187000812C912C5401839480E00E945B12882378
:1018800079F00E94850B813CB9F70E94850BC82E28
:1018900010E0C0E001EC812C912C540183942BC00A
:1018A0000E945B128111EDCFC501B40100901A06B0
:1018B00004C0660F771F881F991F0A94D2F70E94F1
:1018C000AE206093160670931706809318069093C7
:1018D0001906D7CF0E94850BD82F803C39F18B3D5C
:1018E00009F445C0CD1508F46CC00D2F80E00E94AE
:1018F0005B128111EFCF80E00E945B128111F6CF65
:10190000C501B40100901A0604C0660F771F881F36
:10191000991F0A94D2F70E94AE2060931606709326
:1019200017068093180690931906E0CFD12FCC2389
:1019300029F0DF770D1302C08C2F4DC08CEA92E0A6
:101940000E946A121F92DF931F920F931F92CF93F0
:1019500089ED92E09F938F930E9421348DB79EB7BB
:1019600008960FB6F8949EBF0FBE8DBF28C080E0CA
:101970000E945B12811115C0C501B40100901A06C6
:1019800004C0660F771F881F991F0A94D2F70E9420
:10199000AE206093160670931706809318069093F6
:1019A00019060E94850B8C3D41F08D3D09F49ACFBC
:1019B00083E992E00E946A1202C0D0EC93CF8FEFCD
:1019C0000AC0CC1508F091CFF701EC0FF11DD083C0
:1019D0001D0FCF5F8ACFDF91CF911F910F91FF90A5
:1019E000EF90DF90CF90BF90AF909F908F90089531
:1019F000909141019F719F31D9F3809342010895E5
:101A000080931B06089581E08093BA0A089510928E
:101A1000BA0A0895809141018F718F31D9F3809175
:101A200041018F71E1F08F30D1F0809141018F71D0
:101A3000883031F4809139018260809339010BC084
:101A400088E00E94F80C809141018F718830D9F7AD
:101A5000F1CF8F3021F0809141018F71D1F708953E
:101A6000809141018F718F31D9F3809141018F7144
:101A700011F08F3051F4809139018D7F80933901BD
:101A8000809141018F718830D9F7089589E00C94D5
:101A9000F80CE5E4F1E09081907F908390818F7065
:101AA000982B90830895E7E5F1E080818D7F808316
:101AB0000895E7E5F1E08081826080830895EEE695
:101AC000F1E080818F7E80830895EEE6F1E08081F1
:101AD0008061808308958093600190936101909369
:101AE000C40A8093C30A08959093BE0A8093BD0AE6
:101AF000E8E4F1E08081807E80838081682B6083D0
:101B0000089590931F0680931E06089590931D06D6
:101B100080931C0608950F931F93CF93DF93FC01CE
:101B2000D90180E28093440180EC8093450160629A
:101B30006093480185EC8093490187EA80934B01CB
:101B400080E880934C0120936001B0936101409341
:101B5000620150936301C6E4D1E0088188819881D5
:101B60002881302F32953695377060E4369F80019A
:101B70001124229526952370622F602B82958695DD
:101B8000837070E1879F90011124262B9295969582
:101B9000937084E0989FB0011124622B60936D01D3
:101BA00088819881929596959370392F3064982FFB
:101BB00092959670932B90936E0110926C018FEF1B
:101BC00080934E01CDEBDAE0F983E8831A821B8221
:101BD0005D834C83BF83AE83188681E08093D70AF0
:101BE0001092EE0A1092C60A1092BA0ADF91CF91B3
:101BF0001F910F91089586E10C94F80C86E10C94E6
:101C0000F80C88E00E94F80C1092EE0A08950F93E9
:101C10001F93CF93DF93FC018091D70A811102C0FB
:101C20008FEFABC026818091BF0A8F5F8093BF0A80
:101C300090918101907E916020FB95F99F73906453
:101C40009093810188E8809382018091BA0A882369
:101C500061F08FEF809383018AEA9AEA9093890179
:101C6000809388018FEF9FEF10C08091BF0A80930F
:101C70008301209161018091600190E0922B90930B
:101C8000890180938801808191819093870180935D
:101C90008601209163018091620190E0922B9093E4
:101CA0008501809384018F014281552747FD50951E
:101CB000638174818AE891E00E944933F80182814E
:101CC000855F8093800180914101D82FDF719FEF64
:101CD0009D0F9230C0F3D131B1F3D231A1F3DF3196
:101CE00091F398EF9D0F923020F08F70863009F0BD
:101CF00097CF86E10E94F80CF801858181110BC015
:101D000089E00E94F80CF8018681882391F089E12E
:101D10000E94F80C0EC080914801806880934801B1
:101D20008091410187FFFCCF8091410186FF78CFF0
:101D3000E7CF1092C60A82E00E94F80C80E090E0A3
:101D40002091C60A211105C00196883EFDEF9F072C
:101D5000B9F7F8012681222331F020914201229522
:101D60002695277029F4883E9D4F11F0C1E001C0EF
:101D7000CFEF8D2F0E94F80C8C2FDF91CF911F9108
:101D80000F9108951092C60A82E00E94F80C88EE26
:101D90009DEF2091C60A211104C00197D1F78FEF62
:101DA000089581E00895CF93DF938091D70A882327
:101DB00041F180914101C82FCF719FEF9C0F92306C
:101DC000C0F3C131B1F3C231A1F3CF3191F3C830C7
:101DD00019F08F708630A9F486E10E94F80C80918A
:101DE00048018068809348018091410187FFFCCFC2
:101DF000D09141018C2F0E94F80CD6FB882780F9E6
:101E000001C08FEFDF91CF9108958091D70A882389
:101E100009F4E3C08091EE0A882309F4DCC08091C4
:101E20007B01E091BD0AF091BE0A90E00297248107
:101E3000332727FD3095281739070CF4CEC0E091E1
:101E4000BD0AF091BE0A809182018083E091BD0AB3
:101E5000F091BE0A809187019091880192838183DD
:101E6000E091BD0AF091BE0A80917B018B50838383
:101E7000A091BD0AB091BE0AE091BD0AF091BE0AE0
:101E800013969C91848189173CF0E091BD0AF091F2
:101E9000BE0A838187FF0DC01092EE0A80914C012B
:101EA0008F7780934C0180914C01806880934C0126
:101EB00094C0A091BD0AB091BE0AE091BD0AF09114
:101EC000BE0A13964C91552747FD509569E871E07D
:101ED000858196810E94493380911B06882309F4ED
:101EE0003EC0E091BD0AF091BE0A83818031B9F510
:101EF000E091BD0AF091BE0A6581768144E050E030
:101F000081E192E00E945233892B49F5E091BD0AAC
:101F1000F091BE0A6581768140E150E081E192E076
:101F20000E945233892BD9F49DE088E10FB6F894D2
:101F3000A895809360000FBE9093600080E090E0D1
:101F40000E94BB1581E090E00E94BB1582E090E00A
:101F50000E94BB1583E090E00E94BB15FFCFE0918B
:101F6000BD0AF091BE0A8091800185FB882780F927
:101F70008783E091BD0AF091BE0A80914701808776
:101F8000E091BD0AF091BE0A809146018695869542
:101F900086958187E091BD0AF091BE0A8091470144
:101FA0008287A091BD0AB091BE0AE0917B01F0E06A
:101FB000E058FE4F80811B968C931092EE0A809120
:101FC0004C018F7780934C0180914C018068809305
:101FD0004C0181E0089580E008958FEF08951F92ED
:101FE0000F920FB60F9211248F9380E880934F01C8
:101FF0008F910F900FBE0F901F9018951F920F9208
:102000000FB60F9211248F9381E08093C60A80E46B
:1020100080934F018F910F900FBE0F901F901895D6
:102020001F920F920FB60F9211248F9380E280932C
:102030004F018F910F900FBE0F901F9018951F9218
:102040000F920FB60F9211248F9380E180934F016E
:102050008F910F900FBE0F901F9018951F920F92A7
:102060000FB60F9211240BB60F922F933F934F93FD
:102070005F936F937F938F939F93AF93BF93EF93F0
:10208000FF9384E080934F01E0911E06F0911F06BC
:10209000309709F00995FF91EF91BF91AF919F9112
:1020A0008F917F916F915F914F913F912F910F9001
:1020B0000BBE0F900FBE0F901F9018951F920F929E
:1020C0000FB60F9211248F9382E080934F018F916E
:1020D0000F900FBE0F901F9018951F920F920FB682
:1020E0000F9211248F9381E080934F018F910F9075
:1020F0000FBE0F901F901895E9E4F1E09081907F5A
:10210000908390818F70982B908308958FEF08951E
:102110000895089508958FEF08958091B80A9091D9
:10212000B90A0895089581E0089581E0089581E055
:1021300008950895089508950895089508950895B7
:10214000089598988DB1806E8DB98EB1806A8EB9E0
:10215000089598988DB1806E8DB98EB180668EB9D4
:102160000895CF92DF92EF92FF920F931F93CF9338
:10217000DF93CDB7DEB727970FB6F894DEBF0FBE5B
:10218000CDBF0E94D816E091BD0AF091BE0AC08072
:10219000D380E580F68000850E94050F18161CF09C
:1021A00084EE92E006C0F7011081111107C083E0B0
:1021B00093E00E943B340E94DA1631C0153021F4BE
:1021C0008AE090E00E943534C70101969F938F9377
:1021D000802F992787FD90959F930F931F921F93B0
:1021E0001F92CF9285E293E09F938F930E942134B8
:1021F000FD82EC821150F7011083DB821E821F8268
:102200008FEF9FEF9A8389830E94DA16CE010196A1
:102210000E94070E0FB6F894DEBF0FBECDBF279603
:102220000FB6F894DEBF0FBECDBFDF91CF911F91E7
:102230000F91FF90EF90DF90CF9008951F920F9233
:102240000FB60F9211240BB60F922F933F934F931B
:102250005F936F937F938F939F93AF93BF93EF930E
:10226000FF9380E090917B01891710F48F5FFACF84
:102270008091460187FF04C081E08093EE0A04C08C
:102280008EE493E00E943B3488E080934F0180917C
:10229000460187FF05C08091BA0A81110E94B110E2
:1022A000E0911C06F0911D06309709F00995FF9109
:1022B000EF91BF91AF919F918F917F916F915F91BE
:1022C0004F913F912F910F900BBE0F900FBE0F902B
:1022D0001F901895A7ECBAE0FC01409620812D9341
:1022E000219120933F01E817F907C1F780E110928F
:1022F0003E018150E1F780E880933C0180913D01EF
:1023000080FFFCCFE8EDFAE080E18E0F90913F0175
:1023100091938E13FBCF0895CF93DF93DC01662357
:1023200009F445C0862F8F7009F041C0E7ECFAE050
:1023300090E19E0F219120933F019E13FBCF90E0EF
:1023400070E0E0E240E1949F9001112426173707E6
:102350007CF5911103C010923C0102C0E0933C0156
:1023600040E050E02A0F3B1FE901C40FD51FF88160
:10237000F0933E014F5F5F4F40315105A9F7409107
:102380003C01406840933C0140913D0140FFFCCF3F
:1023900040E050E0F0913E01E901C40FD51FF88301
:1023A0004F5F5F4F40315105A9F79F5FCBCF81E071
:1023B000DF91CF9108950F931F93CF93DF93DC01AB
:1023C000613009F458C0862F8F7009F054C0E8EDD1
:1023D000FAE090E19E0F219120933F019E13FBCFE5
:1023E00062956F70615078E06F3F09F445C070935B
:1023F0003C01462F552747FD509520E030E0ED0188
:1024000090E16902C00DD11D1124FE01E20FF31FFE
:10241000908190933E012F5F3F4F20313105A9F706
:1024200090913C01906890933C0190913D0190FF08
:10243000FCCF4150510994E0440F551F9A95E1F7A4
:1024400020E030E090913E018E01020F131FF80151
:102450009083662349F0F901E40FF51FEA0FFB1F93
:10246000E0819E27F80190832F5F3F4F2031310597
:1024700049F76150B9CF81E0DF91CF911F910F9162
:1024800008958091C00087FFFCCF8091C0008F77B6
:102490008093C0008091C60008959091C00095FF80
:1024A000FCCF9091C0009F7D9093C0008093C600A8
:1024B00008958FEF0895813019F48091C80004C009
:1024C000811106C08091C000881F8827881F089549
:1024D00080E00895CF93DF93FC012491EC012196D5
:1024E000222351F06091460C7091470C822F90E0AE
:1024F0000E94E933CE01F0CFDF91CF91089586E0BD
:1025000084B985B988EF8AB980EF8BB982E08DB93B
:1025100008950C947F128F3F09F46CC0E82FE77088
:102520004E2F50E04730510508F064C0FA01E057E3
:10253000FF4F8695869586950C94293342B121E00C
:1025400030E0B90102C0660F771F8A95E2F7CB0130
:10255000842B82B94DC045B121E030E0B90102C001
:10256000660F771F8A95E2F7CB01842B85B940C0AF
:1025700048B121E030E0B90102C0660F771F8A95AB
:10258000E2F7CB01842B88B933C04BB121E030E0B6
:10259000B90102C0660F771F8A95E2F7CB01842B41
:1025A0008BB926C04EB121E030E0B90102C0660F00
:1025B000771F8A95E2F7CB01842B8EB919C041B3FE
:1025C00021E030E0B90102C0660F771F8A95E2F77B
:1025D000CB01842B81BB0CC044B321E030E0B901B6
:1025E00002C0660F771F8A95E2F7CB01842B84BB6C
:1025F00081E008958FEF08958F3F09F473C0E82FAD
:10260000E7704E2F50E04730510508F06BC0FA01DB
:10261000E956FF4F8695869586950C94293342B1ED
:1026200021E030E0B90102C0660F771F8A95E2F71A
:10263000CB018095842382B953C045B121E030E0BD
:10264000B90102C0660F771F8A95E2F7CB0180952A
:10265000842385B945C048B121E030E0B90102C00A
:10266000660F771F8A95E2F7CB018095842388B99E
:1026700037C04BB121E030E0B90102C0660F771FCF
:102680008A95E2F7CB01809584238BB929C04EB19E
:1026900021E030E0B90102C0660F771F8A95E2F7AA
:1026A000CB01809584238EB91BC041B321E030E07B
:1026B000B90102C0660F771F8A95E2F7CB018095BA
:1026C000842381BB0DC044B321E030E0B90102C0D6
:1026D000660F771F8A95E2F7CB018095842384BB30
:1026E00081E008958FEF08958F3F31F1E82FE77073
:1026F0004E2F50E047305105F8F4FA01E256FF4FF3
:10270000282F2695269526950C94293390B10BC039
:1027100093B109C096B107C099B105C09CB103C07F
:102720009FB101C092B3892F90E002C09595879523
:102730002A95E2F7817008958FEF08958F3F09F48D
:1027400006C1E82FE7704E2F50E04730510508F0E2
:10275000FEC0FA01EB55FF4F8695869586950C9441
:10276000293320B130E0082E02C0359527950A9410
:10277000E2F742B120FD0BC021E030E0B90102C018
:10278000660F771F8A95E2F7CB01842B0BC021E0FF
:1027900030E0B90102C0660F771F8A95E2F7CB01DE
:1027A0008095842382B916C023B130E0082E02C080
:1027B000359527950A94E2F745B120FD0DC021E03B
:1027C00030E0B90102C0660F771F8A95E2F7CB01AE
:1027D000842B85B981E0089521E030E0B90102C081
:1027E000660F771F8A95E2F7CB0180958423F1CF9E
:1027F00026B130E0082E02C0359527950A94E2F7FD
:1028000048B120FD0BC021E030E0B90102C0660FE5
:10281000771F8A95E2F7CB01842B0BC021E030E0D3
:10282000B90102C0660F771F8A95E2F7CB01809548
:10283000842388B9CFCF29B130E0082E02C0359566
:1028400027950A94E2F74BB120FD0BC021E030E060
:10285000B90102C0660F771F8A95E2F7CB01842B7E
:102860000BC021E030E0B90102C0660F771F8A95E6
:10287000E2F7CB01809584238BB9ACCF2CB130E04B
:10288000082E02C0359527950A94E2F74EB120FD37
:102890000BC021E030E0B90102C0660F771F8A95B6
:1028A000E2F7CB01842B0BC021E030E0B90102C07C
:1028B000660F771F8A95E2F7CB01809584238EB946
:1028C00089CF2FB130E0082E02C0359527950A94A4
:1028D000E2F741B320FD0BC021E030E0B90102C0B6
:1028E000660F771F8A95E2F7CB01842B0BC021E09E
:1028F00030E0B90102C0660F771F8A95E2F7CB017D
:102900008095842381BB66CF22B330E0082E02C0BD
:10291000359527950A94E2F744B320FD0BC021E0DA
:1029200030E0B90102C0660F771F8A95E2F7CB014C
:10293000842B0BC021E030E0B90102C0660F771F85
:102940008A95E2F7CB018095842384BB43CF8FEF38
:1029500008958F3F09F4D5C0E82FE7704E2F50E05F
:10296000611167C04730510508F0CBC0FA01E4554A
:10297000FF4F8695869586950C94293341B121E0C9
:1029800030E0B90102C0660F771F8A95E2F7CB01EC
:102990008095842365C044B121E030E0B90102C0D4
:1029A000660F771F8A95E2F7CB018095842365C077
:1029B00047B121E030E0B90102C0660F771F8A9568
:1029C000E2F7CB018095842365C04AB121E030E075
:1029D000B90102C0660F771F8A95E2F7CB01809597
:1029E000842365C04DB121E030E0B90102C0660F1B
:1029F000771F8A95E2F7CB018095842365C040B3A9
:102A000021E030E0B90102C0660F771F8A95E2F736
:102A1000CB018095842365C043B321E030E0B90148
:102A200002C0660F771F8A95E2F7CB018095842359
:102A300065C04730510508F064C0FA01ED54FF4FFE
:102A40008695869586950C94293341B121E030E036
:102A5000B90102C0660F771F8A95E2F7CB01842B7C
:102A600081B94DC044B121E030E0B90102C0660F28
:102A7000771F8A95E2F7CB01842B84B940C047B118
:102A800021E030E0B90102C0660F771F8A95E2F7B6
:102A9000CB01842B87B933C04AB121E030E0B901C2
:102AA00002C0660F771F8A95E2F7CB01842B8AB9A3
:102AB00026C04DB121E030E0B90102C0660F771F9A
:102AC0008A95E2F7CB01842B8DB919C040B321E080
:102AD00030E0B90102C0660F771F8A95E2F7CB019B
:102AE000842B80BB0CC043B321E030E0B90102C0AD
:102AF000660F771F8A95E2F7CB01842B83BB81E0B9
:102B000008958FEF0895811106C080B18695817078
:102B100091E0892708958FEF0895009711F483E2DB
:102B20000DC08130910511F48BE208C0823091050F
:102B300011F483E303C0039729F48BE30E949E13EF
:102B400081E008958FEF0895009711F483E20DC09E
:102B50008130910511F48BE208C08230910511F4A7
:102B600083E303C0039729F48BE30E948B1281E077
:102B700008958FEF0895009711F483E20DC081301E
:102B8000910511F48BE208C08230910511F483E3C2
:102B900003C0039729F48BE30E94FC1281E008959F
:102BA0008FEF0895882319F085B78F7E02C085B70F
:102BB000806185BF81E008959091C80095FFFCCFAA
:102BC0008093CE0008959093C5008093C40086E062
:102BD0008093C200E1ECF0E080818B7F8083A0ECE9
:102BE000B0E08C9182608C938081886180830895AD
:102BF0009093CD008093CC0086E08093CA00E9ECEE
:102C0000F0E080818B7F8083A8ECB0E08C918260C3
:102C10008C938081886180830895CF93DF930E9495
:102C2000E31561E472E18DE492E10E946033C4E453
:102C3000DCE09B838A8361E472E18DE492E10E948F
:102C4000603399838883DF91CF9108958091C80084
:102C500087FFFCCF8091C8008F778093C800809158
:102C6000CE00089500000000000000000197D1F799
:102C700008950C94F9340E9401350895EF92FF9263
:102C80000F931F93CF93DF937C0180E090E00E942D
:102C9000F934182FF701838381E090E00E94F93422
:102CA000082FF701828382E090E00E94F934D82F48
:102CB000F701818383E090E00E94F934C82FF70187
:102CC000808384E090E00E94F934100FD10FCD0F83
:102CD0008C1711F08FEF01C081E0DF91CF911F9130
:102CE0000F91FF90EF900895CF93DF93EC0185E073
:102CF00090E00E94F934888381E0DF91CF910895BC
:102D0000FC01608186E090E00E94013581E0089539
:102D1000CF93DF93EC0186E090E00E94F934888342
:102D200081E0DF91CF9108950F931F93CF93DF93AD
:102D30008C01C0E0D0E0CE0108960E94F934F80181
:102D400081938F012196C031D105A9F781E0DF91F0
:102D5000CF911F910F9108950F931F93CF93DF93FE
:102D60008C01C0E0D0E0F80161918F01CE0108969E
:102D70000E9401352196C031D105A9F781E0DF918C
:102D8000CF911F910F910895CF93DF93EC0187E0CE
:102D900090E00E94F934888381E0DF91CF9108951B
:102DA000FC01608187E090E00E94013581E0089598
:102DB000F8940895789408950E94D816FFCFCF9381
:102DC000DF93CDB7DEB7A3970FB6F894DEBF0FBE83
:102DD000CDBF0E94FB1E8093D10B8F3F21F460E09A
:102DE0008EE00E94431D0E94272E80FF04C060E0F9
:102DF00086E00E94431D0E943E308F3F31F40E94C6
:102E0000213060E080E10E94431D0E942F3010922B
:102E1000D40B1092E20B1092E10B1092D30B109294
:102E2000D20B1092E30B0E9488181092E00B8FEFE8
:102E30008093CA0B8093CC0B8093CB0B8093CD0BEC
:102E40008093CF0B8093CE0B80E090E033E62FEFA2
:102E5000FC01EF50F54F328720878B96873D910517
:102E6000B9F7EDE1FCE0CF01059694838383F78306
:102E7000E683FC018CE0E633F807A9F710921F0CFB
:102E800010921E0C10923A0C1092390C1092D70B23
:102E90001092D60B8DE19CE09093F00A8093EF0A9C
:102EA0006BEE77E2CE0101960E945F3040E850E081
:102EB0006CE27AE0CE0101960E94633085E5809352
:102EC0002C0A19861C861D861E861F86188A198A5A
:102ED0001A8A1B8A1C8A1D8A1E8A1F8A188E198EBE
:102EE0001A8E1B8E1C8E1D8E1E8E1F8E18A219A26E
:102EF0001AA21BA281E0888792E09A878B87CE0175
:102F000001960E942023A3960FB6F894DEBF0FBE51
:102F1000CDBFDF91CF91089509EF1AE0C0E0F8012D
:102F2000D080FFEFDF1222C0CF5F055D1F4FC5309D
:102F3000B1F70E940F222BE28202C0011124FC0192
:102F4000EF50F54F82858093E30BF093E20BE09313
:102F5000E10BF093D30BE093D20B8093D40B0E9440
:102F6000D5300E94BF300E94D93016C089EFE82EBC
:102F70008AE0F82ED0E0CD1741F0F7018081D81219
:102F800004C06D2D85E00E94431DDF5FFBE2EF0E64
:102F9000F11CD53081F7C8CFFFCFCF92DF92EF92EF
:102FA000FF920F931F93CF93DF93EC018B017A0174
:102FB0008985823021F08091D00B888301C01882EE
:102FC0008091D00B853020F060E087E00E94431DA7
:102FD0008985823029F08091D00B8F5F8093D00B50
:102FE0008091D00B811103C081E08093D00B388198
:102FF0002BE23203F0011124EF50F54F11830083CF
:103000008885828738813203F0011124EF50F54F13
:1030100083E0818738813203F0011124EF50F54FAE
:10302000308708810203800111240F50154FF801E9
:103030001582CE010B960E947D27F80161A372A331
:1030400083A394A38B859C85AD85BE8588339948E1
:10305000A144B10520F0688186E10E94431DC8802B
:10306000DD24C7FCD094CE014B960E947D271BE245
:103070001C9DF0011D9DF00D1124EF50F54F658B47
:10308000768B878B908F28812103C00111249C01AE
:103090002F50354F6901F901458956896789708D2F
:1030A00081A192A1A3A1B4A1840F951FA61FB71F50
:1030B000818F928FA38FB48FCE0143960E947D277C
:1030C000F60165A376A387A390A728812103F001C9
:1030D0001124EF50F54F85A196A1A7A1B0A5858F2A
:1030E000968FA78FB0A381E090E092A781A7F3828B
:1030F000E2828487DF91CF911F910F91FF90EF9033
:10310000DF90CF9008950C940F2885E690E0089505
:10311000109238071092390710923A0710923B0725
:1031200010923C0710923D0710923E0710923F0705
:10313000E2E8F9E080E090E01082118212821382CE
:1031400010861186128613861482158216821782C3
:103150001486158616861786108A118A128A138A93
:10316000108E118E128E138EDC01AE57B64F5C9608
:103170001C925C975D961C927E964E9686399105C0
:10318000D9F608950F931F93E8E3F7E0A82FB0E076
:1031900023EB36EE4EE050E00E9479320481158137
:1031A00026813781DC01CB01800F911FA21FB31F45
:1031B00084839583A683B783CF011F910F910C94CD
:1031C0004A26E8E3F7E04081518162817381DC01A6
:1031D0004D935D936D937C931397448155816681E4
:1031E0007781FC01448355836683778308952EE1BC
:1031F000829FC0011124FC01EE57F64F858D81306E
:1032000039F0848D8F5F848F8F3F11F481E0858F3B
:1032100008952EE1829FC0011124FC01EE57F64F64
:10322000858D8130B1F0148A158A168A178A8089B3
:103230009189A289B3890196A11DB11D808B918BC3
:10324000A28BB38B8E3F9F4FAF4FBF4F11F481E0E6
:10325000858F08950F931F932EE1829FC001112443
:10326000FC01EE57F64F858D813071F1808D918D87
:10327000A28DB38D0196A11DB11D808F918FA28F5C
:10328000B38F462F50E060E070E0048915892689ED
:103290003789040F151F261F371F048B158B268BAC
:1032A000378B0081118122813381400F511F621FB2
:1032B000731F40835183628373838E3F9F4FAF4F51
:1032C000BF4F11F481E0858F1F910F910895CF9228
:1032D000DF92EF92FF92282F30E09EE1899FF0016C
:1032E0001124EE57F64F858D813009F44BC0462FDF
:1032F00050E060E070E084899589A689B789840FE1
:10330000951FA61FB71F84879587A687B787C0809C
:10331000D180E280F3804C0D5D1D6E1D7F1D4083CA
:10332000518362837383448155816681778141151E
:1033300051056105710529F084179507A607B707A0
:1033400060F44EE1429FF001439FF00D1124EE57CF
:10335000F64F84839583A683B7834EE1429FF001A5
:10336000439FF00D1124EE57F64F4085518562853D
:103370007385481759076A077B0720F48087918770
:10338000A287B387FF90EF90DF90CF9008958F9240
:103390009F92AF92BF92CF92DF92EF92FF920F93E4
:1033A0001F93CF93DF93CDB7DEB728970FB6F8946E
:1033B000DEBF0FBECDBF182F8BE394E00E946A12D0
:1033C000A12EB12C1F921F9387EA92E09F938F93B7
:1033D0000E9421340F900F900F900F90111152C046
:1033E00080E294E00E946A12CE0101960E9461255B
:1033F0006D817E818F819885E0E4CE2EE2E4DE2E21
:10340000EFE0EE2EF12CA70196010E94A8325F9307
:103410004F933F932F938C818F938B818F938A81CE
:103420008F9389818F9307E613E01F930F930E9478
:1034300021348FEF93E00E946A1260913C077091F3
:103440003D0780913E0790913F07A70196010E949A
:10345000A8325F934F933F932F9380913B078F93B5
:1034600080913A078F93809139078F938091380725
:103470008F931F930F930E9421340FB6F894DEBFF1
:103480000FBECDBF8EEE93E00E946A128EE18A9D40
:1034900080018B9D100D11240E57164FF80160818D
:1034A0007181828193810E94462729833A834B83CD
:1034B0005C836D837E838F8398876D817E818F810E
:1034C000988520E4822E22E4922E2FE0A22EB12CA9
:1034D000A50194010E94A8325F934F933F932F93CD
:1034E0008C818F938B818F938A818F9389818F9326
:1034F00037E6E32E33E0F32EFF92EF920E94213461
:1035000083ED93E00E946A12F801648175818681DF
:1035100097810E94462729833A834B835C836D837E
:103520007E838F8398876D817E818F819885A501A9
:1035300094010E94A8325F934F933F932F938C8105
:103540008F938B818F938A818F9389818F9347E7A4
:10355000C42E43E0D42EDF92CF920E942134F80192
:1035600064857585868597850E94462729833A83D9
:103570004B835C836D837E838F8398876D817E818F
:103580008F819885A50194010E94A8325F934F9383
:103590003F932F938C818F938B818F938A818F930D
:1035A00089818F93DF92CF920E942134F801608548
:1035B0007185828593850E94462729833A834B83B0
:1035C0005C836D837E838F8398876D817E818F81FD
:1035D0009885A50194010E94A8325F934F933F9371
:1035E0002F938C818F938B818F938A818F93898185
:1035F0008F93FF92EF920E9421340FB6F894DEBFB2
:103600000FBECDBF83EC93E00E946A12F801709662
:1036100083818F9382818F9381818F93F801808939
:103620008F9359E8E52E53E0F52EFF92EF920E941A
:10363000213480EB93E00E946A12F801789683812E
:103640008F9382818F9381818F93F801808D8F93E7
:10365000FF92EF920E94213487E993E00E946A1260
:10366000F801848D1F928F936DE8E62E63E0F62EAD
:10367000FF92EF920E9421348AE793E00E946A123F
:10368000F801858D1F928F93FF92EF920E94213453
:1036900087E793E00E946A120FB6F894DEBF0FBE70
:1036A000CDBF28960FB6F894DEBF0FBECDBFDF9119
:1036B000CF911F910F91FF90EF90DF90CF90BF902F
:1036C000AF909F908F900895CF938AE593E00E94EA
:1036D0006A12C0E08C2F0E94C719CF5FC530D1F7A6
:1036E000CF910895DB01853008F054C09EE1899F99
:1036F000F0011124EE57F64F4081518162817381B0
:103700004D935D936D937C931397448155816681AE
:10371000778114964D935D936D937C9317974085B5
:1037200051856285738518964D935D936D937C9357
:103730001B9744855585668577851C964D935D93CB
:103740006D937C931F974089518962897389509644
:103750004D935D936D937C93539744895589668906
:10376000778954964D935D936D937C935797408DD5
:10377000518D628D738D58964D935D936D937C93AF
:103780005B97848D5C968C935C97858D5D968C930E
:1037900081E008958FEF0895E091E10BF091E20B45
:1037A00084870895E091E10BF091E20B8485089500
:1037B000CF93DF93D82FC62F80E092E00E94391676
:1037C0008F5F8F3F19F08093200602C01092200671
:1037D0002091200636E0239FC00111246D2F8F5FBA
:1037E0009D4F0E943B168091200646E0849FC001B9
:1037F00011246C2F8E5F9D4F0E943B162091200656
:103800004091D80B5091D90B6091DA0B7091DB0B82
:10381000672F77278827992746E0249F9001112456
:10382000C9018D5F9D4F0E943B162091200640915B
:10383000D80B5091D90B6091DA0B7091DB0B882774
:10384000992746E0249F90011124C9018C5F9D4F68
:103850000E943B16209120064091D80B5091D90B25
:103860006091DA0B7091DB0B9927872F762F652FEC
:1038700046E0249F90011124C9018B5F9D4F0E9457
:103880003B168091200626E0829FC00111246091A2
:10389000D80B8A5F9D4F0E943B166091200680E006
:1038A00092E0DF91CF910C943B16FC018091180AB5
:1038B000882331F0DB018C9380912F07808381E096
:1038C00008958091180A882309F483C082E796E05E
:1038D0000E946A1280912F071F928F9387EA92E0CD
:1038E0009F938F930E9421348EE696E00E946A1285
:1038F0000F900F900F900F908091180A883110F060
:103900001092180AE091180A8E2F90E0FC0131976E
:10391000E631F10508F046C0E654FF4F0C94293318
:1039200082E396E041C08BE096E03EC087EF95E0F1
:103930003BC081EE95E038C086EC95E035C080EB69
:1039400095E032C088E995E02FC085E895E02CC06D
:1039500082E795E029C084E595E026C08FE295E0F6
:1039600023C083E295E020C088E095E01DC089EF88
:1039700094E01AC085EE94E017C084ED94E014C082
:1039800080EC94E011C080EA94E00EC088E894E0F6
:103990000BC08DE694E008C08CE594E005C08DE492
:1039A00094E002C086E494E00E946A126091460CA2
:1039B0007091470C8DE090E00E94E9336091460CD5
:1039C0007091470C8AE090E00E94E9338091180AD8
:1039D000089580E0089513BC1092B60018BC17BC7F
:1039E00016BC15BC14BC1DBA1CBA1BBA10929B00A5
:1039F00010929A00109299001092980010929500DF
:103A000010929400109291001092900018BA1092A7
:103A100071001092B4001092B3001092B200109294
:103A2000B100E0EBF0E01082108217BA1092700043
:103A30008FEF84BF08950E94D8160E942130809194
:103A4000180A803171F08351823058F00E94EB1CCB
:103A50008EE796E00E946A120E942F300E94D816CC
:103A6000FFCF1092180A08958093180AE091E10B95
:103A7000F091E20B608560932F070E94D81B0E9493
:103A8000611C0C941B1D8093180A60932F070E94E1
:103A9000D81B0E94611C0C941B1DCF93DF931F92B7
:103AA000CDB7DEB719828981843640F480ED97E086
:103AB0000E945D2C89818F5F8983F5CF0F90DF9104
:103AC000CF91089581E090E00E94BB150E944D1DAA
:103AD0000E944D1D0E944D1D81E090E00E94A415A2
:103AE0000C944D1D81E090E00E94BB150E944D1D7D
:103AF00081E090E00E94A4150C944D1DFF920F935D
:103B00001F93CF93DF9300D01F92CDB7DEB71F92E4
:103B10008F9387EA92E09F938F938E010F5F1F4FE1
:103B20001F930F930E946B340F900F900F900F9084
:103B30000F900F90F12CF80101900020E9F73197D8
:103B4000E01BF10B8F2D90E08E179F0708F05DC0F2
:103B5000F801E80FF91FE0818E2F90E0FC01F0974B
:103B6000EA30F10508F049C0E053FF4F0C942933C7
:103B70000E94621D02C00E94721D0E94621D0E946E
:103B8000621D0E94621D0E94621D37C00E94721D4C
:103B90000E94721DF4CF0E94721D0E94721D0E942D
:103BA000721DEFCF0E94721D0E94721D0E94721D35
:103BB0000E94721DE8CF0E94721D02C00E94621D09
:103BC0000E94721D04C00E94621D0E94621D0E941C
:103BD000721D06C00E94621D0E94621D0E94621D2D
:103BE0000E94721D08C00E94621D0E94621D0E94F8
:103BF000621D0E94621D0E94721D0E944D1D0E9446
:103C00004D1D0E944D1DF39496CF0F900F900F9075
:103C1000DF91CF911F910F91FF9008956F927F9246
:103C20008F929F92AF92BF92CF92DF92EF92FF92CC
:103C30000F931F93CF93DF938EE896E00E946A1252
:103C4000E091E10BF091E20B8085282F332727FDCF
:103C500030953F938F9380E993E09F938F930E94D9
:103C60002134E091E10BF091E20BC281D381DF932B
:103C7000CF9384EC93E09F938F930E9421348881AB
:103C80001F928F9389E993E09F938F930E94213431
:103C9000E091E10BF091E20B81818F9380818F9312
:103CA00086EA93E09F938F930E9421348091E20BE8
:103CB0008F938091E10B8F9380EB93E09F938F9391
:103CC0000E942134C1EFDAE0EDB7FEB774960FB66B
:103CD000F894FEBF0FBEEDBF00E010E080EC682E50
:103CE00083E0782E99E9892E93E0992E26EAA22E78
:103CF00023E0B22E30EBC32E33E0D32EEA80FB80DC
:103D0000FF92EF921F930F937F926F920E94213444
:103D1000F70180811F928F939F928F920E9421348E
:103D200089818F9388818F93BF92AF920E942134B3
:103D3000DF93CF93DF92CF920E9421340F5F1F4F0A
:103D4000AB96EDB7FEB772960FB6F894FEBF0FBEF6
:103D5000EDBF0530110591F6DF91CF911F910F91C5
:103D6000FF90EF90DF90CF90BF90AF909F908F909B
:103D70007F906F900895CF93DF93E091E10BF091E6
:103D8000E20BC281D3818881853539F00E940E1EF5
:103D900081E00E94341D85E58883E091E10BF0917C
:103DA000E20B808191818115924438F00E940E1EB1
:103DB00082E1DF91CF910C94341DDF91CF91089572
:103DC0002BE28202C0011124FC01EF50F54FA281C9
:103DD000B3818C91853519F085E58C9308C080817D
:103DE00091818115924428F082E10E94341D8FEF69
:103DF000089581E008950F931F93409140085091DA
:103E00004108609142087091430880E090E08A0187
:103E10009B01082E04C036952795179507950A949F
:103E2000D2F700FD19C001E010E020E030E0082EDC
:103E300004C0000F111F221F331F0A94D2F7402B1A
:103E4000512B622B732B4093400850934108609391
:103E500042087093430805C0019680329105B9F677
:103E60008FEF1F910F910895E091E10BF091E20B1C
:103E700065857685878590890895CF92DF92EF9248
:103E8000FF920F931F93CF93DF93C12CD12C760118
:103E9000C394082E04C0CC0CDD1CEE1CFF1C0A943D
:103EA000D2F74091400850914108609142087091CA
:103EB00043084C215D216E217F21452B462B472B4A
:103EC00009F460C0082F0E94D816EAEFFAE0B701A3
:103ED000A601409550956095709513E0DF0111970C
:103EE0008C918F3F39F184819581A681B7818C15A2
:103EF0009D05AE05BF0551F4108611861286138606
:103F00009F0122503109E9011882108384239523EF
:103F1000A623B72384839583A683B7838085918561
:103F2000A285B38584239523A623B7238087918711
:103F3000A287B387BB96DBE0E13DFD0779F68EEF04
:103F40009FEFAFEFBFEF04C0880F991FAA1FBB1FE1
:103F50000A95D2F74091400850914108609142087B
:103F60007091430884239523A623B72380934008A8
:103F700090934108A0934208B09343080E94DA1638
:103F800081E001C08FEFDF91CF911F910F91FF90E2
:103F9000EF90DF90CF9008950F931F9341E050E092
:103FA00060E070E08A019B0104C0000F111F221F16
:103FB000331F8A95D2F7D901C801E091E10BF09146
:103FC000E20B4585568567857089042315232623D2
:103FD0003723012B022B032BD1F080959095A095D0
:103FE000B095482359236A237B23458756876787E3
:103FF000708B418952896389748984239523A62310
:10400000B723818B928BA38BB48B81E001C08FEFA0
:104010001F910F910895282F409140085091410819
:104020006091420870914308082E04C07695679508
:10403000579547950A94D2F740FF1DC0E091E10BD8
:10404000F091E20B81E090E0A0E0B0E004C0880FC6
:10405000991FAA1FBB1F2A95D2F7458556856785EC
:104060007089842B952BA62BB72B85879687A787DE
:10407000B08B81E008958FEF0895CF92DF92EF9299
:10408000FF92CF93C12CD12C7601C39404C0CC0CE9
:10409000DD1CEE1CFF1C8A95D2F7809140089091A0
:1040A0004108A0914208B09143088C219D21AE2186
:1040B000BF21892B8A2B8B2B11F481E044C00E94F5
:1040C000D816E8EFFAE0AAEFBAE0C0E083E090810A
:1040D0009130B9F442855385648575854C215D2105
:1040E0006E217F21452B462B472B59F08C9316864A
:1040F0001786108A118A1082C286D386E486F586D6
:10410000C1E090819230A1F4428553856485758524
:104110004C155D056E057F0559F48C931686178640
:10412000108A118A10821286138614861586C1E0C1
:10413000BB969B969BE0EF3CF90749F60E94DA1686
:10414000C11105C082E00E94CC1B8FEF01C081E04D
:10415000CF91FF90EF90DF90CF9008950F931F9332
:10416000E091E10BF091E20B0585168527853089FA
:1041700006231723282339230115110521053105AD
:1041800011F1DC01CB01818B928BA38BB48B21E0ED
:1041900027830090D10B04C0B695A7959795879576
:1041A0000A94D2F780FF03C00E94882404C080E0F4
:1041B00090E00E945924E091E10BF091E20B01891B
:1041C000128923893489C901B8011F910F9108957B
:1041D0009091E00B91111DC09091CA0B9F3F31F05F
:1041E0009091CD0B9F3F21F0E2E003C0E0E001C0E1
:1041F000E1E0F0E09F01220F331FE20FF31FE653CF
:10420000F44F82838083618381E08093E00BCF0150
:10421000089580E090E008952BE08A3C920729F011
:104220008D5C9B4021F481E0089580E008958FEF3C
:1042300008950E940C218F3F11F481E002C082306A
:1042400021F40E94CC1B8FEF0895992787FD90954C
:10425000FC01EE0FFF1F8E0F9F1FFC01E653F44F72
:1042600082810895EF92FF920F931F93CF93DF9374
:104270001F92CDB7DEB70E940C218F3F11F481E071
:1042800002C0823021F40E94CC1B8FEF41C0898391
:104290000E94D8168981E82EFF24E7FCF09487015C
:1042A000000F111FF801EE0DFF1DE653F44F928130
:1042B000911116C0E091E10BF091E20B97819260B1
:1042C0009783992787FD9095A92FB92F818B928B82
:1042D000A38BB48B0E94DA1680E090E00E945924F0
:1042E0000E0D1F1DD801A653B44F12968C91129734
:1042F000815012968C931297E091E10BF091E20BB2
:1043000011968C91838781E084830E94DA1681E084
:104310000F90DF91CF911F910F91FF90EF90089533
:104320000F931F93CF93DF931F92CDB7DEB70E94F9
:104330000C218F3F11F481E002C0823021F40E94F1
:10434000CC1B8FEF44C0482F552747FD50959A014D
:10435000220F331F240F351F89010653144FF80114
:1043600022819081291794F589830E94D816F8013B
:1043700092819F5F9283E091E10BF091E20B1482B6
:10438000E8EFFAE08981992787FD9095A92FB92F49
:1043900023E03081323099F44285538564857585F8
:1043A000481759076A077B0751F422831686178638
:1043B000108A118A10821286138614861586BB967F
:1043C0003BE0EF3CF30729F70E94DA1681E00F90FB
:1043D000DF91CF911F910F9108950E940C218F3F83
:1043E00011F481E002C0823021F40E94CC1B8FEFD7
:1043F0000895992787FD9095FC01EE0FFF1F8E0F02
:104400009F1FFC01E653F44F8FEF808382838183EB
:104410008091E00B81508093E00B81E00895E09162
:10442000D60BF091D70B80810895E091D60BF091D7
:10443000D70B309721F00380F481E02DFACF089557
:10444000AF92BF92CF92DF92EF92FF920F931F93A2
:10445000CF93DF93E091EF0AF091F00A309709F4DF
:1044600094C00091D60B1091D70B0115110509F4DA
:104470004CC0D8014BE2582F5403900111242F5007
:10448000354F79019AE0E90EF11C6901C4E0CC0EC8
:10449000D11C5901DBE0AD0EB11C2C9130E0429FE4
:1044A000B001439F700D11246F50754FEB019C813B
:1044B000992329F05B85E7019881591740F1E601BE
:1044C0009881992369F0429FB001439F700D112498
:1044D0006F50754FEB015A85E50198815917B8F077
:1044E000429FB001439F700D11249B012F50354F07
:1044F000E9012A85E7019881291748F013960D9064
:10450000BC91A02D109749F602C0A0E0B0E08083D6
:10451000C381D481D093F00AC093EF0AA017B107EA
:10452000B1F4109749F0B483A383128211821296DA
:10453000FC93EE93119706C01482138212821182AB
:10454000FA83E983F093D70BE093D60B1EC0AC1728
:10455000BD0779F011968D919C911297928381837A
:10456000B483A3831196CD91DC911297FC83EB83E6
:1045700008C01482138211968D919C911297928398
:1045800081831296FC93EE931197DF91CF911F9147
:104590000F91FF90EF90DF90CF90BF90AF90089574
:1045A000CF93DF93E091D60BF091D70B309709F4BE
:1045B00044C0992787FD9095208130E0281739075E
:1045C00081F4A381B481B093D70BA093D60B12963C
:1045D0001C921E92119718C00380F481E02D309731
:1045E00061F1208130E028173907B1F7C181D2810C
:1045F000838194819C838B83A381B481109721F064
:104600001296DC93CE931197A091EF0AB091F00A25
:10461000109739F4F093F00AE093EF0A14821382B2
:104620000AC0B483A3831296FC93EE931197F09380
:10463000F00AE093EF0A12821182DF91CF91089580
:10464000EF92FF920F931F93CF93DF93EC014B8177
:104650005C8169817A818D819E810E9481302F8168
:10466000222371F04B815C81E12CF12C00E010E001
:1046700020E030E0BC01CE010E94CD171F820CC0AB
:10468000E8812BE2E202F0011124EF50F54F218581
:104690002330B9F491838083E8818BE2E802F00152
:1046A0001124EF50F54F85899689A789B08D892B04
:1046B0008A2B8B2B41F482E0818788810E94202203
:1046C00002C08FEF01C081E0DF91CF911F910F9168
:1046D000FF90EF9008951F93CF93DF93CDB7DEB790
:1046E00028970FB6F894DEBF0FBECDBF29833A835B
:1046F0004B835C836D837E838F8398870E94D8165B
:104700000E94AB2D182FCE0101960E947D276330A9
:10471000710598F0E091E10BF091E20B212F30E070
:10472000620F731FCB01A0E0B0E0858B968BA78B47
:10473000B08F0E94DA1681E001C08FEF28960FB685
:10474000F894DEBF0FBECDBFDF91CF911F910895CA
:104750000E945430E091E10BF091E20B85818111D0
:10476000F7CF0895CF930E94BB1E0E94D816E09108
:10477000E10BF091E20B81E090E092A781A78583A5
:104780000E94AB2DC82F883F80F40E94452D2C2F0E
:1047900030E02F5F3F4F90E02817390734F482E074
:1047A0008C0F809381090E94492D0E94DA160E9485
:1047B000A82381E0CF910895E091E10BF091E20B05
:1047C00080850E94D022E091E10BF091E20B84E021
:1047D00081870E94B22381E00895CF93DF93EC019B
:1047E0000E94BB1E209711F4C1E0D0E00E94D816B1
:1047F000E091E10BF091E20B81E08583D2A7C1A7A4
:104800000E94AB2DC82F883F80F40E94452D2C2F8D
:1048100030E02F5F3F4F90E02817390734F482E0F3
:104820008C0F809381090E94492D0E94DA160E9404
:10483000A82381E0DF91CF910895EF92FF920F932B
:104840001F93CF938C010E94D816E091E10BF09159
:10485000E20B81E085830E94AB2DC82FE091E10B34
:10486000F091E20BE82EF12CC701800F911FA0E020
:10487000B0E0858B968BA78BB08FC83F78F40E94F1
:10488000452D9FEFE91AF90A90E0E816F90634F48D
:1048900082E08C0F809381090E94492D0E94DA16D4
:1048A0000E94A82381E0CF911F910F91FF90EF907C
:1048B0000895CF93DF93EC010E94D816E091E10BAD
:1048C000F091E20B21E02583CE01A0E0B0E0858BE2
:1048D000968BA78BB08F0E94AB2DC82F883F80F49A
:1048E0000E94452D2C2F30E02F5F3F4F90E028177E
:1048F000390734F482E08C0F809381090E94492D9E
:104900000E94DA160E94A82381E0DF91CF910895DA
:10491000CF930E94D816E091E10BF091E20B81E079
:10492000858386830E94AB2DC82F883F80F40E9428
:10493000452D2C2F30E02F5F3F4F90E0281739078F
:1049400034F482E08C0F809381090E94492D0E94EB
:10495000DA160E94A82381E0CF9108951F93CF9388
:10496000DF93CDB7DEB728970FB6F894DEBF0FBE42
:10497000CDBF29833A834B835C836D837E838F8392
:1049800098870E94BB1E0E94D816E091E10BF0911F
:10499000E20B81E0858381E090E092A781A70E94ED
:1049A000AB2D182FCE0101960E947D27E091E10BDF
:1049B000F091E20BDC01CB01810F911DA11DB11D16
:1049C000858B968BA78BB08F183F80F40E94452D66
:1049D000212F30E02F5F3F4F90E02817390734F444
:1049E00082E0810F809381090E94492D0E94DA168E
:1049F0000E94A82381E028960FB6F894DEBF0FBE70
:104A0000CDBFDF91CF911F9108958F929F92AF926A
:104A1000BF92CF92DF92EF92FF920F931F93CF93AB
:104A2000DF93CDB7DEB760970FB6F894DEBF0FBE49
:104A3000CDBF29873A874B875C876D877E878F87B5
:104A4000988BCE0101960E94612589809A80AB8067
:104A5000BC80CD80DE80EF80F88409851A852B85A7
:104A60003C854D855E856F857889CE0109960E94CB
:104A7000BE258F3F61F029853A854B855C856D8524
:104A80007E858F8598890E94AE2481E001C08FEFDA
:104A900060960FB6F894DEBF0FBECDBFDF91CF9109
:104AA0001F910F91FF90EF90DF90CF90BF90AF904C
:104AB0009F908F900895E091E10BF091E20B80853B
:104AC00008950F931F93CF93DF93EC011C821D82F7
:104AD0001E821F828091D80B9091D90BA091DA0B86
:104AE000B091DB0B88839983AA83BB838091DC0B15
:104AF0009091DD0BA091DE0BB091DF0B8C839D8339
:104B0000AE83BF830E94AB2DA82FB0E023EB36EE1F
:104B10004EE050E00E9479320C811D812E813F8150
:104B2000DC01CB01800F911FA21FB31F8C839D83DB
:104B3000AE83BF838C819D81AE81BF8181152AECBC
:104B400092072AE9A2072BE3B20798F09A5CAA49D8
:104B5000BB438C839D83AE83BF8388819981AA8167
:104B6000BB810196A11DB11D88839983AA83BB8354
:104B7000E1CFDF91CF911F910F9108958F929F9276
:104B8000AF92BF92CF92DF92EF92FF920F931F935B
:104B9000CF93DF93CDB7DEB760970FB6F894DEBF43
:104BA0000FBECDBFFC0109831A832B833C834D8349
:104BB0005E836F83788789869A86AB86BC86CD862E
:104BC000DE86EF86F88A09811A812B813C814D812E
:104BD0005E816F817885C984DA84EB84FC848D855D
:104BE0009E85AF85B8890C151D052E053F05F0F192
:104BF000C016D106E206F30691F4481759076A0772
:104C00007B07A0F1481B590B6A0B7B0B4483558330
:104C100066837783108211821282138225C048171F
:104C200059076A077B0780F40150110921093109EE
:104C30000C191D092E093F09008311832283338338
:104C400056536546744C08C00C191D092E093F09BE
:104C50000083118322833383481B590B6A0B7B0B20
:104C6000448355836683778381E001C08FEF60962C
:104C70000FB6F894DEBF0FBECDBFDF91CF911F916D
:104C80000F91FF90EF90DF90CF90BF90AF909F90EB
:104C90008F900895FC01448155816681778141158B
:104CA0008AEC58078AE968078BE3780798F05A5C22
:104CB0006A497B43448355836683778380819181EE
:104CC000A281B3810196A11DB11D80839183A2832E
:104CD000B383E1CF08958F929F92AF92BF92CF920C
:104CE000DF92EF92FF920F931F93CF93DF93CDB795
:104CF000DEB760970FB6F894DEBF0FBECDBF098355
:104D00001A832B833C834D835E836F8378878986E8
:104D10009A86AB86BC86CD86DE86EF86F88A0985C4
:104D20001A852B853C8549815A816B817C81400F96
:104D3000511F621F731FFC01408351836283738381
:104D40000D851E852F8538894D815E816F8178851F
:104D5000400F511F621F731F4483558366837783FF
:104D60000E944A2681E060960FB6F894DEBF0FBE1F
:104D7000CDBFDF91CF911F910F91FF90EF90DF900A
:104D8000CF90BF90AF909F908F900895E8EDFBE09B
:104D9000608371838283938324833583468357831F
:104DA00008952F923F924F925F926F927F928F92CF
:104DB0009F92AF92BF92CF92DF92EF92FF920F93AA
:104DC0001F93FC01C080D180E280F380C114D10424
:104DD000E104F104E1F184819581A681B78122E4A7
:104DE000C216D104E104F104F0F51C012D01612C7F
:104DF000712C4301E0E08E2F90E0A0E0B0E08C1534
:104E00009D05AE05BF0588F49101A201B301C4015F
:104E100036534546544C6F4F7F4F8F4F9F4F19016C
:104E20002A013B014C01EF5FE6CF83EBA82E96EE03
:104E3000B92E2EE0C22ED12CE12CF12C00E010E096
:104E40009101A201B301C4010E94CC320AC0648165
:104E500075818681978123EB36EE4EE050E00E940B
:104E6000A832C90102C080E090E01F910F91FF902D
:104E7000EF90DF90CF90BF90AF909F908F907F90FA
:104E80006F905F904F903F902F900895CF92DF9258
:104E9000EF92FF92CF93DF93CDB7DEB728970FB68F
:104EA000F894DEBF0FBECDBF6B017C012AE0F69403
:104EB000E794D794C7942A95D1F7C982DA82EB8216
:104EC000FC829B01AC0133704427552763EB76EEDF
:104ED0008EE090E00E9484322C2D3A814B815C81DF
:104EE00028960FB6F894DEBF0FBECDBFDF91CF91ED
:104EF000FF90EF90DF90CF9008952F923F924F92C6
:104F00005F926F927F928F929F92AF92BF92CF9259
:104F1000DF92EF92FF920F931F93FC01C080D1802C
:104F2000E280F380C114D104E104F104B9F1848179
:104F30009581A681B7811C012D01612C712C430143
:104F4000E0E08E2F90E0A0E0B0E08C159D05AE056E
:104F5000BF0588F49101A201B301C401365345464F
:104F6000544C6F4F7F4F8F4F9F4F19012A013B01C8
:104F70004C01EF5FE6CF83EBA82E96EEB92E2EE024
:104F8000C22ED12CE12CF12C00E010E09101A20105
:104F9000B301C4010E94CC32CA010BC06481758187
:104FA0008681978123EB36EE4EE050E00E94A832D6
:104FB000CA01B9011F910F91FF90EF90DF90CF9040
:104FC000BF90AF909F908F907F906F905F904F9029
:104FD0003F902F900895C2E0D1E00E94BB1E0E9436
:104FE000452D843028F4D093D50B0E94543008C04E
:104FF0008AE090E00E945D2CC093D50B0E9448305F
:1050000080912C0A853519F088E00E94341D80912A
:10501000FE40853511F388E00E94341DDECF2F92CB
:105020003F924F925F926F927F928F929F92AF9238
:10503000BF92CF92DF92EF92FF920F931F93CF9385
:10504000DF9300D01F92CDB7DEB70E94DA160E9420
:10505000792C0E94972C0E949F2C1C018AEF0E94A1
:10506000492D0E9445300E94132BB0908109AB2D31
:10507000B0E023EB36EE4EE050E00E947932009132
:10508000DC0B1091DD0B2091DE0B3091DF0B6B01FF
:105090007C01C00ED11EE21EF31EC701B60123EB38
:1050A00036EE4EE050E00E94A832C61AD70AE80A4F
:1050B000F90AC092DC0BD092DD0BE092DE0BF0928D
:1050C000DF0BE091E10BF091E20B8085811130C0A4
:1050D0008091D50B823019F48B2D0E94C218E0917B
:1050E000E10BF091E20B6091810980850E942A1901
:1050F000E091E10BF091E20B60E080850E9467197E
:105100008091DC0B9091DD0BA091DE0BB091DF0B59
:105110000091D80B1091D90B2091DA0B3091DB0B59
:1051200043EB842E46EE942E4EE0A42EB12C07C005
:1051300095816B2D9111E2CF0E942A19E1CF680170
:1051400079014FEFC41AD40AE40AF40A81155AEC23
:1051500095075AE9A5075BE3B507C8F02C013D01A7
:105160002AEC521A2AE9620A2BE3720AC301B2013D
:10517000A50194010E94A832A3019201261B370BBE
:10518000480B590BDA01C90197018601D8CF8093EA
:10519000DC0B9093DD0BA093DE0BB093DF0B009341
:1051A000D80B1093D90B2093DA0B3093DB0BE091E3
:1051B000E10BF091E20B8581882339F18185843000
:1051C00021F18781823029F0882341F08681811185
:1051D00002C085E001C083E0818714C083E081873D
:1051E0001782168285899689A789B08D892B8A2B8B
:1051F0008B2B41F4818D928DA38DB48D858B968BF5
:10520000A78BB08F80850E94D022E091E10BF091B6
:10521000E20B85A196A1A7A1B0A5892B8A2B8B2B88
:1052200009F44EC08085882309F44AC091859430E2
:1052300009F446C0458D568D678D70A10091810996
:1052400010E020E030E0401751076207730798F440
:105250000E94F718E091E10BF091E20B608582E08B
:105260000E94431DE091E10BF091E20B158E168E2A
:10527000178E10A208C0401B510B620B730B458F99
:10528000568F678F70A3E091E10BF091E20B1085D0
:10529000858D968DA78DB0A1892B8A2B8B2B81F4C0
:1052A000812F0E94F718612F83E00E94431DE09137
:1052B000E10BF091E20B83E08187812F0E94D022E5
:1052C0008AEF9AE09B838A8300E61AEE19822AEF1E
:1052D000C22ED12CE12CF12C812C912C54018394E1
:1052E000EA81FB81319780818F3F09F404C1EA8113
:1052F000FB8134971082882309F467C0EA81FB811F
:105300008081843009F461C0448455846684778444
:105310006091810970E080E090E0461657066806CB
:10532000790648F0461A570A680A790A448655866B
:105330006686778606C0EA81FB8114861586168606
:105340001786EA81FB8140885188628873884616F7
:1053500057066806790648F0461A570A680A790A15
:10536000408A518A628A738A1EC0EA81FB81208D3D
:10537000318D428D538D621773078407950758F45A
:1053800029013A01461A570A680A790A408A518A5D
:10539000628A738A08C00E94A832EA81FB81608B0E
:1053A000718B828B938BEA81FB8180899189A289A1
:1053B000B389892B8A2B8B2B41F4808D918DA28D03
:1053C000B38D808B918BA28BB38BEA81FB81808123
:1053D000833009F090C084859585A685B785892B93
:1053E0008A2B8B2B09F074C0DF0112978C919F01DF
:1053F000235031098823A9F0F9018081882389F09D
:10540000B501A4010090D10B04C0440F551F661FC5
:10541000771F0A94D2F7EA81FB8140875187628720
:1054200073871C92F9011082EA81FB81A0A1B1A1CE
:10543000A130B10519F5848D958DA68DB78D848B1E
:10544000958BA68BB78B92E0492E408280899189FB
:10545000A289B38984879587A687B787808D918D28
:10546000A28DB38D892B8A2B8B2B21F4C486D586F4
:10547000E686F78689810E9420222AC0EA81FB8184
:10548000448D558D668D778D448B558B668B778BD0
:10549000408C518C628C738C1197A30192010E94F5
:1054A00079326487758786879787608B718B828B4B
:1054B000938B45284628472821F4C486D586E6865E
:1054C000F78644244394512CEA81FB8151A240A2E7
:1054D000EA81FB8184859585A685B7850097A1051E
:1054E000B10549F0A80160E070E084179507A607B0
:1054F000B70708F48C01F981FF5FF9832A813B81AA
:10550000255D3F4F3B832A83F53009F0E9CEE091DA
:10551000E10BF091E20B80850E9409190E940F2295
:10552000F82E3BE28302F0011124EF50F54F228563
:105530002093E30BF093D30BE093D20B8823F9F085
:1055400085A196A1A7A1B0A5892B8A2B8B2B99F0B9
:10555000858D968DA78DB0A18A3F9105A105B105D6
:1055600050F4A80160E070E084179507A607B7071C
:10557000E8F48C011BC00B3F1105C0F012C00430D1
:105580001105A0F0C80103978A3F910538F48C01FA
:105590008230910558F402E010E008C00D3F11057B
:1055A00019F00AEF10E002C007EF10E02093D40BCF
:1055B000F093E20BE093E10B009381090E94AB2D85
:1055C000282F30E02F5F3F4F2017310740F00E9417
:1055D000AB2D082F10E00E5F1F4F00938109F110D3
:1055E0001092D50B802F0E94492D6CED75E0C10102
:1055F0000E94B12C0E94CE300F900F900F90DF913F
:10560000CF911F910F91FF90EF90DF90CF90BF90BF
:10561000AF909F908F907F906F905F904F903F9052
:105620002F900C94D9303F924F925F926F927F925D
:105630008F929F92AF92BF92CF92DF92EF92FF92A2
:105640000F931F93CF93DF93CDB7DEB760970FB65D
:10565000F894DEBF0FBECDBFCE0109960E94612532
:1056600084EE482E8BE0582E612C712C93E1392E5C
:10567000D20112968C91813051F5369CF001379C05
:10568000F00D1124E151F44F89849A84AB84BC84D9
:10569000CD84DE84EF84F8880081118122813381FA
:1056A0004481558166817781CE0101960E94BE2595
:1056B0008F3F69F4662D85E10E94431DD201ED9173
:1056C000FC91309719F40E94DC1601C00995BFEFD8
:1056D0006B1A7B0AE3E14E0E511CF3E06F16710466
:1056E00039F660960FB6F894DEBF0FBECDBFDF91DE
:1056F000CF911F910F91FF90EF90DF90CF90BF90CF
:10570000AF909F908F907F906F905F904F903F9061
:105710000895E4EEFBE01282158A10A60895CF9357
:10572000DF938330E0F493E1899FF0011124EC5181
:10573000F44F51834083EB0188819981AA81BB8119
:1057400083839483A583B6838C819D81AE81BF8141
:1057500087839087A187B287128281E001C08FEF93
:10576000DF91CF910895CF92DF92EF92FF920F9346
:105770001F93CF93DF93CDB7DEB728970FB6F8947A
:10578000DEBF0FBECDBF8330A8F5182FCE01019626
:105790000E94612523E1129FC00111248C010C514C
:1057A000144FF801C380D480E580F68049815A8186
:1057B0006B817C814C0D5D1D6E1D7F1D4387548761
:1057C00065877687C780D084E184F2844D815E81CD
:1057D0006F8178854C0D5D1D6E1D7F1D4787508B39
:1057E000618B728B8151944F0E944A2681E0F801AF
:1057F000828301C08FEF28960FB6F894DEBF0FBEEC
:10580000CDBFDF91CF911F910F91FF90EF90DF906F
:10581000CF9008951F93CF93DF93CDB7DEB728972E
:105820000FB6F894DEBF0FBECDBF833070F5182FD2
:10583000CE0101960E94612583E1189FF001112499
:10584000EC51F44F438154816581768189819A813D
:10585000AB81BC81840F951FA61FB71F83879487D8
:10586000A587B68747815085618572858D819E8128
:10587000AF81B885840F951FA61FB71F8787908BB0
:10588000A18BB28B81E0828301C08FEF28960FB687
:10589000F894DEBF0FBECDBFDF91CF911F91089569
:1058A000833048F493E1899FF0011124EC51F44FC7
:1058B000128281E008958FEF08950000000000003B
:1058C00000000000000000000000000000000000D8
:1058D0000000019791F7089510922101089589E041
:1058E000809321018DE89CE3909329018093280106
:1058F000089510922501109224010895CF93DF930B
:1059000000D0CDB7DEB780912401909125019A8314
:10591000898389819A810F900F90DF91CF910895AB
:1059200010928100089581E080938100089583B5ED
:10593000816083BD10928500109284000895CF93FA
:10594000DF9300D0CDB7DEB78091840090918500C1
:105950009A83898389819A810F900F90DF91CF91EB
:105960000895CF92DF92EF92FF92CF93DF93EC01F5
:10597000CC0FDD1FC9378FEFD80710F0C0E0D0E0A3
:105980006B01E12CF12CCC0EDD1EE11CF11C81E041
:10599000C816D104E806F10440F081E0E81AF108E5
:1059A0000E949F2CC817D907D8F30E949F2C8C15F2
:1059B0009D05D8F3DF91CF91FF90EF90DF90CF90CE
:1059C00008951092B100E0E7F0E080818D7F808340
:1059D00080818E7F808308958093B2000895E0E7F0
:1059E000F0E080818360808383E08093B10008953C
:1059F00083B5826083BD1092B2001092300710927E
:105A000081090895CF93DF938EEF8093810980E21F
:105A10008093B600809181098093B30083E087BBB7
:105A200092E09093B0008093B10093B5926093BDE3
:105A300087BB84BD83B5826083BD1092800081E006
:105A400080938100109285001092840083B582605B
:105A500083BD83B5816083BD10922001C4E2D1E093
:105A60001982188283B5826083BD83B5816083BD4E
:105A70000E94F82C198218820E94EF2C0E946F2C31
:105A800010923007DF91CF9108958091B3008F5F1E
:105A9000089581508093B3000895811102C010923F
:105AA00071008FEF0895811106C010929500109239
:105AB000940081E008958FEF0895811105C08091D1
:105AC000940090919500089580E090E008958111F0
:105AD00005C082E08093710081E008958FEF089502
