:100000000C94EE020C947A2A0C94AC2A0C94DE2AFE
:100010000C940D030C940D030C940D030C940D0320
:100020000C940D030C94482A0C940D030C940D03AE
:100030000C940D030C94A7280C940D030C94A72882
:100040000C940D030C940D030C940D030C940D03F0
:100050000C940D030C940D030C940D030C940D03E0
:100060000C940D030C94D0110C940D030C940D03FF
:100070000C940D030C940D030C940D030C940D03C0
:100080000C94DA280C940D030C940D030C940D03BE
:100090000C940D030C940D030C940D030C940D03A0
:1000A0000C940D030C940D030C940D030C940D0390
:1000B0000C940D030C940D030C940D030C940D0380
:1000C0000C940D030C940D030C940D030C940D0370
:1000D0000C940D030C940D030C940D030C940D0360
:1000E0000C940D030C94F00F0C94E10F0C94B10FD1
:1000F0000C94A1100C94A20F0C94930F0C94810FEC
:100100000C94720F0C940D030C940D030C940D03BE
:100110000C940D030C940D030C940D030C940D031F
:10012000AF12BC12C912D612E312F012FD12201344
:100130002E133C134A135813661374139713991311
:100140009B139D139F13A113A313C213E51309144B
:100150002C144F1472149514CF14DC14E914F614F3
:10016000031510151D153615431550155D156A1527
:10017000771584150B191119141917191A191D1946
:1001800023192019261929192C19351938193B1941
:100190003E19321908190E19411944192F19051958
:1001A000FB19FE19091A0E1A151A1E1A211A261AF7
:1001B0002D1A361A4661696C656420746F20726569
:1001C000676973746572207369676E616C0D0A00EC
:1001D00054444D41204552524F523A20637265615A
:1001E00074696E6720656E61626C65207369676E05
:1001F000616C206661696C65640D0A0054444D4170
:10020000204552524F523A206372656174696E679D
:10021000207478207369676E616C206661696C6513
:10022000640D0A0054444D41204552524F523A2029
:100230006372656174696E67207278207369676E96
:10024000616C206661696C65640D0A0054444D411F
:100250002054583A20576F6B65207570206F6E20C0
:1002600077726F6E67207369676E616C0D0A005458
:10027000444D412054583A204572726F7220636198
:100280006C6C696E67206576656E74207761697441
:100290000D0A004D616C666F726D656420455343B5
:1002A0002073657175656E63650D0A00436865634B
:1002B0006B73756D206661696C65643A2000534C00
:1002C0004950205258206572726F723A206E726BDC
:1002D0005F7369676E616C5F72656769737465727D
:1002E0000D0A00534C4950205258206572726F72AB
:1002F0003A20476574205369676E616C0D0A00539C
:100300004C4950205458204552524F523A202052C6
:10031000656C65617365206F662073656D617068DB
:100320006F7265206661696C65640D0A00534C4903
:1003300050205458204552524F523A202041636376
:1003400065737320746F2073656D6170686F72657B
:10035000206661696C65640D0A00756172742072B3
:100360007820736967206661696C65640D0A0055C1
:100370004E4B4F574E0045787465726E616C20523B
:10038000657365740042726F776E204F75742044F8
:100390006574656374004661696C656420746F20E0
:1003A0006372656174652053656D6170686F726515
:1003B000004661696C656420746F206372656174C6
:1003C00065205369676E616C004B65726E656C20C9
:1003D00066756E6374696F6E206E6F7420696D70E0
:1003E0006C656D656E74656400446576696365204F
:1003F000447269766572204572726F72005761743B
:100400006368646F67205265737461727400535738
:10041000205761746368646F6720526573746172FA
:10042000740054696D6572204F766572666C6F77E3
:1004300000556E68616E646C656420496E74657207
:100440007275707420566563746F72004C6F7720FC
:10045000566F6C74616765004578747261205461F1
:10046000736B20737461727465642C206973206EE1
:10047000726B5F6366672E68206F6B3F0049646C28
:1004800065206F72204B65726E656C2053746163DA
:100490006B204F766572666C6F7700556E6578706D
:1004A0006563746564205265737461727400447589
:1004B000706C696361746564205461736B20494496
:1004C000005363686564756C6572204D697373656C
:1004D000642057616B657570005461736B205265C1
:1004E00073657276652056696F6C6174656400523D
:1004F000657365727665204572726F7220696E2031
:100500005363686564756C657200496E76616C69E9
:100510006420537461636B20506F696E7465720060
:100520005461736B20537461636B204F7665726600
:100530006C6F7700537461636B20776173206E6F0B
:100540007420646566696E6564206173206C6172F5
:10055000676520656E6F75676821005461736B2055
:10056000706572696F6420746F6F206C617267656B
:100570002E20506572696F64206D757374206265FA
:10058000206C657373207468616E2036312073654A
:10059000636F6E64732E00293A20002A4E524B205E
:1005A0004552524F5228004E524B2048616C742ED7
:1005B0002E2E0D0A000D0A535441434B2044554D35
:1005C000500D0A0045464765666700202B2D2E30EA
:1005D00031323334353637383968000011241FBEC4
:1005E000CFEFD1E4DEBFCDBF13E0A0E0B2E0E0EAA0
:1005F000F2E600E00BBF02C007900D92AA37B107E8
:10060000D9F71CE0AAE7B3E001C01D92A131B10700
:10061000E1F70E94F32B0C944E310C949D280E941C
:10062000FD211F928F9388E792E09F938F930E9402
:10063000102F0F900F900F900F900E94960681112F
:1006400003C00E945420F9CF10E081E9E82E82E037
:10065000F82ECAE3D9E01F921F93FF92EF92DF9327
:10066000CF930E945A2F1F5FFE0101900020E9F7EF
:100670003197EA53F94041E04E0F20E06AE379E018
:1006800083E998E00E9461040E9454200F900F902B
:100690000F900F900F900F90DECFCF93DF931F92AC
:1006A000CDB7DEB740E050E06DE081E00E94D905B3
:1006B0006091090C70910A0C20E040E08091070CD9
:1006C0009091080C0E94CF0A85E090E00E944504BA
:1006D00082E090E00E945C040E949606811108C0AE
:1006E0000E945420F9CF698185EA98E00E940F0B9F
:1006F00020E0AE014F5F5F4F65EA78E086E49AE064
:100700000E9408058130A1F7EECF8F929F92AF92A1
:10071000BF92CF92DF92EF92FF92CF936DE473E09E
:1007200080E798E00E944E2B40E051E06CE677E0D5
:1007300080E798E00E94522BE0E7F8E0C1E0C08734
:10074000C783C187C287138614861586168680E400
:10075000882E88E7982E8DE7A82EBB24B394878631
:10076000908AA18AB28A138A148A158A168AC12CA1
:100770009DE2D92E91E3E92EFF24F394C78AD08E0F
:10078000E18EF28E138E148E158E168E178E10A299
:1007900011A212A2CF010E94C21F6FE073E087E195
:1007A00099E00E944E2B40E051E06BE576E087E156
:1007B00099E00E94522BE7E1F9E0C087C783C18727
:1007C000C28713861486158616868786908AA18A24
:1007D000B28A138A148A158A168AC78AD08EE18E45
:1007E000F28E138E148E158E168E178E10A211A2F5
:1007F00012A2CF010E94C21FCF91FF90EF90DF9015
:10080000CF90BF90AF909F908F900C94960A0895D0
:100810000C94ED1081E08093B003089581E0809303
:10082000B003089580917D030895009731F090936F
:100830007C0380937B0381E008958FEF089590936C
:10084000B3038093B20381E08093B10308958FEFE7
:10085000089580E090E00895803220F40E94CC0C4E
:1008600081E008958FEF08958B3168F4682F8093AD
:10087000A30324E132E140E254E28FE496E00E94D7
:100880000E0D81E008958FEF08959093AB03809350
:10089000AA03E9E8F3E0DC0120E432E44FE050E0B1
:1008A0000E94682D648375838683978310821182EA
:1008B0001282138281E008959093A9038093A80384
:1008C0000895CF92DF92EF92FF92CF93DF9300D003
:1008D000CDB7DEB76C017B018091AC03813009F4A8
:1008E0008DC0442309F48AC06115710509F486C0DE
:1008F000C114D10409F482C0211108C08091AC094F
:100900002A8349830E94AD1C49812A8181E080931A
:10091000AC038AE294E09093610780936007F6014C
:10092000818180932B04808180932A048581968124
:1009300090932D0480932C048091AF0380932F0417
:1009400010922E04818592850196928781879093DB
:1009500031048093300483818093330482818093B7
:1009600032043091AD03F0E13F9FC0011124832B8D
:10097000809334045E2DF7018CE090E03E2F351B10
:10098000341750F43191A0916007B0916107A80F1E
:10099000B91F3C930196F2CF445F40935F0721114A
:1009A0002BC081E090E0A0E0B0E0BC01CD01009060
:1009B000AC0904C0660F771F881F991F0A94D2F7ED
:1009C0000E94501D6B017C01611571058105910527
:1009D00021F48FE692E00E9446120090AC0904C018
:1009E000F694E794D794C7940A94D2F7C0FC04C055
:1009F0008CE492E00E94461281E001C08FEF0F90DC
:100A00000F90DF91CF91FF90EF90DF90CF900895FE
:100A10008F929F92AF92BF92CF92DF92EF92FF920E
:100A20000F931F93CF93DF931F92CDB7DEB74C0187
:100A30008B015A018091A50321111CC08130F1F472
:100A40008091AB0929830E94AD1C81E090E0A0E079
:100A5000B0E0BC01CD010090AB0904C0660F771F68
:100A6000881F991F0A94D2F70E94501D6B017C01C8
:100A7000298104C0813011F48FEF7CC0809152062F
:100A80008C30D4F38C50D5018C9380E0F5019081AB
:100A9000891778F4482F50E0E0915406F0915506FC
:100AA000E40FF51F9485F801E40FF51F90838F5F25
:100AB000EDCF80915706992787FD9095D4011E961A
:100AC0009C938E931D97809158061F968C931F9729
:100AD0008091590650968C93509780915A06519662
:100AE0008C935197E0915406F0915506858190E0E2
:100AF000982F88273481832B18969C938E93179771
:100B0000838190E0982F88273281832B16969C93BF
:100B10008E931597818190E0982F88273081832BC1
:100B200011969C938E93878190E0982F8827368129
:100B3000832B1A969C938E931997818590E0982F1A
:100B400088273085832B13969C938E9312978285EA
:100B50001C968C9321110BC00090AB0904C0F69435
:100B6000E794D794C7940A94D2F7C0FE85CF81E06A
:100B70008093A5030F90DF91CF911F910F91FF906C
:100B8000EF90DF90CF90BF90AF909F908F9008959F
:100B9000009751F090935506809354066093530646
:100BA00081E08093A50308958FEF08958093AD03AE
:100BB00008950F931F93CF93DF93162FD42F052FF4
:100BC0009FEF9093800310927F0310927E03809397
:100BD000AE031092B10383E08093AD0310927D03C6
:100BE00080E094E09093A9038093A80380E896E9BD
:100BF000A8E9B0E080938D0390938E03A0938F03B8
:100C0000B09390031092890310928A0310928B0381
:100C100010928C030E949D1BC82F8093AB098F3FBD
:100C200019F484E292E009C00E949D1BC82F8093B2
:100C3000AC098F3F69F48CEF91E00E944612E0917D
:100C4000E20BF091E30B60858EE00E94A81A2DC0A4
:100C50000E949D1BC82F8093450A8F3F19F480ED99
:100C600091E0EBCF8AEB93E0909355068093540686
:100C700080E780935306C1E0C093A5031092AC03B4
:100C80002D2F302F4FEF5FEF612F8FE496E00E9402
:100C90000E0D1093A303D093AF0383ED9FEF0E943B
:100CA000FF0FC093A403C093A2038C2FDF91CF91B9
:100CB0001F910F9108958091AB090E94AD1C809106
:100CC000AB0908958091AC090E94AD1C8091AC09DC
:100CD00008952091A503213039F4FC011082FB0115
:100CE000108280E090E0089520915206FC0120835C
:100CF00080915706FB0180838091540690915506A0
:100D0000089581E08093A50308951092A2030C94A6
:100D10008D0C81E08093A2030E94B30C8091450A60
:100D20000C94DF1C81E08093BD0508958091A4039D
:100D300008958091A503813099F00E94840D0E944E
:100D40007E0D80917A038F5F80937A03833030F039
:100D50001092A5038091AB090E94DF1C8FEF0895CC
:100D600010927A030E94880E813091F560915206AC
:100D70006D306CF18091B003811107C01092A50312
:100D80008091AB090E94DF1C22C080915406909193
:100D900055060E945E11809154069091550620914F
:100DA0005206820F911D27FD9A95FC0131972081F3
:100DB0002A3CA1F6319720812E3F81F63197208180
:100DC0002E3B61F6319780818F3EC1F2C7CF81E023
:100DD0000895CF93DF938091A503813011F08FEFB9
:100DE00040C0D4E60E94880EC82F813089F56091FA
:100DF00052066D30ACF18091B003811107C01092A2
:100E0000A5038091AB090E94DF1C2AC08091540683
:100E1000909155060E945E1180915406909155065E
:100E200020915206820F911D27FD9A95FC01319762
:100E300020812A3CA1F6319720812E3F81F63197FF
:100E400020812E3B61F6319780818F3EC1F2C7CF62
:100E500084E690E00E944C27D15021F68C2F01C0EF
:100E600081E0DF91CF9108950F931F93CF939091DD
:100E7000B003992309F443C020915F0784E0820FF7
:100E8000382F3F7031F087FF02C083E1820F807FEF
:100E9000805F80935F0780915F07E0916007F0912A
:100EA0006107E80FF11D87FDFA9531978AEC808381
:100EB00080915F07E0916007F0916107E80FF11DF5
:100EC00087FDFA9532978EEF808380915F07E091DE
:100ED0006007F0916107E80FF11D87FDFA953397E0
:100EE0008EEB808380915F07E0916007F09161074E
:100EF000E80FF11D87FDFA9534978FEE808360919E
:100F00005F07062F112707FD1095E0916007F0910C
:100F10006107C0E040E0242F30E0201731073CF4A7
:100F20002E0F3F1FD9018C91C80F4F5FF4CF99232B
:100F300019F0CF010E940F11E0915F07FF27E7FD35
:100F4000F095E657FE4FC0838DE597E00E948A0D2D
:100F50001092AC038091AC090E94DF1C81E0CF911C
:100F60001F910F910895CF93DF9300D0CDB7DEB7D7
:100F70000E9454208091A4038823D1F38091450AD4
:100F80000E94AD1C8A838F3F21F484EB91E00E9484
:100F90004612612C712C22242A94322C8091AE03AB
:100FA000813009F0E1C080937D036114710409F080
:100FB00088C08091AC03811116C02AE234E03093DE
:100FC0006107209360073FEF30932C0430932D048A
:100FD00010922E0410922F041092300410923104BB
:100FE0008CE080935F07E0916007F091610790913A
:100FF000A8038091A903908781871082E091600700
:10100000F09161071182E0916007F09161072091F2
:10101000AD0330E1239FC0011124822B8287809190
:10102000AA03838781E893E00E94032230925E073F
:1010300020925D0710926307109262070E943407A6
:101040000E947E0D8091BD05813009F043C0412C86
:10105000512CC20165E070E00E94832D892B21F4A0
:1010600083E090E00E949E15E0916007F091610797
:101070008FEF8083E0916007F09161078183E091B9
:101080006007F09161071482E0916007F0916107B9
:1010900015829CE090935F070E9434078AE090E0FD
:1010A0000E94FB20EFEF4E1A5E0AF8EE4F16F3E0B7
:1010B0005F0679F683E090E00E94B5151092BD05B9
:1010C00009C00E9499062A81213021F47092A70359
:1010D0006092A6033FEF631A730A8091A803909170
:1010E000A9038615970528F48AE090E00E94FB206A
:1010F000ECC18090890390908A03A0908B03B090FC
:101100008C03C0908D03D0908E03E0908F03F090FD
:101110009003009181031091820320918303309109
:1011200084034091850350918603609187037091F9
:10113000880381E893E00E940D2381E893E00E94F8
:10114000EC222091810330918203409183035091DE
:101150008403609185037091860380918703909149
:1011600088030E94A7211ACF672809F057C00E9460
:10117000B30C0E947E0D612C712C0E94E9068A83BB
:1011800081E893E00E9403228A81813009F5E09191
:101190005406F0915506818190E0982F8827208190
:1011A000822B258130E0322F22274481242B232BD0
:1011B00021F48F3F2FEF920721F0892B09F488C18A
:1011C00002C0612C712C31E03093A5038FEF8A832C
:1011D00094E669167104C0F010927D03E0917B03E0
:1011E000F0917C03309729F0C30184569109099549
:1011F0008983E981E13019F4612C712C05C0F0E399
:101200006F16F5E77F0618F42FEF621A720A31E0C5
:101210003093A5038A81813009F0AFCFE091540665
:10122000F09155069285892F82958F709F70891B4A
:10123000813118F48093A10302C01092A10310928F
:10124000990310929A0310929B0310929C031092A0
:101250009D0310929E0310929F031092A003109280
:101260009103109292031092930310929403A09111
:101270005206BB27A7FDB09520E03DE70E94612DF7
:10128000DC01CB01935BA74FBF4F809395039093F5
:101290009603A0939703B0939803612C712C8091CF
:1012A000A10390E06816790640F580909103909034
:1012B0009203A0909303B0909403C0909503D090B4
:1012C0009603E0909703F090980300919903109192
:1012D0009A0320919B0330919C0340919D03509170
:1012E0009E0360919F037091A00389E993E00E949F
:1012F0000D239FEF691A790AD2CFE1E0E0937D03D5
:101300000E94840D0E948D0C8091B2039091B303D2
:101310006090A8037090A9038615970508F43C0116
:10132000412C512C4614570441F180908903909030
:101330008A03A0908B03B0908C03C0908D03D09053
:101340008E03E0908F03F090900300918103109141
:10135000820320918303309184034091850350914F
:101360008603609187037091880381E893E00E946F
:101370000D23FFEF4F1A5F0AD5CF8090990390900D
:101380009A03A0909B03B0909C03C0909D03D090C3
:101390009E03E0909F03F090A003009181031091C1
:1013A00082032091830330918403409185035091FF
:1013B0008603609187037091880381E893E00E941F
:1013C000602281E893E00E94EC2220918103309119
:1013D000820340918303509184036091850370914F
:1013E000860380918703909188030E94A7218091B2
:1013F000AC038130B1F4E0916007F0916107608245
:10140000E0916007F0916107718230925E0720924F
:101410005D0710926307109262070E94B30C0E944E
:1014200034070E94840D0E948D0C412C512C809118
:10143000A8039091A903861997094816590640F503
:101440008090890390908A03A0908B03B0908C03C6
:10145000C0908D03D0908E03E0908F03F0909003A6
:1014600000918103109182032091830330918403C2
:1014700040918503509186036091870370918803A2
:1014800081E893E00E940D232FEF421A520ACFCF3A
:1014900081E893E00E94EC22209181033091820345
:1014A000409183035091840360918503709186037A
:1014B00080918703909188030E94A7218091A203C5
:1014C000811103C00E945420F9CF612C712C66CD8C
:1014D000828582958F708093AD03818590E0982FEF
:1014E00088272085822B9093A9038093A803A38546
:1014F0008A2F90E09093AB038093AA03DC0120E451
:1015000032E44FE050E00E94682D60938D037093A9
:101510008E0380938F03909390031092890310920F
:101520008A0310928B0310928C0352CE63EB77E008
:101530008AE995E00E944E2B40E051E06AE974E0B0
:101540008AE995E00E94522BEAE9F5E084E1808780
:1015500081E087838187828781E090E0A0E0B0E02E
:1015600083879487A587B6871786108A118A128A7F
:1015700087E090E0A0E0B0E0838B948BA58BB68BE6
:10158000178A108E118E128E138E148E158E168E53
:10159000178E10A211A212A2CF010C94C21F909319
:1015A000DF0A8093DE0A7093DA0A6093D90A4093C7
:1015B000DD0A2093D80A6FEF81E00E948A1D909384
:1015C000DC0A8093DB0A019631F40E94FD21682F2A
:1015D0008FE00E94A81A81E0809310020895CF93B3
:1015E000C82F8091D80A882351F028EE33E0482F85
:1015F000429FC001439F900D11240E944C2760918F
:10160000D90A7091DA0A8C2F90E0CF910C94D82EE1
:101610008091DE0A9091DF0A0E949A2E0895EF923F
:10162000FF920F931F93CF93DF93C82FE92ED62FEE
:10163000613810F083E050C08091DB0A9091DC0AA1
:101640000E94D41D8F3F31F48DE293E00E94461238
:1016500081E042C080EC0E94EF0A81EC0E94EF0A18
:101660008D2F0E94EF0AFC2E0C2F1E2DC0E0802F24
:101670008F198D17E8F4F8018081803C41F48BEDDF
:101680000E94EF0A8CED0E94EF0AC0540EC08B3D01
:1016900039F40E94EF0A8DED0E94EF0AC55205C091
:1016A0000E94EF0AF8018081C80F0F5F1F4FDFCF44
:1016B0008C2F8F770E94EF0A80EC0E94EF0A8091B6
:1016C000DB0A9091DC0A0E94321E8F3F49F48FEFB3
:1016D00092E00E94461282E00E94BE188FEF01C085
:1016E00081E0DF91CF911F910F91FF90EF900895CE
:1016F0008091100208958F929F92AF92BF92CF92E5
:10170000DF92EF92FF920F931F93CF93DF937C01B1
:10171000D62E0E943C128093C2058F3F21F483EEA7
:1017200092E00E9446128091C2050E94AD1C8F3F3C
:1017300021F48EEB92E00E94461280E00E94231278
:10174000811119C081E090E0A0E0B0E0BC01CD01C2
:101750000090C20504C0660F771F881F991F0A9466
:10176000D2F70E94501D6093BE057093BF05809311
:10177000C0059093C105812C912C5401839480E085
:101780000E942312882379F00E94080B813CB9F74C
:101790000E94080BC82E10E0C0E001EC812C912CB7
:1017A000540183942BC00E9423128111EDCFC501F7
:1017B000B4010090C20504C0660F771F881F991FEF
:1017C0000A94D2F70E94501D6093BE057093BF0526
:1017D0008093C0059093C105D7CF0E94080BD82FE6
:1017E000803C39F18B3D09F445C0CD1508F46CC03F
:1017F0000D2F80E00E9423128111EFCF80E00E9424
:1018000023128111F6CFC501B4010090C20504C0B6
:10181000660F771F881F991F0A94D2F70E94501DE8
:101820006093BE057093BF058093C0059093C1057A
:10183000E0CFD12FCC2329F0DF770D1302C08C2FFE
:101840004DC08CEA92E00E9446121F92DF931F92D5
:101850000F931F92CF9387EA92E09F938F930E94FA
:10186000102F8DB79EB708960FB6F8949EBF0FBE87
:101870008DBF28C080E00E942312811115C0C501D0
:10188000B4010090C20504C0660F771F881F991F1E
:101890000A94D2F70E94501D6093BE057093BF0555
:1018A0008093C0059093C1050E94080B8C3D41F0C8
:1018B0008D3D09F49ACF83E992E00E94461202C05E
:1018C000D0EC93CF8FEF0AC0CC1508F091CFF70181
:1018D000EC0FF11DD0831D0FCF5F8ACFDF91CF9129
:1018E0001F910F91FF90EF90DF90CF90BF90AF903E
:1018F0009F908F900895909141019F719F31D9F3EE
:101900008093420108958093C305089581E08093F8
:10191000E60A08951092E60A0895809141018F71B8
:101920008F31D9F3809141018F71E1F08F30D1F087
:10193000809141018F71883031F48091390182604A
:10194000809339010BC088E00E947B0C809141019B
:101950008F718830D9F7F1CF8F3021F0809141011C
:101960008F71D1F70895809141018F718F31D9F333
:10197000809141018F7111F08F3051F480913901C4
:101980008D7F80933901809141018F718830D9F723
:10199000089589E00C947B0CE5E4F1E09081907F60
:1019A000908390818F70982B90830895E7E5F1E004
:1019B00080818D7F80830895E7E5F1E080818260FA
:1019C00080830895EEE6F1E080818F7E8083089524
:1019D000EEE6F1E08081806180830895809360016C
:1019E000909361019093F00A8093EF0A0895909389
:1019F000EA0A8093E90AE8E4F1E08081807E80834E
:101A00008081682B608308959093C7058093C605F5
:101A100008959093C5058093C40508950F931F936F
:101A2000CF93DF93FC01D90180E28093440180ECE5
:101A30008093450160626093480185EC8093490181
:101A400087EA80934B0180E880934C0120936001EA
:101A5000B09361014093620150936301C6E4D1E009
:101A60000881888198812881302F3295369537708A
:101A700060E4369F80011124229526952370622F01
:101A8000602B82958695837070E1879F9001112469
:101A9000262B92959695937084E0989FB00111241F
:101AA000622B60936D0188819881929596959370D1
:101AB000392F3064982F92959670932B90936E01E6
:101AC00010926C018FEF80934E01C9EEDAE0F9833A
:101AD000E8831A821B825D834C83BF83AE831886A2
:101AE00081E08093030B10921A0B1092F20A10926D
:101AF000E60ADF91CF911F910F91089586E10C9432
:101B00007B0C86E10C947B0C88E00E947B0C10928D
:101B10001A0B08950F931F93CF93DF93FC018091CD
:101B2000030B811102C08FEFABC026818091EB0ABD
:101B30008F5F8093EB0A90918101907E916020FBF2
:101B400095F99F7390649093810188E88093820156
:101B50008091E60A882361F08FEF809383018AEAFF
:101B60009AEA90938901809388018FEF9FEF10C0CC
:101B70008091EB0A80938301209161018091600143
:101B800090E0922B909389018093880180819181CC
:101B90009093870180938601209163018091620177
:101BA00090E0922B90938501809384018F01428174
:101BB000552747FD5095638174818AE891E00E9422
:101BC000382EF8018281855F8093800180914101E8
:101BD000D82FDF719FEF9D0F9230C0F3D131B1F359
:101BE000D231A1F3DF3191F398EF9D0F923020F0C5
:101BF0008F70863009F097CF86E10E947B0CF80148
:101C0000858181110BC089E00E947B0CF8018681DF
:101C1000882391F089E10E947B0C0EC080914801DD
:101C20008068809348018091410187FFFCCF8091BB
:101C3000410186FF78CFE7CF1092F20A82E00E943E
:101C40007B0C80E090E02091F20A211105C0019602
:101C5000883EFDEF9F07B9F7F8012681222331F076
:101C60002091420122952695277029F4883E9D4FA8
:101C700011F0C1E001C0CFEF8D2F0E947B0C8C2FA3
:101C8000DF91CF911F910F9108951092F20A82E097
:101C90000E947B0C88EE9DEF2091F20A211104C076
:101CA0000197D1F78FEF089581E00895CF93DF93E7
:101CB0008091030B882341F180914101C82FCF719E
:101CC0009FEF9C0F9230C0F3C131B1F3C231A1F349
:101CD000CF3191F3C83019F08F708630A9F486E1C6
:101CE0000E947B0C8091480180688093480180911C
:101CF000410187FFFCCFD09141018C2F0E947B0CCA
:101D0000D6FB882780F901C08FEFDF91CF9108952E
:101D10008091030B882309F4E3C080911A0B882378
:101D200009F4DCC080917B01E091E90AF091EA0AB4
:101D300090E002972481332727FD30952817390733
:101D40000CF4CEC0E091E90AF091EA0A8091820198
:101D50008083E091E90AF091EA0A809187019091ED
:101D6000880192838183E091E90AF091EA0A8091E7
:101D70007B018B508383A091E90AB091EA0AE0913C
:101D8000E90AF091EA0A13969C91848189173CF044
:101D9000E091E90AF091EA0A838187FF0DC0109271
:101DA0001A0B80914C018F7780934C0180914C01EC
:101DB000806880934C0194C0A091E90AB091EA0A2E
:101DC000E091E90AF091EA0A13964C91552747FDF4
:101DD000509569E871E0858196810E94382E809146
:101DE000C305882309F43EC0E091E90AF091EA0AAC
:101DF00083818031B9F5E091E90AF091EA0A6581C1
:101E0000768144E050E081E192E00E94412E892BEE
:101E100049F5E091E90AF091EA0A6581768140E1AD
:101E200050E081E192E00E94412E892BD9F49DE09F
:101E300088E10FB6F894A895809360000FBE909348
:101E4000600080E090E00E94CC1581E090E00E946C
:101E5000CC1582E090E00E94CC1583E090E00E94D7
:101E6000CC15FFCFE091E90AF091EA0A8091800158
:101E700085FB882780F98783E091E90AF091EA0AD7
:101E8000809147018087E091E90AF091EA0A809108
:101E900046018695869586958187E091E90AF091BD
:101EA000EA0A809147018287A091E90AB091EA0A83
:101EB000E0917B01F0E0E058FE4F80811B968C930F
:101EC00010921A0B80914C018F7780934C01809176
:101ED0004C01806880934C0181E0089580E0089572
:101EE0008FEF08951F920F920FB60F9211248F93C8
:101EF00080E880934F018F910F900FBE0F901F903D
:101F000018951F920F920FB60F9211248F9381E0B4
:101F10008093F20A80E480934F018F910F900FBE5F
:101F20000F901F9018951F920F920FB60F921124C9
:101F30008F9380E280934F018F910F900FBE0F908F
:101F40001F9018951F920F920FB60F9211248F9326
:101F500080E180934F018F910F900FBE0F901F90E3
:101F600018951F920F920FB60F9211240BB60F9275
:101F70002F933F934F935F936F937F938F939F9391
:101F8000AF93BF93EF93FF9384E080934F01E09171
:101F9000C605F091C705309709F00995FF91EF91BB
:101FA000BF91AF919F918F917F916F915F914F9171
:101FB0003F912F910F900BBE0F900FBE0F901F906F
:101FC00018951F920F920FB60F9211248F9382E0F3
:101FD00080934F018F910F900FBE0F901F90189517
:101FE0001F920F920FB60F9211248F9381E080936E
:101FF0004F018F910F900FBE0F901F901895E9E43D
:10200000F1E09081907F908390818F70982B9083E6
:1020100008958FEF08950895089508958FEF089516
:102020008091E40A9091E50A0895089581E0089569
:1020300081E0089581E00895089508950895089530
:10204000089508950895089598988DB1806E8DB97A
:102050008EB1806A8EB9089598988DB1806E8DB9D1
:102060008EB180668EB90895CF92DF92EF92FF9283
:102070000F931F93CF93DF93CDB7DEB727970FB69C
:10208000F894DEBF0FBECDBF0E94FD16E091E90AB5
:10209000F091EA0AC080D380E580F68000850E9436
:1020A000880E18161CF082EB92E006C0F701108132
:1020B000111107C081ED92E00E942A2F0E94FF16A5
:1020C00031C0153021F48AE090E00E94242FC7012E
:1020D00001969F938F93802F992787FD90959F93CB
:1020E0000F931F921F931F92CF9283EF92E09F93C3
:1020F0008F930E94102FFD82EC821150F701108304
:10210000DB821E821F828FEF9FEF9A8389830E945A
:10211000FF16CE0101960E948A0D0FB6F894DEBF1D
:102120000FBECDBF27960FB6F894DEBF0FBECDBF52
:10213000DF91CF911F910F91FF90EF90DF90CF90A3
:1021400008951F920F920FB60F9211240BB60F92A3
:102150002F933F934F935F936F937F938F939F93AF
:10216000AF93BF93EF93FF9380E090917B0189172A
:1021700010F48F5FFACF8091460187FF04C081E0A1
:1021800080931A0B04C08CE193E00E942A2F88E010
:1021900080934F018091460187FF05C08091E60A38
:1021A00081110E943410E091C405F091C50530976B
:1021B00009F00995FF91EF91BF91AF919F918F9198
:1021C0007F916F915F914F913F912F910F900BBE37
:1021D0000F900FBE0F901F901895A3EFBAE0FC016F
:1021E000409620812D93219120933F01E817F90714
:1021F000C1F780E110923E018150E1F780E88093C1
:102200003C0180913D0180FFFCCFE4E0FBE080E1F8
:102210008E0F90913F0191938E13FBCF0895CF9332
:10222000DF93DC01662309F445C0862F8F7009F027
:1022300041C0E3EFFAE090E19E0F219120933F012E
:102240009E13FBCF90E070E0E0E240E1949F9001AC
:102250001124261737077CF5911103C010923C0119
:1022600002C0E0933C0140E050E02A0F3B1FE9012F
:10227000C40FD51FF881F0933E014F5F5F4F40318F
:102280005105A9F740913C01406840933C014091C1
:102290003D0140FFFCCF40E050E0F0913E01E901FC
:1022A000C40FD51FF8834F5F5F4F40315105A9F729
:1022B0009F5FCBCF81E0DF91CF9108950F931F9364
:1022C000CF93DF93DC01613009F458C0862F8F7003
:1022D00009F054C0E4E0FBE090E19E0F21912093CF
:1022E0003F019E13FBCF62956F70615078E06F3FA6
:1022F00009F445C070933C01462F552747FD509582
:1023000020E030E0ED0190E16902C00DD11D112403
:10231000FE01E20FF31F908190933E012F5F3F4F2C
:1023200020313105A9F790913C01906890933C01D0
:1023300090913D0190FFFCCF4150510994E0440F32
:10234000551F9A95E1F720E030E090913E018E0113
:10235000020F131FF8019083662349F0F901E40F7F
:10236000F51FEA0FFB1FE0819E27F80190832F5F86
:102370003F4F2031310549F76150B9CF81E0DF91FE
:10238000CF911F910F9108959091C00095FFFCCFC0
:102390009091C0009F7D9093C0008093C6000895E7
:1023A0001F920F920FB60F9211240BB60F922F931C
:1023B0003F934F935F936F937F938F939F93AF93CD
:1023C000BF93EF93FF930E94FD168091C00087FF9B
:1023D000FCCF8091C0008F778093C0002091C60011
:1023E0008091490690914A06FC01E753FA4F2083F9
:1023F00001968038910529F090934A06809349060A
:1024000004C010924A06109249068091C8050E94A5
:10241000DF1C8091C0008F778093C0000E94FF1660
:10242000FF91EF91BF91AF919F918F917F916F91AC
:102430005F914F913F912F910F900BBE0F900FBE68
:102440000F901F90189581110DC081E040914B06AF
:1024500050914C062091490630914A064217530785
:1024600051F408C0813031F48091C800881F88275A
:10247000881F089580E008958091C8058F3F19F462
:102480008EE00E949B1A8091C8050895CF93DF9338
:10249000FC012491EC012196222351F06091090C5A
:1024A00070910A0C822F90E00E94D82ECE01F0CFBE
:1024B000DF91CF91089520914B0630914C06809189
:1024C000490690914A062817390769F48091C80592
:1024D0000E94AD1C6091C805772767FD7095872F16
:1024E000972F0E94501D6F3F21F48AE593E00E94D0
:1024F000461220914B0630914C06F901E753FA4FF2
:1025000080812F5F3F4F2038310528F430934C06EF
:1025100020934B06089510924C0610924B06089596
:1025200086E084B985B988EF8AB980EF8BB982E0FB
:102530008DB908950C9490128F3F09F46CC0E82F68
:10254000E7704E2F50E04730510508F064C0FA01A3
:10255000E057FF4F8695869586950C94182E42B1CC
:1025600021E030E0B90102C0660F771F8A95E2F7DB
:10257000CB01842B82B94DC045B121E030E0B901D7
:1025800002C0660F771F8A95E2F7CB01842B85B9CD
:1025900040C048B121E030E0B90102C0660F771FAA
:1025A0008A95E2F7CB01842B88B933C04BB121E087
:1025B00030E0B90102C0660F771F8A95E2F7CB01C0
:1025C000842B8BB926C04EB121E030E0B90102C0A6
:1025D000660F771F8A95E2F7CB01842B8EB919C05D
:1025E00041B321E030E0B90102C0660F771F8A9540
:1025F000E2F7CB01842B81BB0CC044B321E030E077
:10260000B90102C0660F771F8A95E2F7CB01842BD0
:1026100084BB81E008958FEF08958F3F09F473C064
:10262000E82FE7704E2F50E04730510508F06BC09F
:10263000FA01E956FF4F8695869586950C94182EDB
:1026400042B121E030E0B90102C0660F771F8A95E0
:10265000E2F7CB018095842382B953C045B121E0D4
:1026600030E0B90102C0660F771F8A95E2F7CB010F
:102670008095842385B945C048B121E030E0B90197
:1026800002C0660F771F8A95E2F7CB0180958423FD
:1026900088B937C04BB121E030E0B90102C0660F04
:1026A000771F8A95E2F7CB01809584238BB929C0E7
:1026B0004EB121E030E0B90102C0660F771F8A9564
:1026C000E2F7CB01809584238EB91BC041B321E092
:1026D00030E0B90102C0660F771F8A95E2F7CB019F
:1026E0008095842381BB0DC044B321E030E0B90163
:1026F00002C0660F771F8A95E2F7CB01809584238D
:1027000084BB81E008958FEF08958F3F31F1E82F6A
:10271000E7704E2F50E047305105F8F4FA01E256C9
:10272000FF4F282F2695269526950C94182E90B1AC
:102730000BC093B109C096B107C099B105C09CB157
:1027400003C09FB101C092B3892F90E002C095955C
:1027500087952A95E2F7817008958FEF08958F3F4E
:1027600009F406C1E82FE7704E2F50E047305105BD
:1027700008F0FEC0FA01EB55FF4F869586958695C9
:102780000C94182E20B130E0082E02C03595279504
:102790000A94E2F742B120FD0BC021E030E0B9011C
:1027A00002C0660F771F8A95E2F7CB01842B0BC01E
:1027B00021E030E0B90102C0660F771F8A95E2F789
:1027C000CB018095842382B916C023B130E0082E56
:1027D00002C0359527950A94E2F745B120FD0DC05A
:1027E00021E030E0B90102C0660F771F8A95E2F759
:1027F000CB01842B85B981E0089521E030E0B90157
:1028000002C0660F771F8A95E2F7CB01809584237B
:10281000F1CF26B130E0082E02C0359527950A94F5
:10282000E2F748B120FD0BC021E030E0B90102C061
:10283000660F771F8A95E2F7CB01842B0BC021E04E
:1028400030E0B90102C0660F771F8A95E2F7CB012D
:102850008095842388B9CFCF29B130E0082E02C0FB
:10286000359527950A94E2F74BB120FD0BC021E086
:1028700030E0B90102C0660F771F8A95E2F7CB01FD
:10288000842B0BC021E030E0B90102C0660F771F36
:102890008A95E2F7CB01809584238BB9ACCF2CB11C
:1028A00030E0082E02C0359527950A94E2F74EB124
:1028B00020FD0BC021E030E0B90102C0660F771F98
:1028C0008A95E2F7CB01842B0BC021E030E0B901FF
:1028D00002C0660F771F8A95E2F7CB0180958423AB
:1028E0008EB989CF2FB130E0082E02C035952795DB
:1028F0000A94E2F741B320FD0BC021E030E0B901BA
:1029000002C0660F771F8A95E2F7CB01842B0BC0BC
:1029100021E030E0B90102C0660F771F8A95E2F727
:10292000CB018095842381BB66CF22B330E0082E93
:1029300002C0359527950A94E2F744B320FD0BC0F9
:1029400021E030E0B90102C0660F771F8A95E2F7F7
:10295000CB01842B0BC021E030E0B90102C0660F2F
:10296000771F8A95E2F7CB018095842384BB43CF00
:102970008FEF08958F3F09F4D5C0E82FE7704E2FF1
:1029800050E0611167C04730510508F0CBC0FA0133
:10299000E455FF4F8695869586950C94182E41B187
:1029A00021E030E0B90102C0660F771F8A95E2F797
:1029B000CB018095842365C044B121E030E0B901AA
:1029C00002C0660F771F8A95E2F7CB0180958423BA
:1029D00065C047B121E030E0B90102C0660F771F42
:1029E0008A95E2F7CB018095842365C04AB121E046
:1029F00030E0B90102C0660F771F8A95E2F7CB017C
:102A00008095842365C04DB121E030E0B90102C05A
:102A1000660F771F8A95E2F7CB018095842365C006
:102A200040B321E030E0B90102C0660F771F8A95FC
:102A3000E2F7CB018095842365C043B321E030E009
:102A4000B90102C0660F771F8A95E2F7CB01809526
:102A5000842365C04730510508F064C0FA01ED5485
:102A6000FF4F8695869586950C94182E41B121E0EE
:102A700030E0B90102C0660F771F8A95E2F7CB01FB
:102A8000842B81B94DC044B121E030E0B90102C0CE
:102A9000660F771F8A95E2F7CB01842B84B940C07B
:102AA00047B121E030E0B90102C0660F771F8A9577
:102AB000E2F7CB01842B87B933C04AB121E030E083
:102AC000B90102C0660F771F8A95E2F7CB01842B0C
:102AD0008AB926C04DB121E030E0B90102C0660FCD
:102AE000771F8A95E2F7CB01842B8DB919C040B3CB
:102AF00021E030E0B90102C0660F771F8A95E2F746
:102B0000CB01842B80BB0CC043B321E030E0B90182
:102B100002C0660F771F8A95E2F7CB01842B83BB37
:102B200081E008958FEF0895811106C080B18695E8
:102B3000817091E0892708958FEF0895009711F42F
:102B400083E20DC08130910511F48BE208C0823020
:102B5000910511F483E303C0039729F48BE30E94EA
:102B6000AF1381E008958FEF0895009711F483E289
:102B70000DC08130910511F48BE208C082309105BF
:102B800011F483E303C0039729F48BE30E949C12A2
:102B900081E008958FEF0895009711F483E20DC04E
:102BA0008130910511F48BE208C08230910511F457
:102BB00083E303C0039729F48BE30E940D1381E0A4
:102BC00008958FEF0895882319F085B78F7E02C08E
:102BD00085B7806185BF81E008959091C80095FF19
:102BE000FCCF8093CE0008959093C5008093C400DD
:102BF00086E08093C200E1ECF0E080818B7F8083EF
:102C0000A0ECB0E08C9182608C938081886180839D
:102C100008959093CD008093CC0086E08093CA0005
:102C2000E9ECF0E080818B7F8083A8ECB0E08C91B0
:102C300082608C9380818861808308950E94F4155E
:102C40006BE572E184EC91E10E944F2E90930A0CA7
:102C50008093090C6BE572E184EC91E10E944F2EA8
:102C60009093080C8093070C0E949D1B8093C805CD
:102C70008F3F19F48EE00E949B1A10924C0610921E
:102C80004B0610924A06109249068091C100806856
:102C90008093C10008958091C80087FFFCCF809188
:102CA000C8008F778093C8008091CE0008950000FF
:102CB0000000000000000197D1F708950C94E82F60
:102CC0000E94F02F0895EF92FF920F931F93CF93DE
:102CD000DF937C0180E090E00E94E82F182FF7013D
:102CE000838381E090E00E94E82F082FF701828320
:102CF00082E090E00E94E82FD82FF701818383E0E3
:102D000090E00E94E82FC82FF701808384E090E0D4
:102D10000E94E82F100FD10FCD0F8C1711F08FEFFD
:102D200001C081E0DF91CF911F910F91FF90EF9053
:102D30000895CF93DF93EC0185E090E00E94E82FA7
:102D4000888381E0DF91CF910895FC01608186E066
:102D500090E00E94F02F81E00895CF93DF93EC0183
:102D600086E090E00E94E82F888381E0DF91CF9198
:102D700008950F931F93CF93DF938C01C0E0D0E0B1
:102D8000CE0108960E94E82FF80181938F012196C9
:102D9000C031D105A9F781E0DF91CF911F910F914B
:102DA00008950F931F93CF93DF938C01C0E0D0E081
:102DB000F80161918F01CE0108960E94F02F2196B3
:102DC000C031D105A9F781E0DF91CF911F910F911B
:102DD0000895CF93DF93EC0187E090E00E94E82F05
:102DE000888381E0DF91CF910895FC01608187E0C5
:102DF00090E00E94F02F81E00895F894089578946F
:102E000008950E94FD16FFCFCF93DF93CDB7DEB7B5
:102E1000A3970FB6F894DEBF0FBECDBF0E949D1BD7
:102E20008093D20B8F3F21F460E08EE00E94A81ABD
:102E30000E94162980FF04C060E086E00E94A81A64
:102E40001092D50B1092E30B1092E20B1092D40B60
:102E50001092D30B1092E40B1092E10B8FEF809342
:102E6000CB0B8093CD0B8093CC0B8093CE0B8093B8
:102E7000D00B8093CF0B93E69093270B8093250B79
:102E80009093520B8093500B90937D0B80937B0B10
:102E90009093A80B8093A60B85EE9BE02AEE3BE077
:102EA0003093E90B2093E80B9093EC0B8093EB0BA2
:102EB0004FEE5BE05093EE0B4093ED0B3093F10B34
:102EC0002093F00B24EF3BE03093F30B2093F20BB5
:102ED0005093F60B4093F50B49EF5BE05093F80BE2
:102EE0004093F70B3093FB0B2093FA0B1092E70BF8
:102EF0001092E60B1092FD0B1092FC0B1092D80B67
:102F00001092D70B90931C0B80931B0B6DE874E20F
:102F1000CE0101960E944E2B40E850E068E57AE031
:102F2000CE0101960E94522B85E58093580A19869E
:102F30001C861D861E861F86188A198A1A8A1B8A75
:102F40001C8A1D8A1E8A1F8A188E198E1A8E1B8E45
:102F50001C8E1D8E1E8E1F8E18A219A21AA21BA2D5
:102F600081E0888792E09A878B87CE0101960E9444
:102F7000C21FA3960FB6F894DEBF0FBECDBFDF9180
:102F8000CF91089505E21BE0C0E0F801D080FFEF8B
:102F9000DF1222C0CF5F055D1F4FC430B1F70E9422
:102FA000B11E2BE28202C0011124FC01E35EF44F4A
:102FB00082858093E40BF093E30BE093E20BF093B4
:102FC000D40BE093D30B8093D50B0E94C42B0E94AB
:102FD000AE2B0E94C82B16C085E2E82E8BE0F82E9F
:102FE000D0E0CD1741F0F7018081D81204C06D2DDB
:102FF00085E00E94A81ADF5FFBE2EF0EF11CD430DF
:1030000081F7C8CFFFCFCF92DF92EF92FF920F935D
:103010001F93CF93DF93EC018B017A018985823076
:1030200021F08091D10B888301C018828091D10B4F
:10303000843020F060E087E00E94A81A8985823001
:1030400029F08091D10B8F5F8093D10B8091D10BB0
:10305000811103C081E08093D10B38812BE23203D0
:10306000F0011124E35EF44F118300838885828789
:1030700038813203F0011124E35EF44F83E081874D
:1030800038813203F0011124E35EF44F3087088168
:10309000020380011124035E144FF8011582CE0152
:1030A0000B960E941F24F80161A372A383A394A32B
:1030B0008B859C85AD85BE8588339948A144B10533
:1030C00020F0688186E10E94A81AC880DD24C7FC30
:1030D000D094CE014B960E941F241BE21C9DF00150
:1030E0001D9DF00D1124E35EF44F658B768B878B6D
:1030F000908F28812103C00111249C01235E344F4D
:103100006901F901458956896789708D81A192A16C
:10311000A3A1B4A1840F951FA61FB71F818F928F03
:10312000A38FB48FCE0143960E941F24F60165A39E
:1031300076A387A390A728812103F0011124E35EE1
:10314000F44F85A196A1A7A1B0A5858F968FA78FD3
:10315000B0A381E090E092A781A7F382E282848706
:10316000DF91CF911F910F91FF90EF90DF90CF9063
:1031700008950C94A72485E690E00895E091E20B71
:10318000F091E30B84870895E091E20BF091E30B5B
:1031900084850895FC018091440A882331F0DB0185
:1031A0008C9380915B07808381E008958091440A2D
:1031B000882309F483C08BE995E00E944612809130
:1031C0005B071F928F9385E393E09F938F930E94F9
:1031D000102F87E995E00E9446120F900F900F90F4
:1031E0000F908091440A883110F01092440AE091C7
:1031F000440A8E2F90E0FC013197E631F10508F08A
:1032000046C0E654FF4F0C94182E8BE595E041C064
:1032100084E395E03EC080E295E03BC08AE095E023
:1032200038C08FEE94E035C089ED94E032C081EC77
:1032300094E02FC08EEA94E02CC08BE994E029C082
:103240008DE794E026C088E594E023C08CE494E008
:1032500020C081E394E01DC082E294E01AC08EE0B9
:1032600094E017C08DEF93E014C089EE93E011C095
:1032700089EC93E00EC081EB93E00BC086E993E00C
:1032800008C085E893E005C086E793E002C08FE6BA
:1032900093E00E9446126091090C70910A0C8DE037
:1032A00090E00E94D82E6091090C70910A0C8AE07F
:1032B00090E00E94D82E8091440A089580E00895FD
:1032C00013BC1092B60018BC17BC16BC15BC14BCBD
:1032D0001DBA1CBA1BBA10929B0010929A00109251
:1032E00099001092980010929500109294001092FC
:1032F00091001092900018BA109271001092B400D0
:103300001092B3001092B2001092B100E0EBF0E026
:103310001082108217BA109270008FEF84BF089548
:10332000CF93DF931F92CDB7DEB7198289818436A0
:1033300040F480ED97E00E944C2789818F5F89835C
:10334000F5CF0F90DF91CF91089581E090E00E943A
:10335000CC150E9490190E9490190E94901981E04A
:1033600090E00E94B5150C94901981E090E00E94C5
:10337000CC150E94901981E090E00E94B5150C9444
:103380009019FF920F931F93CF93DF9300D01F925A
:10339000CDB7DEB71F928F9385E393E09F938F9312
:1033A0008E010F5F1F4F1F930F930E945A2F0F9094
:1033B0000F900F900F900F900F90F12CF80101904B
:1033C0000020E9F73197E01BF10B8F2D90E08E176D
:1033D0009F0708F05DC0F801E80FF91FE0818E2F0C
:1033E00090E0FC01F097EA30F10508F049C0E053A5
:1033F000FF4F0C94182E0E94A51902C00E94B51907
:103400000E94A5190E94A5190E94A5190E94A5193C
:1034100037C00E94B5190E94B519F4CF0E94B519A2
:103420000E94B5190E94B519EFCF0E94B5190E94EC
:10343000B5190E94B5190E94B519E8CF0E94B519B7
:1034400002C00E94A5190E94B51904C00E94A519C6
:103450000E94A5190E94B51906C00E94A5190E94D4
:10346000A5190E94A5190E94B51908C00E94A519A6
:103470000E94A5190E94A5190E94A5190E94B519BC
:103480000E9490190E9490190E949019F39496CF6F
:103490000F900F900F90DF91CF911F910F91FF90A0
:1034A00008950E94FD160E94102B0E94FD1687EAC7
:1034B00095E00E944612C4E182E090E00E94CC15A3
:1034C00083E090E00E94B515D4E688EE93E00E9478
:1034D0004C27D150D1F783E090E00E94CC1582E0D8
:1034E00090E00E94B515D4E688EE93E00E944C2748
:1034F000D150D1F7C15001F783E090E00E94B5159B
:1035000082E090E00E94B51580915B070E94C1198E
:103510000E94901982E090E00E94CC150E949019C0
:1035200082E090E00E94B5150E9490198091440AB3
:103530000E94C119C0CF8093440AE091E20BF09140
:10354000E30B808580935B070E94D6180E94511A76
:103550008093440A60935B070E94D6180E94511A18
:103560006F927F928F929F92AF92BF92CF92DF9293
:10357000EF92FF920F931F93CF93DF9385EB95E02C
:103580000E944612E091E20BF091E30B8085282F18
:10359000332727FD30953F938F9388E393E09F93E4
:1035A0008F930E94102FE091E20BF091E30BC28108
:1035B000D381DF93CF938CE693E09F938F930E9408
:1035C000102F88811F928F9381E493E09F938F93B4
:1035D0000E94102FE091E20BF091E30B81818F9319
:1035E00080818F938EE493E09F938F930E94102F9E
:1035F0008091E30B8F938091E20B8F9388E593E0AA
:103600009F938F930E94102FCDE1DBE0EDB7FEB7C3
:1036100074960FB6F894FEBF0FBEEDBF00E010E049
:1036200088E6682E83E0782E91E4892E93E0992E27
:103630002EE4A22E23E0B22E38E5C32E33E0D32EA3
:10364000EA80FB80FF92EF921F930F937F926F921D
:103650000E94102FF70180811F928F939F928F926B
:103660000E94102F89818F9388818F93BF92AF9290
:103670000E94102FDF93CF93DF92CF920E94102FE2
:103680000F5F1F4FAB96EDB7FEB772960FB6F8946B
:10369000FEBF0FBEEDBF0430110591F6DF91CF9153
:1036A0001F910F91FF90EF90DF90CF90BF90AF9060
:1036B0009F908F907F906F900895CF93DF93E091CC
:1036C000E20BF091E30BC281D3818881853539F01B
:1036D0000E94B01A81E00E949B1A85E58883E091E0
:1036E000E20BF091E30B808191818115924438F0D7
:1036F0000E94B01A82E1DF91CF910C949B1ADF9166
:10370000CF9108952BE28202C0011124FC01E35EF7
:10371000F44FA281B3818C91853519F085E58C93A6
:1037200008C0808191818115924428F082E10E9435
:103730009B1A8FEF089581E008950F931F93409196
:103740006C0850916D0860916E0870916F0880E070
:1037500090E08A019B01082E04C0369527951795A5
:1037600007950A94D2F700FD19C001E010E020E0AF
:1037700030E0082E04C0000F111F221F331F0A94CF
:10378000D2F7402B512B622B732B40936C08509334
:103790006D0860936E0870936F0805C001968032C3
:1037A0009105B9F68FEF1F910F910895E091E20B0B
:1037B000F091E30B65857685878590890895CF9292
:1037C000DF92EF92FF920F931F93CF93DF93C12C61
:1037D000D12C7601C394082E04C0CC0CDD1CEE1C49
:1037E000FF1C0A94D2F740916C0850916D086091CB
:1037F0006E0870916F084C215D216E217F21452B51
:10380000462B472B09F460C0082F0E94FD16E6E204
:10381000FBE0B701A601409550956095709513E0C7
:10382000DF0111978C918F3F39F184819581A681B9
:10383000B7818C159D05AE05BF0551F41086118624
:10384000128613869F0122503109E90118821083E4
:1038500084239523A623B72384839583A683B783E4
:1038600080859185A285B38584239523A623B723DC
:1038700080879187A287B387BB96DBE0E23DFD0797
:1038800079F68EEF9FEFAFEFBFEF04C0880F991F5F
:10389000AA1FBB1F0A95D2F740916C0850916D0882
:1038A00060916E0870916F0884239523A623B72337
:1038B00080936C0890936D08A0936E08B0936F0886
:1038C0000E94FF1681E001C08FEFDF91CF911F9121
:1038D0000F91FF90EF90DF90CF9008950F931F937B
:1038E00041E050E060E070E08A019B0104C0000FFD
:1038F000111F221F331F8A95D2F7D901C801E09109
:10390000E20BF091E30B45855685678570890423AA
:10391000152326233723012B022B032BD1F080956F
:103920009095A095B095482359236A237B2345871A
:1039300056876787708B418952896389748984238C
:103940009523A623B723818B928BA38BB48B81E025
:1039500001C08FEF1F910F910895282F40916C089F
:1039600050916D0860916E0870916F08082E04C028
:1039700076956795579547950A94D2F740FF1DC0F5
:10398000E091E20BF091E30B81E090E0A0E0B0E089
:1039900004C0880F991FAA1FBB1F2A95D2F745851F
:1039A000568567857089842B952BA62BB72B858729
:1039B0009687A787B08B81E008958FEF0895CF9207
:1039C000DF92EF92FF92CF93C12CD12C7601C3945A
:1039D00004C0CC0CDD1CEE1CFF1C8A95D2F7809134
:1039E0006C0890916D08A0916E08B0916F088C21C1
:1039F0009D21AE21BF21892B8A2B8B2B11F481E0D5
:103A000044C00E94FD16E4E2FBE0A6E2BBE0C0E099
:103A100083E090819130B9F4428553856485758542
:103A20004C215D216E217F21452B462B472B59F0E0
:103A30008C9316861786108A118A1082C286D386C6
:103A4000E486F586C1E090819230A1F442855385E9
:103A5000648575854C155D056E057F0559F48C935D
:103A600016861786108A118A10821286138614868B
:103A70001586C1E0BB969B969BE0E03DF90749F6B1
:103A80000E94FF16C11105C082E00E94BE188FEF90
:103A900001C081E0CF91FF90EF90DF90CF9008952B
:103AA0000F931F93E091E20BF091E30B05851685D0
:103AB000278530890623172328233923011511056B
:103AC0002105310511F1DC01CB01818B928BA38B98
:103AD000B48B21E027830090D20B04C0B695A79544
:103AE000979587950A94D2F780FF03C00E942A21F8
:103AF00004C080E090E00E94FB20E091E20BF09196
:103B0000E30B0189128923893489C901B8011F9106
:103B10000F9108959091E10B91111DC09091CB0BE5
:103B20009F3F31F09091CE0B9F3F21F0E2E003C028
:103B3000E0E001C0E1E0F0E09F01220F331FE20F5F
:103B4000F31FE553F44F82838083618381E0809388
:103B5000E10BCF01089580E090E008952BE08B3CCD
:103B6000920729F08E5C9B4021F481E0089580E06B
:103B700008958FEF08950E94AE1D8F3F11F481E0EC
:103B800002C0823021F40E94BE188FEF0895992759
:103B900087FD9095FC01EE0FFF1F8E0F9F1FFC010C
:103BA000E553F44F82810895EF92FF920F931F9394
:103BB000CF93DF931F92CDB7DEB70E94AE1D8F3F2C
:103BC00011F481E002C0823021F40E94BE188FEF10
:103BD00041C089830E94FD168981E82EFF24E7FCFD
:103BE000F0948701000F111FF801EE0DFF1DE55342
:103BF000F44F9281911116C0E091E20BF091E30B2A
:103C0000978192609783992787FD9095A92FB92F67
:103C1000818B928BA38BB48B0E94FF1680E090E087
:103C20000E94FB200E0D1F1DD801A553B44F129604
:103C30008C911297815012968C931297E091E20B1F
:103C4000F091E30B11968C91838781E084830E942D
:103C5000FF1681E00F90DF91CF911F910F91FF90A0
:103C6000EF9008950F931F93CF93DF931F92CDB7DB
:103C7000DEB70E94AE1D8F3F11F481E002C082309A
:103C800021F40E94BE188FEF44C0482F552747FDEE
:103C900050959A01220F331F240F351F89010553B8
:103CA000144FF80122819081291794F589830E948D
:103CB000FD16F80192819F5F9283E091E20BF091F3
:103CC000E30B1482E4E2FBE08981992787FD90955C
:103CD000A92FB92F23E03081323099F442855385E2
:103CE00064857585481759076A077B0751F4228355
:103CF00016861786108A118A1082128613861486F9
:103D00001586BB963BE0E03DF30729F70E94FF16BE
:103D100081E00F90DF91CF911F910F9108950E9444
:103D2000AE1D8F3F11F481E002C0823021F40E9469
:103D3000BE188FEF0895992787FD9095FC01EE0F2F
:103D4000FF1F8E0F9F1FFC01E553F44F8FEF808301
:103D5000828381838091E10B81508093E10B81E02C
:103D60000895E091D70BF091D80B80810895E091F0
:103D7000D70BF091D80B309721F00380F481E02D20
:103D8000FACF0895AF92BF92CF92DF92EF92FF9257
:103D90000F931F93CF93DF93E0911B0BF0911C0BBC
:103DA000309709F494C00091D70B1091D80B0115EE
:103DB000110509F44CC0D8014BE2582F540390016F
:103DC0001124235E344F79019AE0E90EF11C690158
:103DD000C4E0CC0ED11C5901DBE0AD0EB11C2C911E
:103DE00030E0429FB001439F700D1124635E744F19
:103DF000EB019C81992329F05B85E7019881591794
:103E000040F1E6019881992369F0429FB001439FF8
:103E1000700D1124635E744FEB015A85E5019881A2
:103E20005917B8F0429FB001439F700D11249B01B8
:103E3000235E344FE9012A85E7019881291748F06C
:103E400013960D90BC91A02D109749F602C0A0E0EA
:103E5000B0E08083C381D481D0931C0BC0931B0B33
:103E6000A017B107B1F4109749F0B483A38312826D
:103E700011821296FC93EE93119706C0148213825E
:103E800012821182FA83E983F093D80BE093D70B67
:103E90001EC0AC17BD0779F011968D919C911297B9
:103EA00092838183B483A3831196CD91DC91129781
:103EB000FC83EB8308C01482138211968D919C9130
:103EC0001297928381831296FC93EE931197DF9160
:103ED000CF911F910F91FF90EF90DF90CF90BF9007
:103EE000AF900895CF93DF93E091D70BF091D80B6B
:103EF000309709F444C0992787FD9095208130E0E0
:103F00002817390781F4A381B481B093D80BA0930B
:103F1000D70B12961C921E92119718C00380F48141
:103F2000E02D309761F1208130E028173907B1F793
:103F3000C181D281838194819C838B83A381B4814D
:103F4000109721F01296DC93CE931197A0911B0B42
:103F5000B0911C0B109739F4F0931C0BE0931B0BE2
:103F6000148213820AC0B483A3831296FC93EE9347
:103F70001197F0931C0BE0931B0B12821182DF91BF
:103F8000CF910895EF92FF920F931F93CF93DF93FA
:103F9000EC014B815C8169817A818D819E810E94D7
:103FA000702B2F81222371F04B815C81E12CF12C4D
:103FB00000E010E020E030E0BC01CE010E940318D8
:103FC0001F820CC0E8812BE2E202F0011124E35EC3
:103FD000F44F21852330B9F491838083E8818BE20B
:103FE000E802F0011124E35EF44F85899689A789E0
:103FF000B08D892B8A2B8B2B41F482E081878881BD
:104000000E94C21E02C08FEF01C081E0DF91CF91FC
:104010001F910F91FF90EF9008951F93CF93DF931F
:10402000CDB7DEB728970FB6F894DEBF0FBECDBF71
:1040300029833A834B835C836D837E838F83988748
:104040000E94FD160E949A28182FCE0101960E9408
:104050001F246330710598F0E091E20BF091E30BBF
:10406000212F30E0620F731FCB01A0E0B0E0858B01
:10407000968BA78BB08F0E94FF1681E001C08FEF57
:1040800028960FB6F894DEBF0FBECDBFDF91CF915B
:104090001F9108950E94432BE091E20BF091E30BF6
:1040A00085818111F7CF0895CF930E945D1B0E94F7
:1040B000FD16E091E20BF091E30B81E090E092A716
:1040C00081A785830E949A28C82F883F80F40E9488
:1040D00034282C2F30E02F5F3F4F90E0281739070E
:1040E00034F482E08C0F8093AD090E9438280E943E
:1040F000FF160E944A2081E0CF910895E091E20BE3
:10410000F091E30B80850E94721FE091E20BF09129
:10411000E30B84E081870E94542081E00895CF93CF
:10412000DF93EC010E945D1B209711F4C1E0D0E009
:104130000E94FD16E091E20BF091E30B81E0858394
:10414000D2A7C1A70E949A28C82F883F80F40E9456
:1041500034282C2F30E02F5F3F4F90E0281739078D
:1041600034F482E08C0F8093AD090E9438280E94BD
:10417000FF160E944A2081E0DF91CF910895EF92CF
:10418000FF920F931F93CF938C010E94FD16E09135
:10419000E20BF091E30B81E085830E949A28C82FFF
:1041A000E091E20BF091E30BE82EF12CC701800FB8
:1041B000911FA0E0B0E0858B968BA78BB08FC83F96
:1041C00078F40E9434289FEFE91AF90A90E0E81683
:1041D000F90634F482E08C0F8093AD090E943828F0
:1041E0000E94FF160E944A2081E0CF911F910F91FB
:1041F000FF90EF900895CF93DF93EC010E94FD169E
:10420000E091E20BF091E30B21E02583CE01A0E0E9
:10421000B0E0858B968BA78BB08F0E949A28C82F11
:10422000883F80F40E9434282C2F30E02F5F3F4FCE
:1042300090E02817390734F482E08C0F8093AD09A1
:104240000E9438280E94FF160E944A2081E0DF91D8
:10425000CF910895CF930E94FD16E091E20BF0916B
:10426000E30B81E0858386830E949A28C82F883FCC
:1042700080F40E9434282C2F30E02F5F3F4F90E0D5
:104280002817390734F482E08C0F8093AD090E941F
:1042900038280E94FF160E944A2081E0CF9108959D
:1042A0001F93CF93DF93CDB7DEB728970FB6F8945F
:1042B000DEBF0FBECDBF29833A834B835C836D8302
:1042C0007E838F8398870E945D1B0E94FD16E0917C
:1042D000E20BF091E30B81E0858381E090E092A70F
:1042E00081A70E949A28182FCE0101960E941F24B0
:1042F000E091E20BF091E30BDC01CB01810F911D0A
:10430000A11DB11D858B968BA78BB08F183F80F4B4
:104310000E943428212F30E02F5F3F4F90E0281774
:10432000390734F482E0810F8093AD090E94382868
:104330000E94FF160E944A2081E028960FB6F8944A
:10434000DEBF0FBECDBFDF91CF911F9108958F9239
:104350009F92AF92BF92CF92DF92EF92FF920F9314
:104360001F93CF93DF93CDB7DEB760970FB6F89466
:10437000DEBF0FBECDBF29873A874B875C876D872D
:104380007E878F87988BCE0101960E9403228980B9
:104390009A80AB80BC80CD80DE80EF80F884098578
:1043A0001A852B853C854D855E856F857889CE0184
:1043B00009960E9460228F3F61F029853A854B85DE
:1043C0005C856D857E858F8598890E94502181E06E
:1043D00001C08FEF60960FB6F894DEBF0FBECDBF61
:1043E000DF91CF911F910F91FF90EF90DF90CF90D1
:1043F000BF90AF909F908F900895E091E20BF09165
:10440000E30B808508950F931F93CF93DF93EC0107
:104410001C821D821E821F828091D90B9091DA0B23
:10442000A091DB0BB091DC0B88839983AA83BB83BB
:104430008091DD0B9091DE0BA091DF0BB091E00B32
:104440008C839D83AE83BF830E949A28A82FB0E0FF
:1044500023EB36EE4EE050E00E94682D0C811D816A
:104460002E813F81DC01CB01800F911FA21FB31F62
:104470008C839D83AE83BF838C819D81AE81BF8100
:1044800081152AEC92072AE9A2072BE3B20798F0DC
:104490009A5CAA49BB438C839D83AE83BF8388818A
:1044A0009981AA81BB810196A11DB11D8883998341
:1044B000AA83BB83E1CFDF91CF911F910F91089524
:1044C0008F929F92AF92BF92CF92DF92EF92FF9224
:1044D0000F931F93CF93DF93CDB7DEB760970FB6DF
:1044E000F894DEBF0FBECDBFFC0109831A832B8376
:1044F0003C834D835E836F83788789869A86AB86FB
:10450000BC86CD86DE86EF86F88A09811A812B81EA
:104510003C814D815E816F817885C984DA84EB842A
:10452000FC848D859E85AF85B8890C151D052E05EB
:104530003F05F0F1C016D106E206F30691F44817E4
:1045400059076A077B07A0F1481B590B6A0B7B0BC5
:10455000448355836683778310821182128213828B
:1045600025C0481759076A077B0780F401501109D5
:10457000210931090C191D092E093F0900831183F6
:104580002283338356536546744C08C00C191D09A9
:104590002E093F090083118322833383481B590B63
:1045A0006A0B7B0B448355836683778381E001C06C
:1045B0008FEF60960FB6F894DEBF0FBECDBFDF91D0
:1045C000CF911F910F91FF90EF90DF90CF90BF9010
:1045D000AF909F908F900895FC0144815581668132
:1045E000778141158AEC58078AE968078BE37807D9
:1045F00098F05A5C6A497B4344835583668377838A
:1046000080819181A281B3810196A11DB11D80831A
:104610009183A283B383E1CF08958F929F92AF924B
:10462000BF92CF92DF92EF92FF920F931F93CF939F
:10463000DF93CDB7DEB760970FB6F894DEBF0FBE3D
:10464000CDBF09831A832B833C834D835E836F83A5
:10465000788789869A86AB86BC86CD86DE86EF868D
:10466000F88A09851A852B853C8549815A816B8199
:104670007C81400F511F621F731FFC0140835183D7
:10468000628373830D851E852F8538894D815E81F8
:104690006F817885400F511F621F731F44835583BC
:1046A000668377830E94EC2281E060960FB6F894CF
:1046B000DEBF0FBECDBFDF91CF911F910F91FF9055
:1046C000EF90DF90CF90BF90AF909F908F90089524
:1046D000E9EDFBE0608371838283938324833583D8
:1046E0004683578308952F923F924F925F926F9225
:1046F0007F928F929F92AF92BF92CF92DF92EF9272
:10470000FF920F931F93FC01C080D180E280F38061
:10471000C114D104E104F104E1F184819581A68101
:10472000B78122E4C216D104E104F104F0F51C01C2
:104730002D01612C712C4301E0E08E2F90E0A0E070
:10474000B0E08C159D05AE05BF0588F49101A2016E
:10475000B301C40136534546544C6F4F7F4F8F4FC2
:104760009F4F19012A013B014C01EF5FE6CF83EB1C
:10477000A82E96EEB92E2EE0C22ED12CE12CF12CD3
:1047800000E010E09101A201B301C4010E94BB2D21
:104790000AC0648175818681978123EB36EE4EE0F5
:1047A00050E00E94972DC90102C080E090E01F9167
:1047B0000F91FF90EF90DF90CF90BF90AF909F90C0
:1047C0008F907F906F905F904F903F902F900895C3
:1047D000CF92DF92EF92FF92CF93DF93CDB7DEB708
:1047E00028970FB6F894DEBF0FBECDBF6B017C01DA
:1047F0002AE0F694E794D794C7942A95D1F7C98212
:10480000DA82EB82FC829B01AC013370442755278E
:1048100063EB76EE8EE090E00E94732D2C2D3A81B2
:104820004B815C8128960FB6F894DEBF0FBECDBFDA
:10483000DF91CF91FF90EF90DF90CF9008952F926E
:104840003F924F925F926F927F928F929F92AF9220
:10485000BF92CF92DF92EF92FF920F931F93FC01D2
:10486000C080D180E280F380C114D104E104F1045E
:10487000B9F184819581A681B7811C012D01612C3C
:10488000712C4301E0E08E2F90E0A0E0B0E08C15A9
:104890009D05AE05BF0588F49101A201B301C401D5
:1048A00036534546544C6F4F7F4F8F4F9F4F1901E2
:1048B0002A013B014C01EF5FE6CF83EBA82E96EE79
:1048C000B92E2EE0C22ED12CE12CF12C00E010E00C
:1048D0009101A201B301C4010E94BB2DCA010BC00A
:1048E000648175818681978123EB36EE4EE050E03E
:1048F0000E94972DCA01B9011F910F91FF90EF906F
:10490000DF90CF90BF90AF909F908F907F906F90EF
:104910005F904F903F902F900895C1E00E945D1BE3
:104920000E943428843010F4C093D60B0E94432B8D
:104930008091580A853519F088E00E949B1A809171
:104940007E41853559F388E00E949B1AE7CF2F926C
:104950003F924F925F926F927F928F929F92AF920F
:10496000BF92CF92DF92EF92FF920F931F93CF935C
:10497000DF9300D01F92CDB7DEB70E94FF160E94D2
:1049800068270E9486270E948E271C018AEF0E94BA
:104990003828A091AD09B0E023EB36EE4EE050E0B0
:1049A0000E94682D0091DD0B1091DE0B2091DF0B32
:1049B0003091E00B6B017C01C00ED11EE21EF31E94
:1049C000C701B60123EB36EE4EE050E00E94972D72
:1049D00026013701461A570A680A790AD301C2012B
:1049E0000091D90B1091DA0B2091DB0B3091DC0B8D
:1049F00043EB842E46EE942E4EE0A42EB12C68019B
:104A000079014FEFC41AD40AE40AF40A81155AEC6A
:104A100095075AE9A5075BE3B507C8F02C013D01EE
:104A20002AEC521A2AE9620A2BE3720AC301B20184
:104A3000A50194010E94972DA3019201261B370B1B
:104A4000480B590BDA01C90197018601D8CF809331
:104A5000DD0B9093DE0BA093DF0BB093E00B009384
:104A6000D90B1093DA0B2093DB0B3093DC0BE09126
:104A7000E20BF091E30B8581882339F18185843045
:104A800021F18781823029F0882341F086818111CC
:104A900002C085E001C083E0818714C083E0818784
:104AA0001782168285899689A789B08D892B8A2BD2
:104AB0008B2B41F4818D928DA38DB48D858B968B3C
:104AC000A78BB08F80850E94721FE091E20BF0915E
:104AD000E30B85A196A1A7A1B0A5892B8A2B8B2BCF
:104AE00009F444C02085222309F440C08185843024
:104AF000E9F1858D968DA78DB0A14091AD0950E06B
:104B000060E070E084179507A607B70768F4622F86
:104B100082E00E94A81AE091E20BF091E30B158E5F
:104B2000168E178E10A208C0841B950BA60BB70B10
:104B3000858F968FA78FB0A3E091E20BF091E30BE6
:104B40001085858D968DA78DB0A1892B8A2B8B2BF7
:104B500069F4612F83E00E94A81AE091E20BF091C2
:104B6000E30B83E08187812F0E94721F86E29BE026
:104B70009B838A8300E61AEE19822AEFC22ED12C7B
:104B8000E12CF12C812C912C54018394EA81FB813E
:104B9000319780818F3F09F404C1EA81FB8134970A
:104BA0001082882309F467C0EA81FB818081843008
:104BB00009F461C044845584668477846091AD09AA
:104BC00070E080E090E0461657066806790648F0E7
:104BD000461A570A680A790A448655866686778691
:104BE00006C0EA81FB811486158616861786EA813F
:104BF000FB8140885188628873884616570668068C
:104C0000790648F0461A570A680A790A408A518A92
:104C1000628A738A1EC0EA81FB81208D318D428DAC
:104C2000538D621773078407950758F429013A01D9
:104C3000461A570A680A790A408A518A628A738A30
:104C400008C00E94972DEA81FB81608B718B828B5B
:104C5000938BEA81FB8180899189A289B389892B11
:104C60008A2B8B2B41F4808D918DA28DB38D808BFF
:104C7000918BA28BB38BEA81FB818081833009F019
:104C800090C084859585A685B785892B8A2B8B2B2B
:104C900009F074C0DF0112978C919F0123503109F4
:104CA0008823A9F0F9018081882389F0B501A40146
:104CB0000090D20B04C0440F551F661F771F0A9443
:104CC000D2F7EA81FB8140875187628773871C9204
:104CD000F9011082EA81FB81A0A1B1A1A130B10547
:104CE00019F5848D958DA68DB78D848B958BA68BAC
:104CF000B78B92E0492E408280899189A289B3893D
:104D000084879587A687B787808D918DA28DB38D77
:104D1000892B8A2B8B2B21F4C486D586E686F786D1
:104D200089810E94C21E2AC0EA81FB81448D558D73
:104D3000668D778D448B558B668B778B408C518C31
:104D4000628C738C1197A30192010E94682D648775
:104D5000758786879787608B718B828B938B4528AD
:104D60004628472821F4C486D586E686F78644245B
:104D70004394512CEA81FB8151A240A2EA81FB813C
:104D800084859585A685B7850097A105B10549F06D
:104D9000A80160E070E084179507A607B70708F43C
:104DA0008C01F981FF5FF9832A813B81255D3F4FAB
:104DB0003B832A83F43009F0E9CE0E94B11EF82E1D
:104DC0003BE28302F0011124E35EF44F228520933D
:104DD000E40BF093D40BE093D30B8823D9F085A197
:104DE00096A1A7A1B0A5892B8A2B8B2B99F0858D35
:104DF000968DA78DB0A18A3F9105A105B10550F40C
:104E0000A80160E070E084179507A607B70710F4C3
:104E10008C0105C00B3F110510F00AEF10E0209344
:104E2000D50BF093E30BE093E20B0093AD090E94E6
:104E30009A28282F30E02F5F3F4F2017310740F08E
:104E40000E949A28082F10E00E5F1F4F0093AD09B3
:104E5000F1101092D60B802F0E9438286CED75E06F
:104E6000C1010E94A0270E94BD2B0F900F900F90B0
:104E7000DF91CF911F910F91FF90EF90DF90CF9036
:104E8000BF90AF909F908F907F906F905F904F906A
:104E90003F902F900C94C82B0000000000000000F1
:104EA0000000000000000000000000000000000002
:104EB000019791F7089510922101089589E0809358
:104EC00021018DE89CE390932901809328010895A6
:104ED00010922501109224010895CF93DF9300D002
:104EE000CDB7DEB780912401909125019A83898303
:104EF00089819A810F900F90DF91CF910895109240
:104F00008100089581E080938100089583B58160D8
:104F100083BD10928500109284000895CF93DF9393
:104F200000D0CDB7DEB780918400909185009A8340
:104F3000898389819A810F900F90DF91CF91089595
:104F4000CF92DF92EF92FF92CF93DF93EC01CC0FE1
:104F5000DD1FC9378FEFD80710F0C0E0D0E06B013C
:104F6000E12CF12CCC0EDD1EE11CF11C81E0C816F9
:104F7000D104E806F10440F081E0E81AF1080E944B
:104F80008E27C817D907D8F30E948E278C159D0548
:104F9000D8F3DF91CF91FF90EF90DF90CF900895FD
:104FA0001092B100E0E7F0E080818D7F8083808106
:104FB0008E7F808308958093B2000895E0E7F0E04B
:104FC00080818360808383E08093B100089583B5FE
:104FD000826083BD1092B20010925C071092AD09FE
:104FE0000895CF93DF938EEF8093AD0980E2809395
:104FF000B6008091AD098093B30083E087BB92E057
:105000009093B0008093B10093B5926093BD87BB3D
:1050100084BD83B5826083BD1092800081E080935F
:105020008100109285001092840083B5826083BD58
:1050300083B5816083BD10922001C4E2D1E0198262
:10504000188283B5826083BD83B5816083BD0E9471
:10505000E727198218820E94DE270E945E2710929D
:105060005C07DF91CF9108958091B3008F5F089521
:1050700081508093B3000895811102C01092710095
:105080008FEF0895811106C0109295001092940040
:1050900081E008958FEF0895811105C080919400FB
:1050A00090919500089580E090E00895811105C0E9
:1050B00082E08093710081E008958FEF089581115F
:1050C00035C0CB010197059710F46093AA0910929F
:1050D000900088E08093910050939900409398004D
:1050E00030934E0620934D068091AA09813021F419
:1050F00080919100816011C0823021F480919100F3
:1051000082600BC0833021F480919100836005C0E0
:10511000843031F48091910084608093910008C0C4
:10512000853031F4809191008560F7CF8FEF08953D
:1051300081E008958091B20008951F920F920FB6FA
:105140000F92112460E08AE00E94A81AFFCF0F920C
:105150000FB60F921F922F923F924F925F926F92D3
:105160007F928F929F92AF92BF92CF92DF92EF92F7
:10517000FF920F931F932F933F934F935F936F93E0
:105180007F938F939F93AF93BF93CF93DF93EF93CF
:10519000FF93A091E20BB091E30B0DB60D920EB60A
:1051A0000D921F92A0911509B09116091E90BEBFD5
:1051B000ADBF08951F920F920FB60F9211240BB638
:1051C0000F922F933F934F935F936F937F938F93A0
:1051D0009F93AF93BF93EF93FF93E0914D06F091B0
:1051E0004E06309711F0099504C060E08AE00E94F5
:1051F000A81AFF91EF91BF91AF919F918F917F91ED
:105200006F915F914F913F912F910F900BBE0F9037
:105210000FBE0F901F9018951F920F920FB60F920E
:1052200011240F900FBE0F901F90189504B603FE27
:1052300002C080E101C080E004B602FE06C094B75F
:105240009B7F94BF04B600FE846004B601FE05C0D7
:1052500094B79D7F94BF8260089581110CC004B6FD
:1052600000FE04C094B79E7F94BF01C081E090917E
:10527000B000911181E00895811102C0E89A39C00F
:10528000813011F4E99A0895823011F4EA9A31C01C
:10529000833021F480916B00816029C0843021F437
:1052A00080916B00826023C0853021F480916B0077
:1052B00084601DC0863021F480916B00886017C027
:1052C000873021F480916B00806111C0883021F417
:1052D00080916B0080620BC0893021F480916B005B
:1052E000806405C08A3039F480916B0080688093B7
:1052F0006B0081E008958FEF0895811102C0E89856
:1053000039C0813011F4E9980895823011F4E99898
:1053100031C0833021F480916B008E7F29C08430AE
:1053200021F480916B008D7F23C0853021F4809122
:105330006B008B7F1DC0863021F480916B00877FCE
:1053400017C0873021F480916B008F7E11C08830A8
:1053500021F480916B008F7D0BC0893021F4809106
:105360006B008F7B05C08A3039F480916B008F779A
:1053700080936B0081E008958FEF0895811126C01E
:105380005093020C4093010C611104C0809169009C
:105390008C7F3DC0613049F4809169008D7F80939E
:1053A000690080916900816032C0623049F4809167
:1053B0006900826080936900809169008E7F27C0B8
:1053C000633039F580916900836021C0813049F5EF
:1053D0005093000C4093FF0B611104C08091690051
:1053E000837F15C0613049F480916900877F809385
:1053F00069008091690084600AC0623061F4809124
:105400006900886080936900809169008B7F809338
:10541000690081E008956330E1F7809169008C6054
:10542000F6CF823031F55093040C4093030C611198
:1054300004C0809169008F7CEACF613049F480918B
:1054400069008F7D80936900809169008061DFCF62
:10545000623049F480916900806280936900809194
:1054600069008F7ED4CF6330A1F68091690080639C
:10547000CECF8350883050F4809168008160809353
:1054800068005093060C4093050CC3CF8FEF08952E
:105490001F920F920FB60F9211240BB60F922F93FB
:1054A0003F934F935F936F937F938F939F93AF93AC
:1054B000BF93EF93FF93E091050CF091060C3097AA
:1054C00011F0099504C060E08AE00E94A81AFF91DB
:1054D000EF91BF91AF919F918F917F916F915F916C
:1054E0004F913F912F910F900BBE0F900FBE0F90D9
:1054F0001F9018951F920F920FB60F9211240BB6A2
:105500000F922F933F934F935F936F937F938F935C
:105510009F93AF93BF93EF93FF93E091010CF091B2
:10552000020C309711F0099504C060E08AE00E94F7
:10553000A81AFF91EF91BF91AF919F918F917F91A9
:105540006F915F914F913F912F910F900BBE0F90F4
:105550000FBE0F901F9018951F920F920FB60F92CB
:1055600011240BB60F922F933F934F935F936F933A
:105570007F938F939F93AF93BF93EF93FF93E091AC
:10558000FF0BF091000C309711F0099504C060E01A
:105590008AE00E94A81AFF91EF91BF91AF919F916D
:1055A0008F917F916F915F914F913F912F910F90CC
:1055B0000BBE0F900FBE0F901F9018951F920F9269
:1055C0000FB60F9211240BB60F922F933F934F9368
:1055D0005F936F937F938F939F93AF93BF93EF935B
:1055E000FF93E091030CF091040C309711F00995B2
:1055F00004C060E08AE00E94A81AFF91EF91BF9179
:10560000AF919F918F917F916F915F914F913F915A
:105610002F910F900BBE0F900FBE0F901F901895FB
:10562000A8959FB7F89484B7877F84BFE0E6F0E041
:1056300080818861808310829FBF08959FB7F8940E
:10564000A89584B7877F84BFE0E6F0E08081886119
:1056500080838DE080839FBF089504B603FE02C05F
:105660008FEF089581E00895A8950895089583B770
:10567000817F866083BF83B7816083BF889583B74E
:105680008E7F83BF089583B7817F83BF83B7816097
:1056900083BF889583B78E7F83BF0895FC0176838F
:1056A00065830895EF92FF920F931F93CF93DF933B
:1056B0008C017B01EA014032510518F481E10E941E
:1056C0009B1A2197CE0DDF1DF801D283C183F4828E
:1056D000E382DF91CF911F910F91FF90EF9008959A
:1056E00025E5FA012083FB01329790833196808370
:1056F0003397118210823297118210823297118271
:105700001082329711821082329711821082329762
:105710001182108232971182108232971182108288
:105720003297118210823297118210823297118241
:105730001082329711821082329711821082329732
:105740001182108232971182108232971182108258
:10575000CB018497FC0111821082089585E5809326
:105760007E41EEEFF1E4F0931609E093150989EB21
:1057700098E190838093FF41089589EB98E190939D
:10578000FE418093FF4108950E94F1270C94FF167B
:10579000A091D30BB091D40BCD91CDBFDD91DEBFE5
:1057A000FF91EF91DF91CF91BF91AF919F918F9139
:1057B0007F916F915F914F913F912F911F910F9129
:1057C000FF90EF90DF90CF90BF90AF909F908F9021
:1057D0007F906F905F904F903F902F901F900F9011
:1057E0000FBE0F9018950E949A1280E190E00E94DF
:1057F0001E160E94041782E090E00E94B51583E017
:1058000090E00E94B51581E090E00E94B51580E01F
:1058100090E00E94B51520E030E0A90160E070E062
:10582000CB010E9468230E9485030E94C21780E07A
:1058300090E008956F927F928F929F92AF92BF9265
:10584000CF92DF92EF92FF920F931F93CF93DF934C
:10585000CDB7DEB72C970FB6F894DEBF0FBECDBF25
:105860006C015B017A01FC0117821682838181FF42
:105870000EC1CE0101964C01F6010381F50103FD35
:10588000159103FF11915F01112309F4FCC015323A
:1058900049F403FD159103FF11915F01153211F0D9
:1058A00020E01BC0B601812F90E00E94D82E370166
:1058B0007301E2CF112309F4E6C0612F70E08BEC95
:1058C00095E02C870E942D2E2C85892B49F0F5011F
:1058D00003FD159103FF11915F0127FFEBCF09C075
:1058E000133229F01C3609F0D5C02068F0CF20E132
:1058F000EECF022F112309F4C6C0612F70E084ECB3
:1059000095E02C870E942D2E2C85892B41F03701A4
:10591000F4E06F0E711CB6018FE390E011C01336F6
:1059200039F0133781F0133519F5022F01600BC0E0
:10593000370182E0680E711CB601F7018081918108
:105940000E94D82EB5CF3701F2E06F0E711CF7011F
:10595000E080F180F70100FD859100FF81917F01DA
:10596000882309F4A5CFB60190E00E94D82EF2CF8B
:10597000143611F0193629F5370127FF09C0F4E074
:105980006F0E711CF70160817181828193810AC061
:10599000F2E06F0E711CF70160817181882777FD3D
:1059A0008095982F022F0F7E97FF08C090958095C5
:1059B000709561957F4F8F4F9F4F00642AE030E0D4
:1059C00033C0103799F040F41835B1F01F3609F0A4
:1059D0005AC028E030E014C0153719F0183741F0EC
:1059E00052C0022F0F7E2AE030E00AC0022F006171
:1059F000046220E130E004C0022F046020E132E0C4
:105A0000370107FF09C0F4E06F0E711CF7016081D8
:105A100071818281938108C0F2E06F0E711CF701E1
:105A20006081718180E090E0A4010E948A2F182F8C
:105A3000181906FF05C0B6018DE290E00E94D82E2D
:105A400004FF15C0FE01E10FF11D8081803379F064
:105A5000B60180E390E00E94D82E02FF08C00072D9
:105A6000802F90E0B601885A9F4F0E94D82E115087
:105A7000F401E10FF11D8081B60190E00E94D82E63
:105A80001111F5CF15CFF6018681978105C08FEFF3
:105A90009FEF02C0022F31CF2C960FB6F894DEBFD5
:105AA0000FBECDBFDF91CF911F910F91FF90EF906F
:105AB000DF90CF90BF90AF909F908F907F906F902E
:105AC00008950E941E2EB7FF0895821B930B089520
:105AD0000E941E2EA59F900DB49F900DA49F800D37
