:100000000C945A030C947A2F0C94AC2F0C94DE2F82
:100010000C9479030C9479030C9479030C94790370
:100020000C9479030C94482F0C9479030C94790365
:100030000C9479030C94A72D0C9479030C94A72DA0
:100040000C9479030C9479030C9479030C94790340
:100050000C9479030C9479030C9479030C94790330
:100060000C9479030C9479030C9479030C94790320
:100070000C9479030C9479030C9479030C94790310
:100080000C94DA2D0C9479030C9479030C94790375
:100090000C9479030C9479030C9479030C947903F0
:1000A0000C9479030C9479030C9479030C947903E0
:1000B0000C9479030C9479030C9479030C947903D0
:1000C0000C9479030C9479030C9479030C947903C0
:1000D0000C9479030C9479030C9479030C947903B0
:1000E0000C9479030C945C100C944D100C941D101E
:1000F0000C940D110C940E100C94FF0F0C94ED0F3A
:100100000C94DE0F0C9479030C9479030C9479030E
:100110000C9479030C9479030C9479030C9479036F
:100120008D129A12A712B412C112CE12DB12FE1255
:100130000C131A1328133613441352137513771321
:1001400079137B137D137F138113A013C313E7135C
:100150000A142D1450147314AD14BA14C714D41403
:10016000E114EE14FB14141521152E153B1548153A
:1001700055156215851C8B1C8E1C911C941C971C9C
:100180009D1C9A1CA01CA31CA61CAF1CB21CB51C59
:10019000B81CAC1C821C881CBB1CBE1CA91C7F1C70
:1001A000A71DAA1DB51DBA1DC11DCA1DCD1DD21D7D
:1001B000D91DE21D4661696C656420746F2072650B
:1001C000676973746572207369676E616C0D0A00EC
:1001D00054444D41204552524F523A20637265615A
:1001E00074696E6720656E61626C65207369676E05
:1001F000616C206661696C65640D0A0054444D4170
:10020000204552524F523A206372656174696E679D
:10021000207478207369676E616C206661696C6513
:10022000640D0A0054444D41204552524F523A2029
:100230006372656174696E67207278207369676E96
:10024000616C206661696C65640D0A0054444D411F
:100250002054583A20576F6B65207570206F6E20C0
:1002600077726F6E67207369676E616C0D0A005458
:10027000444D412054583A204572726F7220636198
:100280006C6C696E67206576656E74207761697441
:100290000D0A004D616C666F726D656420455343B5
:1002A0002073657175656E63650D0A00436865634B
:1002B0006B73756D206661696C65643A2000534C00
:1002C0004950205258206572726F723A206E726BDC
:1002D0005F7369676E616C5F72656769737465727D
:1002E0000D0A00534C4950205258206572726F72AB
:1002F0003A20476574205369676E616C0D0A00539C
:100300004C4950205458204552524F523A202052C6
:10031000656C65617365206F662073656D617068DB
:100320006F7265206661696C65640D0A00534C4903
:1003300050205458204552524F523A202041636376
:1003400065737320746F2073656D6170686F72657B
:10035000206661696C65640D0A000D0A4E616E6F5E
:100360002D524B205461736B205374617469737404
:100370006963733A0D0A000D0A000D0A2020204F10
:10038000766572666C6F77204572726F7220537457
:10039000617475733A20000D0A2020204B65726E3F
:1003A000656C2056696F6C6174696F6E733A2000DA
:1003B0000D0A202020507265656D7074696F6E7330
:1003C0003A20000D0A202020537761702D696E734A
:1003D0003A20000D0A20202054696D65205B4D698C
:1003E0006E2C4C6173742C4D61785D3A20000D0ABF
:1003F000202020546F74616C204350553A20000D2A
:100400000A20202049646C65205461736B20446588
:10041000657020536C6565702054696D653A2000E5
:100420000D0A202020546F74616C20537973746519
:100430006D20557074696D653A2000205461736BAE
:100440002049443A2000554E4B4F574E0045787492
:1004500065726E616C2052657365740042726F77CD
:100460006E204F757420446574656374004661693D
:100470006C656420746F20637265617465205365D8
:100480006D6170686F7265004661696C65642074A7
:100490006F20637265617465205369676E616C00DB
:1004A0004B65726E656C2066756E6374696F6E2045
:1004B0006E6F7420696D706C656D656E7465640037
:1004C0004465766963652044726976657220457279
:1004D000726F72005761746368646F67205265734E
:1004E00074617274005357205761746368646F6756
:1004F00020526573746172740054696D6572204F87
:10050000766572666C6F7700556E68616E646C65B7
:100510006420496E746572727570742056656374D8
:100520006F72004C6F7720566F6C74616765004581
:1005300078747261205461736B2073746172746596
:10054000642C206973206E726B5F6366672E68206F
:100550006F6B3F0049646C65206F72204B65726E53
:10056000656C20537461636B204F766572666C6FA7
:100570007700556E657870656374656420526573A5
:1005800074617274004475706C6963617465642091
:100590005461736B204944005363686564756C65EE
:1005A00072204D69737365642057616B65757000C7
:1005B0005461736B20526573657276652056696F5E
:1005C0006C6174656400526573657276652045726E
:1005D000726F7220696E205363686564756C657212
:1005E00000496E76616C696420537461636B2050BE
:1005F0006F696E746572005461736B20537461632C
:100600006B204F766572666C6F7700537461636B15
:1006100020776173206E6F7420646566696E65640F
:10062000206173206C6172676520656E6F75676805
:1006300021005461736B20706572696F6420746F60
:100640006F206C617267652E20506572696F64203F
:100650006D757374206265206C65737320746861B6
:100660006E203631207365636F6E64732E00293AF5
:1006700020002A4E524B204552524F5228004E52D3
:100680004B205265626F6F742E2E2E0D0A000D0ADC
:10069000535441434B2044554D500D0A00454647A5
:1006A00065666700202B2D2E3031323334353637D6
:1006B0003839680011241FBECFEFD1E4DEBFCDBFB3
:1006C00013E0A0E0B2E0E0EAFCE600E00BBF02C00D
:1006D00007900D92A23AB107D9F71CE0A2EAB3E065
:1006E00001C01D92AE31B107E1F70E94F3300C94C6
:1006F0004E360C949D2D0E944A251F928F9388E7B9
:1007000092E09F938F930E9410340F900F900F9060
:100710000F900E940207811103C00E94A123F9CF0C
:1007200010E081E9E82E82E0F82ECEEDD8E01F92AD
:100730001F93FF92EF92DF93CF930E945A341F5F73
:10074000FE0101900020E9F73197EE5DF84041E0AD
:100750004E0F20E06EED78E087E398E00E94CD0434
:100760000E94A1230F900F900F900F900F900F9069
:10077000DECFCF93DF931F92CDB7DEB740E050E0DE
:100780006DE081E00E9445066091160C7091170C97
:1007900020E040E08091140C9091150C0E943B0BDE
:1007A00085E090E00E94B10482E090E00E94C804DD
:1007B0000E940207811108C00E94A123F9CF69811C
:1007C00089E498E00E947B0B20E0AE014F5F5F4F11
:1007D00069E478E08AEE99E00E9474058130A1F71F
:1007E000EECF8F929F92AF92BF92CF92DF92EF9215
:1007F000FF92CF9369EB73E084E198E00E944E3062
:1008000040E051E060E177E084E198E00E945230FE
:10081000E4E1F8E0C1E0C087C783C187C2871386DF
:1008200014861586168680E4882E88E7982E8DE734
:10083000A82EBB24B3948786908AA18AB28A138A91
:10084000148A158A168AC12C9DE2D92E91E3E92ECD
:10085000FF24F394C78AD08EE18EF28E138E148E0D
:10086000158E168E178E10A211A212A2CF010E9411
:100870000F236BE773E08BEB98E00E944E3040E073
:1008800051E06FEF75E08BEB98E00E945230EBEB9C
:10089000F8E0C087C783C187C28713861486158690
:1008A00016868786908AA18AB28A138A148A158A44
:1008B000168AC78AD08EE18EF28E138E148E158E14
:1008C000168E178E10A211A212A2CF010E940F2322
:1008D000CF91FF90EF90DF90CF90BF90AF909F901F
:1008E0008F900C94020B08950C94591181E0809321
:1008F000D803089581E08093D80308958091A503DB
:100900000895009731F09093A4038093A30381E0AE
:1009100008958FEF08959093DB038093DA0381E0CD
:100920008093D90308958FEF089580E090E00895B3
:10093000803220F40E94380D81E008958FEF0895F1
:100940008B3168F4682F8093CB0324E132E140E2DD
:1009500054E283EF95E00E947A0D81E008958FEFD5
:1009600008959093D3038093D203E1EBF3E0DC018D
:1009700020E432E44FE050E00E94683264837583E3
:1009800086839783108211821282138281E00895F8
:100990009093D1038093D0030895CF92DF92EF928A
:1009A000FF92CF93DF9300D0CDB7DEB76C017B0110
:1009B0008091D403813009F48DC0442309F48AC0A6
:1009C0006115710509F486C0C114D10409F482C00F
:1009D000211108C0809150092A8349830E94FA1F7F
:1009E00049812A8181E08093D40382E594E0909349
:1009F000050780930407F601818180935304808169
:100A00008093520485819681909355048093540479
:100A10008091D70380935704109256048185928564
:100A2000019692878187909359048093580483811B
:100A300080935B04828180935A043091D503F0E166
:100A40003F9FC0011124832B80935C045E2DF7012E
:100A50008CE090E03E2F351B341750F43191A0917B
:100A60000407B0910507A80FB91F3C930196F2CF78
:100A7000445F4093030721112BC081E090E0A0E088
:100A8000B0E0BC01CD010090500904C0660F771F93
:100A9000881F991F0A94D2F70E949D206B017C0148
:100AA000611571058105910521F48FE692E00E94A0
:100AB00059120090500904C0F694E794D794C79453
:100AC0000A94D2F7C0FC04C08CE492E00E94591250
:100AD00081E001C08FEF0F900F90DF91CF91FF90D9
:100AE000EF90DF90CF9008958F929F92AF92BF9238
:100AF000CF92DF92EF92FF920F931F93CF93DF93EA
:100B00001F92CDB7DEB74C018B015A018091CD0306
:100B100021111CC08130F1F480914F0929830E947A
:100B2000FA1F81E090E0A0E0B0E0BC01CD010090B0
:100B30004F0904C0660F771F881F991F0A94D2F7C8
:100B40000E949D206B017C01298104C0813011F439
:100B50008FEF7CC08091F6058C30D4F38C50D5019A
:100B60008C9380E0F5019081891778F4482F50E04C
:100B7000E091F805F091F905E40FF51F9485F8016F
:100B8000E40FF51F90838F5FEDCF8091FB059927D0
:100B900087FD9095D4011E969C938E931D9780910E
:100BA000FC051F968C931F978091FD0550968C93A2
:100BB00050978091FE0551968C935197E091F805DE
:100BC000F091F905858190E0982F88273481832B57
:100BD00018969C938E931797838190E0982F88277F
:100BE0003281832B16969C938E931597818190E08A
:100BF000982F88273081832B11969C938E93878121
:100C000090E0982F88273681832B1A969C938E9399
:100C10001997818590E0982F88273085832B13962C
:100C20009C938E93129782851C968C9321110BC0F6
:100C300000904F0904C0F694E794D794C7940A949F
:100C4000D2F7C0FE85CF81E08093CD030F90DF9176
:100C5000CF911F910F91FF90EF90DF90CF90BF90B9
:100C6000AF909F908F900895009751F09093F90561
:100C70008093F8056093F70581E08093CD03089594
:100C80008FEF08958093D50308950F931F93CF930B
:100C9000DF93162FD42F052F9FEF9093A803109268
:100CA000A7031092A6038093D6031092D90383E082
:100CB0008093D5031092A50380E094E09093D10334
:100CC0008093D00380E896E9A8E9B0E08093B5036B
:100CD0009093B603A093B703B093B8031092B103F7
:100CE0001092B2031092B3031092B4030E94EA1E52
:100CF000C82F80934F098F3F19F484E292E009C016
:100D00000E94EA1EC82F809350098F3F69F48CEF30
:100D100091E00E945912E091B10BF091B20B608505
:100D20008EE00E94321D2DC00E94EA1EC82F8093C3
:100D3000E9098F3F19F480ED91E0EBCF82EE93E06B
:100D40009093F9058093F80580E78093F705C1E05B
:100D5000C093CD031092D4032D2F302F4FEF5FEFB0
:100D6000612F83EF95E00E947A0D1093CB03D0930F
:100D7000D70383ED9FEF0E946B10C093CC03C09309
:100D8000CA038C2FDF91CF911F910F91089580910D
:100D90004F090E94FA1F80914F09089580915009D0
:100DA0000E94FA1F8091500908952091CD032130AF
:100DB00039F4FC011082FB01108280E090E008957C
:100DC0002091F605FC0120838091FB05FB018083C7
:100DD0008091F8059091F905089581E08093CD0305
:100DE00008951092CA030C94F90C81E08093CA0311
:100DF0000E941F0D8091E9090C942C2081E08093C2
:100E0000E50508958091CC0308958091CD0381304C
:100E100099F00E94F00D0E94EA0D8091A2038F5F6D
:100E20008093A203833030F01092CD0380914F095C
:100E30000E942C208FEF08951092A2030E94F40EBE
:100E4000813091F56091F6056D306CF18091D80399
:100E5000811107C01092CD0380914F090E942C2070
:100E600022C08091F8059091F9050E94CA118091E5
:100E7000F8059091F9052091F605820F911D27FD47
:100E80009A95FC01319720812A3CA1F63197208167
:100E90002E3F81F6319720812E3B61F6319780817C
:100EA0008F3EC1F2C7CF81E00895CF93DF93809149
:100EB000CD03813011F08FEF40C0D4E60E94F40ED4
:100EC000C82F813089F56091F6056D30ACF18091C5
:100ED000D803811107C01092CD0380914F090E9461
:100EE0002C202AC08091F8059091F9050E94CA1122
:100EF0008091F8059091F9052091F605820F911DDA
:100F000027FD9A95FC01319720812A3CA1F6319763
:100F100020812E3F81F6319720812E3B61F631975B
:100F200080818F3EC1F2C7CF84E690E00E944C2CB6
:100F3000D15021F68C2F01C081E0DF91CF9108952F
:100F40000F931F93CF939091D803992309F443C033
:100F50002091030784E0820F382F3F7031F087FF24
:100F600002C083E1820F807F805F809303078091BE
:100F70000307E0910407F0910507E80FF11D87FDD5
:100F8000FA9531978AEC808380910307E0910407FA
:100F9000F0910507E80FF11D87FDFA9532978EEF66
:100FA000808380910307E0910407F0910507E80F23
:100FB000F11D87FDFA9533978EEB808380910307AF
:100FC000E0910407F0910507E80FF11D87FDFA9500
:100FD00034978FEE808360910307062F112707FD5A
:100FE0001095E0910407F0910507C0E040E0242F40
:100FF00030E0201731073CF42E0F3F1FD9018C91B0
:10100000C80F4F5FF4CF992319F0CF010E947B11D5
:10101000E0910307FF27E7FDF095E657FE4FC083F9
:1010200081E097E00E94F60D1092D4038091500960
:101030000E942C2081E0CF911F910F910895CF93B2
:10104000DF9300D0CDB7DEB70E94A1238091CC03FF
:101050008823D1F38091E9090E94FA1F8A838F3F88
:1010600021F484EB91E00E945912612C712C22240E
:101070002A94322C8091D603813009F0E1C080930C
:10108000A5036114710409F088C08091D403811113
:1010900016C022E534E030930507209304073FEFA4
:1010A0003093540430935504109256041092570410
:1010B00010925804109259048CE080930307E09139
:1010C0000407F09105079091D0038091D103908798
:1010D00081871082E0910407F09105071182E09169
:1010E0000407F09105072091D50330E1239FC0014B
:1010F0001124822B82878091D203838789EA93E02F
:101100000E94502530920207209201071092070793
:10111000109206070E94A0070E94EA0D8091E50543
:10112000813009F043C0412C512CC20165E070E0D0
:101130000E948332892B21F483E090E00E947C1589
:10114000E0910407F09105078FEF8083E091040799
:10115000F09105078183E0910407F091050714825F
:10116000E0910407F091050715829CE09093030736
:101170000E94A0078AE090E00E944824EFEF4E1AF8
:101180005E0AF8EE4F16F3E05F0679F683E090E032
:101190000E9493151092E50509C00E9405072A8157
:1011A000213021F47092CF036092CE033FEF631A97
:1011B000730A8091D0039091D1038615970528F486
:1011C0008AE090E00E944824ECC18090B1039090A6
:1011D000B203A090B303B090B403C090B503D09015
:1011E000B603E090B703F090B8030091A903109103
:1011F000AA032091AB033091AC034091AD03509111
:10120000AE036091AF037091B00389EA93E00E944E
:101210005A2689EA93E00E9439262091A903309149
:10122000AA034091AB035091AC036091AD03709160
:10123000AE038091AF039091B0030E94F4241ACFC3
:10124000672809F057C00E941F0D0E94EA0D612C0B
:10125000712C0E9455078A8389EA93E00E945025E9
:101260008A81813009F5E091F805F091F9058181D5
:1012700090E0982F88272081822B258130E0322F23
:1012800022274481242B232B21F48F3F2FEF920719
:1012900021F0892B09F488C102C0612C712C31E046
:1012A0003093CD038FEF8A8394E669167104C0F002
:1012B0001092A503E091A303F091A403309729F0C5
:1012C000C3018456910909958983E981E13019F4B4
:1012D000612C712C05C0F0E36F16F5E77F0618F45A
:1012E0002FEF621A720A31E03093CD038A81813088
:1012F00009F0AFCFE091F805F091F9059285892FBB
:1013000082958F709F70891B813118F48093C90377
:1013100002C01092C9031092C1031092C20310922E
:10132000C3031092C4031092C5031092C603109217
:10133000C7031092C8031092B9031092BA03109217
:10134000BB031092BC03A091F605BB27A7FDB09587
:1013500020E03DE70E946132DC01CB01935BA74FA7
:10136000BF4F8093BD039093BE03A093BF03B09380
:10137000C003612C712C8091C90390E06816790636
:1013800040F58090B9039090BA03A090BB03B09051
:10139000BC03C090BD03D090BE03E090BF03F090AB
:1013A000C0030091C1031091C2032091C303309187
:1013B000C4034091C5035091C6036091C703709167
:1013C000C80381EC93E00E945A269FEF691A790ABC
:1013D000D2CFE1E0E093A5030E94F00D0E94F90C4A
:1013E0008091DA039091DB036090D0037090D10379
:1013F0008615970508F43C01412C512C46145704DE
:1014000041F18090B1039090B203A090B303B090EB
:10141000B403C090B503D090B603E090B703F0904A
:10142000B8030091A9031091AA032091AB03309156
:10143000AC034091AD035091AE036091AF03709146
:10144000B00389EA93E00E945A26FFEF4F1A5F0A21
:10145000D5CF8090C1039090C203A090C303B090F9
:10146000C403C090C503D090C603E090C703F090BA
:10147000C8030091A9031091AA032091AB033091F6
:10148000AC034091AD035091AE036091AF037091F6
:10149000B00389EA93E00E94AD2589EA93E00E94B7
:1014A00039262091A9033091AA034091AB035091B2
:1014B000AC036091AD037091AE038091AF03909146
:1014C000B0030E94F4248091D4038130B1F4E09100
:1014D0000407F09105076082E0910407F091050789
:1014E0007182309202072092010710920707109232
:1014F00006070E941F0D0E94A0070E94F00D0E9487
:10150000F90C412C512C8091D0039091D103861974
:1015100097094816590640F58090B1039090B203A0
:10152000A090B303B090B403C090B503D090B603BD
:10153000E090B703F090B8030091A9031091AA03BB
:101540002091AB033091AC034091AD035091AE03B9
:101550006091AF037091B00389EA93E00E945A262C
:101560002FEF421A520ACFCF89EA93E00E94392620
:101570002091A9033091AA034091AB035091AC0391
:101580006091AD037091AE038091AF039091B00371
:101590000E94F4248091CA03811103C00E94A123F8
:1015A000F9CF612C712C66CD828582958F708093E6
:1015B000D503818590E0982F88272085822B9093F2
:1015C000D1038093D003A3858A2F90E09093D30317
:1015D0008093D203DC0120E432E44FE050E00E942B
:1015E00068326093B5037093B6038093B70390930A
:1015F000B8031092B1031092B2031092B303109289
:10160000B40352CE6FE178E082EC95E00E944E3058
:1016100040E051E062EC74E082EC95E00E945230D0
:10162000E2ECF5E084E1808781E08783818782872F
:1016300081E090E0A0E0B0E083879487A587B6873B
:101640001786108A118A128A87E090E0A0E0B0E045
:10165000838B948BA58BB68B178A108E118E128E6E
:10166000138E148E158E168E178E10A211A212A232
:10167000CF010C940F239093830A8093820A709376
:101680007E0A60937D0A4093810A20937C0A6FEF63
:1016900081E00E94D7209093800A80937F0A019670
:1016A00031F40E944A25682F8FE00E94321D81E0AC
:1016B000809310020895CF93C82F80917C0A8823CD
:1016C00051F028EE33E0482F429FC001439F900D18
:1016D00011240E944C2C60917D0A70917E0A8C2FFF
:1016E00090E0CF910C94D8338091820A9091830A34
:1016F0000E949A330895EF92FF920F931F93CF9316
:10170000DF93C82FE92ED62F613810F083E050C048
:1017100080917F0A9091800A0E9421218F3F31F4AD
:101720008DE293E00E94591281E042C080EC0E9459
:101730005B0B81EC0E945B0B8D2F0E945B0BFC2EE0
:101740000C2F1E2DC0E0802F8F198D17E8F4F801A3
:101750008081803C41F48BED0E945B0B8CED0E94FC
:101760005B0BC0540EC08B3D39F40E945B0B8DEDBA
:101770000E945B0BC55205C00E945B0BF801808183
:10178000C80F0F5F1F4FDFCF8C2F8F770E945B0B2F
:1017900080EC0E945B0B80917F0A9091800A0E94EE
:1017A0007F218F3F49F48FEF92E00E94591282E02F
:1017B0000E94BB1B8FEF01C081E0DF91CF911F9191
:1017C0000F91FF90EF9008958091100208958F92ED
:1017D0009F92AF92BF92CF92DF92EF92FF920F93C0
:1017E0001F93CF93DF937C01D62E0E9448128093E3
:1017F000EA058F3F21F483EE92E00E945912809116
:10180000EA050E94FA1F8F3F21F48EEB92E00E94BE
:10181000591280E00E944A12811119C081E090E0C3
:10182000A0E0B0E0BC01CD010090EA0504C0660F65
:10183000771F881F991F0A94D2F70E949D206093FA
:10184000E6057093E7058093E8059093E905812C00
:10185000912C5401839480E00E944A12882379F0ED
:101860000E94740B813CB9F70E94740BC82E10E0E3
:10187000C0E001EC812C912C540183942BC00E9478
:101880004A128111EDCFC501B4010090EA0504C0F0
:10189000660F771F881F991F0A94D2F70E949D2018
:1018A0006093E6057093E7058093E8059093E9055A
:1018B000D7CF0E94740BD82F803C39F18B3D09F4AF
:1018C00045C0CD1508F46CC00D2F80E00E944A126F
:1018D0008111EFCF80E00E944A128111F6CFC5013D
:1018E000B4010090EA0504C0660F771F881F991F96
:1018F0000A94D2F70E949D206093E6057093E70555
:101900008093E8059093E905E0CFD12FCC2329F00F
:10191000DF770D1302C08C2F4DC08CEA92E00E943D
:1019200059121F92DF931F920F931F92CF9387EA52
:1019300092E09F938F930E9410348DB79EB70896C4
:101940000FB6F8949EBF0FBE8DBF28C080E00E94E6
:101950004A12811115C0C501B4010090EA0504C006
:10196000660F771F881F991F0A94D2F70E949D2047
:101970006093E6057093E7058093E8059093E90589
:101980000E94740B8C3D41F08D3D09F49ACF83E9A0
:1019900092E00E94591202C0D0EC93CF8FEF0AC0A0
:1019A000CC1508F091CFF701EC0FF11DD0831D0F7E
:1019B000CF5F8ACFDF91CF911F910F91FF90EF9072
:1019C000DF90CF90BF90AF909F908F9008959091AF
:1019D00041019F719F31D9F3809342010895809313
:1019E000EB05089581E080938A0A089510928A0A8F
:1019F0000895809141018F718F31D9F38091410118
:101A00008F71E1F08F30D1F0809141018F7188307A
:101A100031F4809139018260809339010BC088E0F4
:101A20000E94E70C809141018F718830D9F7F1CF86
:101A30008F3021F0809141018F71D1F7089580910D
:101A400041018F718F31D9F3809141018F7111F074
:101A50008F3051F4809139018D7F809339018091CD
:101A600041018F718830D9F7089589E00C94E70C13
:101A7000E5E4F1E09081907F908390818F70982BC6
:101A800090830895E7E5F1E080818D7F808308955C
:101A9000E7E5F1E08081826080830895EEE6F1E081
:101AA00080818F7E80830895EEE6F1E08081806101
:101AB0008083089580936001909361019093940ACC
:101AC0008093930A089590938E0A80938D0AE8E498
:101AD000F1E08081807E80838081682B608308951F
:101AE0009093EF058093EE0508959093ED05809314
:101AF000EC0508950F931F93CF93DF93FC01D90159
:101B000080E28093440180EC8093450160626093A1
:101B1000480185EC8093490187EA80934B0180E876
:101B200080934C0120936001B09361014093620166
:101B300050936301C6E4D1E00881888198812881AF
:101B4000302F32953695377060E4369F800111242E
:101B5000229526952370622F602B8295869583703F
:101B600070E1879F90011124262B92959695937092
:101B700084E0989FB0011124622B60936D018881ED
:101B80009881929596959370392F3064982F9295FD
:101B90009670932B90936E0110926C018FEF80934F
:101BA0004E01CDE8DAE0F983E8831A821B825D8377
:101BB0004C83BF83AE83188681E08093A70A10927E
:101BC000BE0A1092960A10928A0ADF91CF911F9155
:101BD0000F91089586E10C94E70C86E10C94E70CD4
:101BE00088E00E94E70C1092BE0A08950F931F939D
:101BF000CF93DF93FC018091A70A811102C08FEF80
:101C0000ABC0268180918F0A8F5F80938F0A90915D
:101C10008101907E916020FB95F99F739064909371
:101C2000810188E88093820180918A0A882361F08B
:101C30008FEF809383018AEA9AEA909389018093D7
:101C400088018FEF9FEF10C080918F0A80938301EE
:101C5000209161018091600190E0922B9093890125
:101C60008093880180819181909387018093860180
:101C7000209163018091620190E0922B9093850105
:101C8000809384018F014281552747FD50956381E0
:101C900074818AE891E00E943833F8018281855F7F
:101CA0008093800180914101D82FDF719FEF9D0FBC
:101CB0009230C0F3D131B1F3D231A1F3DF3191F3DE
:101CC00098EF9D0F923020F08F70863009F097CFFB
:101CD00086E10E94E70CF801858181110BC089E043
:101CE0000E94E70CF8018681882391F089E10E9427
:101CF000E70C0EC080914801806880934801809174
:101D0000410187FFFCCF8091410186FF78CFE7CF6B
:101D10001092960A82E00E94E70C80E090E0209109
:101D2000960A211105C00196883EFDEF9F07B9F77D
:101D3000F8012681222331F0209142012295269537
:101D4000277029F4883E9D4F11F0C1E001C0CFEF0C
:101D50008D2F0E94E70C8C2FDF91CF911F910F9157
:101D600008951092960A82E00E94E70C88EE9DEF9B
:101D70002091960A211104C00197D1F78FEF0895A1
:101D800081E00895CF93DF938091A70A882341F1E2
:101D900080914101C82FCF719FEF9C0F9230C0F30B
:101DA000C131B1F3C231A1F3CF3191F3C83019F091
:101DB0008F708630A9F486E10E94E70C809148017B
:101DC0008068809348018091410187FFFCCFD091CA
:101DD00041018C2F0E94E70CD6FB882780F901C0B7
:101DE0008FEFDF91CF9108958091A70A882309F49E
:101DF000E3C08091BE0A882309F4DCC080917B0196
:101E0000E0918D0AF0918E0A90E0029724813327A9
:101E100027FD3095281739070CF4CEC0E0918D0AC4
:101E2000F0918E0A809182018083E0918D0AF09179
:101E30008E0A809187019091880192838183E0913D
:101E40008D0AF0918E0A80917B018B508383A09143
:101E50008D0AB0918E0AE0918D0AF0918E0A139648
:101E60009C91848189173CF0E0918D0AF0918E0A53
:101E7000838187FF0DC01092BE0A80914C018F773D
:101E800080934C0180914C01806880934C0194C0F8
:101E9000A0918D0AB0918E0AE0918D0AF0918E0A80
:101EA00013964C91552747FD509569E871E085815F
:101EB00096810E9438338091EB05882309F43EC057
:101EC000E0918D0AF0918E0A83818031B9F5E0911D
:101ED0008D0AF0918E0A6581768144E050E081E1BF
:101EE00092E00E944133892B49F5E0918D0AF091EF
:101EF0008E0A6581768140E150E081E192E00E94A6
:101F00004133892BD9F49DE088E10FB6F894A89568
:101F1000809360000FBE9093600080E090E00E948C
:101F2000AA1581E090E00E94AA1582E090E00E944C
:101F3000AA1583E090E00E94AA15FFCFE0918D0AD8
:101F4000F0918E0A8091800185FB882780F9878334
:101F5000E0918D0AF0918E0A809147018087E0918F
:101F60008D0AF0918E0A8091460186958695869518
:101F70008187E0918D0AF0918E0A809147018287D6
:101F8000A0918D0AB0918E0AE0917B01F0E0E058BB
:101F9000FE4F80811B968C931092BE0A80914C015B
:101FA0008F7780934C0180914C01806880934C0125
:101FB00081E0089580E008958FEF08951F920F92B9
:101FC0000FB60F9211248F9380E880934F018F9169
:101FD0000F900FBE0F901F9018951F920F920FB683
:101FE0000F9211248F9381E08093960A80E480936E
:101FF0004F018F910F900FBE0F901F9018951F9259
:102000000F920FB60F9211248F9380E280934F01AD
:102010008F910F900FBE0F901F9018951F920F92E7
:102020000FB60F9211248F9380E180934F018F910F
:102030000F900FBE0F901F9018951F920F920FB622
:102040000F9211240BB60F922F933F934F935F93F0
:102050006F937F938F939F93AF93BF93EF93FF9370
:1020600084E080934F01E091EE05F091EF05309709
:1020700009F00995FF91EF91BF91AF919F918F91D9
:102080007F916F915F914F913F912F910F900BBE78
:102090000F900FBE0F901F9018951F920F920FB6C2
:1020A0000F9211248F9382E080934F018F910F90B4
:1020B0000FBE0F901F9018951F920F920FB60F92A0
:1020C00011248F9381E080934F018F910F900FBE69
:1020D0000F901F901895E9E4F1E09081907F908334
:1020E00090818F70982B908308958FEF08950895B5
:1020F000089508958FEF08958091880A9091890A34
:102100000895089581E0089581E0089581E008959B
:1021100008950895089508950895089508950895D7
:1021200098988DB1806E8DB98EB1806A8EB9089500
:1021300098988DB1806E8DB98EB180668EB90895F4
:10214000CF92DF92EF92FF920F931F93CF93DF9383
:10215000CDB7DEB727970FB6F894DEBF0FBECDBF61
:102160000E94C716E0918D0AF0918E0AC080D3803C
:10217000E580F68000850E94F40E18161CF082EBB4
:1021800092E006C0F7011081111107C081ED92E0C5
:102190000E942A340E94C91631C0153021F48AE009
:1021A00090E00E942434C70101969F938F93802F63
:1021B000992787FD90959F930F931F921F931F92CE
:1021C000CF9283EF92E09F938F930E941034FD8211
:1021D000EC821150F7011083DB821E821F828FEF89
:1021E0009FEF9A8389830E94C916CE0101960E94AF
:1021F000F60D0FB6F894DEBF0FBECDBF27960FB613
:10220000F894DEBF0FBECDBFDF91CF911F910F912C
:10221000FF90EF90DF90CF9008951F920F920FB62E
:102220000F9211240BB60F922F933F934F935F930E
:102230006F937F938F939F93AF93BF93EF93FF938E
:1022400080E090917B01891710F48F5FFACF809125
:10225000460187FF04C081E08093BE0A04C08CE180
:1022600093E00E942A3488E080934F0180914601D8
:1022700087FF05C080918A0A81110E94A010E09119
:10228000EC05F091ED05309709F00995FF91EF917C
:10229000BF91AF919F918F917F916F915F914F917E
:1022A0003F912F910F900BBE0F900FBE0F901F907C
:1022B0001895A7E9BAE0FC01409620812D93219161
:1022C00020933F01E817F907C1F780E110923E0122
:1022D0008150E1F780E880933C0180913D0180FFCF
:1022E000FCCFE8EAFAE080E18E0F90913F019193F4
:1022F0008E13FBCF0895CF93DF93DC01662309F49F
:1023000045C0862F8F7009F041C0E7E9FAE090E1FF
:102310009E0F219120933F019E13FBCF90E070E030
:10232000E0E240E1949F90011124261737077CF5E5
:10233000911103C010923C0102C0E0933C0140E0C7
:1023400050E02A0F3B1FE901C40FD51FF881F0931D
:102350003E014F5F5F4F40315105A9F740913C016D
:10236000406840933C0140913D0140FFFCCF40E07C
:1023700050E0F0913E01E901C40FD51FF8834F5F93
:102380005F4F40315105A9F79F5FCBCF81E0DF91CF
:10239000CF9108950F931F93CF93DF93DC016130AA
:1023A00009F458C0862F8F7009F054C0E8EAFAE0AB
:1023B00090E19E0F219120933F019E13FBCF6295E8
:1023C0006F70615078E06F3F09F445C070933C0135
:1023D000462F552747FD509520E030E0ED0190E174
:1023E0006902C00DD11D1124FE01E20FF31F90817F
:1023F00090933E012F5F3F4F20313105A9F7909117
:102400003C01906890933C0190913D0190FFFCCF7E
:102410004150510994E0440F551F9A95E1F720E08F
:1024200030E090913E018E01020F131FF80190835E
:10243000662349F0F901E40FF51FEA0FFB1FE08165
:102440009E27F80190832F5F3F4F2031310549F7D8
:102450006150B9CF81E0DF91CF911F910F91089525
:102460008091C00087FFFCCF8091C0008F77809360
:10247000C0008091C60008959091C00095FFFCCFE8
:102480009091C0009F7D9093C0008093C6000895F6
:102490008FEF0895813019F48091C80004C0811134
:1024A00006C08091C000881F8827881F089580E09B
:1024B0000895CF93DF93FC012491EC012196222310
:1024C00051F06091160C7091170C822F90E00E94D1
:1024D000D833CE01F0CFDF91CF91089586E084B953
:1024E00085B988EF8AB980EF8BB982E08DB90895FC
:1024F0000C946E128F3F09F46CC0E82FE7704E2FDA
:1025000050E04730510508F064C0FA01E057FF4F32
:102510008695869586950C94183342B121E030E07B
:10252000B90102C0660F771F8A95E2F7CB01842BB1
:1025300082B94DC045B121E030E0B90102C0660F5B
:10254000771F8A95E2F7CB01842B85B940C048B14B
:1025500021E030E0B90102C0660F771F8A95E2F7EB
:10256000CB01842B88B933C04BB121E030E0B901F5
:1025700002C0660F771F8A95E2F7CB01842B8BB9D7
:1025800026C04EB121E030E0B90102C0660F771FCE
:102590008A95E2F7CB01842B8EB919C041B321E0B3
:1025A00030E0B90102C0660F771F8A95E2F7CB01D0
:1025B000842B81BB0CC044B321E030E0B90102C0E0
:1025C000660F771F8A95E2F7CB01842B84BB81E0ED
:1025D00008958FEF08958F3F09F473C0E82FE770D7
:1025E0004E2F50E04730510508F06BC0FA01E95614
:1025F000FF4F8695869586950C94183342B121E05D
:1026000030E0B90102C0660F771F8A95E2F7CB016F
:102610008095842382B953C045B121E030E0B901EF
:1026200002C0660F771F8A95E2F7CB01809584235D
:1026300085B945C048B121E030E0B90102C0660F5C
:10264000771F8A95E2F7CB018095842388B937C03C
:102650004BB121E030E0B90102C0660F771F8A95C7
:10266000E2F7CB01809584238BB929C04EB121E0DC
:1026700030E0B90102C0660F771F8A95E2F7CB01FF
:10268000809584238EB91BC041B321E030E0B901AD
:1026900002C0660F771F8A95E2F7CB0180958423ED
:1026A00081BB0DC044B321E030E0B90102C0660F28
:1026B000771F8A95E2F7CB018095842384BB81E064
:1026C00008958FEF08958F3F31F1E82FE7704E2F77
:1026D00050E047305105F8F4FA01E256FF4F282F39
:1026E0002695269526950C94183390B10BC093B17E
:1026F00009C096B107C099B105C09CB103C09FB194
:1027000001C092B3892F90E002C0959587952A95D4
:10271000E2F7817008958FEF08958F3F09F406C1A5
:10272000E82FE7704E2F50E04730510508F0FEC00B
:10273000FA01EB55FF4F8695869586950C941833D4
:1027400020B130E0082E02C0359527950A94E2F7B3
:1027500042B120FD0BC021E030E0B90102C0660F9C
:10276000771F8A95E2F7CB01842B0BC021E030E084
:10277000B90102C0660F771F8A95E2F7CB018095F9
:10278000842382B916C023B130E0082E02C03595EB
:1027900027950A94E2F745B120FD0DC021E030E015
:1027A000B90102C0660F771F8A95E2F7CB01842B2F
:1027B00085B981E0089521E030E0B90102C0660FDB
:1027C000771F8A95E2F7CB0180958423F1CF26B15C
:1027D00030E0082E02C0359527950A94E2F748B1FB
:1027E00020FD0BC021E030E0B90102C0660F771F69
:1027F0008A95E2F7CB01842B0BC021E030E0B901D0
:1028000002C0660F771F8A95E2F7CB01809584237B
:1028100088B9CFCF29B130E0082E02C03595279571
:102820000A94E2F74BB120FD0BC021E030E0B90182
:1028300002C0660F771F8A95E2F7CB01842B0BC08D
:1028400021E030E0B90102C0660F771F8A95E2F7F8
:10285000CB01809584238BB9ACCF2CB130E0082E0E
:1028600002C0359527950A94E2F74EB120FD0BC0C2
:1028700021E030E0B90102C0660F771F8A95E2F7C8
:10288000CB01842B0BC021E030E0B90102C0660F00
:10289000771F8A95E2F7CB01809584238EB989CF83
:1028A0002FB130E0082E02C0359527950A94E2F743
:1028B00041B320FD0BC021E030E0B90102C0660F3A
:1028C000771F8A95E2F7CB01842B0BC021E030E023
:1028D000B90102C0660F771F8A95E2F7CB01809598
:1028E000842381BB66CF22B330E0082E02C0359529
:1028F00027950A94E2F744B320FD0BC021E030E0B5
:10290000B90102C0660F771F8A95E2F7CB01842BCD
:102910000BC021E030E0B90102C0660F771F8A9535
:10292000E2F7CB018095842384BB43CF8FEF0895DA
:102930008F3F09F4D5C0E82FE7704E2F50E06111AA
:1029400067C04730510508F0CBC0FA01E455FF4F8E
:102950008695869586950C94183341B121E030E038
:10296000B90102C0660F771F8A95E2F7CB01809507
:10297000842365C044B121E030E0B90102C0660F94
:10298000771F8A95E2F7CB018095842365C047B114
:1029900021E030E0B90102C0660F771F8A95E2F7A7
:1029A000CB018095842365C04AB121E030E0B901B4
:1029B00002C0660F771F8A95E2F7CB0180958423CA
:1029C00065C04DB121E030E0B90102C0660F771F4C
:1029D0008A95E2F7CB018095842365C040B321E05E
:1029E00030E0B90102C0660F771F8A95E2F7CB018C
:1029F0008095842365C043B321E030E0B90102C073
:102A0000660F771F8A95E2F7CB018095842365C016
:102A10004730510508F064C0FA01ED54FF4F869528
:102A2000869586950C94183341B121E030E0B901C8
:102A300002C0660F771F8A95E2F7CB01842B81B91C
:102A40004DC044B121E030E0B90102C0660F771FEC
:102A50008A95E2F7CB01842B84B940C047B121E0CD
:102A600030E0B90102C0660F771F8A95E2F7CB010B
:102A7000842B87B933C04AB121E030E0B90102C0EC
:102A8000660F771F8A95E2F7CB01842B8AB926C09F
:102A90004DB121E030E0B90102C0660F771F8A9581
:102AA000E2F7CB01842B8DB919C040B321E030E0AF
:102AB000B90102C0660F771F8A95E2F7CB01842B1C
:102AC00080BB0CC043B321E030E0B90102C0660F07
:102AD000771F8A95E2F7CB01842B83BB81E00895B1
:102AE0008FEF0895811106C080B18695817091E0C5
:102AF000892708958FEF0895009711F483E20DC0A0
:102B00008130910511F48BE208C08230910511F4F7
:102B100083E303C0039729F48BE30E948D1381E0C4
:102B200008958FEF0895009711F483E20DC081306E
:102B3000910511F48BE208C08230910511F483E312
:102B400003C0039729F48BE30E947A1281E0089571
:102B50008FEF0895009711F483E20DC08130910545
:102B600011F48BE208C08230910511F483E303C0B5
:102B7000039729F48BE30E94EB1281E008958FEF15
:102B80000895882319F085B78F7E02C085B78061CC
:102B900085BF81E008959091C80095FFFCCF809398
:102BA000CE0008959093C5008093C40086E0809382
:102BB000C200E1ECF0E080818B7F8083A0ECB0E08C
:102BC0008C9182608C93808188618083089590933A
:102BD000CD008093CC0086E08093CA00E9ECF0E061
:102BE00080818B7F8083A8ECB0E08C9182608C9395
:102BF0008081886180830895CF93DF930E94D215EE
:102C000060E372E18CE392E10E944F33C4E1DCE0C7
:102C10009B838A8360E372E18CE392E10E944F33ED
:102C200099838883DF91CF9108958091C80087FFB1
:102C3000FCCF8091C8008F778093C8008091CE0030
:102C4000089500000000000000000197D1F70895EA
:102C50000C94E8340E94F0340895EF92FF920F93A1
:102C60001F93CF93DF937C0180E090E00E94E834D3
:102C7000182FF701838381E090E00E94E834082F49
:102C8000F701828382E090E00E94E834D82FF701B8
:102C9000818383E090E00E94E834C82FF7018083AD
:102CA00084E090E00E94E834100FD10FCD0F8C1714
:102CB00011F08FEF01C081E0DF91CF911F910F9153
:102CC000FF90EF900895CF93DF93EC0185E090E0C3
:102CD0000E94E834888381E0DF91CF910895FC0160
:102CE000608186E090E00E94F03481E00895CF9307
:102CF000DF93EC0186E090E00E94E834888381E075
:102D0000DF91CF9108950F931F93CF93DF938C01A1
:102D1000C0E0D0E0CE0108960E94E834F80181932B
:102D20008F012196C031D105A9F781E0DF91CF91C4
:102D30001F910F9108950F931F93CF93DF938C01F1
:102D4000C0E0D0E0F80161918F01CE0108960E94A9
:102D5000F0342196C031D105A9F781E0DF91CF9100
:102D60001F910F910895CF93DF93EC0187E090E0DE
:102D70000E94E834888381E0DF91CF910895FC01BF
:102D8000608187E090E00E94F03481E00895F8943B
:102D90000895789408950E94C716FFCFCF93DF93CC
:102DA000CDB7DEB7A3970FB6F894DEBF0FBECDBF89
:102DB0000E94EA1E8093A10B8F3F21F460E08EE019
:102DC0000E94321D0E94162E80FF04C060E086E043
:102DD0000E94321D0E942D308F3F31F40E9410302E
:102DE00060E080E10E94321D0E941E301092A40B10
:102DF0001092B20B1092B10B1092A30B1092A20B77
:102E00001092B30B0E9477181092B00B8FEF809343
:102E10009A0B80939C0B80939B0B80939D0B8093CC
:102E20009F0B80939E0B80E090E033E62FEFFC0138
:102E3000EF53F54F328720878B96873D9105B9F781
:102E4000EDEEFBE0CF01059694838383F783E68361
:102E5000FC018CE0E630F807A9F71092EF0B109216
:102E6000EE0B10920A0C1092090C1092A70B109204
:102E7000A60B8DEE9BE09093C00A8093BF0A6AED8B
:102E800077E2CE0101960E944E3040E850E06CEFB0
:102E900079E0CE0101960E94523085E58093FC09CD
:102EA00019861C861D861E861F86188A198A1A8A0C
:102EB0001B8A1C8A1D8A1E8A1F8A188E198E1A8EDA
:102EC0001B8E1C8E1D8E1E8E1F8E18A219A21AA27A
:102ED0001BA281E0888792E09A878B87CE010196BA
:102EE0000E940F23A3960FB6F894DEBF0FBECDBF8E
:102EF000DF91CF91089509EC1AE0C0E0F801D0808D
:102F0000FFEFDF1222C0CF5F055D1F4FC530B1F765
:102F10000E94FE212BE28202C0011124FC01EF532A
:102F2000F54F82858093B30BF093B20BE093B10B16
:102F3000F093A30BE093A20B8093A40B0E94C430E8
:102F40000E94AE300E94C83016C089ECE82E8AE09C
:102F5000F82ED0E0CD1741F0F7018081D81204C0DF
:102F60006D2D85E00E94321DDF5FFBE2EF0EF11C4C
:102F7000D53081F7C8CFFFCFCF92DF92EF92FF928B
:102F80000F931F93CF93DF93EC018B017A01898517
:102F9000823021F08091A00B888301C0188280913B
:102FA000A00B853020F060E087E00E94321D89850B
:102FB000823029F08091A00B8F5F8093A00B8091CD
:102FC000A00B811103C081E08093A00B38812BE21C
:102FD0003203F0011124EF53F54F118300838885EC
:102FE000828738813203F0011124EF53F54F83E0DB
:102FF000818738813203F0011124EF53F54F308778
:1030000008810203800111240F53154FF801158226
:10301000CE010B960E946C27F80161A372A383A3D3
:1030200094A38B859C85AD85BE8588339948A14442
:10303000B10520F0688186E10E94321DC880DD2440
:10304000C7FCD094CE014B960E946C271BE21C9DBE
:10305000F0011D9DF00D1124EF53F54F658B768B1C
:10306000878B908F28812103C00111249C012F534D
:10307000354F6901F901458956896789708D81A1AC
:1030800092A1A3A1B4A1840F951FA61FB71F818F82
:10309000928FA38FB48FCE0143960E946C27F601C6
:1030A00065A376A387A390A728812103F0011124AB
:1030B000EF53F54F85A196A1A7A1B0A5858F968F57
:1030C000A78FB0A381E090E092A781A7F382E2826C
:1030D0008487DF91CF911F910F91FF90EF90DF9048
:1030E000CF9008950C94FE2785E690E00895109205
:1030F00008071092090710920A0710920B07109206
:103100000C0710920D0710920E0710920F07E2E5C0
:10311000F9E080E090E01082118212821382108622
:1031200011861286138614821582168217821486DF
:10313000158616861786108A118A128A138A108EAF
:10314000118E128E138EDC01AE5AB64F5C961C9215
:103150005C975D961C927E964E9686399105D9F6BF
:1031600008950F931F93E8E0F7E0A82FB0E023EB5A
:1031700036EE4EE050E00E946832048115812681CF
:103180003781DC01CB01800F911FA21FB31F848305
:103190009583A683B783CF011F910F910C94392695
:1031A000E8E0F7E04081518162817381DC014D9359
:1031B0005D936D937C9313974481558166817781EC
:1031C000FC01448355836683778308952EE1829FB3
:1031D000C0011124FC01EE5AF64F858D813039F083
:1031E000848D8F5F848F8F3F11F481E0858F0895E8
:1031F0002EE1829FC0011124FC01EE5AF64F858D0D
:103200008130B1F0148A158A168A178A80899189CB
:10321000A289B3890196A11DB11D808B918BA28BD0
:10322000B38B8E3F9F4FAF4FBF4F11F481E0858F1F
:1032300008950F931F932EE1829FC0011124FC017A
:10324000EE5AF64F858D813071F1808D918DA28D72
:10325000B38D0196A11DB11D808F918FA28FB38F69
:10326000462F50E060E070E004891589268937898F
:10327000040F151F261F371F048B158B268B378BCA
:103280000081118122813381400F511F621F731F02
:1032900040835183628373838E3F9F4FAF4FBF4FF5
:1032A00011F481E0858F1F910F910895CF92DF92E5
:1032B000EF92FF92282F30E09EE1899FF0011124C8
:1032C000EE5AF64F858D813009F44BC0462F50E001
:1032D00060E070E084899589A689B789840F951F7D
:1032E000A61FB71F84879587A687B787C080D18020
:1032F000E280F3804C0D5D1D6E1D7F1D4083518368
:1033000062837383448155816681778141155105BC
:103310006105710529F084179507A607B70760F4C2
:103320004EE1429FF001439FF00D1124EE5AF64FFB
:1033300084839583A683B7834EE1429FF001439F28
:10334000F00D1124EE5AF64F408551856285738544
:10335000481759076A077B0720F480879187A2875F
:10336000B387FF90EF90DF90CF9008958F929F9258
:10337000AF92BF92CF92DF92EF92FF920F931F9383
:10338000CF93DF93CDB7DEB728970FB6F894DEBFA3
:103390000FBECDBF182F8BE394E00E945912A12ECF
:1033A000B12C1F921F9385E393E09F938F930E940C
:1033B00010340F900F900F900F90111152C080E2B7
:1033C00094E00E945912CE0101960E9450256D8111
:1033D0007E818F819885E0E4CE2EE2E4DE2EEFE060
:1033E000EE2EF12CA70196010E9497325F934F9326
:1033F0003F932F938C818F938B818F938A818F93AF
:1034000089818F9308E313E01F930F930E94103478
:103410008FEF93E00E94591260910C0770910D0795
:1034200080910E0790910F07A70196010E94973295
:103430005F934F933F932F9380910B078F938091CE
:103440000A078F93809109078F93809108078F93C4
:103450001F930F930E9410340FB6F894DEBF0FBE77
:10346000CDBF8EEE93E00E9459128EE18A9D8001BD
:103470008B9D100D11240E5A164FF8016081718139
:10348000828193810E94352729833A834B835C8311
:103490006D837E838F8398876D817E818F819885F0
:1034A00020E4822E22E4922E2FE0A22EB12CA50140
:1034B00094010E9497325F934F933F932F938C8197
:1034C0008F938B818F938A818F9389818F9338E338
:1034D000E32E33E0F32EFF92EF920E94103483ED3F
:1034E00093E00E945912F801648175818681978169
:1034F0000E94352729833A834B835C836D837E83C7
:103500008F8398876D817E818F819885A501940135
:103510000E9497325F934F933F932F938C818F93A9
:103520008B818F938A818F9389818F9348E4C42EF6
:1035300043E0D42EDF92CF920E941034F8016485CC
:103540007585868597850E94352729833A834B8325
:103550005C836D837E838F8398876D817E818F816D
:103560009885A50194010E9497325F934F933F93F2
:103570002F938C818F938B818F938A818F938981F5
:103580008F93DF92CF920E941034F801608571858D
:10359000828593850E94352729833A834B835C83F8
:1035A0006D837E838F8398876D817E818F819885DF
:1035B000A50194010E9497325F934F933F932F93FD
:1035C0008C818F938B818F938A818F9389818F9345
:1035D000FF92EF920E9410340FB6F894DEBF0FBE38
:1035E000CDBF83EC93E00E945912F801709683815D
:1035F0008F9382818F9381818F93F80180898F933C
:103600005AE5E52E53E0F52EFF92EF920E9410341A
:1036100080EB93E00E945912F801789683818F9392
:1036200082818F9381818F93F801808D8F93FF9298
:10363000EF920E94103487E993E00E945912F8013A
:10364000848D1F928F936EE5E62E63E0F62EFF9237
:10365000EF920E9410348AE793E00E945912F80119
:10366000858D1F928F93FF92EF920E94103487E70F
:1036700093E00E9459120FB6F894DEBF0FBECDBF83
:1036800028960FB6F894DEBF0FBECDBFDF91CF9165
:103690001F910F91FF90EF90DF90CF90BF90AF9070
:1036A0009F908F900895CF938AE593E00E945912DE
:1036B000C0E08C2F0E94B619CF5FC530D1F7CF91F3
:1036C0000895DB01853008F054C09EE1899FF00128
:1036D0001124EE5AF64F40815181628173814D93DE
:1036E0005D936D937C9313974481558166817781B7
:1036F00014964D935D936D937C93179740855185F8
:103700006285738518964D935D936D937C931B979B
:1037100044855585668577851C964D935D936D939D
:103720007C931F97408951896289738950964D9384
:103730005D936D937C935397448955896689778906
:1037400054964D935D936D937C935797408D518D17
:10375000628D738D58964D935D936D937C935B97BB
:10376000848D5C968C935C97858D5D968C9381E0BF
:1037700008958FEF0895E091B10BF091B20B84871B
:103780000895E091B10BF091B20B84850895CF9329
:10379000DF93D82FC62F80E092E00E9428168F5F1B
:1037A0008F3F19F08093F00502C01092F005209130
:1037B000F00536E0239FC00111246D2F8F5F9D4FD0
:1037C0000E942A168091F00546E0849FC0011124D2
:1037D0006C2F8E5F9D4F0E942A162091F00540911C
:1037E000A80B5091A90B6091AA0B7091AB0B672F9E
:1037F00077278827992746E0249F90011124C90143
:103800008D5F9D4F0E942A162091F0054091A80BD4
:103810005091A90B6091AA0B7091AB0B8827992747
:1038200046E0249F90011124C9018C5F9D4F0E94A6
:103830002A162091F0054091A80B5091A90B609198
:10384000AA0B7091AB0B9927872F762F652F46E037
:10385000249F90011124C9018B5F9D4F0E942A165D
:103860008091F00526E0829FC00111246091A80B91
:103870008A5F9D4F0E942A166091F00580E092E0D9
:10388000DF91CF910C942A16FC018091E8098823DE
:1038900031F0DB018C938091FF06808381E00895F5
:1038A0008091E809882309F483C082E796E00E94AA
:1038B00059128091FF061F928F9385E393E09F93A7
:1038C0008F930E9410348EE696E00E9459120F905A
:1038D0000F900F900F908091E809883110F01092AE
:1038E000E809E091E8098E2F90E0FC013197E6317C
:1038F000F10508F046C0E654FF4F0C94183382E3FC
:1039000096E041C08BE096E03EC087EF95E03BC07B
:1039100081EE95E038C086EC95E035C080EB95E00F
:1039200032C088E995E02FC085E895E02CC082E799
:1039300095E029C084E595E026C08FE295E023C09C
:1039400083E295E020C088E095E01DC089EF94E017
:103950001AC085EE94E017C084ED94E014C080ECAA
:1039600094E011C080EA94E00EC088E894E00BC0B7
:103970008DE694E008C08CE594E005C08DE494E009
:1039800002C086E494E00E9459126091160C709176
:10399000170C8DE090E00E94D8336091160C709166
:1039A000170C8AE090E00E94D8338091E8090895CE
:1039B00080E0089513BC1092B60018BC17BC16BC6A
:1039C00015BC14BC1DBA1CBA1BBA10929B001092F5
:1039D0009A001092990010929800109295001092FF
:1039E0009400109291001092900018BA10927100F9
:1039F0001092B4001092B3001092B2001092B10075
:103A0000E0EBF0E01082108217BA109270008FEF96
:103A100084BF08950E94C7160E9410308091E80963
:103A2000803171F08351823058F00E94DA1C8EE7A9
:103A300096E00E9459120E941E300E94C716FFCFC6
:103A40001092E80908958093E809E091B10BF09194
:103A5000B20B60856093FF060E94C71B0E94501C3A
:103A60000C940A1D8093E8096093FF060E94C71B0F
:103A70000E94501C0C940A1DCF93DF931F92CDB768
:103A8000DEB719828981843640F480ED97E00E9488
:103A90004C2C89818F5F8983F5CF0F90DF91CF9177
:103AA000089581E090E00E94AA150E943C1D0E94AA
:103AB0003C1D0E943C1D81E090E00E9493150C94F7
:103AC0003C1D81E090E00E94AA150E943C1D81E00F
:103AD00090E00E9493150C943C1DFF920F931F934E
:103AE000CF93DF9300D01F92CDB7DEB71F928F9395
:103AF00085E393E09F938F938E010F5F1F4F1F937A
:103B00000F930E945A340F900F900F900F900F90C8
:103B10000F90F12CF80101900020E9F73197E01B9C
:103B2000F10B8F2D90E08E179F0708F05DC0F80114
:103B3000E80FF91FE0818E2F90E0FC01F097EA304A
:103B4000F10508F049C0E053FF4F0C9418330E9470
:103B5000511D02C00E94611D0E94511D0E94511DF5
:103B60000E94511D0E94511D37C00E94611D0E947C
:103B7000611DF4CF0E94611D0E94611D0E94611DA4
:103B8000EFCF0E94611D0E94611D0E94611D0E9475
:103B9000611DE8CF0E94611D02C00E94511D0E945C
:103BA000611D04C00E94511D0E94511D0E94611D93
:103BB00006C00E94511D0E94511D0E94511D0E946D
:103BC000611D08C00E94511D0E94511D0E94511D7F
:103BD0000E94511D0E94611D0E943C1D0E943C1DBF
:103BE0000E943C1DF39496CF0F900F900F90DF91A1
:103BF000CF911F910F91FF9008956F927F928F92B6
:103C00009F92AF92BF92CF92DF92EF92FF920F936B
:103C10001F93CF93DF938EE896E00E945912E091B4
:103C2000B10BF091B20B8085282F332727FD3095FB
:103C30003F938F9381E693E09F938F930E9410347C
:103C4000E091B10BF091B20BC281D381DF93CF939E
:103C500085E993E09F938F930E94103488811F928F
:103C60008F938AE693E09F938F930E941034E091A4
:103C7000B10BF091B20B81818F9380818F9387E795
:103C800093E09F938F930E9410348091B20B8F9397
:103C90008091B10B8F9381E893E09F938F930E9463
:103CA0001034C1ECDAE0EDB7FEB774960FB6F894B5
:103CB000FEBF0FBEEDBF00E010E081E9682E83E09B
:103CC000782E9AE6892E93E0992E27E7A22E23E0FC
:103CD000B22E31E8C32E33E0D32EEA80FB80FF9270
:103CE000EF921F930F937F926F920E941034F7010F
:103CF00080811F928F939F928F920E9410348981AE
:103D00008F9388818F93BF92AF920E941034DF937C
:103D1000CF93DF92CF920E9410340F5F1F4FAB966C
:103D2000EDB7FEB772960FB6F894FEBF0FBEEDBFAB
:103D30000530110591F6DF91CF911F910F91FF9002
:103D4000EF90DF90CF90BF90AF909F908F907F903B
:103D50006F900895CF93DF93E091B10BF091B20B88
:103D6000C281D3818881853539F00E94FD1D81E0B3
:103D70000E94231D85E58883E091B10BF091B20B81
:103D8000808191818115924438F00E94FD1D82E16D
:103D9000DF91CF910C94231DDF91CF9108952BE2F9
:103DA0008202C0011124FC01EF53F54FA281B381BF
:103DB0008C91853519F085E58C9308C080819181BF
:103DC0008115924428F082E10E94231D8FEF08950F
:103DD00081E008950F931F934091100850911108AE
:103DE000609112087091130880E090E08A019B01B5
:103DF000082E04C036952795179507950A94D2F793
:103E000000FD19C001E010E020E030E0082E04C001
:103E1000000F111F221F331F0A94D2F7402B512B82
:103E2000622B732B40931008509311086093120873
:103E30007093130805C0019680329105B9F68FEF93
:103E40001F910F910895E091B10BF091B20B658530
:103E50007685878590890895CF92DF92EF92FF92C1
:103E60000F931F93CF93DF93C12CD12C7601C39472
:103E7000082E04C0CC0CDD1CEE1CFF1C0A94D2F7EB
:103E80004091100850911108609112087091130828
:103E90004C215D216E217F21452B462B472B09F4B8
:103EA00060C0082F0E94C716EAECFAE0B701A6012D
:103EB000409550956095709513E0DF0111978C91B6
:103EC0008F3F39F184819581A681B7818C159D053D
:103ED000AE05BF0551F410861186128613869F0128
:103EE00022503109E9011882108384239523A623E7
:103EF000B72384839583A683B78380859185A28524
:103F0000B38584239523A623B72380879187A2872F
:103F1000B387BB96DBE0E13AFD0779F68EEF9FEFC2
:103F2000AFEFBFEF04C0880F991FAA1FBB1F0A95F0
:103F3000D2F74091100850911108609112087091C9
:103F4000130884239523A623B72380931008909306
:103F50001108A0931208B09313080E94C91681E0BB
:103F600001C08FEFDF91CF911F910F91FF90EF90E4
:103F7000DF90CF9008950F931F9341E050E060E0F1
:103F800070E08A019B0104C0000F111F221F331F24
:103F90008A95D2F7D901C801E091B10BF091B20B2B
:103FA0004585568567857089042315232623372385
:103FB000012B022B032BD1F080959095A095B09505
:103FC000482359236A237B23458756876787708B4D
:103FD000418952896389748984239523A623B72351
:103FE000818B928BA38BB48B81E001C08FEF1F91EB
:103FF0000F910895282F4091100850911108609159
:10400000120870911308082E04C07695679557958D
:1040100047950A94D2F740FF1DC0E091B10BF09193
:10402000B20B81E090E0A0E0B0E004C0880F991FDF
:10403000AA1FBB1F2A95D2F74585568567857089CB
:10404000842B952BA62BB72B85879687A787B08BBC
:1040500081E008958FEF0895CF92DF92EF92FF9263
:10406000CF93C12CD12C7601C39404C0CC0CDD1CA1
:10407000EE1CFF1C8A95D2F78091100890911108D0
:10408000A0911208B09113088C219D21AE21BF216F
:10409000892B8A2B8B2B11F481E044C00E94C71618
:1040A000E8ECFAE0AAECBAE0C0E083E0908191305D
:1040B000B9F442855385648575854C215D216E2157
:1040C0007F21452B462B472B59F08C93168617865C
:1040D000108A118A1082C286D386E486F586C1E0F2
:1040E00090819230A1F442855385648575854C1585
:1040F0005D056E057F0559F48C9316861786108A28
:10410000118A10821286138614861586C1E0BB962A
:104110009B969BE0EF39F90749F60E94C916C11139
:1041200005C082E00E94BB1B8FEF01C081E0CF91F0
:10413000FF90EF90DF90CF9008950F931F93E09141
:10414000B10BF091B20B05851685278530890623C2
:10415000172328233923011511052105310511F1F4
:10416000DC01CB01818B928BA38BB48B21E0278365
:104170000090A10B04C0B695A795979587950A94D2
:10418000D2F780FF03C00E94772404C080E090E053
:104190000E944824E091B10BF091B20B0189128981
:1041A00023893489C901B8011F910F910895909115
:1041B000B00B91111DC090919A0B9F3F31F09091DF
:1041C0009D0B9F3F21F0E2E003C0E0E001C0E1E091
:1041D000F0E09F01220F331FE20FF31FE656F44F6A
:1041E00082838083618381E08093B00BCF01089547
:1041F00080E090E008952BE08A39920729F08D59EC
:104200009B4021F481E0089580E008958FEF0895A8
:104210000E94FB208F3F11F481E002C0823021F424
:104220000E94BB1B8FEF0895992787FD9095FC0195
:10423000EE0FFF1F8E0F9F1FFC01E656F44F828189
:104240000895EF92FF920F931F93CF93DF931F92E6
:10425000CDB7DEB70E94FB208F3F11F481E002C092
:10426000823021F40E94BB1B8FEF41C089830E94E2
:10427000C7168981E82EFF24E7FCF0948701000F20
:10428000111FF801EE0DFF1DE656F44F92819111BA
:1042900016C0E091B10BF091B20B978192609783B9
:1042A000992787FD9095A92FB92F818B928BA38B8E
:1042B000B48B0E94C91680E090E00E9448240E0D45
:1042C0001F1DD801A656B44F12968C91129781509B
:1042D00012968C931297E091B10BF091B20B11965C
:1042E0008C91838781E084830E94C91681E00F90BE
:1042F000DF91CF911F910F91FF90EF9008950F9351
:104300001F93CF93DF931F92CDB7DEB70E94FB20A0
:104310008F3F11F481E002C0823021F40E94BB1B68
:104320008FEF44C0482F552747FD50959A01220F23
:10433000331F240F351F89010656144FF8012281BF
:104340009081291794F589830E94C716F8019281FC
:104350009F5F9283E091B10BF091B20B1482E8EC75
:10436000FAE08981992787FD9095A92FB92F23E03D
:104370003081323099F442855385648575854817BC
:1043800059076A077B0751F4228316861786108A1D
:10439000118A10821286138614861586BB963BE01E
:1043A000EF39F30729F70E94C91681E00F90DF91DA
:1043B000CF911F910F9108950E94FB208F3F11F420
:1043C00081E002C0823021F40E94BB1B8FEF089570
:1043D000992787FD9095FC01EE0FFF1F8E0F9F1F01
:1043E000FC01E656F44F8FEF8083828381838091B6
:1043F000B00B81508093B00B81E00895E091A60B43
:10440000F091A70B80810895E091A60BF091A70B86
:10441000309721F00380F481E02DFACF0895AF9218
:10442000BF92CF92DF92EF92FF920F931F93CF93A1
:10443000DF93E091BF0AF091C00A309709F494C06D
:104440000091A60B1091A70B0115110509F44CC0A2
:10445000D8014BE2582F5403900111242F53354FAC
:1044600079019AE0E90EF11C6901C4E0CC0ED11C7F
:104470005901DBE0AD0EB11C2C9130E0429FB00140
:10448000439F700D11246F53754FEB019C8199234D
:1044900029F05B85E7019881591740F1E601988181
:1044A000992369F0429FB001439F700D11246F530F
:1044B000754FEB015A85E50198815917B8F0429F75
:1044C000B001439F700D11249B012F53354FE9011B
:1044D0002A85E7019881291748F013960D90BC9121
:1044E000A02D109749F602C0A0E0B0E08083C38100
:1044F000D481D093C00AC093BF0AA017B107B1F40A
:10450000109749F0B483A383128211821296FC9310
:10451000EE93119706C01482138212821182FA83DD
:10452000E983F093A70BE093A60B1EC0AC17BD0761
:1045300079F011968D919C91129792838183B48327
:10454000A3831196CD91DC911297FC83EB8308C075
:104550001482138211968D919C911297928381837C
:104560001296FC93EE931197DF91CF911F910F91CB
:10457000FF90EF90DF90CF90BF90AF900895CF93D2
:10458000DF93E091A60BF091A70B309709F444C09C
:10459000992787FD9095208130E02817390781F40D
:1045A000A381B481B093A70BA093A60B12961C9283
:1045B0001E92119718C00380F481E02D309761F1AD
:1045C000208130E028173907B1F7C181D28183817A
:1045D00094819C838B83A381B481109721F01296E0
:1045E000DC93CE931197A091BF0AB091C00A1097A7
:1045F00039F4F093C00AE093BF0A148213820AC010
:10460000B483A3831296FC93EE931197F093C00AA0
:10461000E093BF0A12821182DF91CF910895EF9249
:10462000FF920F931F93CF93DF93EC014B815C813B
:1046300069817A818D819E810E9470302F81222331
:1046400071F04B815C81E12CF12C00E010E020E066
:1046500030E0BC01CE010E94BC171F820CC0E88173
:104660002BE2E202F0011124EF53F54F21852330B4
:10467000B9F491838083E8818BE2E802F001112490
:10468000EF53F54F85899689A789B08D892B8A2BA1
:104690008B2B41F482E0818788810E940F2202C027
:1046A0008FEF01C081E0DF91CF911F910F91FF90BB
:1046B000EF9008951F93CF93DF93CDB7DEB7289780
:1046C0000FB6F894DEBF0FBECDBF29833A834B836C
:1046D0005C836D837E838F8398870E94C7160E94B8
:1046E0009A2D182FCE0101960E946C276330710518
:1046F00098F0E091B10BF091B20B212F30E0620FF6
:10470000731FCB01A0E0B0E0858B968BA78BB08F99
:104710000E94C91681E001C08FEF28960FB6F89469
:10472000DEBF0FBECDBFDF91CF911F9108950E94D4
:104730004330E091B10BF091B20B85818111F7CF3D
:104740000895CF930E94AA1E0E94C716E091B10B54
:10475000F091B20B81E090E092A781A785830E943F
:104760009A2DC82F883F80F40E94342D2C2F30E0E2
:104770002F5F3F4F90E02817390734F482E08C0F09
:10478000809351090E94382D0E94C9160E949723D8
:1047900081E0CF910895E091B10BF091B20B80854B
:1047A0000E94BF22E091B10BF091B20B84E08187AF
:1047B0000E94A12381E00895CF93DF93EC010E9432
:1047C000AA1E209711F4C1E0D0E00E94C716E09124
:1047D000B10BF091B20B81E08583D2A7C1A70E94F3
:1047E0009A2DC82F883F80F40E94342D2C2F30E062
:1047F0002F5F3F4F90E02817390734F482E08C0F89
:10480000809351090E94382D0E94C9160E94972357
:1048100081E0DF91CF910895EF92FF920F931F9364
:10482000CF938C010E94C716E091B10BF091B20BAF
:1048300081E085830E949A2DC82FE091B10BF09101
:10484000B20BE82EF12CC701800F911FA0E0B0E061
:10485000858B968BA78BB08FC83F78F40E94342D40
:104860009FEFE91AF90A90E0E816F90634F482E0BD
:104870008C0F809351090E94382D0E94C9160E9406
:10488000972381E0CF911F910F91FF90EF900895B2
:10489000CF93DF93EC010E94C716E091B10BF0912A
:1048A000B20B21E02583CE01A0E0B0E0858B968B92
:1048B000A78BB08F0E949A2DC82F883F80F40E944A
:1048C000342D2C2F30E02F5F3F4F90E02817390711
:1048D00034F482E08C0F809351090E94382D0E949D
:1048E000C9160E94972381E0DF91CF910895CF935D
:1048F0000E94C716E091B10BF091B20B81E0858365
:1049000086830E949A2DC82F883F80F40E94342D00
:104910002C2F30E02F5F3F4F90E02817390734F4F9
:1049200082E08C0F809351090E94382D0E94C91695
:104930000E94972381E0CF9108951F93CF93DF9337
:10494000CDB7DEB728970FB6F894DEBF0FBECDBF48
:1049500029833A834B835C836D837E838F8398871F
:104960000E94AA1E0E94C716E091B10BF091B20BF3
:1049700081E0858381E090E092A781A70E949A2D33
:10498000182FCE0101960E946C27E091B10BF09197
:10499000B20BDC01CB01810F911DA11DB11D858BD7
:1049A000968BA78BB08F183F80F40E94342D212F57
:1049B00030E02F5F3F4F90E02817390734F482E052
:1049C000810F809351090E94382D0E94C9160E94C0
:1049D000972381E028960FB6F894DEBF0FBECDBFB7
:1049E000DF91CF911F9108958F929F92AF92BF92C6
:1049F000CF92DF92EF92FF920F931F93CF93DF93AB
:104A0000CDB7DEB760970FB6F894DEBF0FBECDBF4F
:104A100029873A874B875C876D877E878F87988B3E
:104A2000CE0101960E94502589809A80AB80BC807F
:104A3000CD80DE80EF80F88409851A852B853C8542
:104A40004D855E856F857889CE0109960E94AD25DA
:104A50008F3F61F029853A854B855C856D857E8524
:104A60008F8598890E949D2481E001C08FEF609618
:104A70000FB6F894DEBF0FBECDBFDF91CF911F916F
:104A80000F91FF90EF90DF90CF90BF90AF909F90ED
:104A90008F900895E091B10BF091B20B808508954D
:104AA0000F931F93CF93DF93EC011C821D821E8214
:104AB0001F828091A80B9091A90BA091AA0BB09195
:104AC000AB0B88839983AA83BB838091AC0B9091B5
:104AD000AD0BA091AE0BB091AF0B8C839D83AE83D9
:104AE000BF830E949A2DA82FB0E023EB36EE4EE054
:104AF00050E00E9468320C811D812E813F81DC01D3
:104B0000CB01800F911FA21FB31F8C839D83AE83A7
:104B1000BF838C819D81AE81BF8181152AEC920774
:104B20002AE9A2072BE3B20798F09A5CAA49BB4393
:104B30008C839D83AE83BF8388819981AA81BB8149
:104B40000196A11DB11D88839983AA83BB83E1CF00
:104B5000DF91CF911F910F9108958F929F92AF9205
:104B6000BF92CF92DF92EF92FF920F931F93CF935A
:104B7000DF93CDB7DEB760970FB6F894DEBF0FBEF8
:104B8000CDBFFC0109831A832B833C834D835E8355
:104B90006F83788789869A86AB86BC86CD86DE86CB
:104BA000EF86F88A09811A812B813C814D815E81D3
:104BB0006F817885C984DA84EB84FC848D859E8539
:104BC000AF85B8890C151D052E053F05F0F1C016FF
:104BD000D106E206F30691F4481759076A077B07E6
:104BE000A0F1481B590B6A0B7B0B448355836683EA
:104BF0007783108211821282138225C048175907C9
:104C00006A077B0780F401501109210931090C1949
:104C10001D092E093F0900831183228333835653D4
:104C20006546744C08C00C191D092E093F09008304
:104C3000118322833383481B590B6A0B7B0B4483FC
:104C400055836683778381E001C08FEF60960FB64E
:104C5000F894DEBF0FBECDBFDF91CF911F910F91B2
:104C6000FF90EF90DF90CF90BF90AF909F908F908C
:104C70000895FC01448155816681778141158AEC54
:104C800058078AE968078BE3780798F05A5C6A4905
:104C90007B43448355836683778380819181A2819E
:104CA000B3810196A11DB11D80839183A283B3833B
:104CB000E1CF08958F929F92AF92BF92CF92DF92F1
:104CC000EF92FF920F931F93CF93DF93CDB7DEB791
:104CD00060970FB6F894DEBF0FBECDBF09831A836D
:104CE0002B833C834D835E836F83788789869A8686
:104CF000AB86BC86CD86DE86EF86F88A09851A8566
:104D00002B853C8549815A816B817C81400F511FE5
:104D1000621F731FFC0140835183628373830D857F
:104D20001E852F8538894D815E816F817885400F82
:104D3000511F621F731F44835583668377830E94CC
:104D4000392681E060960FB6F894DEBF0FBECDBF66
:104D5000DF91CF911F910F91FF90EF90DF90CF9057
:104D6000BF90AF909F908F900895E8EAFBE060833A
:104D70007183828393832483358346835783089585
:104D80002F923F924F925F926F927F928F929F925B
:104D9000AF92BF92CF92DF92EF92FF920F931F9349
:104DA000FC01C080D180E280F380C114D104E10411
:104DB000F104E1F184819581A681B78122E4C216D4
:104DC000D104E104F104F0F51C012D01612C712CDA
:104DD0004301E0E08E2F90E0A0E0B0E08C159D054F
:104DE000AE05BF0588F49101A201B301C401365399
:104DF0004546544C6F4F7F4F8F4F9F4F19012A01EB
:104E00003B014C01EF5FE6CF83EBA82E96EEB92E67
:104E10002EE0C22ED12CE12CF12C00E010E091010B
:104E2000A201B301C4010E94BB320AC06481758132
:104E30008681978123EB36EE4EE050E00E94973258
:104E4000C90102C080E090E01F910F91FF90EF90A8
:104E5000DF90CF90BF90AF909F908F907F906F909A
:104E60005F904F903F902F900895CF92DF92EF92F6
:104E7000FF92CF93DF93CDB7DEB728970FB6F894A4
:104E8000DEBF0FBECDBF6B017C012AE0F694E79434
:104E9000D794C7942A95D1F7C982DA82EB82FC8233
:104EA0009B01AC0133704427552763EB76EE8EE00F
:104EB00090E00E9473322C2D3A814B815C812896C0
:104EC0000FB6F894DEBF0FBECDBFDF91CF91FF903C
:104ED000EF90DF90CF9008952F923F924F925F9284
:104EE0006F927F928F929F92AF92BF92CF92DF92FA
:104EF000EF92FF920F931F93FC01C080D180E2805C
:104F0000F380C114D104E104F104B9F184819581E5
:104F1000A681B7811C012D01612C712C4301E0E0B9
:104F20008E2F90E0A0E0B0E08C159D05AE05BF058A
:104F300088F49101A201B301C40136534546544C93
:104F40006F4F7F4F8F4F9F4F19012A013B014C013B
:104F5000EF5FE6CF83EBA82E96EEB92E2EE0C22EA1
:104F6000D12CE12CF12C00E010E09101A201B30161
:104F7000C4010E94BB32CA010BC064817581868165
:104F8000978123EB36EE4EE050E00E949732CA0143
:104F9000B9011F910F91FF90EF90DF90CF90BF90DC
:104FA000AF909F908F907F906F905F904F903F90C9
:104FB0002F900895C2E0D1E00E94AA1E0E94342DD5
:104FC000843028F4D093A50B0E94433008C08AE0B7
:104FD00090E00E944C2CC093A50B0E94373080912A
:104FE000FC09853519F088E00E94231D8091FE4060
:104FF000853511F388E00E94231DDECF2F923F926A
:105000004F925F926F927F928F929F92AF92BF92D8
:10501000CF92DF92EF92FF920F931F93CF93DF9384
:1050200000D01F92CDB7DEB70E94C9160E94682C2F
:105030000E94862C0E948E2C1C018AEF0E94382D23
:105040000E9434300E94022BB0905109AB2DB0E089
:1050500023EB36EE4EE050E00E9468320091AC0B3C
:105060001091AD0B2091AE0B3091AF0B6B017C0119
:10507000C00ED11EE21EF31EC701B60123EB36EEB1
:105080004EE050E00E949732C61AD70AE80AF90AA1
:10509000C092AC0BD092AD0BE092AE0BF092AF0B86
:1050A000E091B10BF091B20B8085811130C08091FD
:1050B000A50B823019F48B2D0E94B118E091B10B31
:1050C000F091B20B6091510980850E941919E0910D
:1050D000B10BF091B20B60E080850E94561980916F
:1050E000AC0B9091AD0BA091AE0BB091AF0B0091BA
:1050F000A80B1091A90B2091AA0B3091AB0B43EB9D
:10510000842E46EE942E4EE0A42EB12C07C095813D
:105110006B2D9111E2CF0E941919E1CF680179013D
:105120004FEFC41AD40AE40AF40A81155AEC950721
:105130005AE9A5075BE3B507C8F02C013D012AEC4D
:10514000521A2AE9620A2BE3720AC301B201A501CD
:1051500094010E949732A3019201261B370B480B42
:10516000590BDA01C90197018601D8CF8093AC0BA6
:105170009093AD0BA093AE0BB093AF0B0093A80B25
:105180001093A90B2093AA0B3093AB0BE091B10BBA
:10519000F091B20B8581882339F18185843021F12A
:1051A0008781823029F0882341F08681811102C0F5
:1051B00085E001C083E0818714C083E08187178286
:1051C000168285899689A789B08D892B8A2B8B2B8E
:1051D00041F4818D928DA38DB48D858B968BA78B99
:1051E000B08F80850E94BF22E091B10BF091B20B8D
:1051F00085A196A1A7A1B0A5892B8A2B8B2B09F499
:105200004EC08085882309F44AC09185943009F402
:1052100046C0458D568D678D70A10091510910E0F3
:1052200020E030E0401751076207730798F40E94AE
:10523000E618E091B10BF091B20B608582E00E941C
:10524000321DE091B10BF091B20B158E168E178EB8
:1052500010A208C0401B510B620B730B458F568F79
:10526000678F70A3E091B10BF091B20B1085858D23
:10527000968DA78DB0A1892B8A2B8B2B81F4812F42
:105280000E94E618612F83E00E94321DE091B10B6D
:10529000F091B20B83E08187812F0E94BF228AECBC
:1052A0009AE09B838A8300E61AEE19822AEFC22EC7
:1052B000D12CE12CF12C812C912C54018394EA8186
:1052C000FB81319780818F3F09F404C1EA81FB8122
:1052D00034971082882309F467C0EA81FB818081BA
:1052E000843009F461C04484558466847784609175
:1052F000510970E080E090E046165706680679068E
:1053000048F0461A570A680A790A4486558666861E
:10531000778606C0EA81FB81148615861686178675
:10532000EA81FB8140885188628873884616570657
:105330006806790648F0461A570A680A790A408AC8
:10534000518A628A738A1EC0EA81FB81208D318D69
:10535000428D538D621773078407950758F429010E
:105360003A01461A570A680A790A408A518A628ABB
:10537000738A08C00E949732EA81FB81608B718B2F
:10538000828B938BEA81FB8180899189A289B38981
:10539000892B8A2B8B2B41F4808D918DA28DB38D1F
:1053A000808B918BA28BB38BEA81FB8180818330D0
:1053B00009F090C084859585A685B785892B8A2BB1
:1053C0008B2B09F074C0DF0112978C919F01235041
:1053D00031098823A9F0F9018081882389F0B5017A
:1053E000A4010090A10B04C0440F551F661F771F36
:1053F0000A94D2F7EA81FB814087518762877387DD
:105400001C92F9011082EA81FB81A0A1B1A1A13017
:10541000B10519F5848D958DA68DB78D848B958BEF
:10542000A68BB78B92E0492E408280899189A28910
:10543000B38984879587A687B787808D918DA28D44
:10544000B38D892B8A2B8B2B21F4C486D586E686D7
:10545000F78689810E940F222AC0EA81FB81448D50
:10546000558D668D778D448B558B668B778B408CF5
:10547000518C628C738C1197A30192010E94683247
:105480006487758786879787608B718B828B938BF8
:1054900045284628472821F4C486D586E686F7861F
:1054A00044244394512CEA81FB8151A240A2EA8119
:1054B000FB8184859585A685B7850097A105B105F3
:1054C00049F0A80160E070E084179507A607B707C8
:1054D00008F48C01F981FF5FF9832A813B81255D06
:1054E0003F4F3B832A83F53009F0E9CEE091B10BC1
:1054F000F091B20B80850E94F8180E94FE21F82ED0
:105500003BE28302F0011124EF53F54F22852093F3
:10551000B30BF093A30BE093A20B8823F9F085A1C2
:1055200096A1A7A1B0A5892B8A2B8B2B99F0858DED
:10553000968DA78DB0A18A3F9105A105B10550F4C4
:10554000A80160E070E084179507A607B707E8F4A4
:105550008C011BC00B3F1105C0F012C004301105B7
:10556000A0F0C80103978A3F910538F48C0182307E
:10557000910558F402E010E008C00D3F110519F044
:105580000AEF10E002C007EF10E02093A40BF093A5
:10559000B20BE093B10B009351090E949A2D282F72
:1055A00030E02F5F3F4F2017310740F00E949A2DC7
:1055B000082F10E00E5F1F4F00935109F110109259
:1055C000A50B802F0E94382D6CED75E0C1010E9463
:1055D000A02C0E94BD300F900F900F90DF91CF91C3
:1055E0001F910F91FF90EF90DF90CF90BF90AF9001
:1055F0009F908F907F906F905F904F903F902F90F3
:105600000C94C8303F924F925F926F927F928F922C
:105610009F92AF92BF92CF92DF92EF92FF920F9341
:105620001F93CF93DF93CDB7DEB760970FB6F89493
:10563000DEBF0FBECDBFCE0109960E94502584EB80
:10564000482E8BE0582E612C712C93E1392ED2011B
:1056500012968C91813051F5369CF001379CF00DFB
:105660001124E154F44F89849A84AB84BC84CD84A2
:10567000DE84EF84F88800811181228133814481A6
:10568000558166817781CE0101960E94AD258F3FBD
:1056900069F4662D85E10E94321DD201ED91FC91E5
:1056A000309719F40E94CB1601C00995BFEF6B1A11
:1056B0007B0AE3E14E0E511CF3E06F16710439F6DC
:1056C00060960FB6F894DEBF0FBECDBFDF91CF91CD
:1056D0001F910F91FF90EF90DF90CF90BF90AF9010
:1056E0009F908F907F906F905F904F903F90089524
:1056F000E4EBFBE01282158A10A60895CF93DF93A6
:105700008330E0F493E1899FF0011124EC54F44FCD
:1057100051834083EB0188819981AA81BB81838376
:105720009483A583B6838C819D81AE81BF8187835D
:105730009087A187B287128281E001C08FEFDF914D
:10574000CF910895CF92DF92EF92FF920F931F9324
:10575000CF93DF93CDB7DEB728970FB6F894DEBFAF
:105760000FBECDBF8330A8F5182FCE0101960E9441
:10577000502523E1129FC00111248C010C54144FB9
:10578000F801C380D480E580F68049815A816B811D
:105790007C814C0D5D1D6E1D7F1D43875487658781
:1057A0007687C780D084E184F2844D815E816F81E9
:1057B00078854C0D5D1D6E1D7F1D4787508B618B5D
:1057C000728B8154944F0E94392681E0F8018283C4
:1057D00001C08FEF28960FB6F894DEBF0FBECDBF85
:1057E000DF91CF911F910F91FF90EF90DF90CF90BD
:1057F00008951F93CF93DF93CDB7DEB728970FB6E9
:10580000F894DEBF0FBECDBF833070F5182FCE01E8
:1058100001960E94502583E1189FF0011124EC5459
:10582000F44F438154816581768189819A81AB816E
:10583000BC81840F951FA61FB71F83879487A587F8
:10584000B68747815085618572858D819E81AF8144
:10585000B885840F951FA61FB71F8787908BA18BD4
:10586000B28B81E0828301C08FEF28960FB6F89447
:10587000DEBF0FBECDBFDF91CF911F910895833062
:1058800048F493E1899FF0011124EC54F44F128203
:1058900081E008958FEF08950000000000000000EF
:1058A00000000000000000000000000000000000F8
:1058B000019791F7089510922101089589E080934E
:1058C00021018DE89CE3909329018093280108959C
:1058D00010922501109224010895CF93DF9300D0F8
:1058E000CDB7DEB780912401909125019A838983F9
:1058F00089819A810F900F90DF91CF910895109236
:105900008100089581E080938100089583B58160CE
:1059100083BD10928500109284000895CF93DF9389
:1059200000D0CDB7DEB780918400909185009A8336
:10593000898389819A810F900F90DF91CF9108958B
:10594000CF92DF92EF92FF92CF93DF93EC01CC0FD7
:10595000DD1FC9378FEFD80710F0C0E0D0E06B0132
:10596000E12CF12CCC0EDD1EE11CF11C81E0C816EF
:10597000D104E806F10440F081E0E81AF1080E9441
:105980008E2CC817D907D8F30E948E2C8C159D0534
:10599000D8F3DF91CF91FF90EF90DF90CF900895F3
:1059A0001092B100E0E7F0E080818D7F80838081FC
:1059B0008E7F808308958093B2000895E0E7F0E041
:1059C00080818360808383E08093B100089583B5F4
:1059D000826083BD1092B2001092000710925109AC
:1059E0000895CF93DF938EEF8093510980E28093E7
:1059F000B600809151098093B30083E087BB92E0A9
:105A00009093B0008093B10093B5926093BD87BB33
:105A100084BD83B5826083BD1092800081E0809355
:105A20008100109285001092840083B5826083BD4E
:105A300083B5816083BD10922001C4E2D1E0198258
:105A4000188283B5826083BD83B5816083BD0E9467
:105A5000E72C198218820E94DE2C0E945E2C109284
:105A60000007DF91CF9108958091B3008F5F089573
:105A700081508093B3000895811102C0109271008B
:105A80008FEF0895811106C0109295001092940036
:105A900081E008958FEF0895811105C080919400F1
:105AA00090919500089580E090E00895811105C0DF
:105AB00082E08093710081E008958FEF0895811155
:105AC00035C0CB010197059710F460934E091092F1
:105AD000900088E080939100509399004093980043
