:100000000C9465030C94772F0C94A92F0C94DB2F80
:100010000C9484030C9484030C9484030C94840344
:100020000C9484030C94452F0C9484030C94840347
:100030000C9484030C94A42D0C9484030C94A42D90
:100040000C9484030C9484030C9484030C94840314
:100050000C9484030C9484030C9484030C94840304
:100060000C9484030C94B8110C9484030C948403B2
:100070000C9484030C9484030C9484030C948403E4
:100080000C94D72D0C9484030C9484030C94840357
:100090000C9484030C9484030C9484030C948403C4
:1000A0000C9484030C9484030C9484030C948403B4
:1000B0000C9484030C9484030C9484030C948403A4
:1000C0000C9484030C9484030C9484030C94840394
:1000D0000C9484030C9484030C9484030C94840384
:1000E0000C9484030C94D80F0C94C90F0C94990FA2
:1000F0000C9489100C948A0F0C947B0F0C94690F4C
:100100000C945A0F0C9484030C9484030C94840371
:100110000C9484030C9484030C9484030C94840343
:10012000A412B112BE12CB12D812E512F21215139C
:10013000231331133F134D135B1369138C138E1369
:1001400090139213941396139813B713DA13FE13A4
:100150002114441467148A14C414D614E814FA142D
:100160000C151E1530154E155B1568157515821585
:100170008F159C15CB1CD11CD41CD71CDA1CDD1C84
:10018000E31CE01CE61CE91CEC1CF51CF81CFB1C29
:10019000FE1CF21CC81CCE1C011D041DEF1CC51C3E
:1001A000ED1DF01DFB1D001E071E101E131E181E48
:1001B0001F1E281E4661696C656420746F2072657D
:1001C000676973746572207369676E616C0D0A00EC
:1001D00054444D41204552524F523A20637265615A
:1001E00074696E6720656E61626C65207369676E05
:1001F000616C206661696C65640D0A0054444D4170
:10020000204552524F523A206372656174696E679D
:10021000207478207369676E616C206661696C6513
:10022000640D0A0054444D41204552524F523A2029
:100230006372656174696E67207278207369676E96
:10024000616C206661696C65640D0A0054444D411F
:100250002054583A20576F6B65207570206F6E20C0
:1002600077726F6E67207369676E616C0D0A005458
:10027000444D412054583A204572726F7220636198
:100280006C6C696E67206576656E74207761697441
:100290000D0A004D616C666F726D656420455343B5
:1002A0002073657175656E63650D0A00436865634B
:1002B0006B73756D206661696C65643A2000534C00
:1002C0004950205258206572726F723A206E726BDC
:1002D0005F7369676E616C5F72656769737465727D
:1002E0000D0A00534C4950205258206572726F72AB
:1002F0003A20476574205369676E616C0D0A00539C
:100300004C4950205458204552524F523A202052C6
:10031000656C65617365206F662073656D617068DB
:100320006F7265206661696C65640D0A00534C4903
:1003300050205458204552524F523A202041636376
:1003400065737320746F2073656D6170686F72657B
:10035000206661696C65640D0A00756172742072B3
:100360007820736967206661696C65640D0A000D09
:100370000A4E616E6F2D524B205461736B20537483
:1003800061746973746963733A0D0A000D0A000D94
:100390000A2020204F766572666C6F772045727256
:1003A0006F72205374617475733A20000D0A202017
:1003B000204B65726E656C2056696F6C6174696F55
:1003C0006E733A20000D0A202020507265656D7012
:1003D00074696F6E733A20000D0A202020537761F4
:1003E000702D696E733A20000D0A20202054696D2B
:1003F00065205B4D696E2C4C6173742C4D61785D8A
:100400003A20000D0A202020546F74616C20435064
:10041000553A20000D0A20202049646C6520546163
:10042000736B204465657020536C6565702054695A
:100430006D653A20000D0A202020546F74616C20F5
:1004400053797374656D20557074696D653A200039
:10045000205461736B2049443A2000554E4B4F574E
:100460004E0045787465726E616C205265736574D8
:100470000042726F776E204F757420446574656317
:1004800074004661696C656420746F2063726561F5
:1004900074652053656D6170686F726500466169AF
:1004A0006C656420746F20637265617465205369A4
:1004B000676E616C004B65726E656C2066756E636D
:1004C00074696F6E206E6F7420696D706C656D65F8
:1004D0006E7465640044657669636520447269766C
:1004E0006572204572726F72005761746368646F41
:1004F000672052657374617274005357205761749A
:100500006368646F67205265737461727400546924
:100510006D6572204F766572666C6F7700556E68F8
:10052000616E646C656420496E7465727275707476
:1005300020566563746F72004C6F7720566F6C7431
:10054000616765004578747261205461736B207334
:100550007461727465642C206973206E726B5F63C2
:1005600066672E68206F6B3F0049646C65206F7270
:10057000204B65726E656C20537461636B204F76FF
:100580006572666C6F7700556E657870656374652B
:10059000642052657374617274004475706C696391
:1005A00061746564205461736B204944005363682F
:1005B0006564756C6572204D69737365642057615D
:1005C0006B657570005461736B205265736572764C
:1005D000652056696F6C617465640052657365725D
:1005E0007665204572726F7220696E20536368656C
:1005F00064756C657200496E76616C696420537431
:1006000061636B20506F696E746572005461736B27
:1006100020537461636B204F766572666C6F770050
:10062000537461636B20776173206E6F742064650F
:1006300066696E6564206173206C61726765206510
:100640006E6F75676821005461736B207065726905
:100650006F6420746F6F206C617267652E20506527
:1006600072696F64206D757374206265206C6573A8
:1006700073207468616E203631207365636F6E6419
:10068000732E00293A20002A4E524B204552524FD9
:100690005228004E524B205265626F6F742E2E2EE0
:1006A0000D0A000D0A535441434B2044554D500D43
:1006B0000A0045464765666700202B2D2E303132F3
:1006C0003334353637383968000011241FBECFEF78
:1006D000D1E4DEBFCDBF13E0A0E0B2E0EEEEFCE679
:1006E00000E00BBF02C007900D92A639B107D9F701
:1006F00019E0A6E9B3E001C01D92A93EB107E1F7F8
:100700000E94F0300C9475360C949A2DCF93DF93A1
:100710001F92CDB7DEB70E94CC06811103C00E94A4
:10072000F723F9CF0E94600B8823C9F321E0AE01C3
:100730004F5F5F4F60E477E082E198E00E943E0502
:100740008130A1F78981882389F381E090E00E94BC
:10075000D015698180E497E00E94F70A81E090E07B
:100760000E94C315E3CF66E873E08DE197E00E9435
:100770004B3040E051E069E176E08DE197E00E9486
:100780004F30EDE1F7E081E08087878381878287C2
:10079000138614861586168680E498E7ADE7B1E0E7
:1007A0008787908BA18BB28B138A148A158A168A3D
:1007B000178A108E118E128E81E090E0A0E0B0E0DA
:1007C000838F948FA58FB68F178E10A211A212A2BD
:1007D000CF010E9465230C947E0A8091C103813071
:1007E00099F00E946C0D0E94660D809196038F5FB8
:1007F00080939603833030F01092C1038091B30749
:100800000E9472208FEF0895109296030E94700E3E
:10081000813091F56091FF056D306CF18091CC03D2
:10082000811107C01092C1038091B3070E9472200A
:1008300022C080910106909102060E94461180918B
:100840000106909102062091FF05820F911D27FD60
:100850009A95FC01319720812A3CA1F6319720819D
:100860002E3F81F6319720812E3B61F631978081B2
:100870008F3EC1F2C7CF81E0089508950C94D51042
:1008800081E08093CC03089581E08093CC030895A8
:10089000809199030895009731F090939803809385
:1008A000970381E008958FEF08959093CF0380938D
:1008B000CE0381E08093CD0308958FEF089580E00B
:1008C00090E00895803220F40E94B40C81E00895F5
:1008D0008FEF08958B3168F4682F8093BF0324E174
:1008E00032E140E254E28CEF95E00E94F60C81E0A8
:1008F00008958FEF08959093C7038093C603E5EAA8
:10090000F3E0DC0120E432E44FE050E00E948F325B
:100910006483758386839783108211821282138287
:1009200081E008959093C5038093C4030895CF9206
:10093000DF92EF92FF92CF93DF9300D0CDB7DEB777
:100940006C017B018091C803813009F48DC0442380
:1009500009F48AC06115710509F486C0C114D10477
:1009600009F482C0211108C08091B4072A83498309
:100970000E94402049812A8181E08093C80386E457
:1009800094E090930E0680930D06F601818180938A
:100990004704808180934604858196819093490421
:1009A000809348048091CB0380934B0410924A04B7
:1009B0008185928501969287818790934D048093DB
:1009C0004C04838180934F04828180934E04309144
:1009D000C903F0E13F9FC0011124832B8093500491
:1009E0005E2DF7018CE090E03E2F351B341750F45C
:1009F0003191A0910D06B0910E06A80FB91F3C933E
:100A00000196F2CF445F40930C0621112BC081E088
:100A100090E0A0E0B0E0BC01CD010090B40704C0BC
:100A2000660F771F881F991F0A94D2F70E94E32050
:100A30006B017C01611571058105910521F48FE63B
:100A400092E00E942E120090B40704C0F694E7943E
:100A5000D794C7940A94D2F7C0FC04C08CE492E007
:100A60000E942E1281E001C08FEF0F900F90DF9156
:100A7000CF91FF90EF90DF90CF9008958F929F924B
:100A8000AF92BF92CF92DF92EF92FF920F931F939C
:100A9000CF93DF931F92CDB7DEB74C018B015A0184
:100AA0008091C10321111CC08130F1F48091B30702
:100AB00029830E94402081E090E0A0E0B0E0BC01EA
:100AC000CD010090B30704C0660F771F881F991FE0
:100AD0000A94D2F70E94E3206B017C01298104C0B3
:100AE000813011F48FEF7CC08091FF058C30D4F3FE
:100AF0008C50D5018C9380E0F5019081891778F4B2
:100B0000482F50E0E0910106F0910206E40FF51F36
:100B10009485F801E40FF51F90838F5FEDCF8091EE
:100B20000406992787FD9095D4011E969C938E9379
:100B30001D97809105061F968C931F97809106063E
:100B400050968C9350978091070651968C935197AD
:100B5000E0910106F0910206858190E0982F8827A8
:100B60003481832B18969C938E931797838190E002
:100B7000982F88273281832B16969C938E931597F6
:100B8000818190E0982F88273081832B11969C9348
:100B90008E93878190E0982F88273681832B1A9631
:100BA0009C938E931997818590E0982F88273085A4
:100BB000832B13969C938E93129782851C968C930D
:100BC00021110BC00090B30704C0F694E794D794AA
:100BD000C7940A94D2F7C0FE85CF81E08093C10309
:100BE0000F90DF91CF911F910F91FF90EF90DF90C9
:100BF000CF90BF90AF909F908F900895009751F045
:100C000090930206809301066093000681E0809332
:100C1000C10308958FEF08958093C90308950F933A
:100C20001F93CF93DF93162FD42F052F9FEF909311
:100C30009C0310929B0310929A038093CA03109214
:100C4000CD0383E08093C9031092990380E094E080
:100C50009093C5038093C40380E896E9A8E9B0E0C7
:100C60008093A9039093AA03A093AB03B093AC0322
:100C70001092A5031092A6031092A7031092A80346
:100C80000E94301FC82F8093B3078F3F19F484E26E
:100C900092E009C00E94301FC82F8093B4078F3F95
:100CA00069F48CEF91E00E942E12E0918609F09198
:100CB000870960858EE00E94781D2DC00E94301F3C
:100CC000C82F809311088F3F19F480ED91E0EBCF8E
:100CD00086ED93E0909302068093010680E780936F
:100CE0000006C1E0C093C1031092C8032D2F302F1E
:100CF0004FEF5FEF612F8CEF95E00E94F60C1093A1
:100D0000BF03D093CB0383ED9FEF0E94E70FC09307
:100D1000C003C093BE038C2FDF91CF911F910F9121
:100D200008958091B3070E9440208091B3070895F1
:100D30008091B4070E9440208091B40708952091CB
:100D4000C103213039F4FC011082FB01108280E0E4
:100D500090E008952091FF05FC0120838091040616
:100D6000FB0180838091010690910206089581E045
:100D70008093C10308951092BE030C94750C81E01A
:100D80008093BE030E949B0C809111080C947220EA
:100D900081E08093D90508958091C0030895CF9391
:100DA000DF938091C103813011F08FEF40C0D4E612
:100DB0000E94700EC82F813089F56091FF056D305B
:100DC000ACF18091CC03811107C01092C1038091D6
:100DD000B3070E9472202AC08091010690910206FA
:100DE0000E94461180910106909102062091FF0514
:100DF000820F911D27FD9A95FC01319720812A3C95
:100E0000A1F6319720812E3F81F6319720812E3B2C
:100E100061F6319780818F3EC1F2C7CF84E690E0C2
:100E20000E94492CD15021F68C2F01C081E0DF9126
:100E3000CF9108950F931F93CF939091CC03992353
:100E400009F443C020910C0684E0820F382F3F70D4
:100E500031F087FF02C083E1820F807F805F809343
:100E60000C0680910C06E0910D06F0910E06E80F3D
:100E7000F11D87FDFA9531978AEC808380910C06ED
:100E8000E0910D06F0910E06E80FF11D87FDFA9531
:100E900032978EEF808380910C06E0910D06F091E1
:100EA0000E06E80FF11D87FDFA9533978EEB8083D0
:100EB00080910C06E0910D06F0910E06E80FF11DF1
:100EC00087FDFA9534978FEE808360910C06062F8C
:100ED000112707FD1095E0910D06F0910E06C0E078
:100EE00040E0242F30E0201731073CF42E0F3F1F45
:100EF000D9018C91C80F4F5FF4CF992319F0CF011E
:100F00000E94F710E0910C06FF27E7FDF095E657E9
:100F1000FE4FC0838AE096E00E94720D1092C803D3
:100F20008091B4070E94722081E0CF911F910F91B0
:100F30000895CF93DF9300D0CDB7DEB70E94F7239B
:100F40008091C0038823D1F3809111080E94402032
:100F50008A838F3F21F484EB91E00E942E12612C52
:100F6000712C22242A94322C8091CA03813009F0FA
:100F7000E3C0809399036114710409F088C08091E3
:100F8000C803811116C026E434E030930E06209386
:100F90000D063FEF309348043093490410924A0401
:100FA00010924B0410924C0410924D048CE08093EC
:100FB0000C06E0910D06F0910E069091C40380910D
:100FC000C503908781871082E0910D06F0910E068F
:100FD0001182E0910D06F0910E062091C90330E1D7
:100FE000239FC0011124822B82878091C6038387AF
:100FF0008DE993E00E94A62530920B0620920A0606
:101000001092100610920F060E941A070E94660D99
:101010008091D905813009F045C0412C512CC20185
:1010200065E070E00E94AA32892B21F482E090E012
:101030000E94B615E0910D06F0910E068FEF8083A9
:10104000E0910D06F0910E068183E0910D06F0917E
:101050000E061482E0910D06F0910E0615829CE0BA
:1010600090930C060E941A078AE090E00E949E244A
:10107000EFEF4E1A5E0AF8EE4F16F3E05F0679F6D0
:1010800082E090E00E94C3151092D9050BC08DEE4E
:1010900093E00E94F10C2A81213021F47092C30365
:1010A0006092C2033FEF631A730A8091C403909168
:1010B000C5038615970528F48AE090E00E949E24D7
:1010C000ECC18090A5039090A603A090A703B090D8
:1010D000A803C090A903D090AA03E090AB03F090BE
:1010E000AC0300919D0310919E0320919F033091CA
:1010F000A0034091A1035091A2036091A3037091BA
:10110000A4038DE993E00E94B0268DE993E00E944C
:101110008F2620919D0330919E0340919F03509113
:10112000A0036091A1037091A2038091A303909109
:10113000A4030E944A2518CF672809F057C00E94CF
:101140009B0C0E94660D612C712C0E94CF068A8335
:101150008DE993E00E94A6258A81813009F5E0910E
:101160000106F0910206818190E0982F8827208166
:10117000822B258130E0322F22274481242B232B00
:1011800021F48F3F2FEF920721F0892B09F488C1BA
:1011900002C0612C712C31E03093C1038FEF8A8340
:1011A00094E669167104C0F010929903E0919703D8
:1011B000F0919803309729F0C3018456910909955D
:1011C0008983E981E13019F4612C712C05C0F0E3C9
:1011D0006F16F5E77F0618F42FEF621A720A31E0F6
:1011E0003093C1038A81813009F0AFCFE0910106CD
:1011F000F09102069285892F82958F709F70891BCE
:10120000813118F48093BD0302C01092BD03109287
:10121000B5031092B6031092B7031092B803109260
:10122000B9031092BA031092BB031092BC03109240
:10123000AD031092AE031092AF031092B003A091D1
:10124000FF05BB27A7FDB09520E03DE70E9488324F
:10125000DC01CB01935BA74FBF4F8093B103909309
:10126000B203A093B303B093B403612C712C8091AB
:10127000BD0390E06816790640F58090AD0390902C
:10128000AE03A090AF03B090B003C090B103D09074
:10129000B203E090B303F090B4030091B503109152
:1012A000B6032091B7033091B8034091B903509130
:1012B000BA036091BB037091BC0385EB93E00E947D
:1012C000B0269FEF691A790AD2CFE1E0E093990343
:1012D0000E946C0D0E94750C8091CE039091CF03FB
:1012E0006090C4037090C5038615970508F43C010F
:1012F000412C512C4614570441F18090A503909045
:10130000A603A090A703B090A803C090A903D09013
:10131000AA03E090AB03F090AC0300919D03109101
:101320009E0320919F033091A0034091A10350910F
:10133000A2036091A3037091A4038DE993E00E943E
:10134000B026FFEF4F1A5F0AD5CF8090B50390907B
:10135000B603A090B703B090B803C090B903D09083
:10136000BA03E090BB03F090BC0300919D03109181
:101370009E0320919F033091A0034091A1035091BF
:10138000A2036091A3037091A4038DE993E00E94EE
:1013900003268DE993E00E948F2620919D033091D2
:1013A0009E0340919F035091A0036091A10370910F
:1013B000A2038091A3039091A4030E944A258091E7
:1013C000C8038130B1F4E0910D06F0910E06608201
:1013D000E0910D06F0910E06718230920B0620927C
:1013E0000A061092100610920F060E949B0C0E9493
:1013F0001A070E946C0D0E94750C412C512C809193
:10140000C4039091C503861997094816590640F5FB
:101410008090A5039090A603A090A703B090A80386
:10142000C090A903D090AA03E090AB03F090AC0366
:1014300000919D0310919E0320919F033091A00382
:101440004091A1035091A2036091A3037091A40362
:101450008DE993E00E94B0262FEF421A520ACFCFB7
:101460008DE993E00E948F2620919D0330919E0389
:1014700040919F035091A0036091A1037091A2033A
:101480008091A3039091A4030E944A258091BE03FA
:10149000811103C00E94F723F9CF612C712C64CD18
:1014A000828582958F708093C903818590E0982F03
:1014B00088272085822B9093C5038093C403A3853E
:1014C0008A2F90E09093C7038093C603DC0120E449
:1014D00032E44FE050E00E948F326093A903709392
:1014E000AA038093AB039093AC031092A5031092D0
:1014F000A6031092A7031092A80352CE69E977E0E1
:1015000086EB95E00E944B3040E051E066EB74E0E2
:1015100086EB95E00E944F30E6EBF5E084E18087B2
:1015200081E087838187828781E090E0A0E0B0E05E
:1015300083879487A587B6871786108A118A128AAF
:1015400087E090E0A0E0B0E0838B948BA58BB68B16
:10155000178A108E118E128E138E148E158E168E83
:10156000178E10A211A212A2CF010C9465239093A2
:10157000AB088093AA087093A6086093A5084093CF
:10158000A9082093A4086FEF81E00E941D21909389
:10159000A8088093A708019631F40E94A025682F1F
:1015A0008FE00E94781D81E0809310020895CF9310
:1015B000C82F8091A408882351F028EE33E0482FEB
:1015C000429FC001439F900D11240E94492C6091BD
:1015D000A5087091A6088C2F90E0CF910C94FF3352
:1015E0008091AA089091AB080E94C1330895EF92B0
:1015F000FF920F931F93CF93DF93C82FE92ED62F1F
:10160000613810F083E050C08091A7089091A8083D
:101610000E9474218F3F31F48DE293E00E942E12DC
:1016200081E042C080EC0E94D70A81EC0E94D70A78
:101630008D2F0E94D70AFC2E0C2F1E2DC0E0802F6C
:101640008F198D17E8F4F8018081803C41F48BED0F
:101650000E94D70A8CED0E94D70AC0540EC08B3D61
:1016600039F40E94D70A8DED0E94D70AC55205C0F1
:101670000E94D70AF8018081C80F0F5F1F4FDFCF8C
:101680008C2F8F770E94D70A80EC0E94D70A809116
:10169000A7089091A8080E94D3218F3F49F48FEFAB
:1016A00092E00E942E1282E00E94011C8FEF01C086
:1016B00081E0DF91CF911F910F91FF90EF900895FE
:1016C0008091100208958F929F92AF92BF92CF9215
:1016D000DF92EF92FF920F931F93CF93DF937C01E2
:1016E000D62E0E9424128093DE058F3F21F483EED4
:1016F00092E00E942E128091DE050E9440208F3FD2
:1017000021F48EEB92E00E942E1280E00E940B12D8
:10171000811119C081E090E0A0E0B0E0BC01CD01F2
:101720000090DE0504C0660F771F881F991F0A947A
:10173000D2F70E94E3206093DA057093DB05809373
:10174000DC059093DD05812C912C5401839480E07D
:101750000E940B12882379F00E94F00A813CB9F7AD
:101760000E94F00AC82E10E0C0E001EC812C912C00
:10177000540183942BC00E940B128111EDCFC5013F
:10178000B4010090DE0504C0660F771F881F991F03
:101790000A94D2F70E94E3206093DA057093DB0588
:1017A0008093DC059093DD05D7CF0E94F00AD82FF7
:1017B000803C39F18B3D09F445C0CD1508F46CC06F
:1017C0000D2F80E00E940B128111EFCF80E00E946C
:1017D0000B128111F6CFC501B4010090DE0504C0E3
:1017E000660F771F881F991F0A94D2F70E94E32083
:1017F0006093DA057093DB058093DC059093DD053B
:10180000E0CFD12FCC2329F0DF770D1302C08C2F2E
:101810004DC08CEA92E00E942E121F92DF931F921D
:101820000F931F92CF938AE992E09F938F930E9428
:1018300037348DB79EB708960FB6F8949EBF0FBE8B
:101840008DBF28C080E00E940B12811115C0C50118
:10185000B4010090DE0504C0660F771F881F991F32
:101860000A94D2F70E94E3206093DA057093DB05B7
:101870008093DC059093DD050E94F00A8C3D41F0D9
:101880008D3D09F49ACF83E992E00E942E1202C0A6
:10189000D0EC93CF8FEF0AC0CC1508F091CFF701B1
:1018A000EC0FF11DD0831D0FCF5F8ACFDF91CF9159
:1018B0001F910F91FF90EF90DF90CF90BF90AF906E
:1018C0009F908F900895909141019F719F31D9F31E
:1018D0008093420108958093DF05089581E080930D
:1018E000B20808951092B2080895809141018F7155
:1018F0008F31D9F3809141018F71E1F08F30D1F0B8
:10190000809141018F71883031F48091390182607A
:10191000809339010BC088E00E94630C80914101E3
:101920008F718830D9F7F1CF8F3021F0809141014C
:101930008F71D1F70895809141018F718F31D9F363
:10194000809141018F7111F08F3051F480913901F4
:101950008D7F80933901809141018F718830D9F753
:10196000089589E00C94630CE5E4F1E09081907FA8
:10197000908390818F70982B90830895E7E5F1E034
:1019800080818D7F80830895E7E5F1E0808182602A
:1019900080830895EEE6F1E080818F7E8083089554
:1019A000EEE6F1E08081806180830895809360019C
:1019B000909361019093BC088093BB080895909325
:1019C000B6088093B508E8E4F1E08081807E8083EA
:1019D0008081682B608308959093E3058093E205EE
:1019E00008959093E1058093E00508950F931F9368
:1019F000CF93DF93FC01D90180E28093440180EC16
:101A00008093450160626093480185EC80934901B1
:101A100087EA80934B0180E880934C01209360011A
:101A2000B09361014093620150936301C6E4D1E039
:101A30000881888198812881302F329536953770BA
:101A400060E4369F80011124229526952370622F31
:101A5000602B82958695837070E1879F9001112499
:101A6000262B92959695937084E0989FB00111244F
:101A7000622B60936D018881988192959695937001
:101A8000392F3064982F92959670932B90936E0116
:101A900010926C018FEF80934E01C5EBD8E0F98373
:101AA000E8831A821B825D834C83BF83AE831886D2
:101AB00081E08093CF081092E6081092BE08109241
:101AC000B208DF91CF911F910F91089586E10C9498
:101AD000630C86E10C94630C88E00E94630C109206
:101AE000E60808950F931F93CF93DF93FC01809135
:101AF000CF08811102C08FEFABC026818091B7085B
:101B00008F5F8093B70890918101907E916020FB58
:101B100095F99F7390649093810188E88093820186
:101B20008091B208882361F08FEF809383018AEA65
:101B30009AEA90938901809388018FEF9FEF10C0FC
:101B40008091B708809383012091610180916001A9
:101B500090E0922B909389018093880180819181FC
:101B600090938701809386012091630180916201A7
:101B700090E0922B90938501809384018F014281A4
:101B8000552747FD5095638174818AE891E00E9452
:101B90005F33F8018281855F8093800180914101EC
:101BA000D82FDF719FEF9D0F9230C0F3D131B1F389
:101BB000D231A1F3DF3191F398EF9D0F923020F0F5
:101BC0008F70863009F097CF86E10E94630CF80190
:101BD000858181110BC089E00E94630CF801868128
:101BE000882391F089E10E94630C0EC08091480126
:101BF0008068809348018091410187FFFCCF8091EC
:101C0000410186FF78CFE7CF1092BE0882E00E94A4
:101C1000630C80E090E02091BE08211105C0019680
:101C2000883EFDEF9F07B9F7F8012681222331F0A6
:101C30002091420122952695277029F4883E9D4FD8
:101C400011F0C1E001C0CFEF8D2F0E94630C8C2FEB
:101C5000DF91CF911F910F9108951092BE0882E0FD
:101C60000E94630C88EE9DEF2091BE08211104C0F4
:101C70000197D1F78FEF089581E00895CF93DF9317
:101C80008091CF08882341F180914101C82FCF7105
:101C90009FEF9C0F9230C0F3C131B1F3C231A1F379
:101CA000CF3191F3C83019F08F708630A9F486E1F6
:101CB0000E94630C80914801806880934801809164
:101CC000410187FFFCCFD09141018C2F0E94630C12
:101CD000D6FB882780F901C08FEFDF91CF9108955F
:101CE0008091CF08882309F4E3C08091E608882317
:101CF00009F4DCC080917B01E091B508F091B60851
:101D000090E002972481332727FD30952817390763
:101D10000CF4CEC0E091B508F091B6088091820134
:101D20008083E091B508F091B60880918701909189
:101D3000880192838183E091B508F091B608809183
:101D40007B018B508383A091B508B091B608E091D8
:101D5000B508F091B60813969C91848189173CF0E0
:101D6000E091B508F091B608838187FF0DC010920D
:101D7000E60880914C018F7780934C0180914C0153
:101D8000806880934C0194C0A091B508B091B608CA
:101D9000E091B508F091B60813964C91552747FD90
:101DA000509569E871E0858196810E945F3380914A
:101DB000DF05882309F43EC0E091B508F091B6082C
:101DC00083818031B9F5E091B508F091B60865815D
:101DD000768144E050E081E192E00E946833892BF3
:101DE00049F5E091B508F091B6086581768140E14A
:101DF00050E081E192E00E946833892BD9F49DE0A4
:101E000088E10FB6F894A895809360000FBE909378
:101E1000600080E090E00E94D01581E090E00E9498
:101E2000D01582E090E00E94D01583E090E00E94FF
:101E3000D015FFCFE091B508F091B60880918001F0
:101E400085FB882780F98783E091B508F091B60873
:101E5000809147018087E091B508F091B6088091A4
:101E600046018695869586958187E091B508F09123
:101E7000B608809147018287A091B508B091B60855
:101E8000E0917B01F0E0E058FE4F80811B968C933F
:101E90001092E60880914C018F7780934C018091DD
:101EA0004C01806880934C0181E0089580E00895A2
:101EB0008FEF08951F920F920FB60F9211248F93F8
:101EC00080E880934F018F910F900FBE0F901F906D
:101ED00018951F920F920FB60F9211248F9381E0E5
:101EE0008093BE0880E480934F018F910F900FBEC6
:101EF0000F901F9018951F920F920FB60F921124FA
:101F00008F9380E280934F018F910F900FBE0F90BF
:101F10001F9018951F920F920FB60F9211248F9356
:101F200080E180934F018F910F900FBE0F901F9013
:101F300018951F920F920FB60F9211240BB60F92A5
:101F40002F933F934F935F936F937F938F939F93C1
:101F5000AF93BF93EF93FF9384E080934F01E091A1
:101F6000E205F091E305309709F00995FF91EF91B3
:101F7000BF91AF919F918F917F916F915F914F91A1
:101F80003F912F910F900BBE0F900FBE0F901F909F
:101F900018951F920F920FB60F9211248F9382E023
:101FA00080934F018F910F900FBE0F901F90189547
:101FB0001F920F920FB60F9211248F9381E080939E
:101FC0004F018F910F900FBE0F901F901895E9E46D
:101FD000F1E09081907F908390818F70982B908317
:101FE00008958FEF08950895089508958FEF089547
:101FF0008091B0089091B1080895089581E0089506
:1020000081E0089581E00895089508950895089560
:10201000089508950895089598988DB1806E8DB9AA
:102020008EB1806A8EB9089598988DB1806E8DB901
:102030008EB180668EB90895CF92DF92EF92FF92B3
:102040000F931F93CF93DF93CDB7DEB727970FB6CC
:10205000F894DEBF0FBECDBF0E94F716E091B50821
:10206000F091B608C080D380E580F68000850E949C
:10207000700E18161CF085EA92E006C0F701108178
:10208000111107C084EC92E00E9451340E94F916AD
:1020900031C0153021F48AE090E00E944B34C70132
:1020A00001969F938F93802F992787FD90959F93FB
:1020B0000F931F921F931F92CF9286EE92E09F93F1
:1020C0008F930E943734FD82EC821150F701108308
:1020D000DB821E821F828FEF9FEF9A8389830E948B
:1020E000F916CE0101960E94720D0FB6F894DEBF6C
:1020F0000FBECDBF27960FB6F894DEBF0FBECDBF83
:10210000DF91CF911F910F91FF90EF90DF90CF90D3
:1021100008951F920F920FB60F9211240BB60F92D3
:102120002F933F934F935F936F937F938F939F93DF
:10213000AF93BF93EF93FF9380E090917B0189175A
:1021400010F48F5FFACF8091460187FF04C081E0D1
:102150008093E60804C08FE093E00E94513488E049
:1021600080934F018091460187FF05C08091B2089E
:1021700081110E941C10E091E005F091E10530977B
:1021800009F00995FF91EF91BF91AF919F918F91C8
:102190007F916F915F914F913F912F910F900BBE67
:1021A0000F900FBE0F901F901895AFEBB8E0FC0199
:1021B000409620812D93219120933F01E817F90744
:1021C000C1F780E110923E018150E1F780E88093F1
:1021D0003C0180913D0180FFFCCFE0EDF8E080E123
:1021E0008E0F90913F0191938E13FBCF0895CF9363
:1021F000DF93DC01662309F445C0862F8F7009F058
:1022000041C0EFEBF8E090E19E0F219120933F0158
:102210009E13FBCF90E070E0E0E240E1949F9001DC
:102220001124261737077CF5911103C010923C0149
:1022300002C0E0933C0140E050E02A0F3B1FE9015F
:10224000C40FD51FF881F0933E014F5F5F4F4031BF
:102250005105A9F740913C01406840933C014091F1
:102260003D0140FFFCCF40E050E0F0913E01E9012C
:10227000C40FD51FF8834F5F5F4F40315105A9F759
:102280009F5FCBCF81E0DF91CF9108950F931F9394
:10229000CF93DF93DC01613009F458C0862F8F7033
:1022A00009F054C0E0EDF8E090E19E0F21912093F9
:1022B0003F019E13FBCF62956F70615078E06F3FD6
:1022C00009F445C070933C01462F552747FD5095B2
:1022D00020E030E0ED0190E16902C00DD11D112434
:1022E000FE01E20FF31F908190933E012F5F3F4F5D
:1022F00020313105A9F790913C01906890933C0101
:1023000090913D0190FFFCCF4150510994E0440F62
:10231000551F9A95E1F720E030E090913E018E0143
:10232000020F131FF8019083662349F0F901E40FAF
:10233000F51FEA0FFB1FE0819E27F80190832F5FB6
:102340003F4F2031310549F76150B9CF81E0DF912E
:10235000CF911F910F9108959091C00095FFFCCFF0
:102360009091C0009F7D9093C0008093C600089517
:102370001F920F920FB60F9211240BB60F922F934C
:102380003F934F935F936F937F938F939F93AF93FD
:10239000BF93EF93FF930E94F7168091C00087FFD1
:1023A000FCCF8091C0008F778093C0002091C60041
:1023B0008091F5059091F605FC01EB51FA4F2083D1
:1023C00001968031910529F09093F6058093F505EB
:1023D00004C01092F6051092F5058091E4050E9464
:1023E00072208091C0008F778093C0000E94F91600
:1023F000FF91EF91BF91AF919F918F917F916F91DD
:102400005F914F913F912F910F900BBE0F900FBE98
:102410000F901F90189581110DC081E04091F70534
:102420005091F8052091F5053091F60542175307B4
:1024300051F408C0813031F48091C800881F88278A
:10244000881F089580E008958091E4058F3F19F476
:102450008EE00E94691D8091E4050895CF93DF937B
:10246000FC012491EC012196222351F06091E109B5
:102470007091E209822F90E00E94FF33CE01F0CFED
:10248000DF91CF9108952091F7053091F805809163
:10249000F5059091F60528173907A9F48091E40510
:1024A0000E94402081E090E0A0E0B0E0BC01CD01BE
:1024B0000090E40504C0660F771F881F991F0A94D7
:1024C000D2F70E94E3206F3F21F48AE593E00E9457
:1024D0002E122091F7053091F805F901EB51FA4FD2
:1024E00080812F5F3F4F2031310528F43093F8056C
:1024F0002093F70508951092F8051092F7050895B6
:1025000086E084B985B988E38AB980E38BB982E033
:102510008DB994E090BB83BB11BA84BB08950C9431
:1025200080128F3F09F46CC0E82FE7704E2F50E007
:102530004730510508F064C0FA01E057FF4F869517
:10254000869586950C943F3342B121E030E0B90185
:1025500002C0660F771F8A95E2F7CB01842B82B900
:102560004DC045B121E030E0B90102C0660F771FD0
:102570008A95E2F7CB01842B85B940C048B121E0B0
:1025800030E0B90102C0660F771F8A95E2F7CB01F0
:10259000842B88B933C04BB121E030E0B90102C0CF
:1025A000660F771F8A95E2F7CB01842B8BB926C083
:1025B0004EB121E030E0B90102C0660F771F8A9565
:1025C000E2F7CB01842B8EB919C041B321E030E092
:1025D000B90102C0660F771F8A95E2F7CB01842B01
:1025E00081BB0CC044B321E030E0B90102C0660FEA
:1025F000771F8A95E2F7CB01842B84BB81E0089595
:102600008FEF08958F3F09F473C0E82FE7704E2FC6
:1026100050E04730510508F06BC0FA01E956FF4F12
:102620008695869586950C943F3342B121E030E043
:10263000B90102C0660F771F8A95E2F7CB0180953A
:10264000842382B953C045B121E030E0B90102C012
:10265000660F771F8A95E2F7CB018095842385B9B1
:1026600045C048B121E030E0B90102C0660F771FD4
:102670008A95E2F7CB018095842388B937C04BB1A6
:1026800021E030E0B90102C0660F771F8A95E2F7BA
:10269000CB01809584238BB929C04EB121E030E075
:1026A000B90102C0660F771F8A95E2F7CB018095CA
:1026B00084238EB91BC041B321E030E0B90102C0D0
:1026C000660F771F8A95E2F7CB018095842381BB43
:1026D0000DC044B321E030E0B90102C0660F771F9E
:1026E0008A95E2F7CB018095842384BB81E008952D
:1026F0008FEF08958F3F31F1E82FE7704E2F50E0B4
:1027000047305105F8F4FA01E256FF4F282F26957D
:10271000269526950C943F3390B10BC093B109C018
:1027200096B107C099B105C09CB103C09FB101C06B
:1027300092B3892F90E002C0959587952A95E2F78C
:10274000817008958FEF08958F3F09F406C1E82F37
:10275000E7704E2F50E04730510508F0FEC0FA01F7
:10276000EB55FF4F8695869586950C943F3320B1A7
:1027700030E0082E02C0359527950A94E2F742B161
:1027800020FD0BC021E030E0B90102C0660F771FC9
:102790008A95E2F7CB01842B0BC021E030E0B90130
:1027A00002C0660F771F8A95E2F7CB0180958423DC
:1027B00082B916C023B130E0082E02C035952795A6
:1027C0000A94E2F745B120FD0DC021E030E0B901E7
:1027D00002C0660F771F8A95E2F7CB01842B85B97B
:1027E00081E0089521E030E0B90102C0660F771F53
:1027F0008A95E2F7CB0180958423F1CF26B130E0B2
:10280000082E02C0359527950A94E2F748B120FDBD
:102810000BC021E030E0B90102C0660F771F8A9536
:10282000E2F7CB01842B0BC021E030E0B90102C0FC
:10283000660F771F8A95E2F7CB018095842388B9CC
:10284000CFCF29B130E0082E02C0359527950A94E4
:10285000E2F74BB120FD0BC021E030E0B90102C02E
:10286000660F771F8A95E2F7CB01842B0BC021E01E
:1028700030E0B90102C0660F771F8A95E2F7CB01FD
:10288000809584238BB9ACCF2CB130E0082E02C0E8
:10289000359527950A94E2F74EB120FD0BC021E053
:1028A00030E0B90102C0660F771F8A95E2F7CB01CD
:1028B000842B0BC021E030E0B90102C0660F771F06
:1028C0008A95E2F7CB01809584238EB989CF2FB109
:1028D00030E0082E02C0359527950A94E2F741B3FF
:1028E00020FD0BC021E030E0B90102C0660F771F68
:1028F0008A95E2F7CB01842B0BC021E030E0B901CF
:1029000002C0660F771F8A95E2F7CB01809584237A
:1029100081BB66CF2FB130E0082E02C035952795D8
:102920000A94E2F744B320FD0BC021E030E0B90186
:1029300002C0660F771F8A95E2F7CB01842B0BC08C
:1029400021E030E0B90102C0660F771F8A95E2F7F7
:10295000CB018095842384BB43CF8FEF08958F3FB5
:1029600009F4F8C0E82FE7704E2F50E061118AC0DB
:102970004730510508F0EEC0FA01E455FF4F869547
:10298000869586950C943F3341B121E030E0B90142
:1029900002C0660F771F8A95E2F7CB01962F9095BC
:1029A000942391B992B1892B82B9D2C044B121E06C
:1029B00030E0B90102C0660F771F8A95E2F7CB01BC
:1029C000962F9095942394B995B1892B85B9C0C061
:1029D00047B121E030E0B90102C0660F771F8A9548
:1029E000E2F7CB01962F9095942397B998B1892B54
:1029F00088B9AEC04AB121E030E0B90102C0660F2B
:102A0000771F8A95E2F7CB01962F909594239AB978
:102A10009BB1892B8BB99CC04DB121E030E0B9014D
:102A200002C0660F771F8A95E2F7CB01962F90952B
:102A300094239DB99EB1892B8EB98AC040B321E001
:102A400030E0B90102C0660F771F8A95E2F7CB012B
:102A5000962F9095942390BB91B3892B81BB78C01E
:102A600043B321E030E0B90102C0660F771F8A95B9
:102A7000E2F7CB01962F9095942393BB94B3892BC7
:102A800084BB66C04730510508F064C0FA01ED54BC
:102A9000FF4F8695869586950C943F3341B121E092
:102AA00030E0B90102C0660F771F8A95E2F7CB01CB
:102AB000842B81B94DC044B121E030E0B90102C09E
:102AC000660F771F8A95E2F7CB01842B84B940C04B
:102AD00047B121E030E0B90102C0660F771F8A9547
:102AE000E2F7CB01842B87B933C04AB121E030E053
:102AF000B90102C0660F771F8A95E2F7CB01842BDC
:102B00008AB926C04DB121E030E0B90102C0660F9C
:102B1000771F8A95E2F7CB01842B8DB919C040B39A
:102B200021E030E0B90102C0660F771F8A95E2F715
:102B3000CB01842B80BB0CC043B321E030E0B90152
:102B400002C0660F771F8A95E2F7CB01842B83BB07
:102B500081E008958FEF0895811106C080B18695B8
:102B6000817091E0892708958FEF0895009711F4FF
:102B700083E203C0019729F48BE20E94A41381E051
:102B800008958FEF0895009711F483E203C0019731
:102B900029F48BE20E94911281E008958FEF08954D
:102BA000009711F483E203C0019729F48BE20E949D
:102BB000021381E008958FEF0895882319F085B7F7
:102BC0008F7E02C085B7806185BF81E008959091B6
:102BD000C80095FFFCCF8093CE0008959093C50068
:102BE0008093C40086E08093C200E1ECF0E0808135
:102BF0008B7F8083A0ECB0E08C9182608C9380818D
:102C00008861808308959093CD008093CC0086E006
:102C10008093CA00E9ECF0E080818B7F8083A8EC90
:102C2000B0E08C9182608C9380818861808308956C
:102C30000E94EE1563E472E18CEA91E10E94763322
:102C40009093E2098093E10963E472E18CEA91E1F7
:102C50000E9476339093E0098093DF090E94301F31
:102C60008093E4058F3F19F48EE00E94691D109255
:102C7000F8051092F7051092F6051092F50580916F
:102C8000C10080688093C10008958091C80087FFCB
:102C9000FCCF8091C8008F778093C8008091CE00D0
:102CA000089500000000000000000197D1F708958A
:102CB0000C940F350E9417350895EF92FF920F93F1
:102CC0001F93CF93DF937C0180E090E00E940F354B
:102CD000182FF701838381E090E00E940F35082FC1
:102CE000F701828382E090E00E940F35D82FF70130
:102CF000818383E090E00E940F35C82FF701808325
:102D000084E090E00E940F35100FD10FCD0F8C178B
:102D100011F08FEF01C081E0DF91CF911F910F91F2
:102D2000FF90EF900895CF93DF93EC0185E090E062
:102D30000E940F35888381E0DF91CF910895FC01D7
:102D4000608186E090E00E94173581E00895CF937E
:102D5000DF93EC0186E090E00E940F35888381E0EC
:102D6000DF91CF9108950F931F93CF93DF938C0141
:102D7000C0E0D0E0CE0108960E940F35F8018193A3
:102D80008F012196C031D105A9F781E0DF91CF9164
:102D90001F910F9108950F931F93CF93DF938C0191
:102DA000C0E0D0E0F80161918F01CE0108960E9449
:102DB00017352196C031D105A9F781E0DF91CF9178
:102DC0001F910F910895CF93DF93EC0187E090E07E
:102DD0000E940F35888381E0DF91CF910895FC0137
:102DE000608187E090E00E94173581E00895F894B3
:102DF0000895789408950E94F716FFCFCF93DF933C
:102E0000CDB7DEB7A3970FB6F894DEBF0FBECDBF28
:102E10000E94301F809376098F3F21F460E08EE09E
:102E20000E94781D0E94132E80FF04C060E086E09F
:102E30000E94781D0E942A308F3F31F40E940D308D
:102E400060E080E10E94781D0E941B301092790999
:102E500010928709109286091092780910927709CA
:102E6000109288090E94BE18109285098FEF8093F6
:102E70006C0980936E0980936D0980936F0980932C
:102E8000710980937009809372098093740980930B
:102E9000730993E69093F3088093F10890931E09C9
:102EA00080931C09909349098093470982EC99E02B
:102EB00047EC59E05093C6094093C5099093C9095E
:102EC0008093C8092CEC39E03093CB092093CA09D0
:102ED0005093CE094093CD0941ED59E05093D0096C
:102EE0004093CF093093D3092093D2091092C4099B
:102EF0001092C3091092D5091092D40910927C093E
:102F000010927B099093E8088093E70860E378E2E9
:102F1000CE0101960E944B3040E850E064E278E038
:102F2000CE0101960E944F3085E5809324081986D2
:102F30001C861D861E861F86188A198A1A8A1B8A75
:102F40001C8A1D8A1E8A1F8A188E198E1A8E1B8E45
:102F50001C8E1D8E1E8E1F8E18A219A21AA21BA2D5
:102F600081E0888792E09A878B87CE0101960E9444
:102F70006523A3960FB6F894DEBF0FBECDBFDF91D9
:102F8000CF91089501EF18E0C0E0F801D080FFEF85
:102F9000DF1222C0CF5F055D1F4FC330B1F70E9423
:102FA00054222BE28202C0011124FC01E751F74FA9
:102FB000828580938809F0938709E0938609F093CE
:102FC0007809E0937709809379090E94C1300E94C3
:102FD000AB300E94C53016C081EFE82E88E0F82E95
:102FE000D0E0CD1741F0F7018081D81204C06D2DDB
:102FF00085E00E94781DDF5FFBE2EF0EF11CD3300D
:1030000081F7C8CFFFCFCF92DF92EF92FF920F935D
:103010001F93CF93DF93EC018B017A018985823076
:1030200021F080917509888301C01882809175090B
:10303000833020F060E087E00E94781D898582302F
:1030400029F0809175098F5F8093750980917509CA
:10305000811103C081E08093750938812BE232032E
:10306000F0011124E751F74F11830083888582878F
:1030700038813203F0011124E751F74F83E0818753
:1030800038813203F0011124E751F74F308708816E
:103090000203800111240751174FF8011582CE0158
:1030A0000B960E94C227F80161A372A383A394A385
:1030B0008B859C85AD85BE8588339948A144B10533
:1030C00020F0688186E10E94781DC880DD24C7FC5D
:1030D000D094CE014B960E94C2271BE21C9DF001AA
:1030E0001D9DF00D1124E751F74F658B768B878B73
:1030F000908F28812103C00111249C012751374F53
:103100006901F901458956896789708D81A192A16C
:10311000A3A1B4A1840F951FA61FB71F818F928F03
:10312000A38FB48FCE0143960E94C227F60165A3F8
:1031300076A387A390A728812103F0011124E751EA
:10314000F74F85A196A1A7A1B0A5858F968FA78FD0
:10315000B0A381E090E092A781A7F382E282848706
:10316000DF91CF911F910F91FF90EF90DF90CF9063
:1031700008950C944A2885E690E00895109211066F
:103180001092120610921306109214061092150651
:10319000109216061092170610921806E6EBF7E04A
:1031A00080E090E0108211821282138210861186D4
:1031B000128613861482158216821782148615864B
:1031C00016861786108A118A128A138A108E118E1B
:1031D000128E138EDC01AA54B84F5C961C925C9739
:1031E0005D961C927E964E968A359105D9F6089585
:1031F0000F931F93E1E1F6E0A82FB0E023EB36EE4A
:103200004EE050E00E948F32048115812681378183
:10321000DC01CB01800F911FA21FB31F8483958314
:10322000A683B783CF011F910F910C948F26E1E104
:10323000F6E04081518162817381DC014D935D93A1
:103240006D937C9313974481558166817781FC014E
:10325000448355836683778308952EE1829FC0015E
:103260001124FC01EA54F84F858D813039F0848DAA
:103270008F5F848F8F3F11F481E0858F08952EE159
:10328000829FC0011124FC01EA54F84F858D8130E2
:10329000B1F0148A158A168A178A80899189A289C1
:1032A000B3890196A11DB11D808B918BA28BB38B2D
:1032B0008E3F9F4FAF4FBF4F11F481E0858F089530
:1032C0000F931F932EE1829FC0011124FC01EA5449
:1032D000F84F858D813071F1808D918DA28DB38DE8
:1032E0000196A11DB11D808F918FA28FB38F462FA4
:1032F00050E060E070E00489158926893789040F61
:10330000151F261F371F048B158B268B378B0081CB
:10331000118122813381400F511F621F731F40832F
:103320005183628373838E3F9F4FAF4FBF4F11F422
:1033300081E0858F1F910F910895CF92DF92EF92D8
:10334000FF92282F30E09EE1899FF0011124EA547A
:10335000F84F858D813009F44BC0462F50E060E076
:1033600070E084899589A689B789840F951FA61F67
:10337000B71F84879587A687B787C080D180E280F2
:10338000F3804C0D5D1D6E1D7F1D40835183628354
:1033900073834481558166817781411551056105AB
:1033A000710529F084179507A607B70760F44EE169
:1033B000429FF001439FF00D1124EA54F84F84839B
:1033C0009583A683B7834EE1429FF001439FF00DA2
:1033D0001124EA54F84F408551856285738548175A
:1033E00059076A077B0720F480879187A287B387F4
:1033F000FF90EF90DF90CF9008958F929F92AF92C1
:10340000BF92CF92DF92EF92FF920F931F93CF93D1
:10341000DF93CDB7DEB728970FB6F894DEBF0FBEA7
:10342000CDBF182F80E594E00E942E12A12EB12C62
:103430001F921F9388E293E09F938F930E943734EB
:103440000F900F900F900F90111152C085E394E0F0
:103450000E942E12CE0101960E94A6256D817E81CA
:103460008F819885E0E4CE2EE2E4DE2EEFE0EE2EB2
:10347000F12CA70196010E94BE325F934F933F93B8
:103480002F938C818F938B818F938A818F938981E6
:103490008F930BE213E01F930F930E94373484E164
:1034A00094E00E942E12609115067091160680918C
:1034B000170690911806A70196010E94BE325F93ED
:1034C0004F933F932F93809114068F93809113060F
:1034D0008F93809112068F93809111068F931F9383
:1034E0000F930E9437340FB6F894DEBF0FBECDBFE6
:1034F00083E094E00E942E128EE18A9D80018B9DD4
:10350000100D11240A54184FF801608171818281D5
:1035100093810E948B2729833A834B835C836D833D
:103520007E838F8398876D817E818F81988520E44B
:10353000822E22E4922E2FE0A22EB12CA50194011E
:103540000E94BE325F934F933F932F938C818F9352
:103550008B818F938A818F9389818F933BE2E32EB6
:1035600033E0F32EFF92EF920E94373488EE93E01F
:103570000E942E12F80164817581868197810E94D4
:103580008B2729833A834B835C836D837E838F8370
:1035900098876D817E818F819885A50194010E9415
:1035A000BE325F934F933F932F938C818F938B8188
:1035B0008F938A818F9389818F934BE3C42E43E04D
:1035C000D42EDF92CF920E943734F801648575853E
:1035D000868597850E948B2729833A834B835C835A
:1035E0006D837E838F8398876D817E818F8198859F
:1035F000A50194010E94BE325F934F933F932F9396
:103600008C818F938B818F938A818F9389818F9304
:10361000DF92CF920E943734F801608571858285F0
:1036200093850E948B2729833A834B835C836D8328
:103630007E838F8398876D817E818F819885A50198
:1036400094010E94BE325F934F933F932F938C81DE
:103650008F938B818F938A818F9389818F93FF9230
:10366000EF920E9437340FB6F894DEBF0FBECDBF85
:1036700088ED93E00E942E12F801709683818F935B
:1036800082818F9381818F93F80180898F935DE48C
:10369000E52E53E0F52EFF92EF920E94373485EC31
:1036A00093E00E942E12F801789683818F93828195
:1036B0008F9381818F93F801808D8F93FF92EF928A
:1036C0000E9437348CEA93E00E942E12F801848D18
:1036D0001F928F9361E5E62E63E0F62EFF92EF9244
:1036E0000E9437348FE893E00E942E12F801858DF6
:1036F0001F928F93FF92EF920E9437348CE893E0F1
:103700000E942E120FB6F894DEBF0FBECDBF2896D2
:103710000FB6F894DEBF0FBECDBFDF91CF911F91E2
:103720000F91FF90EF90DF90CF90BF90AF909F9060
:103730008F9008958FE693E00E942E1280E00E9401
:10374000FD1981E00E94FD1982E00C94FD19DB0156
:10375000833008F054C09EE1899FF0011124EA549F
:10376000F84F40815181628173814D935D936D93D8
:103770007C931397448155816681778114964D938C
:103780005D936D937C931797408551856285738512
:1037900018964D935D936D937C931B974485558547
:1037A000668577851C964D935D936D937C931F97EB
:1037B000408951896289738950964D935D936D93C9
:1037C0007C935397448955896689778954964D939C
:1037D0005D936D937C935797408D518D628D738D62
:1037E00058964D935D936D937C935B97848D5C9617
:1037F0008C935C97858D5D968C9381E008958FEF17
:103800000895E0918609F091870984870895E091F1
:103810008609F091870984850895CF93DF93D82F87
:10382000C62F80E092E00E9458168F5F8F3F19F0FC
:103830008093F90502C01092F9052091F90536E050
:10384000239FC00111246D2F8F5F9D4F0E945A1638
:103850008091F90546E0849FC00111246C2F8E5F92
:103860009D4F0E945A162091F90540917D09509173
:103870007E0960917F0970918009672F77278827DB
:10388000992746E0249F90011124C9018D5F9D4F27
:103890000E945A162091F90540917D0950917E09A8
:1038A00060917F09709180098827992746E0249FBD
:1038B00090011124C9018C5F9D4F0E945A162091DE
:1038C000F90540917D0950917E0960917F097091C1
:1038D00080099927872F762F652F46E0249F900136
:1038E0001124C9018B5F9D4F0E945A168091F905E2
:1038F00026E0829FC001112460917D098A5F9D4F5F
:103900000E945A166091F90580E092E0DF91CF9114
:103910000C945A16FC0180911008882331F0DB01C9
:103920008C9380910806808381E00895809110082F
:10393000882309F483C087E896E00E942E128091C4
:1039400008061F928F9388E293E09F938F930E94C3
:10395000373483E896E00E942E120F900F900F905C
:103960000F9080911008883110F010921008E091AB
:1039700010088E2F90E0FC013197E631F10508F038
:1039800046C0E654FF4F0C943F3387E496E041C0B5
:1039900080E296E03EC08CE096E03BC086EF95E08A
:1039A00038C08BED95E035C085EC95E032C08DEAEE
:1039B00095E02FC08AE995E02CC087E895E029C002
:1039C00089E695E026C084E495E023C088E395E08D
:1039D00020C08DE195E01DC08EE095E01AC08AEF11
:1039E00094E017C089EE94E014C085ED94E011C016
:1039F00085EB94E00EC08DE994E00BC082E894E082
:103A000008C081E794E005C082E694E002C08BE53F
:103A100094E00E942E126091E1097091E2098DE01C
:103A200090E00E94FF336091E1097091E2098AE021
:103A300090E00E94FF3380911008089580E008957F
:103A400013BC1092B60018BC17BC16BC15BC14BC35
:103A50001DBA1CBA1BBA10929B0010929A001092C9
:103A60009900109298001092950010929400109274
:103A700091001092900018BA109271001092B40048
:103A80001092B3001092B2001092B100E0EBF0E09F
:103A90001082108217BA109270008FEF84BF0895C1
:103AA0000E94F7160E940D3080911008803171F04D
:103AB0008351823058F00E94201D83E996E00E94D5
:103AC0002E120E941B300E94F716FFCF1092100892
:103AD000089580931008E0918609F0918709608528
:103AE000609308060E940D1C0E94961C0C94501DA9
:103AF00080931008609308060E940D1C0E94961C7B
:103B00000C94501DCF93DF931F92CDB7DEB719826F
:103B10008981843640F480ED97E00E94492C8981A8
:103B20008F5F8983F5CF0F90DF91CF91089580E06B
:103B300090E00E94D0150E94821D0E94821D0E946A
:103B4000821D80E090E00E94C3150C94821D80E0ED
:103B500090E00E94D0150E94821D80E090E00E94BB
:103B6000C3150C94821DFF920F931F93CF93DF9385
:103B700000D01F92CDB7DEB71F928F9388E293E0FB
:103B80009F938F938E010F5F1F4F1F930F930E9480
:103B900081340F900F900F900F900F900F90F12C99
:103BA000F80101900020E9F73197E01BF10B8F2D10
:103BB00090E08E179F0708F05DC0F801E80FF91F2D
:103BC000E0818E2F90E0FC01F097EA30F10508F0DB
:103BD00049C0E053FF4F0C943F330E94971D02C031
:103BE0000E94A71D0E94971D0E94971D0E94971D6D
:103BF0000E94971D37C00E94A71D0E94A71DF4CFE9
:103C00000E94A71D0E94A71D0E94A71DEFCF0E9422
:103C1000A71D0E94A71D0E94A71D0E94A71DE8CFF7
:103C20000E94A71D02C00E94971D0E94A71D04C0EC
:103C30000E94971D0E94971D0E94A71D06C00E940A
:103C4000971D0E94971D0E94971D0E94A71D08C0E6
:103C50000E94971D0E94971D0E94971D0E94971D0C
:103C60000E94A71D0E94821D0E94821D0E94821D2B
:103C7000F39496CF0F900F900F90DF91CF911F91FB
:103C80000F91FF9008956F927F928F929F92AF92C3
:103C9000BF92CF92DF92EF92FF920F931F93CF9339
:103CA000DF9383EA96E00E942E12E0918609F0915C
:103CB00087098085282F332727FD30953F938F93E1
:103CC00084E593E09F938F930E943734E0918609B7
:103CD000F0918709C281D381DF93CF9388E893E085
:103CE0009F938F930E94373488811F928F938DE525
:103CF00093E09F938F930E943734E0918609F0916F
:103D0000870981818F9380818F938AE693E09F93C7
:103D10008F930E943734809187098F938091860911
:103D20008F9384E793E09F938F930E943734C9EE7B
:103D3000D8E0EDB7FEB774960FB6F894FEBF0FBE8D
:103D4000EDBF00E010E084E8682E83E0782E9DE56A
:103D5000892E93E0992E2AE6A22E23E0B22E34E794
:103D6000C32E33E0D32EEA80FB80FF92EF921F93A5
:103D70000F937F926F920E943734F70180811F92D8
:103D80008F939F928F920E94373489818F9388817D
:103D90008F93BF92AF920E943734DF93CF93DF921D
:103DA000CF920E9437340F5F1F4FAB96EDB7FEB72F
:103DB00072960FB6F894FEBF0FBEEDBF033011052B
:103DC00091F6DF91CF911F910F91FF90EF90DF90CF
:103DD000CF90BF90AF909F908F907F906F900895FD
:103DE000CF93DF93E0918609F0918709C281D38157
:103DF0008881853539F00E94431E81E00E94691D4B
:103E000085E58883E0918609F09187098081918119
:103E10008115924438F00E94431E82E1DF91CF91D8
:103E20000C94691DDF91CF9108952BE28202C001AD
:103E30001124FC01E751F74FA281B3818C918535A4
:103E400019F085E58C9308C0808191818115924499
:103E500028F082E10E94691D8FEF089581E00895A6
:103E60000F931F934091190750911A0760911B07F8
:103E700070911C0780E090E08A019B01082E04C02D
:103E800036952795179507950A94D2F700FD19C026
:103E900001E010E020E030E0082E04C0000F111F08
:103EA000221F331F0A94D2F7402B512B622B732B06
:103EB0004093190750931A0760931B0770931C07D0
:103EC00005C0019680329105B9F68FEF1F910F91D1
:103ED0000895E0918609F091870965857685878543
:103EE00090890895CF92DF92EF92FF920F931F93E4
:103EF000CF93DF93C12CD12C7601C394082E04C03C
:103F0000CC0CDD1CEE1CFF1C0A94D2F74091190763
:103F100050911A0760911B0770911C074C215D217D
:103F20006E217F21452B462B472B09F460C0082FBB
:103F30000E94F716E2EFF8E0B701A6014095509510
:103F40006095709513E0DF0111978C918F3F39F1E7
:103F500084819581A681B7818C159D05AE05BF052D
:103F600051F410861186128613869F012250310962
:103F7000E9011882108384239523A623B723848321
:103F80009583A683B78380859185A285B385842395
:103F90009523A623B72380879187A287B387BB96F3
:103FA000D9E0E337FD0779F68EEF9FEFAFEFBFEF74
:103FB00004C0880F991FAA1FBB1F0A95D2F7409112
:103FC000190750911A0760911B0770911C078423F1
:103FD0009523A623B7238093190790931A07A093DC
:103FE0001B07B0931C070E94F91681E001C08FEFF8
:103FF000DF91CF911F910F91FF90EF90DF90CF90C5
:1040000008950F931F9341E050E060E070E08A0153
:104010009B0104C0000F111F221F331F8A95D2F786
:10402000D901C801E0918609F09187094585568537
:10403000678570890423152326233723012B022B40
:10404000032BD1F080959095A095B09548235923E6
:104050006A237B23458756876787708B41895289FE
:104060006389748984239523A623B723818B928B3C
:10407000A38BB48B81E001C08FEF1F910F91089546
:10408000282F4091190750911A0760911B077091D2
:104090001C07082E04C076956795579547950A9496
:1040A000D2F740FF1DC0E0918609F091870981E0B9
:1040B00090E0A0E0B0E004C0880F991FAA1FBB1FCA
:1040C0002A95D2F74585568567857089842B952B6F
:1040D000A62BB72B85879687A787B08B81E008959D
:1040E0008FEF0895CF92DF92EF92FF92CF93C12C82
:1040F000D12C7601C39404C0CC0CDD1CEE1CFF1C3B
:104100008A95D2F78091190790911A07A0911B0701
:10411000B0911C078C219D21AE21BF21892B8A2BB8
:104120008B2B11F481E044C00E94F716E0EFF8E019
:10413000A2EFB8E0C0E083E090819130B9F442850D
:104140005385648575854C215D216E217F21452B2A
:10415000462B472B59F08C9316861786108A118AA6
:104160001082C286D386E486F586C1E090819230C3
:10417000A1F442855385648575854C155D056E05F2
:104180007F0559F48C9316861786108A118A10823F
:104190001286138614861586C1E0BB969B9699E01D
:1041A000E137F90749F60E94F916C11105C082E00E
:1041B0000E94011C8FEF01C081E0CF91FF90EF9032
:1041C000DF90CF9008950F931F93E0918609F091AF
:1041D0008709058516852785308906231723282317
:1041E0003923011511052105310511F1DC01CB0140
:1041F000818B928BA38BB48B21E02783009076096F
:1042000004C0B695A795979587950A94D2F780FF35
:1042100003C00E94CD2404C080E090E00E949E2450
:10422000E0918609F09187090189128923893489EF
:10423000C901B8011F910F9108959091850992309D
:1042400018F520916C092F3F51F020916F092F3FF5
:1042500041F0209172092F3F31F4E2E005C0E0E027
:1042600003C0E1E001C0E3E0F0E09F01220F331F53
:10427000E20FF31FE459F64F8283808361839F5FCF
:1042800090938509CF01089580E090E0089529E09A
:104290008C36920749F029E08F36920739F0825721
:1042A000994031F482E0089580E0089581E0089516
:1042B0008FEF08950E9447218F3F11F481E003C0E2
:1042C000833029F482E00E94011C8FEF0895992722
:1042D00087FD9095FC01EE0FFF1F8E0F9F1FFC01C5
:1042E000E459F64F82810895EF92FF920F931F9346
:1042F000CF93DF931F92CDB7DEB70E9447218F3F48
:1043000011F481E003C0833029F482E00E94011C93
:104310008FEF41C089830E94F7168981E82EFF2420
:10432000E7FCF0948701000F111FF801EE0DFF1D4F
:10433000E459F64F9281911116C0E0918609F091EF
:104340008709978192609783992787FD9095A92F78
:10435000B92F818B928BA38BB48B0E94F91680E0CE
:1043600090E00E949E240E0D1F1DD801A459B64F47
:1043700012968C911297815012968C931297E0911D
:104380008609F091870911968C91838781E0848357
:104390000E94F91681E00F90DF91CF911F910F914C
:1043A000FF90EF9008950F931F93CF93DF931F9289
:1043B000CDB7DEB70E9447218F3F11F481E003C0E3
:1043C000833029F482E00E94011C8FEF44C0482F03
:1043D000552747FD50959A01220F331F240F351F93
:1043E00089010459164FF80122819081291794F50B
:1043F00089830E94F716F80192819F5F9283E09172
:104400008609F09187091482E0EFF8E08981992705
:1044100087FD9095A92FB92F23E03081323099F490
:104420004285538564857585481759076A077B0758
:1044300051F4228316861786108A118A10821286FA
:10444000138614861586BB9639E0E137F30729F702
:104450000E94F91681E00F90DF91CF911F910F918B
:1044600008950E9447218F3F11F481E003C08330FB
:1044700029F482E00E94011C8FEF0895992787FD9F
:104480009095FC01EE0FFF1F8E0F9F1FFC01E4595A
:10449000F64F8FEF808382838183809185098150DD
:1044A0008093850981E00895E0917B09F0917C0972
:1044B00080810895E0917B09F0917C09309721F08B
:1044C0000380F481E02DFACF0895AF92BF92CF928E
:1044D000DF92EF92FF920F931F93CF93DF93E091C0
:1044E000E708F091E808309709F494C000917B093F
:1044F00010917C090115110509F44CC0D8014BE25B
:10450000582F5403900111242751374F79019AE015
:10451000E90EF11C6901C4E0CC0ED11C5901DBE0AD
:10452000AD0EB11C2C9130E0429FB001439F700D45
:1045300011246751774FEB019C81992329F05B850A
:10454000E7019881591740F1E6019881992369F0B4
:10455000429FB001439F700D11246751774FEB01CB
:104560005A85E50198815917B8F0429FB001439FE1
:10457000700D11249B012751374FE9012A85E7016E
:104580009881291748F013960D90BC91A02D109793
:1045900049F602C0A0E0B0E08083C381D481D0930B
:1045A000E808C093E708A017B107B1F4109749F0E5
:1045B000B483A383128211821296FC93EE93119717
:1045C00006C01482138212821182FA83E983F09367
:1045D0007C09E0937B091EC0AC17BD0779F01196EA
:1045E0008D919C91129792838183B483A3831196BA
:1045F000CD91DC911297FC83EB8308C01482138267
:1046000011968D919C911297928381831296FC93BF
:10461000EE931197DF91CF911F910F91FF90EF9043
:10462000DF90CF90BF90AF900895CF93DF93E0914C
:104630007B09F0917C09309709F444C0992787FDE4
:104640009095208130E02817390781F4A381B48147
:10465000B0937C09A0937B0912961C921E9211972D
:1046600018C00380F481E02D309761F1208130E0A3
:1046700028173907B1F7C181D281838194819C8346
:104680008B83A381B481109721F01296DC93CE9393
:104690001197A091E708B091E808109739F4F093CA
:1046A000E808E093E708148213820AC0B483A38366
:1046B0001296FC93EE931197F093E808E093E708C5
:1046C00012821182DF91CF910895EF92FF920F93A2
:1046D0001F93CF93DF93EC014B815C8169817A81D9
:1046E0008D819E810E946D302F81222371F04B813C
:1046F0005C81E12CF12C00E010E020E030E0BC0116
:10470000CE010E9403181F820CC0E8812BE2E20256
:10471000F0011124E751F74F21852330B9F491833B
:104720008083E8818BE2E802F0011124E751F74F22
:1047300085899689A789B08D892B8A2B8B2B41F48B
:1047400082E0818788810E94652202C08FEF01C0CC
:1047500081E0DF91CF911F910F91FF90EF9008952D
:104760001F93CF93DF93CDB7DEB728970FB6F8949A
:10477000DEBF0FBECDBF29833A834B835C836D833D
:104780007E838F8398870E94F7160E94972D182F9B
:10479000CE0101960E94C2276330710598F0E09126
:1047A0008609F0918709212F30E0620F731FCB013A
:1047B000A0E0B0E0858B968BA78BB08F0E94F91696
:1047C00081E001C08FEF28960FB6F894DEBF0FBED0
:1047D000CDBFDF91CF911F9108950E944030E091AD
:1047E0008609F091870985818111F7CF0895CF93CC
:1047F0000E94F01E0E94F716E0918609F091870949
:1048000081E090E092A781A785830E94972DC82F11
:10481000883F80F40E94312D2C2F30E02F5F3F4FD6
:1048200090E02817390734F482E08C0F8093B507A5
:104830000E94352D0E94F9160E94ED2381E0CF9150
:104840000895E0918609F091870980850E941523DB
:10485000E0918609F091870984E081870E94F7231F
:1048600081E00895CF93DF93EC010E94F01E209722
:1048700011F4C1E0D0E00E94F716E0918609F091B2
:10488000870981E08583D2A7C1A70E94972DC82FF1
:10489000883F80F40E94312D2C2F30E02F5F3F4F56
:1048A00090E02817390734F482E08C0F8093B50725
:1048B0000E94352D0E94F9160E94ED2381E0DF91C0
:1048C000CF910895EF92FF920F931F93CF938C0196
:1048D0000E94F716E0918609F091870981E08583AF
:1048E0000E94972DC82FE0918609F0918709E82E44
:1048F000F12CC701800F911FA0E0B0E0858B968B53
:10490000A78BB08FC83F78F40E94312D9FEFE91A32
:10491000F90A90E0E816F90634F482E08C0F8093EF
:10492000B5070E94352D0E94F9160E94ED2381E003
:10493000CF911F910F91FF90EF900895CF93DF9348
:10494000EC010E94F716E0918609F091870921E0B9
:104950002583CE01A0E0B0E0858B968BA78BB08F2E
:104960000E94972DC82F883F80F40E94312D2C2F54
:1049700030E02F5F3F4F90E02817390734F482E092
:104980008C0F8093B5070E94352D0E94F9160E9466
:10499000ED2381E0DF91CF910895CF930E94F71628
:1049A000E0918609F091870981E0858386830E94E2
:1049B000972DC82F883F80F40E94312D2C2F30E096
:1049C0002F5F3F4F90E02817390734F482E08C0FB7
:1049D0008093B5070E94352D0E94F9160E94ED23A1
:1049E00081E0CF9108951F93CF93DF93CDB7DEB7CA
:1049F00028970FB6F894DEBF0FBECDBF29833A8348
:104A00004B835C836D837E838F8398870E94F01E27
:104A10000E94F716E0918609F091870981E085836D
:104A200081E090E092A781A70E94972D182FCE01D8
:104A300001960E94C227E0918609F0918709DC0166
:104A4000CB01810F911DA11DB11D858B968BA78B6D
:104A5000B08F183F80F40E94312D212F30E02F5F5E
:104A60003F4F90E02817390734F482E0810F80939C
:104A7000B5070E94352D0E94F9160E94ED2381E0B2
:104A800028960FB6F894DEBF0FBECDBFDF91CF9151
:104A90001F9108958F929F92AF92BF92CF92DF9213
:104AA000EF92FF920F931F93CF93DF93CDB7DEB7B3
:104AB00060970FB6F894DEBF0FBECDBF29873A8747
:104AC0004B875C876D877E878F87988BCE01019699
:104AD0000E94A62589809A80AB80BC80CD80DE8034
:104AE000EF80F88409851A852B853C854D855E8588
:104AF0006F857889CE0109960E9403268F3F61F069
:104B000029853A854B855C856D857E858F8598895D
:104B10000E94F32481E001C08FEF60960FB6F894F5
:104B2000DEBF0FBECDBFDF91CF911F910F91FF90E0
:104B3000EF90DF90CF90BF90AF909F908F900895AF
:104B4000E0918609F0918709808508950F931F935E
:104B5000CF93DF93EC011C821D821E821F82809105
:104B60007D0990917E09A0917F09B0918009888389
:104B70009983AA83BB838091810990918209A09136
:104B80008309B09184098C839D83AE83BF830E9487
:104B9000972DA82FB0E023EB36EE4EE050E00E94B8
:104BA0008F320C811D812E813F81DC01CB01800F72
:104BB000911FA21FB31F8C839D83AE83BF838C8103
:104BC0009D81AE81BF8181152AEC92072AE9A20757
:104BD0002BE3B20798F09A5CAA49BB438C839D8370
:104BE000AE83BF8388819981AA81BB810196A11D73
:104BF000B11D88839983AA83BB83E1CFDF91CF91D5
:104C00001F910F9108958F929F92AF92BF92CF9272
:104C1000DF92EF92FF920F931F93CF93DF93CDB765
:104C2000DEB760970FB6F894DEBF0FBECDBFFC01B4
:104C300009831A832B833C834D835E836F8378873C
:104C400089869A86AB86BC86CD86DE86EF86F88A14
:104C500009811A812B813C814D815E816F8178852C
:104C6000C984DA84EB84FC848D859E85AF85B88900
:104C70000C151D052E053F05F0F1C016D106E20604
:104C8000F30691F4481759076A077B07A0F1481B00
:104C9000590B6A0B7B0B44835583668377831082A1
:104CA00011821282138225C0481759076A077B07B1
:104CB00080F401501109210931090C191D092E092F
:104CC0003F09008311832283338356536546744C16
:104CD00008C00C191D092E093F0900831183228386
:104CE0003383481B590B6A0B7B0B448355836683C4
:104CF000778381E001C08FEF60960FB6F894DEBF36
:104D00000FBECDBFDF91CF911F910F91FF90EF901C
:104D1000DF90CF90BF90AF909F908F900895FC014F
:104D2000448155816681778141158AEC58078AE96B
:104D300068078BE3780798F05A5C6A497B434483A1
:104D400055836683778380819181A281B3810196A7
:104D5000A11DB11D80839183A283B383E1CF089508
:104D60008F929F92AF92BF92CF92DF92EF92FF927B
:104D70000F931F93CF93DF93CDB7DEB760970FB636
:104D8000F894DEBF0FBECDBF09831A832B833C830B
:104D90004D835E836F83788789869A86AB86BC86CF
:104DA000CD86DE86EF86F88A09851A852B853C85B7
:104DB00049815A816B817C81400F511F621F731F93
:104DC000FC0140835183628373830D851E852F858B
:104DD00038894D815E816F817885400F511F621F38
:104DE000731F44835583668377830E948F2681E0F7
:104DF00060960FB6F894DEBF0FBECDBFDF91CF91A6
:104E00001F910F91FF90EF90DF90CF90BF90AF90E8
:104E10009F908F900895EDE7F9E06083718382831E
:104E20009383248335834683578308952F923F923B
:104E30004F925F926F927F928F929F92AF92BF92AA
:104E4000CF92DF92EF92FF920F931F93FC01C080ED
:104E5000D180E280F380C114D104E104F104E1F1D6
:104E600084819581A681B78122E4C216D104E10430
:104E7000F104F0F51C012D01612C712C4301E0E0DF
:104E80008E2F90E0A0E0B0E08C159D05AE05BF052B
:104E900088F49101A201B301C40136534546544C34
:104EA0006F4F7F4F8F4F9F4F19012A013B014C01DC
:104EB000EF5FE6CF83EBA82E96EEB92E2EE0C22E42
:104EC000D12CE12CF12C00E010E09101A201B30102
:104ED000C4010E94E2320AC0648175818681978193
:104EE00023EB36EE4EE050E00E94BE32C90102C014
:104EF00080E090E01F910F91FF90EF90DF90CF90B6
:104F0000BF90AF909F908F907F906F905F904F90E9
:104F10003F902F900895CF92DF92EF92FF92CF9320
:104F2000DF93CDB7DEB728970FB6F894DEBF0FBE7C
:104F3000CDBF6B017C012AE0F694E794D794C79427
:104F40002A95D1F7C982DA82EB82FC829B01AC01FF
:104F500033704427552763EB76EE8EE090E00E9495
:104F60009A322C2D3A814B815C8128960FB6F894A9
:104F7000DEBF0FBECDBFDF91CF91FF90EF90DF90EE
:104F8000CF9008952F923F924F925F926F927F92AF
:104F90008F929F92AF92BF92CF92DF92EF92FF9249
:104FA0000F931F93FC01C080D180E280F380C11475
:104FB000D104E104F104B9F184819581A681B7811E
:104FC0001C012D01612C712C4301E0E08E2F90E03B
:104FD000A0E0B0E08C159D05AE05BF0588F49101F9
:104FE000A201B301C40136534546544C6F4F7F4F65
:104FF0008F4F9F4F19012A013B014C01EF5FE6CF14
:1050000083EBA82E96EEB92E2EE0C22ED12CE12CE9
:10501000F12C00E010E09101A201B301C4010E9453
:10502000E232CA010BC0648175818681978123EBCE
:1050300036EE4EE050E00E94BE32CA01B9011F9127
:105040000F91FF90EF90DF90CF90BF90AF909F9027
:105050008F907F906F905F904F903F902F9008952A
:10506000C1E00E94F01E0E94312D843010F4C093E4
:105070007A090E94403080912408853519F088E033
:105080000E94691D8091FE40853559F388E00E9499
:10509000691DE7CF2F923F924F925F926F927F925E
:1050A0008F929F92AF92BF92CF92DF92EF92FF9238
:1050B0000F931F93CF93DF930E94F9168AEF0E94FC
:1050C000352D0E9431300E94FF2AC091B507AC2FC8
:1050D000B0E023EB36EE4EE050E00E948F320091BC
:1050E00081091091820920918309309184096B0113
:1050F0007C01C00ED11EE21EF31EC701B60123EBD8
:1051000036EE4EE050E00E94BE32C61AD70AE80AD8
:10511000F90AC0928109D0928209E0928309F09243
:105120008409E0918609F09187098085811130C05A
:1051300080917A09823019F48C2F0E94F818E0913E
:105140008609F09187096091B50780850E946019F2
:10515000E0918609F091870960E080850E949D19A1
:105160008091810990918209A0918309B09184096D
:1051700000917D0910917E0920917F09309180096D
:1051800053EB452E56EE552E5EE0652E712C07C072
:1051900095816C2F9111E2CF0E946019E1CF4801F7
:1051A00059014FEF841A940AA40AB40A81155AECE3
:1051B00095075AE9A5075BE3B507C8F06C017D01C7
:1051C0002AECD21A2AE9E20A2BE3F20AC701B60155
:1051D000A30192010E94BE32A7019601261B370B44
:1051E000480B590BDA01C90195018401D8CF80938E
:1051F000810990938209A0938309B0938409009355
:105200007D0910937E0920937F0930938009E091F6
:105210008609F09187098581882339F18185843059
:1052200021F18781823029F0882341F08681811124
:1052300002C085E001C083E0818714C083E08187DC
:105240001782168285899689A789B08D892B8A2B2A
:105250008B2B41F4818D928DA38DB48D858B968B94
:10526000A78BB08F80850E941523E0918609F0916D
:10527000870985A196A1A7A1B0A5892B8A2B8B2B85
:1052800009F44EC08085882309F44AC09185943082
:1052900009F446C0458D568D678D70A10091B50704
:1052A00010E020E030E0401751076207730798F4E0
:1052B0000E942D19E0918609F0918709608582E0AE
:1052C0000E94781DE0918609F0918709158E168E4F
:1052D000178E10A208C0401B510B620B730B458F39
:1052E000568F678F70A3E0918609F0918709C0857A
:1052F000858D968DA78DB0A1892B8A2B8B2B81F460
:105300008C2F0E942D196C2F83E00E94781DE09154
:105310008609F091870983E081878C2F0E941523ED
:10532000C2EFD8E000E61AEE312C2AEFC22ED12CC3
:10533000E12CF12C32E0232E812C912C540183940A
:10534000FE01319780818F3F09F4E5C033971082C9
:10535000882309F45BC08881843009F457C04C84E9
:105360005D846E847F846091B50770E080E090E09A
:10537000461657066806790648F0461A570A680A1C
:10538000790A4C865D866E867F8604C01C861D86E3
:105390001E861F86488859886A887B884616570665
:1053A0006806790648F0461A570A680A790A488A50
:1053B000598A6A8A7B8A1AC0288D398D4A8D5B8DFD
:1053C000621773078407950758F429013A01461AB2
:1053D000570A680A790A488A598A6A8A7B8A06C003
:1053E0000E94BE32688B798B8A8B9B8B88899989C6
:1053F000AA89BB89892B8A2B8B2B41F4888D998DA7
:10540000AA8DBB8D888B998BAA8BBB8B88818330AF
:1054100009F081C08C859D85AE85BF85892B8A2B3F
:105420008B2B09F067C0DE0112978C91FE01339738
:10543000882391F08081882379F0B501A401009040
:10544000760904C0440F551F661F771F0A94D2F7D0
:10545000488759876A877B871C921082A8A1B9A1C7
:10546000A130B10509F58C8D9D8DAE8DBF8D8C8BD6
:105470009D8BAE8BBF8B288288899989AA89BB892D
:105480008C879D87AE87BF87888D998DAA8DBB8DB0
:10549000892B8A2B8B2B21F4CC86DD86EE86FF862A
:1054A000832D0E94652226C04C8D5D8D6E8D7F8D73
:1054B0004C8B5D8B6E8B7F8B488C598C6A8C7B8C74
:1054C0001197A30192010E948F326C877D878E878E
:1054D0009F87688B798B8A8B9B8B4528462847282A
:1054E00021F4CC86DD86EE86FF8666246394712CDB
:1054F00079A268A28C859D85AE85BF850097A105A0
:10550000B10549F0A80160E070E084179507A6078F
:10551000B70708F48C013394AB9683E0782E3710EC
:105520000FCFE0918609F091870980850E943F198D
:105530000E945422C82F2BE28202F0011124E7516D
:10554000F74F228520938809F0937809E093770933
:105550008823D9F085A196A1A7A1B0A5892B8A2B74
:105560008B2B99F0858D968DA78DB0A18A3F9105E3
:10557000A105B10550F4A80160E070E0841795071B
:10558000A607B70710F48C0105C00B3F110510F0FA
:105590000AEF10E020937909F0938709E0938609D8
:1055A0000093B5070E94972D282F30E02F5F3F4FC3
:1055B0002017310740F00E94972D082F10E00E5F52
:1055C0001F4F0093B507C11110927A09802F0E94D6
:1055D000352D0E94BA30DF91CF911F910F91FF902E
:1055E000EF90DF90CF90BF90AF909F908F907F9083
:1055F0006F905F904F903F902F900C94C5303F92EA
:105600004F925F926F927F928F929F92AF92BF92D2
:10561000CF92DF92EF92FF920F931F93CF93DF937E
:10562000CDB7DEB760970FB6F894DEBF0FBECDBF23
:10563000CE0109960E94A62589E8482E89E0582EB9
:10564000612C712C93E1392ED20112968C9181300C
:1056500051F5369CF001379CF00D1124EC56F64FB5
:1056600089849A84AB84BC84CD84DE84EF84F888FA
:105670000081118122813381448155816681778146
:10568000CE0101960E9403268F3F69F4662D85E1C5
:105690000E94781DD201ED91FC91309719F40E947F
:1056A000FB1601C00995BFEF6B1A7B0AE3E14E0EB2
:1056B000511CF3E06F16710439F660960FB6F8943A
:1056C000DEBF0FBECDBFDF91CF911F910F91FF9035
:1056D000EF90DF90CF90BF90AF909F908F907F9092
:1056E0006F905F904F903F900895E9E8F9E0128243
:1056F000158A10A60895CF93DF938330E0F493E1E9
:10570000899FF0011124E757F64F51834083EB0145
:1057100088819981AA81BB8183839483A583B68381
:105720008C819D81AE81BF8187839087A187B2875D
:10573000128281E001C08FEFDF91CF910895CF9267
:10574000DF92EF92FF920F931F93CF93DF93CDB72A
:10575000DEB728970FB6F894DEBF0FBECDBF8330FB
:10576000A8F5182FCE0101960E94A62523E1129FCD
:10577000C00111248C010757164FF801C380D48053
:10578000E580F68049815A816B817C814C0D5D1DDD
:105790006E1D7F1D4387548765877687C780D084B9
:1057A000E184F2844D815E816F8178854C0D5D1DB1
:1057B0006E1D7F1D4787508B618B728B8C56964F69
:1057C0000E948F2681E0F801828301C08FEF289626
:1057D0000FB6F894DEBF0FBECDBFDF91CF911F9102
:1057E0000F91FF90EF90DF90CF9008951F93CF938C
:1057F000DF93CDB7DEB728970FB6F894DEBF0FBEA4
:10580000CDBF833070F5182FCE0101960E94A625DA
:1058100083E1189FF0011124E757F64F438154812B
:105820006581768189819A81AB81BC81840F951FC6
:10583000A61FB71F83879487A587B68747815085A2
:10584000618572858D819E81AF81B885840F951F9A
:10585000A61FB71F8787908BA18BB28B81E08283B5
:1058600001C08FEF28960FB6F894DEBF0FBECDBFF4
:10587000DF91CF911F910895833048F493E1899F80
:10588000F0011124E757F64F128281E008958FEF5F
:10589000089500000000000000000000000000006B
:1058A00000000000000000000000019791F708953B
:1058B00010922101089589E0809321018DE89CE3F5
:1058C0009093290180932801089510922501109248
:1058D00024010895CF93DF9300D0CDB7DEB7809138
:1058E0002401909125019A83898389819A810F905F
:1058F0000F90DF91CF91089510928100089581E07B
:1059000080938100089583B5816083BD10928500E6
:10591000109284000895CF93DF9300D0CDB7DEB707
:1059200080918400909185009A83898389819A81EE
:105930000F900F90DF91CF910895CF92DF92EF9269
:10594000FF92CF93DF93EC01CC0FDD1FC9378FEFB0
:10595000D80710F0C0E0D0E06B01E12CF12CCC0EA8
:10596000DD1EE11CF11C81E0C816D104E806F1043B
:1059700040F081E0E81AF1080E948B2CC817D90783
:10598000D8F30E948B2C8C159D05D8F3DF91CF9115
:10599000FF90EF90DF90CF9008951092B100E0E774
:1059A000F0E080818D7F808380818E7F8083089569
:1059B0008093B2000895E0E7F0E080818360808307
:1059C00083E08093B100089583B5826083BD109217
:1059D000B200109209061092B5070895CF93DF9395
:1059E0008EEF8093B50780E28093B6008091B50773
:1059F0008093B30083E087BB92E09093B0008093E4
:105A0000B10093B5926093BD87BB84BD83B58260BE
:105A100083BD1092800081E0809381001092850008
:105A20001092840083B5826083BD83B5816083BD9D
:105A300010922001C4E2D1E01982188283B58260FD
:105A400083BD83B5816083BD0E94E42C19821882D6
:105A50000E94DB2C0E945B2C10920906DF91CF91F3
:105A600008958091B3008F5F089581508093B300B3
:105A70000895811102C0109271008FEF0895811175
:105A800006C0109295001092940081E008958FEF67
:105A90000895811105C0809194009091950008951A
:105AA00080E090E00895811105C082E0809371004C
:105AB00081E008958FEF0895811135C0CB010197E2
:105AC000059710F46093B2071092900088E08093DD
:105AD000910050939900409398003093FB052093D8
