:100000000C9487020C94A6270C94D8270C940A28E9
:100010000C94A6020C94A6020C94A6020C94A602C0
:100020000C94A6020C9474270C94A6020C94A602BD
:100030000C94A6020C94D3250C94A6020C94D32500
:100040000C94A6020C94A6020C94A6020C94A60290
:100050000C94A6020C94A6020C94A6020C94A60280
:100060000C94A6020C94A6020C94A6020C94A60270
:100070000C94A6020C94A6020C94A6020C94A60260
:100080000C9406260C94A6020C94A6020C94A602CC
:100090000C94A6020C94A6020C94A6020C94FC04E8
:1000A0000C94A6020C94A6020C94A6020C94A60230
:1000B0000C94A6020C94A6020C94A6020C94A60220
:1000C0000C94A6020C94A6020C94A6020C94A60210
:1000D0000C94A6020C94A6020C94A6020C94A60200
:1000E0000C94A6020C94E8080C94D9080C94A90866
:1000F0000C9499090C949A080C948B080C94790828
:100100000C946A080C94A6020C94A6020C94A60205
:100110000C94A6020C94A6020C94A6020C94A602BF
:10012000190B260B330B400B4D0B5A0B670B8A0B2D
:10013000980BA60BB40BC20BD00BDE0B010C030CFF
:10014000050C070C090C0B0C0D0C2C0C4F0C730C34
:10015000960CB90CDC0CFF0C390D460D530D600DDF
:100160006D0D7A0D870DA00DAD0DBA0DC70DD40D17
:10017000E10DEE0D2C153215351538153B153E15D4
:100180004415411547154A154D15561559155C1559
:100190005F15531529152F15621565155015261570
:1001A0004E1651165C16611668167116741679167D
:1001B000801689160D0A4E616E6F2D524B205461C8
:1001C000736B20537461746973746963733A0D0AB5
:1001D000000D0A000D0A2020204F766572666C6FB4
:1001E00077204572726F72205374617475733A2070
:1001F000000D0A2020204B65726E656C2056696FD9
:100200006C6174696F6E733A20000D0A20202050D3
:100210007265656D7074696F6E733A20000D0A2007
:100220002020537761702D696E733A20000D0A20EB
:10023000202054696D65205B4D696E2C4C61737490
:100240002C4D61785D3A20000D0A202020546F74F7
:10025000616C204350553A20000D0A20202049644B
:100260006C65205461736B204465657020536C6528
:1002700065702054696D653A20000D0A20202054D5
:100280006F74616C2053797374656D205570746957
:100290006D653A2000205461736B2049443A200078
:1002A000554E4B4F574E0045787465726E616C2009
:1002B00052657365740042726F776E204F757420BB
:1002C000446574656374004661696C656420746F8D
:1002D000206372656174652053656D6170686F722B
:1002E00065004661696C656420746F2063726561A6
:1002F0007465205369676E616C004B65726E656C46
:100300002066756E6374696F6E206E6F7420696D00
:10031000706C656D656E74656400446576696365CF
:1003200020447269766572204572726F720057615F
:10033000746368646F6720526573746172740053EC
:1003400057205761746368646F67205265737461E6
:1003500072740054696D6572204F766572666C6FB9
:100360007700556E68616E646C656420496E7465D3
:10037000727275707420566563746F72004C6F777B
:1003800020566F6C74616765004578747261205403
:1003900061736B20737461727465642C20697320BF
:1003A0006E726B5F6366672E68206F6B3F004964F7
:1003B0006C65206F72204B65726E656C20537461A2
:1003C000636B204F766572666C6F7700556E65784B
:1003D000706563746564205265737461727400445F
:1003E00075706C696361746564205461736B204936
:1003F00044005363686564756C6572204D6973735E
:1004000065642057616B657570005461736B205291
:100410006573657276652056696F6C6174656400FA
:1004200052657365727665204572726F7220696ECF
:10043000205363686564756C657200496E76616C03
:10044000696420537461636B20506F696E746572C8
:10045000005461736B20537461636B204F76657237
:10046000666C6F7700537461636B20776173206EE5
:100470006F7420646566696E6564206173206C61C9
:1004800072676520656E6F75676821005461736BD4
:1004900020706572696F6420746F6F206C61726781
:1004A000652E20506572696F64206D7573742062CB
:1004B00065206C657373207468616E20363120731B
:1004C00065636F6E64732E00293A20002A4E524BEA
:1004D000204552524F5228004E524B205265626FB7
:1004E0006F742E2E2E0D0A000D0A535441434B20DB
:1004F00044554D500D0A0045464765666700202B60
:100500002D2E3031323334353637383968001124E6
:100510001FBECFEFD1E4DEBFCDBF13E0A0E0B2E05D
:10052000E0E6FCE500E00BBF02C007900D92AE3B99
:10053000B107D9F718E0AEEBB3E001C01D92AC35BE
:10054000B107E1F70E941F290C942E2E0C94C925A7
:1005500016EA02E387EAF82EC8E6D2E01093E50631
:100560000093E60662E085EE96E00E94B604F09203
:10057000E5061092E6061092E7061092E806109241
:10058000E9061092EA061092EB0667E085EE96E027
:100590000E94B60467E085EE96E00E94E504882399
:1005A00021F18091EA061F928F938091EB061F92B2
:1005B0008F938091E8061F928F938091E9061F9296
:1005C0008F938091E6061F928F938091E7061F928A
:1005D0008F93DF93CF930E94F02B8DB79EB70E962B
:1005E0000FB6F8949EBF0FBE8DBF0E94261CB6CFDB
:1005F00010ED0DE181EDF82EC5E9D2E01093E5068E
:100600000093E60662E085EE96E00E94B604F09262
:10061000E5061092E6061092E7061092E8061092A0
:10062000E9061092EA061092EB0667E085EE96E086
:100630000E94B60467E085EE96E00E94E5048823F8
:1006400021F18091EB061F928F938091EA061F9211
:100650008F938091E9061F928F938091E8061F92F5
:100660008F938091E7061F928F938091E6061F92E9
:100670008F93DF93CF930E94F02B8DB79EB70E968A
:100680000FB6F8949EBF0FBE8DBF0E94261CB6CF3A
:100690001CE303E08DE3F82ECFEAD2E01093E506E9
:1006A0000093E60662E085EE96E00E94B604F092C2
:1006B000E5061092E6061092E7061092E806109200
:1006C000E9061092EA061092EB0667E085EE96E0E6
:1006D0000E94B60467E085EE96E00E94E504882358
:1006E00021F18091EB061F928F938091EA061F9271
:1006F0008F938091E9061F928F938091E8061F9255
:100700008F938091E7061F928F938091E6061F9248
:100710008F93DF93CF930E94F02B8DB79EB70E96E9
:100720000FB6F8949EBF0FBE8DBF0E94261CB6CF99
:10073000CF93C82F883411F0803271F41F92CF9379
:1007400089EC92E09F938F930E94F02B0E94D80433
:100750000F900F900F900F908C2FCF910895E5EE92
:10076000F6E080ED808386E181838BE1828363E024
:10077000CF010C94B604E5EEF6E08CE3808382E0D2
:100780008183128263E0CF010C94B6040F931F9310
:10079000CF93DF93C5EED6E016EA18830DE2098306
:1007A0001A8263E0CE010E94B604188388E389832D
:1007B00080E88A8363E0CE010E94B604188309832F
:1007C00088E08A8363E0CE010E94B604188381E347
:1007D000898381E08A8363E0CE01DF91CF911F910D
:1007E0000F910C94B6048F929F92AF92BF92CF92CA
:1007F000DF92EF92FF92CF9368EA72E085E594E092
:100800000E947A2840E850E067E275E085E594E0D0
:100810000E947E28E5E5F4E0C1E0C087C783C18778
:10082000C287138614861586168680E8C82E82EB4A
:10083000D82E86EEE82E8EE0F82EC786D08AE18A82
:10084000F28A138A148A158A168AC78AD08EE18E94
:10085000F28E812C912C54018394838E948EA58EDC
:10086000B68E178E10A211A212A2CF010E94941B65
:1008700068EF72E082EC96E00E947A2840E850E04F
:1008800060E874E082EC96E00E947E28E2ECF6E0FC
:1008900082E08087C783C187C28713861486158646
:1008A0001686C786D08AE18AF28A138A148A158A44
:1008B000168AC78AD08EE18EF28E838E948EA58E94
:1008C000B68E178E10A211A212A2CF010E94941B05
:1008D00068E473E084E095E00E947A2840E850E004
:1008E00063ED73E084E095E00E947E28E4E0F5E0AB
:1008F00083E08087C783C187C287138614861586E5
:100900001686C786D08AE18AF28A138A148A158AE3
:10091000168A178A108E118E128E838E948EA58E53
:10092000B68E178E10A211A212A2CF01CF91FF9006
:10093000EF90DF90CF90BF90AF909F908F900C94EE
:10094000941B8AE08093B8008FEF8093BB0084E013
:100950008093BC0008958091BC00817008958091BF
:10096000BC0080FDFCCF8091000208952091BC0066
:1009700020FDFCCF6093C003FC0120812093C103C4
:1009800020FF09C01092BE0388EF8093000285EA21
:100990008093BC000895FC01319621EC33E0D9012D
:1009A00011968A2F821B861768F781918C93F8CF56
:1009B0008091BC0080FDFCCF1092BE0388EF809335
:1009C000000285EA8093BC0008952091BC0020FDC0
:1009D000FCCF2091BE0320FD04C08091BE03817036
:1009E000089521EC33E0FC01D9018A2F821B861780
:1009F000A0F78D918193F9CF1F920F920FB60F92AE
:100A000011240BB60F922F933F938F939F93EF93E5
:100A1000FF938091B900883201F140F48031D9F020
:100A20008831D9F0883009F04AC015C0803491F17E
:100A300028F4883309F043C085EA46C08035F1F0D8
:100A40008835E9F58091BB00E091BF03F0E0EF53FA
:100A5000FC4F80832DC01092BF03E091BF038091B3
:100A6000C003E81728F581E08E0F8093BF03F0E004
:100A7000EF53FC4F80818093BB0018C0E091BF030F
:100A800081E08E0F8093BF038091BB00F0E0EF53B5
:100A9000FC4F80832091BF0330E08091C00390E041
:100AA00001972817390714F485EC0EC085E80CC0AF
:100AB0008091BE0381608093BE0384E905C080916C
:100AC000B9008093000284E08093BC00FF91EF9115
:100AD0009F918F913F912F910F900BBE0F900FBE62
:100AE0000F901F901895909141019F719F31D9F3FC
:100AF0008093420108958093CB03089581E0809311
:100B0000FB0608951092FB060895809141018F71B4
:100B10008F31D9F3809141018F71E1F08F30D1F0A5
:100B2000809141018F71883031F480913901826068
:100B3000809339010BC088E00E94730580914101C8
:100B40008F718830D9F7F1CF8F3021F0809141013A
:100B50008F71D1F70895809141018F718F31D9F351
:100B6000809141018F7111F08F3051F480913901E2
:100B70008D7F80933901809141018F718830D9F741
:100B8000089589E00C947305E5E4F1E09081907F8D
:100B9000908390818F70982B90830895E7E5F1E022
:100BA00080818D7F80830895E7E5F1E08081826018
:100BB00080830895EEE6F1E080818F7E8083089542
:100BC000EEE6F1E08081806180830895809360018A
:100BD0009093610190930507809304070895909383
:100BE000FF068093FE06E8E4F1E08081807E80834A
:100BF0008081682B608308959093CF038093CE0308
:100C000008959093CD038093CC0308950F931F9381
:100C1000CF93DF93FC01D90180E28093440180EC03
:100C20008093450160626093480185EC809349019F
:100C300087EA80934B0180E880934C012093600108
:100C4000B09361014093620150936301C6E4D1E027
:100C50000881888198812881302F329536953770A8
:100C600060E4369F80011124229526952370622F1F
:100C7000602B82958695837070E1879F9001112487
:100C8000262B92959695937084E0989FB00111243D
:100C9000622B60936D0188819881929596959370EF
:100CA000392F3064982F92959670932B90936E0104
:100CB00010926C018FEF80934E01CEEFD6E0F98356
:100CC000E8831A821B825D834C83BF83AE831886C0
:100CD00081E08093180710922F0710920707109257
:100CE000FB06DF91CF911F910F91089586E10C943F
:100CF000730586E10C94730588E00E9473051092D9
:100D00002F0708950F931F93CF93DF93FC018091DA
:100D10001807811102C08FEFABC0268180910007B8
:100D20008F5F8093000790918101907E916020FBFE
:100D300095F99F7390649093810188E88093820174
:100D40008091FB06882361F08FEF809383018AEA0C
:100D50009AEA90938901809388018FEF9FEF10C0EA
:100D6000809100078093830120916101809160014F
:100D700090E0922B909389018093880180819181EA
:100D80009093870180938601209163018091620195
:100D900090E0922B90938501809384018F01428192
:100DA000552747FD5095638174818AE891E00E9440
:100DB000562BF8018281855F8093800180914101EB
:100DC000D82FDF719FEF9D0F9230C0F3D131B1F377
:100DD000D231A1F3DF3191F398EF9D0F923020F0E3
:100DE0008F70863009F097CF86E10E947305F80175
:100DF000858181110BC089E00E947305F80186810D
:100E0000882391F089E10E9473050EC0809148010A
:100E10008068809348018091410187FFFCCF8091D9
:100E2000410186FF78CFE7CF1092070782E00E944A
:100E3000730580E090E020910707211105C001961D
:100E4000883EFDEF9F07B9F7F8012681222331F094
:100E50002091420122952695277029F4883E9D4FC6
:100E600011F0C1E001C0CFEF8D2F0E9473058C2FD0
:100E7000DF91CF911F910F9108951092070782E0A3
:100E80000E94730588EE9DEF20910707211104C091
:100E90000197D1F78FEF089581E00895CF93DF9305
:100EA00080911807882341F180914101C82FCF71AB
:100EB0009FEF9C0F9230C0F3C131B1F3C231A1F367
:100EC000CF3191F3C83019F08F708630A9F486E1E4
:100ED0000E94730580914801806880934801809149
:100EE000410187FFFCCFD09141018C2F0E947305F7
:100EF000D6FB882780F901C08FEFDF91CF9108954D
:100F000080911807882309F4E3C080912F07882374
:100F100009F4DCC080917B01E091FE06F091FF06B0
:100F200090E002972481332727FD30952817390751
:100F30000CF4CEC0E091FE06F091FF068091820194
:100F40008083E091FE06F091FF06809187019091E9
:100F5000880192838183E091FE06F091FF068091E3
:100F60007B018B508383A091FE06B091FF06E09138
:100F7000FE06F091FF0613969C91848189173CF040
:100F8000E091FE06F091FF06838187FF0DC010926D
:100F90002F0780914C018F7780934C0180914C01F9
:100FA000806880934C0194C0A091FE06B091FF062A
:100FB000E091FE06F091FF0613964C91552747FDF0
:100FC000509569E871E0858196810E94562B809149
:100FD000CB03882309F43EC0E091FE06F091FF06A2
:100FE00083818031B9F5E091FE06F091FF066581BD
:100FF000768144E050E081E092E00E945F2B892BF3
:1010000049F5E091FE06F091FF066581768140E1A9
:1010100050E081E092E00E945F2B892BD9F49DE0A3
:1010200088E10FB6F894A895809360000FBE909366
:10103000600080E090E00E94360E81E090E00E9427
:10104000360E82E090E00E94360E83E090E00E942F
:10105000360EFFCFE091FE06F091FF0680918001F1
:1010600085FB882780F98783E091FE06F091FF06D3
:10107000809147018087E091FE06F091FF06809104
:1010800046018695869586958187E091FE06F091CA
:10109000FF06809147018287A091FE06B091FF066E
:1010A000E0917B01F0E0E058FE4F80811B968C932D
:1010B00010922F0780914C018F7780934C01809183
:1010C0004C01806880934C0181E0089580E0089590
:1010D0008FEF08951F920F920FB60F9211248F93E6
:1010E00080E880934F018F910F900FBE0F901F905B
:1010F00018951F920F920FB60F9211248F9381E0D3
:101100008093070780E480934F018F910F900FBE6B
:101110000F901F9018951F920F920FB60F921124E7
:101120008F9380E280934F018F910F900FBE0F90AD
:101130001F9018951F920F920FB60F9211248F9344
:1011400080E180934F018F910F900FBE0F901F9001
:1011500018951F920F920FB60F9211240BB60F9293
:101160002F933F934F935F936F937F938F939F93AF
:10117000AF93BF93EF93FF9384E080934F01E0918F
:10118000CE03F091CF03309709F00995FF91EF91CD
:10119000BF91AF919F918F917F916F915F914F918F
:1011A0003F912F910F900BBE0F900FBE0F901F908D
:1011B00018951F920F920FB60F9211248F9382E011
:1011C00080934F018F910F900FBE0F901F90189535
:1011D0001F920F920FB60F9211248F9381E080938C
:1011E0004F018F910F900FBE0F901F901895E9E45B
:1011F000F1E09081907F908390818F70982B908305
:1012000008958FEF08950895089508958FEF089534
:101210008091F9069091FA060895089581E0089565
:1012200081E0089581E0089508950895089508954E
:10123000089508950895089598988DB1806E8DB998
:101240008EB1806A8EB9089598988DB1806E8DB9EF
:101250008EB180668EB90895CF92DF92EF92FF92A1
:101260000F931F93CF93DF93CDB7DEB727970FB6BA
:10127000F894DEBF0FBECDBF0E94530FE091FE0673
:10128000F091FF06C080D380E580F68000850E9443
:10129000800718161CF08EEC92E006C0F701108152
:1012A000111107C08DEE92E00E940A2C0E94550F8A
:1012B00031C0153021F48AE090E00E94042CC7016F
:1012C00001969F938F93802F992787FD90959F93E9
:1012D0000F931F921F931F92CF928FE093E09F93E3
:1012E0008F930E94F02BFD82EC821150F701108346
:1012F000DB821E821F828FEF9FEF9A8389830E9479
:10130000550FCE0101960E9482060FB6F894DEBFFB
:101310000FBECDBF27960FB6F894DEBF0FBECDBF70
:10132000DF91CF911F910F91FF90EF90DF90CF90C1
:1013300008951F920F920FB60F9211240BB60F92C1
:101340002F933F934F935F936F937F938F939F93CD
:10135000AF93BF93EF93FF9380E090917B01891748
:1013600010F48F5FFACF8091460187FF04C081E0BF
:1013700080932F0704C088E393E00E940A2C88E042
:1013800080934F018091460187FF05C08091FB0645
:1013900081110E942C09E091CC03F091CD0330978C
:1013A00009F00995FF91EF91BF91AF919F918F91B6
:1013B0007F916F915F914F913F912F910F900BBE55
:1013C0000F900FBE0F901F901895A8E0B7E0FC019A
:1013D000409620812D93219120933F01E817F90732
:1013E000C1F780E110923E018150E1F780E88093DF
:1013F0003C0180913D0180FFFCCFE9E1F7E080E115
:101400008E0F90913F0191938E13FBCF0895CF9350
:10141000DF93DC01662309F445C0862F8F7009F045
:1014200041C0E8E0F7E090E19E0F219120933F0159
:101430009E13FBCF90E070E0E0E240E1949F9001CA
:101440001124261737077CF5911103C010923C0137
:1014500002C0E0933C0140E050E02A0F3B1FE9014D
:10146000C40FD51FF881F0933E014F5F5F4F4031AD
:101470005105A9F740913C01406840933C014091DF
:101480003D0140FFFCCF40E050E0F0913E01E9011A
:10149000C40FD51FF8834F5F5F4F40315105A9F747
:1014A0009F5FCBCF81E0DF91CF9108950F931F9382
:1014B000CF93DF93DC01613009F458C0862F8F7021
:1014C00009F054C0E9E1F7E090E19E0F21912093EB
:1014D0003F019E13FBCF62956F70615078E06F3FC4
:1014E00009F445C070933C01462F552747FD5095A0
:1014F00020E030E0ED0190E16902C00DD11D112422
:10150000FE01E20FF31F908190933E012F5F3F4F4A
:1015100020313105A9F790913C01906890933C01EE
:1015200090913D0190FFFCCF4150510994E0440F50
:10153000551F9A95E1F720E030E090913E018E0131
:10154000020F131FF8019083662349F0F901E40F9D
:10155000F51FEA0FFB1FE0819E27F80190832F5FA4
:101560003F4F2031310549F76150B9CF81E0DF911C
:10157000CF911F910F9108958091C00087FFFCCFFC
:101580008091C0008F778093C0008091C60008953D
:101590009091C00095FFFCCF9091C0009F7D9093EB
:1015A000C0008093C60008958FEF0895813019F42C
:1015B0008091C80004C0811106C08091C000881FBE
:1015C0008827881F089580E00895CF93DF93FC015A
:1015D0002491EC012196222351F0609154087091DE
:1015E0005508822F90E00E94B82BCE01F0CFDF91FA
:1015F000CF91089586E084B985B988EF8AB980EFE4
:101600008BB982E08DB908950C94FA0A8F3F09F4E2
:101610006CC0E82FE7704E2F50E04730510508F0BE
:1016200064C0FA01E057FF4F8695869586950C9425
:10163000362B42B121E030E0B90102C0660F771FBE
:101640008A95E2F7CB01842B82B94DC045B121E0E8
:1016500030E0B90102C0660F771F8A95E2F7CB012F
:10166000842B85B940C048B121E030E0B90102C007
:10167000660F771F8A95E2F7CB01842B88B933C0B8
:101680004BB121E030E0B90102C0660F771F8A95A7
:10169000E2F7CB01842B8BB926C04EB121E030E0BC
:1016A000B90102C0660F771F8A95E2F7CB01842B40
:1016B0008EB919C041B321E030E0B90102C0660F14
:1016C000771F8A95E2F7CB01842B81BB0CC044B312
:1016D00021E030E0B90102C0660F771F8A95E2F77A
:1016E000CB01842B84BB81E008958FEF08958F3F59
:1016F00009F473C0E82FE7704E2F50E047305105D2
:1017000008F06BC0FA01E956FF4F869586958695DD
:101710000C94362B42B121E030E0B90102C0660FD3
:10172000771F8A95E2F7CB018095842382B953C055
:1017300045B121E030E0B90102C0660F771F8A95FC
:10174000E2F7CB018095842385B945C048B121E0FB
:1017500030E0B90102C0660F771F8A95E2F7CB012E
:101760008095842388B937C04BB121E030E0B901BE
:1017700002C0660F771F8A95E2F7CB01809584231C
:101780008BB929C04EB121E030E0B90102C0660F2B
:10179000771F8A95E2F7CB01809584238EB91BC011
:1017A00041B321E030E0B90102C0660F771F8A958E
:1017B000E2F7CB018095842381BB0DC044B321E0C7
:1017C00030E0B90102C0660F771F8A95E2F7CB01BE
:1017D0008095842384BB81E008958FEF08958F3F27
:1017E00031F1E82FE7704E2F50E047305105F8F403
:1017F000FA01E256FF4F282F2695269526950C9440
:10180000362B90B10BC093B109C096B107C099B106
:1018100005C09CB103C09FB101C092B3892F90E075
:1018200002C0959587952A95E2F7817008958FEF0C
:1018300008958F3F09F406C1E82FE7704E2F50E05E
:101840004730510508F0FEC0FA01EB55FF4F869571
:10185000869586950C94362B20B130E0082E02C078
:10186000359527950A94E2F742B120FD0BC021E09F
:1018700030E0B90102C0660F771F8A95E2F7CB010D
:10188000842B0BC021E030E0B90102C0660F771F46
:101890008A95E2F7CB018095842382B916C023B1E3
:1018A00030E0082E02C0359527950A94E2F745B13D
:1018B00020FD0DC021E030E0B90102C0660F771FA6
:1018C0008A95E2F7CB01842B85B981E0089521E068
:1018D00030E0B90102C0660F771F8A95E2F7CB01AD
:1018E00080958423F1CF26B130E0082E02C03595D3
:1018F00027950A94E2F748B120FD0BC021E030E0C3
:10190000B90102C0660F771F8A95E2F7CB01842BDD
:101910000BC021E030E0B90102C0660F771F8A9545
:10192000E2F7CB018095842388B9CFCF29B130E08D
:10193000082E02C0359527950A94E2F74BB120FD99
:101940000BC021E030E0B90102C0660F771F8A9515
:10195000E2F7CB01842B0BC021E030E0B90102C0DB
:10196000660F771F8A95E2F7CB01809584238BB9A8
:10197000ACCF2CB130E0082E02C0359527950A94E3
:10198000E2F74EB120FD0BC021E030E0B90102C00A
:10199000660F771F8A95E2F7CB01842B0BC021E0FD
:1019A00030E0B90102C0660F771F8A95E2F7CB01DC
:1019B000809584238EB989CF2FB130E0082E02C0E4
:1019C000359527950A94E2F741B320FD0BC021E03D
:1019D00030E0B90102C0660F771F8A95E2F7CB01AC
:1019E000842B0BC021E030E0B90102C0660F771FE5
:1019F0008A95E2F7CB018095842381BB66CF22B321
:101A000030E0082E02C0359527950A94E2F744B3DA
:101A100020FD0BC021E030E0B90102C0660F771F46
:101A20008A95E2F7CB01842B0BC021E030E0B901AD
:101A300002C0660F771F8A95E2F7CB018095842359
:101A400084BB43CF8FEF08958F3F09F4D5C0E82FB3
:101A5000E7704E2F50E0611167C04730510508F024
:101A6000CBC0FA01E455FF4F8695869586950C9478
:101A7000362B41B121E030E0B90102C0660F771F7B
:101A80008A95E2F7CB018095842365C044B121E0BB
:101A900030E0B90102C0660F771F8A95E2F7CB01EB
:101AA0008095842365C047B121E030E0B90102C0D0
:101AB000660F771F8A95E2F7CB018095842365C076
:101AC0004AB121E030E0B90102C0660F771F8A9564
:101AD000E2F7CB018095842365C04DB121E030E071
:101AE000B90102C0660F771F8A95E2F7CB01809596
:101AF000842365C040B321E030E0B90102C0660F25
:101B0000771F8A95E2F7CB018095842365C043B3A4
:101B100021E030E0B90102C0660F771F8A95E2F735
:101B2000CB018095842365C04730510508F064C01F
:101B3000FA01ED54FF4F8695869586950C94362BC9
:101B400041B121E030E0B90102C0660F771F8A95EC
:101B5000E2F7CB01842B81B94DC044B121E030E0E4
:101B6000B90102C0660F771F8A95E2F7CB01842B7B
:101B700084B940C047B121E030E0B90102C0660F2E
:101B8000771F8A95E2F7CB01842B87B933C04AB11E
:101B900021E030E0B90102C0660F771F8A95E2F7B5
:101BA000CB01842B8AB926C04DB121E030E0B901C8
:101BB00002C0660F771F8A95E2F7CB01842B8DB99F
:101BC00019C040B321E030E0B90102C0660F771FB1
:101BD0008A95E2F7CB01842B80BB0CC043B321E094
:101BE00030E0B90102C0660F771F8A95E2F7CB019A
:101BF000842B83BB81E008958FEF0895811106C087
:101C000080B18695817091E0892708958FEF0895BE
:101C1000009711F483E20DC08130910511F48BE23D
:101C200008C08230910511F483E303C0039729F4BF
:101C30008BE30E94190C81E008958FEF08950097BF
:101C400011F483E20DC08130910511F48BE208C0DC
:101C50008230910511F483E303C0039729F48BE3E9
:101C60000E94060B81E008958FEF0895009711F40C
:101C700083E20DC08130910511F48BE208C08230FF
:101C8000910511F483E303C0039729F48BE30E94C9
:101C9000770B81E008958FEF0895882319F085B7B9
:101CA0008F7E02C085B7806185BF81E008959091E5
:101CB000C80095FFFCCF8093CE0008959093C50097
:101CC0008093C40086E08093C200E1ECF0E0808164
:101CD0008B7F8083A0ECB0E08C9182608C938081BC
:101CE0008861808308959093CD008093CC0086E036
:101CF0008093CA00E9ECF0E080818B7F8083A8ECC0
:101D0000B0E08C9182608C9380818861808308959B
:101D1000CF93DF930E945E0E6CEB7AE088EC9AE042
:101D20000E946D2BC2E5D8E09B838A836CEB7AE03E
:101D300088EC9AE00E946D2B99838883DF91CF9184
:101D400008958091C80087FFFCCF8091C8008F77ED
:101D50008093C8008091CE0008950000000000002C
:101D600000000197D1F708950C94C82C0E94D02C44
:101D70000895EF92FF920F931F93CF93DF937C010F
:101D800080E090E00E94C82C182FF701838381E047
:101D900090E00E94C82C082FF701828382E090E037
:101DA0000E94C82CD82FF701818383E090E00E9425
:101DB000C82CC82FF701808384E090E00E94C82CD3
:101DC000100FD10FCD0F8C1711F08FEF01C081E0F4
:101DD000DF91CF911F910F91FF90EF900895CF93D6
:101DE000DF93EC0185E090E00E94C82C888381E0BD
:101DF000DF91CF910895FC01608186E090E00E9420
:101E0000D02C81E00895CF93DF93EC0186E090E041
:101E10000E94C82C888381E0DF91CF9108950F93B1
:101E20001F93CF93DF938C01C0E0D0E0CE010896E2
:101E30000E94C82CF80181938F012196C031D105F1
:101E4000A9F781E0DF91CF911F910F9108950F9332
:101E50001F93CF93DF938C01C0E0D0E0F801619134
:101E60008F01CE0108960E94D02C2196C031D10559
:101E7000A9F781E0DF91CF911F910F910895CF9342
:101E8000DF93EC0187E090E00E94C82C888381E01A
:101E9000DF91CF910895FC01608187E090E00E947E
:101EA000D02C81E00895F8940895789408950E94C4
:101EB000530FFFCFCF93DF93CDB7DEB7A3970FB606
:101EC000F894DEBF0FBECDBF0E9491178093E40748
:101ED0008F3F21F460E08EE00E94D9150E944226D7
:101EE00080FF04C060E086E00E94D9150E94592856
:101EF0008F3F31F40E943C2860E080E10E94D915B8
:101F00000E944A281092E7071092F5071092F407F2
:101F10001092E6071092E5071092F6070E941C1136
:101F20001092F3078FEF8093E0078093E20780938E
:101F3000E10793E690933C0780933A0790936707F5
:101F40008093650790939207809390079093BD07C5
:101F50008093BB0780E398E025E338E030933408B2
:101F60002093330890933708809336084AE358E06B
:101F7000509339084093380830933C0820933B082D
:101F80002FE338E030933E0820933D0850934108FA
:101F90004093400844E458E050934308409342087B
:101FA0003093460820934508109232081092310869
:101FB00010924808109247081092EA071092E90719
:101FC00090933107809330076FE570E2CE01019660
:101FD0000E947A2840E850E062E476E0CE01019663
:101FE0000E947E2885E58093420619861C861D8600
:101FF0001E861F86188A198A1A8A1B8A1C8A1D8ABD
:102000001E8A1F8A188E198E1A8E1B8E1C8E1D8E8C
:102010001E8E1F8E18A219A21AA21BA281E0888709
:1020200092E09A878B87CE0101960E94941BA3961B
:102030000FB6F894DEBF0FBECDBFDF91CF910895EC
:102040000AE317E0C0E0F801D080FFEFDF1222C002
:10205000CF5F055D1F4FC430B1F70E94831A2BE29A
:102060008202C0011124FC01EE5CF84F828580934E
:10207000F607F093F507E093F407F093E607E09393
:10208000E5078093E7070E94F0280E94DA280E9463
:10209000F42816C08AE3E82E87E0F82ED0E0CD17AA
:1020A00041F0F7018081D81204C06D2D85E00E94B7
:1020B000D915DF5FFBE2EF0EF11CD43081F7C8CFFA
:1020C000FFCFCF92DF92EF92FF920F931F93CF93A8
:1020D000DF93EC018B017A018985823021F08091B8
:1020E000E307888301C018828091E307843020F0E1
:1020F00060E087E00E94D9158985823029F08091BF
:10210000E3078F5F8093E3078091E307811103C0AA
:1021100081E08093E30738812BE23203F001112440
:10212000EE5CF84F11830083888582873881320303
:10213000F0011124EE5CF84F83E08187388132038F
:10214000F0011124EE5CF84F308708810203800112
:1021500011240E5C184FF8011582CE010B960E94D7
:10216000F11FF80161A372A383A394A38B859C85BF
:10217000AD85BE8588339948A144B10520F06881BA
:1021800086E10E94D915C880DD24C7FCD094CE0119
:102190004B960E94F11F1BE21C9DF0011D9DF00D4E
:1021A0001124EE5CF84F658B768B878B908F28819E
:1021B0002103C00111249C012E5C384F6901F901F3
:1021C000458956896789708D81A192A1A3A1B4A187
:1021D000840F951FA61FB71F818F928FA38FB48F77
:1021E000CE0143960E94F11FF60165A376A387A353
:1021F00090A728812103F0011124EE5CF84F85A1FE
:1022000096A1A7A1B0A5858F968FA78FB0A381E0D7
:1022100090E092A781A7F382E2828487DF91CF9139
:102220001F910F91FF90EF90DF90CF9008950C9445
:10223000792085E690E00895109278041092790450
:1022400010927A0410927B0410927C0410927D0408
:1022500010927E0410927F04EBEAF5E080E090E0BB
:1022600010821182128213821086118612861386C2
:102270001482158216821782148615861686178692
:10228000108A118A128A138A108E118E128E138E62
:10229000DC01A555BA4F5C961C925C975D961C922A
:1022A0007E964E9688379105D9F608950F931F9321
:1022B000E8E7F4E0A82FB0E023EB36EE4EE050E084
:1022C0000E949A2A0481158126813781DC01CB0185
:1022D000800F911FA21FB31F84839583A683B783AA
:1022E000CF011F910F910C94BE1EE8E7F4E04081EE
:1022F000518162817381DC014D935D936D937C9379
:1023000013974481558166817781FC01448355830D
:102310006683778308952EE1829FC0011124FC011A
:10232000E555FA4F858D813039F0848D8F5F848F2C
:102330008F3F11F481E0858F08952EE1829FC001C7
:102340001124FC01E555FA4F858D8130B1F0148AD6
:10235000158A168A178A80899189A289B38901967C
:10236000A11DB11D808B918BA28BB38B8E3F9F4F94
:10237000AF4FBF4F11F481E0858F08950F931F93E6
:102380002EE1829FC0011124FC01E555FA4F858D95
:10239000813071F1808D918DA28DB38D0196A11D3B
:1023A000B11D808F918FA28FB38F462F50E060E0D8
:1023B00070E00489158926893789040F151F261FA7
:1023C000371F048B158B268B378B0081118122815F
:1023D0003381400F511F621F731F408351836283FB
:1023E00073838E3F9F4FAF4FBF4F11F481E0858FB6
:1023F0001F910F910895CF92DF92EF92FF92282FB5
:1024000030E09EE1899FF0011124E555FA4F858D5A
:10241000813009F44BC0462F50E060E070E08489C1
:102420009589A689B789840F951FA61FB71F848732
:102430009587A687B787C080D180E280F3804C0D56
:102440005D1D6E1D7F1D40835183628373834481B4
:10245000558166817781411551056105710529F026
:1024600084179507A607B70760F44EE1429FF00175
:10247000439FF00D1124E555FA4F84839583A6837D
:10248000B7834EE1429FF001439FF00D1124E555C3
:10249000FA4F4085518562857385481759076A0749
:1024A0007B0720F480879187A287B387FF90EF9006
:1024B000DF90CF9008958F929F92AF92BF92CF926C
:1024C000DF92EF92FF920F931F93CF93DF93CDB7DD
:1024D000DEB728970FB6F894DEBF0FBECDBF182F1A
:1024E00085E992E00E94E50AA12EB12C1F921F936C
:1024F00081E593E09F938F930E94F02B0F900F90B4
:102500000F900F90111152C08AE792E00E94E50AE5
:10251000CE0101960E94D51D6D817E818F819885A7
:10252000E0E4CE2EE2E4DE2EEFE0EE2EF12CA70169
:1025300096010E94B52A5F934F933F932F938C810E
:102540008F938B818F938A818F9389818F9304E5F9
:1025500013E01F930F930E94F02B89E592E00E94F5
:10256000E50A60917C0470917D0480917E049091D5
:102570007F04A70196010E94B52A5F934F933F9372
:102580002F9380917B048F9380917A048F93809115
:1025900079048F93809178048F931F930F930E94F7
:1025A000F02B0FB6F894DEBF0FBECDBF88E492E0EB
:1025B0000E94E50A8EE18A9D80018B9D100D1124F9
:1025C00005551A4FF80160817181828193810E94C3
:1025D000BA1F29833A834B835C836D837E838F8309
:1025E00098876D817E818F81988520E4822E22E4F8
:1025F000922E2FE0A22EB12CA50194010E94B52AA3
:102600005F934F933F932F938C818F938B818F9305
:102610008A818F9389818F9334E5E32E33E0F32E03
:10262000FF92EF920E94F02B8DE292E00E94E50A69
:10263000F80164817581868197810E94BA1F298380
:102640003A834B835C836D837E838F8398876D8110
:102650007E818F819885A50194010E94B52A5F93A0
:102660004F933F932F938C818F938B818F938A818C
:102670008F9389818F9344E6C42E43E0D42EDF925A
:10268000CF920E94F02BF801648575858685978529
:102690000E94BA1F29833A834B835C836D837E83B8
:1026A0008F8398876D817E818F819885A5019401A4
:1026B0000E94B52A5F934F933F932F938C818F9302
:1026C0008B818F938A818F9389818F93DF92CF92B1
:1026D0000E94F02BF80160857185828593850E94A8
:1026E000BA1F29833A834B835C836D837E838F83F8
:1026F00098876D817E818F819885A50194010E94C4
:10270000B52A5F934F933F932F938C818F938B8147
:102710008F938A818F9389818F93FF92EF920E948A
:10272000F02B0FB6F894DEBF0FBECDBF8DE192E067
:102730000E94E50AF801709683818F9382818F93BE
:1027400081818F93F80180898F9356E7E52E53E0BE
:10275000F52EFF92EF920E94F02B8AE092E00E9409
:10276000E50AF801789683818F9382818F93818126
:102770008F93F801808D8F93FF92EF920E94F02B40
:1027800081EF91E00E94E50AF801848D1F928F93FA
:102790006AE7E62E63E0F62EFF92EF920E94F02B9E
:1027A00084ED91E00E94E50AF801858D1F928F93D8
:1027B000FF92EF920E94F02B81ED91E00E94E50ADA
:1027C0000FB6F894DEBF0FBECDBF28960FB6F894B3
:1027D000DEBF0FBECDBFDF91CF911F910F91FF9054
:1027E000EF90DF90CF90BF90AF909F908F90089523
:1027F00084EB91E00E94E50A80E00E945B1281E098
:102800000E945B1282E00E945B1283E00C945B12D8
:10281000DB01843008F054C09EE1899FF00111244F
:10282000E555FA4F40815181628173814D935D93EB
:102830006D937C93139744815581668177811496BB
:102840004D935D936D937C93179740855185628579
:10285000738518964D935D936D937C931B97448578
:102860005585668577851C964D935D936D937C9316
:102870001F97408951896289738950964D935D9362
:102880006D937C93539744895589668977895496CB
:102890004D935D936D937C935797408D518D628DD1
:1028A000738D58964D935D936D937C935B97848D58
:1028B0005C968C935C97858D5D968C9381E00895F2
:1028C0008FEF0895E091F407F091F507848708955C
:1028D000E091F407F091F50784850895CF93DF9395
:1028E000D82FC62F80E092E00E94B40E8F5F8F3FFA
:1028F00019F08093D00302C01092D0032091D0032E
:1029000036E0239FC00111246D2F8F5F9D4F0E94E1
:10291000B60E8091D00346E0849FC00111246C2F35
:102920008E5F9D4F0E94B60E2091D0034091EB0721
:102930005091EC076091ED077091EE07672F7727B4
:102940008827992746E0249F90011124C9018D5FB3
:102950009D4F0E94B60E2091D0034091EB075091FD
:10296000EC076091ED077091EE078827992746E004
:10297000249F90011124C9018C5F9D4F0E94B60EC7
:102980002091D0034091EB075091EC076091ED0747
:102990007091EE079927872F762F652F46E0249FA9
:1029A00090011124C9018B5F9D4F0E94B60E80914A
:1029B000D00326E0829FC00111246091EB078A5F5B
:1029C0009D4F0E94B60E6091D00380E092E0DF91AF
:1029D000CF910C94B60EFC0180914106882331F012
:1029E000DB018C9380915304808381E00895809172
:1029F0004106882309F483C08CEC94E00E94E50A28
:102A0000809153041F928F9381E593E09F938F935E
:102A10000E94F02B88EC94E00E94E50A0F900F9042
:102A20000F900F9080914106883110F0109241066E
:102A3000E09141068E2F90E0FC013197E631F105DF
:102A400008F046C0E654FF4F0C94362B8CE894E017
:102A500041C085E694E03EC081E594E03BC08BE355
:102A600094E038C080E294E035C08AE094E032C05F
:102A700082EF93E02FC08FED93E02CC08CEC93E0BD
:102A800029C08EEA93E026C089E893E023C08DE751
:102A900093E020C082E693E01DC083E593E01AC076
:102AA0008FE393E017C08EE293E014C08AE193E0D5
:102AB00011C08AEF92E00EC082EE92E00BC087EC6C
:102AC00092E008C086EB92E005C087EA92E002C07F
:102AD00080EA92E00E94E50A6091540870915508DE
:102AE0008DE090E00E94B82B6091540870915508D9
:102AF0008AE090E00E94B82B80914106089580E022
:102B0000089513BC1092B60018BC17BC16BC15BCB7
:102B100014BC1DBA1CBA1BBA10929B0010929A00EA
:102B200010929900109298001092950010929400C3
:102B3000109291001092900018BA109271001092A9
:102B4000B4001092B3001092B2001092B100E0EB0A
:102B5000F0E01082108217BA109270008FEF84BFDD
:102B600008950E94530F0E943C28809141068031B5
:102B700071F08351823058F00E94811588ED94E005
:102B80000E94E50A0E944A280E94530FFFCF10922C
:102B90004106089580934106E091F407F091F5070E
:102BA0006085609353040E946E140E94F7140C9485
:102BB000B11580934106609353040E946E140E94E5
:102BC000F7140C94B115CF93DF931F92CDB7DEB7F6
:102BD00019828981843640F480ED97E00E94782440
:102BE00089818F5F8983F5CF0F90DF91CF91089511
:102BF00081E090E00E94360E0E94E3150E94E315EA
:102C00000E94E31581E090E00E941F0E0C94E315F2
:102C100081E090E00E94360E0E94E31581E090E092
:102C20000E941F0E0C94E315FF920F931F93CF93F6
:102C3000DF9300D01F92CDB7DEB71F928F9381E54F
:102C400093E09F938F938E010F5F1F4F1F930F93FE
:102C50000E943A2C0F900F900F900F900F900F90B2
:102C6000F12CF80101900020E9F73197E01BF10BFE
:102C70008F2D90E08E179F0708F05DC0F801E80FD8
:102C8000F91FE0818E2F90E0FC01F097EA30F1050A
:102C900008F049C0E053FF4F0C94362B0E94F81502
:102CA00002C00E9408160E94F8150E94F8150E94A2
:102CB000F8150E94F81537C00E9408160E940816E1
:102CC000F4CF0E9408160E9408160E940816EFCF43
:102CD0000E9408160E9408160E9408160E940816F4
:102CE000E8CF0E94081602C00E94F8150E9408163C
:102CF00004C00E94F8150E94F8150E94081606C02C
:102D00000E94F8150E94F8150E94F8150E940816F6
:102D100008C00E94F8150E94F8150E94F8150E943C
:102D2000F8150E9408160E94E3150E94E3150E9400
:102D3000E315F39496CF0F900F900F90DF91CF9102
:102D40001F910F91FF9008956F927F928F929F92A3
:102D5000AF92BF92CF92DF92EF92FF920F931F93A9
:102D6000CF93DF9388EE94E00E94E50AE091F407A8
:102D7000F091F5078085282F332727FD30953F9365
:102D80008F938DE793E09F938F930E94F02BE091B8
:102D9000F407F091F507C281D381DF93CF9381EBE4
:102DA00093E09F938F930E94F02B88811F928F93C3
:102DB00086E893E09F938F930E94F02BE091F407B5
:102DC000F091F50781818F9380818F9383E993E060
:102DD0009F938F930E94F02B8091F5078F938091A2
:102DE000F4078F938DE993E09F938F930E94F02BCC
:102DF000C2E3D7E0EDB7FEB774960FB6F894FEBF06
:102E00000FBEEDBF00E010E08DEA682E83E0782E63
:102E100096E8892E93E0992E23E9A22E23E0B22E84
:102E20003DE9C32E33E0D32EEA80FB80FF92EF9280
:102E30001F930F937F926F920E94F02BF701808176
:102E40001F928F939F928F920E94F02B89818F9374
:102E500088818F93BF92AF920E94F02BDF93CF9324
:102E6000DF92CF920E94F02B0F5F1F4FAB96EDB712
:102E7000FEB772960FB6F894FEBF0FBEEDBF0430DA
:102E8000110591F6DF91CF911F910F91FF90EF9077
:102E9000DF90CF90BF90AF909F908F907F906F907A
:102EA0000895CF93DF93E091F407F091F507C28185
:102EB000D3818881853539F00E94A41681E00E9473
:102EC000CA1585E58883E091F407F091F5078081C4
:102ED00091818115924438F00E94A41682E1DF911D
:102EE000CF910C94CA15DF91CF9108952BE2820205
:102EF000C0011124FC01EE5CF84FA281B3818C91DA
:102F0000853519F085E58C9308C080819181811504
:102F1000924428F082E10E94CA158FEF089581E063
:102F200008950F931F934091000550910105609102
:102F300002057091030580E090E08A019B01082E54
:102F400004C036952795179507950A94D2F700FD8A
:102F500019C001E010E020E030E0082E04C0000FAE
:102F6000111F221F331F0A94D2F7402B512B622BC3
:102F7000732B4093000550930105609302057093F5
:102F8000030505C0019680329105B9F68FEF1F91B8
:102F90000F910895E091F407F091F5076585768526
:102FA000878590890895CF92DF92EF92FF920F93D9
:102FB0001F93CF93DF93C12CD12C7601C394082E9D
:102FC00004C0CC0CDD1CEE1CFF1C0A94D2F740910F
:102FD00000055091010560910205709103054C2197
:102FE0005D216E217F21452B462B472B09F460C0C4
:102FF000082F0E94530FEBE3F7E0B701A6014095BD
:1030000050956095709513E0DF0111978C918F3F7B
:1030100039F184819581A681B7818C159D05AE0516
:10302000BF0551F410861186128613869F01225027
:103030003109E9011882108384239523A623B7233D
:1030400084839583A683B78380859185A285B38584
:1030500084239523A623B72380879187A287B387EC
:10306000BB96D7E0E73EFD0779F68EEF9FEFAFEF17
:10307000BFEF04C0880F991FAA1FBB1F0A95D2F784
:103080004091000550910105609102057091030582
:1030900084239523A623B7238093000590930105ED
:1030A000A0930205B09303050E94550F81E001C073
:1030B0008FEFDF91CF911F910F91FF90EF90DF90F5
:1030C000CF9008950F931F9341E050E060E070E0CF
:1030D0008A019B0104C0000F111F221F331F8A9514
:1030E000D2F7D901C801E091F407F091F5074585C1
:1030F0005685678570890423152326233723012BE2
:10310000022B032BD1F080959095A095B095482384
:1031100059236A237B23458756876787708B4189AC
:1031200052896389748984239523A623B723818BCD
:10313000928BA38BB48B81E001C08FEF1F910F9115
:103140000895282F409100055091010560910205D6
:1031500070910305082E04C076956795579547959D
:103160000A94D2F740FF1DC0E091F407F091F507F3
:1031700081E090E0A0E0B0E004C0880F991FAA1F92
:10318000BB1F2A95D2F74585568567857089842BA4
:10319000952BA62BB72B85879687A787B08B81E0C9
:1031A00008958FEF0895CF92DF92EF92FF92CF9321
:1031B000C12CD12C7601C39404C0CC0CDD1CEE1CB8
:1031C000FF1C8A95D2F78091000590910105A0918E
:1031D0000205B09103058C219D21AE21BF21892BD1
:1031E0008A2B8B2B11F481E044C00E94530FE9E33A
:1031F000F7E0ABE3B7E0C0E083E090819130B9F451
:1032000042855385648575854C215D216E217F2122
:10321000452B462B472B59F08C9316861786108A20
:10322000118A1082C286D386E486F586C1E0908139
:103230009230A1F442855385648575854C155D05F2
:103240006E057F0559F48C9316861786108A118AAD
:1032500010821286138614861586C1E0BB969B9653
:1032600097E0E53EF90749F60E94550FC11105C0E8
:1032700082E00E9462148FEF01C081E0CF91FF9045
:10328000EF90DF90CF9008950F931F93E091F40794
:10329000F091F507058516852785308906231723C4
:1032A00028233923011511052105310511F1DC0110
:1032B000CB01818B928BA38BB48B21E02783009071
:1032C000E40704C0B695A795979587950A94D2F719
:1032D00080FF03C00E94FC1C04C080E090E00E94BC
:1032E000CD1CE091F407F091F5070189128923893B
:1032F0003489C901B8011F910F91089580E090E0D1
:10330000089521E0805E974009F420E0822F8195A6
:1033100008950E9481198F3F11F481E003C081302C
:1033200029F482E00E9462148FEF0895992787FDA7
:103330009095FC01EE0FFF1F8E0F9F1FFC01E052C6
:10334000F84F82810895EF92FF920F931F93CF93CE
:10335000DF931F92CDB7DEB70E9481198F3F11F422
:1033600081E003C0813029F482E00E9462148FEF73
:1033700041C089830E94530F8981E82EFF24E7FC16
:10338000F0948701000F111FF801EE0DFF1DE052B0
:10339000F84F9281911116C0E091F407F091F50772
:1033A000978192609783992787FD9095A92FB92FD0
:1033B000818B928BA38BB48B0E94550F80E090E0A1
:1033C0000E94CD1C0E0D1F1DD801A052B84F1296A1
:1033D0008C911297815012968C931297E091F4077A
:1033E000F091F50711968C91838781E084830E9488
:1033F000550F81E00F90DF91CF911F910F91FF90BA
:10340000EF9008950F931F93CF93DF931F92CDB743
:10341000DEB70E9481198F3F11F481E003C0813033
:1034200029F482E00E9462148FEF44C0482F552790
:1034300047FD50959A01220F331F240F351F890134
:103440000052184FF80122819081291794F5898341
:103450000E94530FF80192819F5F9283E091F407DD
:10346000F091F5071482E9E3F7E08981992787FD58
:103470009095A92FB92F23E03081323099F44285FD
:10348000538564857585481759076A077B0751F48A
:10349000228316861786108A118A10821286138656
:1034A00014861586BB9637E0E53EF30729F70E94A0
:1034B000550F81E00F90DF91CF911F910F910895EB
:1034C0000E9481198F3F11F481E003C0813029F4FB
:1034D00082E00E9462148FEF0895992787FD9095EE
:1034E000FC01EE0FFF1F8E0F9F1FFC01E052F84FF3
:1034F0008FEF8083828381838091F3078150809353
:10350000F30781E00895E091E907F091EA078081EF
:103510000895E091E907F091EA07309721F00380E0
:10352000F481E02DFACF0895AF92BF92CF92DF924F
:10353000EF92FF920F931F93CF93DF93E0913007A9
:10354000F0913107309709F494C00091E907109188
:10355000EA070115110509F44CC0D8014BE2582FB8
:103560005403900111242E5C384F79019AE0E90E42
:10357000F11C6901C4E0CC0ED11C5901DBE0AD0E99
:10358000B11C2C9130E0429FB001439F700D11247B
:103590006E5C784FEB019C81992329F05B85E701F4
:1035A0009881591740F1E6019881992369F0429F6B
:1035B000B001439F700D11246E5C784FEB015A856A
:1035C000E50198815917B8F0429FB001439F700DF3
:1035D00011249B012E5C384FE9012A85E70198816F
:1035E000291748F013960D90BC91A02D109749F61D
:1035F00002C0A0E0B0E08083C381D481D0933107C2
:10360000C0933007A017B107B1F4109749F0B48305
:10361000A383128211821296FC93EE93119706C037
:103620001482138212821182FA83E983F093EA07EB
:10363000E093E9071EC0AC17BD0779F011968D9194
:103640009C91129792838183B483A3831196CD9129
:10365000DC911297FC83EB8308C0148213821196CD
:103660008D919C911297928381831296FC93EE9395
:103670001197DF91CF911F910F91FF90EF90DF9005
:10368000CF90BF90AF900895CF93DF93E091E9077B
:10369000F091EA07309709F444C0992787FD909587
:1036A000208130E02817390781F4A381B481B093D9
:1036B000EA07A093E90712961C921E92119718C070
:1036C0000380F481E02D309761F1208130E02817EC
:1036D0003907B1F7C181D281838194819C838B8327
:1036E000A381B481109721F01296DC93CE931197A9
:1036F000A0913007B0913107109739F4F09331075A
:10370000E0933007148213820AC0B483A383129615
:10371000FC93EE931197F0933107E09330071282F8
:103720001182DF91CF910895EF92FF920F931F9333
:10373000CF93DF93EC014B815C8169817A818D812C
:103740009E810E949C282F81222371F04B815C81F5
:10375000E12CF12C00E010E020E030E0BC01CE01D3
:103760000E9461101F820CC0E8812BE2E202F0018E
:103770001124EE5CF84F21852330B9F491838083C6
:10378000E8818BE2E802F0011124EE5CF84F8589B4
:103790009689A789B08D892B8A2B8B2B41F482E0E7
:1037A000818788810E94941A02C08FEF01C081E056
:1037B000DF91CF911F910F91FF90EF9008951F938C
:1037C000CF93DF93CDB7DEB728970FB6F894DEBF5F
:1037D0000FBECDBF29833A834B835C836D837E8389
:1037E0008F8398870E94530F0E94C625182FCE0101
:1037F00001960E94F11F6330710598F0E091F40783
:10380000F091F507212F30E0620F731FCB01A0E08C
:10381000B0E0858B968BA78BB08F0E94550F81E00F
:1038200001C08FEF28960FB6F894DEBF0FBECDBF54
:10383000DF91CF911F9108950E946F28E091F407C6
:10384000F091F50785818111F7CF0895CF930E94FC
:1038500051170E94530FE091F407F091F50781E0B2
:1038600090E092A781A785830E94C625C82F883F34
:1038700080F40E9460252C2F30E02F5F3F4F90E0B6
:103880002817390734F482E08C0F8093AA050E9430
:1038900064250E94550F0E941C1C81E0CF91089561
:1038A000E091F407F091F50780850E94441BE091B8
:1038B000F407F091F50784E081870E94261C81E0DF
:1038C0000895CF93DF93EC010E945117209711F4D4
:1038D000C1E0D0E00E94530FE091F407F091F507AA
:1038E00081E08583D2A7C1A70E94C625C82F883F43
:1038F00080F40E9460252C2F30E02F5F3F4F90E036
:103900002817390734F482E08C0F8093AA050E94AF
:1039100064250E94550F0E941C1C81E0DF91CF910D
:103920000895EF92FF920F931F93CF938C010E9403
:10393000530FE091F407F091F50781E085830E9431
:10394000C625C82FE091F407F091F507E82EF12C79
:10395000C701800F911FA0E0B0E0858B968BA78BED
:10396000B08FC83F78F40E9460259FEFE91AF90AEA
:1039700090E0E816F90634F482E08C0F8093AA05F3
:103980000E9464250E94550F0E941C1C81E0CF916B
:103990001F910F91FF90EF900895CF93DF93EC016B
:1039A0000E94530FE091F407F091F50721E0258381
:1039B000CE01A0E0B0E0858B968BA78BB08F0E94E4
:1039C000C625C82F883F80F40E9460252C2F30E048
:1039D0002F5F3F4F90E02817390734F482E08C0FB7
:1039E0008093AA050E9464250E94550F0E941C1C0A
:1039F00081E0DF91CF910895CF930E94530FE09122
:103A0000F407F091F50781E0858386830E94C6253F
:103A1000C82F883F80F40E9460252C2F30E02F5F54
:103A20003F4F90E02817390734F482E08C0F8093E1
:103A3000AA050E9464250E94550F0E941C1C81E06B
:103A4000CF9108951F93CF93DF93CDB7DEB728971B
:103A50000FB6F894DEBF0FBECDBF29833A834B83E8
:103A60005C836D837E838F8398870E9451170E94A9
:103A7000530FE091F407F091F50781E0858381E031
:103A800090E092A781A70E94C625182FCE0101962B
:103A90000E94F11FE091F407F091F507DC01CB01E2
:103AA000810F911DA11DB11D858B968BA78BB08FAA
:103AB000183F80F40E946025212F30E02F5F3F4F98
:103AC00090E02817390734F482E0810F8093AA052B
:103AD0000E9464250E94550F0E941C1C81E02896BC
:103AE0000FB6F894DEBF0FBECDBFDF91CF911F910F
:103AF00008958F929F92AF92BF92CF92DF92EF92F2
:103B0000FF920F931F93CF93DF93CDB7DEB76097EC
:103B10000FB6F894DEBF0FBECDBF29873A874B871B
:103B20005C876D877E878F87988BCE0101960E9478
:103B3000D51D89809A80AB80BC80CD80DE80EF80EF
:103B4000F88409851A852B853C854D855E856F85B2
:103B50007889CE0109960E94321E8F3F61F0298537
:103B60003A854B855C856D857E858F8598890E9419
:103B7000221D81E001C08FEF60960FB6F894DEBF82
:103B80000FBECDBFDF91CF911F910F91FF90EF90AE
:103B9000DF90CF90BF90AF909F908F900895E0916D
:103BA000F407F091F507808508950F931F93CF9345
:103BB000DF93EC011C821D821E821F828091EB0725
:103BC0009091EC07A091ED07B091EE07888399835F
:103BD000AA83BB838091EF079091F007A091F10732
:103BE000B091F2078C839D83AE83BF830E94C6256C
:103BF000A82FB0E023EB36EE4EE050E00E949A2A68
:103C00000C811D812E813F81DC01CB01800F911F32
:103C1000A21FB31F8C839D83AE83BF838C819D8144
:103C2000AE81BF8181152AEC92072AE9A2072BE316
:103C3000B20798F09A5CAA49BB438C839D83AE83FC
:103C4000BF8388819981AA81BB810196A11DB11D85
:103C500088839983AA83BB83E1CFDF91CF911F91A2
:103C60000F9108958F929F92AF92BF92CF92DF9261
:103C7000EF92FF920F931F93CF93DF93CDB7DEB7F1
:103C800060970FB6F894DEBF0FBECDBFFC0109836D
:103C90001A832B833C834D835E836F837887898669
:103CA0009A86AB86BC86CD86DE86EF86F88A098149
:103CB0001A812B813C814D815E816F817885C98419
:103CC000DA84EB84FC848D859E85AF85B8890C15DC
:103CD0001D052E053F05F0F1C016D106E206F306DC
:103CE00091F4481759076A077B07A0F1481B590B45
:103CF0006A0B7B0B44835583668377831082118222
:103D00001282138225C0481759076A077B0780F47F
:103D100001501109210931090C191D092E093F090A
:103D2000008311832283338356536546744C08C045
:103D30000C191D092E093F09008311832283338347
:103D4000481B590B6A0B7B0B44835583668377832F
:103D500081E001C08FEF60960FB6F894DEBF0FBE12
:103D6000CDBFDF91CF911F910F91FF90EF90DF902A
:103D7000CF90BF90AF909F908F900895FC014481A9
:103D800055816681778141158AEC58078AE9680771
:103D90008BE3780798F05A5C6A497B4344835583E8
:103DA0006683778380819181A281B3810196A11D71
:103DB000B11D80839183A283B383E1CF08958F9255
:103DC0009F92AF92BF92CF92DF92EF92FF920F93AA
:103DD0001F93CF93DF93CDB7DEB760970FB6F894FC
:103DE000DEBF0FBECDBF09831A832B833C834D8377
:103DF0005E836F83788789869A86AB86BC86CD86FC
:103E0000DE86EF86F88A09851A852B853C854981EF
:103E10005A816B817C81400F511F621F731FFC010F
:103E200040835183628373830D851E852F85388976
:103E30004D815E816F817885400F511F621F731F16
:103E400044835583668377830E94BE1E81E060961B
:103E50000FB6F894DEBF0FBECDBFDF91CF911F919B
:103E60000F91FF90EF90DF90CF90BF90AF909F9019
:103E70008F900895EBEEF7E06083718382839383E4
:103E8000248335834683578308952F923F924F9220
:103E90005F926F927F928F929F92AF92BF92CF92DA
:103EA000DF92EF92FF920F931F93FC01C080D180AD
:103EB000E280F380C114D104E104F104E1F18481D2
:103EC0009581A681B78122E4C216D104E104F104F0
:103ED000F0F51C012D01612C712C4301E0E08E2FC7
:103EE00090E0A0E0B0E08C159D05AE05BF0588F41C
:103EF0009101A201B301C40136534546544C6F4FA2
:103F00007F4F8F4F9F4F19012A013B014C01EF5FFB
:103F1000E6CF83EBA82E96EEB92E2EE0C22ED12C42
:103F2000E12CF12C00E010E09101A201B301C401E9
:103F30000E94D92A0AC0648175818681978123EB0A
:103F400036EE4EE050E00E94B52AC90102C080E082
:103F500090E01F910F91FF90EF90DF90CF90BF9076
:103F6000AF909F908F907F906F905F904F903F9019
:103F70002F900895CF92DF92EF92FF92CF93DF932D
:103F8000CDB7DEB728970FB6F894DEBF0FBECDBF12
:103F90006B017C012AE0F694E794D794C7942A95A4
:103FA000D1F7C982DA82EB82FC829B01AC013370CB
:103FB0004427552763EB76EE8EE090E00E94A52A19
:103FC0002C2D3A814B815C8128960FB6F894DEBF88
:103FD0000FBECDBFDF91CF91FF90EF90DF90CF90DC
:103FE00008952F923F924F925F926F927F928F929D
:103FF0009F92AF92BF92CF92DF92EF92FF920F9378
:104000001F93FC01C080D180E280F380C114D104F1
:10401000E104F104B9F184819581A681B7811C0185
:104020002D01612C712C4301E0E08E2F90E0A0E087
:10403000B0E08C159D05AE05BF0588F49101A20185
:10404000B301C40136534546544C6F4F7F4F8F4FD9
:104050009F4F19012A013B014C01EF5FE6CF83EB33
:10406000A82E96EEB92E2EE0C22ED12CE12CF12CEA
:1040700000E010E09101A201B301C4010E94D92A1D
:10408000CA010BC0648175818681978123EB36EE6E
:104090004EE050E00E94B52ACA01B9011F910F916C
:1040A000FF90EF90DF90CF90BF90AF909F908F9058
:1040B0007F906F905F904F903F902F900895C1E058
:1040C0000E9451170E946025843010F4C093E807C5
:1040D0000E946F2880914206853519F088E00E9481
:1040E000CA1580917E41853559F388E00E94CA1532
:1040F000E7CF2F923F924F925F926F927F928F9273
:104100009F92AF92BF92CF92DF92EF92FF920F9366
:104110001F93CF93DF930E94550F8AEF0E9464256F
:104120000E9460280E942E23C091AA05AC2FB0E007
:1041300023EB36EE4EE050E00E949A2A0091EF0702
:104140001091F0072091F1073091F2076B017C018B
:10415000C00ED11EE21EF31EC701B60123EB36EEE0
:104160004EE050E00E94B52AC61AD70AE80AF90ABA
:10417000C092EF07D092F007E092F107F092F207B9
:10418000E091F407F091F5078085811130C08091AE
:10419000E807823019F48C2F0E945611E091F40741
:1041A000F091F5076091AA0580850E94BE11E0910B
:1041B000F407F091F50760E080850E94FB11809183
:1041C000EF079091F007A091F107B091F2070091ED
:1041D000EB071091EC072091ED073091EE0753EBC0
:1041E000452E56EE552E5EE0652E712C07C095814A
:1041F0006C2F9111E2CF0E94BE11E1CF480159010D
:104200004FEF841A940AA40AB40A81155AEC950750
:104210005AE9A5075BE3B507C8F06C017D012AECFC
:10422000D21A2AE9E20A2BE3F20AC701B601A30176
:1042300092010E94B52AA7019601261B370B480B55
:10424000590BDA01C90195018401D8CF8093EF079A
:104250009093F007A093F107B093F2070093EB0758
:104260001093EC072093ED073093EE07E091F407ED
:10427000F091F5078581882339F18185843021F11A
:104280008781823029F0882341F08681811102C024
:1042900085E001C083E0818714C083E081871782B5
:1042A000168285899689A789B08D892B8A2B8B2BBD
:1042B00041F4818D928DA38DB48D858B968BA78BC8
:1042C000B08F80850E94441BE091F407F091F507C0
:1042D00085A196A1A7A1B0A5892B8A2B8B2B09F4C8
:1042E0004EC08085882309F44AC09185943009F432
:1042F00046C0458D568D678D70A10091AA0510E0CE
:1043000020E030E0401751076207730798F40E94DD
:104310008B11E091F407F091F507608582E00E942F
:10432000D915E091F407F091F507158E168E178ECA
:1043300010A208C0401B510B620B730B458F568FA8
:10434000678F70A3E091F407F091F507C085858D24
:10435000968DA78DB0A1892B8A2B8B2B81F48C2F66
:104360000E948B116C2F83E00E94D915E091F40715
:10437000F091F50783E081878C2F0E94441BCBE3EB
:10438000D7E000E61AEE312C2AEFC22ED12CE12C18
:10439000F12C32E0232E812C912C54018394FE01C8
:1043A000319780818F3F09F4E5C0339710828823CD
:1043B00009F45BC08881843009F457C04C845D8463
:1043C0006E847F846091AA0570E080E090E04616DC
:1043D00057066806790648F0461A570A680A790AA5
:1043E0004C865D866E867F8604C01C861D861E8672
:1043F0001F86488859886A887B884616570668064B
:10440000790648F0461A570A680A790A488A598A8A
:104410006A8A7B8A1AC0288D398D4A8D5B8D621716
:1044200073078407950758F429013A01461A570A79
:10443000680A790A488A598A6A8A7B8A06C00E9471
:10444000B52A688B798B8A8B9B8B88899989AA89F5
:10445000BB89892B8A2B8B2B41F4888D998DAA8D52
:10446000BB8D888B998BAA8BBB8B8881833009F09D
:1044700081C08C859D85AE85BF85892B8A2B8B2B32
:1044800009F067C0DE0112978C91FE0133978823F3
:1044900091F08081882379F0B501A4010090E407B0
:1044A00004C0440F551F661F771F0A94D2F7488730
:1044B00059876A877B871C921082A8A1B9A1A13075
:1044C000B10509F58C8D9D8DAE8DBF8D8C8B9D8B2F
:1044D000AE8BBF8B288288899989AA89BB898C87F2
:1044E0009D87AE87BF87888D998DAA8DBB8D892BBF
:1044F0008A2B8B2B21F4CC86DD86EE86FF86832DDE
:104500000E94941A26C04C8D5D8D6E8D7F8D4C8BD4
:104510005D8B6E8B7F8B488C598C6A8C7B8C119752
:10452000A30192010E949A2A6C877D878E879F87BC
:10453000688B798B8A8B9B8B45284628472821F4EA
:10454000CC86DD86EE86FF8666246394712C79A284
:1045500068A28C859D85AE85BF850097A105B105B4
:1045600049F0A80160E070E084179507A607B70737
:1045700008F48C013394AB9684E0782E37100FCF7B
:10458000E091F407F091F50780850E949D110E944B
:10459000831AC82F2BE28202F0011124EE5CF84F3F
:1045A00022852093F607F093E607E093E50788233A
:1045B000D9F085A196A1A7A1B0A5892B8A2B8B2B19
:1045C00099F0858D968DA78DB0A18A3F9105A105A3
:1045D000B10550F4A80160E070E084179507A607C4
:1045E000B70710F48C0105C00B3F110510F00AEF5E
:1045F00010E02093E707F093F507E093F4070093AA
:10460000AA050E94C625282F30E02F5F3F4F2017B4
:10461000310740F00E94C625082F10E00E5F1F4FA3
:104620000093AA05C1111092E807802F0E9464250B
:104630000E94E928DF91CF911F910F91FF90EF9099
:10464000DF90CF90BF90AF909F908F907F906F90B2
:104650005F904F903F902F900C94F4283F924F9290
:104660005F926F927F928F929F92AF92BF92CF9202
:10467000DF92EF92FF920F931F93CF93DF93CDB70B
:10468000DEB760970FB6F894DEBF0FBECDBFCE0188
:1046900009960E94D51D87EF482E87E0582E612C81
:1046A000712C93E1392ED20112968C91813051F503
:1046B000369CF001379CF00D1124EE5FF74F898492
:1046C0009A84AB84BC84CD84DE84EF84F888008136
:1046D0001181228133814481558166817781CE01A8
:1046E00001960E94321E8F3F69F4662D85E10E947B
:1046F000D915D201ED91FC91309719F40E94570F12
:1047000001C00995BFEF6B1A7B0AE3E14E0E511C05
:10471000F3E06F16710439F660960FB6F894DEBFB9
:104720000FBECDBFDF91CF911F910F91FF90EF9002
:10473000DF90CF90BF90AF909F908F907F906F90C1
:104740005F904F903F900895E7EFF7E01282158A4F
:1047500010A60895CF93DF938330E0F493E1899F0F
:10476000F0011124E950F84F51834083EB01888117
:104770009981AA81BB8183839483A583B6838C812D
:104780009D81AE81BF8187839087A187B287128286
:1047900081E001C08FEFDF91CF910895CF92DF923A
:1047A000EF92FF920F931F93CF93DF93CDB7DEB7B6
:1047B00028970FB6F894DEBF0FBECDBF8330A8F5A3
:1047C000182FCE0101960E94D51D23E1129FC00132
:1047D00011248C010950184FF801C380D480E58062
:1047E000F68049815A816B817C814C0D5D1D6E1D67
:1047F0007F1D4387548765877687C780D084E1848F
:10480000F2844D815E816F8178854C0D5D1D6E1D3A
:104810007F1D4787508B618B728B8E5F974F0E94F5
:10482000BE1E81E0F801828301C08FEF28960FB68B
:10483000F894DEBF0FBECDBFDF91CF911F910F91D6
:10484000FF90EF90DF90CF9008951F93CF93DF9369
:10485000CDB7DEB728970FB6F894DEBF0FBECDBF39
:10486000833070F5182FCE0101960E94D51D83E18B
:10487000189FF0011124E950F84F4381548165815C
:10488000768189819A81AB81BC81840F951FA61F97
:10489000B71F83879487A587B68747815085618531
:1048A00072858D819E81AF81B885840F951FA61F6B
:1048B000B71F8787908BA18BB28B81E0828301C069
:1048C0008FEF28960FB6F894DEBF0FBECDBFDF91F5
:1048D000CF911F910895833048F493E1899FF001AF
:1048E0001124E950F84F128281E008958FEF089566
:1048F00000000000000000000000000000000000B8
:104900000000000000000000019791F70895109248
:104910002101089589E0809321018DE89CE3909323
:1049200029018093280108951092250110922401F5
:104930000895CF93DF9300D0CDB7DEB780912401E7
:10494000909125019A83898389819A810F900F9094
:10495000DF91CF91089510928100089581E08093B6
:104960008100089583B5816083BD10928500109207
:1049700084000895CF93DF9300D0CDB7DEB7809148
:104980008400909185009A83898389819A810F9010
:104990000F90DF91CF910895CF92DF92EF92FF9227
:1049A000CF93DF93EC01CC0FDD1FC9378FEFD80712
:1049B00010F0C0E0D0E06B01E12CF12CCC0EDD1E3C
:1049C000E11CF11C81E0C816D104E806F10440F0B6
:1049D00081E0E81AF1080E94BA24C817D907D8F371
:1049E0000E94BA248C159D05D8F3DF91CF91FF90DA
:1049F000EF90DF90CF9008951092B100E0E7F0E0E3
:104A000080818D7F808380818E7F808308958093D5
:104A1000B2000895E0E7F0E080818360808383E066
:104A20008093B100089583B5826083BD1092B20077
:104A3000109254041092AA050895CF93DF938EEF3D
:104A40008093AA0580E28093B6008091AA058093A6
:104A5000B30083E087BB92E09093B0008093B100F5
:104A600093B5926093BD87BB84BD83B5826083BDDF
:104A70001092800081E08093810010928500109256
:104A8000840083B5826083BD83B5816083BD10924D
:104A90002001C4E2D1E01982188283B5826083BD0F
:104AA00083B5816083BD0E941325198218820E94FC
:104AB0000A250E948A2410925404DF91CF91089510
:104AC0008091B3008F5F089581508093B300089563
:104AD000811102C0109271008FEF0895811106C0FC
:104AE000109295001092940081E008958FEF089540
:104AF000811105C08091940090919500089580E007
:104B000090E00895811105C082E08093710081E0FA
:104B100008958FEF0895811135C0CB010197059756
:104B200010F46093A9051092900088E080939100A2
:104B300050939900409398003093D2032093D1036F
:104B40008091A905813021F480919100816011C08C
:104B5000823021F48091910082600BC0833021F477
:104B600080919100836005C0843031F48091910080
:104B700084608093910008C0853031F48091910069
:104B80008560F7CF8FEF089581E008958091B2009E
:104B900008951F920F920FB60F92112460E08AE0E1
:104BA0000E94D915FFCF0F920FB60F921F922F922E
:104BB0003F924F925F926F927F928F929F92AF92AD
:104BC000BF92CF92DF92EF92FF920F931F932F939A
:104BD0003F934F935F936F937F938F939F93AF9385
:104BE000BF93CF93DF93EF93FF93A091F407B0911E
:104BF000F5070DB60D920EB60D921F92A091A70566
:104C0000B091A8051E90BEBFADBF08951F920F9230
:104C10000FB60F9211240BB60F922F933F934F9321
:104C20005F936F937F938F939F93AF93BF93EF9314
:104C3000FF93E091D103F091D203309711F00995E1
:104C400004C060E08AE00E94D915FF91EF91BF9106
:104C5000AF919F918F917F916F915F914F913F9114
:104C60002F910F900BBE0F900FBE0F901F901895B5
:104C70001F920F920FB60F9211240F900FBE0F903C
:104C80001F90189504B603FE02C080E101C080E0C9
:104C900004B602FE06C094B79B7F94BF04B600FE24
:104CA000846004B601FE05C094B79D7F94BF826006
:104CB000089581110CC004B600FE04C094B79E7F15
:104CC00094BF01C081E09091B000911181E00895FE
:104CD000811102C0E89A39C0813011F4E99A08952F
:104CE000823011F4EA9A31C0833021F480916B0054
:104CF000816029C0843021F480916B00826023C0E0
:104D0000853021F480916B0084601DC0863021F4D1
:104D100080916B00886017C0873021F480916B0010
:104D2000806111C0883021F480916B0080620BC0DB
:104D3000893021F480916B00806405C08A3039F499
:104D400080916B00806880936B0081E008958FEF05
:104D50000895811102C0E89839C0813011F4E998B2
:104D60000895823011F4E99831C0833021F48091A4
:104D70006B008E7F29C0843021F480916B008D7F81
:104D800023C0853021F480916B008B7F1DC086305D
:104D900021F480916B00877F17C0873021F48091C8
:104DA0006B008F7E11C0883021F480916B008F7D65
:104DB0000BC0893021F480916B008F7B05C08A3055
:104DC00039F480916B008F7780936B0081E00895B8
:104DD0008FEF0895811126C050934D0840934C08E1
:104DE000611104C0809169008C7F3DC0613049F43D
:104DF000809169008D7F8093690080916900816056
:104E000032C0623049F48091690082608093690009
:104E1000809169008E7F27C0633039F580916900E9
:104E2000836021C0813049F550934B0840934A0874
:104E3000611104C080916900837F15C0613049F41D
:104E400080916900877F8093690080916900846008
:104E50000AC0623061F480916900886080936900C3
:104E6000809169008B7F8093690081E008956330B1
:104E7000E1F7809169008C60F6CF823031F5509374
:104E80004F0840934E08611104C0809169008F7CE7
:104E9000EACF613049F4809169008F7D8093690089
:104EA000809169008061DFCF623049F480916900B0
:104EB000806280936900809169008F7ED4CF6330D7
:104EC000A1F6809169008063CECF8350883050F482
:104ED00080916800816080936800509351084093EE
:104EE0005008C3CF8FEF08951F920F920FB60F9205
:104EF00011240BB60F922F933F934F935F936F93B1
:104F00007F938F939F93AF93BF93EF93FF93E09122
:104F10005008F0915108309711F0099504C060E0F5
:104F20008AE00E94D915FF91EF91BF91AF919F91B7
:104F30008F917F916F915F914F913F912F910F9042
:104F40000BBE0F900FBE0F901F9018951F920F92DF
:104F50000FB60F9211240BB60F922F933F934F93DE
:104F60005F936F937F938F939F93AF93BF93EF93D1
:104F7000FF93E0914C08F0914D08309711F009959E
:104F800004C060E08AE00E94D915FF91EF91BF91C3
:104F9000AF919F918F917F916F915F914F913F91D1
:104FA0002F910F900BBE0F900FBE0F901F90189572
:104FB0001F920F920FB60F9211240BB60F922F93E0
:104FC0003F934F935F936F937F938F939F93AF9391
:104FD000BF93EF93FF93E0914A08F0914B0830970D
:104FE00011F0099504C060E08AE00E94D915FF9194
:104FF000EF91BF91AF919F918F917F916F915F9151
:105000004F913F912F910F900BBE0F900FBE0F90BD
:105010001F9018951F920F920FB60F9211240BB686
:105020000F922F933F934F935F936F937F938F9341
:105030009F93AF93BF93EF93FF93E0914E08F0914E
:105040004F08309711F0099504C060E08AE00E9493
:10505000D915FF91EF91BF91AF919F918F917F9162
:105060006F915F914F913F912F910F900BBE0F90D9
:105070000FBE0F901F901895A8959FB7F89484B70E
:10508000877F84BFE0E6F0E08081886180831082C2
:105090009FBF08959FB7F894A89584B7877F84BF72
:1050A000E0E6F0E08081886180838DE080839FBFAF
:1050B000089504B603FE02C08FEF089581E00895BD
:1050C000A8950895089583B7817F866083BF83B7CD
:1050D000816083BF889583B78E7F83BF089583B730
:1050E000817F83BF83B7816083BF889583B78E7FBD
:1050F00083BF0895FC01768365830895EF92FF9244
:105100000F931F93CF93DF938C017B01EA01403211
:10511000510518F481E10E94CA152197CE0DDF1DBB
:10512000F801D283C183F482E382DF91CF911F9192
:105130000F91FF90EF90089525E5FA012083FB0180
:105140003297908331968083339711821082329701
:10515000118210823297118210823297118210824E
:105160003297118210823297118210823297118207
:1051700010823297118210823297118210823297F8
:10518000118210823297118210823297118210821E
:1051900032971182108232971182108232971182D7
:1051A0001082329711821082CB018497FC01118208
:1051B0001082089585E580937E41EEEFF1E4F0934F
:1051C000A805E093A70587E191E190838093FF41D3
:1051D000089587E191E19093FE418093FF41089506
:1051E0000E941D250C94550FA091E507B091E6078C
:1051F000CD91CDBFDD91DEBFFF91EF91DF91CF91DA
:10520000BF91AF919F918F917F916F915F914F91DE
:105210003F912F911F910F91FF90EF90DF90CF90D2
:10522000BF90AF909F908F907F906F905F904F90C6
:105230003F902F901F900F900FBE0F9018950E94D7
:10524000040B80E190E00E94880E0E94A1047894F3
:1052500080E090E00E94360E0E94C6030E94AF03D9
:105260000E94BB030E945A0F82E090E00E941F0E32
:1052700083E090E00E941F0E81E090E00E941F0EEC
:1052800080E090E00E941F0E20E030E0A90160E085
:1052900070E0CB010E943A1F0E94F3030E9420108D
:1052A00080E090E008956F927F928F929F92AF92EC
:1052B000BF92CF92DF92EF92FF920F931F93CF9303
:1052C000DF93CDB7DEB72C970FB6F894DEBF0FBED5
:1052D000CDBF6C015B017A01FC01178216828381CC
:1052E00081FF0EC1CE0101964C01F6010381F5014B
:1052F00003FD159103FF11915F01112309F4FCC017
:10530000153249F403FD159103FF11915F01153228
:1053100011F020E01BC0B601812F90E00E94B82B55
:1053200037017301E2CF112309F4E6C0612F70E069
:105330008EEF94E02C870E944B2B2C85892B49F013
:10534000F50103FD159103FF11915F0127FFEBCFDD
:1053500009C0133229F01C3609F0D5C02068F0CFFF
:1053600020E1EECF022F112309F4C6C0612F70E0B7
:1053700087EF94E02C870E944B2B2C85892B41F0E2
:105380003701F4E06F0E711CB6018FE390E011C09D
:10539000133639F0133781F0133519F5022F0160F8
:1053A0000BC0370182E0680E711CB601F7018081E5
:1053B00091810E94B82BB5CF3701F2E06F0E711CBE
:1053C000F701E080F180F70100FD859100FF8191F8
:1053D0007F01882309F4A5CFB60190E00E94B82B85
:1053E000F2CF143611F0193629F5370127FF09C01D
:1053F000F4E06F0E711CF7016081718182819381ED
:105400000AC0F2E06F0E711CF7016081718188277C
:1054100077FD8095982F022F0F7E97FF08C09095FB
:105420008095709561957F4F8F4F9F4F00642AE064
:1054300030E033C0103799F040F41835B1F01F3622
:1054400009F05AC028E030E014C0153719F01837B9
:1054500041F052C0022F0F7E2AE030E00AC0022F36
:105460000061046220E130E004C0022F046020E10A
:1054700032E0370107FF09C0F4E06F0E711CF7013D
:10548000608171818281938108C0F2E06F0E711C8E
:10549000F7016081718180E090E0A4010E946A2C94
:1054A000182F181906FF05C0B6018DE290E00E9482
:1054B000B82B04FF15C0FE01E10FF11D8081803380
:1054C00079F0B60180E390E00E94B82B02FF08C09B
:1054D0000072802F90E0B601885A9F4F0E94B82B2F
:1054E0001150F401E10FF11D8081B60190E00E949E
:1054F000B82B1111F5CF15CFF6018681978105C024
:105500008FEF9FEF02C0022F31CF2C960FB6F89489
:10551000DEBF0FBECDBFDF91CF911F910F91FF90E6
:10552000EF90DF90CF90BF90AF909F908F907F9043
:105530006F9008950E943C2BA59F900DB49F900DF5
:10554000A49F800D911D11240895DB018F939F93DB
:105550000E949A2ABF91AF91A29F800D911DA39F97
:10556000900DB29F900D11240895A1E21A2EAA1B4E
:10557000BB1BFD010DC0AA1FBB1FEE1FFF1FA21703
:10558000B307E407F50720F0A21BB30BE40BF50B00
:10559000661F771F881F991F1A9469F76095709589
:1055A000809590959B01AC01BD01CF010895689451
:1055B00001C0E8948F929F92CF93DF930E94E52AD7
:1055C000DF91CF919F908F90089588249924F401C2
:1055D000E401B0E49F93AA279A158B049C04ED057F
:1055E000FE05CF05D007A10798F4AD2FDC2FCF2FF4
:1055F000FE2FE92D982C892E982F872F762F652F37
:10560000542F432F322F2227B85031F7BF9127C094
:105610001B2EBF91BB27220F331F441F551F661F30
:10562000771F881F991F881C991CEE1FFF1FCC1F16
:10563000DD1FAA1FBB1F8A149B04EC05FD05CE05C8
:10564000DF05A007B10748F08A189B08EC09FD099F
:10565000CE09DF09A00BB10B21601A94E1F62EF4FC
:105660009401AF01BE01CD01000C0895EE0FFF1FA4
:105670000590F491E02D0994A29FB001B39FC00161
:10568000A39F700D811D1124911DB29F700D811D6E
:105690001124911D0895FC010590061621F00020AB
:1056A000D9F7C00108953197CF010895FB01DC01BE
:1056B00002C001900D9241505040D8F70895FB016F
:1056C000DC014150504030F08D910190801919F467
:1056D0000020B9F7881B990B08950F931F93CF9360
:1056E000DF93009731F46115710519F480E090E0C3
:1056F0003AC08B01EC016EE070E081E090E00E9426
:10570000DE2CFC01009791F380E8838301151105DD
:1057100071F01387028781E883838091520890910A
:105720005308892B21F4F0935308E09352082097F3
:10573000C9F0D187C08783818260838380915408B8
:1057400090915508892B71F4F0935508E093540813
:105750008091560890915708892B21F4F0935708AF
:10576000E0935608CF01DF91CF911F910F910895DB
:105770000F931F93CF93DF93FB01238121FD03C080
:105780008FEF9FEF28C022FF16C0468157812481EA
:1057900035814217530744F4A081B1819D012F5FE9
:1057A0003F4F318320838C93268137812F5F3F4F7A
:1057B0003783268310C0EB01092F182F0084F18551
:1057C000E02D0995892BE1F68E819F8101969F83BB
:1057D0008E83812F902FDF91CF911F910F9108958C
:1057E000CF93DF93CDB7DEB7AE014B5F5F4FFA01CA
:1057F00061917191AF0180915408909155080E9478
:105800005329DF91CF910895609154087091550804
:105810000C94B82B0F931F93CF93DF93E091540810
:10582000F0915508238121FF1BC08C01D0E0C0E01E
:10583000F80181918F016091540870915508DB0146
:105840001896ED91FC911997882331F00995892BD1
:1058500079F3DFEFCFEFECCF8AE00995892B19F0D0
:105860008FEF9FEF02C08D2F9C2FDF91CF911F9163
:105870000F9108950F931F93CF93DF93CDB7DEB7AA
:105880002E970FB6F894DEBF0FBECDBF0D891E89CF
:1058900086E08C831A8309838FEF9FE79E838D8335
:1058A000AE01475E5F4F6F89788DCE0101960E94F1
:1058B00053292F813885F801E20FF31F10822E96AD
:1058C0000FB6F894DEBF0FBECDBFDF91CF911F9111
:1058D0000F910895FA01AA27283051F1203181F162
:1058E000E8946F936E7F6E5F7F4F8F4F9F4FAF4FE8
:1058F000B1E03ED0B4E03CD0670F781F891F9A1FFB
:10590000A11D680F791F8A1F911DA11D6A0F711DAE
:10591000811D911DA11D20D009F468943F912AE0BA
:10592000269F11243019305D3193DEF6CF010895A2
:10593000462F4770405D4193B3E00FD0C9F7F6CFD3
:10594000462F4F70405D4A3318F0495D31FD40529B
:10595000419302D0A9F7EACFB4E0A6959795879531
:1059600077956795BA95C9F7009761057105089510
:105970009B01AC010A2E06945795479537952795BC
:10598000BA95C9F7620F731F841F951FA01D089554
:10599000F999FECF92BD81BDF89A992780B50895F7
:1059A000262FF999FECF1FBA92BD81BD20BD0FB63B
:1059B000F894FA9AF99A0FBE019608950F931F93DF
:1059C000CF93DF93869F8001879F100D969F100DC8
:1059D0001124C8010E94FA2CEC01009729F0A801BB
:1059E00060E070E00E94272ECE01DF91CF911F91E1
:1059F0000F910895CF93DF938230910510F482E0E8
:105A000090E0E0915A08F0915B0820E030E0C0E0BF
:105A1000D0E0309711F14081518148175907C0F00B
:105A20004817590761F482819381209719F09B836D
:105A30008A832BC090935B0880935A0826C0211557
:105A4000310519F04217530718F49A01BE01DF011E
:105A5000EF010280F381E02DDCCF2115310509F142
:105A6000281B390B2430310590F412968D919C91AE
:105A700013976115710521F0FB019383828304C0A4
:105A800090935B0880935A08FD01329644C0FD0153
:105A9000E20FF31F81939193225031092D933C9390
:105AA0003AC02091580830915908232B41F4209195
:105AB0001302309114023093590820935808209112
:105AC0001102309112022115310541F42DB73EB774
:105AD0004091150250911602241B350BE091580895
