:100000000C9487020C948F270C94C1270C94F3272F
:100010000C94A6020C94A6020C94A6020C94A602C0
:100020000C94A6020C945D270C94A6020C94A602D4
:100030000C94A6020C94BC250C94A6020C94BC252E
:100040000C94A6020C94A6020C94A6020C94A60290
:100050000C94A6020C94A6020C94A6020C94A60280
:100060000C94A6020C94A6020C94A6020C94A60270
:100070000C94A6020C94A6020C94A6020C94A60260
:100080000C94EF250C94A6020C94A6020C94A602E4
:100090000C94A6020C94A6020C94A6020C94FC04E8
:1000A0000C94A6020C94A6020C94A6020C94A60230
:1000B0000C94A6020C94A6020C94A6020C94A60220
:1000C0000C94A6020C94A6020C94A6020C94A60210
:1000D0000C94A6020C94A6020C94A6020C94A60200
:1000E0000C94A6020C94E8080C94D9080C94A90866
:1000F0000C9499090C949A080C948B080C94790828
:100100000C946A080C94A6020C94A6020C94A60205
:100110000C94A6020C94A6020C94A6020C94A602BF
:100120001E0B2B0B380B450B520B5F0B6C0B8F0B05
:100130009D0BAB0BB90BC70BD50BE30B060C080CD7
:100140000A0C0C0C0E0C100C120C310C540C780C0C
:100150009B0CBE0CE10C040D3E0D500D620D740D98
:10016000860D980DAA0DC80DD50DE20DEF0DFC0DF5
:10017000090E160E15151B151E152115241527150C
:100180002D152A153015331536153F154215451511
:1001900048153C15121518154B154E1539150F1528
:1001A00037163A1645164A1651165A165D16621635
:1001B000691672160D0A4E616E6F2D524B205461F6
:1001C000736B20537461746973746963733A0D0AB5
:1001D000000D0A000D0A2020204F766572666C6FB4
:1001E00077204572726F72205374617475733A2070
:1001F000000D0A2020204B65726E656C2056696FD9
:100200006C6174696F6E733A20000D0A20202050D3
:100210007265656D7074696F6E733A20000D0A2007
:100220002020537761702D696E733A20000D0A20EB
:10023000202054696D65205B4D696E2C4C61737490
:100240002C4D61785D3A20000D0A202020546F74F7
:10025000616C204350553A20000D0A20202049644B
:100260006C65205461736B204465657020536C6528
:1002700065702054696D653A20000D0A20202054D5
:100280006F74616C2053797374656D205570746957
:100290006D653A2000205461736B2049443A200078
:1002A000554E4B4F574E0045787465726E616C2009
:1002B00052657365740042726F776E204F757420BB
:1002C000446574656374004661696C656420746F8D
:1002D000206372656174652053656D6170686F722B
:1002E00065004661696C656420746F2063726561A6
:1002F0007465205369676E616C004B65726E656C46
:100300002066756E6374696F6E206E6F7420696D00
:10031000706C656D656E74656400446576696365CF
:1003200020447269766572204572726F720057615F
:10033000746368646F6720526573746172740053EC
:1003400057205761746368646F67205265737461E6
:1003500072740054696D6572204F766572666C6FB9
:100360007700556E68616E646C656420496E7465D3
:10037000727275707420566563746F72004C6F777B
:1003800020566F6C74616765004578747261205403
:1003900061736B20737461727465642C20697320BF
:1003A0006E726B5F6366672E68206F6B3F004964F7
:1003B0006C65206F72204B65726E656C20537461A2
:1003C000636B204F766572666C6F7700556E65784B
:1003D000706563746564205265737461727400445F
:1003E00075706C696361746564205461736B204936
:1003F00044005363686564756C6572204D6973735E
:1004000065642057616B657570005461736B205291
:100410006573657276652056696F6C6174656400FA
:1004200052657365727665204572726F7220696ECF
:10043000205363686564756C657200496E76616C03
:10044000696420537461636B20506F696E746572C8
:10045000005461736B20537461636B204F76657237
:10046000666C6F7700537461636B20776173206EE5
:100470006F7420646566696E6564206173206C61C9
:1004800072676520656E6F75676821005461736BD4
:1004900020706572696F6420746F6F206C61726781
:1004A000652E20506572696F64206D7573742062CB
:1004B00065206C657373207468616E20363120731B
:1004C00065636F6E64732E00293A20002A4E524BEA
:1004D000204552524F5228004E524B205265626FB7
:1004E0006F742E2E2E0D0A000D0A535441434B20DB
:1004F00044554D500D0A0045464765666700202B60
:100500002D2E3031323334353637383968001124E6
:100510001FBECFEFD1E4DEBFCDBF13E0A0E0B2E05D
:10052000E2E3FCE500E00BBF02C007900D92AE3B9A
:10053000B107D9F718E0AEEBB3E001C01D92AC38BB
:10054000B107E1F70E9408290C94172E0C94B225EC
:1005500016EA02E387EAF82EC8E6D2E01093E50631
:100560000093E60662E085EE96E00E94B604F09203
:10057000E5061092E6061092E7061092E806109241
:10058000E9061092EA061092EB0667E085EE96E027
:100590000E94B60467E085EE96E00E94E504882399
:1005A00021F18091EA061F928F938091EB061F92B2
:1005B0008F938091E8061F928F938091E9061F9296
:1005C0008F938091E6061F928F938091E7061F928A
:1005D0008F93DF93CF930E94D92B8DB79EB70E9642
:1005E0000FB6F8949EBF0FBE8DBF0E940F1CB6CFF2
:1005F00010ED0DE181EDF82EC5E9D2E01093E5068E
:100600000093E60662E085EE96E00E94B604F09262
:10061000E5061092E6061092E7061092E8061092A0
:10062000E9061092EA061092EB0667E085EE96E086
:100630000E94B60467E085EE96E00E94E5048823F8
:1006400021F18091EB061F928F938091EA061F9211
:100650008F938091E9061F928F938091E8061F92F5
:100660008F938091E7061F928F938091E6061F92E9
:100670008F93DF93CF930E94D92B8DB79EB70E96A1
:100680000FB6F8949EBF0FBE8DBF0E940F1CB6CF51
:100690001CE303E08DE3F82ECFEAD2E01093E506E9
:1006A0000093E60662E085EE96E00E94B604F092C2
:1006B000E5061092E6061092E7061092E806109200
:1006C000E9061092EA061092EB0667E085EE96E0E6
:1006D0000E94B60467E085EE96E00E94E504882358
:1006E00021F18091EB061F928F938091EA061F9271
:1006F0008F938091E9061F928F938091E8061F9255
:100700008F938091E7061F928F938091E6061F9248
:100710008F93DF93CF930E94D92B8DB79EB70E9600
:100720000FB6F8949EBF0FBE8DBF0E940F1CB6CFB0
:10073000CF93C82F883411F0803271F41F92CF9379
:1007400089EC92E09F938F930E94D92B0E94D8044A
:100750000F900F900F900F908C2FCF910895E5EE92
:10076000F6E080ED808386E181838BE1828363E024
:10077000CF010C94B604E5EEF6E08CE3808382E0D2
:100780008183128263E0CF010C94B6040F931F9310
:10079000CF93DF93C5EED6E016EA18830DE2098306
:1007A0001A8263E0CE010E94B604188388E389832D
:1007B00080E88A8363E0CE010E94B604188309832F
:1007C00088E08A8363E0CE010E94B604188381E347
:1007D000898381E08A8363E0CE01DF91CF911F910D
:1007E0000F910C94B6048F929F92AF92BF92CF92CA
:1007F000DF92EF92FF92CF9368EA72E085E594E092
:100800000E94632840E850E067E275E085E594E0E7
:100810000E946728E5E5F4E0C1E0C087C783C1878F
:10082000C287138614861586168680E8C82E82EB4A
:10083000D82E86EEE82E8EE0F82EC786D08AE18A82
:10084000F28A138A148A158A168AC78AD08EE18E94
:10085000F28E812C912C54018394838E948EA58EDC
:10086000B68E178E10A211A212A2CF010E947D1B7C
:1008700068EF72E082EC96E00E94632840E850E066
:1008800060E874E082EC96E00E946728E2ECF6E013
:1008900082E08087C783C187C28713861486158646
:1008A0001686C786D08AE18AF28A138A148A158A44
:1008B000168AC78AD08EE18EF28E838E948EA58E94
:1008C000B68E178E10A211A212A2CF010E947D1B1C
:1008D00068E473E084E095E00E94632840E850E01B
:1008E00063ED73E084E095E00E946728E4E0F5E0C2
:1008F00083E08087C783C187C287138614861586E5
:100900001686C786D08AE18AF28A138A148A158AE3
:10091000168A178A108E118E128E838E948EA58E53
:10092000B68E178E10A211A212A2CF01CF91FF9006
:10093000EF90DF90CF90BF90AF909F908F900C94EE
:100940007D1B8AE08093B8008FEF8093BB0084E02A
:100950008093BC0008958091BC00817008958091BF
:10096000BC0080FDFCCF8091000208952091BC0066
:1009700020FDFCCF6093C003FC0120812093C103C4
:1009800020FF09C01092BE0388EF8093000285EA21
:100990008093BC000895FC01319621EC33E0D9012D
:1009A00011968A2F821B861768F781918C93F8CF56
:1009B0008091BC0080FDFCCF1092BE0388EF809335
:1009C000000285EA8093BC0008952091BC0020FDC0
:1009D000FCCF2091BE0320FD04C08091BE03817036
:1009E000089521EC33E0FC01D9018A2F821B861780
:1009F000A0F78D918193F9CF1F920F920FB60F92AE
:100A000011240BB60F922F933F938F939F93EF93E5
:100A1000FF938091B900883201F140F48031D9F020
:100A20008831D9F0883009F04AC015C0803491F17E
:100A300028F4883309F043C085EA46C08035F1F0D8
:100A40008835E9F58091BB00E091BF03F0E0EF53FA
:100A5000FC4F80832DC01092BF03E091BF038091B3
:100A6000C003E81728F581E08E0F8093BF03F0E004
:100A7000EF53FC4F80818093BB0018C0E091BF030F
:100A800081E08E0F8093BF038091BB00F0E0EF53B5
:100A9000FC4F80832091BF0330E08091C00390E041
:100AA00001972817390714F485EC0EC085E80CC0AF
:100AB0008091BE0381608093BE0384E905C080916C
:100AC000B9008093000284E08093BC00FF91EF9115
:100AD0009F918F913F912F910F900BBE0F900FBE62
:100AE0000F901F901895909141019F719F31D9F3FC
:100AF0008093420108958093CB03089581E0809311
:100B0000FB0608951092FB060895809141018F71B4
:100B10008F31D9F3809141018F71E1F08F30D1F0A5
:100B2000809141018F71883031F480913901826068
:100B3000809339010BC088E00E94730580914101C8
:100B40008F718830D9F7F1CF8F3021F0809141013A
:100B50008F71D1F70895809141018F718F31D9F351
:100B6000809141018F7111F08F3051F480913901E2
:100B70008D7F80933901809141018F718830D9F741
:100B8000089589E00C947305E5E4F1E09081907F8D
:100B9000908390818F70982B90830895E7E5F1E022
:100BA00080818D7F80830895E7E5F1E08081826018
:100BB00080830895EEE6F1E080818F7E8083089542
:100BC000EEE6F1E08081806180830895809360018A
:100BD0009093610190930507809304070895909383
:100BE000FF068093FE06E8E4F1E08081807E80834A
:100BF0008081682B608308959093CF038093CE0308
:100C000008959093CD038093CC0308950F931F9381
:100C1000CF93DF93FC01D90180E28093440180EC03
:100C20008093450160626093480185EC809349019F
:100C300087EA80934B0180E880934C012093600108
:100C4000B09361014093620150936301C6E4D1E027
:100C50000881888198812881302F329536953770A8
:100C600060E4369F80011124229526952370622F1F
:100C7000602B82958695837070E1879F9001112487
:100C8000262B92959695937084E0989FB00111243D
:100C9000622B60936D0188819881929596959370EF
:100CA000392F3064982F92959670932B90936E0104
:100CB00010926C018FEF80934E01CEEFD6E0F98356
:100CC000E8831A821B825D834C83BF83AE831886C0
:100CD00081E08093180710922F0710920707109257
:100CE000FB06DF91CF911F910F91089586E10C943F
:100CF000730586E10C94730588E00E9473051092D9
:100D00002F0708950F931F93CF93DF93FC018091DA
:100D10001807811102C08FEFABC0268180910007B8
:100D20008F5F8093000790918101907E916020FBFE
:100D300095F99F7390649093810188E88093820174
:100D40008091FB06882361F08FEF809383018AEA0C
:100D50009AEA90938901809388018FEF9FEF10C0EA
:100D6000809100078093830120916101809160014F
:100D700090E0922B909389018093880180819181EA
:100D80009093870180938601209163018091620195
:100D900090E0922B90938501809384018F01428192
:100DA000552747FD5095638174818AE891E00E9440
:100DB0003F2BF8018281855F809380018091410102
:100DC000D82FDF719FEF9D0F9230C0F3D131B1F377
:100DD000D231A1F3DF3191F398EF9D0F923020F0E3
:100DE0008F70863009F097CF86E10E947305F80175
:100DF000858181110BC089E00E947305F80186810D
:100E0000882391F089E10E9473050EC0809148010A
:100E10008068809348018091410187FFFCCF8091D9
:100E2000410186FF78CFE7CF1092070782E00E944A
:100E3000730580E090E020910707211105C001961D
:100E4000883EFDEF9F07B9F7F8012681222331F094
:100E50002091420122952695277029F4883E9D4FC6
:100E600011F0C1E001C0CFEF8D2F0E9473058C2FD0
:100E7000DF91CF911F910F9108951092070782E0A3
:100E80000E94730588EE9DEF20910707211104C091
:100E90000197D1F78FEF089581E00895CF93DF9305
:100EA00080911807882341F180914101C82FCF71AB
:100EB0009FEF9C0F9230C0F3C131B1F3C231A1F367
:100EC000CF3191F3C83019F08F708630A9F486E1E4
:100ED0000E94730580914801806880934801809149
:100EE000410187FFFCCFD09141018C2F0E947305F7
:100EF000D6FB882780F901C08FEFDF91CF9108954D
:100F000080911807882309F4E3C080912F07882374
:100F100009F4DCC080917B01E091FE06F091FF06B0
:100F200090E002972481332727FD30952817390751
:100F30000CF4CEC0E091FE06F091FF068091820194
:100F40008083E091FE06F091FF06809187019091E9
:100F5000880192838183E091FE06F091FF068091E3
:100F60007B018B508383A091FE06B091FF06E09138
:100F7000FE06F091FF0613969C91848189173CF040
:100F8000E091FE06F091FF06838187FF0DC010926D
:100F90002F0780914C018F7780934C0180914C01F9
:100FA000806880934C0194C0A091FE06B091FF062A
:100FB000E091FE06F091FF0613964C91552747FDF0
:100FC000509569E871E0858196810E943F2B809160
:100FD000CB03882309F43EC0E091FE06F091FF06A2
:100FE00083818031B9F5E091FE06F091FF066581BD
:100FF000768144E050E081E092E00E94482B892B0A
:1010000049F5E091FE06F091FF066581768140E1A9
:1010100050E081E092E00E94482B892BD9F49DE0BA
:1010200088E10FB6F894A895809360000FBE909366
:10103000600080E090E00E944A0E81E090E00E9413
:101040004A0E82E090E00E944A0E83E090E00E9407
:101050004A0EFFCFE091FE06F091FF0680918001DD
:1010600085FB882780F98783E091FE06F091FF06D3
:10107000809147018087E091FE06F091FF06809104
:1010800046018695869586958187E091FE06F091CA
:10109000FF06809147018287A091FE06B091FF066E
:1010A000E0917B01F0E0E058FE4F80811B968C932D
:1010B00010922F0780914C018F7780934C01809183
:1010C0004C01806880934C0181E0089580E0089590
:1010D0008FEF08951F920F920FB60F9211248F93E6
:1010E00080E880934F018F910F900FBE0F901F905B
:1010F00018951F920F920FB60F9211248F9381E0D3
:101100008093070780E480934F018F910F900FBE6B
:101110000F901F9018951F920F920FB60F921124E7
:101120008F9380E280934F018F910F900FBE0F90AD
:101130001F9018951F920F920FB60F9211248F9344
:1011400080E180934F018F910F900FBE0F901F9001
:1011500018951F920F920FB60F9211240BB60F9293
:101160002F933F934F935F936F937F938F939F93AF
:10117000AF93BF93EF93FF9384E080934F01E0918F
:10118000CE03F091CF03309709F00995FF91EF91CD
:10119000BF91AF919F918F917F916F915F914F918F
:1011A0003F912F910F900BBE0F900FBE0F901F908D
:1011B00018951F920F920FB60F9211248F9382E011
:1011C00080934F018F910F900FBE0F901F90189535
:1011D0001F920F920FB60F9211248F9381E080938C
:1011E0004F018F910F900FBE0F901F901895E9E45B
:1011F000F1E09081907F908390818F70982B908305
:1012000008958FEF08950895089508958FEF089534
:101210008091F9069091FA060895089581E0089565
:1012200081E0089581E0089508950895089508954E
:10123000089508950895089598988DB1806E8DB998
:101240008EB1806A8EB9089598988DB1806E8DB9EF
:101250008EB180668EB90895CF92DF92EF92FF92A1
:101260000F931F93CF93DF93CDB7DEB727970FB6BA
:10127000F894DEBF0FBECDBF0E945D0FE091FE0669
:10128000F091FF06C080D380E580F68000850E9443
:10129000800718161CF08EEC92E006C0F701108152
:1012A000111107C08DEE92E00E94F32B0E945F0F98
:1012B00031C0153021F48AE090E00E94ED2BC70187
:1012C00001969F938F93802F992787FD90959F93E9
:1012D0000F931F921F931F92CF928FE093E09F93E3
:1012E0008F930E94D92BFD82EC821150F70110835D
:1012F000DB821E821F828FEF9FEF9A8389830E9479
:101300005F0FCE0101960E9482060FB6F894DEBFF1
:101310000FBECDBF27960FB6F894DEBF0FBECDBF70
:10132000DF91CF911F910F91FF90EF90DF90CF90C1
:1013300008951F920F920FB60F9211240BB60F92C1
:101340002F933F934F935F936F937F938F939F93CD
:10135000AF93BF93EF93FF9380E090917B01891748
:1013600010F48F5FFACF8091460187FF04C081E0BF
:1013700080932F0704C088E393E00E94F32B88E05A
:1013800080934F018091460187FF05C08091FB0645
:1013900081110E942C09E091CC03F091CD0330978C
:1013A00009F00995FF91EF91BF91AF919F918F91B6
:1013B0007F916F915F914F913F912F910F900BBE55
:1013C0000F900FBE0F901F901895A8E0B7E0FC019A
:1013D000409620812D93219120933F01E817F90732
:1013E000C1F780E110923E018150E1F780E88093DF
:1013F0003C0180913D0180FFFCCFE9E1F7E080E115
:101400008E0F90913F0191938E13FBCF0895CF9350
:10141000DF93DC01662309F445C0862F8F7009F045
:1014200041C0E8E0F7E090E19E0F219120933F0159
:101430009E13FBCF90E070E0E0E240E1949F9001CA
:101440001124261737077CF5911103C010923C0137
:1014500002C0E0933C0140E050E02A0F3B1FE9014D
:10146000C40FD51FF881F0933E014F5F5F4F4031AD
:101470005105A9F740913C01406840933C014091DF
:101480003D0140FFFCCF40E050E0F0913E01E9011A
:10149000C40FD51FF8834F5F5F4F40315105A9F747
:1014A0009F5FCBCF81E0DF91CF9108950F931F9382
:1014B000CF93DF93DC01613009F458C0862F8F7021
:1014C00009F054C0E9E1F7E090E19E0F21912093EB
:1014D0003F019E13FBCF62956F70615078E06F3FC4
:1014E00009F445C070933C01462F552747FD5095A0
:1014F00020E030E0ED0190E16902C00DD11D112422
:10150000FE01E20FF31F908190933E012F5F3F4F4A
:1015100020313105A9F790913C01906890933C01EE
:1015200090913D0190FFFCCF4150510994E0440F50
:10153000551F9A95E1F720E030E090913E018E0131
:10154000020F131FF8019083662349F0F901E40F9D
:10155000F51FEA0FFB1FE0819E27F80190832F5FA4
:101560003F4F2031310549F76150B9CF81E0DF911C
:10157000CF911F910F9108958091C00087FFFCCFFC
:101580008091C0008F778093C0008091C60008953D
:101590009091C00095FFFCCF9091C0009F7D9093EB
:1015A000C0008093C60008958FEF0895813019F42C
:1015B0008091C80004C0811106C08091C000881FBE
:1015C0008827881F089580E00895CF93DF93FC015A
:1015D0002491EC012196222351F0609184087091AE
:1015E0008508822F90E00E94A12BCE01F0CFDF91E1
:1015F000CF91089586E084B985B988E38AB980E3FC
:101600008BB982E08DB994E090BB83BB11BA84BBE7
:1016100008950C94FA0A8F3F09F46CC0E82FE77024
:101620004E2F50E04730510508F064C0FA01E057F2
:10163000FF4F8695869586950C941F2B42B121E02D
:1016400030E0B90102C0660F771F8A95E2F7CB013F
:10165000842B82B94DC045B121E030E0B90102C010
:10166000660F771F8A95E2F7CB01842B85B940C0BE
:1016700048B121E030E0B90102C0660F771F8A95BA
:10168000E2F7CB01842B88B933C04BB121E030E0C5
:10169000B90102C0660F771F8A95E2F7CB01842B50
:1016A0008BB926C04EB121E030E0B90102C0660F0F
:1016B000771F8A95E2F7CB01842B8EB919C041B30D
:1016C00021E030E0B90102C0660F771F8A95E2F78A
:1016D000CB01842B81BB0CC044B321E030E0B901C5
:1016E00002C0660F771F8A95E2F7CB01842B84BB7B
:1016F00081E008958FEF08958F3F09F473C0E82FBC
:10170000E7704E2F50E04730510508F06BC0FA01EA
:10171000E956FF4F8695869586950C941F2B42B10E
:1017200021E030E0B90102C0660F771F8A95E2F729
:10173000CB018095842382B953C045B121E030E0CC
:10174000B90102C0660F771F8A95E2F7CB01809539
:10175000842385B945C048B121E030E0B90102C019
:10176000660F771F8A95E2F7CB018095842388B9AD
:1017700037C04BB121E030E0B90102C0660F771FDE
:101780008A95E2F7CB01809584238BB929C04EB1AD
:1017900021E030E0B90102C0660F771F8A95E2F7B9
:1017A000CB01809584238EB91BC041B321E030E08A
:1017B000B90102C0660F771F8A95E2F7CB018095C9
:1017C000842381BB0DC044B321E030E0B90102C0E5
:1017D000660F771F8A95E2F7CB018095842384BB3F
:1017E00081E008958FEF08958F3F31F1E82FE77082
:1017F0004E2F50E047305105F8F4FA01E256FF4F02
:10180000282F2695269526950C941F2B90B10BC05A
:1018100093B109C096B107C099B105C09CB103C08E
:101820009FB101C092B3892F90E002C09595879532
:101830002A95E2F7817008958FEF08958F3F09F49C
:1018400006C1E82FE7704E2F50E04730510508F0F1
:10185000FEC0FA01EB55FF4F8695869586950C9450
:101860001F2B20B130E0082E02C0359527950A9431
:10187000E2F742B120FD0BC021E030E0B90102C027
:10188000660F771F8A95E2F7CB01842B0BC021E00E
:1018900030E0B90102C0660F771F8A95E2F7CB01ED
:1018A0008095842382B916C023B130E0082E02C08F
:1018B000359527950A94E2F745B120FD0DC021E04A
:1018C00030E0B90102C0660F771F8A95E2F7CB01BD
:1018D000842B85B981E0089521E030E0B90102C090
:1018E000660F771F8A95E2F7CB0180958423F1CFAD
:1018F00026B130E0082E02C0359527950A94E2F70C
:1019000048B120FD0BC021E030E0B90102C0660FF4
:10191000771F8A95E2F7CB01842B0BC021E030E0E2
:10192000B90102C0660F771F8A95E2F7CB01809557
:10193000842388B9CFCF29B130E0082E02C0359575
:1019400027950A94E2F74BB120FD0BC021E030E06F
:10195000B90102C0660F771F8A95E2F7CB01842B8D
:101960000BC021E030E0B90102C0660F771F8A95F5
:10197000E2F7CB01809584238BB9ACCF2CB130E05A
:10198000082E02C0359527950A94E2F74EB120FD46
:101990000BC021E030E0B90102C0660F771F8A95C5
:1019A000E2F7CB01842B0BC021E030E0B90102C08B
:1019B000660F771F8A95E2F7CB01809584238EB955
:1019C00089CF2FB130E0082E02C0359527950A94B3
:1019D000E2F741B320FD0BC021E030E0B90102C0C5
:1019E000660F771F8A95E2F7CB01842B0BC021E0AD
:1019F00030E0B90102C0660F771F8A95E2F7CB018C
:101A00008095842381BB66CF2FB130E0082E02C0C1
:101A1000359527950A94E2F744B320FD0BC021E0E9
:101A200030E0B90102C0660F771F8A95E2F7CB015B
:101A3000842B0BC021E030E0B90102C0660F771F94
:101A40008A95E2F7CB018095842384BB43CF8FEF47
:101A500008958F3F09F4F8C0E82FE7704E2F50E04B
:101A600061118AC04730510508F0EEC0FA01E45513
:101A7000FF4F8695869586950C941F2B41B121E0EA
:101A800030E0B90102C0660F771F8A95E2F7CB01FB
:101A9000962F9095942391B992B1892B82B9D2C097
:101AA00044B121E030E0B90102C0660F771F8A958A
:101AB000E2F7CB01962F9095942394B995B1892B99
:101AC00085B9C0C047B121E030E0B90102C0660F5E
:101AD000771F8A95E2F7CB01962F9095942397B9BB
:101AE00098B1892B88B9AEC04AB121E030E0B90184
:101AF00002C0660F771F8A95E2F7CB01962F90956B
:101B000094239AB99BB1892B8BB99CC04DB121E02C
:101B100030E0B90102C0660F771F8A95E2F7CB016A
:101B2000962F909594239DB99EB1892B8EB98AC02A
:101B300040B321E030E0B90102C0660F771F8A95FB
:101B4000E2F7CB01962F9095942390BB91B3892B0C
:101B500081BB78C043B321E030E0B90102C0660F19
:101B6000771F8A95E2F7CB01962F9095942393BB2C
:101B700094B3892B84BB66C04730510508F064C01C
:101B8000FA01ED54FF4F8695869586950C941F2B90
:101B900041B121E030E0B90102C0660F771F8A959C
:101BA000E2F7CB01842B81B94DC044B121E030E094
:101BB000B90102C0660F771F8A95E2F7CB01842B2B
:101BC00084B940C047B121E030E0B90102C0660FDE
:101BD000771F8A95E2F7CB01842B87B933C04AB1CE
:101BE00021E030E0B90102C0660F771F8A95E2F765
:101BF000CB01842B8AB926C04DB121E030E0B90178
:101C000002C0660F771F8A95E2F7CB01842B8DB94E
:101C100019C040B321E030E0B90102C0660F771F60
:101C20008A95E2F7CB01842B80BB0CC043B321E043
:101C300030E0B90102C0660F771F8A95E2F7CB0149
:101C4000842B83BB81E008958FEF0895811106C036
:101C500080B18695817091E0892708958FEF08956E
:101C6000009711F483E203C0019729F48BE20E94EC
:101C70001E0C81E008958FEF0895009711F483E220
:101C800003C0019729F48BE20E940B0B81E00895B9
:101C90008FEF0895009711F483E203C0019729F4B0
:101CA0008BE20E947C0B81E008958FEF08958823DA
:101CB00019F085B78F7E02C085B7806185BF81E04E
:101CC00008959091C80095FFFCCF8093CE000895B1
:101CD0009093C5008093C40086E08093C200E1EC3D
:101CE000F0E080818B7F8083A0ECB0E08C918260FB
:101CF0008C9380818861808308959093CD00809338
:101D0000CC0086E08093CA00E9ECF0E080818B7F14
:101D10008083A8ECB0E08C9182608C938081886194
:101D200080830895CF93DF930E94680E6CEB7AE076
:101D300088EC9AE00E94562BC2E8D8E09B838A8305
:101D40006CEB7AE088EC9AE00E94562B99838883AA
:101D5000DF91CF9108958091C80087FFFCCF8091DB
:101D6000C8008F778093C8008091CE00089500004E
:101D70000000000000000197D1F708950C94B12CE9
:101D80000E94B92C0895EF92FF920F931F93CF9367
:101D9000DF937C0180E090E00E94B12C182FF701C6
:101DA000838381E090E00E94B12C082FF7018283A9
:101DB00082E090E00E94B12CD82FF701818383E06C
:101DC00090E00E94B12CC82FF701808384E090E05E
:101DD0000E94B12C100FD10FCD0F8C1711F08FEF87
:101DE00001C081E0DF91CF911F910F91FF90EF90A3
:101DF0000895CF93DF93EC0185E090E00E94B12C31
:101E0000888381E0DF91CF910895FC01608186E0B5
:101E100090E00E94B92C81E00895CF93DF93EC010C
:101E200086E090E00E94B12C888381E0DF91CF9121
:101E300008950F931F93CF93DF938C01C0E0D0E000
:101E4000CE0108960E94B12CF80181938F01219652
:101E5000C031D105A9F781E0DF91CF911F910F919A
:101E600008950F931F93CF93DF938C01C0E0D0E0D0
:101E7000F80161918F01CE0108960E94B92C21963C
:101E8000C031D105A9F781E0DF91CF911F910F916A
:101E90000895CF93DF93EC0187E090E00E94B12C8E
:101EA000888381E0DF91CF910895FC01608187E014
:101EB00090E00E94B92C81E00895F89408957894F8
:101EC00008950E945D0FFFCFCF93DF93CDB7DEB7AC
:101ED000A3970FB6F894DEBF0FBECDBF0E947A174E
:101EE00080930F088F3F21F460E08EE00E94C215BE
:101EF0000E942B2680FF04C060E086E00E94C2158D
:101F00000E9442288F3F31F40E94252860E080E142
:101F10000E94C2150E9433281092120810922008C5
:101F200010921F08109211081092100810922108A8
:101F30000E94071110921E088FEF80930B08809368
:101F40000D0880930C0880E090E033E62FEFFC0151
:101F5000EE5CF84F328720878B96873D9105B9F765
:101F6000EBE5F8E0CF01059694838383F783E6835E
:101F7000FC0188E0E437F807A9F710925D08109299
:101F80005C08109278081092770810921508109249
:101F900014088BE598E0909331078093300768E44C
:101FA00070E2CE0101960E94632840E850E062E4AE
:101FB00076E0CE0101960E94672885E5809342066F
:101FC00019861C861D861E861F86188A198A1A8AFB
:101FD0001B8A1C8A1D8A1E8A1F8A188E198E1A8EC9
:101FE0001B8E1C8E1D8E1E8E1F8E18A219A21AA269
:101FF0001BA281E0888792E09A878B87CE010196A9
:102000000E947D1BA3960FB6F894DEBF0FBECDBF16
:10201000DF91CF9108950AE317E0C0E0F801D08086
:10202000FFEFDF1222C0CF5F055D1F4FC530B1F754
:102030000E946C1A2BE28202C0011124FC01EE5CAA
:10204000F84F828580932108F0932008E0931F08C1
:10205000F0931108E0931008809312080E94D92889
:102060000E94C3280E94DD2816C08AE3E82E87E07C
:10207000F82ED0E0CD1741F0F7018081D81204C0CE
:102080006D2D85E00E94C215DF5FFBE2EF0EF11CB3
:10209000D53081F7C8CFFFCFCF92DF92EF92FF927A
:1020A0000F931F93CF93DF93EC018B017A01898506
:1020B000823021F080910E08888301C018828091BF
:1020C0000E08853020F060E087E00E94C215898507
:1020D000823029F080910E088F5F80930E088091E6
:1020E0000E08811103C081E080930E0838812BE235
:1020F0003203F0011124EE5CF84F118300838885D0
:10210000828738813203F0011124EE5CF84F83E0BE
:10211000818738813203F0011124EE5CF84F30875B
:1021200008810203800111240E5C184FF80115820A
:10213000CE010B960E94DA1FF80161A372A383A35C
:1021400094A38B859C85AD85BE8588339948A14431
:10215000B10520F0688186E10E94C215C880DD24A7
:10216000C7FCD094CE014B960E94DA1F1BE21C9D47
:10217000F0011D9DF00D1124EE5CF84F658B768B00
:10218000878B908F28812103C00111249C012E5C34
:10219000384F6901F901458956896789708D81A198
:1021A00092A1A3A1B4A1840F951FA61FB71F818F71
:1021B000928FA38FB48FCE0143960E94DA1FF6014F
:1021C00065A376A387A390A728812103F00111249A
:1021D000EE5CF84F85A196A1A7A1B0A5858F968F3B
:1021E000A78FB0A381E090E092A781A7F382E2825B
:1021F0008487DF91CF911F910F91FF90EF90DF9037
:10220000CF9008950C94622085E690E00895109296
:1022100078041092790410927A0410927B04109240
:102220007C0410927D0410927E0410927F04EBEAED
:10223000F5E080E090E01082118212821382108615
:1022400011861286138614821582168217821486CE
:10225000158616861786108A118A128A138A108E9E
:10226000118E128E138EDC01A555BA4F5C961C920E
:102270005C975D961C927E964E9686399105D9F6AE
:1022800008950F931F93E8E7F4E0A82FB0E023EB45
:1022900036EE4EE050E00E94832A048115812681AB
:1022A0003781DC01CB01800F911FA21FB31F8483F4
:1022B0009583A683B783CF011F910F910C94A71E1E
:1022C000E8E7F4E04081518162817381DC014D9344
:1022D0005D936D937C9313974481558166817781DB
:1022E000FC01448355836683778308952EE1829FA2
:1022F000C0011124FC01E555FA4F858D813039F07C
:10230000848D8F5F848F8F3F11F481E0858F0895D6
:102310002EE1829FC0011124FC01E555FA4F858D05
:102320008130B1F0148A158A168A178A80899189BA
:10233000A289B3890196A11DB11D808B918BA28BBF
:10234000B38B8E3F9F4FAF4FBF4F11F481E0858F0E
:1023500008950F931F932EE1829FC0011124FC0169
:10236000E555FA4F858D813071F1808D918DA28D6B
:10237000B38D0196A11DB11D808F918FA28FB38F58
:10238000462F50E060E070E004891589268937897E
:10239000040F151F261F371F048B158B268B378BB9
:1023A0000081118122813381400F511F621F731FF1
:1023B00040835183628373838E3F9F4FAF4FBF4FE4
:1023C00011F481E0858F1F910F910895CF92DF92D4
:1023D000EF92FF92282F30E09EE1899FF0011124B7
:1023E000E555FA4F858D813009F44BC0462F50E0FA
:1023F00060E070E084899589A689B789840F951F6C
:10240000A61FB71F84879587A687B787C080D1800E
:10241000E280F3804C0D5D1D6E1D7F1D4083518356
:1024200062837383448155816681778141155105AB
:102430006105710529F084179507A607B70760F4B1
:102440004EE1429FF001439FF00D1124E555FA4FF4
:1024500084839583A683B7834EE1429FF001439F17
:10246000F00D1124E555FA4F40855185628573853D
:10247000481759076A077B0720F480879187A2874E
:10248000B387FF90EF90DF90CF9008958F929F9247
:10249000AF92BF92CF92DF92EF92FF920F931F9372
:1024A000CF93DF93CDB7DEB728970FB6F894DEBF92
:1024B0000FBECDBF182F85E992E00E94E50AA12E3C
:1024C000B12C1F921F9381E593E09F938F930E94FD
:1024D000D92B0F900F900F900F90111152C08AE7D7
:1024E00092E00E94E50ACE0101960E94BE1D6D8118
:1024F0007E818F819885E0E4CE2EE2E4DE2EEFE04F
:10250000EE2EF12CA70196010E949E2A5F934F9315
:102510003F932F938C818F938B818F938A818F939D
:1025200089818F9304E513E01F930F930E94D92BA9
:1025300089E592E00E94E50A60917C0470917D0437
:1025400080917E0490917F04A70196010E949E2AAB
:102550005F934F933F932F9380917B048F93809150
:102560007A048F93809179048F93809178048F936C
:102570001F930F930E94D92B0FB6F894DEBF0FBEA6
:10258000CDBF88E492E00E94E50A8EE18A9D800139
:102590008B9D100D112405551A4FF8016081718132
:1025A000828193810E94A31F29833A834B835C839A
:1025B0006D837E838F8398876D817E818F819885DF
:1025C00020E4822E22E4922E2FE0A22EB12CA5012F
:1025D00094010E949E2A5F934F933F932F938C8187
:1025E0008F938B818F938A818F9389818F9334E529
:1025F000E32E33E0F32EFF92EF920E94D92B8DE26F
:1026000092E00E94E50AF8016481758186819781D4
:102610000E94A31F29833A834B835C836D837E834F
:102620008F8398876D817E818F819885A501940124
:102630000E949E2A5F934F933F932F938C818F9399
:102640008B818F938A818F9389818F9344E6C42EE7
:1026500043E0D42EDF92CF920E94D92BF8016485FB
:102660007585868597850E94A31F29833A834B83AE
:102670005C836D837E838F8398876D817E818F815C
:102680009885A50194010E949E2A5F934F933F93E2
:102690002F938C818F938B818F938A818F938981E4
:1026A0008F93DF92CF920E94D92BF80160857185BC
:1026B000828593850E94A31F29833A834B835C8381
:1026C0006D837E838F8398876D817E818F819885CE
:1026D000A50194010E949E2A5F934F933F932F93ED
:1026E0008C818F938B818F938A818F9389818F9334
:1026F000FF92EF920E94D92B0FB6F894DEBF0FBE67
:10270000CDBF8DE192E00E94E50AF80170968381C9
:102710008F9382818F9381818F93F80180898F932A
:1027200056E7E52E53E0F52EFF92EF920E94D92B4B
:102730008AE092E00E94E50AF801789683818F93FF
:1027400082818F9381818F93F801808D8F93FF9287
:10275000EF920E94D92B81EF91E00E94E50AF801E7
:10276000848D1F928F936AE7E62E63E0F62EFF9228
:10277000EF920E94D92B84ED91E00E94E50AF801C6
:10278000858D1F928F93FF92EF920E94D92B81ED3E
:1027900091E00E94E50A0FB6F894DEBF0FBECDBFF0
:1027A00028960FB6F894DEBF0FBECDBFDF91CF9154
:1027B0001F910F91FF90EF90DF90CF90BF90AF905F
:1027C0009F908F900895CF9384EB91E00E94E50A4B
:1027D000C0E08C2F0E944612CF5FC530D1F7CF9159
:1027E0000895DB01853008F054C09EE1899FF00117
:1027F0001124E555FA4F40815181628173814D93D7
:102800005D936D937C9313974481558166817781A5
:1028100014964D935D936D937C93179740855185E6
:102820006285738518964D935D936D937C931B978A
:1028300044855585668577851C964D935D936D938C
:102840007C931F97408951896289738950964D9373
:102850005D936D937C9353974489558966897789F5
:1028600054964D935D936D937C935797408D518D06
:10287000628D738D58964D935D936D937C935B97AA
:10288000848D5C968C935C97858D5D968C9381E0AE
:1028900008958FEF0895E0911F08F0912008848734
:1028A0000895E0911F08F091200884850895CF9342
:1028B000DF93D82FC62F80E092E00E94BE0E8F5F7C
:1028C0008F3F19F08093D00302C01092D003209163
:1028D000D00336E0239FC00111246D2F8F5F9D4FE1
:1028E0000E94C00E8091D00346E0849FC001112455
:1028F0006C2F8E5F9D4F0E94C00E2091D00340919F
:102900001608509117086091180870911908672FE0
:1029100077278827992746E0249F90011124C90131
:102920008D5F9D4F0E94C00E2091D00340911608EC
:1029300050911708609118087091190888279927F5
:1029400046E0249F90011124C9018C5F9D4F0E9495
:10295000C00E2091D0034091160850911708609145
:102960001808709119089927872F762F652F46E050
:10297000249F90011124C9018B5F9D4F0E94C00EBE
:102980008091D00326E0829FC00111246091160837
:102990008A5F9D4F0E94C00E6091D00380E092E05C
:1029A000DF91CF910C94C00EFC01809141068823E9
:1029B00031F0DB018C9380915304808381E0089592
:1029C00080914106882309F483C08CEC94E00E9436
:1029D000E50A809153041F928F9381E593E09F93C2
:1029E0008F930E94D92B88EC94E00E94E50A0F9007
:1029F0000F900F900F9080914106883110F0109247
:102A00004106E09141068E2F90E0FC013197E631BE
:102A1000F10508F046C0E654FF4F0C941F2B8CE8DC
:102A200094E041C085E694E03EC081E594E03BC07F
:102A30008BE394E038C080E294E035C08AE094E013
:102A400032C082EF93E02FC08FED93E02CC08CEC6E
:102A500093E029C08EEA93E026C089E893E023C082
:102A60008DE793E020C082E693E01DC083E593E00C
:102A70001AC08FE393E017C08EE293E014C08AE19E
:102A800093E011C08AEF92E00EC082EE92E00BC09C
:102A900087EC92E008C086EB92E005C087EA92E0FE
:102AA00002C080EA92E00E94E50A60918408709179
:102AB00085088DE090E00E94A12B609184087091C0
:102AC00085088AE090E00E94A12B8091410608953C
:102AD00080E0089513BC1092B60018BC17BC16BC59
:102AE00015BC14BC1DBA1CBA1BBA10929B001092E4
:102AF0009A001092990010929800109295001092EE
:102B00009400109291001092900018BA10927100E7
:102B10001092B4001092B3001092B2001092B10063
:102B2000E0EBF0E01082108217BA109270008FEF85
:102B300084BF08950E945D0F0E9425288091410660
:102B4000803171F08351823058F00E946A1588ED0F
:102B500094E00E94E50A0E9433280E945D0FFFCF97
:102B600010924106089580934106E0911F08F0916C
:102B700020086085609353040E9457140E94E0145B
:102B80000C949A1580934106609353040E94571445
:102B90000E94E0140C949A15CF93DF931F92CDB747
:102BA000DEB719828981843640F480ED97E00E9477
:102BB000612489818F5F8983F5CF0F90DF91CF9159
:102BC000089581E090E00E944A0E0E94CC150E9478
:102BD000CC150E94CC1581E090E00E943D0E0C9433
:102BE000CC1581E090E00E944A0E0E94CC1581E055
:102BF00090E00E943D0E0C94CC15FF920F931F9312
:102C0000CF93DF9300D01F92CDB7DEB71F928F9383
:102C100081E593E09F938F938E010F5F1F4F1F936A
:102C20000F930E94232C0F900F900F900F900F90F6
:102C30000F90F12CF80101900020E9F73197E01B8B
:102C4000F10B8F2D90E08E179F0708F05DC0F80103
:102C5000E80FF91FE0818E2F90E0FC01F097EA3039
:102C6000F10508F049C0E053FF4F0C941F2B0E9460
:102C7000E11502C00E94F1150E94E1150E94E115C4
:102C80000E94E1150E94E11537C00E94F1150E94D3
:102C9000F115F4CF0E94F1150E94F1150E94F11573
:102CA000EFCF0E94F1150E94F1150E94F1150E94CC
:102CB000F115E8CF0E94F11502C00E94E1150E94B3
:102CC000F11504C00E94E1150E94E1150E94F11562
:102CD00006C00E94E1150E94E1150E94E1150E94C4
:102CE000F11508C00E94E1150E94E1150E94E1154E
:102CF0000E94E1150E94F1150E94CC150E94CC158E
:102D00000E94CC15F39496CF0F900F900F90DF9107
:102D1000CF911F910F91FF9008956F927F928F92A4
:102D20009F92AF92BF92CF92DF92EF92FF920F935A
:102D30001F93CF93DF9388EE94E00E94E50AE09121
:102D40001F08F09120088085282F332727FD309514
:102D50003F938F938DE793E09F938F930E94D92B9E
:102D6000E0911F08F0912008C281D381DF93CF93B7
:102D700081EB93E09F938F930E94D92B88811F92C0
:102D80008F9386E893E09F938F930E94D92BE091D5
:102D90001F08F091200881818F9380818F9383E9B0
:102DA00093E09F938F930E94D92B809120088F935B
:102DB00080911F088F938DE993E09F938F930E94DA
:102DC000D92BC2E3D7E0EDB7FEB774960FB6F894EF
:102DD000FEBF0FBEEDBF00E010E08DEA682E83E07D
:102DE000782E96E8892E93E0992E23E9A22E23E0EF
:102DF000B22E3DE9C32E33E0D32EEA80FB80FF9252
:102E0000EF921F930F937F926F920E94D92BF7013D
:102E100080811F928F939F928F920E94D92B8981DC
:102E20008F9388818F93BF92AF920E94D92BDF93AB
:102E3000CF93DF92CF920E94D92B0F5F1F4FAB969B
:102E4000EDB7FEB772960FB6F894FEBF0FBEEDBF9A
:102E50000530110591F6DF91CF911F910F91FF90F1
:102E6000EF90DF90CF90BF90AF909F908F907F902A
:102E70006F900895CF93DF93E0911F08F0912008A1
:102E8000C281D3818881853539F00E948D1681E019
:102E90000E94B31585E58883E0911F08F091200812
:102EA000808191818115924438F00E948D1682E1D3
:102EB000DF91CF910C94B315DF91CF9108952BE260
:102EC0008202C0011124FC01EE5CF84FA281B381A3
:102ED0008C91853519F085E58C9308C080819181AE
:102EE0008115924428F082E10E94B3158FEF089576
:102EF00081E008950F931F934091000550910105C3
:102F0000609102057091030580E090E08A019B01C9
:102F1000082E04C036952795179507950A94D2F781
:102F200000FD19C001E010E020E030E0082E04C0F0
:102F3000000F111F221F331F0A94D2F7402B512B71
:102F4000622B732B4093000550930105609302059B
:102F50007093030505C0019680329105B9F68FEF95
:102F60001F910F910895E0911F08F0912008658549
:102F70007685878590890895CF92DF92EF92FF92B0
:102F80000F931F93CF93DF93C12CD12C7601C39461
:102F9000082E04C0CC0CDD1CEE1CFF1C0A94D2F7DA
:102FA0004091000550910105609102057091030563
:102FB0004C215D216E217F21452B462B472B09F4A7
:102FC00060C0082F0E945D0FEBE3F7E0B701A60198
:102FD000409550956095709513E0DF0111978C91A5
:102FE0008F3F39F184819581A681B7818C159D052C
:102FF000AE05BF0551F410861186128613869F0117
:1030000022503109E9011882108384239523A623D5
:10301000B72384839583A683B78380859185A28512
:10302000B38584239523A623B72380879187A2871E
:10303000B387BB96D8E0E231FD0779F68EEF9FEFBC
:10304000AFEFBFEF04C0880F991FAA1FBB1F0A95DF
:10305000D2F74091000550910105609102057091F1
:10306000030584239523A623B7238093000590931B
:103070000105A0930205B09303050E945F0F81E054
:1030800001C08FEFDF91CF911F910F91FF90EF90D3
:10309000DF90CF9008950F931F9341E050E060E0E0
:1030A00070E08A019B0104C0000F111F221F331F13
:1030B0008A95D2F7D901C801E0911F08F091200844
:1030C0004585568567857089042315232623372374
:1030D000012B022B032BD1F080959095A095B095F4
:1030E000482359236A237B23458756876787708B3C
:1030F000418952896389748984239523A623B72340
:10310000818B928BA38BB48B81E001C08FEF1F91D9
:103110000F910895282F409100055091010560916D
:10312000020570910305082E04C0769567955795A2
:1031300047950A94D2F740FF1DC0E0911F08F09117
:10314000200881E090E0A0E0B0E004C0880F991F63
:10315000AA1FBB1F2A95D2F74585568567857089BA
:10316000842B952BA62BB72B85879687A787B08BAB
:1031700081E008958FEF0895CF92DF92EF92FF9252
:10318000CF93C12CD12C7601C39404C0CC0CDD1C90
:10319000EE1CFF1C8A95D2F78091000590910105E5
:1031A000A0910205B09103058C219D21AE21BF2184
:1031B000892B8A2B8B2B11F481E044C00E945D0F78
:1031C000E9E3F7E0ABE3B7E0C0E083E09081913062
:1031D000B9F442855385648575854C215D216E2146
:1031E0007F21452B462B472B59F08C93168617864B
:1031F000108A118A1082C286D386E486F586C1E0E1
:1032000090819230A1F442855385648575854C1573
:103210005D056E057F0559F48C9316861786108A16
:10322000118A10821286138614861586C1E0BB9619
:103230009B9698E0E031F90749F60E945F0FC111B3
:1032400005C082E00E944B148FEF01C081E0CF9156
:10325000FF90EF90DF90CF9008950F931F93E09130
:103260001F08F091200805851685278530890623DB
:10327000172328233923011511052105310511F1E3
:10328000DC01CB01818B928BA38BB48B21E0278354
:1032900000900F0804C0B695A795979587950A9456
:1032A000D2F780FF03C00E94E51C04C080E090E0DC
:1032B0000E94B61CE0911F08F09120080189128934
:1032C00023893489C901B8011F910F91089580E0C5
:1032D00090E0089521E08B50984009F420E0822F7F
:1032E000819508950E946A198F3F11F481E003C00F
:1032F000813029F482E00E944B148FEF08959927C2
:1033000087FD9095FC01EE0FFF1F8E0F9F1FFC01A4
:10331000E55FF74F82810895EF92FF920F931F931D
:10332000CF93DF931F92CDB7DEB70E946A198F3F0C
:1033300011F481E003C0813029F482E00E944B1433
:103340008FEF41C089830E945D0F8981E82EFF24A1
:10335000E7FCF0948701000F111FF801EE0DFF1D2F
:10336000E55FF74F9281911116C0E0911F08F0912F
:103370002008978192609783992787FD9095A92FC0
:10338000B92F818B928BA38BB48B0E945F0F80E04F
:1033900090E00E94B61C0E0D1F1DD801A55FB74F0F
:1033A00012968C911297815012968C931297E091FD
:1033B0001F08F091200811968C91838781E0848307
:1033C0000E945F0F81E00F90DF91CF911F910F91CD
:1033D000FF90EF9008950F931F93CF93DF931F9269
:1033E000CDB7DEB70E946A198F3F11F481E003C0A8
:1033F000813029F482E00E944B148FEF44C0482FA3
:10340000552747FD50959A01220F331F240F351F72
:103410008901055F174FF80122819081291794F5E2
:1034200089830E945D0FF80192819F5F9283E091F2
:103430001F08F09120081482E9E3F7E089819927B9
:1034400087FD9095A92FB92F23E03081323099F470
:103450004285538564857585481759076A077B0738
:1034600051F4228316861786108A118A10821286DA
:10347000138614861586BB9638E0E031F30729F7EA
:103480000E945F0F81E00F90DF91CF911F910F910C
:1034900008950E946A198F3F11F481E003C08130C2
:1034A00029F482E00E944B148FEF0895992787FD3D
:1034B0009095FC01EE0FFF1F8E0F9F1FFC01E55F33
:1034C000F74F8FEF80838283818380911E08815024
:1034D00080931E0881E00895E0911408F09115088A
:1034E00080810895E0911408F0911508309721F03B
:1034F0000380F481E02DFACF0895AF92BF92CF926E
:10350000DF92EF92FF920F931F93CF93DF93E0919F
:103510003007F0913107309709F494C000911408F6
:10352000109115080115110509F44CC0D8014BE2A2
:10353000582F5403900111242E5C384F79019AE0E2
:10354000E90EF11C6901C4E0CC0ED11C5901DBE08D
:10355000AD0EB11C2C9130E0429FB001439F700D25
:1035600011246E5C784FEB019C81992329F05B85D7
:10357000E7019881591740F1E6019881992369F094
:10358000429FB001439F700D11246E5C784FEB0198
:103590005A85E50198815917B8F0429FB001439FC1
:1035A000700D11249B012E5C384FE9012A85E7013B
:1035B0009881291748F013960D90BC91A02D109773
:1035C00049F602C0A0E0B0E08083C381D481D093EB
:1035D0003107C0933007A017B107B1F4109749F035
:1035E000B483A383128211821296FC93EE931197F7
:1035F00006C01482138212821182FA83E983F09347
:103600001508E09314081EC0AC17BD0779F0119699
:103610008D919C91129792838183B483A383119699
:10362000CD91DC911297FC83EB8308C01482138246
:1036300011968D919C911297928381831296FC939F
:10364000EE931197DF91CF911F910F91FF90EF9023
:10365000DF90CF90BF90AF900895CF93DF93E0912C
:103660001408F0911508309709F444C0992787FD94
:103670009095208130E02817390781F4A381B48127
:10368000B0931508A093140812961C921E921197DD
:1036900018C00380F481E02D309761F1208130E083
:1036A00028173907B1F7C181D281838194819C8326
:1036B0008B83A381B481109721F01296DC93CE9373
:1036C0001197A0913007B0913107109739F4F0931A
:1036D0003107E0933007148213820AC0B483A383B6
:1036E0001296FC93EE931197F0933107E093300715
:1036F00012821182DF91CF910895EF92FF920F9382
:103700001F93CF93DF93EC014B815C8169817A81B8
:103710008D819E810E9485282F81222371F04B810B
:103720005C81E12CF12C00E010E020E030E0BC01F5
:10373000CE010E944C101F820CC0E8812BE2E202F5
:10374000F0011124EE5CF84F21852330B9F4918308
:103750008083E8818BE2E802F0011124EE5CF84FEF
:1037600085899689A789B08D892B8A2B8B2B41F46B
:1037700082E0818788810E947D1A02C08FEF01C09C
:1037800081E0DF91CF911F910F91FF90EF9008950D
:103790001F93CF93DF93CDB7DEB728970FB6F8947A
:1037A000DEBF0FBECDBF29833A834B835C836D831D
:1037B0007E838F8398870E945D0F0E94AF25182F0C
:1037C000CE0101960E94DA1F6330710598F0E091F6
:1037D0001F08F0912008212F30E0620F731FCB01EA
:1037E000A0E0B0E0858B968BA78BB08F0E945F0F17
:1037F00081E001C08FEF28960FB6F894DEBF0FBEB0
:10380000CDBFDF91CF911F9108950E945828E0917C
:103810001F08F091200885818111F7CF0895CF937B
:103820000E943A170E945D0FE0911F08F091200856
:1038300081E090E092A781A785830E94AF25C82FE1
:10384000883F80F40E9449252C2F30E02F5F3F4FA6
:1038500090E02817390734F482E08C0F8093AA0592
:103860000E944D250E945F0F0E94051C81E0CF91B0
:103870000895E0911F08F091200880850E942D1B7B
:10388000E0911F08F091200884E081870E940F1CBE
:1038900081E00895CF93DF93EC010E943A172097BF
:1038A00011F4C1E0D0E00E945D0FE0911F08F0919B
:1038B000200881E08583D2A7C1A70E94AF25C82F29
:1038C000883F80F40E9449252C2F30E02F5F3F4F26
:1038D00090E02817390734F482E08C0F8093AA0512
:1038E0000E944D250E945F0F0E94051C81E0DF9120
:1038F000CF910895EF92FF920F931F93CF938C0176
:103900000E945D0FE0911F08F091200881E08583FF
:103910000E94AF25C82FE0911F08F0912008E82EE3
:10392000F12CC701800F911FA0E0B0E0858B968B32
:10393000A78BB08FC83F78F40E9449259FEFE91A02
:10394000F90A90E0E816F90634F482E08C0F8093CF
:10395000AA050E944D250E945F0F0E94051C81E070
:10396000CF911F910F91FF90EF900895CF93DF9328
:10397000EC010E945D0FE0911F08F091200821E00A
:103980002583CE01A0E0B0E0858B968BA78BB08F0E
:103990000E94AF25C82F883F80F40E9449252C2F14
:1039A00030E02F5F3F4F90E02817390734F482E072
:1039B0008C0F8093AA050E944D250E945F0F0E94E4
:1039C000051C81E0DF91CF910895CF930E945D0F98
:1039D000E0911F08F091200881E0858386830E9492
:1039E000AF25C82F883F80F40E9449252C2F30E056
:1039F0002F5F3F4F90E02817390734F482E08C0F97
:103A00008093AA050E944D250E945F0F0E94051C0D
:103A100081E0CF9108951F93CF93DF93CDB7DEB7A9
:103A200028970FB6F894DEBF0FBECDBF29833A8327
:103A30004B835C836D837E838F8398870E943A17C4
:103A40000E945D0FE0911F08F091200881E08583BE
:103A500081E090E092A781A70E94AF25182FCE01A8
:103A600001960E94DA1FE0911F08F0912008DC0106
:103A7000CB01810F911DA11DB11D858B968BA78B4D
:103A8000B08F183F80F40E944925212F30E02F5F2E
:103A90003F4F90E02817390734F482E0810F80937C
:103AA000AA050E944D250E945F0F0E94051C81E01F
:103AB00028960FB6F894DEBF0FBECDBFDF91CF9131
:103AC0001F9108958F929F92AF92BF92CF92DF92F3
:103AD000EF92FF920F931F93CF93DF93CDB7DEB793
:103AE00060970FB6F894DEBF0FBECDBF29873A8727
:103AF0004B875C876D877E878F87988BCE01019679
:103B00000E94BE1D89809A80AB80BC80CD80DE8003
:103B1000EF80F88409851A852B853C854D855E8567
:103B20006F857889CE0109960E941B1E8F3F61F038
:103B300029853A854B855C856D857E858F8598893D
:103B40000E940B1D81E001C08FEF60960FB6F894C4
:103B5000DEBF0FBECDBFDF91CF911F910F91FF90C0
:103B6000EF90DF90CF90BF90AF909F908F9008958F
:103B7000E0911F08F0912008808508950F931F930E
:103B8000CF93DF93EC011C821D821E821F828091E5
:103B9000160890911708A0911808B0911908888309
:103BA0009983AA83BB8380911A0890911B08A091E6
:103BB0001C08B0911D088C839D83AE83BF830E9437
:103BC000AF25A82FB0E023EB36EE4EE050E00E9488
:103BD000832A0C811D812E813F81DC01CB01800F66
:103BE000911FA21FB31F8C839D83AE83BF838C81E3
:103BF0009D81AE81BF8181152AEC92072AE9A20737
:103C00002BE3B20798F09A5CAA49BB438C839D834F
:103C1000AE83BF8388819981AA81BB810196A11D52
:103C2000B11D88839983AA83BB83E1CFDF91CF91B4
:103C30001F910F9108958F929F92AF92BF92CF9252
:103C4000DF92EF92FF920F931F93CF93DF93CDB745
:103C5000DEB760970FB6F894DEBF0FBECDBFFC0194
:103C600009831A832B833C834D835E836F8378871C
:103C700089869A86AB86BC86CD86DE86EF86F88AF4
:103C800009811A812B813C814D815E816F8178850C
:103C9000C984DA84EB84FC848D859E85AF85B889E0
:103CA0000C151D052E053F05F0F1C016D106E206E4
:103CB000F30691F4481759076A077B07A0F1481BE0
:103CC000590B6A0B7B0B4483558366837783108281
:103CD00011821282138225C0481759076A077B0791
:103CE00080F401501109210931090C191D092E090F
:103CF0003F09008311832283338356536546744CF6
:103D000008C00C191D092E093F0900831183228365
:103D10003383481B590B6A0B7B0B448355836683A3
:103D2000778381E001C08FEF60960FB6F894DEBF15
:103D30000FBECDBFDF91CF911F910F91FF90EF90FC
:103D4000DF90CF90BF90AF909F908F900895FC012F
:103D5000448155816681778141158AEC58078AE94B
:103D600068078BE3780798F05A5C6A497B43448381
:103D700055836683778380819181A281B381019687
:103D8000A11DB11D80839183A283B383E1CF0895E8
:103D90008F929F92AF92BF92CF92DF92EF92FF925B
:103DA0000F931F93CF93DF93CDB7DEB760970FB616
:103DB000F894DEBF0FBECDBF09831A832B833C83EB
:103DC0004D835E836F83788789869A86AB86BC86AF
:103DD000CD86DE86EF86F88A09851A852B853C8597
:103DE00049815A816B817C81400F511F621F731F73
:103DF000FC0140835183628373830D851E852F856B
:103E000038894D815E816F817885400F511F621F17
:103E1000731F44835583668377830E94A71E81E0C6
:103E200060960FB6F894DEBF0FBECDBFDF91CF9185
:103E30001F910F91FF90EF90DF90CF90BF90AF90C8
:103E40009F908F900895E6E1F8E06083718382830C
:103E50009383248335834683578308952F923F921B
:103E60004F925F926F927F928F929F92AF92BF928A
:103E7000CF92DF92EF92FF920F931F93FC01C080CD
:103E8000D180E280F380C114D104E104F104E1F1B6
:103E900084819581A681B78122E4C216D104E10410
:103EA000F104F0F51C012D01612C712C4301E0E0BF
:103EB0008E2F90E0A0E0B0E08C159D05AE05BF050B
:103EC00088F49101A201B301C40136534546544C14
:103ED0006F4F7F4F8F4F9F4F19012A013B014C01BC
:103EE000EF5FE6CF83EBA82E96EEB92E2EE0C22E22
:103EF000D12CE12CF12C00E010E09101A201B301E2
:103F0000C4010E94C22A0AC064817581868197819A
:103F100023EB36EE4EE050E00E949E2AC90102C01B
:103F200080E090E01F910F91FF90EF90DF90CF9095
:103F3000BF90AF909F908F907F906F905F904F90C9
:103F40003F902F900895CF92DF92EF92FF92CF9300
:103F5000DF93CDB7DEB728970FB6F894DEBF0FBE5C
:103F6000CDBF6B017C012AE0F694E794D794C79407
:103F70002A95D1F7C982DA82EB82FC829B01AC01DF
:103F800033704427552763EB76EE8EE090E00E9475
:103F90008E2A2C2D3A814B815C8128960FB6F8949D
:103FA000DEBF0FBECDBFDF91CF91FF90EF90DF90CE
:103FB000CF9008952F923F924F925F926F927F928F
:103FC0008F929F92AF92BF92CF92DF92EF92FF9229
:103FD0000F931F93FC01C080D180E280F380C11455
:103FE000D104E104F104B9F184819581A681B781FE
:103FF0001C012D01612C712C4301E0E08E2F90E01B
:10400000A0E0B0E08C159D05AE05BF0588F49101D8
:10401000A201B301C40136534546544C6F4F7F4F44
:104020008F4F9F4F19012A013B014C01EF5FE6CFF3
:1040300083EBA82E96EEB92E2EE0C22ED12CE12CC9
:10404000F12C00E010E09101A201B301C4010E9433
:10405000C22ACA010BC0648175818681978123EBD6
:1040600036EE4EE050E00E949E2ACA01B9011F912F
:104070000F91FF90EF90DF90CF90BF90AF909F9007
:104080008F907F906F905F904F903F902F9008950A
:10409000C1E00E943A170E944925843010F4C09371
:1040A00013080E94582880914206853519F088E04F
:1040B0000E94B31580917E41853559F388E00E94B6
:1040C000B315E7CF2F923F924F925F926F927F92FC
:1040D0008F929F92AF92BF92CF92DF92EF92FF9218
:1040E0000F931F93CF93DF930E945F0F8AEF0E947D
:1040F0004D250E9449280E941723C091AA05AC2F84
:10410000B0E023EB36EE4EE050E00E94832A0091AF
:104110001A0810911B0820911C0830911D086B0192
:104120007C01C00ED11EE21EF31EC701B60123EBB7
:1041300036EE4EE050E00E949E2AC61AD70AE80AE0
:10414000F90AC0921A08D0921B08E0921C08F0925B
:104150001D08E0911F08F09120088085811130C072
:1041600080911308823019F48C2F0E944111E09144
:104170001F08F09120086091AA0580850E94A9116E
:10418000E0911F08F091200860E080850E94E61110
:1041900080911A0890911B08A0911C08B0911D08ED
:1041A00000911608109117082091180830911908ED
:1041B00053EB452E56EE552E5EE0652E712C07C052
:1041C00095816C2F9111E2CF0E94A911E1CF480196
:1041D00059014FEF841A940AA40AB40A81155AECC3
:1041E00095075AE9A5075BE3B507C8F06C017D01A7
:1041F0002AECD21A2AE9E20A2BE3F20AC701B60135
:10420000A30192010E949E2AA7019601261B370B4B
:10421000480B590BDA01C90195018401D8CF80936D
:104220001A0890931B08A0931C08B0931D080093D4
:104230001608109317082093180830931908E09176
:104240001F08F09120088581882339F18185843009
:1042500021F18781823029F0882341F08681811104
:1042600002C085E001C083E0818714C083E08187BC
:104270001782168285899689A789B08D892B8A2B0A
:104280008B2B41F4818D928DA38DB48D858B968B74
:10429000A78BB08F80850E942D1BE0911F08F091A5
:1042A000200885A196A1A7A1B0A5892B8A2B8B2BCD
:1042B00009F44EC08085882309F44AC09185943062
:1042C00009F446C0458D568D678D70A10091AA05F1
:1042D00010E020E030E0401751076207730798F4C0
:1042E0000E947611E0911F08F0912008608582E01D
:1042F0000E94C215E0911F08F0912008158E168EBD
:10430000178E10A208C0401B510B620B730B458F18
:10431000568F678F70A3E0911F08F0912008C08529
:10432000858D968DA78DB0A1892B8A2B8B2B81F43F
:104330008C2F0E9476116C2F83E00E94C215E091B1
:104340001F08F091200883E081878C2F0E942D1B8D
:10435000CBE3D7E000E61AEE312C2AEFC22ED12CA7
:10436000E12CF12C32E0232E812C912C54018394EA
:10437000FE01319780818F3F09F4E5C033971082A9
:10438000882309F45BC08881843009F457C04C84C9
:104390005D846E847F846091AA0570E080E090E087
:1043A000461657066806790648F0461A570A680AFC
:1043B000790A4C865D866E867F8604C01C861D86C3
:1043C0001E861F86488859886A887B884616570645
:1043D0006806790648F0461A570A680A790A488A30
:1043E000598A6A8A7B8A1AC0288D398D4A8D5B8DDD
:1043F000621773078407950758F429013A01461A92
:10440000570A680A790A488A598A6A8A7B8A06C0E2
:104410000E949E2A688B798B8A8B9B8B88899989CD
:10442000AA89BB89892B8A2B8B2B41F4888D998D86
:10443000AA8DBB8D888B998BAA8BBB8B888183308F
:1044400009F081C08C859D85AE85BF85892B8A2B1F
:104450008B2B09F067C0DE0112978C91FE01339718
:10446000882391F08081882379F0B501A401009020
:104470000F0804C0440F551F661F771F0A94D2F718
:10448000488759876A877B871C921082A8A1B9A1A7
:10449000A130B10509F58C8D9D8DAE8DBF8D8C8BB6
:1044A0009D8BAE8BBF8B288288899989AA89BB890D
:1044B0008C879D87AE87BF87888D998DAA8DBB8D90
:1044C000892B8A2B8B2B21F4CC86DD86EE86FF860A
:1044D000832D0E947D1A26C04C8D5D8D6E8D7F8D43
:1044E0004C8B5D8B6E8B7F8B488C598C6A8C7B8C54
:1044F0001197A30192010E94832A6C877D878E8782
:104500009F87688B798B8A8B9B8B45284628472809
:1045100021F4CC86DD86EE86FF8666246394712CBA
:1045200079A268A28C859D85AE85BF850097A1057F
:10453000B10549F0A80160E070E084179507A6076F
:10454000B70708F48C013394AB9685E0782E3710CA
:104550000FCFE0911F08F091200880850E948811FC
:104560000E946C1AC82F2BE28202F0011124EE5C2B
:10457000F84F228520932108F0931108E09310084A
:104580008823D9F085A196A1A7A1B0A5892B8A2B54
:104590008B2B99F0858D968DA78DB0A18A3F9105C3
:1045A000A105B10550F4A80160E070E084179507FB
:1045B000A607B70710F48C0105C00B3F110510F0DA
:1045C0000AEF10E020931208F0932008E0931F08F0
:1045D0000093AA050E94AF25282F30E02F5F3F4FA0
:1045E0002017310740F00E94AF25082F10E00E5F22
:1045F0001F4F0093AA05C11110921308802F0E942B
:104600004D250E94D228DF91CF911F910F91FF90ED
:10461000EF90DF90CF90BF90AF909F908F907F9062
:104620006F905F904F903F902F900C94DD283F92B9
:104630004F925F926F927F928F929F92AF92BF92B2
:10464000CF92DF92EF92FF920F931F93CF93DF935E
:10465000CDB7DEB760970FB6F894DEBF0FBECDBF03
:10466000CE0109960E94BE1D82E2482E88E0582E97
:10467000612C712C93E1392ED20112968C918130EC
:1046800051F5369CF001379CF00D1124E35DF74F96
:1046900089849A84AB84BC84CD84DE84EF84F888DA
:1046A0000081118122813381448155816681778126
:1046B000CE0101960E941B1E8F3F69F4662D85E195
:1046C0000E94C215D201ED91FC91309719F40E941D
:1046D000610F01C00995BFEF6B1A7B0AE3E14E0E33
:1046E000511CF3E06F16710439F660960FB6F8941A
:1046F000DEBF0FBECDBFDF91CF911F910F91FF9015
:10470000EF90DF90CF90BF90AF909F908F907F9071
:104710006F905F904F903F900895E2E2F8E0128230
:10472000158A10A60895CF93DF938330E0F493E1C8
:10473000899FF0011124EE5DF74F51834083EB0117
:1047400088819981AA81BB8183839483A583B68361
:104750008C819D81AE81BF8187839087A187B2873D
:10476000128281E001C08FEFDF91CF910895CF9247
:10477000DF92EF92FF920F931F93CF93DF93CDB70A
:10478000DEB728970FB6F894DEBF0FBECDBF8330DB
:10479000A8F5182FCE0101960E94BE1D23E1129F9D
:1047A000C00111248C010E5D174FF801C380D48025
:1047B000E580F68049815A816B817C814C0D5D1DBD
:1047C0006E1D7F1D4387548765877687C780D08499
:1047D000E184F2844D815E816F8178854C0D5D1D91
:1047E0006E1D7F1D4787508B618B728B835D974F4A
:1047F0000E94A71E81E0F801828301C08FEF2896F6
:104800000FB6F894DEBF0FBECDBFDF91CF911F91E1
:104810000F91FF90EF90DF90CF9008951F93CF936B
:10482000DF93CDB7DEB728970FB6F894DEBF0FBE83
:10483000CDBF833070F5182FCE0101960E94BE1DAA
:1048400083E1189FF0011124EE5DF74F43815481FD
:104850006581768189819A81AB81BC81840F951FA6
:10486000A61FB71F83879487A587B6874781508582
:10487000618572858D819E81AF81B885840F951F7A
:10488000A61FB71F8787908BA18BB28B81E0828395
:1048900001C08FEF28960FB6F894DEBF0FBECDBFD4
:1048A000DF91CF911F910895833048F493E1899F60
:1048B000F0011124EE5DF74F128281E008958FEF31
:1048C000089500000000000000000000000000004B
:1048D00000000000000000000000019791F708951B
:1048E00010922101089589E0809321018DE89CE3D5
:1048F0009093290180932801089510922501109228
:1049000024010895CF93DF9300D0CDB7DEB7809117
:104910002401909125019A83898389819A810F903E
:104920000F90DF91CF91089510928100089581E05A
:1049300080938100089583B5816083BD10928500C6
:10494000109284000895CF93DF9300D0CDB7DEB7E7
:1049500080918400909185009A83898389819A81CE
:104960000F900F90DF91CF910895CF92DF92EF9249
:10497000FF92CF93DF93EC01CC0FDD1FC9378FEF90
:10498000D80710F0C0E0D0E06B01E12CF12CCC0E88
:10499000DD1EE11CF11C81E0C816D104E806F1041B
:1049A00040F081E0E81AF1080E94A324C817D90753
:1049B000D8F30E94A3248C159D05D8F3DF91CF91E5
:1049C000FF90EF90DF90CF9008951092B100E0E754
:1049D000F0E080818D7F808380818E7F8083089549
:1049E0008093B2000895E0E7F0E0808183608083E7
:1049F00083E08093B100089583B5826083BD1092F7
:104A0000B200109254041092AA050895CF93DF9338
:104A10008EEF8093AA0580E28093B6008091AA056C
:104A20008093B30083E087BB92E09093B0008093C3
:104A3000B10093B5926093BD87BB84BD83B582609E
:104A400083BD1092800081E08093810010928500E8
:104A50001092840083B5826083BD83B5816083BD7D
:104A600010922001C4E2D1E01982188283B58260DD
:104A700083BD83B5816083BD0E94FC2419821882A6
:104A80000E94F3240E94732410925404DF91CF916A
:104A900008958091B3008F5F089581508093B30093
:104AA0000895811102C0109271008FEF0895811155
:104AB00006C0109295001092940081E008958FEF47
:104AC0000895811105C080919400909195000895FA
:104AD00080E090E00895811105C082E0809371002C
:104AE00081E008958FEF0895811135C0CB010197C2
:104AF000059710F46093A9051092900088E08093C8
:104B0000910050939900409398003093D2032093E2
:104B1000D1038091A905813021F4809191008160B9
:104B200011C0823021F48091910082600BC08330EB
:104B300021F480919100836005C0843031F480912C
:104B4000910084608093910008C0853031F4809199
:104B500091008560F7CF8FEF089581E008958091EF
:104B6000B20008951F920F920FB60F92112460E0C9
:104B70008AE00E94C215FFCF0F920FB60F921F92CC
:104B80002F923F924F925F926F927F928F929F925D
:104B9000AF92BF92CF92DF92EF92FF920F931F934B
:104BA0002F933F934F935F936F937F938F939F9335
:104BB000AF93BF93CF93DF93EF93FF93A0911F0821
:104BC000B09120080DB60D920EB60D921F92A091D5
:104BD000A705B091A8051E90BEBFADBF08951F9256
:104BE0000F920FB60F9211240BB60F922F933F9393
:104BF0004F935F936F937F938F939F93AF93BF93E5
:104C0000EF93FF93E091D103F091D203309711F02D
:104C1000099504C060E08AE00E94C215FF91EF91FF
:104C2000BF91AF919F918F917F916F915F914F91C4
:104C30003F912F910F900BBE0F900FBE0F901F90C2
:104C400018951F920F920FB60F9211240F900FBE5E
:104C50000F901F90189504B603FE02C080E101C0BA
:104C600080E004B602FE06C094B79B7F94BF04B6F2
:104C700000FE846004B601FE05C094B79D7F94BF1A
:104C80008260089581110CC004B600FE04C094B780
:104C90009E7F94BF01C081E09091B000911181E0AE
:104CA0000895811102C0E89A39C0813011F4E99A5F
:104CB0000895823011F4EA9A31C0833021F4809152
:104CC0006B00816029C0843021F480916B00826088
:104CD00023C0853021F480916B0084601DC0863034
:104CE00021F480916B00886017C0873021F4809197
:104CF0006B00806111C0883021F480916B0080626C
:104D00000BC0893021F480916B00806405C08A302B
:104D100039F480916B00806880936B0081E0089586
:104D20008FEF0895811102C0E89839C0813011F4E5
:104D3000E9980895823011F4E99831C0833021F464
:104D400080916B008E7F29C0843021F480916B00AC
:104D50008D7F23C0853021F480916B008B7F1DC037
:104D6000863021F480916B00877F17C0873021F453
:104D700080916B008F7E11C0883021F480916B0090
:104D80008F7D0BC0893021F480916B008F7B05C033
:104D90008A3039F480916B008F7780936B0081E0CB
:104DA00008958FEF0895811126C050937D08409398
:104DB0007C08611104C0809169008C7F3DC0613026
:104DC00049F4809169008D7F80936900809169002A
:104DD000816032C0623049F48091690082608093C2
:104DE0006900809169008E7F27C0633039F580911A
:104DF0006900836021C0813049F550937B0840935E
:104E00007A08611104C080916900837F15C0613008
:104E100049F480916900877F8093690080916900DF
:104E200084600AC0623061F4809169008860809378
:104E30006900809169008B7F8093690081E008950B
:104E40006330E1F7809169008C60F6CF823031F5F4
:104E500050937F0840937E08611104C080916900DF
:104E60008F7CEACF613049F4809169008F7D809317
:104E70006900809169008061DFCF623049F48091E0
:104E80006900806280936900809169008F7ED4CF31
:104E90006330A1F6809169008063CECF8350883063
:104EA00050F480916800816080936800509381087D
:104EB00040938008C3CF8FEF08951F920F920FB6D3
:104EC0000F9211240BB60F922F933F934F935F9342
:104ED0006F937F938F939F93AF93BF93EF93FF93C2
:104EE000E0918008F0918108309711F0099504C095
:104EF00060E08AE00E94C215FF91EF91BF91AF91EF
:104F00009F918F917F916F915F914F913F912F91E1
:104F10000F900BBE0F900FBE0F901F9018951F9211
:104F20000F920FB60F9211240BB60F922F933F934F
:104F30004F935F936F937F938F939F93AF93BF93A1
:104F4000EF93FF93E0917C08F0917D08309711F08A
:104F5000099504C060E08AE00E94C215FF91EF91BC
:104F6000BF91AF919F918F917F916F915F914F9181
:104F70003F912F910F900BBE0F900FBE0F901F907F
:104F800018951F920F920FB60F9211240BB60F9225
:104F90002F933F934F935F936F937F938F939F9341
:104FA000AF93BF93EF93FF93E0917A08F0917B0862
:104FB000309711F0099504C060E08AE00E94C215A4
:104FC000FF91EF91BF91AF919F918F917F916F91E1
:104FD0005F914F913F912F910F900BBE0F900FBE9D
:104FE0000F901F9018951F920F920FB60F921124D9
:104FF0000BB60F922F933F934F935F936F937F93D3
:105000008F939F93AF93BF93EF93FF93E0917E08AD
:10501000F0917F08309711F0099504C060E08AE0B4
:105020000E94C215FF91EF91BF91AF919F918F9117
:105030007F916F915F914F913F912F910F900BBE98
:105040000F900FBE0F901F901895A8959FB7F894DA
:1050500084B7877F84BFE0E6F0E080818861808349
:1050600010829FBF08959FB7F894A89584B7877F53
:1050700084BFE0E6F0E08081886180838DE08083FA
:105080009FBF089504B603FE02C08FEF089581E02C
:105090000895A8950895089583B7817F866083BF9A
:1050A00083B7816083BF889583B78E7F83BF089560
:1050B00083B7817F83BF83B7816083BF889583B7C0
:1050C0008E7F83BF0895FC01768365830895EF92F8
:1050D000FF920F931F93CF93DF938C017B01EA0123
:1050E0004032510518F481E10E94B3152197CE0D8D
:1050F000DF1DF801D283C183F482E382DF91CF9177
:105100001F910F91FF90EF90089525E5FA012083FC
:10511000FB013297908331968083339711821082FE
:105120003297118210823297118210823297118247
:105130001082329711821082329711821082329738
:10514000118210823297118210823297118210825E
:105150003297118210823297118210823297118217
:105160001082329711821082329711821082329708
:1051700011821082329711821082CB018497FC0138
:1051800011821082089585E580937E41EEEFF1E46F
:10519000F093A805E093A70582E091E190838093C6
:1051A000FF41089582E091E19093FE418093FF4199
:1051B00008950E9406250C945F0FA0911008B091ED
:1051C0001108CD91CDBFDD91DEBFFF91EF91DF9151
:1051D000CF91BF91AF919F918F917F916F915F918F
:1051E0004F913F912F911F910F91FF90EF90DF9082
:1051F000CF90BF90AF909F908F907F906F905F9077
:105200004F903F902F901F900F900FBE0F901895CA
:105210000E94090B80E190E00E94920E0E94A1047E
:10522000789481E090E00E944A0E0E94C6030E949A
:10523000AF030E94BB030E94640F83E090E00E94D2
:105240003D0E82E090E00E943D0E80E090E00E94E2
:105250003D0E81E090E00E943D0E20E030E0A9018B
:1052600060E070E0CB010E94231F0E94F3030E94C4
:105270000B1080E090E008956F927F928F929F9242
:10528000AF92BF92CF92DF92EF92FF920F931F9354
:10529000CF93DF93CDB7DEB72C970FB6F894DEBF70
:1052A0000FBECDBF6C015B017A01FC011782168233
:1052B000838181FF0EC1CE0101964C01F60103816D
:1052C000F50103FD159103FF11915F01112309F40D
:1052D000FCC0153249F403FD159103FF11915F01E4
:1052E000153211F020E01BC0B601812F90E00E9422
:1052F000A12B37017301E2CF112309F4E6C0612F1E
:1053000070E08EEF94E02C870E94342B2C85892B43
:1053100049F0F50103FD159103FF11915F0127FF8E
:10532000EBCF09C0133229F01C3609F0D5C0206834
:10533000F0CF20E1EECF022F112309F4C6C0612F78
:1053400070E087EF94E02C870E94342B2C85892B0A
:1053500041F03701F4E06F0E711CB6018FE390E06D
:1053600011C0133639F0133781F0133519F5022FB8
:1053700001600BC0370182E0680E711CB601F701B5
:10538000808191810E94A12BB5CF3701F2E06F0E91
:10539000711CF701E080F180F70100FD859100FFAD
:1053A00081917F01882309F4A5CFB60190E00E9486
:1053B000A12BF2CF143611F0193629F5370127FF4A
:1053C00009C0F4E06F0E711CF70160817181828168
:1053D00093810AC0F2E06F0E711CF7016081718148
:1053E000882777FD8095982F022F0F7E97FF08C0A2
:1053F00090958095709561957F4F8F4F9F4F00647A
:105400002AE030E033C0103799F040F41835B1F09D
:105410001F3609F05AC028E030E014C0153719F0E3
:10542000183741F052C0022F0F7E2AE030E00AC048
:10543000022F0061046220E130E004C0022F04600A
:1054400020E132E0370107FF09C0F4E06F0E711C64
:10545000F701608171818281938108C0F2E06F0E53
:10546000711CF7016081718180E090E0A4010E94CD
:10547000532C182F181906FF05C0B6018DE290E0D5
:105480000E94A12B04FF15C0FE01E10FF11D8081D8
:10549000803379F0B60180E390E00E94A12B02FFF7
:1054A00008C00072802F90E0B601885A9F4F0E947A
:1054B000A12B1150F401E10FF11D8081B60190E0A4
:1054C0000E94A12B1111F5CF15CFF601868197818E
:1054D00005C08FEF9FEF02C0022F31CF2C960FB681
:1054E000F894DEBF0FBECDBFDF91CF911F910F911A
:1054F000FF90EF90DF90CF90BF90AF909F908F90F4
:105500007F906F9008950E94252BA59F900DB49FCA
:10551000900DA49F800D911D11240895DB018F93A0
:105520009F930E94832ABF91AF91A29F800D911DEE
:10553000A39F900DB29F900D11240895A1E21A2E01
:10554000AA1BBB1BFD010DC0AA1FBB1FEE1FFF1F27
:10555000A217B307E407F50720F0A21BB30BE40B77
:10556000F50B661F771F881F991F1A9469F76095BE
:105570007095809590959B01AC01BD01CF01089578
:10558000689401C0E8948F929F92CF93DF930E941A
:10559000CE2ADF91CF919F908F90089588249924EF
:1055A000F401E401B0E49F93AA279A158B049C04AC
:1055B000ED05FE05CF05D007A10798F4AD2FDC2F30
:1055C000CF2FFE2FE92D982C892E982F872F762FFD
:1055D000652F542F432F322F2227B85031F7BF9118
:1055E00027C01B2EBF91BB27220F331F441F551FFF
:1055F000661F771F881F991F881C991CEE1FFF1FAD
:10560000CC1FDD1FAA1FBB1F8A149B04EC05FD05E0
:10561000CE05DF05A007B10748F08A189B08EC0902
:10562000FD09CE09DF09A00BB10B21601A94E1F648
:105630002EF49401AF01BE01CD01000C0895EE0FD0
:10564000FF1F0590F491E02D0994A29FB001B39F34
:10565000C001A39F700D811D1124911DB29F700D7B
:10566000811D1124911D0895FC010590061621F05D
:105670000020D9F7C00108953197CF010895FB01AB
:10568000DC0102C001900D9241505040D8F70895BE
:10569000FB01DC014150504030F08D9101908019A8
:1056A00019F40020B9F7881B990B08950F931F93E5
:1056B000CF93DF93009731F46115710519F480E001
:1056C00090E03AC08B01EC016EE070E081E090E088
:1056D0000E94C72CFC01009791F380E88383011599
:1056E000110571F01387028781E883838091820816
:1056F00090918308892B21F4F0938308E09382082A
:105700002097C9F0D187C08783818260838380918D
:10571000840890918508892B71F4F0938508E093B3
:1057200084088091860890918708892B21F4F09352
:105730008708E0938608CF01DF91CF911F910F91E9
:1057400008950F931F93CF93DF93FB01238121FDD6
:1057500003C08FEF9FEF28C022FF16C046815781FC
:10576000248135814217530744F4A081B1819D0102
:105770002F5F3F4F318320838C93268137812F5FAA
:105780003F4F3783268310C0EB01092F182F008469
:10579000F185E02D0995892BE1F68E819F81019697
:1057A0009F838E83812F902FDF91CF911F910F9137
:1057B0000895CF93DF93CDB7DEB7AE014B5F5F4F58
:1057C000FA0161917191AF018091840890918508EF
:1057D0000E943C29DF91CF910895609184087091D7
:1057E00085080C94A12B0F931F93CF93DF93E09127
:1057F0008408F0918508238121FF1BC08C01D0E033
:10580000C0E0F80181918F01609184087091850852
:10581000DB011896ED91FC911997882331F00995D9
:10582000892B79F3DFEFCFEFECCF8AE00995892B55
:1058300019F08FEF9FEF02C08D2F9C2FDF91CF913A
:105840001F910F9108950F931F93CF93DF93CDB7BF
:10585000DEB72E970FB6F894DEBF0FBECDBF0D8911
:105860001E8986E08C831A8309838FEF9FE79E83CE
:105870008D83AE01475E5F4F6F89788DCE010196B3
:105880000E943C292F813885F801E20FF31F108216
:105890002E960FB6F894DEBF0FBECDBFDF91CF912D
:1058A0001F910F910895FA01AA27283051F1203154
:1058B00081F1E8946F936E7F6E5F7F4F8F4F9F4FA4
:1058C000AF4FB1E03ED0B4E03CD0670F781F891FE6
:1058D0009A1FA11D680F791F8A1F911DA11D6A0FB4
:1058E000711D811D911DA11D20D009F468943F9167
:1058F0002AE0269F11243019305D3193DEF6CF0166
:105900000895462F4770405D4193B3E00FD0C9F72B
:10591000F6CF462F4F70405D4A3318F0495D31FD98
:105920004052419302D0A9F7EACFB4E0A6959795EB
:10593000879577956795BA95C9F7009761057105C1
:1059400008959B01AC010A2E06945795479537950B
:105950002795BA95C9F7620F731F841F951FA01D65
:105960000895F999FECF92BD81BDF89A992780B527
:105970000895262FF999FECF1FBA92BD81BD20BD93
:105980000FB6F894FA9AF99A0FBE019608950F93FC
:105990001F93CF93DF93869F8001879F100D969F63
:1059A000100D1124C8010E94E32CEC01009729F08E
:1059B000A80160E070E00E94102ECE01DF91CF912F
:1059C0001F910F910895CF93DF938230910510F4CA
:1059D00082E090E0E0918A08F0918B0820E030E0CE
:1059E000C0E0D0E0309711F140815181481759074C
:1059F000C0F04817590761F482819381209719F00C
:105A00009B838A832BC090938B0880938A0826C03F
:105A10002115310519F04217530718F49A01BE01F8
:105A2000DF01EF010280F381E02DDCCF211531058C
:105A300009F1281B390B2430310590F412968D9111
:105A40009C9113976115710521F0FB01938382836B
:105A500004C090938B0880938A08FD01329644C05D
:105A6000FD01E20FF31F81939193225031092D9391
:105A70003C933AC02091880830918908232B41F447
:105A800020911302309114023093890820938808E2
:105A900020911102309112022115310541F42DB7E8
:105AA0003EB74091150250911602241B350BE09130
:105AB0008808F0918908E217F307A0F42E1B3F0B2A
:105AC0002817390778F0AC014E5F5F4F2417350770
:105AD00048F04E0F5F1F50938908409388088193C8
