:100000000C9487020C945E270C9490270C94C227C2
:100010000C94A6020C94A6020C94A6020C94A602C0
:100020000C94A6020C942C270C94A6020C94A60205
:100030000C94A6020C948B250C94A6020C948B2590
:100040000C94A6020C94A6020C94A6020C94A60290
:100050000C94A6020C94A6020C94A6020C94A60280
:100060000C94A6020C94A6020C94A6020C94A60270
:100070000C94A6020C94A6020C94A6020C94A60260
:100080000C94BE250C94A6020C94A6020C94A60215
:100090000C94A6020C94A6020C94A6020C94FC04E8
:1000A0000C94A6020C94A6020C94A6020C94A60230
:1000B0000C94A6020C94A6020C94A6020C94A60220
:1000C0000C94A6020C94A6020C94A6020C94A60210
:1000D0000C94A6020C94A6020C94A6020C94A60200
:1000E0000C94A6020C94CD080C94BE080C948E08B7
:1000F0000C947E090C947F080C9470080C94610891
:100100000C9452080C94A6020C94A6020C94A6021D
:100110000C94A6020C94A6020C94A6020C94A602BF
:10012000F20AFF0A0C0B190B260B330B400B630B67
:10013000710B7F0B8D0B9B0BA90BB70BDA0BDC0B39
:10014000DE0BE00BE20BE40BE60B050C280C4C0C71
:100150006F0C920CB50CD80C120D1F0D2C0D390D17
:10016000460D530D600D790D860D930DA00DAD0D4F
:10017000BA0DC70DE414EA14ED14F014F314F614D8
:10018000FC14F914FF14021505150E15111514159C
:1001900017150B15E114E7141A151D150815DE14B3
:1001A0000616091614161916201629162C163116BD
:1001B000381641160D0A4E616E6F2D524B20546158
:1001C000736B20537461746973746963733A0D0AB5
:1001D000000D0A000D0A2020204F766572666C6FB4
:1001E00077204572726F72205374617475733A2070
:1001F000000D0A2020204B65726E656C2056696FD9
:100200006C6174696F6E733A20000D0A20202050D3
:100210007265656D7074696F6E733A20000D0A2007
:100220002020537761702D696E733A20000D0A20EB
:10023000202054696D65205B4D696E2C4C61737490
:100240002C4D61785D3A20000D0A202020546F74F7
:10025000616C204350553A20000D0A20202049644B
:100260006C65205461736B204465657020536C6528
:1002700065702054696D653A20000D0A20202054D5
:100280006F74616C2053797374656D205570746957
:100290006D653A2000205461736B2049443A200078
:1002A000554E4B4F574E0045787465726E616C2009
:1002B00052657365740042726F776E204F757420BB
:1002C000446574656374004661696C656420746F8D
:1002D000206372656174652053656D6170686F722B
:1002E00065004661696C656420746F2063726561A6
:1002F0007465205369676E616C004B65726E656C46
:100300002066756E6374696F6E206E6F7420696D00
:10031000706C656D656E74656400446576696365CF
:1003200020447269766572204572726F720057615F
:10033000746368646F6720526573746172740053EC
:1003400057205761746368646F67205265737461E6
:1003500072740054696D6572204F766572666C6FB9
:100360007700556E68616E646C656420496E7465D3
:10037000727275707420566563746F72004C6F777B
:1003800020566F6C74616765004578747261205403
:1003900061736B20737461727465642C20697320BF
:1003A0006E726B5F6366672E68206F6B3F004964F7
:1003B0006C65206F72204B65726E656C20537461A2
:1003C000636B204F766572666C6F7700556E65784B
:1003D000706563746564205265737461727400445F
:1003E00075706C696361746564205461736B204936
:1003F00044005363686564756C6572204D6973735E
:1004000065642057616B657570005461736B205291
:100410006573657276652056696F6C6174656400FA
:1004200052657365727665204572726F7220696ECF
:10043000205363686564756C657200496E76616C03
:10044000696420537461636B20506F696E746572C8
:10045000005461736B20537461636B204F76657237
:10046000666C6F7700537461636B20776173206EE5
:100470006F7420646566696E6564206173206C61C9
:1004800072676520656E6F75676821005461736BD4
:1004900020706572696F6420746F6F206C61726781
:1004A000652E20506572696F64206D7573742062CB
:1004B00065206C657373207468616E20363120731B
:1004C00065636F6E64732E00293A20002A4E524BEA
:1004D000204552524F5228004E524B205265626FB7
:1004E0006F742E2E2E0D0A000D0A535441434B20DB
:1004F00044554D500D0A0045464765666700202B60
:100500002D2E3031323334353637383968001124E6
:100510001FBECFEFD1E4DEBFCDBF13E0A0E0B2E05D
:10052000E8ECFBE500E00BBF02C007900D92A63A95
:10053000B107D9F718E0A6EAB3E001C01D92AA38C6
:10054000B107E1F70E94D7280C94E22D0C94812585
:1005500016EA02E387EAF82EC8E6D2E01093CD0649
:100560000093CE0662E08DEC96E00E94B604F09215
:10057000CD061092CE061092CF061092D0061092A1
:10058000D1061092D2061092D30667E08DEC96E069
:100590000E94B60467E08DEC96E00E94E504882393
:1005A00021F18091D2061F928F938091D3061F92E2
:1005B0008F938091D0061F928F938091D1061F92C6
:1005C0008F938091CE061F928F938091CF061F92BA
:1005D0008F93DF93CF930E94A42B8DB79EB70E9677
:1005E0000FB6F8949EBF0FBE8DBF0E94DE1BB6CF24
:1005F00010ED0DE181EDF82EC5E9D2E01093CD06A6
:100600000093CE0662E08DEC96E00E94B604F09274
:10061000CD061092CE061092CF061092D006109200
:10062000D1061092D2061092D30667E08DEC96E0C8
:100630000E94B60467E08DEC96E00E94E5048823F2
:1006400021F18091D3061F928F938091D2061F9241
:100650008F938091D1061F928F938091D0061F9225
:100660008F938091CF061F928F938091CE061F9219
:100670008F93DF93CF930E94A42B8DB79EB70E96D6
:100680000FB6F8949EBF0FBE8DBF0E94DE1BB6CF83
:100690001CE303E08DE3F82ECFEAD2E01093CD0601
:1006A0000093CE0662E08DEC96E00E94B604F092D4
:1006B000CD061092CE061092CF061092D006109260
:1006C000D1061092D2061092D30667E08DEC96E028
:1006D0000E94B60467E08DEC96E00E94E504882352
:1006E00021F18091D3061F928F938091D2061F92A1
:1006F0008F938091D1061F928F938091D0061F9285
:100700008F938091CF061F928F938091CE061F9278
:100710008F93DF93CF930E94A42B8DB79EB70E9635
:100720000FB6F8949EBF0FBE8DBF0E94DE1BB6CFE2
:10073000CF93C82F883411F0803211F40E94D8046E
:100740001F92CF9389EC92E09F938F930E94A42BEA
:100750000F900F900F900F908C2FCF910895EDEC8C
:10076000F6E080ED808386E181838BE1828363E024
:10077000CF010C94B604EDECF6E08CE3808382E0CC
:100780008183128263E0CF010C94B6040F931F9310
:10079000CF93DF93CDECD6E016EA18830DE2098300
:1007A0001A8263E0CE010E94B604188388E389832D
:1007B00080E88A8363E0CE010E94B604188309832F
:1007C00088E08A8363E0CE010E94B604188381E347
:1007D000898381E08A8363E0CE01DF91CF911F910D
:1007E0000F910C94B6048F929F92AF92BF92CF92CA
:1007F000DF92EF92FF92CF9368EA72E08DE394E08C
:100800000E94322840E850E06FE075E08DE394E00C
:100810000E943628EDE3F4E0C1E0C087C783C187BA
:10082000C287138614861586168680E8C82E82EB4A
:10083000D82E86EEE82E8EE0F82EC786D08AE18A82
:10084000F28A138A148A158A168AC78AD08EE18E94
:10085000F28E812C912C54018394838E948EA58EDC
:10086000B68E178E10A211A212A2CF010E944C1BAD
:1008700068EF72E08AEA96E00E94322840E850E091
:1008800068E674E08AEA96E00E943628EAEAF6E032
:1008900082E08087C783C187C28713861486158646
:1008A0001686C786D08AE18AF28A138A148A158A44
:1008B000168AC78AD08EE18EF28E838E948EA58E94
:1008C000B68E178E10A211A212A2CF010E944C1B4D
:1008D00068E473E08CEE94E00E94322840E850E037
:1008E0006BEB73E08CEE94E00E943628ECEEF4E0C3
:1008F00083E08087C783C187C287138614861586E5
:100900001686C786D08AE18AF28A138A148A158AE3
:10091000168AC78AD08EE18EF28E838E948EA58E33
:10092000B68E178E10A211A212A2CF01CF91FF9006
:10093000EF90DF90CF90BF90AF909F908F900C94EE
:100940004C1B8AE08093B8008FEF8093BB0084E05B
:100950008093BC0008958091BC00817008958091BF
:10096000BC0080FDFCCF8091000208952091BC0066
:1009700020FDFCCF6093A803FC0120812093A903F4
:1009800020FF09C01092A60388EF8093000285EA39
:100990008093BC000895FC01319629EA33E0D90127
:1009A00011968A2F821B861768F781918C93F8CF56
:1009B0008091BC0080FDFCCF1092A60388EF80934D
:1009C000000285EA8093BC0008952091BC0020FDC0
:1009D000FCCF2091A60320FD04C08091A603817066
:1009E000089529EA33E0FC01D9018A2F821B86177A
:1009F000A0F78D918193F9CF1F920F920FB60F92AE
:100A000011240BB60F922F933F938F939F93EF93E5
:100A1000FF938091B900883201F140F48031D9F020
:100A20008831D9F0883009F04AC015C0803491F17E
:100A300028F4883309F043C085EA46C08035F1F0D8
:100A40008835E9F58091BB00E091A703F0E0E75518
:100A5000FC4F80832DC01092A703E091A7038091E3
:100A6000A803E81728F581E08E0F8093A703F0E034
:100A7000E755FC4F80818093BB0018C0E091A7032D
:100A800081E08E0F8093A7038091BB00F0E0E755D3
:100A9000FC4F80832091A70330E08091A80390E071
:100AA00001972817390714F485EC0EC085E80CC0AF
:100AB0008091A60381608093A60384E905C080919C
:100AC000B9008093000284E08093BC00FF91EF9115
:100AD0009F918F913F912F910F900BBE0F900FBE62
:100AE0000F901F901895909141019F719F31D9F3FC
:100AF0008093420108958093B303089581E0809329
:100B0000E30608951092E3060895809141018F71E4
:100B10008F31D9F3809141018F71E1F08F30D1F0A5
:100B2000809141018F71883031F480913901826068
:100B3000809339010BC088E00E94730580914101C8
:100B40008F718830D9F7F1CF8F3021F0809141013A
:100B50008F71D1F70895809141018F718F31D9F351
:100B6000809141018F7111F08F3051F480913901E2
:100B70008D7F80933901809141018F718830D9F741
:100B80000895E5E4F1E09081907F908390818F70EB
:100B9000982B90830895E7E5F1E080818D7F808335
:100BA0000895E7E5F1E08081826080830895EEE6B4
:100BB000F1E080818F7E80830895EEE6F1E0808110
:100BC0008061808308958093600190936101909388
:100BD000ED068093EC0608959093E7068093E60671
:100BE000E8E4F1E08081807E80838081682B6083EF
:100BF00008959093B7038093B60308959093B50337
:100C00008093B40308950F931F93CF93DF93FC0158
:100C1000D90180E28093440180EC809345016062B9
:100C20006093480185EC8093490187EA80934B01EA
:100C300080E880934C0120936001B0936101409360
:100C4000620150936301C6E4D1E0088188819881F4
:100C50002881302F32953695377060E4369F8001B9
:100C60001124229526952370622F602B82958695FC
:100C7000837070E1879F90011124262B92959695A1
:100C8000937084E0989FB0011124622B60936D01F2
:100C900088819881929596959370392F3064982F1A
:100CA00092959670932B90936E0110926C0184E054
:100CB00080934E01C6EED6E0F983E8831A821B8248
:100CC0005D834C83BF83AE83188681E080930707E2
:100CD0001092E306DF91CF911F910F91089586E165
:100CE0000C94730586E10C94730588E00C947305ED
:100CF0000F931F93CF93DF93FC018091070781111E
:100D000002C08FEFACC026818091E8068F5F809390
:100D1000E80690918101907E916020FB95F99F7388
:100D200090649093810188E8809382018091E3062A
:100D3000882361F08FEF809383018AEA9AEA909387
:100D40008901809388018FEF9FEF10C08091E806A2
:100D500080938301209161018091600190E0922B4A
:100D6000909389018093880180819181909387017C
:100D700080938601209163018091620190E0922B23
:100D800090938501809384018F014281552747FD0F
:100D90005095638174818AE891E00E940A2BF801E2
:100DA0008281855F8093800180914101D82FDF711E
:100DB0009FEF9D0F9230C0F3D131B1F3D231A1F347
:100DC000DF3191F398EF9D0F923020F08F708630D5
:100DD00009F097CF86E10E947305F80185818111A2
:100DE0000BC089E00E947305F8018681882391F089
:100DF00089E10E9473050EC080914801806880934C
:100E000048018091410187FFFCCF8091410186FF1D
:100E100078CFE7CF82E00E94730580E090E02091D8
:100E20004F0126FD05C00196883EFDEF9F07B9F7EB
:100E300020E420934F01F8012681222331F02091F4
:100E4000420122952695277029F4883E9D4F11F086
:100E5000C1E001C0CFEF8D2F0E9473058C2FDF9171
:100E6000CF911F910F910895CF93DF938091070742
:100E7000882341F180914101C82FCF719FEF9C0FD2
:100E80009230C0F3C131B1F3C231A1F3CF3191F34C
:100E9000C83019F08F708630A9F486E10E9473057E
:100EA000809148018068809348018091410187FFCB
:100EB000FCCFD09141018C2F0E947305D6FB88276F
:100EC00080F901C08FEFDF91CF91089580910707DE
:100ED000882309F4E5C080914F0183FFDFC0809132
:100EE000460187FFDBC080917B01E091E606F0912F
:100EF000E70690E002972481332727FD30952817D5
:100F000039070CF4CDC088E080934F01E091E606EC
:100F1000F091E706809182018083E091E606F091EE
:100F2000E706809187019091880192838183E09107
:100F3000E606F091E70680917B018B508383A091B8
:100F4000E606B091E706E091E606F091E706139613
:100F50009C91848189173CF0E091E606F091E706C8
:100F6000838187FF0BC080914C018F7780934C0168
:100F700080914C01806880934C0192C0A091E6065C
:100F8000B091E706E091E606F091E70613964C91E2
:100F9000552747FD509569E871E0858196810E944B
:100FA0000A2B8091B303882309F43EC0E091E60642
:100FB000F091E70683818031B9F5E091E606F09182
:100FC000E7066581768144E050E081E092E00E948E
:100FD000132B892B49F5E091E606F091E706658130
:100FE000768140E150E081E092E00E94132B892B52
:100FF000D9F49DE088E10FB6F894A895809360003D
:101000000FBE9093600080E090E00E940F0E81E0A0
:1010100090E00E940F0E82E090E00E940F0E83E0AD
:1010200090E00E940F0EFFCFE091E606F091E706F8
:101030008091800185FB882780F98783E091E6060F
:10104000F091E706809147018087E091E606F091F4
:10105000E706809146018695869586958187E09181
:10106000E606F091E706809147018287A091E606A7
:10107000B091E706E0917B01F0E0E058FE4F8081FF
:101080001B968C9380914C018F7780934C018091BB
:101090004C01806880934C0181E0089580E00895C0
:1010A0008FEF08951F920F920FB60F9211248F9316
:1010B00080E880934F018F910F900FBE0F901F908B
:1010C00018951F920F920FB60F9211248F9380E400
:1010D00080934F018F910F900FBE0F901F90189526
:1010E0001F920F920FB60F9211248F9380E280937C
:1010F0004F018F910F900FBE0F901F9018951F9268
:101100000F920FB60F9211248F9380E180934F01BD
:101110008F910F900FBE0F901F9018951F920F92F6
:101120000FB60F9211240BB60F922F933F934F934C
:101130005F936F937F938F939F93AF93BF93EF933F
:10114000FF9384E080934F01E091B603F091B703E1
:10115000309709F00995FF91EF91BF91AF919F9161
:101160008F917F916F915F914F913F912F910F9050
:101170000BBE0F900FBE0F901F9018951F920F92ED
:101180000FB60F9211248F9382E080934F018F91BD
:101190000F900FBE0F901F9018951F920F920FB6D1
:1011A0000F9211248F9381E080934F018F910F90C4
:1011B0000FBE0F901F901895E9E4F1E09081907FA9
:1011C000908390818F70982B908308958FEF08956E
:1011D0000895089508958FEF08958091E106909104
:1011E000E2060895089581E0089581E0089581E080
:1011F0000895089508950895089508950895089507
:10120000089598988DB1806E8DB98EB1806A8EB92F
:10121000089598988DB1806E8DB98EB180668EB923
:101220000895CF92DF92EF92FF920F931F93CF9387
:10123000DF93CDB7DEB727970FB6F894DEBF0FBEAA
:10124000CDBF0E942C0FE091E606F091E706C0802A
:10125000D380E580F68000850E94660718161CF092
:101260008EEC92E006C0F7011081111107C08DEEDF
:1012700092E00E94BE2B0E942E0F31C0153021F447
:101280008AE090E00E94B82BC70101969F938F934C
:10129000802F992787FD90959F930F931F921F93FF
:1012A0001F92CF928FE093E09F938F930E94A42B85
:1012B000FD82EC821150F7011083DB821E821F82B7
:1012C0008FEF9FEF9A8389830E942E0FCE010196A4
:1012D0000E9478060FB6F894DEBF0FBECDBF2796EA
:1012E0000FB6F894DEBF0FBECDBFDF91CF911F9137
:1012F0000F91FF90EF90DF90CF9008951F920F9283
:101300000FB60F9211240BB60F922F933F934F936A
:101310005F936F937F938F939F93AF93BF93EF935D
:10132000FF9380E090917B01891710F48F5FFACFD3
:1013300088E080934F018091460187FF05C080912E
:10134000E30681110E941109E091B403F091B50305
:10135000309709F00995FF91EF91BF91AF919F915F
:101360008F917F916F915F914F913F912F910F904E
:101370000BBE0F900FBE0F901F901895A7EFB6E011
:10138000FC01409620812D93219120933F01E81785
:10139000F907C1F780E110923E018150E1F780E842
:1013A00080933C0180913D0180FFFCCFE0E1F7E0BC
:1013B00080E18E0F90913F0191938E13FBCF0895A2
:1013C000CF93DF93DC01662309F445C0862F8F702D
:1013D00009F041C0E7EFF6E090E19E0F21912093E4
:1013E0003F019E13FBCF90E070E0E0E240E1949F6C
:1013F00090011124261737077CF5911103C0109234
:101400003C0102C0E0933C0140E050E02A0F3B1F4A
:10141000E901C40FD51FF881F0933E014F5F5F4F84
:1014200040315105A9F740913C01406840933C018F
:1014300040913D0140FFFCCF40E050E0F0913E0183
:10144000E901C40FD51FF8834F5F5F4F403151054D
:10145000A9F79F5FCBCF81E0DF91CF9108950F93E4
:101460001F93CF93DF93DC01613009F458C0862FBE
:101470008F7009F054C0E0E1F7E090E19E0F2191F8
:1014800020933F019E13FBCF62956F70615078E00F
:101490006F3F09F445C070933C01462F552747FD27
:1014A000509520E030E0ED0190E16902C00DD11DC2
:1014B0001124FE01E20FF31F908190933E012F5FF4
:1014C0003F4F20313105A9F790913C0190689093EE
:1014D0003C0190913D0190FFFCCF4150510994E0B7
:1014E000440F551F9A95E1F720E030E090913E01BE
:1014F0008E01020F131FF8019083662349F0F90152
:10150000E40FF51FEA0FFB1FE0819E27F80190838F
:101510002F5F3F4F2031310549F76150B9CF81E04E
:10152000DF91CF911F910F9108958091C00087FFA7
:10153000FCCF8091C0008F778093C0008091C6005F
:1015400008959091C00095FFFCCF9091C0009F7DC1
:101550009093C0008093C60008958FEF0895813066
:1015600019F48091C80004C0811106C08091C000A8
:10157000881F8827881F089580E00895CF93DF9300
:10158000FC012491EC012196222351F06091820804
:1015900070918308822F90E00E946C2BCE01F0CFD7
:1015A000DF91CF91089586E084B985B988EF8AB933
:1015B00080EF8BB982E08DB908950C94D30A8F3FE8
:1015C00009F46CC0E82FE7704E2F50E0473051050A
:1015D00008F064C0FA01E057FF4F8695869586951E
:1015E0000C94EA2A42B121E030E0B90102C0660F52
:1015F000771F8A95E2F7CB01842B82B94DC045B1A4
:1016000021E030E0B90102C0660F771F8A95E2F74A
:10161000CB01842B85B940C048B121E030E0B9014D
:1016200002C0660F771F8A95E2F7CB01842B88B939
:1016300033C04BB121E030E0B90102C0660F771F23
:101640008A95E2F7CB01842B8BB926C04EB121E0FD
:1016500030E0B90102C0660F771F8A95E2F7CB012F
:10166000842B8EB919C041B321E030E0B90102C02A
:10167000660F771F8A95E2F7CB01842B81BB0CC0E4
:1016800044B321E030E0B90102C0660F771F8A95AC
:10169000E2F7CB01842B84BB81E008958FEF08959E
:1016A0008F3F09F473C0E82FE7704E2F50E04730AA
:1016B000510508F06BC0FA01E956FF4F86958695F3
:1016C00086950C94EA2A42B121E030E0B90102C0CB
:1016D000660F771F8A95E2F7CB018095842382B944
:1016E00053C045B121E030E0B90102C0660F771F59
:1016F0008A95E2F7CB018095842385B945C048B12E
:1017000021E030E0B90102C0660F771F8A95E2F749
:10171000CB018095842388B937C04BB121E030E0FC
:10172000B90102C0660F771F8A95E2F7CB01809559
:1017300084238BB929C04EB121E030E0B90102C049
:10174000660F771F8A95E2F7CB01809584238EB9C7
:101750001BC041B321E030E0B90102C0660F771F22
:101760008A95E2F7CB018095842381BB0DC044B3F9
:1017700021E030E0B90102C0660F771F8A95E2F7D9
:10178000CB018095842384BB81E008958FEF089579
:101790008F3F31F1E82FE7704E2F50E04730510571
:1017A000F8F4FA01E256FF4F282F26952695269544
:1017B0000C94EA2A90B10BC093B109C096B107C04E
:1017C00099B105C09CB103C09FB101C092B3892FEC
:1017D00090E002C0959587952A95E2F7817008956B
:1017E0008FEF08958F3F09F406C1E82FE7704E2F61
:1017F00050E04730510508F0FEC0FA01EB55FF4FAD
:101800008695869586950C94EA2A20B130E0082EBC
:1018100002C0359527950A94E2F742B120FD0BC02E
:1018200021E030E0B90102C0660F771F8A95E2F728
:10183000CB01842B0BC021E030E0B90102C0660F60
:10184000771F8A95E2F7CB018095842382B916C071
:1018500023B130E0082E02C0359527950A94E2F7AF
:1018600045B120FD0DC021E030E0B90102C0660F96
:10187000771F8A95E2F7CB01842B85B981E0089523
:1018800021E030E0B90102C0660F771F8A95E2F7C8
:10189000CB0180958423F1CF26B130E0082E02C021
:1018A000359527950A94E2F748B120FD0BC021E059
:1018B00030E0B90102C0660F771F8A95E2F7CB01CD
:1018C000842B0BC021E030E0B90102C0660F771F06
:1018D0008A95E2F7CB018095842388B9CFCF29B1CF
:1018E00030E0082E02C0359527950A94E2F74BB1F7
:1018F00020FD0BC021E030E0B90102C0660F771F68
:101900008A95E2F7CB01842B0BC021E030E0B901CE
:1019100002C0660F771F8A95E2F7CB01809584237A
:101920008BB9ACCF2CB130E0082E02C0359527958D
:101930000A94E2F74EB120FD0BC021E030E0B9017E
:1019400002C0660F771F8A95E2F7CB01842B0BC08C
:1019500021E030E0B90102C0660F771F8A95E2F7F7
:10196000CB01809584238EB989CF2FB130E0082E2A
:1019700002C0359527950A94E2F741B320FD0BC0CC
:1019800021E030E0B90102C0660F771F8A95E2F7C7
:10199000CB01842B0BC021E030E0B90102C0660FFF
:1019A000771F8A95E2F7CB018095842381BB66CFB0
:1019B00022B330E0082E02C0359527950A94E2F74D
:1019C00044B320FD0BC021E030E0B90102C0660F36
:1019D000771F8A95E2F7CB01842B0BC021E030E022
:1019E000B90102C0660F771F8A95E2F7CB01809597
:1019F000842384BB43CF8FEF08958F3F09F4D5C074
:101A0000E82FE7704E2F50E0611167C04730510555
:101A100008F0CBC0FA01E455FF4F86958695869570
:101A20000C94EA2A41B121E030E0B90102C0660F0E
:101A3000771F8A95E2F7CB018095842365C044B176
:101A400021E030E0B90102C0660F771F8A95E2F706
:101A5000CB018095842365C047B121E030E0B90116
:101A600002C0660F771F8A95E2F7CB018095842329
:101A700065C04AB121E030E0B90102C0660F771FAE
:101A80008A95E2F7CB018095842365C04DB121E0B2
:101A900030E0B90102C0660F771F8A95E2F7CB01EB
:101AA0008095842365C040B321E030E0B90102C0D5
:101AB000660F771F8A95E2F7CB018095842365C076
:101AC00043B321E030E0B90102C0660F771F8A9569
:101AD000E2F7CB018095842365C04730510508F0BB
:101AE00064C0FA01ED54FF4F8695869586950C9457
:101AF000EA2A41B121E030E0B90102C0660F771F48
:101B00008A95E2F7CB01842B81B94DC044B121E025
:101B100030E0B90102C0660F771F8A95E2F7CB016A
:101B2000842B84B940C047B121E030E0B90102C044
:101B3000660F771F8A95E2F7CB01842B87B933C0F4
:101B40004AB121E030E0B90102C0660F771F8A95E3
:101B5000E2F7CB01842B8AB926C04DB121E030E0F9
:101B6000B90102C0660F771F8A95E2F7CB01842B7B
:101B70008DB919C040B321E030E0B90102C0660F51
:101B8000771F8A95E2F7CB01842B80BB0CC043B34F
:101B900021E030E0B90102C0660F771F8A95E2F7B5
:101BA000CB01842B83BB81E008958FEF08958111D1
:101BB00006C080B18695817091E0892708958FEFE6
:101BC0000895009711F483E20DC08130910511F45E
:101BD0008BE208C08230910511F483E303C00397C0
:101BE00029F48BE30E94F20B81E008958FEF0895B2
:101BF000009711F483E20DC08130910511F48BE25E
:101C000008C08230910511F483E303C0039729F4DF
:101C10008BE30E94DF0A81E008958FEF089500971B
:101C200011F483E20DC08130910511F48BE208C0FC
:101C30008230910511F483E303C0039729F48BE309
:101C40000E94500B81E008958FEF0895882319F0CA
:101C500085B78F7E02C085B7806185BF81E008951A
:101C60009091C80095FFFCCF8093CE00089590938B
:101C7000C5008093C40086E08093C200E1ECF0E0F0
:101C800080818B7F8083A0ECB0E08C9182608C930C
:101C900080818861808308959093CD008093CC00EB
:101CA00086E08093CA00E9ECF0E080818B7F80833E
:101CB000A8ECB0E08C9182608C93808188618083F5
:101CC0000895CF93DF930E94370E65E97AE081EAA9
:101CD0009AE00E94212BC0E8D8E09B838A8365E9C3
:101CE0007AE081EA9AE00E94212B99838883DF9130
:101CF000CF9108958091C80087FFFCCF8091C800E4
:101D00008F778093C8008091CE0008950000000076
:101D1000000000000197D1F708950C947C2C0E94DC
:101D2000842C0895EF92FF920F931F93CF93DF932C
:101D30007C0180E090E00E947C2C182FF7018383C7
:101D400081E090E00E947C2C082FF701828382E0E2
:101D500090E00E947C2CD82FF701818383E090E0F3
:101D60000E947C2CC82FF701808384E090E00E94C1
:101D70007C2C100FD10FCD0F8C1711F08FEF01C0FD
:101D800081E0DF91CF911F910F91FF90EF90089527
:101D9000CF93DF93EC0185E090E00E947C2C888358
:101DA00081E0DF91CF910895FC01608186E090E0B1
:101DB0000E94842C81E00895CF93DF93EC0186E0AC
:101DC00090E00E947C2C888381E0DF91CF91089580
:101DD0000F931F93CF93DF938C01C0E0D0E0CE012F
:101DE00008960E947C2CF80181938F012196C031C6
:101DF000D105A9F781E0DF91CF911F910F9108954F
:101E00000F931F93CF93DF938C01C0E0D0E0F801D4
:101E100061918F01CE0108960E94842C2196C031D9
:101E2000D105A9F781E0DF91CF911F910F9108951E
:101E3000CF93DF93EC0187E090E00E947C2C8883B5
:101E400081E0DF91CF910895FC01608187E090E00F
:101E50000E94842C81E00895F89408957894089560
:101E60000E942C0FFFCFCF93DF93CDB7DEB7A397A0
:101E70000FB6F894DEBF0FBECDBF0E944917809306
:101E80000D088F3F21F460E08EE00E9491150E94C2
:101E9000FA2580FF04C060E086E00E9491150E9450
:101EA00011288F3F31F40E94F42760E080E10E9406
:101EB00091150E9402281092100810921E0810928C
:101EC0001D0810920F0810920E0810921F080E9411
:101ED000D61010921C088FEF8093090880930B088E
:101EE00080930A0880E090E033E62FEFFC01E05D8C
:101EF000F84F328720878B96873D9105B9F7E9E542
:101F0000F8E0CF01059694838383F783E683FC0191
:101F100088E0E237F807A9F710925B0810925A0898
:101F200010927608109275081092130810921208F9
:101F300089E598E090932F0780932E0767E170E280
:101F4000CE0101960E94322840E850E06AE276E035
:101F5000CE0101960E94362885E580932A061986CF
:101F60001C861D861E861F86188A198A1A8A1B8A55
:101F70001C8A1D8A1E8A1F8A188E198E1A8E1B8E25
:101F80001C8E1D8E1E8E1F8E18A219A21AA21BA2B5
:101F900081E0888792E09A878B87CE0101960E9424
:101FA0004C1BA3960FB6F894DEBF0FBECDBFDF91DA
:101FB000CF91089508E317E0C0E0F801D080FFEF6B
:101FC000DF1222C0CF5F055D1F4FC530B1F70E9401
:101FD0003B1A2BE28202C0011124FC01E05DF84FA4
:101FE000828580931F08F0931E08E0931D08F093EC
:101FF0000F08E0930E08809310080E94A8280E9402
:1020000092280E94AC2816C088E3E82E87E0F82EBC
:10201000D0E0CD1741F0F7018081D81204C06D2DBA
:1020200085E00E949115DF5FFBE2EF0EF11CD530D9
:1020300081F7C8CFFFCFCF92DF92EF92FF920F933D
:102040001F93CF93DF93EC018B017A018985823056
:1020500021F080910C08888301C0188280910C08BF
:10206000853020F060E087E00E94911589858230FC
:1020700029F080910C088F5F80930C0880910C08E8
:10208000811103C081E080930C0838812BE2320378
:10209000F0011124E05DF84F118300838885828769
:1020A00038813203F0011124E05DF84F83E081872D
:1020B00038813203F0011124E05DF84F3087088148
:1020C000020380011124005D184FF8011582CE0132
:1020D0000B960E94A91FF80161A372A383A394A386
:1020E0008B859C85AD85BE8588339948A144B10513
:1020F00020F0688186E10E949115C880DD24C7FC2C
:10210000D094CE014B960E94A91F1BE21C9DF001AA
:102110001D9DF00D1124E05DF84F658B768B878B4C
:10212000908F28812103C00111249C01205D384F2C
:102130006901F901458956896789708D81A192A14C
:10214000A3A1B4A1840F951FA61FB71F818F928FE3
:10215000A38FB48FCE0143960E94A91FF60165A3F9
:1021600076A387A390A728812103F0011124E05DC5
:10217000F84F85A196A1A7A1B0A5858F968FA78FAF
:10218000B0A381E090E092A781A7F382E2828487E6
:10219000DF91CF911F910F91FF90EF90DF90CF9043
:1021A00008950C94312085E690E008951092600423
:1021B00010926104109262041092630410926404FD
:1021C000109265041092660410926704E3E9F5E04A
:1021D00080E090E0108211821282138210861186B4
:1021E000128613861482158216821782148615862B
:1021F00016861786108A118A128A138A108E118EFB
:10220000128E138EDC01AD56BA4F5C961C925C9711
:102210005D961C927E964E9686399105D9F6089564
:102220000F931F93E0E6F4E0A82FB0E023EB36EE27
:102230004EE050E00E944E2A0481158126813781AC
:10224000DC01CB01800F911FA21FB31F84839583F4
:10225000A683B783CF011F910F910C94761EE0E601
:10226000F4E04081518162817381DC014D935D9383
:102270006D937C9313974481558166817781FC012E
:10228000448355836683778308952EE1829FC0013E
:102290001124FC01ED56FA4F858D813039F0848D83
:1022A0008F5F848F8F3F11F481E0858F08952EE139
:1022B000829FC0011124FC01ED56FA4F858D8130BB
:1022C000B1F0148A158A168A178A80899189A289A1
:1022D000B3890196A11DB11D808B918BA28BB38B0D
:1022E0008E3F9F4FAF4FBF4F11F481E0858F089510
:1022F0000F931F932EE1829FC0011124FC01ED5624
:10230000FA4F858D813071F1808D918DA28DB38DC5
:102310000196A11DB11D808F918FA28FB38F462F83
:1023200050E060E070E00489158926893789040F40
:10233000151F261F371F048B158B268B378B0081AB
:10234000118122813381400F511F621F731F40830F
:102350005183628373838E3F9F4FAF4FBF4F11F402
:1023600081E0858F1F910F910895CF92DF92EF92B8
:10237000FF92282F30E09EE1899FF0011124ED5655
:10238000FA4F858D813009F44BC0462F50E060E054
:1023900070E084899589A689B789840F951FA61F47
:1023A000B71F84879587A687B787C080D180E280D2
:1023B000F3804C0D5D1D6E1D7F1D40835183628334
:1023C000738344815581668177814115510561058B
:1023D000710529F084179507A607B70760F44EE149
:1023E000429FF001439FF00D1124ED56FA4F848374
:1023F0009583A683B7834EE1429FF001439FF00D82
:102400001124ED56FA4F4085518562857385481732
:1024100059076A077B0720F480879187A287B387D3
:10242000FF90EF90DF90CF9008958F929F92AF92A0
:10243000BF92CF92DF92EF92FF920F931F93CF93B1
:10244000DF93CDB7DEB728970FB6F894DEBF0FBE87
:10245000CDBF182F85E992E00E94BE0AA12EB12CB3
:102460001F921F9388E393E09F938F930E94A42B66
:102470000F900F900F900F90111152C08AE792E0C9
:102480000E94BE0ACE0101960E948D1D6D817E8143
:102490008F819885E0E4CE2EE2E4DE2EEFE0EE2E92
:1024A000F12CA70196010E94692A5F934F933F93F5
:1024B0002F938C818F938B818F938A818F938981C6
:1024C0008F930BE313E01F930F930E94A42B89E5D6
:1024D00092E00E94BE0A609164047091650480914C
:1024E000660490916704A70196010E94692A5F9390
:1024F0004F933F932F93809163048F938091620455
:102500008F93809161048F93809160048F931F93C8
:102510000F930E94A42B0FB6F894DEBF0FBECDBF61
:1025200088E492E00E94BE0A8EE18A9D80018B9D24
:10253000100D11240D561A4FF801608171818281AE
:1025400093810E94721F29833A834B835C836D833E
:102550007E838F8398876D817E818F81988520E42B
:10256000822E22E4922E2FE0A22EB12CA5019401FE
:102570000E94692A5F934F933F932F938C818F938F
:102580008B818F938A818F9389818F933BE3E32E95
:1025900033E0F32EFF92EF920E94A42B8DE292E0A3
:1025A0000E94BE0AF80164817581868197810E942C
:1025B000721F29833A834B835C836D837E838F8371
:1025C00098876D817E818F819885A50194010E94F5
:1025D000692A5F934F933F932F938C818F938B81C5
:1025E0008F938A818F9389818F934BE4C42E43E02C
:1025F000D42EDF92CF920E94A42BF80164857585BA
:10260000868597850E94721F29833A834B835C835A
:102610006D837E838F8398876D817E818F8198857E
:10262000A50194010E94692A5F934F933F932F93D2
:102630008C818F938B818F938A818F9389818F93E4
:10264000DF92CF920E94A42BF8016085718582856C
:1026500093850E94721F29833A834B835C836D8329
:102660007E838F8398876D817E818F819885A50178
:1026700094010E94692A5F934F933F932F938C811B
:102680008F938B818F938A818F9389818F93FF9210
:10269000EF920E94A42B0FB6F894DEBF0FBECDBF01
:1026A0008DE192E00E94BE0AF801709683818F93BB
:1026B00082818F9381818F93F80180898F935DE56B
:1026C000E52E53E0F52EFF92EF920E94A42B8AE0B4
:1026D00092E00E94BE0AF801789683818F938281EE
:1026E0008F9381818F93F801808D8F93FF92EF926A
:1026F0000E94A42B81EF91E00E94BE0AF801848D14
:102700001F928F9361E6E62E63E0F62EFF92EF9222
:102710000E94A42B84ED91E00E94BE0AF801858DF1
:102720001F928F93FF92EF920E94A42B81ED91E074
:102730000E94BE0A0FB6F894DEBF0FBECDBF28962A
:102740000FB6F894DEBF0FBECDBFDF91CF911F91C2
:102750000F91FF90EF90DF90CF90BF90AF909F9040
:102760008F900895CF9384EB91E00E94BE0AC0E061
:102770008C2F0E941512CF5FC530D1F7CF910895ED
:10278000DB01853008F054C09EE1899FF0011124DF
:10279000ED56FA4F40815181628173814D935D9373
:1027A0006D937C931397448155816681778114964C
:1027B0004D935D936D937C9317974085518562850A
:1027C000738518964D935D936D937C931B97448509
:1027D0005585668577851C964D935D936D937C93A7
:1027E0001F97408951896289738950964D935D93F3
:1027F0006D937C935397448955896689778954965C
:102800004D935D936D937C935797408D518D628D61
:10281000738D58964D935D936D937C935B97848DE8
:102820005C968C935C97858D5D968C9381E0089582
:102830008FEF0895E0911D08F0911E088487089598
:10284000E0911D08F0911E0884850895CF93DF93D1
:10285000D82FC62F80E092E00E948D0E8F5F8F3FB1
:1028600019F08093B80302C01092B8032091B80306
:1028700036E0239FC00111246D2F8F5F9D4F0E9472
:102880008F0E8091B80346E0849FC00111246C2F05
:102890008E5F9D4F0E948F0E2091B80340911408C7
:1028A000509115086091160870911708672F7727C7
:1028B0008827992746E0249F90011124C9018D5F44
:1028C0009D4F0E948F0E2091B803409114085091A3
:1028D000150860911608709117088827992746E017
:1028E000249F90011124C9018C5F9D4F0E948F0E7F
:1028F0002091B80340911408509115086091160872
:10290000709117089927872F762F652F46E0249F0F
:1029100090011124C9018B5F9D4F0E948F0E809101
:10292000B80326E0829FC0011124609114088A5FD9
:102930009D4F0E948F0E6091B80380E092E0DF917E
:10294000CF910C948F0EFC0180912906882331F0E1
:10295000DB018C9380913B04808381E0089580911A
:102960002906882309F483C08CEC94E00E94BE0AF7
:1029700080913B041F928F9388E393E09F938F9302
:102980000E94A42B88EC94E00E94BE0A0F900F9046
:102990000F900F9080912906883110F0109229062F
:1029A000E09129068E2F90E0FC013197E631F10588
:1029B00008F046C0E654FF4F0C94EA2A8CE894E0F5
:1029C00041C085E694E03EC081E594E03BC08BE3E6
:1029D00094E038C080E294E035C08AE094E032C0F0
:1029E00082EF93E02FC08FED93E02CC08CEC93E04E
:1029F00029C08EEA93E026C089E893E023C08DE7E2
:102A000093E020C082E693E01DC083E593E01AC006
:102A10008FE393E017C08EE293E014C08AE193E065
:102A200011C08AEF92E00EC082EE92E00BC087ECFC
:102A300092E008C086EB92E005C087EA92E002C00F
:102A400080EA92E00E94BE0A609182087091830839
:102A50008DE090E00E946C2B609182087091830859
:102A60008AE090E00E946C2B80912906089580E016
:102A7000089513BC1092B60018BC17BC16BC15BC48
:102A800014BC1DBA1CBA1BBA10929B0010929A007B
:102A90001092990010929800109295001092940054
:102AA000109291001092900018BA1092710010923A
:102AB000B4001092B3001092B2001092B100E0EB9B
:102AC000F0E01082108217BA109270008FEF84BF6E
:102AD00008950E942C0F0E94F427809129068031CE
:102AE00071F08351823058F00E94391588ED94E0DE
:102AF0000E94BE0A0E9402280E942C0FFFCF109253
:102B00002906089580932906E0911D08F0911E087A
:102B1000608560933B040E9426140E94AF140C94BD
:102B200069158093290660933B040E9426140E9435
:102B3000AF140C946915CF93DF931F92CDB7DEB716
:102B400019828981843640F480ED97E00E94302418
:102B500089818F5F8983F5CF0F90DF91CF910895A1
:102B600081E090E00E940F0E0E949B150E949B1531
:102B70000E949B1581E090E00E94F80D0C949B153B
:102B800081E090E00E940F0E0E949B1581E090E092
:102B90000E94F80D0C949B15FF920F931F93CF93F7
:102BA000DF9300D01F92CDB7DEB71F928F9388E3DB
:102BB00093E09F938F938E010F5F1F4F1F930F938F
:102BC0000E94EE2B0F900F900F900F900F900F9090
:102BD000F12CF80101900020E9F73197E01BF10B8F
:102BE0008F2D90E08E179F0708F05DC0F801E80F69
:102BF000F91FE0818E2F90E0FC01F097EA30F1059B
:102C000008F049C0E053FF4F0C94EA2A0E94B01527
:102C100002C00E94C0150E94B0150E94B0150E940B
:102C2000B0150E94B01537C00E94C0150E94C01593
:102C3000F4CF0E94C0150E94C0150E94C015EFCFAE
:102C40000E94C0150E94C0150E94C0150E94C015A8
:102C5000E8CF0E94C01502C00E94B0150E94C015A6
:102C600004C00E94B0150E94B0150E94C01506C095
:102C70000E94B0150E94B0150E94B0150E94C015A8
:102C800008C00E94B0150E94B0150E94B0150E94A5
:102C9000B0150E94C0150E949B150E949B150E94B2
:102CA0009B15F39496CF0F900F900F90DF91CF91DB
:102CB0001F910F91FF9008956F927F928F929F9234
:102CC000AF92BF92CF92DF92EF92FF920F931F933A
:102CD000CF93DF9388EE94E00E94BE0AE0911D0836
:102CE000F0911E088085282F332727FD30953F93CC
:102CF0008F9384E693E09F938F930E94A42BE0919F
:102D00001D08F0911E08C281D381DF93CF9388E91B
:102D100093E09F938F930E94A42B88811F928F939F
:102D20008DE693E09F938F930E94A42BE0911D0862
:102D3000F0911E0881818F9380818F938AE793E0C1
:102D40009F938F930E94A42B80911E088F93809154
:102D50001D088F9384E893E09F938F930E94A42B88
:102D6000C0E3D7E0EDB7FEB774960FB6F894FEBF98
:102D70000FBEEDBF00E010E084E9682E83E0782EFE
:102D80009DE6892E93E0992E2AE7A22E23E0B22E0B
:102D900034E8C32E33E0D32EEA80FB80FF92EF921B
:102DA0001F930F937F926F920E94A42BF701808153
:102DB0001F928F939F928F920E94A42B89818F9351
:102DC00088818F93BF92AF920E94A42BDF93CF9301
:102DD000DF92CF920E94A42B0F5F1F4FAB96EDB7EF
:102DE000FEB772960FB6F894FEBF0FBEEDBF05306A
:102DF000110591F6DF91CF911F910F91FF90EF9008
:102E0000DF90CF90BF90AF909F908F907F906F900A
:102E10000895CF93DF93E0911D08F0911E08C281C1
:102E2000D3818881853539F00E945C1681E00E944B
:102E3000821585E58883E0911D08F0911E08808148
:102E400091818115924438F00E945C1682E1DF91F5
:102E5000CF910C948215DF91CF9108952BE28202DD
:102E6000C0011124FC01E05DF84FA281B3818C9177
:102E7000853519F085E58C9308C080819181811595
:102E8000924428F082E10E9482158FEF089581E03C
:102E900008950F931F934091E8045091E9046091C5
:102EA000EA047091EB0480E090E08A019B01082E17
:102EB00004C036952795179507950A94D2F700FD1B
:102EC00019C001E010E020E030E0082E04C0000F3F
:102ED000111F221F331F0A94D2F7402B512B622B54
:102EE000732B4093E8045093E9046093EA047093D1
:102EF000EB0405C0019680329105B9F68FEF1F9162
:102F00000F910895E0911D08F0911E086585768562
:102F1000878590890895CF92DF92EF92FF920F9369
:102F20001F93CF93DF93C12CD12C7601C394082E2D
:102F300004C0CC0CDD1CEE1CFF1C0A94D2F740919F
:102F4000E8045091E9046091EA047091EB044C218B
:102F50005D216E217F21452B462B472B09F460C054
:102F6000082F0E942C0FE9E3F7E0B701A601409576
:102F700050956095709513E0DF0111978C918F3F0C
:102F800039F184819581A681B7818C159D05AE05A7
:102F9000BF0551F410861186128613869F012250B8
:102FA0003109E9011882108384239523A623B723CE
:102FB00084839583A683B78380859185A285B38515
:102FC00084239523A623B72380879187A287B3877D
:102FD000BB96D8E0E031FD0779F68EEF9FEFAFEFBB
:102FE000BFEF04C0880F991FAA1FBB1F0A95D2F715
:102FF0004091E8045091E9046091EA047091EB0477
:1030000084239523A623B7238093E8049093E904AF
:10301000A093EA04B093EB040E942E0F81E001C05C
:103020008FEFDF91CF911F910F91FF90EF90DF9085
:10303000CF9008950F931F9341E050E060E070E05F
:103040008A019B0104C0000F111F221F331F8A95A4
:10305000D2F7D901C801E0911D08F0911E084585FD
:103060005685678570890423152326233723012B72
:10307000022B032BD1F080959095A095B095482315
:1030800059236A237B23458756876787708B41893D
:1030900052896389748984239523A623B723818B5E
:1030A000928BA38BB48B81E001C08FEF1F910F91A6
:1030B0000895282F4091E8045091E9046091EA04B2
:1030C0007091EB04082E04C0769567955795479547
:1030D0000A94D2F740FF1DC0E0911D08F0911E0830
:1030E00081E090E0A0E0B0E004C0880F991FAA1F23
:1030F000BB1F2A95D2F74585568567857089842B35
:10310000952BA62BB72B85879687A787B08B81E059
:1031100008958FEF0895CF92DF92EF92FF92CF93B1
:10312000C12CD12C7601C39404C0CC0CDD1CEE1C48
:10313000FF1C8A95D2F78091E8049091E904A09150
:10314000EA04B091EB048C219D21AE21BF21892B93
:103150008A2B8B2B11F481E044C00E942C0FE7E3F3
:10316000F7E0A9E3B7E0C0E083E090819130B9F4E3
:1031700042855385648575854C215D216E217F21B3
:10318000452B462B472B59F08C9316861786108AB1
:10319000118A1082C286D386E486F586C1E09081CA
:1031A0009230A1F442855385648575854C155D0583
:1031B0006E057F0559F48C9316861786108A118A3E
:1031C00010821286138614861586C1E0BB969B96E4
:1031D00098E0EE30F90749F60E942E0FC11105C0A4
:1031E00082E00E941A148FEF01C081E0CF91FF901E
:1031F000EF90DF90CF9008950F931F93E0911D08FB
:10320000F0911E080585168527853089062317232A
:1032100028233923011511052105310511F1DC01A0
:10322000CB01818B928BA38BB48B21E02783009001
:103230000D0804C0B695A795979587950A94D2F77F
:1032400080FF03C00E94B41C04C080E090E00E9494
:10325000851CE0911D08F0911E08018912892389BF
:103260003489C901B8011F910F91089580E090E061
:10327000089521E08950984009F420E0822F81953B
:1032800008950E9439198F3F11F481E003C0813005
:1032900029F482E00E941A148FEF0895992787FD80
:1032A0009095FC01EE0FFF1F8E0F9F1FFC01E75F43
:1032B000F74F82810895EF92FF920F931F93CF9360
:1032C000DF931F92CDB7DEB70E9439198F3F11F4FB
:1032D00081E003C0813029F482E00E941A148FEF4C
:1032E00041C089830E942C0F8981E82EFF24E7FCCE
:1032F000F0948701000F111FF801EE0DFF1DE75F2D
:10330000F74F9281911116C0E0911D08F0911E08AF
:10331000978192609783992787FD9095A92FB92F60
:10332000818B928BA38BB48B0E942E0F80E090E058
:103330000E94851C0E0D1F1DD801A75FB74F129666
:103340008C911297815012968C931297E0911D08E0
:10335000F0911E0811968C91838781E084830E94EE
:103360002E0F81E00F90DF91CF911F910F91FF9071
:10337000EF9008950F931F93CF93DF931F92CDB7D4
:10338000DEB70E9439198F3F11F481E003C081300C
:1033900029F482E00E941A148FEF44C0482F552769
:1033A00047FD50959A01220F331F240F351F8901C5
:1033B000075F174FF80122819081291794F58983BF
:1033C0000E942C0FF80192819F5F9283E0911D086B
:1033D000F0911E081482E7E3F7E08981992787FDC1
:1033E0009095A92FB92F23E03081323099F442858E
:1033F000538564857585481759076A077B0751F41B
:10340000228316861786108A118A108212861386E6
:1034100014861586BB9638E0EE30F30729F70E9434
:103420002E0F81E00F90DF91CF911F910F910895A2
:103430000E9439198F3F11F481E003C0813029F4D3
:1034400082E00E941A148FEF0895992787FD9095C6
:10345000FC01EE0FFF1F8E0F9F1FFC01E75FF74F70
:103460008FEF80838283818380911C0881508093B9
:103470001C0881E00895E0911208F0911308808102
:103480000895E0911208F0911308309721F003801D
:10349000F481E02DFACF0895AF92BF92CF92DF92E0
:1034A000EF92FF920F931F93CF93DF93E0912E073C
:1034B000F0912F07309709F494C0009112081091F1
:1034C00013080115110509F44CC0D8014BE2582F1F
:1034D000540390011124205D384F79019AE0E90EE0
:1034E000F11C6901C4E0CC0ED11C5901DBE0AD0E2A
:1034F000B11C2C9130E0429FB001439F700D11240C
:10350000605D784FEB019C81992329F05B85E70191
:103510009881591740F1E6019881992369F0429FFB
:10352000B001439F700D1124605D784FEB015A8507
:10353000E50198815917B8F0429FB001439F700D83
:1035400011249B01205D384FE9012A85E70198810C
:10355000291748F013960D90BC91A02D109749F6AD
:1035600002C0A0E0B0E08083C381D481D0932F0754
:10357000C0932E07A017B107B1F4109749F0B48398
:10358000A383128211821296FC93EE93119706C0C8
:103590001482138212821182FA83E983F093130852
:1035A000E09312081EC0AC17BD0779F011968D91FB
:1035B0009C91129792838183B483A3831196CD91BA
:1035C000DC911297FC83EB8308C01482138211965E
:1035D0008D919C911297928381831296FC93EE9326
:1035E0001197DF91CF911F910F91FF90EF90DF9096
:1035F000CF90BF90AF900895CF93DF93E0911208E2
:10360000F0911308309709F444C0992787FD9095ED
:10361000208130E02817390781F4A381B481B09369
:103620001308A093120812961C921E92119718C0AC
:103630000380F481E02D309761F1208130E028177C
:103640003907B1F7C181D281838194819C838B83B7
:10365000A381B481109721F01296DC93CE93119739
:10366000A0912E07B0912F07109739F4F0932F07F0
:10367000E0932E07148213820AC0B483A3831296A8
:10368000FC93EE931197F0932F07E0932E0712828D
:103690001182DF91CF910895EF92FF920F931F93C4
:1036A000CF93DF93EC014B815C8169817A818D81BD
:1036B0009E810E9454282F81222371F04B815C81CE
:1036C000E12CF12C00E010E020E030E0BC01CE0164
:1036D0000E941B101F820CC0E8812BE2E202F00165
:1036E0001124E05DF84F21852330B9F49183808364
:1036F000E8818BE2E802F0011124E05DF84F858952
:103700009689A789B08D892B8A2B8B2B41F482E077
:10371000818788810E944C1A02C08FEF01C081E02E
:10372000DF91CF911F910F91FF90EF9008951F931C
:10373000CF93DF93CDB7DEB728970FB6F894DEBFEF
:103740000FBECDBF29833A834B835C836D837E8319
:103750008F8398870E942C0F0E947E25182FCE0100
:1037600001960E94A91F6330710598F0E0911D0831
:10377000F0911E08212F30E0620F731FCB01A0E0F3
:10378000B0E0858B968BA78BB08F0E942E0F81E0C7
:1037900001C08FEF28960FB6F894DEBF0FBECDBFE5
:1037A000DF91CF911F9108950E942728E0911D0875
:1037B000F0911E0885818111F7CF0895CF930E9463
:1037C00009170E942C0FE0911D08F0911E0881E05E
:1037D00090E092A781A785830E947E25C82F883F0D
:1037E00080F40E9418252C2F30E02F5F3F4F90E08F
:1037F0002817390734F482E08C0F809392050E94D9
:103800001C250E942E0F0E94D41B81E0CF910895A9
:10381000E0911D08F0911E0880850E94FC1AE0913D
:103820001D08F0911E0884E081870E94DE1B81E064
:103830000895CF93DF93EC010E940917209711F4AC
:10384000C1E0D0E00E942C0FE0911D08F0911E080D
:1038500081E08583D2A7C1A70E947E25C82F883F1B
:1038600080F40E9418252C2F30E02F5F3F4F90E00E
:103870002817390734F482E08C0F809392050E9458
:103880001C250E942E0F0E94D41B81E0DF91CF9156
:103890000895EF92FF920F931F93CF938C010E9494
:1038A0002C0FE0911D08F0911E0881E085830E9495
:1038B0007E25C82FE0911D08F0911E08E82EF12CFE
:1038C000C701800F911FA0E0B0E0858B968BA78B7E
:1038D000B08FC83F78F40E9418259FEFE91AF90AC3
:1038E00090E0E816F90634F482E08C0F809392059C
:1038F0000E941C250E942E0F0E94D41B81E0CF91B4
:103900001F910F91FF90EF900895CF93DF93EC01FB
:103910000E942C0FE0911D08F0911E0821E02583E4
:10392000CE01A0E0B0E0858B968BA78BB08F0E9474
:103930007E25C82F883F80F40E9418252C2F30E068
:103940002F5F3F4F90E02817390734F482E08C0F47
:10395000809392050E941C250E942E0F0E94D41B6A
:1039600081E0DF91CF910895CF930E942C0FE091D9
:103970001D08F0911E0881E0858386830E947E25C4
:10398000C82F883F80F40E9418252C2F30E02F5F2D
:103990003F4F90E02817390734F482E08C0F809372
:1039A00092050E941C250E942E0F0E94D41B81E0CC
:1039B000CF9108951F93CF93DF93CDB7DEB72897AC
:1039C0000FB6F894DEBF0FBECDBF29833A834B8379
:1039D0005C836D837E838F8398870E9409170E9482
:1039E0002C0FE0911D08F0911E0881E0858381E095
:1039F00090E092A781A70E947E25182FCE01019604
:103A00000E94A91FE0911D08F0911E08DC01CB0166
:103A1000810F911DA11DB11D858B968BA78BB08F3A
:103A2000183F80F40E941825212F30E02F5F3F4F70
:103A300090E02817390734F482E0810F80939205D3
:103A40000E941C250E942E0F0E94D41B81E0289604
:103A50000FB6F894DEBF0FBECDBFDF91CF911F919F
:103A600008958F929F92AF92BF92CF92DF92EF9282
:103A7000FF920F931F93CF93DF93CDB7DEB760977D
:103A80000FB6F894DEBF0FBECDBF29873A874B87AC
:103A90005C876D877E878F87988BCE0101960E9409
:103AA0008D1D89809A80AB80BC80CD80DE80EF80C8
:103AB000F88409851A852B853C854D855E856F8543
:103AC0007889CE0109960E94EA1D8F3F61F0298511
:103AD0003A854B855C856D857E858F8598890E94AA
:103AE000DA1C81E001C08FEF60960FB6F894DEBF5C
:103AF0000FBECDBFDF91CF911F910F91FF90EF903F
:103B0000DF90CF90BF90AF909F908F900895E091FD
:103B10001D08F0911E08808508950F931F93CF9381
:103B2000DF93EC011C821D821E821F82809114088B
:103B300090911508A0911608B09117088883998371
:103B4000AA83BB838091180890911908A0911A0844
:103B5000B0911B088C839D83AE83BF830E947E251A
:103B6000A82FB0E023EB36EE4EE050E00E944E2A44
:103B70000C811D812E813F81DC01CB01800F911FC3
:103B8000A21FB31F8C839D83AE83BF838C819D81D5
:103B9000AE81BF8181152AEC92072AE9A2072BE3A7
:103BA000B20798F09A5CAA49BB438C839D83AE838D
:103BB000BF8388819981AA81BB810196A11DB11D16
:103BC00088839983AA83BB83E1CFDF91CF911F9133
:103BD0000F9108958F929F92AF92BF92CF92DF92F2
:103BE000EF92FF920F931F93CF93DF93CDB7DEB782
:103BF00060970FB6F894DEBF0FBECDBFFC010983FE
:103C00001A832B833C834D835E836F8378878986F9
:103C10009A86AB86BC86CD86DE86EF86F88A0981D9
:103C20001A812B813C814D815E816F817885C984A9
:103C3000DA84EB84FC848D859E85AF85B8890C156C
:103C40001D052E053F05F0F1C016D106E206F3066C
:103C500091F4481759076A077B07A0F1481B590BD5
:103C60006A0B7B0B448355836683778310821182B2
:103C70001282138225C0481759076A077B0780F410
:103C800001501109210931090C191D092E093F099B
:103C9000008311832283338356536546744C08C0D6
:103CA0000C191D092E093F090083118322833383D8
:103CB000481B590B6A0B7B0B4483558366837783C0
:103CC00081E001C08FEF60960FB6F894DEBF0FBEA3
:103CD000CDBFDF91CF911F910F91FF90EF90DF90BB
:103CE000CF90BF90AF909F908F900895FC0144813A
:103CF00055816681778141158AEC58078AE9680702
:103D00008BE3780798F05A5C6A497B434483558378
:103D10006683778380819181A281B3810196A11D01
:103D2000B11D80839183A283B383E1CF08958F92E5
:103D30009F92AF92BF92CF92DF92EF92FF920F933A
:103D40001F93CF93DF93CDB7DEB760970FB6F8948C
:103D5000DEBF0FBECDBF09831A832B833C834D8307
:103D60005E836F83788789869A86AB86BC86CD868C
:103D7000DE86EF86F88A09851A852B853C85498180
:103D80005A816B817C81400F511F621F731FFC01A0
:103D900040835183628373830D851E852F85388907
:103DA0004D815E816F817885400F511F621F731FA7
:103DB00044835583668377830E94761E81E06096F4
:103DC0000FB6F894DEBF0FBECDBFDF91CF911F912C
:103DD0000F91FF90EF90DF90CF90BF90AF909F90AA
:103DE0008F900895E4E1F8E0608371838283938388
:103DF000248335834683578308952F923F924F92B1
:103E00005F926F927F928F929F92AF92BF92CF926A
:103E1000DF92EF92FF920F931F93FC01C080D1803D
:103E2000E280F380C114D104E104F104E1F1848162
:103E30009581A681B78122E4C216D104E104F10480
:103E4000F0F51C012D01612C712C4301E0E08E2F57
:103E500090E0A0E0B0E08C159D05AE05BF0588F4AC
:103E60009101A201B301C40136534546544C6F4F32
:103E70007F4F8F4F9F4F19012A013B014C01EF5F8C
:103E8000E6CF83EBA82E96EEB92E2EE0C22ED12CD3
:103E9000E12CF12C00E010E09101A201B301C4017A
:103EA0000E948D2A0AC0648175818681978123EBE7
:103EB00036EE4EE050E00E94692AC90102C080E05F
:103EC00090E01F910F91FF90EF90DF90CF90BF9007
:103ED000AF909F908F907F906F905F904F903F90AA
:103EE0002F900895CF92DF92EF92FF92CF93DF93BE
:103EF000CDB7DEB728970FB6F894DEBF0FBECDBFA3
:103F00006B017C012AE0F694E794D794C7942A9534
:103F1000D1F7C982DA82EB82FC829B01AC0133705B
:103F20004427552763EB76EE8EE090E00E94592AF5
:103F30002C2D3A814B815C8128960FB6F894DEBF18
:103F40000FBECDBFDF91CF91FF90EF90DF90CF906C
:103F500008952F923F924F925F926F927F928F922D
:103F60009F92AF92BF92CF92DF92EF92FF920F9308
:103F70001F93FC01C080D180E280F380C114D10482
:103F8000E104F104B9F184819581A681B7811C0116
:103F90002D01612C712C4301E0E08E2F90E0A0E018
:103FA000B0E08C159D05AE05BF0588F49101A20116
:103FB000B301C40136534546544C6F4F7F4F8F4F6A
:103FC0009F4F19012A013B014C01EF5FE6CF83EBC4
:103FD000A82E96EEB92E2EE0C22ED12CE12CF12C7B
:103FE00000E010E09101A201B301C4010E948D2AFA
:103FF000CA010BC0648175818681978123EB36EEFF
:104000004EE050E00E94692ACA01B9011F910F9148
:10401000FF90EF90DF90CF90BF90AF909F908F90E8
:104020007F906F905F904F903F902F900895C1E0E8
:104030000E9409170E941825843010F4C0931108BB
:104040000E94272880912A06853519F088E00E9471
:10405000821580917E41853559F388E00E94821552
:10406000E7CF2F923F924F925F926F927F928F9203
:104070009F92AF92BF92CF92DF92EF92FF920F93F7
:104080001F93CF93DF930E942E0F8AEF0E941C256F
:104090000E9418280E94E622C0919205AC2FB0E041
:1040A00023EB36EE4EE050E00E944E2A00911808B5
:1040B0001091190820911A0830911B086B017C019E
:1040C000C00ED11EE21EF31EC701B60123EB36EE71
:1040D0004EE050E00E94692AC61AD70AE80AF90A97
:1040E000C0921808D0921908E0921A08F0921B08A2
:1040F000E0911D08F0911E088085811130C08091EB
:104100001108823019F48C2F0E941011E0911D08C3
:10411000F0911E086091920580850E947811E091CF
:104120001D08F0911E0860E080850E94B511809105
:10413000180890911908A0911A08B0911B080091D5
:10414000140810911508209116083091170853EBA8
:10415000452E56EE552E5EE0652E712C07C09581DA
:104160006C2F9111E2CF0E947811E1CF48015901E3
:104170004FEF841A940AA40AB40A81155AEC9507E1
:104180005AE9A5075BE3B507C8F06C017D012AEC8D
:10419000D21A2AE9E20A2BE3F20AC701B601A30107
:1041A00092010E94692AA7019601261B370B480B32
:1041B000590BDA01C90195018401D8CF8093180801
:1041C00090931908A0931A08B0931B080093140841
:1041D000109315082093160830931708E0911D08D6
:1041E000F0911E088581882339F18185843021F181
:1041F0008781823029F0882341F08681811102C0B5
:1042000085E001C083E0818714C083E08187178245
:10421000168285899689A789B08D892B8A2B8B2B4D
:1042200041F4818D928DA38DB48D858B968BA78B58
:10423000B08F80850E94FC1AE0911D08F0911E0845
:1042400085A196A1A7A1B0A5892B8A2B8B2B09F458
:104250004EC08085882309F44AC09185943009F4C2
:1042600046C0458D568D678D70A10091920510E076
:1042700020E030E0401751076207730798F40E946E
:104280004511E0911D08F0911E08608582E00E94B2
:104290009115E0911D08F0911E08158E168E178E4F
:1042A00010A208C0401B510B620B730B458F568F39
:1042B000678F70A3E0911D08F0911E08C085858D61
:1042C000968DA78DB0A1892B8A2B8B2B81F48C2FF7
:1042D0000E9445116C2F83E00E949115E0911D080A
:1042E000F0911E0883E081878C2F0E94FC1AC9E39D
:1042F000D7E000E61AEE312C2AEFC22ED12CE12CA9
:10430000F12C32E0232E812C912C54018394FE0158
:10431000319780818F3F09F4E5C03397108288235D
:1043200009F45BC08881843009F457C04C845D84F3
:104330006E847F846091920570E080E090E0461684
:1043400057066806790648F0461A570A680A790A35
:104350004C865D866E867F8604C01C861D861E8602
:104360001F86488859886A887B88461657066806DB
:10437000790648F0461A570A680A790A488A598A1B
:104380006A8A7B8A1AC0288D398D4A8D5B8D6217A7
:1043900073078407950758F429013A01461A570A0A
:1043A000680A790A488A598A6A8A7B8A06C00E9402
:1043B000692A688B798B8A8B9B8B88899989AA89D2
:1043C000BB89892B8A2B8B2B41F4888D998DAA8DE3
:1043D000BB8D888B998BAA8BBB8B8881833009F02E
:1043E00081C08C859D85AE85BF85892B8A2B8B2BC3
:1043F00009F067C0DE0112978C91FE013397882384
:1044000091F08081882379F0B501A40100900D0816
:1044100004C0440F551F661F771F0A94D2F74887C0
:1044200059876A877B871C921082A8A1B9A1A13005
:10443000B10509F58C8D9D8DAE8DBF8D8C8B9D8BBF
:10444000AE8BBF8B288288899989AA89BB898C8782
:104450009D87AE87BF87888D998DAA8DBB8D892B4F
:104460008A2B8B2B21F4CC86DD86EE86FF86832D6E
:104470000E944C1A26C04C8D5D8D6E8D7F8D4C8BAD
:104480005D8B6E8B7F8B488C598C6A8C7B8C1197E3
:10449000A30192010E944E2A6C877D878E879F8799
:1044A000688B798B8A8B9B8B45284628472821F47B
:1044B000CC86DD86EE86FF8666246394712C79A215
:1044C00068A28C859D85AE85BF850097A105B10545
:1044D00049F0A80160E070E084179507A607B707C8
:1044E00008F48C013394AB9685E0782E37100FCF0B
:1044F000E0911D08F0911E0880850E9457110E94CE
:104500003B1AC82F2BE28202F0011124E05DF84F24
:10451000228520931F08F0930F08E0930E0888234C
:10452000D9F085A196A1A7A1B0A5892B8A2B8B2BA9
:1045300099F0858D968DA78DB0A18A3F9105A10533
:10454000B10550F4A80160E070E084179507A60754
:10455000B70710F48C0105C00B3F110510F00AEFEE
:1045600010E020931008F0931E08E0931D080093BC
:1045700092050E947E25282F30E02F5F3F4F2017A5
:10458000310740F00E947E25082F10E00E5F1F4F7C
:1045900000939205C11110921108802F0E941C25D2
:1045A0000E94A128DF91CF911F910F91FF90EF9072
:1045B000DF90CF90BF90AF909F908F907F906F9043
:1045C0005F904F903F902F900C94AC283F924F9269
:1045D0005F926F927F928F929F92AF92BF92CF9293
:1045E000DF92EF92FF920F931F93CF93DF93CDB79C
:1045F000DEB760970FB6F894DEBF0FBECDBFCE0119
:1046000009960E948D1D80E2482E88E0582E612C6C
:10461000712C93E1392ED20112968C91813051F593
:10462000369CF001379CF00D1124E55DF74F89842D
:104630009A84AB84BC84CD84DE84EF84F8880081C6
:104640001181228133814481558166817781CE0138
:1046500001960E94EA1D8F3F69F4662D85E10E9454
:104660009115D201ED91FC91309719F40E94300F11
:1046700001C00995BFEF6B1A7B0AE3E14E0E511C96
:10468000F3E06F16710439F660960FB6F894DEBF4A
:104690000FBECDBFDF91CF911F910F91FF90EF9093
:1046A000DF90CF90BF90AF909F908F907F906F9052
:1046B0005F904F903F900895E0E2F8E01282158AF3
:1046C00010A60895CF93DF938330E0F493E1899FA0
:1046D000F0011124E05EF74F51834083EB018881A4
:1046E0009981AA81BB8183839483A583B6838C81BE
:1046F0009D81AE81BF8187839087A187B287128217
:1047000081E001C08FEFDF91CF910895CF92DF92CA
:10471000EF92FF920F931F93CF93DF93CDB7DEB746
:1047200028970FB6F894DEBF0FBECDBF8330A8F533
:10473000182FCE0101960E948D1D23E1129FC0010A
:1047400011248C01005E174FF801C380D480E580EE
:10475000F68049815A816B817C814C0D5D1D6E1DF7
:104760007F1D4387548765877687C780D084E1841F
:10477000F2844D815E816F8178854C0D5D1D6E1DCB
:104780007F1D4787508B618B728B855D974F0E9491
:10479000761E81E0F801828301C08FEF28960FB664
:1047A000F894DEBF0FBECDBFDF91CF911F910F9167
:1047B000FF90EF90DF90CF9008951F93CF93DF93FA
:1047C000CDB7DEB728970FB6F894DEBF0FBECDBFCA
:1047D000833070F5182FCE0101960E948D1D83E164
:1047E000189FF0011124E05EF74F438154816581E9
:1047F000768189819A81AB81BC81840F951FA61F28
:10480000B71F83879487A587B687478150856185C1
:1048100072858D819E81AF81B885840F951FA61FFB
:10482000B71F8787908BA18BB28B81E0828301C0F9
:104830008FEF28960FB6F894DEBF0FBECDBFDF9185
:10484000CF911F910895833048F493E1899FF0013F
:104850001124E05EF74F128281E008958FEF0895F2
:104860000000000000000000000000000000000048
:104870000000000000000000019791F708951092D9
:104880002101089589E0809321018DE89CE39093B4
:104890002901809328010895109225011092240186
:1048A0000895CF93DF9300D0CDB7DEB78091240178
:1048B000909125019A83898389819A810F900F9025
:1048C000DF91CF91089510928100089581E0809347
:1048D0008100089583B5816083BD10928500109298
:1048E00084000895CF93DF9300D0CDB7DEB78091D9
:1048F0008400909185009A83898389819A810F90A1
:104900000F90DF91CF910895CF92DF92EF92FF92B7
:10491000CF93DF93EC01CC0FDD1FC9378FEFD807A2
:1049200010F0C0E0D0E06B01E12CF12CCC0EDD1ECC
:10493000E11CF11C81E0C816D104E806F10440F046
:1049400081E0E81AF1080E947224C817D907D8F349
:104950000E9472248C159D05D8F3DF91CF91FF90B2
:10496000EF90DF90CF9008951092B100E0E7F0E073
:1049700080818D7F808380818E7F80830895809366
:10498000B2000895E0E7F0E080818360808383E0F7
:104990008093B100089583B5826083BD1092B20008
:1049A00010923C04109292050895CF93DF938EEFFE
:1049B0008093920580E28093B60080919205809367
:1049C000B30083E087BB92E09093B0008093B10086
:1049D00093B5926093BD87BB84BD83B5826083BD70
:1049E0001092800081E080938100109285001092E7
:1049F000840083B5826083BD83B5816083BD1092DE
:104A00002001C4E2D1E01982188283B5826083BD9F
:104A100083B5816083BD0E94CB24198218820E94D5
:104A2000C2240E94422410923C04DF91CF91089549
:104A30008091B3008F5F089581508093B3000895F3
:104A4000811102C0109271008FEF0895811106C08C
:104A5000109295001092940081E008958FEF0895D0
:104A6000811105C08091940090919500089580E097
:104A700090E00895811105C082E08093710081E08B
:104A800008958FEF0895811135C0CB0101970597E7
:104A900010F4609391051092900088E0809391004B
:104AA00050939900409398003093BA032093B90330
:104AB00080919105813021F480919100816011C035
:104AC000823021F48091910082600BC0833021F408
:104AD00080919100836005C0843031F48091910011
:104AE00084608093910008C0853031F480919100FA
:104AF0008560F7CF8FEF089581E008958091B2002F
:104B000008951F920F920FB60F92112460E08AE071
:104B10000E949115FFCF0F920FB60F921F922F9206
:104B20003F924F925F926F927F928F929F92AF923D
:104B3000BF92CF92DF92EF92FF920F931F932F932A
:104B40003F934F935F936F937F938F939F93AF9315
:104B5000BF93CF93DF93EF93FF93A0911D08B09184
:104B60001E080DB60D920EB60D921F92A0918F05E4
:104B7000B09190051E90BEBFADBF08951F920F92D9
:104B80000FB60F9211240BB60F922F933F934F93B2
:104B90005F936F937F938F939F93AF93BF93EF93A5
:104BA000FF93E091B903F091BA03309711F00995A2
:104BB00004C060E08AE00E949115FF91EF91BF91DF
:104BC000AF919F918F917F916F915F914F913F91A5
:104BD0002F910F900BBE0F900FBE0F901F90189546
:104BE0001F920F920FB60F9211240F900FBE0F90CD
:104BF0001F90189504B603FE02C080E101C080E05A
:104C000004B602FE06C094B79B7F94BF04B600FEB4
:104C1000846004B601FE05C094B79D7F94BF826096
:104C2000089581110CC004B600FE04C094B79E7FA5
:104C300094BF01C081E09091B000911181E008958E
:104C4000811102C0E89A39C0813011F4E99A0895BF
:104C5000823011F4EA9A31C0833021F480916B00E4
:104C6000816029C0843021F480916B00826023C070
:104C7000853021F480916B0084601DC0863021F462
:104C800080916B00886017C0873021F480916B00A1
:104C9000806111C0883021F480916B0080620BC06C
:104CA000893021F480916B00806405C08A3039F42A
:104CB00080916B00806880936B0081E008958FEF96
:104CC0000895811102C0E89839C0813011F4E99843
:104CD0000895823011F4E99831C0833021F4809135
:104CE0006B008E7F29C0843021F480916B008D7F12
:104CF00023C0853021F480916B008B7F1DC08630EE
:104D000021F480916B00877F17C0873021F4809158
:104D10006B008F7E11C0883021F480916B008F7DF5
:104D20000BC0893021F480916B008F7B05C08A30E5
:104D300039F480916B008F7780936B0081E0089548
:104D40008FEF0895811126C050937B0840937A0815
:104D5000611104C0809169008C7F3DC0613049F4CD
:104D6000809169008D7F80936900809169008160E6
:104D700032C0623049F4809169008260809369009A
:104D8000809169008E7F27C0633039F5809169007A
:104D9000836021C0813049F55093790840937808A9
:104DA000611104C080916900837F15C0613049F4AE
:104DB00080916900877F8093690080916900846099
:104DC0000AC0623061F48091690088608093690054
:104DD000809169008B7F8093690081E00895633042
:104DE000E1F7809169008C60F6CF823031F5509305
:104DF0007D0840937C08611104C0809169008F7C1C
:104E0000EACF613049F4809169008F7D8093690019
:104E1000809169008061DFCF623049F48091690040
:104E2000806280936900809169008F7ED4CF633067
:104E3000A1F6809169008063CECF8350883050F412
:104E40008091680081608093680050937F08409350
:104E50007E08C3CF8FEF08951F920F920FB60F9267
:104E600011240BB60F922F933F934F935F936F9341
:104E70007F938F939F93AF93BF93EF93FF93E091B3
:104E80007E08F0917F08309711F0099504C060E02A
:104E90008AE00E949115FF91EF91BF91AF919F9190
:104EA0008F917F916F915F914F913F912F910F90D3
:104EB0000BBE0F900FBE0F901F9018951F920F9270
:104EC0000FB60F9211240BB60F922F933F934F936F
:104ED0005F936F937F938F939F93AF93BF93EF9362
:104EE000FF93E0917A08F0917B08309711F00995D3
:104EF00004C060E08AE00E949115FF91EF91BF919C
:104F0000AF919F918F917F916F915F914F913F9161
:104F10002F910F900BBE0F900FBE0F901F90189502
:104F20001F920F920FB60F9211240BB60F922F9370
:104F30003F934F935F936F937F938F939F93AF9321
:104F4000BF93EF93FF93E0917808F0917908309741
:104F500011F0099504C060E08AE00E949115FF916C
:104F6000EF91BF91AF919F918F917F916F915F91E1
:104F70004F913F912F910F900BBE0F900FBE0F904E
:104F80001F9018951F920F920FB60F9211240BB617
:104F90000F922F933F934F935F936F937F938F93D2
:104FA0009F93AF93BF93EF93FF93E0917C08F091B1
:104FB0007D08309711F0099504C060E08AE00E94F6
:104FC0009115FF91EF91BF91AF919F918F917F913B
:104FD0006F915F914F913F912F910F900BBE0F906A
:104FE0000FBE0F901F901895A8959FB7F89484B79F
:104FF000877F84BFE0E6F0E0808188618083108253
:105000009FBF08959FB7F894A89584B7877F84BF02
:10501000E0E6F0E08081886180838DE080839FBF3F
:10502000089504B603FE02C08FEF089581E008954D
:10503000A8950895089583B7817F866083BF83B75D
:10504000816083BF889583B78E7F83BF089583B7C0
:10505000817F83BF83B7816083BF889583B78E7F4D
:1050600083BF0895FC01768365830895EF92FF92D4
:105070000F931F93CF93DF938C017B01EA014032A2
:10508000510518F481E10E9482152197CE0DDF1D94
:10509000F801D283C183F482E382DF91CF911F9123
:1050A0000F91FF90EF90089525E5FA012083FB0111
:1050B0003297908331968083339711821082329792
:1050C00011821082329711821082329711821082DF
:1050D0003297118210823297118210823297118298
:1050E0001082329711821082329711821082329789
:1050F00011821082329711821082329711821082AF
:105100003297118210823297118210823297118267
:105110001082329711821082CB018497FC01118298
:105120001082089585E580937E41EEEFF1E4F093DF
:105130009005E0938F0581ED90E190838093FF418E
:10514000089581ED90E19093FE418093FF41089591
:105150000E94D5240C942E0FA0910E08B0910F0838
:10516000CD91CDBFDD91DEBFFF91EF91DF91CF916A
:10517000BF91AF919F918F917F916F915F914F916F
:105180003F912F911F910F91FF90EF90DF90CF9063
:10519000BF90AF909F908F907F906F905F904F9057
:1051A0003F902F901F900F900FBE0F9018950E9468
:1051B000DD0A80E190E00E94610E0E94A1047894D3
:1051C0000E94C6030E94AF030E94BB030E94330FDC
:1051D00082E090E00E94F80D83E090E00E94F80DDC
:1051E00081E090E00E94F80D80E090E00E94F80DD0
:1051F00020E030E0A90160E070E0CB010E94F21EE7
:105200000E94F3030E94DA0F80E090E008956F920D
:105210007F928F929F92AF92BF92CF92DF92EF9246
:10522000FF920F931F93CF93DF93CDB7DEB72C97E9
:105230000FB6F894DEBF0FBECDBF6C015B017A01E3
:10524000FC0117821682838181FF0EC1CE01019677
:105250004C01F6010381F50103FD159103FF119146
:105260005F01112309F4FCC0153249F403FD1591C7
:1052700003FF11915F01153211F020E01BC0B60150
:10528000812F90E00E946C2B37017301E2CF112334
:1052900009F4E6C0612F70E08EEF94E02C870E9445
:1052A000FF2A2C85892B49F0F50103FD159103FF99
:1052B00011915F0127FFEBCF09C0133229F01C3693
:1052C00009F0D5C02068F0CF20E1EECF022F1123E6
:1052D00009F4C6C0612F70E087EF94E02C870E942C
:1052E000FF2A2C85892B41F03701F4E06F0E711CE9
:1052F000B6018FE390E011C0133639F0133781F017
:10530000133519F5022F01600BC0370182E0680EDA
:10531000711CB601F701808191810E946C2BB5CF81
:105320003701F2E06F0E711CF701E080F180F701A8
:1053300000FD859100FF81917F01882309F4A5CFAD
:10534000B60190E00E946C2BF2CF143611F01936A2
:1053500029F5370127FF09C0F4E06F0E711CF70132
:1053600060817181828193810AC0F2E06F0E711CAD
:10537000F70160817181882777FD8095982F022F32
:105380000F7E97FF08C090958095709561957F4F2F
:105390008F4F9F4F00642AE030E033C0103799F000
:1053A00040F41835B1F01F3609F05AC028E030E05B
:1053B00014C0153719F0183741F052C0022F0F7E74
:1053C0002AE030E00AC0022F0061046220E130E0F0
:1053D00004C0022F046020E132E0370107FF09C05A
:1053E000F4E06F0E711CF7016081718182819381FD
:1053F00008C0F2E06F0E711CF7016081718180E0DE
:1054000090E0A4010E941E2C182F181906FF05C059
:10541000B6018DE290E00E946C2B04FF15C0FE01E6
:10542000E10FF11D8081803379F0B60180E390E0D7
:105430000E946C2B02FF08C00072802F90E0B60122
:10544000885A9F4F0E946C2B1150F401E10FF11DFF
:105450008081B60190E00E946C2B1111F5CF15CF21
:10546000F6018681978105C08FEF9FEF02C0022F62
:1054700031CF2C960FB6F894DEBF0FBECDBFDF91B3
:10548000CF911F910F91FF90EF90DF90CF90BF9041
:10549000AF909F908F907F906F9008950E94F02A18
:1054A000A59F900DB49F900DA49F800D911D112478
:1054B0000895DB018F939F930E944E2ABF91AF9175
:1054C000A29F800D911DA39F900DB29F900D11245E
:1054D0000895A1E21A2EAA1BBB1BFD010DC0AA1F35
:1054E000BB1FEE1FFF1FA217B307E407F50720F04D
:1054F000A21BB30BE40BF50B661F771F881F991FC8
:105500001A9469F760957095809590959B01AC0110
:10551000BD01CF010895689401C0E8948F929F92D5
:10552000CF93DF930E94992ADF91CF919F908F9024
:10553000089588249924F401E401B0E49F93AA27F4
:105540009A158B049C04ED05FE05CF05D007A10735
:1055500098F4AD2FDC2FCF2FFE2FE92D982C892E1C
:10556000982F872F762F652F542F432F322F2227E6
:10557000B85031F7BF9127C01B2EBF91BB27220F18
:10558000331F441F551F661F771F881F991F881CD4
:10559000991CEE1FFF1FCC1FDD1FAA1FBB1F8A1403
:1055A0009B04EC05FD05CE05DF05A007B10748F01B
:1055B0008A189B08EC09FD09CE09DF09A00BB10B85
:1055C00021601A94E1F62EF49401AF01BE01CD01E1
:1055D000000C0895EE0FFF1F0590F491E02D099443
:1055E000A29FB001B39FC001A39F700D811D112424
:1055F000911DB29F700D811D1124911D0895FC0114
:105600000590061621F00020D9F7C00108953197C2
:10561000CF010895FB01DC0102C001900D924150C1
:105620005040D8F70895FB01DC014150504030F064
:105630008D910190801919F40020B9F7881B990BFE
:1056400008950F931F93CF93DF93009731F4611563
:10565000710519F480E090E03AC08B01EC016EE036
:1056600070E081E090E00E94922CFC01009791F3A1
:1056700080E883830115110571F01387028781E8A3
:1056800083838091800890918108892B21F4F09385
:105690008108E09380082097C9F0D187C087838173
:1056A000826083838091820890918308892B71F4B2
:1056B000F0938308E0938208809184089091850894
:1056C000892B21F4F0938508E0938408CF01DF91C2
:1056D000CF911F910F9108950F931F93CF93DF9355
:1056E000FB01238121FD03C08FEF9FEF28C022FF24
:1056F00016C046815781248135814217530744F4EF
:10570000A081B1819D012F5F3F4F318320838C9316
:10571000268137812F5F3F4F3783268310C0EB01EF
:10572000092F182F0084F185E02D0995892BE1F6CA
:105730008E819F8101969F838E83812F902FDF9191
:10574000CF911F910F910895CF93DF93CDB7DEB71F
:10575000AE014B5F5F4FFA0161917191AF01809192
:105760008208909183080E940729DF91CF910895C4
:1057700060918208709183080C946C2B0F931F9397
:10578000CF93DF93E0918208F0918308238121FF7A
:105790001BC08C01D0E0C0E0F80181918F016091C5
:1057A000820870918308DB011896ED91FC9119979E
:1057B000882331F00995892B79F3DFEFCFEFECCF18
:1057C0008AE00995892B19F08FEF9FEF02C08D2F8A
:1057D0009C2FDF91CF911F910F9108950F931F93ED
:1057E000CF93DF93CDB7DEB72E970FB6F894DEBF19
:1057F0000FBECDBF0D891E8986E08C831A83098375
:105800008FEF9FE79E838D83AE01475E5F4F6F8969
:10581000788DCE0101960E9407292F813885F801E5
:10582000E20FF31F10822E960FB6F894DEBF0FBE64
:10583000CDBFDF91CF911F910F910895FA01AA2753
:10584000283051F1203181F1E8946F936E7F6E5FC3
:105850007F4F8F4F9F4FAF4FB1E03ED0B4E03CD071
:10586000670F781F891F9A1FA11D680F791F8A1F54
:10587000911DA11D6A0F711D811D911DA11D20D0BB
:1058800009F468943F912AE0269F11243019305D75
:105890003193DEF6CF010895462F4770405D419366
:1058A000B3E00FD0C9F7F6CF462F4F70405D4A33B3
:1058B00018F0495D31FD4052419302D0A9F7EACF7B
:1058C000B4E0A6959795879577956795BA95C9F7AA
:1058D00000976105710508959B01AC010A2E06949D
:1058E0005795479537952795BA95C9F7620F731F56
:1058F000841F951FA01D0895F999FECF92BD81BD0B
:10590000F89A992780B50895262FF999FECF1FBAE6
:1059100092BD81BD20BD0FB6F894FA9AF99A0FBED8
:10592000019608950F931F93CF93DF93869F800175
:10593000879F100D969F100D1124C8010E94AE2C58
:10594000EC01009729F0A80160E070E00E94DB2DD7
:10595000CE01DF91CF911F910F910895CF93DF93E7
:105960008230910510F482E090E0E0918808F09197
:10597000890820E030E0C0E0D0E0309711F14081AC
:10598000518148175907C0F04817590761F48281BF
:105990009381209719F09B838A832BC09093890869
:1059A0008093880826C02115310519F04217530746
:1059B00018F49A01BE01DF01EF010280F381E02DAE
:1059C000DCCF2115310509F1281B390B24303105B5
:1059D00090F412968D919C9113976115710521F0A9
:1059E000FB019383828304C0909389088093880885
:1059F000FD01329644C0FD01E20FF31F81939193A4
:105A0000225031092D933C933AC020918608309161
:105A10008708232B41F42091130230911402309314
:105A200087082093860820911102309112022115D7
:105A3000310541F42DB73EB7409115025091160241
:105A4000241B350BE0918608F0918708E217F307D5
:105A5000A0F42E1B3F0B2817390778F0AC014E5FDE
:105A60005F4F2417350748F04E0F5F1F509387088C
:105A7000409386088193919302C0E0E0F0E0CF016B
:105A8000DF91CF9108950F931F93CF93DF930097EA
:105A900009F48CC0FC0132971382128200918808AD
:105AA000109189080115110581F420813181820F3F
:105AB000931F20918608309187082817390779F5B8
:105AC000F0938708E093860871C0D80140E050E069
:105AD000AE17BF0750F412962D913C911397AD016C
