:100000000C941C030C941E340C9450340C948234C5
:100010000C943B030C943B030C943B030C943B0368
:100020000C943B030C94EC330C943B030C943B0377
:100030000C943B030C944B320C943B030C944B32CA
:100040000C943B030C943B030C943B030C943B0338
:100050000C943B030C943B030C943B030C943B0328
:100060000C943B030C9402170C943B030C943B033D
:100070000C943B030C943B030C943B030C943B0308
:100080000C947E320C943B030C943B030C943B0386
:100090000C943B030C943B030C943B030C943B03E8
:1000A0000C943B030C943B030C943B030C943B03D8
:1000B0000C943B030C943B030C943B030C943B03C8
:1000C0000C943B030C943B030C943B030C943B03B8
:1000D0000C943B030C943B030C943B030C943B03A8
:1000E0000C943B030C946E150C945F150C942F1517
:1000F0000C94BF140C9420150C9411150C9402153B
:100100000C94F3140C943B030C943B030C943B03AE
:100110000C943B030C943B030C943B030C943B0367
:10012000E117EE17FB170818151822182F18521888
:1001300060186E187C188A189818A618C918CB1859
:10014000CD18CF18D118D318D518F41817193B1992
:100150005E198119A419C719011A0E1A1B1A281A37
:10016000351A421A4F1A681A751A821A8F1A9C1A6F
:10017000A91AB61A76217C217F2182218521882126
:100180008E218B21912194219721A021A321A621A9
:10019000A9219D2173217921AC21AF219A217021C0
:1001A00094229722A222A722AE22B722BA22BF22ED
:1001B000C622CF22506B74207478206572726F72E1
:1001C0000D0A00436F756C64206E6F742061646467
:1001D00020736C6F74210D0A004E616E6F2D524BAF
:1001E0002056657273696F6E20004661696C6564A4
:1001F00020746F2072656769737465722073696714
:100200006E616C0D0A0054444D41204552524F52CC
:100210003A206372656174696E6720656E61626C15
:1002200065207369676E616C206661696C65640D39
:100230000A0054444D41204552524F523A206372B5
:10024000656174696E67207478207369676E616C8C
:10025000206661696C65640D0A0054444D41204577
:1002600052524F523A206372656174696E67207210
:1002700078207369676E616C206661696C65640DD6
:100280000A0054444D412054583A20576F6B652062
:100290007570206F6E2077726F6E67207369676E5E
:1002A000616C0D0A0054444D412054583A20457267
:1002B000726F722063616C6C696E67206576656E23
:1002C0007420776169740D0A007561727420727808
:1002D00020736967206661696C65640D0A000D0A08
:1002E0004E616E6F2D524B205461736B20537461BD
:1002F000746973746963733A0D0A000D0A000D0A7C
:100300002020204F766572666C6F77204572726F81
:1003100072205374617475733A20000D0A202020F6
:100320004B65726E656C2056696F6C6174696F6E97
:10033000733A20000D0A202020507265656D70749C
:10034000696F6E733A20000D0A2020205377617088
:100350002D696E733A20000D0A20202054696D65C6
:10036000205B4D696E2C4C6173742C4D61785D3A45
:1003700020000D0A202020546F74616C20435055DA
:100380003A20000D0A20202049646C6520546173D6
:100390006B204465657020536C6565702054696DF1
:1003A000653A20000D0A202020546F74616C2053A0
:1003B000797374656D20557074696D653A200020FD
:1003C0005461736B2049443A2000554E4B4F574EB1
:1003D0000045787465726E616C20526573657400B7
:1003E00042726F776E204F75742044657465637434
:1003F000004661696C656420746F20637265617486
:10040000652053656D6170686F7265004661696C47
:10041000656420746F206372656174652053696739
:100420006E616C004B65726E656C2066756E6374F0
:10043000696F6E206E6F7420696D706C656D656E8E
:100440007465640044657669636520447269766505
:1004500072204572726F72005761746368646F67CF
:10046000205265737461727400535720576174632E
:1004700068646F6720526573746172740054696DAB
:100480006572204F766572666C6F7700556E686195
:100490006E646C656420496E746572727570742048
:1004A000566563746F72004C6F7720566F6C746181
:1004B0006765004578747261205461736B207374B2
:1004C00061727465642C206973206E726B5F636661
:1004D000672E68206F6B3F0049646C65206F722047
:1004E0004B65726E656C20537461636B204F76654B
:1004F00072666C6F7700556E6578706563746564BD
:100500002052657374617274004475706C69636124
:10051000746564205461736B2049440053636865BB
:1005200064756C6572204D69737365642057616BE7
:10053000657570005461736B2052657365727665E2
:100540002056696F6C6174656400526573657276DC
:1005500065204572726F7220696E2053636865640E
:10056000756C657200496E76616C696420537461C4
:10057000636B20506F696E746572005461736B20F9
:10058000537461636B204F766572666C6F770053AE
:100590007461636B20776173206E6F74206465668D
:1005A000696E6564206173206C6172676520656E99
:1005B0006F75676821005461736B20706572696F95
:1005C0006420746F6F206C617267652E20506572B5
:1005D000696F64206D757374206265206C65737338
:1005E000207468616E203631207365636F6E6473AA
:1005F0002E00293A20002A4E524B204552524F528B
:1006000028004E524B205265626F6F742E2E2E0DB5
:100610000A000D0A535441434B2044554D500D0AD6
:100620000045464765666700202B2D2E303132335A
:10063000343536373839680011241FBECFEFD1E486
:10064000DEBFCDBF14E0A0E0B2E0E6ECF5E700E0ED
:100650000BBF02C007900D92A036B107D9F711E188
:10066000A0E6B4E001C01D92AF33B107E1F70E94EC
:1006700097350C94E13A0C944132CF93DF93EC011F
:100680000E941B0B811108C0C333D10528F080E004
:1006900090E00E94FE1A04C080E090E00E94E71AF9
:1006A000C139D14020F00E949E2881E001C08FEF27
:1006B000DF91CF910895CF93DF931F92CDB7DEB72F
:1006C00089ED91E00E9478171F9285E68F938BEF5A
:1006D00092E09F938F930E94A3380E94472A1F9213
:1006E0008F9387E792E09F938F930E94A33881E0D6
:1006F00090E0A0E0B0E08093410990934209A0937C
:100700004309B09344091F921F921F928F9388E868
:1007100092E09F938F930E94A3381F928AE18F9358
:1007200087E992E09F938F930E94A3380FB6F894C5
:10073000DEBF0FBECDBFE0E0F2E080E090E19E0FB3
:100740002191820F9E13FCCF89831F928F9383EA9E
:1007500092E09F938F930E94A3384091410950915A
:1007600042096AE182E00E94E20C80E092E00E948D
:10077000110B0E94130B0F900F900F900F900E947F
:100780009F0D811103C00E949E28F9CF80914109DD
:10079000909142090E94280B813021F083EC91E076
:1007A0000E94781787EBE82E82E0F82E90E0C92EA1
:1007B00093E0D92E27E1A22E23E0B22E20E0AE0155
:1007C0004F5F5F4F6BE67BE089E99CE00E94110C74
:1007D0008130A1F78091AA0C1F928F938091A90C70
:1007E0001F928F938091A80C1F928F93FF92EF928C
:1007F0000E94A33889811F928F93DF92CF920E942B
:10080000A3380FB6F894DEBF0FBECDBF10E08981CC
:10081000181788F4E12FF0E0E559F44F80811F921A
:100820008F93BF92AF920E94A3381F5F0F900F90DB
:100830000F900F90ECCF85EA93E00E94BD38BECFB9
:100840000E94472A1F928F938BE193E09F938F938F
:100850000E94A3380F900F900F900F900E949F0D51
:10086000811103C00E949E28F9CFD1E08CE2E82ECE
:1008700083E0F82E0DED1BE098E4C92E93E0D92E0D
:1008800080E090E00E94E71A1F92DF93FF92EF92C0
:100890001F930F930E94ED38F80101900020E9F7B3
:1008A0003197ED5DFB40C1E0CE0F20E04C2F6DEDA8
:1008B0007BE089E59BE00E946A0B0F900F900F9000
:1008C0000F900F900F90813079F48C2F992787FD2E
:1008D00090959F93CF93DF92CF920E94A3380F9071
:1008E0000F900F900F90CCCF84EB91E00E9478177F
:1008F0000E949E28C5CFCF92DF92EF92FF921F9366
:10090000CF93DF93CDE4DCE08BE593E09E838D8392
:1009100040E052E061E579E0CE010E94F63482E0E9
:10092000888711E01F8319871A87C12CD12C760183
:10093000C394CB86DC86ED86FE861F86188A198ACC
:100940001A8A82E090E0A0E0B0E08B8B9C8BAD8BAC
:10095000BE8B1F8A188E198E1A8E1B8E1C8E1D8EB2
:100960001E8E1F8E18A219A21AA2CE010E940C2858
:10097000C0E7DCE080E294E09E838D8340E052E0BB
:100980006EE377E0CE010E94F63483E088871F8310
:1009900019871A87CB86DC86ED86FE861F86188A25
:1009A000198A1A8ACB8ADC8AED8AFE8A1F8A188EF7
:1009B000198E1A8E1B8E1C8E1D8E1E8E1F8E18A2D7
:1009C00019A21AA2CE01DF91CF911F91FF90EF9053
:1009D000DF90CF900C940C288091D50E813011F4CB
:1009E0008FEF089581E08093D50E60FF18C080914D
:1009F00044020E94CE171092DA0E80917C00807E15
:100A000080937C0080917C0090917C00807E892B7B
:100A100080937C0088EE93E00E94F03005C0862F22
:100A20008670F1F66770E1F281E0089580914402EA
:100A30000E943F181092D50E0E94B009EAE7F0E03C
:100A400080818F77808381E00895613019F48091EF
:100A5000DA0E08958FEF0895613091F52C3081F40E
:100A60002093DA0E80917C00807E80937C009091B0
:100A70007C0020917C00892F90E0807E836017C0ED
:100A80002E3020F081E00E9429211AC02093DA0E36
:100A900080917C00807E80937C0090917C002091EE
:100AA0007C00892F90E0807E3091DA0E832B822BA0
:100AB00080937C0088EC90E00E94F03081E0089503
:100AC0008FEF0895CF93DF93CDB7DEB766970FB65C
:100AD000F894DEBF0FBECDBFAE014F5F5F4F66E142
:100AE00070E08AEA90E00E94BA09FE013196ABEA12
:100AF000BEE09E01295E3F4F808190E0982F8827BD
:100B00004181842B8D939D933296E217F307A1F7D1
:100B100066960FB6F894DEBF0FBECDBFDF91CF91C2
:100B20000895EAE7F0E083E0808380818068808335
:100B30001092DA0EACE7B0E08C91807E8C938C91B1
:100B40009C91807E892B8C9380818F778083089500
:100B5000CF93C091440261E08C2F0E94EC198C2F3E
:100B60000E94CE17C0912F0260E08C2F0E94EC19DA
:100B70008C2F0E943F18C091450260E08C2F0E948C
:100B8000EC198C2F0E943F1880E00E94151B0E94D8
:100B900091050E94A0098EEE0E949D090E946205A7
:100BA0001092D50E81E0CF91089588EC90E00C94DE
:100BB000F03080917A00806480937A0080917A008E
:100BC00084FFFCCF0E94D5058091780020917900A8
:100BD00090E0922B08954F925F926F927F928F9246
:100BE0009F92AF92BF92CF92DF92EF92FF921F93AC
:100BF000CF93DF93CDB7DEB728970FB6F894DEBF5B
:100C00000FBECDBF182FC090D10ED090D20EE09065
:100C1000D30EF090D40E20EAC21A2FE0D20AE108D7
:100C2000F108C092C10ED092C20EE092C30EF092B3
:100C3000C40EA7019601C701B6010E9425374B01DA
:100C40005C015CE0B594A794979487945A95D1F78A
:100C50004091AB0E5091AC0E662757FD6095762FF4
:100C6000DB01CA0162E0880F991FAA1FBB1F6A95AA
:100C7000D1F789839A83AB83BC83A091B90EB091DD
:100C8000BA0EA50194010E941D37412CE8E05E2EAA
:100C9000612C712CA30192010E946B372D833E833E
:100CA0004F835887A091AD0EB091AE0EA70196016B
:100CB0000E941D37A30192010E946B378D819E8196
:100CC000AF81B885820F931FA41FB51F29813A8178
:100CD0004B815C81820F931FA41FB51F012E04C09E
:100CE000880F991FAA1FBB1F0A94D2F7BC01CD0120
:100CF0006E5F7F4F8F4F9F4FF4E04F2E512C612C32
:100D0000712CA30192010E946B3729833A834B8394
:100D10005C832093F00E3093F10E4093F20E5093CB
:100D2000F30EA091AF0EB091B00EA70196010E94F4
:100D30001D3720E030E240E050E00E946B3769014F
:100D40007A01A091B70EB091B80EA50194010E944E
:100D50001D3720E030E041E050E00E946B37D701C2
:100D6000C601820F931FA41FB51FBC01CD016E5F8A
:100D70007F4F8F4F9F4FA30192010E946B372093AB
:100D8000DB0E3093DC0E4093DD0E5093DE0EA0910F
:100D9000B10EB091B20E30584F4F5F4F0E941237D4
:100DA00020E030E840E050E00E946B3769017A01B2
:100DB0002093DF0E3093E00E4093E10E5093E20E4D
:100DC0008091E80E9091E90EA091EA0EB091EB0EA1
:100DD0009C01AD0189809A80AB80BC8028193909BB
:100DE0004A095B0980E593ECA0E0B0E0BC01CD01CD
:100DF00004C095958795779567951A95D2F70E94C7
:100E000025376093E40E7093E50E8093E60E909381
:100E1000E70E97FD11C0660F771F881F991FA70166
:100E200096010E9449372093EC0E3093ED0E4093CB
:100E3000EE0E5093EF0E12C0A70196010E944937A3
:100E4000DA01C901880F991FAA1FBB1F8093EC0EFE
:100E50009093ED0EA093EE0EB093EF0EC090EC0EBB
:100E6000D090ED0EE090EE0EF090EF0EC701B601BF
:100E700020E031E040E050E00E946B37CA01B90148
:100E80000E9425379B01AC01AEEDBBE00E941237FA
:100E90004C01BB2497FCB094AB2C8092D60E909260
:100EA000D70EA092D80EB092D90EA3E4B3EEA7014C
:100EB00096010E94203720E030E041E050E00E949F
:100EC0006B372093C90E3093CA0E4093CB0E5093CC
:100ED000CC0ED501C401820F931FA41FB51FBC0106
:100EE000CD016153714F8F4F9F4F20E130E040E0C3
:100EF00050E00E946B37C701B601620F731F841F59
:100F0000951F6093EC0E7093ED0E8093EE0E909310
:100F1000EF0E28960FB6F894DEBF0FBECDBFDF915F
:100F2000CF911F91FF90EF90DF90CF90BF90AF9047
:100F30009F908F907F906F905F904F900895CF9289
:100F4000DF92EF92FF920F931F93CF93DF93CBEA41
:100F5000DEE08A859B854091C50E5091C60E60915A
:100F6000C70E7091C80E9A01AB01281B390B4109BD
:100F70005109A885B9850E94123720E030E840E089
:100F800050E00E946B3769017A012093D60E3093AE
:100F9000D70E4093D80E5093D90E6A897B89CB0126
:100FA000AA2797FDA095BA2FBC01CD012BE0660FB3
:100FB000771F881F991F2A95D1F70C891D89222731
:100FC00017FD2095322FA90198012C0D3D1D4E1DB6
:100FD0005F1D0E946B372093C90E3093CA0E409359
:100FE000CB0E5093CC0ED701C601820F931FA41FC6
:100FF000B51F8093D10E9093D20EA093D30EB093D1
:10100000D40EBC01CD01685F7F4F8F4F9F4F20E111
:1010100030E040E050E00E946B372093CD0E3093DB
:10102000CE0E4093CF0E5093D00ECA01B901DF917E
:10103000CF911F910F91FF90EF90DF90CF90089587
:10104000CF93DF9300D01F92CDB7DEB78EE28B83B4
:10105000AE014D5F5F4F61E070E084EF90E00E9471
:10106000D30A84E991E10E94F030AE014F5F5F4FF7
:1010700062E070E086EF90E00E94BA09898190E01A
:10108000982F88272A81822BA0E0B0E08093C50E9C
:101090009093C60EA093C70EB093C80E0F900F90FA
:1010A0000F90DF91CF9108950E9420080C949F0724
:1010B0001F93CF93DF9300D000D0CDB7DEB7182FAA
:1010C0008295880F880F807C8C5C8C83AE014C5F8E
:1010D0005F4F61E070E084EF90E00E94D30A84E902
:1010E00091E10E94F030AE014F5F5F4F63E070E02E
:1010F00086EF90E00E94BA092A81898190E0A0E001
:10110000B0E0DC0199278827922B2B81820F911D5B
:10111000A11DB11D28E030E0211B310904C0B595A7
:10112000A795979587952A95D2F78093E80E909387
:10113000E90EA093EA0EB093EB0E0F900F900F9074
:101140000F90DF91CF911F910895CF93C82F0E94E8
:1011500058088C2FCF910C94EB05AF92BF92CF9291
:10116000DF92EF92FF921F93CF93DF9380917A00EB
:10117000806880937A008FEF820F823018F02430DD
:1011800009F0A8C0122FEA018091DA0E883078F4B5
:101190000E94D905123019F4888399831EC011303A
:1011A00009F07AC096958795969587951EC08D30E3
:1011B000F1F4F090450261E08F2D0E94EC198F2D23
:1011C0000E943F1860E08F2D0E94EC19123039F414
:1011D0008F2D0E94B7188883198281E074C0113066
:1011E00009F05AC08F2D0E94B718888355C08C30E3
:1011F000B9F5A12CBB24B394E12CF12CCC24C394DD
:1012000064E0D62E80917A00806480937A00809189
:101210007A0084FFFCCF80E290E00E94F030809161
:1012200078002091790090E0922B8C159D0508F4B0
:101230006C01E816F90608F47C0181E0A81AB108EF
:1012400009F7EC18FD08123019F4E882F982C5CFCD
:10125000113011F5F694E794F694E794E8821CC0F7
:101260008B30E1F41092E30E7A99FECF7A9BFECF99
:101270008091E30E8F5F8093E30E7A99F9CF888394
:101280008091E30E90E01982330F220B322F2A83D4
:10129000990F880B982F8B8380E015C097EF980FDC
:1012A0009230D0F72430B1F48A3019F40E945408F7
:1012B00005C00E94540880E00E94A50868837983D5
:1012C0008A839B8383E090917A009F7790937A0042
:1012D0008F5F01C080E0DF91CF911F91FF90EF9071
:1012E000DF90CF90BF90AF900895823099F038F49E
:1012F000882369F08130C9F481E00C94EC048430D7
:1013000089F058F0853089F485E00C94AD0880E0D0
:101310000C94A80582E00C941605613061F480916C
:10132000DA0E089584E00C942C0560E08CE00E94B5
:10133000212280E008958FEF08958093F50E08959F
:1013400082E08093B8001092B900E4E6F0E080817A
:101350008F778083ECEBF0E0808184608083089558
:10136000E4E6F0E080818083ECEBF0E080818B7F2D
:10137000808308959770990F2091F50E922B35E692
:10138000F4EAA4EAE4E8B92FB160315009F48EC060
:10139000A093BC002091BC0027FFFCCF2091B90096
:1013A000287F2093F40E203129F0283389F3283048
:1013B00009F07CC09093BB00E093BC002091BC007E
:1013C00027FFFCCF2091B900287F2093F40E203214
:1013D000E1F22833E9F2283109F061C08093BB00C3
:1013E000E093BC002091BC0027FFFCCF2091B90006
:1013F000287F2093F40E203309F44EC0283341F2A5
:10140000283209F04CC0F093BC002091BC0027FFAB
:10141000FCCF2091B900287F2093F40E203129F0D1
:10142000283309F4B5CF2830D1F5B093BB00E09351
:10143000BC002091BC0027FFFCCF2091B900287F81
:101440002093F40E203429F0283431F1283339F573
:101450009FCFFA0194EC9F01241B350B161617063B
:1014600004F56130710509F494E89093BC00809113
:10147000BC0087FFFCCF8091B900887F8093F40E79
:10148000803521F0883559F460E070E08091BB0030
:10149000819361507109DFCF20E030E002C02FEF6F
:1014A0003FEF84E98093BC00C90108958FEF9FEF5F
:1014B00008959C01680F791F87606817790718F0F5
:1014C000BC016F5F7F4F832F8770880F9091F50E5F
:1014D000892BE5E6A4EAF4E8E15009F461C0A093A1
:1014E000BC009091BC0097FFFCCF9091B900987F11
:1014F0009093F40E903129F0983389F3983009F0E5
:101500004FC08093BB00F093BC009091BC0097FF4C
:10151000FCCF9091B900987F9093F40E9032E1F255
:101520009833E9F29831A9F52093BB00F093BC0001
:101530009091BC0097FFFCCF9091B900987F909359
:10154000F40E903319F1983351F2983211F5621B71
:10155000730BFA0120E030E044E8CB01821B930BCF
:1015600018161906C4F481918093BB004093BC0007
:101570008091BC0087FFFCCF8091B900887F809369
:10158000F40E883231F42F5F3F4FE7CF20E030E098
:1015900002C02FEF3FEF84E98093BC00C90108959A
:1015A0008FEF9FEF0895CF92DF92EF92FF920F930C
:1015B0001F93CF93DF936C018B017A01C0E0D0E0E1
:1015C000A701B801C6010E94590A8F3F2FEF920769
:1015D00069F0C80ED91E081B190BE80EF91EC80FBA
:1015E000D91F1016110664F3CE0102C08FEF9FEFD2
:1015F000DF91CF911F910F91FF90EF90DF90CF90EF
:1016000008958091F40E1F928F938EE593E09F933F
:101610008F930E94A3380F900F900F900F90089512
:1016200008950C941F1681E080939604089581E03C
:10163000809396040895809163040895009731F093
:10164000909362048093610481E008958FEF089580
:10165000909399048093980481E08093970408956F
:101660008FEF089580E090E00895803220F40E948A
:10167000261281E008958FEF08958B3168F4682F6A
:101680008093890424E132E140E254E280E397E070
:101690000E94681281E008958FEF0895909391045D
:1016A00080939004EFE6F4E0DC0120E432E44FE0C4
:1016B00050E00E941237648375838683978310827B
:1016C00011821282138281E0089590938F04809397
:1016D0008E040895CF92DF92EF92FF92CF93DF9323
:1016E00000D0CDB7DEB76C017B01809192048130D0
:1016F00009F48DC0442309F48AC06115710509F409
:1017000086C0C114D10409F482C0211108C080919F
:10171000950C2A8349830E94E72449812A8181E02C
:101720008093920480E195E090934C0980934B095B
:10173000F601818180931105808180931005858158
:101740009681909313058093120580919504809360
:1017500015051092140581859285019692878187DF
:1017600090931705809316058381809319058281D4
:101770008093180530919304F0E13F9FC00111243C
:10178000832B80931A055E2DF7018CE090E03E2FAD
:10179000351B341750F43191A0914B09B0914C098D
:1017A000A80FB91F3C930196F2CF445F40934A09BA
:1017B00021112BC081E090E0A0E0B0E0BC01CD01A0
:1017C0000090950C04C0660F771F881F991F0A941C
:1017D000D2F70E948A256B017C0161157105810594
:1017E000910521F485EA92E00E9478170090950C0B
:1017F00004C0F694E794D794C7940A94D2F7C0FC37
:1018000004C082E892E00E94781781E001C08FEF67
:101810000F900F90DF91CF91FF90EF90DF90CF90DE
:1018200008958F929F92AF92BF92CF92DF92EF92E4
:10183000FF920F931F93CF93DF931F92CDB7DEB725
:101840004C018B015A0180918B0421111CC0813005
:10185000F1F48091940C29830E94E72481E090E0C8
:10186000A0E0B0E0BC01CD010090940C04C0660F74
:10187000771F881F991F0A94D2F70E948A256B014F
:101880007C01298104C0813011F48FEF7CC08091EC
:1018900033078C30D4F38C50D5018C9380E0F50164
:1018A0009081891778F4482F50E0E0913507F09146
:1018B0003607E40FF51F9485F801E40FF51F9083B8
:1018C0008F5FEDCF80913807992787FD9095D401E0
:1018D0001E969C938E931D97809139071F968C932B
:1018E0001F9780913A0750968C93509780913B07B1
:1018F00051968C935197E0913507F0913607858189
:1019000090E0982F88273481832B18969C938E9390
:101910001797838190E0982F88273281832B169622
:101920009C938E931597818190E0982F8827308122
:10193000832B11969C938E93878190E0982F882714
:101940003681832B1A969C938E931997818590E00C
:10195000982F88273085832B13969C938E9312970C
:1019600082851C968C9321110BC00090940C04C0AE
:10197000F694E794D794C7940A94D2F7C0FE85CF23
:1019800081E080938B040F90DF91CF911F910F9195
:10199000FF90EF90DF90CF90BF90AF909F908F908F
:1019A0000895009751F09093360780933507609320
:1019B000340781E080938B0408958FEF089580931E
:1019C000930408950F931F93CF93DF93162FD42F73
:1019D000052F9FEF909366041092650410926404A3
:1019E000809394041092970483E080939304109260
:1019F000630480E094E090938F0480938E0480E8E9
:101A000096E9A8E9B0E08093730490937404A093DE
:101A10007504B093760410926F04109270041092C3
:101A20007104109272040E94D723C82F8093940CE3
:101A30008F3F19F48AE592E009C00E94D723C82F8E
:101A40008093950C8F3F69F482E392E00E947817AF
:101A5000E0914410F091451060858EE00E942122B3
:101A60002DC00E94D723C82F8093980C8F3F19F464
:101A700086E092E0EBCF80EA94E090933607809383
:101A8000350780E780933407C1E0C0938B04109240
:101A900092042D2F302F4FEF5FEF612F80E397E0FF
:101AA0000E94681210938904D093950483ED9FEFF0
:101AB0000E947D15C0938A04C09388048C2FDF9107
:101AC000CF911F910F9108958091940C0E94E7246B
:101AD0008091940C08958091950C0E94E724809148
:101AE000950C089520918B04213039F4FC0110826B
:101AF000FB01108280E090E0089520913307FC0103
:101B0000208380913807FB01808380913507909175
:101B10003607089581E080938B040895109288041D
:101B20000C94EA1181E0809388040E941012809145
:101B3000980C0C94192581E08093A3060895809158
:101B40008A04089580918B04813099F00E94DA1202
:101B50000E94D412809160048F5F80936004833070
:101B600030F010928B048091940C0E9419258FEF15
:101B70000895109260040E94CB13813091F560911A
:101B800033076D306CF180919604811107C010927B
:101B90008B048091940C0E94192522C080913507F6
:101BA000909136070E9490168091350790913607E4
:101BB00020913307820F911D27FD9A95FC013197E3
:101BC00020812A3CA1F6319720812E3F81F6319762
:101BD00020812E3B61F6319780818F3EC1F2C7CFC5
:101BE00081E00895CF93DF9380918B04813011F0D1
:101BF0008FEF40C0D4E60E94CB13C82F813089F507
:101C0000609133076D30ACF180919604811107C06B
:101C100010928B048091940C0E9419252AC0809107
:101C20003507909136070E94901680913507909164
:101C3000360720913307820F911D27FD9A95FC01ED
:101C4000319720812A3CA1F6319720812E3F81F6E1
:101C5000319720812E3B61F6319780818F3EC1F212
:101C6000C7CF84E690E00E94F030D15021F68C2F4F
:101C700001C081E0DF91CF9108950F931F93CF931F
:101C800090919604992309F443C020914A0984E075
:101C9000820F382F3F7031F087FF02C083E1820F3F
:101CA000807F805F80934A0980914A09E0914B09C7
:101CB000F0914C09E80FF11D87FDFA9531978AECF8
:101CC000808380914A09E0914B09F0914C09E80F1B
:101CD000F11D87FDFA9532978EEF808380914A0936
:101CE000E0914B09F0914C09E80FF11D87FDFA9541
:101CF00033978EEB808380914A09E0914B09F091F4
:101D00004C09E80FF11D87FDFA9534978FEE80831B
:101D100060914A09062F112707FD1095E0914B09A4
:101D2000F0914C09C0E040E0242F30E0201731074B
:101D30003CF42E0F3F1FD9018C91C80F4F5FF4CF99
:101D4000992319F0CF010E944116E0914A09FF271B
:101D5000E7FDF095E657FE4FC08388E499E00E94C6
:101D6000DD12109292048091950C0E94192581E059
:101D7000CF911F910F910895CF93DF9300D0CDB7EE
:101D8000DEB70E949E2880918A048823D1F3809137
:101D9000980C0E94E7248A838F3F21F48AEE91E019
:101DA0000E947817612C712C22242A94322C809165
:101DB0009404813009F0E1C08093630461147104DC
:101DC00009F088C080919204811116C020E135E0AD
:101DD00030934C0920934B093FEF30931205309319
:101DE0001305109214051092150510921605109205
:101DF00017058CE080934A09E0914B09F0914C095A
:101E000090918E0480918F04908781871082E09159
:101E10004B09F0914C091182E0914B09F0914C096A
:101E20002091930430E1239FC0011124822B8287EB
:101E300080919004838787E694E00E944D2A309237
:101E400049092092480910924E0910924D090E94AA
:101E50003D0E0E94D4128091A306813009F043C048
:101E6000412C512CC20165E070E00E943537892B6E
:101E700021F483E090E00E94D01AE0914B09F091A8
:101E80004C098FEF8083E0914B09F0914C098183DD
:101E9000E0914B09F0914C091482E0914B09F091CB
:101EA0004C0915829CE090934A090E943D0E8AE0FD
:101EB00090E00E944529EFEF4E1A5E0AF8EE4F16A9
:101EC000F3E05F0679F683E090E00E94E71A109253
:101ED000A30609C00E94A20D2A81213021F470922C
:101EE0008D0460928C043FEF631A730A80918E0414
:101EF00090918F048615970528F48AE090E00E945F
:101F00004529ECC180906F0490907004A0907104FA
:101F1000B0907204C0907304D0907404E090750483
:101F2000F090760400916704109168042091690490
:101F300030916A0440916B0450916C0460916D047F
:101F400070916E0487E694E00E94572B87E694E038
:101F50000E94362B209167043091680440916904F7
:101F600050916A0460916B0470916C0480916D04CF
:101F700090916E040E94F1291ACF672809F057C08A
:101F80000E9410120E94D412612C712C0E94F20D3A
:101F90008A8387E694E00E944D2A8A81813009F580
:101FA000E0913507F0913607818190E0982F8827DE
:101FB0002081822B258130E0322F22274481242B5F
:101FC000232B21F48F3F2FEF920721F0892B09F467
:101FD00088C102C0612C712C31E030938B048FEFEB
:101FE0008A8394E669167104C0F010926304E0914C
:101FF0006104F0916204309729F0C301845691097D
:1020000009958983E981E13019F4612C712C05C0AF
:10201000F0E36F16F5E77F0618F42FEF621A720AE5
:1020200031E030938B048A81813009F0AFCFE091A9
:102030003507F09136079285892F82958F709F70B2
:10204000891B813118F48093870402C010928704A1
:1020500010927F04109280041092810410928204E6
:1020600010928304109284041092850410928604C6
:1020700010927704109278041092790410927A04E6
:10208000A0913307BB27A7FDB09520E03DE70E9454
:102090000B37DC01CB01935BA74FBF4F80937B04D1
:1020A00090937C04A0937D04B0937E04612C712CEA
:1020B0008091870490E06816790640F58090770457
:1020C00090907804A0907904B0907A04C0907B043A
:1020D000D0907C04E0907D04F0907E0400917F0419
:1020E00010918004209181043091820440918304F6
:1020F0005091840460918504709186048FE794E088
:102100000E94572B9FEF691A790AD2CFE1E0E09342
:1021100063040E94DA120E94EA118091980490915F
:10212000990460908E0470908F048615970508F4CA
:102130003C01412C512C4614570441F180906F040E
:1021400090907004A0907104B0907204C0907304D9
:10215000D0907404E0907504F090760400916704C8
:10216000109168042091690430916A0440916B04D5
:1021700050916C0460916D0470916E0487E694E058
:102180000E94572BFFEF4F1A5F0AD5CF80907F0434
:1021900090908004A0908104B0908204C090830449
:1021A000D0908404E0908504F09086040091670448
:1021B000109168042091690430916A0440916B0485
:1021C00050916C0460916D0470916E0487E694E008
:1021D0000E94AA2A87E694E00E94362B2091670489
:1021E000309168044091690450916A0460916B04D5
:1021F00070916C0480916D0490916E040E94F1299D
:10220000809192048130B1F4E0914B09F0914C0936
:102210006082E0914B09F0914C097182309249093A
:102220002092480910924E0910924D090E941012F6
:102230000E943D0E0E94DA120E94EA11412C512C9C
:1022400080918E0490918F0486199709481659063B
:1022500040F580906F0490907004A0907104B0904D
:102260007204C0907304D0907404E0907504F090F0
:1022700076040091670410916804209169043091FC
:102280006A0440916B0450916C0460916D047091EC
:102290006E0487E694E00E94572B2FEF421A520AF1
:1022A000CFCF87E694E00E94362B209167043091CF
:1022B00068044091690450916A0460916B047091C4
:1022C0006C0480916D0490916E040E94F1298091BC
:1022D0008804811103C00E949E28F9CF612C712CC3
:1022E00066CD828582958F7080939304818590E07E
:1022F000982F88272085822B90938F0480938E04BB
:10230000A3858A2F90E09093910480939004DC0140
:1023100020E432E44FE050E00E94123760937304EF
:1023200070937404809375049093760410926F04F4
:1023300010927004109271041092720452CE6CEBE1
:102340007EE080E896E00E94F23440E051E060E8F0
:1023500075E080E896E00E94F634E0E8F6E084E17B
:10236000808781E087838187828781E090E0A0E099
:10237000B0E083879487A587B6871786108A118A6D
:10238000128A87E090E0A0E0B0E0838B948BA58B6D
:10239000B68B178A108E118E128E138E148E158E98
:1023A000168E178E10A211A212A2CF010C940C2827
:1023B000909141019F719F31D9F38093420108951B
:1023C0008093A406089581E08093FC0E08951092F6
:1023D000FC0E0895809141018F718F31D9F3809166
:1023E00041018F71E1F08F30D1F0809141018F7107
:1023F000883031F4809139018260809339010BC0BB
:1024000088E00E94D811809141018F718830D9F7FE
:10241000F1CF8F3021F0809141018F71D1F7089574
:10242000809141018F718F31D9F3809141018F717A
:1024300011F08F3051F4809139018D7F80933901F3
:10244000809141018F718830D9F70895E5E4F1E07A
:102450009081907F908390818F70982B90830895C6
:10246000E7E5F1E080818D7F80830895E7E5F1E085
:102470008081826080830895EEE6F1E080818F7E26
:1024800080830895EEE6F1E0808180618083089585
:1024900080936001909361019093060F8093050FE4
:1024A00008959093000F8093FF0EE8E4F1E080819F
:1024B000807E80838081682B608308959093A80636
:1024C0008093A70608959093A6068093A506089585
:1024D0000F931F93CF93DF93FC01D90180E2809388
:1024E000440180EC8093450160626093480185EC73
:1024F0008093490187EA80934B0180E880934C01E7
:1025000020936001B0936101409362015093630195
:10251000C6E4D1E00881888198812881302F3295E6
:102520003695377060E4369F8001112422952695F8
:102530002370622F602B82958695837070E1879F50
:1025400090011124262B92959695937084E0989F84
:10255000B0011124622B60936D018881988192955E
:1025600096959370392F3064982F92959670932B8F
:1025700090936E0110926C0184E080934E01CFEF36
:10258000DEE0F983E8831A821B825D834C83BF837C
:10259000AE83188681E08093200F1092FC0EDF91AD
:1025A000CF911F910F91089586E10C94D81186E187
:1025B0000C94D81188E00C94D8110F931F93CF93EB
:1025C000DF93FC018091200F811102C08FEFACC01E
:1025D00026818091010F8F5F8093010F909181017F
:1025E000907E916020FB95F99F7390649093810198
:1025F00088E8809382018091FC0E882361F08FEF40
:10260000809383018AEA9AEA9093890180938801F2
:102610008FEF9FEF10C08091010F80938301209175
:1026200061018091600190E0922B909389018093E9
:102630008801808191819093870180938601209108
:1026400063018091620190E0922B909385018093C9
:1026500084018F014281552747FD50956381748124
:102660008AE891E00E940938F8018281855F8093B1
:10267000800180914101D82FDF719FEF9D0F923033
:10268000C0F3D131B1F3D231A1F3DF3191F398EF3F
:102690009D0F923020F08F70863009F097CF86E141
:1026A0000E94D811F801858181110BC089E00E9438
:1026B000D811F8018681882391F089E10E94D81110
:1026C0000EC080914801806880934801809141014B
:1026D00087FFFCCF8091410186FF78CFE7CF82E072
:1026E0000E94D81180E090E020914F0126FD05C0A6
:1026F0000196883EFDEF9F07B9F720E420934F0134
:10270000F8012681222331F020914201229526955D
:10271000277029F4883E9D4F11F0C1E001C0CFEF32
:102720008D2F0E94D8118C2FDF91CF911F910F9187
:102730000895CF93DF938091200F882341F18091FA
:102740004101C82FCF719FEF9C0F9230C0F3C13170
:10275000B1F3C231A1F3CF3191F3C83019F08F70CA
:102760008630A9F486E10E94D811809148018068E2
:10277000809348018091410187FFFCCFD0914101B6
:102780008C2F0E94D811D6FB882780F901C08FEFCB
:10279000DF91CF9108958091200F882309F4EBC039
:1027A00080914F0183FFE5C08091460187FFE1C022
:1027B00080917B01E091FF0EF091000F90E0029775
:1027C0002481332727FD3095281739070CF4D3C00F
:1027D00088E080934F01E091FF0EF091000F80910F
:1027E00082018083E091FF0EF091000F80918701BC
:1027F0009091880192838183E091FF0EF091000F08
:1028000080917B018B508383A091FF0EB091000FCC
:10281000E091FF0EF091000F13969C91848189172F
:102820003CF0E091FF0EF091000F838187FF0BC019
:1028300080914C018F7780934C0180914C0180688E
:1028400080934C0198C0A091FF0EB091000FE091D1
:10285000FF0EF091000F13964C91552747FD5095B0
:1028600069E871E0858196810E9409388091A4060B
:10287000882309F43EC0E091FF0EF091000F8381A0
:102880008031B9F5E091FF0EF091000F65817681FE
:1028900044E050E080E192E00E941238892B49F533
:1028A000E091FF0EF091000F6581768140E150E0EC
:1028B00080E192E00E941238892BD9F49DE088E1F2
:1028C0000FB6F894A895809360000FBE90936000B7
:1028D00080E090E00E94FE1A81E090E00E94FE1AE3
:1028E00082E090E00E94FE1A83E090E00E94FE1ACF
:1028F000FFCFE091FF0EF091000F8091800185FBEA
:10290000882780F98783E091FF0EF091000F809176
:1029100047018087E091FF0EF091000F8091460102
:102920008695869586958187E091FF0EF091000F40
:10293000809147018287A091FF0EB091000FE09136
:102940007B01F0E0E058FE4F80811B968C938091D4
:102950004C018F7780934C0180914C01806880936B
:102960004C01E091A506F091A606309731F009954B
:1029700004C080E008958FEF089581E008951F92CC
:102980000F920FB60F9211240BB60F922F933F9315
:102990004F935F936F937F938F939F93AF93BF9367
:1029A000EF93FF9385E793E00E94BD3888E0809322
:1029B0004F01E091A506F091A606309709F0099520
:1029C000FF91EF91BF91AF919F918F917F916F9107
:1029D0005F914F913F912F910F900BBE0F900FBEC3
:1029E0000F901F9018951F920F920FB60F921124FF
:1029F0008F9380E880934F018F910F900FBE0F90BF
:102A00001F9018951F920F920FB60F9211248F935B
:102A100080E480934F018F910F900FBE0F901F9015
:102A200018951F920F920FB60F9211248F9380E288
:102A300080934F018F910F900FBE0F901F901895AC
:102A40001F920F920FB60F9211248F9380E1809303
:102A50004F018F910F900FBE0F901F9018951F92EE
:102A60000F920FB60F9211240BB60F922F933F9334
:102A70004F935F936F937F938F939F93AF93BF9386
:102A8000EF93FF9384E080934F01E091A706F091CC
:102A9000A806309709F00995FF91EF91BF91AF918A
:102AA0009F918F917F916F915F914F913F912F9166
:102AB0000F900BBE0F900FBE0F901F9018951F9296
:102AC0000F920FB60F9211248F9382E080934F01E3
:102AD0008F910F900FBE0F901F9018951F920F921D
:102AE0000FB60F9211248F9381E080934F018F9145
:102AF0000F900FBE0F901F901895E9E4F1E09081C0
:102B0000907F908390818F70982B908308958FEFA2
:102B100008950895089508958FEF08958091FA0E0D
:102B20009091FB0E0895089581E0089581E0089545
:102B300081E00895089508950895089508950895E9
:102B40000895089598988DB1806E8DB98EB1806A80
:102B50008EB9089598988DB1806E8DB98EB18066CA
:102B60008EB90895CF92DF92EF92FF920F931F9349
:102B7000CF93DF93CDB7DEB727970FB6F894DEBFBC
:102B80000FBECDBF0E942F1CE091FF0EF091000FF1
:102B9000C080D380E580F68000850E94CB13181694
:102BA0001CF088E893E006C0F7011081111107C0FE
:102BB00087EA93E00E94BD380E94311C31C0153075
:102BC00021F48AE090E00E94B738C70101969F93F4
:102BD0008F93802F992787FD90959F930F931F9236
:102BE0001F931F92CF9289EC93E09F938F930E9443
:102BF000A338FD82EC821150F7011083DB821E8224
:102C00001F828FEF9FEF9A8389830E94311CCE0130
:102C100001960E94DD120FB6F894DEBF0FBECDBF45
:102C200027960FB6F894DEBF0FBECDBFDF91CF91D0
:102C30001F910F91FF90EF90DF90CF900895A0E14A
:102C4000BFE0FC01409620812D93219120933F010C
:102C5000E817F907C1F780E110923E018150E1F7D2
:102C600080E880933C0180913D0180FFFCCFE9E248
:102C7000FFE080E18E0F90913F0191938E13FBCF87
:102C80000895CF93DF93DC01662309F445C0862FB6
:102C90008F7009F041C0E0E1FFE090E19E0F2191CB
:102CA00020933F019E13FBCF90E070E0E0E240E113
:102CB000949F90011124261737077CF5911103C0CA
:102CC00010923C0102C0E0933C0140E050E02A0F2A
:102CD0003B1FE901C40FD51FF881F0933E014F5F00
:102CE0005F4F40315105A9F740913C014068409346
:102CF0003C0140913D0140FFFCCF40E050E0F091AD
:102D00003E01E901C40FD51FF8834F5F5F4F40318B
:102D10005105A9F79F5FCBCF81E0DF91CF91089557
:102D20000F931F93CF93DF93DC01613009F458C0F8
:102D3000862F8F7009F054C0E9E2FFE090E19E0F0A
:102D4000219120933F019E13FBCF62956F706150DC
:102D500078E06F3F09F445C070933C01462F55273A
:102D600047FD509520E030E0ED0190E16902C00D93
:102D7000D11D1124FE01E20FF31F908190933E01BB
:102D80002F5F3F4F20313105A9F790913C019068AA
:102D900090933C0190913D0190FFFCCF415051092F
:102DA00094E0440F551F9A95E1F720E030E09091B0
:102DB0003E018E01020F131FF8019083662349F034
:102DC000F901E40FF51FEA0FFB1FE0819E27F801D0
:102DD00090832F5F3F4F2031310549F76150B9CFC4
:102DE00081E0DF91CF911F910F9108959091C000E4
:102DF00095FFFCCF9091C0009F7D9093C000809381
:102E0000C60008951F920F920FB60F9211240BB6B1
:102E10000F922F933F934F935F936F937F938F9373
:102E20009F93AF93BF93EF93FF930E942F1C8091CA
:102E3000C00087FFFCCF8091C0008F778093C000D7
:102E40002091C60080912A0790912B07FC01E6553E
:102E5000F94F208301968038910529F090932B0734
:102E600080932A0704C010922B0710922A078091A2
:102E7000A9060E9419258091C0008F778093C00019
:102E80000E94311CFF91EF91BF91AF919F918F9163
:102E90007F916F915F914F913F912F910F900BBE5A
:102EA0000F900FBE0F901F90189581110DC081E0FB
:102EB00040912C0750912D0720912A0730912B0724
:102EC0004217530751F408C0813031F48091C80093
:102ED000881F8827881F089580E008958091A9069B
:102EE0008F3F19F48EE00E9414228091A906089564
:102EF000CF93DF93FC012491EC012196222351F022
:102F00006091371170913811822F90E00E946B38D8
:102F1000CE01F0CFDF91CF91089520912C07309111
:102F20002D0780912A0790912B072817390769F4FC
:102F30008091A9060E94E7246091A906772767FD82
:102F40007095872F972F0E948A256F3F21F489EC77
:102F500092E00E94781720912C0730912D07F901FB
:102F6000E655F94F80812F5F3F4F2038310528F417
:102F700030932D0720932C07089510922D0710925F
:102F80002C07089586E084B985B988EF8AB980EF67
:102F90008BB982E08DB908950C94C2178F3F09F464
:102FA0006CC0E82FE7704E2F50E04730510508F015
:102FB00064C0FA01E057FF4F8695869586950C947C
:102FC000E93742B121E030E0B90102C0660F771F56
:102FD0008A95E2F7CB01842B82B94DC045B121E03F
:102FE00030E0B90102C0660F771F8A95E2F7CB0186
:102FF000842B85B940C048B121E030E0B90102C05E
:10300000660F771F8A95E2F7CB01842B88B933C00E
:103010004BB121E030E0B90102C0660F771F8A95FD
:10302000E2F7CB01842B8BB926C04EB121E030E012
:10303000B90102C0660F771F8A95E2F7CB01842B96
:103040008EB919C041B321E030E0B90102C0660F6A
:10305000771F8A95E2F7CB01842B81BB0CC044B368
:1030600021E030E0B90102C0660F771F8A95E2F7D0
:10307000CB01842B84BB81E008958FEF08958F3FAF
:1030800009F473C0E82FE7704E2F50E04730510528
:1030900008F06BC0FA01E956FF4F86958695869534
:1030A0000C94E93742B121E030E0B90102C0660F6B
:1030B000771F8A95E2F7CB018095842382B953C0AC
:1030C00045B121E030E0B90102C0660F771F8A9553
:1030D000E2F7CB018095842385B945C048B121E052
:1030E00030E0B90102C0660F771F8A95E2F7CB0185
:1030F0008095842388B937C04BB121E030E0B90115
:1031000002C0660F771F8A95E2F7CB018095842372
:103110008BB929C04EB121E030E0B90102C0660F81
:10312000771F8A95E2F7CB01809584238EB91BC067
:1031300041B321E030E0B90102C0660F771F8A95E4
:10314000E2F7CB018095842381BB0DC044B321E01D
:1031500030E0B90102C0660F771F8A95E2F7CB0114
:103160008095842384BB81E008958FEF08958F3F7D
:1031700031F1E82FE7704E2F50E047305105F8F459
:10318000FA01E256FF4F282F2695269526950C9496
:10319000E93790B10BC093B109C096B107C099B19E
:1031A00005C09CB103C09FB101C092B3892F90E0CC
:1031B00002C0959587952A95E2F7817008958FEF63
:1031C00008958F3F09F406C1E82FE7704E2F50E0B5
:1031D0004730510508F0FEC0FA01EB55FF4F8695C8
:1031E000869586950C94E93720B130E0082E02C010
:1031F000359527950A94E2F742B120FD0BC021E0F6
:1032000030E0B90102C0660F771F8A95E2F7CB0163
:10321000842B0BC021E030E0B90102C0660F771F9C
:103220008A95E2F7CB018095842382B916C023B139
:1032300030E0082E02C0359527950A94E2F745B193
:1032400020FD0DC021E030E0B90102C0660F771FFC
:103250008A95E2F7CB01842B85B981E0089521E0BE
:1032600030E0B90102C0660F771F8A95E2F7CB0103
:1032700080958423F1CF26B130E0082E02C0359529
:1032800027950A94E2F748B120FD0BC021E030E019
:10329000B90102C0660F771F8A95E2F7CB01842B34
:1032A0000BC021E030E0B90102C0660F771F8A959C
:1032B000E2F7CB018095842388B9CFCF29B130E0E4
:1032C000082E02C0359527950A94E2F74BB120FDF0
:1032D0000BC021E030E0B90102C0660F771F8A956C
:1032E000E2F7CB01842B0BC021E030E0B90102C032
:1032F000660F771F8A95E2F7CB01809584238BB9FF
:10330000ACCF2CB130E0082E02C0359527950A9439
:10331000E2F74EB120FD0BC021E030E0B90102C060
:10332000660F771F8A95E2F7CB01842B0BC021E053
:1033300030E0B90102C0660F771F8A95E2F7CB0132
:10334000809584238EB989CF2FB130E0082E02C03A
:10335000359527950A94E2F741B320FD0BC021E093
:1033600030E0B90102C0660F771F8A95E2F7CB0102
:10337000842B0BC021E030E0B90102C0660F771F3B
:103380008A95E2F7CB018095842381BB66CF22B377
:1033900030E0082E02C0359527950A94E2F744B331
:1033A00020FD0BC021E030E0B90102C0660F771F9D
:1033B0008A95E2F7CB01842B0BC021E030E0B90104
:1033C00002C0660F771F8A95E2F7CB0180958423B0
:1033D00084BB43CF8FEF08958F3F09F4D5C0E82F0A
:1033E000E7704E2F50E0611167C04730510508F07B
:1033F000CBC0FA01E455FF4F8695869586950C94CF
:10340000E93741B121E030E0B90102C0660F771F12
:103410008A95E2F7CB018095842365C044B121E011
:1034200030E0B90102C0660F771F8A95E2F7CB0141
:103430008095842365C047B121E030E0B90102C026
:10344000660F771F8A95E2F7CB018095842365C0CC
:103450004AB121E030E0B90102C0660F771F8A95BA
:10346000E2F7CB018095842365C04DB121E030E0C7
:10347000B90102C0660F771F8A95E2F7CB018095EC
:10348000842365C040B321E030E0B90102C0660F7B
:10349000771F8A95E2F7CB018095842365C043B3FB
:1034A00021E030E0B90102C0660F771F8A95E2F78C
:1034B000CB018095842365C04730510508F064C076
:1034C000FA01ED54FF4F8695869586950C94E93761
:1034D00041B121E030E0B90102C0660F771F8A9543
:1034E000E2F7CB01842B81B94DC044B121E030E03B
:1034F000B90102C0660F771F8A95E2F7CB01842BD2
:1035000084B940C047B121E030E0B90102C0660F84
:10351000771F8A95E2F7CB01842B87B933C04AB174
:1035200021E030E0B90102C0660F771F8A95E2F70B
:10353000CB01842B8AB926C04DB121E030E0B9011E
:1035400002C0660F771F8A95E2F7CB01842B8DB9F5
:1035500019C040B321E030E0B90102C0660F771F07
:103560008A95E2F7CB01842B80BB0CC043B321E0EA
:1035700030E0B90102C0660F771F8A95E2F7CB01F0
:10358000842B83BB81E008958FEF0895811106C0DD
:1035900080B18695817091E0892708958FEF089515
:1035A000009711F483E20DC08130910511F48BE294
:1035B00008C08230910511F483E303C0039729F416
:1035C0008BE30E94E11881E008958FEF0895009742
:1035D00011F483E20DC08130910511F48BE208C033
:1035E0008230910511F483E303C0039729F48BE340
:1035F0000E94CE1781E008958FEF0895009711F48F
:1036000083E20DC08130910511F48BE208C0823055
:10361000910511F483E303C0039729F48BE30E941F
:103620003F1881E008958FEF0895882319F085B73A
:103630008F7E02C085B7806185BF81E0089590913B
:10364000C80095FFFCCF8093CE0008959093C500ED
:103650008093C40086E08093C200E1ECF0E08081BA
:103660008B7F8083A0ECB0E08C9182608C93808112
:103670008861808308959093CD008093CC0086E08C
:103680008093CA00E9ECF0E080818B7F8083A8EC16
:10369000B0E08C9182608C938081886180830895F2
:1036A0000E94261B6DE877E186EF96E10E942038A4
:1036B00090933811809337116DE877E186EF96E1AA
:1036C0000E94203890933611809335110E94D723A1
:1036D0008093A9068F3F19F48EE00E941422109265
:1036E0002D0710922C0710922B0710922A07809119
:1036F000C10080688093C10008958091C80087FF51
:10370000FCCF8091C8008F778093C8008091CE0055
:10371000089500000000000000000197D1F708950F
:103720000C947B390E9483390895EF92FF920F9396
:103730001F93CF93DF937C0180E090E00E947B3960
:10374000182FF701838381E090E00E947B39082FD6
:10375000F701828382E090E00E947B39D82FF70145
:10376000818383E090E00E947B39C82FF70180833A
:1037700084E090E00E947B39100FD10FCD0F8C17A1
:1037800011F08FEF01C081E0DF91CF911F910F9178
:10379000FF90EF900895CF93DF93EC0185E090E0E8
:1037A0000E947B39888381E0DF91CF910895FC01ED
:1037B000608186E090E00E94833981E00895CF9394
:1037C000DF93EC0186E090E00E947B39888381E002
:1037D000DF91CF9108950F931F93CF93DF938C01C7
:1037E000C0E0D0E0CE0108960E947B39F8018193B9
:1037F0008F012196C031D105A9F781E0DF91CF91EA
:103800001F910F9108950F931F93CF93DF938C0116
:10381000C0E0D0E0F80161918F01CE0108960E94CE
:1038200083392196C031D105A9F781E0DF91CF918D
:103830001F910F910895CF93DF93EC0187E090E003
:103840000E947B39888381E0DF91CF910895FC014C
:10385000608187E090E00E94833981E00895F894C8
:103860000895789408950E942F1CFFCFCF93DF9383
:10387000CDB7DEB7A3970FB6F894DEBF0FBECDBFAE
:103880000E94D72380932C108F3F21F460E08EE0BC
:103890000E9421220E94BA3280FF04C060E086E0CC
:1038A0000E9421220E94D1348F3F31F40E94B4340F
:1038B00060E080E10E9421220E94C2341092371001
:1038C000109245101092441010922E1010922D104C
:1038D000109246100E94E51D109243108FEF8093C6
:1038E00022108093241080932310809325108093BE
:1038F0002710809326108093281080932A1080939D
:10390000291080E090E033E62FEFFC01E75BF04FF9
:10391000328720878B96873D9105B9F7E6E1F1E183
:10392000CF01059694838383F783E683FC0181E1CD
:10393000EF32F807A9F71092181110921711109290
:1039400033111092321110923A101092391086E110
:1039500091E19093480F8093470F67ED7CE2CE0191
:1039600001960E94F23440E051E06BEA7CE0CE0127
:1039700001960E94F63485E58093AB0C19861C866F
:103980001D861E861F86188A198A1A8A1B8A1C8A17
:103990001D8A1E8A1F8A188E198E1A8E1B8E1C8EE7
:1039A0001D8E1E8E1F8E18A219A21AA21BA281E0C4
:1039B000888792E09A878B87CE0101960E940C2817
:1039C000A3960FB6F894DEBF0FBECDBFDF91CF91A7
:1039D000089501E51FE0C0E0F801D080FFEFDF129D
:1039E00022C0CF5F055D1F4FC530B1F70E94FB2697
:1039F0002BE28202C0011124FC01E75BF04F8285BB
:103A000080934610F0934510E0934410F0932E10ED
:103A1000E0932D10809337100E9468350E94523534
:103A20000E946C3516C081E5E82E8FE0F82ED0E0BC
:103A3000CD1741F0F7018081D81204C06D2D85E0CB
:103A40000E942122DF5FFBE2EF0EF11CD53081F7EF
:103A5000C8CFFFCFCF92DF92EF92FF920F931F93C9
:103A6000CF93DF93EC018B017A018985823021F0BD
:103A700080912B10888301C0188280912B10853093
:103A800020F060E087E00E9421228985823029F0C1
:103A900080912B108F5F80932B1080912B108111C0
:103AA00003C081E080932B1038812BE23203F001B8
:103AB0001124E75BF04F118300838885828738816A
:103AC0003203F0011124E75BF04F83E081873881F6
:103AD0003203F0011124E75BF04F308708810203C5
:103AE00080011124075B104FF8011582CE010B965F
:103AF0000E94692CF80161A372A383A394A38B8510
:103B00009C85AD85BE8588339948A144B10520F0D8
:103B1000688186E10E942122C880DD24C7FCD09400
:103B2000CE014B960E94692C1BE21C9DF0011D9D4D
:103B3000F00D1124E75BF04F658B768B878B908FB0
:103B400028812103C00111249C01275B304F6901AA
:103B5000F901458956896789708D81A192A1A3A138
:103B6000B4A1840F951FA61FB71F818F928FA38FBB
:103B7000B48FCE0143960E94692CF60165A376A30B
:103B800087A390A728812103F0011124E75BF04F60
:103B900085A196A1A7A1B0A5858F968FA78FB0A369
:103BA00081E090E092A781A7F382E2828487DF918F
:103BB000CF911F910F91FF90EF90DF90CF900895DC
:103BC0000C94F12C85E690E0089510922F1010923D
:103BD0003010109231101092321010923310109257
:103BE00034101092351010923610E0E8F0E180E0C9
:103BF00090E0108211821282138210861186128642
:103C000013861482158216821782148615861686EC
:103C10001786108A118A128A138A108E118E128EBC
:103C2000138EDC01A058BF4E5C961C925C975D968B
:103C30001C927E964E9686399105D9F608950F937B
:103C40001F93EFE2F0E1A82FB0E023EB36EE4EE059
:103C500050E00E9412370481158126813781DC01F2
:103C6000CB01800F911FA21FB31F84839583A6836E
:103C7000B783CF011F910F910C94362BEFE2F0E147
:103C80004081518162817381DC014D935D936D931D
:103C90007C9313974481558166817781FC0144832D
:103CA00055836683778308952EE1829FC001112496
:103CB000FC01E058FF4E858D813039F0848D8F5F97
:103CC000848F8F3F11F481E0858F08952EE1829FCC
:103CD000C0011124FC01E058FF4E858D8130B1F008
:103CE000148A158A168A178A80899189A289B389CC
:103CF0000196A11DB11D808B918BA28BB38B8E3F42
:103D00009F4FAF4FBF4F11F481E0858F08950F9300
:103D10001F932EE1829FC0011124FC01E058FF4E49
:103D2000858D813071F1808D918DA28DB38D01963D
:103D3000A11DB11D808F918FA28FB38F462F50E0B0
:103D400060E070E00489158926893789040F151F02
:103D5000261F371F048B158B268B378B0081118113
:103D600022813381400F511F621F731F4083518393
:103D7000628373838E3F9F4FAF4FBF4F11F481E03B
:103D8000858F1F910F910895CF92DF92EF92FF924E
:103D9000282F30E09EE1899FF0011124E058FF4E6A
:103DA000858D813009F44BC0462F50E060E070E013
:103DB00084899589A689B789840F951FA61FB71F87
:103DC00084879587A687B787C080D180E280F380FB
:103DD0004C0D5D1D6E1D7F1D408351836283738377
:103DE00044815581668177814115510561057105D1
:103DF00029F084179507A607B70760F44EE1429FA4
:103E0000F001439FF00D1124E058FF4E8483958309
:103E1000A683B7834EE1429FF001439FF00D11242A
:103E2000E058FF4E408551856285738548175907D4
:103E30006A077B0720F480879187A287B387FF906A
:103E4000EF90DF90CF9008958F929F92AF92BF92A4
:103E5000CF92DF92EF92FF920F931F93CF93DF9356
:103E6000CDB7DEB728970FB6F894DEBF0FBECDBF33
:103E7000182F8FEB93E00E947817A12EB12C1F9280
:103E80001F9382EF93E09F938F930E94A3380F902C
:103E90000F900F900F90111152C084EA93E00E948E
:103EA0007817CE0101960E944D2A6D817E818F8107
:103EB0009885E0E4CE2EE2E4DE2EEFE0EE2EF12C4B
:103EC000A70196010E9449375F934F933F932F9329
:103ED0008C818F938B818F938A818F9389818F932C
:103EE00005EF13E01F930F930E94A33883E893E03C
:103EF0000E947817609133107091341080913510C2
:103F000090913610A70196010E9449375F934F9315
:103F10003F932F93809132108F93809131108F9324
:103F2000809130108F9380912F108F931F930F9358
:103F30000E94A3380FB6F894DEBF0FBECDBF82E754
:103F400093E00E9478178EE18A9D80018B9D100D71
:103F5000112400581F4EF801608171818281938184
:103F60000E94322C29833A834B835C836D837E834A
:103F70008F8398876D817E818F81988520E4822E42
:103F800022E4922E2FE0A22EB12CA50194010E94D2
:103F900049375F934F933F932F938C818F938B81FE
:103FA0008F938A818F9389818F9335EFE32E33E04E
:103FB000F32EFF92EF920E94A33887E593E00E94D0
:103FC0007817F80164817581868197810E94322C6F
:103FD00029833A834B835C836D837E838F839887A9
:103FE0006D817E818F819885A50194010E9449375A
:103FF0005F934F933F932F938C818F938B818F93FC
:104000008A818F9389818F9345E0C42E44E0D42E1A
:10401000DF92CF920E94A338F8016485758586856A
:1040200097850E94322C29833A834B835C836D836E
:104030007E838F8398876D817E818F819885A5018E
:1040400094010E9449375F934F933F932F938C8144
:104050008F938B818F938A818F9389818F93DF9246
:10406000CF920E94A338F80160857185828593857F
:104070000E94322C29833A834B835C836D837E8339
:104080008F8398876D817E818F819885A5019401AA
:104090000E9449375F934F933F932F938C818F9367
:1040A0008B818F938A818F9389818F93FF92EF9277
:1040B0000E94A3380FB6F894DEBF0FBECDBF87E4D1
:1040C00093E00E947817F801709683818F93828124
:1040D0008F9381818F93F80180898F9357E1E52E2B
:1040E00054E0F52EFF92EF920E94A33884E393E010
:1040F0000E947817F801789683818F9382818F933D
:1041000081818F93F801808D8F93FF92EF920E94AF
:10411000A3388BE193E00E947817F801848D1F92F9
:104120008F936BE1E62E64E0F62EFF92EF920E94F1
:10413000A3388EEF92E00E947817F801858D1F92C8
:104140008F93FF92EF920E94A3388BEF92E00E9430
:1041500078170FB6F894DEBF0FBECDBF28960FB606
:10416000F894DEBF0FBECDBFDF91CF911F910F91AD
:10417000FF90EF90DF90CF90BF90AF909F908F9087
:104180000895CF938EED92E00E947817C0E08C2FB7
:104190000E94241FCF5FC530D1F7CF910895DB0176
:1041A000853008F054C09EE1899FF0011124E05849
:1041B000FF4E40815181628173814D935D936D9378
:1041C0007C931397448155816681778114964D9332
:1041D0005D936D937C9317974085518562857385B8
:1041E00018964D935D936D937C931B9744855585ED
:1041F000668577851C964D935D936D937C931F9791
:10420000408951896289738950964D935D936D936E
:104210007C935397448955896689778954964D9341
:104220005D936D937C935797408D518D628D738D07
:1042300058964D935D936D937C935B97848D5C96BC
:104240008C935C97858D5D968C9381E008958FEFBC
:104250000895E0914410F091451084870895E0910D
:104260004410F091451084850895FC018091970CCD
:10427000882331F0DB018C9380914009808381E0B9
:1042800008958091970C882309F483C086EF95E008
:104290000E947817809140091F928F9382EF93E0DC
:1042A0009F938F930E94A33882EF95E00E94781726
:1042B0000F900F900F900F908091970C883110F015
:1042C0001092970CE091970C8E2F90E0FC013197A3
:1042D000E631F10508F046C0E654FF4F0C94E9378B
:1042E00086EB95E041C08FE895E03EC08BE795E016
:1042F0003BC085E695E038C08AE495E035C084E3AC
:1043000095E032C08CE195E02FC089E095E02CC0AB
:1043100086EF94E029C088ED94E026C083EB94E01A
:1043200023C087EA94E020C08CE894E01DC08DE7AC
:1043300094E01AC089E694E017C088E594E014C0C0
:1043400084E494E011C084E294E00EC08CE094E038
:104350000BC081EF93E008C080EE93E005C081EDD3
:1043600093E002C08AEC93E00E94781760913711C5
:10437000709138118DE090E00E946B386091371198
:10438000709138118AE090E00E946B388091970C10
:10439000089580E0089513BC1092B60018BC17BCB5
:1043A00016BC15BC14BC1DBA1CBA1BBA10929B00DB
:1043B00010929A0010929900109298001092950015
:1043C00010929400109291001092900018BA1092DE
:1043D00071001092B4001092B3001092B2001092CB
:1043E000B100E0EBF0E01082108217BA109270007A
:1043F0008FEF84BF08950E942F1C0E94B4348091D7
:10440000970C803171F08351823058F00E94CB219B
:1044100082E096E00E9478170E94C2340E942F1C0E
:10442000FFCF1092970C08958093970CE091441061
:10443000F09145108085809340090E9441210C94A1
:10444000FB218093970C609340090E9441210C94BA
:10445000FB21CF93DF931F92CDB7DEB719828981FD
:10446000843640F480ED97E00E94F03089818F5FC0
:104470008983F5CF0F90DF91CF91089581E090E08F
:104480000E94FE1A0E9429220E9429220E942922AB
:1044900081E090E00E94E71A0C94292281E090E0EC
:1044A0000E94FE1A0E94292281E090E00E94E71AF1
:1044B0000C942922FF920F931F93CF93DF9300D088
:1044C0001F92CDB7DEB71F928F9382EF93E09F9339
:1044D0008F938E010F5F1F4F1F930F930E94ED3834
:1044E0000F900F900F900F900F900F90F12CF801FC
:1044F00001900020E9F73197E01BF10B8F2D90E040
:104500008E179F0708F05DC0F801E80FF91FE081E2
:104510008E2F90E0FC01F097EA30F10508F049C0D9
:10452000E053FF4F0C94E9370E943E2202C00E94E4
:104530004E220E943E220E943E220E943E220E9463
:104540003E2237C00E944E220E944E22F4CF0E948B
:104550004E220E944E220E944E22EFCF0E944E22F7
:104560000E944E220E944E220E944E22E8CF0E94BC
:104570004E2202C00E943E220E944E2204C00E948F
:104580003E220E943E220E944E2206C00E943E22EF
:104590000E943E220E943E220E944E2208C00E949B
:1045A0003E220E943E220E943E220E943E220E9403
:1045B0004E220E9429220E9429220E942922F3943D
:1045C00096CF0F900F900F90DF91CF911F910F9189
:1045D000FF9008956F927F928F929F92AF92BF92B9
:1045E000CF92DF92EF92FF920F931F93CF93DF93BF
:1045F00082E196E00E947817E0914410F091451016
:104600008085282F332727FD30953F938F938EE1A8
:1046100094E09F938F930E94A338E0914410F0910F
:104620004510C281D381DF93CF9382E594E09F93BD
:104630008F930E94A33888811F928F9387E294E022
:104640009F938F930E94A338E0914410F0914510FE
:1046500081818F9380818F9384E394E09F938F93E4
:104660000E94A338809145108F93809144108F93BE
:104670008EE394E09F938F930E94A338C9E4DFE018
:10468000EDB7FEB774960FB6F894FEBF0FBEEDBF40
:1046900000E010E08EE4682E84E0782E97E2892E08
:1046A00094E0992E24E3A22E24E0B22E3EE3C32E02
:1046B00034E0D32EEA80FB80FF92EF921F930F939A
:1046C0007F926F920E94A338F70180811F928F938F
:1046D0009F928F920E94A33889818F9388818F93B4
:1046E000BF92AF920E94A338DF93CF93DF92CF9215
:1046F0000E94A3380F5F1F4FAB96EDB7FEB77296BF
:104700000FB6F894FEBF0FBEEDBF0530110591F650
:10471000DF91CF911F910F91FF90EF90DF90CF909D
:10472000BF90AF909F908F907F906F900895CF93A0
:10473000DF93E0914410F0914510C281D3818881CC
:10474000853539F00E94EA2281E00E94142285E535
:104750008883E0914410F09145108081918181150A
:10476000924438F00E94EA2282E1DF91CF910C94CA
:104770001422DF91CF9108952BE28202C00111240F
:10478000FC01E75BF04FA281B3818C91853519F074
:1047900085E58C9308C0808191818115924428F031
:1047A00082E10E9414228FEF089581E008950F9313
:1047B0001F934091510B5091520B6091530B70918C
:1047C000540B80E090E08A019B01082E04C03695CE
:1047D0002795179507950A94D2F700FD19C001E0B7
:1047E00010E020E030E0082E04C0000F111F221F4F
:1047F000331F0A94D2F7402B512B622B732B40931B
:10480000510B5093520B6093530B7093540B05C094
:10481000019680329105B9F68FEF1F910F9108959F
:10482000E0914410F09145106585768587859089E3
:104830000895CF92DF92EF92FF920F931F93CF9341
:10484000DF93C12CD12C7601C394082E04C0CC0C6C
:10485000DD1CEE1CFF1C0A94D2F74091510B5091C5
:10486000520B6091530B7091540B4C215D216E21C2
:104870007F21452B462B472B09F460C0082F0E944F
:104880002F1CE2E5FFE0B701A60140955095609529
:10489000709513E0DF0111978C918F3F39F184817E
:1048A0009581A681B7818C159D05AE05BF0551F494
:1048B00010861186128613869F0122503109E90164
:1048C0001882108384239523A623B723848395839A
:1048D000A683B78380859185A285B385842395239C
:1048E000A623B72380879187A287B387BB96D0E1A1
:1048F000E932FD0779F68EEF9FEFAFEFBFEF04C00F
:10490000880F991FAA1FBB1F0A95D2F74091510B20
:104910005091520B6091530B7091540B842395234B
:10492000A623B7238093510B9093520BA093530B64
:10493000B093540B0E94311C81E001C08FEFDF91D6
:10494000CF911F910F91FF90EF90DF90CF9008953E
:104950000F931F9341E050E060E070E08A019B01FB
:1049600004C0000F111F221F331F8A95D2F7D901EF
:10497000C801E0914410F091451045855685678542
:1049800070890423152326233723012B022B032BA5
:10499000D1F080959095A095B095482359236A232E
:1049A0007B23458756876787708B41895289638946
:1049B000748984239523A623B723818B928BA38BA1
:1049C000B48B81E001C08FEF1F910F910895282FC4
:1049D0004091510B5091520B6091530B7091540BBD
:1049E000082E04C076956795579547950A94D2F797
:1049F00040FF1DC0E0914410F091451081E090E02F
:104A0000A0E0B0E004C0880F991FAA1FBB1F2A9521
:104A1000D2F74585568567857089842B952BA62B03
:104A2000B72B85879687A787B08B81E008958FEF96
:104A30000895CF92DF92EF92FF92CF93C12CD12CA9
:104A40007601C39404C0CC0CDD1CEE1CFF1C8A95BF
:104A5000D2F78091510B9091520BA091530BB091D2
:104A6000540B8C219D21AE21BF21892B8A2B8B2BAE
:104A700011F481E044C00E942F1CE0E5FFE0A2E5B4
:104A8000BFE0C0E083E090819130B9F44285538566
:104A9000648575854C215D216E217F21452B462B38
:104AA000472B59F08C9316861786108A118A10822C
:104AB000C286D386E486F586C1E090819230A1F467
:104AC00042855385648575854C155D056E057F05AA
:104AD00059F48C9316861786108A118A10821286D2
:104AE000138614861586C1E0BB969B9690E1E7324B
:104AF000F90749F60E94311CC11105C082E00E94ED
:104B000029218FEF01C081E0CF91FF90EF90DF90DE
:104B1000CF9008950F931F93E0914410F0914510AA
:104B200005851685278530890623172328233923F1
:104B3000011511052105310511F1DC01CB01818B36
:104B4000928BA38BB48B21E0278300902C1004C0A0
:104B5000B695A795979587950A94D2F780FF03C0DD
:104B60000E94742904C080E090E00E944529E091F1
:104B70004410F09145100189128923893489C901B3
:104B8000B8011F910F91089590914310923018F53C
:104B9000209122102F3F51F0209125102F3F41F0FE
:104BA000209128102F3F31F4E2E005C0E0E003C07F
:104BB000E1E001C0E3E0F0E09F01220F331FE20FCC
:104BC000F31FEE5DFF4E8283808361839F5F90932E
:104BD0004310CF01089580E090E0089520E18232F3
:104BE000920749F020E18532920739F088529041CE
:104BF00031F482E0089580E0089581E008958FEF18
:104C000008950E94EE258F3F11F481E003C08330A8
:104C100029F482E00E9429218FEF0895992787FDCA
:104C20009095FC01EE0FFF1F8E0F9F1FFC01EE5DA4
:104C3000FF4E82810895EF92FF920F931F93CF93BF
:104C4000DF931F92CDB7DEB70E94EE258F3F11F4A0
:104C500081E003C0833029F482E00E9429218FEF94
:104C600041C089830E942F1C8981E82EFF24E7FC24
:104C7000F0948701000F111FF801EE0DFF1DEE5D8E
:104C8000FF4E9281911116C0E0914410F0914510B1
:104C9000978192609783992787FD9095A92FB92FC7
:104CA000818B928BA38BB48B0E94311C80E090E0AF
:104CB0000E9445290E0D1F1DD801AE5DBF4E1296F4
:104CC0008C911297815012968C931297E091441018
:104CD000F091451011968C91838781E084830E9426
:104CE000311C81E00F90DF91CF911F910F91FF90C8
:104CF000EF9008950F931F93CF93DF931F92CDB73B
:104D0000DEB70E94EE258F3F11F481E003C08330AF
:104D100029F482E00E9429218FEF44C0482F5527B3
:104D200047FD50959A01220F331F240F351F89012B
:104D30000E5D1F4EF80122819081291794F5898319
:104D40000E942F1CF80192819F5F9283E091441092
:104D5000F09145101482E0E5FFE08981992787FDF5
:104D60009095A92FB92F23E03081323099F44285F4
:104D7000538564857585481759076A077B0751F481
:104D8000228316861786108A118A1082128613864D
:104D900014861586BB9630E1E732F30729F70E94A7
:104DA000311C81E00F90DF91CF911F910F910895F9
:104DB0000E94EE258F3F11F481E003C0833029F477
:104DC00082E00E9429218FEF0895992787FD909511
:104DD000FC01EE0FFF1F8E0F9F1FFC01EE5DFF4ECB
:104DE0008FEF8083828381838091431081508093F1
:104DF000431081E00895E0913910F0913A108081DC
:104E00000895E0913910F0913A10309721F0038025
:104E1000F481E02DFACF0895AF92BF92CF92DF9246
:104E2000EF92FF920F931F93CF93DF93E091470F81
:104E3000F091480F309709F494C000913910109107
:104E40003A100115110509F44CC0D8014BE2582F56
:104E5000540390011124275B304F79019AE0E90E49
:104E6000F11C6901C4E0CC0ED11C5901DBE0AD0E90
:104E7000B11C2C9130E0429FB001439F700D112472
:104E8000675B704FEB019C81992329F05B85E701FB
:104E90009881591740F1E6019881992369F0429F62
:104EA000B001439F700D1124675B704FEB015A8571
:104EB000E50198815917B8F0429FB001439F700DEA
:104EC00011249B01275B304FE9012A85E701988176
:104ED000291748F013960D90BC91A02D109749F614
:104EE00002C0A0E0B0E08083C381D481D093480F9A
:104EF000C093470FA017B107B1F4109749F0B483DE
:104F0000A383128211821296FC93EE93119706C02E
:104F10001482138212821182FA83E983F0933A1089
:104F2000E09339101EC0AC17BD0779F011968D9132
:104F30009C91129792838183B483A3831196CD9120
:104F4000DC911297FC83EB8308C0148213821196C4
:104F50008D919C911297928381831296FC93EE938C
:104F60001197DF91CF911F910F91FF90EF90DF90FC
:104F7000CF90BF90AF900895CF93DF93E091391019
:104F8000F0913A10309709F444C0992787FD909525
:104F9000208130E02817390781F4A381B481B093D0
:104FA0003A10A093391012961C921E92119718C0B5
:104FB0000380F481E02D309761F1208130E02817E3
:104FC0003907B1F7C181D281838194819C838B831E
:104FD000A381B481109721F01296DC93CE931197A0
:104FE000A091470FB091480F109739F4F093480FF4
:104FF000E093470F148213820AC0B483A3831296EE
:10500000FC93EE931197F093480FE093470F1282B1
:105010001182DF91CF910895EF92FF920F931F932A
:10502000CF93DF93EC014B815C8169817A818D8123
:105030009E810E9414352F81222371F04B815C8167
:10504000E12CF12C00E010E020E030E0BC01CE01CA
:105050000E942A1D1F820CC0E8812BE2E202F001AF
:105060001124E75BF04F21852330B9F491838083CD
:10507000E8818BE2E802F0011124E75BF04F8589BB
:105080009689A789B08D892B8A2B8B2B41F482E0DE
:10509000818788810E940C2702C08FEF01C081E0C8
:1050A000DF91CF911F910F91FF90EF9008951F9383
:1050B000CF93DF93CDB7DEB728970FB6F894DEBF56
:1050C0000FBECDBF29833A834B835C836D837E8380
:1050D0008F8398870E942F1C0E943E32182FCE018A
:1050E00001960E94692C6330710598F0E09144109C
:1050F000F0914510212F30E0620F731FCB01A0E02B
:10510000B0E0858B968BA78BB08F0E94311C81E01D
:1051100001C08FEF28960FB6F894DEBF0FBECDBF4B
:10512000DF91CF911F9108950E94E734E0914410E0
:10513000F091451085818111F7CF0895CF930E949A
:1051400097230E942F1CE0914410F091451081E0BC
:1051500090E092A781A785830E943E32C82F883FA6
:1051600080F40E94D8312C2F30E02F5F3F4F90E029
:105170002817390734F482E08C0F8093960C0E9434
:10518000DC310E94311C0E94942881E0CF91089567
:10519000E0914410F091451080850E94BC27E09179
:1051A0004410F091451084E081870E949E2881E0A0
:1051B0000895CF93DF93EC010E949723209711F479
:1051C000C1E0D0E00E942F1CE0914410F091451006
:1051D00081E08583D2A7C1A70E943E32C82F883FB5
:1051E00080F40E94D8312C2F30E02F5F3F4F90E0A9
:1051F0002817390734F482E08C0F8093960C0E94B4
:10520000DC310E94311C0E94942881E0DF91CF9113
:105210000895EF92FF920F931F93CF938C010E94FA
:105220002F1CE0914410F091451081E085830E948D
:105230003E32C82FE0914410F0914510E82EF12C39
:10524000C701800F911FA0E0B0E0858B968BA78BE4
:10525000B08FC83F78F40E94D8319FEFE91AF90A5D
:1052600090E0E816F90634F482E08C0F8093960CF7
:105270000E94DC310E94311C0E94942881E0CF9171
:105280001F910F91FF90EF900895CF93DF93EC0162
:105290000E942F1CE0914410F091451021E02583DD
:1052A000CE01A0E0B0E0858B968BA78BB08F0E94DB
:1052B0003E32C82F883F80F40E94D8312C2F30E036
:1052C0002F5F3F4F90E02817390734F482E08C0FAE
:1052D0008093960C0E94DC310E94311C0E9494281D
:1052E00081E0DF91CF910895CF930E942F1CE09130
:1052F0004410F091451081E0858386830E943E3200
:10530000C82F883F80F40E94D8312C2F30E02F5FC7
:105310003F4F90E02817390734F482E08C0F8093D8
:10532000960C0E94DC310E94311C0E94942881E07E
:10533000CF9108951F93CF93DF93CDB7DEB7289712
:105340000FB6F894DEBF0FBECDBF29833A834B83DF
:105350005C836D837E838F8398870E9497230E944E
:105360002F1CE0914410F091451081E0858381E08D
:1053700090E092A781A70E943E32182FCE0101969D
:105380000E94692CE0914410F0914510DC01CB01A2
:10539000810F911DA11DB11D858B968BA78BB08FA1
:1053A000183F80F40E94D831212F30E02F5F3F4F0B
:1053B00090E02817390734F482E0810F8093960C2F
:1053C0000E94DC310E94311C0E94942881E02896C2
:1053D0000FB6F894DEBF0FBECDBFDF91CF911F9106
:1053E00008958F929F92AF92BF92CF92DF92EF92E9
:1053F000FF920F931F93CF93DF93CDB7DEB76097E4
:105400000FB6F894DEBF0FBECDBF29873A874B8712
:105410005C876D877E878F87988BCE0101960E946F
:105420004D2A89809A80AB80BC80CD80DE80EF8061
:10543000F88409851A852B853C854D855E856F85A9
:105440007889CE0109960E94AA2A8F3F61F02985AA
:105450003A854B855C856D857E858F8598890E9410
:105460009A2981E001C08FEF60960FB6F894DEBFF5
:105470000FBECDBFDF91CF911F910F91FF90EF90A5
:10548000DF90CF90BF90AF909F908F900895E09164
:105490004410F0914510808508950F931F93CF938A
:1054A000DF93EC011C821D821E821F8280913B10C3
:1054B00090913C10A0913D10B0913E10888399834B
:1054C000AA83BB8380913F1090914010A09141101E
:1054D000B09142108C839D83AE83BF830E943E3285
:1054E000A82FB0E023EB36EE4EE050E00E941237DA
:1054F0000C811D812E813F81DC01CB01800F911F2A
:10550000A21FB31F8C839D83AE83BF838C819D813B
:10551000AE81BF8181152AEC92072AE9A2072BE30D
:10552000B20798F09A5CAA49BB438C839D83AE83F3
:10553000BF8388819981AA81BB810196A11DB11D7C
:1055400088839983AA83BB83E1CFDF91CF911F9199
:105550000F9108958F929F92AF92BF92CF92DF9258
:10556000EF92FF920F931F93CF93DF93CDB7DEB7E8
:1055700060970FB6F894DEBF0FBECDBFFC01098364
:105580001A832B833C834D835E836F837887898660
:105590009A86AB86BC86CD86DE86EF86F88A098140
:1055A0001A812B813C814D815E816F817885C98410
:1055B000DA84EB84FC848D859E85AF85B8890C15D3
:1055C0001D052E053F05F0F1C016D106E206F306D3
:1055D00091F4481759076A077B07A0F1481B590B3C
:1055E0006A0B7B0B44835583668377831082118219
:1055F0001282138225C0481759076A077B0780F477
:1056000001501109210931090C191D092E093F0901
:10561000008311832283338356536546744C08C03C
:105620000C191D092E093F0900831183228333833E
:10563000481B590B6A0B7B0B448355836683778326
:1056400081E001C08FEF60960FB6F894DEBF0FBE09
:10565000CDBFDF91CF911F910F91FF90EF90DF9021
:10566000CF90BF90AF909F908F900895FC014481A0
:1056700055816681778141158AEC58078AE9680768
:105680008BE3780798F05A5C6A497B4344835583DF
:105690006683778380819181A281B3810196A11D68
:1056A000B11D80839183A283B383E1CF08958F924C
:1056B0009F92AF92BF92CF92DF92EF92FF920F93A1
:1056C0001F93CF93DF93CDB7DEB760970FB6F894F3
:1056D000DEBF0FBECDBF09831A832B833C834D836E
:1056E0005E836F83788789869A86AB86BC86CD86F3
:1056F000DE86EF86F88A09851A852B853C854981E7
:105700005A816B817C81400F511F621F731FFC0106
:1057100040835183628373830D851E852F8538896D
:105720004D815E816F817885400F511F621F731F0D
:1057300044835583668377830E94362B81E060968D
:105740000FB6F894DEBF0FBECDBFDF91CF911F9192
:105750000F91FF90EF90DF90CF90BF90AF909F9010
:105760008F900895EBE3F0E16083718382839383EC
:10577000248335834683578308952F923F924F9217
:105780005F926F927F928F929F92AF92BF92CF92D1
:10579000DF92EF92FF920F931F93FC01C080D180A4
:1057A000E280F380C114D104E104F104E1F18481C9
:1057B0009581A681B78122E4C216D104E104F104E7
:1057C000F0F51C012D01612C712C4301E0E08E2FBE
:1057D00090E0A0E0B0E08C159D05AE05BF0588F413
:1057E0009101A201B301C40136534546544C6F4F99
:1057F0007F4F8F4F9F4F19012A013B014C01EF5FF3
:10580000E6CF83EBA82E96EEB92E2EE0C22ED12C39
:10581000E12CF12C00E010E09101A201B301C401E0
:105820000E9484370AC0648175818681978123EB49
:1058300036EE4EE050E00E944937C90102C080E0D8
:1058400090E01F910F91FF90EF90DF90CF90BF906D
:10585000AF909F908F907F906F905F904F903F9010
:105860002F900895CF92DF92EF92FF92CF93DF9324
:10587000CDB7DEB728970FB6F894DEBF0FBECDBF09
:105880006B017C012AE0F694E794D794C7942A959B
:10589000D1F7C982DA82EB82FC829B01AC013370C2
:1058A0004427552763EB76EE8EE090E00E94253783
:1058B0002C2D3A814B815C8128960FB6F894DEBF7F
:1058C0000FBECDBFDF91CF91FF90EF90DF90CF90D3
:1058D00008952F923F924F925F926F927F928F9294
:1058E0009F92AF92BF92CF92DF92EF92FF920F936F
:1058F0001F93FC01C080D180E280F380C114D104E9
:10590000E104F104B9F184819581A681B7811C017C
:105910002D01612C712C4301E0E08E2F90E0A0E07E
:10592000B0E08C159D05AE05BF0588F49101A2017C
:10593000B301C40136534546544C6F4F7F4F8F4FD0
:105940009F4F19012A013B014C01EF5FE6CF83EB2A
:10595000A82E96EEB92E2EE0C22ED12CE12CF12CE1
:1059600000E010E09101A201B301C4010E9484375C
:10597000CA010BC0648175818681978123EB36EE65
:105980004EE050E00E944937CA01B9011F910F91C2
:10599000FF90EF90DF90CF90BF90AF909F908F904F
:1059A0007F906F905F904F903F902F900895C1E04F
:1059B0000E9497230E94D831843010F4C09338108D
:1059C0000E94E7348091AB0C853519F088E00E9485
:1059D00014228091FE40853559F388E00E941422FC
:1059E000E7CF2F923F924F925F926F927F928F926A
:1059F0009F92AF92BF92CF92DF92EF92FF920F935E
:105A00001F93CF93DF930E94311C8AEF0E94DC31F9
:105A10000E94D8340E94A62FC091960CAC2FB0E003
:105A200023EB36EE4EE050E00E94123700913F101B
:105A30001091401020914110309142106B017C0177
:105A4000C00ED11EE21EF31EC701B60123EB36EED7
:105A50004EE050E00E944937C61AD70AE80AF90A10
:105A6000C0923F10D0924010E0924110F09242104C
:105A7000E0914410F09145108085811130C08091F3
:105A80003810823019F48C2F0E941F1EE0914410B0
:105A9000F09145106091960C80850E94871EE091E0
:105AA0004410F091451060E080850E94C41E8091F2
:105AB0003F1090914010A0914110B0914210009180
:105AC0003B1010913C1020913D1030913E1053EB53
:105AD000452E56EE552E5EE0652E712C07C0958141
