:100000000C946D030C9414300C9446300C9478309E
:100010000C948C030C948C030C948C030C948C0324
:100020000C948C030C94E22F0C948C030C948C0392
:100030000C948C030C94412E0C948C030C94412E44
:100040000C948C030C948C030C948C030C948C03F4
:100050000C948C030C948C030C948C030C948C03E4
:100060000C948C030C94F8120C948C030C948C0359
:100070000C948C030C948C030C948C030C948C03C4
:100080000C94742E0C948C030C948C030C948C03A1
:100090000C948C030C948C030C948C030C948C03A4
:1000A0000C948C030C948C030C948C030C948C0394
:1000B0000C948C030C948C030C948C030C948C0384
:1000C0000C948C030C948C030C948C030C948C0374
:1000D0000C948C030C948C030C948C030C948C0364
:1000E0000C948C030C9464110C9455110C942511F0
:1000F0000C94B5100C9416110C9407110C94F81074
:100100000C94E9100C948C030C948C030C948C03C9
:100110000C948C030C948C030C948C030C948C0323
:10012000D713E413F113FE130B14181425144814F9
:1001300056146414721480148E149C14BF14C114C9
:10014000C314C514C714C914CB14EA140D15311502
:10015000541577159A15BD15F715041611161E16A8
:100160002B16381645165E166B16781685169216DF
:100170009F16AC166C1D721D751D781D7B1D7E1D96
:10018000841D811D871D8A1D8D1D961D991D9C1D19
:100190009F1D931D691D6F1DA21DA51D901D661D30
:1001A0008A1E8D1E981E9D1EA41EAD1EB01EB51E5D
:1001B000BC1EC51E4E616E6F2D524B20566572736C
:1001C000696F6E20004661696C656420746F2072EF
:1001D00065676973746572207369676E616C0D0A77
:1001E0000054444D41204552524F523A20637265AB
:1001F0006174696E6720656E61626C652073696702
:100200006E616C206661696C65640D0A0054444D32
:1002100041204552524F523A206372656174696EB3
:1002200067207478207369676E616C206661696C01
:1002300065640D0A0054444D41204552524F523AD4
:10024000206372656174696E6720727820736967D4
:100250006E616C206661696C65640D0A0054444DE2
:10026000412054583A20576F6B65207570206F6E8F
:100270002077726F6E67207369676E616C0D0A007C
:1002800054444D412054583A204572726F72206395
:10029000616C6C696E67206576656E742077616944
:1002A000740D0A004D616C666F726D656420455374
:1002B000432073657175656E63650D0A004368655B
:1002C000636B73756D206661696C65643A200053D9
:1002D0004C4950205258206572726F723A206E72EB
:1002E0006B5F7369676E616C5F7265676973746574
:1002F000720D0A00534C4950205258206572726F9B
:10030000723A20476574205369676E616C0D0A006C
:10031000534C4950205458204552524F523A2020B5
:1003200052656C65617365206F662073656D6170E1
:10033000686F7265206661696C65640D0A00534CD4
:100340004950205458204552524F523A2020416380
:100350006365737320746F2073656D6170686F726D
:1003600065206661696C65640D0A007561727420B0
:10037000727820736967206661696C65640D0A0094
:100380000D0A4E616E6F2D524B205461736B2053DA
:100390007461746973746963733A0D0A000D0A001D
:1003A0000D0A2020204F766572666C6F77204572AB
:1003B000726F72205374617475733A20000D0A20B5
:1003C00020204B65726E656C2056696F6C61746994
:1003D0006F6E733A20000D0A202020507265656D03
:1003E0007074696F6E733A20000D0A2020205377D5
:1003F00061702D696E733A20000D0A202020546927
:100400006D65205B4D696E2C4C6173742C4D617869
:100410005D3A20000D0A202020546F74616C204347
:1004200050553A20000D0A20202049646C65205464
:1004300061736B204465657020536C656570205452
:10044000696D653A20000D0A202020546F74616C9C
:100450002053797374656D20557074696D653A2009
:1004600000205461736B2049443A2000554E4B4F95
:10047000574E0045787465726E616C2052657365E5
:10048000740042726F776E204F75742044657465F6
:100490006374004661696C656420746F20637265E3
:1004A0006174652053656D6170686F7265004661A7
:1004B000696C656420746F20637265617465205394
:1004C00069676E616C004B65726E656C2066756E57
:1004D0006374696F6E206E6F7420696D706C656DEA
:1004E000656E74656400446576696365204472696D
:1004F000766572204572726F72005761746368642A
:100500006F6720526573746172740053572057618E
:10051000746368646F672052657374617274005409
:10052000696D6572204F766572666C6F7700556EE7
:1005300068616E646C656420496E74657272757072
:100540007420566563746F72004C6F7720566F6C21
:1005500074616765004578747261205461736B2023
:10056000737461727465642C206973206E726B5FA2
:100570006366672E68206F6B3F0049646C65206F6F
:1005800072204B65726E656C20537461636B204FF3
:10059000766572666C6F7700556E6578706563740A
:1005A00065642052657374617274004475706C697F
:1005B0006361746564205461736B20494400536324
:1005C000686564756C6572204D6973736564205746
:1005D000616B657570005461736B20526573657251
:1005E00076652056696F6C61746564005265736549
:1005F000727665204572726F7220696E205363684F
:100600006564756C657200496E76616C696420532F
:100610007461636B20506F696E746572005461730E
:100620006B20537461636B204F766572666C6F77D5
:1006300000537461636B20776173206E6F74206464
:100640006566696E6564206173206C617267652000
:10065000656E6F75676821005461736B20706572F9
:10066000696F6420746F6F206C617267652E205013
:100670006572696F64206D757374206265206C65A6
:100680007373207468616E203631207365636F6EFA
:1006900064732E00293A20002A4E524B20455252B4
:1006A0004F5228004E524B205265626F6F742E2EAF
:1006B0002E0D0A000D0A535441434B2044554D5012
:1006C0000D0A0045464765666700202B2D2E303108
:1006D0003233343536373839680011241FBECFEF36
:1006E000D1E4DEBFCDBF14E0A0E0B2E0E2EEFDE673
:1006F00000E00BBF02C007900D92A232B107D9F7FC
:100700001DE0A2E2B4E001C01D92A33CB107E1F7F5
:100710000E948D310C94EF360C94372E0E943D26AA
:100720001F928F9388E792E09F938F930E94B1343A
:100730000F900F900F900F9061E972E081EB99E0BC
:100740000E94DB33E1EBF9E001900020E9F73197FB
:10075000E15BF94041E04E0F20E061EB79E081E29E
:100760009AE00E94B40583E090E00E94C616E4CFB0
:10077000CF93DF93CDB7DEB729970FB6F894DEBFDE
:100780000FBECDBF84EB91E00E946E131F9285E6F1
:100790008F938AEF92E09F938F930E94B1340E94CF
:1007A0003D261F928F9386EA92E09F938F930E943B
:1007B000B1348EE190E0A0E0B0E089839A83AB830E
:1007C000BC831D821E821F82188640E050E0BE015D
:1007D0006F5F7F4F80E090E00E94182C80E090E0F7
:1007E0000E94932C1092040810920508109206089B
:1007F000109207081F921F921F921F928CEB92E09B
:100800009F938F930E94B1341F928AE18F938BEC58
:1008100092E09F938F930E94B1340FB6F894DEBF9D
:100820000FBECDBFE0E0F2E080E090E19E0F2191AD
:10083000820F9E13FCCF89871F928F9387ED92E0E2
:100840009F938F930E94B134409104085091050802
:100850006AE181E00E942C078AE090E00E949805FE
:1008600084E690E00E94AF0583E090E00E942907B3
:1008700080E092E00E945B050E945D056091BB0DE7
:100880007091BC0D20E040E08091B90D9091BA0DBF
:100890000E94220C1092340A1092330A1092090816
:1008A000109208080F900F900F900F900E94E90788
:1008B000811103C00E949424F9CF81E090E00E944E
:1008C000F4168BEEE82E82E0F82E9FEFC92E92E010
:1008D000D92E2AE0A22E23E0B22E3AE1832E33E075
:1008E000932E20E0AE01475F5F4F6AE179E086EF2B
:1008F0009AE00E945B06182F82E090E00E94F416B6
:10090000113079F78091040B8F938091030B8F93B3
:100910008091FE0A8F938091FD0A8F93FF92EF9250
:100920000E94B1348091F70A8F938091F60A8F93D9
:10093000DF92CF920E94B1348091F90A8F93809117
:10094000F80A8F93BF92AF920E94B13489851F92AB
:100950008F939F928F920E94B1340FB6F894DEBFAE
:100960000FBECDBF10E08985181750F4E12FF0E0DD
:10097000E65EF64F808190E00E94C5341F5FF3CFA2
:1009800088E693E00E94CB3483E090E00E94F41666
:100990000E94D40782E090E00E94DD1680E090E0A3
:1009A0000E943C2C9ECF8F929F92AF92BF92CF928B
:1009B000DF92EF92FF92CF9368EB73E08EE899E0BD
:1009C0000E94E83040E051E06AE178E08EE899E08A
:1009D0000E94EC30EEE8F9E082E38087C1E0C78353
:1009E000C187C287138614861586168680E8882EEE
:1009F00082EB982E86EEA82E8EE0B82E8786908AFF
:100A0000A18AB28A138A148A158A168AC12C95E69D
:100A1000D92E9DECE92E9DE1F92EC78AD08EE18E6C
:100A2000F28E138E148E158E168E178E10A211A2B2
:100A300012A2CF010E9402246EE873E087E39AE0DD
:100A40000E94E83040E051E063E077E087E39AE01D
:100A50000E94EC30E7E3FAE0C087C783C187C28712
:100A600081E090E0A0E0B0E083879487A587B68717
:100A70008786908AA18AB28A838B948BA58BB68B4A
:100A8000C78AD08EE18EF28E138E148E158E168E3E
:100A9000178E10A211A212A2CF010E940224CF91A0
:100AA000FF90EF90DF90CF90BF90AF909F908F908E
:100AB0000C94E90B08950C94151281E0809358046E
:100AC000089581E080935804089580912504089545
:100AD000009731F0909324048093230481E00895DB
:100AE0008FEF089590935B0480935A0481E0809384
:100AF000590408958FEF089580E090E008958032C2
:100B000020F40E941C0E81E008958FEF08958B3130
:100B100068F4682F80934B0424E132E140E254E210
:100B200087EF96E00E945E0E81E008958FEF0895B2
:100B30009093530480935204E1E3F4E0DC0120E459
:100B400032E44FE050E00E94023364837583868371
:100B50009783108211821282138281E0089590930C
:100B60005104809350040895CF92DF92EF92FF9248
:100B7000CF93DF9300D0CDB7DEB76C017B018091BE
:100B80005404813009F48DC0442309F48AC06115EE
:100B9000710509F486C0C114D10409F482C0211181
:100BA00008C080915C0A2A8349830E94DD20498124
:100BB0002A8181E08093540482ED94E090930F08A1
:100BC00080930E08F60181818093D3048081809305
:100BD000D204858196819093D5048093D40480912A
:100BE00057048093D7041092D6048185928501968C
:100BF000928781879093D9048093D80483818093CE
:100C0000DB0482818093DA0430915504F0E13F9F48
:100C1000C0011124832B8093DC045E2DF7018CE04E
:100C200090E03E2F351B341750F43191A0910E08FF
:100C3000B0910F08A80FB91F3C930196F2CF445F03
:100C400040930D0821112BC081E090E0A0E0B0E0BE
:100C5000BC01CD0100905C0A04C0660F771F881F9D
:100C6000991F0A94D2F70E9480216B017C016115C3
:100C700071058105910521F480E892E00E946E13D0
:100C800000905C0A04C0F694E794D794C7940A9441
:100C9000D2F7C0FC04C08DE592E00E946E1381E0A3
:100CA00001C08FEF0F900F90DF91CF91FF90EF90E9
:100CB000DF90CF9008958F929F92AF92BF92CF9284
:100CC000DF92EF92FF920F931F93CF93DF931F92C8
:100CD000CDB7DEB74C018B015A0180914D04211133
:100CE0001CC08130F1F480915B0A29830E94DD20D1
:100CF00081E090E0A0E0B0E0BC01CD0100905B0A93
:100D000004C0660F771F881F991F0A94D2F70E94AC
:100D100080216B017C01298104C0813011F48FEFA7
:100D20007CC08091FA068C30D4F38C50D5018C9322
:100D300080E0F5019081891778F4482F50E0E09128
:100D4000FC06F091FD06E40FF51F9485F801E40F11
:100D5000F51F90838F5FEDCF8091FF06992787FD68
:100D60009095D4011E969C938E931D9780910007B9
:100D70001F968C931F978091010750968C935097E4
:100D80008091020751968C935197E091FC06F09167
:100D9000FD06858190E0982F88273481832B189653
:100DA0009C938E931797838190E0982F88273281A8
:100DB000832B16969C938E931597818190E0982FA4
:100DC00088273081832B11969C938E93878190E0A6
:100DD000982F88273681832B1A969C938E93199788
:100DE000818590E0982F88273085832B13969C93DC
:100DF0008E93129782851C968C9321110BC00090C4
:100E00005B0A04C0F694E794D794C7940A94D2F787
:100E1000C0FE85CF81E080934D040F90DF91CF918C
:100E20001F910F91FF90EF90DF90CF90BF90AF9008
:100E30009F908F900895009751F09093FD068093B6
:100E4000FC066093FB0681E080934D0408958FEFCC
:100E500008958093550408950F931F93CF93DF93C4
:100E6000162FD42F052F9FEF90932804109227045C
:100E700010922604809356041092590483E08093C4
:100E800055041092250480E094E0909351048093DF
:100E9000500480E896E9A8E9B0E080933504909387
:100EA0003604A0933704B0933804109231041092A2
:100EB000320410923304109234040E94CD1FC82FC4
:100EC00080935B0A8F3F19F485E392E009C00E948A
:100ED000CD1FC82F80935C0A8F3F69F48DE092E0AC
:100EE0000E946E13E091560DF091570D60858EE0D3
:100EF0000E94171E2DC00E94CD1FC82F8093F50A97
:100F00008F3F19F481EE91E0EBCF82E694E090936D
:100F1000FD068093FC0680E78093FB06C1E0C0934A
:100F20004D04109254042D2F302F4FEF5FEF612F9F
:100F300087EF96E00E945E0E10934B04D093570407
:100F400083ED9FEF0E947311C0934C04C0934A0439
:100F50008C2FDF91CF911F910F91089580915B0AA3
:100F60000E94DD2080915B0A089580915C0A0E94B6
:100F7000DD2080915C0A089520914D04213039F4E0
:100F8000FC011082FB01108280E090E00895209126
:100F9000FA06FC0120838091FF06FB01808380918B
:100FA000FC069091FD06089581E080934D0408951C
:100FB00010924A040C94E00D81E080934A040E9450
:100FC000060E8091F50A0C940F2181E0809365064E
:100FD000089580914C04089580914D04813099F0DA
:100FE0000E94D00E0E94CA0E809122048F5F8093CF
:100FF0002204833030F010924D0480915B0A0E94ED
:101000000F218FEF0895109222040E94C10F8130AA
:1010100091F56091FA066D306CF180915804811160
:1010200007C010924D0480915B0A0E940F2122C0DC
:101030008091FC069091FD060E9486128091FC062C
:101040009091FD062091FA06820F911D27FD9A9539
:10105000FC01319720812A3CA1F6319720812E3F57
:1010600081F6319720812E3B61F6319780818F3E4A
:10107000C1F2C7CF81E00895CF93DF9380914D04F3
:10108000813011F08FEF40C0D4E60E94C10FC82F0D
:10109000813089F56091FA066D30ACF18091580489
:1010A000811107C010924D0480915B0A0E940F21AC
:1010B0002AC08091FC069091FD060E9486128091C4
:1010C000FC069091FD062091FA06820F911D27FDE6
:1010D0009A95FC01319720812A3CA1F63197208115
:1010E0002E3F81F6319720812E3B61F6319780812A
:1010F0008F3EC1F2C7CF84E690E00E94E62CD1502B
:1011000021F68C2F01C081E0DF91CF9108950F93DC
:101110001F93CF9390915804992309F443C02091D1
:101120000D0884E0820F382F3F7031F087FF02C036
:1011300083E1820F807F805F80930D0880910D088E
:10114000E0910E08F0910F08E80FF11D87FDFA9568
:1011500031978AEC808380910D08E0910E08F09120
:101160000F08E80FF11D87FDFA9532978EEF808307
:1011700080910D08E0910E08F0910F08E80FF11D25
:1011800087FDFA9533978EEB808380910D08E0916F
:101190000E08F0910F08E80FF11D87FDFA953497BE
:1011A0008FEE808360910D08062F112707FD1095A3
:1011B000E0910E08F0910F08C0E040E0242F30E0ED
:1011C000201731073CF42E0F3F1FD9018C91C80F17
:1011D0004F5FF4CF992319F0CF010E943712E091AD
:1011E0000D08FF27E7FDF095E657FE4FC0838BE023
:1011F00098E00E94D30E1092540480915C0A0E94E1
:101200000F2181E0CF911F910F910895CF93DF932C
:1012100000D0CDB7DEB70E94942480914C0488237F
:10122000D1F38091F50A0E94DD208A838F3F21F45B
:1012300085EC91E00E946E13612C712C22242A947B
:10124000322C80915604813009F0E1C0809325044E
:101250006114710409F088C080915404811116C092
:1012600022ED34E030930F0820930E083FEF3093C7
:10127000D4043093D5041092D6041092D70410925F
:10128000D8041092D9048CE080930D08E0910E08E8
:10129000F0910F08909150048091510490878187BC
:1012A0001082E0910E08F0910F081182E0910E0873
:1012B000F0910F082091550430E1239FC0011124C3
:1012C000822B828780915204838789E294E00E9476
:1012D000432630920C0820920B08109211081092AD
:1012E00010080E9487080E94CA0E8091650681300E
:1012F00009F043C0412C512CC20165E070E00E940E
:101300001D33892B21F483E090E00E94C616E09102
:101310000E08F0910F088FEF8083E0910E08F09196
:101320000F088183E0910E08F0910F081482E0917C
:101330000E08F0910F0815829CE090930D080E9412
:1013400087088AE090E00E943B25EFEF4E1A5E0A84
:10135000F8EE4F16F3E05F0679F683E090E00E9426
:10136000DD161092650609C00E94EC072A81213023
:1013700021F470924F0460924E043FEF631A730A97
:1013800080915004909151048615970528F48AE0C5
:1013900090E00E943B25ECC1809031049090320493
:1013A000A0903304B0903404C0903504D09036043B
:1013B000E0903704F09038040091290410912A0439
:1013C00020912B0430912C0440912D0450912E0437
:1013D00060912F047091300489E294E00E944D27BF
:1013E00089E294E00E942C272091290430912A045C
:1013F00040912B0450912C0460912D0470912E0487
:1014000080912F04909130040E94E7251ACF67281D
:1014100009F057C00E94060E0E94CA0E612C712C62
:101420000E943C088A8389E294E00E9443268A81D4
:10143000813009F5E091FC06F091FD06818190E094
:10144000982F88272081822B258130E0322F222778
:101450004481242B232B21F48F3F2FEF920721F07F
:10146000892B09F488C102C0612C712C31E03093C2
:101470004D048FEF8A8394E669167104C0F01092D0
:101480002504E0912304F0912404309729F0C3014E
:101490008456910909958983E981E13019F4612C19
:1014A000712C05C0F0E36F16F5E77F0618F42FEFF7
:1014B000621A720A31E030934D048A81813009F05A
:1014C000AFCFE091FC06F091FD069285892F8295C1
:1014D0008F709F70891B813118F48093490402C07A
:1014E0001092490410924104109242041092430455
:1014F000109244041092450410924604109247043E
:10150000109248041092390410923A0410923B044D
:1015100010923C04A091FA06BB27A7FDB09520E0ED
:101520003DE70E94FB32DC01CB01935BA74FBF4F2D
:1015300080933D0490933E04A0933F04B0934004F5
:10154000612C712C8091490490E06816790640F571
:101550008090390490903A04A0903B04B0903C04F1
:10156000C0903D04D0903E04E0903F04F0904004D1
:1015700000914104109142042091430430914404AD
:10158000409145045091460460914704709148048D
:1015900081E494E00E944D279FEF691A790AD2CF27
:1015A000E1E0E09325040E94D00E0E94E00D8091BE
:1015B0005A0490915B046090500470905104861519
:1015C000970508F43C01412C512C4614570441F175
:1015D0008090310490903204A0903304B090340491
:1015E000C0903504D0903604E0903704F090380471
:1015F0000091290410912A0420912B0430912C048D
:1016000040912D0450912E0460912F04709130046C
:1016100089E294E00E944D27FFEF4F1A5F0AD5CF71
:101620008090410490904204A0904304B090440400
:10163000C0904504D0904604E0904704F0904804E0
:101640000091290410912A0420912B0430912C043C
:1016500040912D0450912E0460912F04709130041C
:1016600089E294E00E94A02689E294E00E942C275F
:101670002091290430912A0440912B0450912C048C
:1016800060912D0470912E0480912F04909130046C
:101690000E94E725809154048130B1F4E0910E0856
:1016A000F0910F086082E0910E08F0910F087182AE
:1016B00030920C0820920B0810921108109210081A
:1016C0000E94060E0E9487080E94D00E0E94E00D24
:1016D000412C512C80915004909151048619970906
:1016E0004816590640F58090310490903204A0903D
:1016F0003304B0903404C0903504D0903604E090A8
:101700003704F09038040091290410912A042091A4
:101710002B0430912C0440912D0450912E046091A3
:101720002F047091300489E294E00E944D272FEF3E
:10173000421A520ACFCF89E294E00E942C272091CE
:10174000290430912A0440912B0450912C0460917B
:101750002D0470912E0480912F04909130040E94EA
:10176000E72580914A04811103C00E949424F9CF97
:10177000612C712C66CD828582958F708093550483
:10178000818590E0982F88272085822B90935104A3
:1017900080935004A3858A2F90E090935304809304
:1017A0005204DC0120E432E44FE050E00E940233B6
:1017B0006093350470933604809337049093380413
:1017C00010923104109232041092330410923404B7
:1017D00052CE66E079E082E496E00E94E83040E094
:1017E00051E062E475E082E496E00E94EC30E2E4CD
:1017F000F6E084E1808781E087838187828781E0CA
:1018000090E0A0E0B0E083879487A587B68717862D
:10181000108A118A128A87E090E0A0E0B0E0838B02
:10182000948BA58BB68B178A108E118E128E138E09
:10183000148E158E168E178E10A211A212A2CF0131
:101840000C94022490930F0C80930E0C70930A0C4E
:101850006093090C40930D0C2093080C6FEF81E00E
:101860000E94BA2190930C0C80930B0C019631F4DA
:101870000E943D26682F8FE00E94171E81E0809312
:1018800010020895CF93C82F8091080C882351F03F
:1018900028EE33E0482F429FC001439F900D112452
:1018A0000E94E62C6091090C70910A0C8C2F90E03C
:1018B000CF910C94793480910E0C90910F0C0E9472
:1018C0003B340895EF92FF920F931F93CF93DF93D2
:1018D000C82FE92ED62F613810F083E050C08091D8
:1018E0000B0C90910C0C0E9411228F3F31F48EE36F
:1018F00093E00E946E1381E042C080EC0E94420C93
:1019000081EC0E94420C8D2F0E94420CFC2E0C2F69
:101910001E2DC0E0802F8F198D17E8F4F80180810B
:10192000803C41F48BED0E94420C8CED0E94420CF5
:10193000C0540EC08B3D39F40E94420C8DED0E94C4
:10194000420CC55205C00E94420CF8018081C80FAC
:101950000F5F1F4FDFCF8C2F8F770E94420C80ECE0
:101960000E94420C80910B0C90910C0C0E947022F2
:101970008F3F49F480E193E00E946E1382E00E9461
:101980001F1D8FEF01C081E0DF91CF911F910F915B
:10199000FF90EF9008958091100208958F929F928A
:1019A000AF92BF92CF92DF92EF92FF920F931F936D
:1019B000CF93DF937C01D62E0E94641380936A0636
:1019C0008F3F21F484EF92E00E946E1380916A06AB
:1019D0000E94DD208F3F21F48FEC92E00E946E1375
:1019E00080E00E944B13811119C081E090E0A0E0DB
:1019F000B0E0BC01CD0100906A0604C0660F771FFD
:101A0000881F991F0A94D2F70E948021609366066E
:101A1000709367068093680690936906812C912CD9
:101A20005401839480E00E944B13882379F00E9434
:101A30005B0C813CB9F70E945B0CC82E10E0C0E043
:101A400001EC812C912C540183942BC00E944B13E8
:101A50008111EDCFC501B40100906A0604C0660F84
:101A6000771F881F991F0A94D2F70E9480216093E4
:101A70006606709367068093680690936906D7CFD1
:101A80000E945B0CD82F803C39F18B3D09F445C096
:101A9000CD1508F46CC00D2F80E00E944B1381110E
:101AA000EFCF80E00E944B138111F6CFC501B40146
:101AB00000906A0604C0660F771F881F991F0A945A
:101AC000D2F70E9480216093660670936706809328
:101AD000680690936906E0CFD12FCC2329F0DF77F9
:101AE0000D1302C08C2F4DC08DEB92E00E946E133F
:101AF0001F92DF931F920F931F92CF938DE293E07B
:101B00009F938F930E94B1348DB79EB708960FB6FE
:101B1000F8949EBF0FBE8DBF28C080E00E944B137B
:101B2000811115C0C501B40100906A0604C0660F9A
:101B3000771F881F991F0A94D2F70E948021609313
:101B400066067093670680936806909369060E9404
:101B50005B0C8C3D41F08D3D09F49ACF84EA92E014
:101B60000E946E1302C0D0EC93CF8FEF0AC0CC1549
:101B700008F091CFF701EC0FF11DD0831D0FCF5F5F
:101B80008ACFDF91CF911F910F91FF90EF90DF905F
:101B9000CF90BF90AF909F908F900895909141010A
:101BA0009F719F31D9F380934201089580936B0612
:101BB000089581E08093160C08951092160C0895F4
:101BC000809141018F718F31D9F3809141018F71E3
:101BD000E1F08F30D1F0809141018F71883031F484
:101BE000809139018260809339010BC088E00E94A6
:101BF000CE0D809141018F718830D9F7F1CF8F30B0
:101C000021F0809141018F71D1F7089580914101B8
:101C10008F718F31D9F3809141018F7111F08F3025
:101C200051F4809139018D7F809339018091410178
:101C30008F718830D9F70895E5E4F1E09081907FC5
:101C4000908390818F70982B90830895E7E5F1E061
:101C500080818D7F80830895E7E5F1E08081826057
:101C600080830895EEE6F1E080818F7E8083089581
:101C7000EEE6F1E0808180618083089580936001C9
:101C8000909361019093200C80931F0C0895909382
:101C90001A0C8093190CE8E4F1E08081807E808347
:101CA0008081682B6083089590936F0680936E0601
:101CB000089590936D0680936C0608950F931F937B
:101CC000CF93DF93FC01D90180E28093440180EC43
:101CD0008093450160626093480185EC80934901DF
:101CE00087EA80934B0180E880934C012093600148
:101CF000B09361014093620150936301C6E4D1E067
:101D00000881888198812881302F329536953770E7
:101D100060E4369F80011124229526952370622F5E
:101D2000602B82958695837070E1879F90011124C6
:101D3000262B92959695937084E0989FB00111247C
:101D4000622B60936D01888198819295969593702E
:101D5000392F3064982F92959670932B90936E0143
:101D600010926C0184E080934E01C9E1DCE0F983BC
:101D7000E8831A821B825D834C83BF83AE831886FF
:101D800081E080933A0C1092160CDF91CF911F9155
:101D90000F91089586E10C94CE0D86E10C94CE0D42
:101DA00088E00C94CE0D0F931F93CF93DF93FC012B
:101DB00080913A0C811102C08FEFACC026818091D6
:101DC0001B0C8F5F80931B0C90918101907E916022
:101DD00020FB95F99F7390649093810188E880932C
:101DE00082018091160C882361F08FEF809383012C
:101DF0008AEA9AEA90938901809388018FEF9FEF96
:101E000010C080911B0C809383012091610180910F
:101E1000600190E0922B90938901809388018081EA
:101E20009181909387018093860120916301809135
:101E3000620190E0922B90938501809384018F0141
:101E40004281552747FD5095638174818AE891E06E
:101E50000E94D233F8018281855F80938001809156
:101E60004101D82FDF719FEF9D0F9230C0F3D13128
:101E7000B1F3D231A1F3DF3191F398EF9D0F92309E
:101E800020F08F70863009F097CF86E10E94CE0D4A
:101E9000F801858181110BC089E00E94CE0DF80107
:101EA0008681882391F089E10E94CE0D0EC0809139
:101EB00048018068809348018091410187FFFCCFF1
:101EC0008091410186FF78CFE7CF82E00E94CE0D5E
:101ED00080E090E020914F0126FD05C00196883EEC
:101EE000FDEF9F07B9F720E420934F01F801268109
:101EF000222331F02091420122952695277029F462
:101F0000883E9D4F11F0C1E001C0CFEF8D2F0E94A0
:101F1000CE0D8C2FDF91CF911F910F910895CF930C
:101F2000DF9380913A0C882341F180914101C82FC1
:101F3000CF719FEF9C0F9230C0F3C131B1F3C2312A
:101F4000A1F3CF3191F3C83019F08F708630A9F426
:101F500086E10E94CE0D80914801806880934801FF
:101F60008091410187FFFCCFD09141018C2F0E94CD
:101F7000CE0DD6FB882780F901C08FEFDF91CF917E
:101F8000089580913A0C882309F4EBC080914F01A9
:101F900083FFE5C08091460187FFE1C080917B010E
:101FA000E091190CF0911A0C90E0029724813327EC
:101FB00027FD3095281739070CF4D3C088E08093AB
:101FC0004F01E091190CF0911A0C809182018083ED
:101FD000E091190CF0911A0C809187019091880181
:101FE00092838183E091190CF0911A0C80917B010E
:101FF0008B508383A091190CB0911A0CE091190CAD
:10200000F0911A0C13969C91848189173CF0E09111
:10201000190CF0911A0C838187FF0BC080914C0141
:102020008F7780934C0180914C01806880934C01A4
:1020300098C0A091190CB0911A0CE091190CF09174
:102040001A0C13964C91552747FD509569E871E09D
:10205000858196810E94D23380916B06882309F492
:102060003EC0E091190CF0911A0C83818031B9F5D2
:10207000E091190CF0911A0C6581768144E050E0F2
:1020800081E192E00E94E233892B49F5E091190C3D
:10209000F0911A0C6581768140E150E081E192E097
:1020A0000E94E233892BD9F49DE088E10FB6F894C1
:1020B000A895809360000FBE9093600080E090E050
:1020C0000E94F41681E090E00E94F41682E090E015
:1020D0000E94F41683E090E00E94F416FFCFE09196
:1020E000190CF0911A0C8091800185FB882780F9EA
:1020F0008783E091190CF0911A0C80914701808739
:10210000E091190CF0911A0C809146018695869504
:1021100086958187E091190CF0911A0C8091470106
:102120008287A091190CB0911A0CE0917B01F0E02C
:10213000E058FE4F80811B968C9380914C018F77E5
:1021400080934C0180914C01806880934C01E09118
:102150006C06F0916D06309731F0099504C080E06F
:1021600008958FEF089581E008951F920F920FB6A2
:102170000F9211240BB60F922F933F934F935F93BF
:102180006F937F938F939F93AF93BF93EF93FF933F
:1021900088E393E00E94CB3488E080934F01E09184
:1021A0006C06F0916D06309709F00995FF91EF915B
:1021B000BF91AF919F918F917F916F915F914F915F
:1021C0003F912F910F900BBE0F900FBE0F901F905D
:1021D00018951F920F920FB60F9211248F9380E8DB
:1021E00080934F018F910F900FBE0F901F90189505
:1021F0001F920F920FB60F9211248F9380E4809359
:102200004F018F910F900FBE0F901F9018951F9246
:102210000F920FB60F9211248F9380E280934F019B
:102220008F910F900FBE0F901F9018951F920F92D5
:102230000FB60F9211248F9380E180934F018F91FD
:102240000F900FBE0F901F9018951F920F920FB610
:102250000F9211240BB60F922F933F934F935F93DE
:102260006F937F938F939F93AF93BF93EF93FF935E
:1022700084E080934F01E0916E06F0916F063097F5
:1022800009F00995FF91EF91BF91AF919F918F91C7
:102290007F916F915F914F913F912F910F900BBE66
:1022A0000F900FBE0F901F9018951F920F920FB6B0
:1022B0000F9211248F9382E080934F018F910F90A2
:1022C0000FBE0F901F9018951F920F920FB60F928E
:1022D00011248F9381E080934F018F910F900FBE57
:1022E0000F901F901895E9E4F1E09081907F908322
:1022F00090818F70982B908308958FEF08950895A3
:10230000089508958FEF08958091140C9091150C05
:102310000895089581E0089581E0089581E0089589
:1023200008950895089508950895089508950895C5
:1023300098988DB1806E8DB98EB1806A8EB90895EE
:1023400098988DB1806E8DB98EB180668EB90895E2
:10235000CF92DF92EF92FF920F931F93CF93DF9371
:10236000CDB7DEB727970FB6F894DEBF0FBECDBF4F
:102370000E942518E091190CF0911A0CC080D380AE
:10238000E580F68000850E94C10F18161CF08BE4D2
:1023900093E006C0F7011081111107C08AE693E0AF
:1023A0000E94CB340E94271831C0153021F48AE0F6
:1023B00090E00E94C534C70101969F938F93802FB0
:1023C000992787FD90959F930F931F921F931F92BC
:1023D000CF928CE893E09F938F930E94B134FD825B
:1023E000EC821150F7011083DB821E821F828FEF77
:1023F0009FEF9A8389830E942718CE0101960E943D
:10240000D30E0FB6F894DEBF0FBECDBF27960FB622
:10241000F894DEBF0FBECDBFDF91CF911F910F911A
:10242000FF90EF90DF90CF900895AAE2BCE0FC010E
:10243000409620812D93219120933F01E817F907C1
:10244000C1F780E110923E018150E1F780E880936E
:102450003C0180913D0180FFFCCFE3E4FCE080E1A2
:102460008E0F90913F0191938E13FBCF0895CF93E0
:10247000DF93DC01662309F445C0862F8F7009F0D5
:1024800041C0EAE2FCE090E19E0F219120933F01E0
:102490009E13FBCF90E070E0E0E240E1949F90015A
:1024A0001124261737077CF5911103C010923C01C7
:1024B00002C0E0933C0140E050E02A0F3B1FE901DD
:1024C000C40FD51FF881F0933E014F5F5F4F40313D
:1024D0005105A9F740913C01406840933C0140916F
:1024E0003D0140FFFCCF40E050E0F0913E01E901AA
:1024F000C40FD51FF8834F5F5F4F40315105A9F7D7
:102500009F5FCBCF81E0DF91CF9108950F931F9311
:10251000CF93DF93DC01613009F458C0862F8F70B0
:1025200009F054C0E3E4FCE090E19E0F2191209378
:102530003F019E13FBCF62956F70615078E06F3F53
:1025400009F445C070933C01462F552747FD50952F
:1025500020E030E0ED0190E16902C00DD11D1124B1
:10256000FE01E20FF31F908190933E012F5F3F4FDA
:1025700020313105A9F790913C01906890933C017E
:1025800090913D0190FFFCCF4150510994E0440FE0
:10259000551F9A95E1F720E030E090913E018E01C1
:1025A000020F131FF8019083662349F0F901E40F2D
:1025B000F51FEA0FFB1FE0819E27F80190832F5F34
:1025C0003F4F2031310549F76150B9CF81E0DF91AC
:1025D000CF911F910F9108959091C00095FFFCCF6E
:1025E0009091C0009F7D9093C0008093C600089595
:1025F0001F920F920FB60F9211240BB60F922F93CA
:102600003F934F935F936F937F938F939F93AF937A
:10261000BF93EF93FF930E9425188091C00087FF1E
:10262000FCCF8091C0008F778093C0002091C600BE
:102630008091F1069091F206FC01EF58F94F20834A
:1026400001968038910529F09093F2068093F10667
:1026500004C01092F2061092F106809170060E945A
:102660000F218091C0008F778093C0000E942718AF
:10267000FF91EF91BF91AF919F918F917F916F915A
:102680005F914F913F912F910F900BBE0F900FBE16
:102690000F901F90189581110DC081E04091F306B5
:1026A0005091F4062091F1063091F206421753073B
:1026B00051F408C0813031F48091C800881F882708
:1026C000881F089580E00895809170068F3F19F467
:1026D0008EE00E940A1E809170060895CF93DF93CA
:1026E000FC012491EC012196222351F06091BB0D55
:1026F0007091BC0D822F90E00E947934CE01F0CF12
:10270000DF91CF9108952091F3063091F4068091E6
:10271000F1069091F2062817390769F48091700646
:102720000E94DD2060917006772767FD7095872FE6
:10273000972F0E9480216F3F21F48BE693E00E9447
:102740006E132091F3063091F406F901EF58F94F1A
:1027500080812F5F3F4F2038310528F43093F406F5
:102760002093F30608951092F4061092F30608954C
:1027700086E084B985B988EF8AB980EF8BB982E0A9
:102780008DB908950C94B8138F3F09F46CC0E82FED
:10279000E7704E2F50E04730510508F064C0FA0151
:1027A000E057FF4F8695869586950C94B23342B1DB
:1027B00021E030E0B90102C0660F771F8A95E2F789
:1027C000CB01842B82B94DC045B121E030E0B90185
:1027D00002C0660F771F8A95E2F7CB01842B85B97B
:1027E00040C048B121E030E0B90102C0660F771F58
:1027F0008A95E2F7CB01842B88B933C04BB121E035
:1028000030E0B90102C0660F771F8A95E2F7CB016D
:10281000842B8BB926C04EB121E030E0B90102C053
:10282000660F771F8A95E2F7CB01842B8EB919C00A
:1028300041B321E030E0B90102C0660F771F8A95ED
:10284000E2F7CB01842B81BB0CC044B321E030E024
:10285000B90102C0660F771F8A95E2F7CB01842B7E
:1028600084BB81E008958FEF08958F3F09F473C012
:10287000E82FE7704E2F50E04730510508F06BC04D
:10288000FA01E956FF4F8695869586950C94B233EA
:1028900042B121E030E0B90102C0660F771F8A958E
:1028A000E2F7CB018095842382B953C045B121E082
:1028B00030E0B90102C0660F771F8A95E2F7CB01BD
:1028C0008095842385B945C048B121E030E0B90145
:1028D00002C0660F771F8A95E2F7CB0180958423AB
:1028E00088B937C04BB121E030E0B90102C0660FB2
:1028F000771F8A95E2F7CB01809584238BB929C095
:102900004EB121E030E0B90102C0660F771F8A9511
:10291000E2F7CB01809584238EB91BC041B321E03F
:1029200030E0B90102C0660F771F8A95E2F7CB014C
:102930008095842381BB0DC044B321E030E0B90110
:1029400002C0660F771F8A95E2F7CB01809584233A
:1029500084BB81E008958FEF08958F3F31F1E82F18
:10296000E7704E2F50E047305105F8F4FA01E25677
:10297000FF4F282F2695269526950C94B23390B1BB
:102980000BC093B109C096B107C099B105C09CB105
:1029900003C09FB101C092B3892F90E002C095950A
:1029A00087952A95E2F7817008958FEF08958F3FFC
:1029B00009F406C1E82FE7704E2F50E0473051056B
:1029C00008F0FEC0FA01EB55FF4F86958695869577
:1029D0000C94B23320B130E0082E02C03595279513
:1029E0000A94E2F742B120FD0BC021E030E0B901CA
:1029F00002C0660F771F8A95E2F7CB01842B0BC0CC
:102A000021E030E0B90102C0660F771F8A95E2F736
:102A1000CB018095842382B916C023B130E0082E03
:102A200002C0359527950A94E2F745B120FD0DC007
:102A300021E030E0B90102C0660F771F8A95E2F706
:102A4000CB01842B85B981E0089521E030E0B90104
:102A500002C0660F771F8A95E2F7CB018095842329
:102A6000F1CF26B130E0082E02C0359527950A94A3
:102A7000E2F748B120FD0BC021E030E0B90102C00F
:102A8000660F771F8A95E2F7CB01842B0BC021E0FC
:102A900030E0B90102C0660F771F8A95E2F7CB01DB
:102AA0008095842388B9CFCF29B130E0082E02C0A9
:102AB000359527950A94E2F74BB120FD0BC021E034
:102AC00030E0B90102C0660F771F8A95E2F7CB01AB
:102AD000842B0BC021E030E0B90102C0660F771FE4
:102AE0008A95E2F7CB01809584238BB9ACCF2CB1CA
:102AF00030E0082E02C0359527950A94E2F74EB1D2
:102B000020FD0BC021E030E0B90102C0660F771F45
:102B10008A95E2F7CB01842B0BC021E030E0B901AC
:102B200002C0660F771F8A95E2F7CB018095842358
:102B30008EB989CF2FB130E0082E02C03595279588
:102B40000A94E2F741B320FD0BC021E030E0B90167
:102B500002C0660F771F8A95E2F7CB01842B0BC06A
:102B600021E030E0B90102C0660F771F8A95E2F7D5
:102B7000CB018095842381BB66CF22B330E0082E41
:102B800002C0359527950A94E2F744B320FD0BC0A7
:102B900021E030E0B90102C0660F771F8A95E2F7A5
:102BA000CB01842B0BC021E030E0B90102C0660FDD
:102BB000771F8A95E2F7CB018095842384BB43CFAE
:102BC0008FEF08958F3F09F4D5C0E82FE7704E2F9F
:102BD00050E0611167C04730510508F0CBC0FA01E1
:102BE000E455FF4F8695869586950C94B23341B196
:102BF00021E030E0B90102C0660F771F8A95E2F745
:102C0000CB018095842365C044B121E030E0B90157
:102C100002C0660F771F8A95E2F7CB018095842367
:102C200065C047B121E030E0B90102C0660F771FEF
:102C30008A95E2F7CB018095842365C04AB121E0F3
:102C400030E0B90102C0660F771F8A95E2F7CB0129
:102C50008095842365C04DB121E030E0B90102C008
:102C6000660F771F8A95E2F7CB018095842365C0B4
:102C700040B321E030E0B90102C0660F771F8A95AA
:102C8000E2F7CB018095842365C043B321E030E0B7
:102C9000B90102C0660F771F8A95E2F7CB018095D4
:102CA000842365C04730510508F064C0FA01ED5433
:102CB000FF4F8695869586950C94B23341B121E0FD
:102CC00030E0B90102C0660F771F8A95E2F7CB01A9
:102CD000842B81B94DC044B121E030E0B90102C07C
:102CE000660F771F8A95E2F7CB01842B84B940C029
:102CF00047B121E030E0B90102C0660F771F8A9525
:102D0000E2F7CB01842B87B933C04AB121E030E030
:102D1000B90102C0660F771F8A95E2F7CB01842BB9
:102D20008AB926C04DB121E030E0B90102C0660F7A
:102D3000771F8A95E2F7CB01842B8DB919C040B378
:102D400021E030E0B90102C0660F771F8A95E2F7F3
:102D5000CB01842B80BB0CC043B321E030E0B90130
:102D600002C0660F771F8A95E2F7CB01842B83BBE5
:102D700081E008958FEF0895811106C080B1869596
:102D8000817091E0892708958FEF0895009711F4DD
:102D900083E20DC08130910511F48BE208C08230CE
:102DA000910511F483E303C0039729F48BE30E9498
:102DB000D71481E008958FEF0895009711F483E20E
:102DC0000DC08130910511F48BE208C0823091056D
:102DD00011F483E303C0039729F48BE30E94C41327
:102DE00081E008958FEF0895009711F483E20DC0FC
:102DF0008130910511F48BE208C08230910511F405
:102E000083E303C0039729F48BE30E94351481E028
:102E100008958FEF0895882319F085B78F7E02C03B
:102E200085B7806185BF81E008959091C80095FFC6
:102E3000FCCF8093CE0008959093C5008093C4008A
:102E400086E08093C200E1ECF0E080818B7F80839C
:102E5000A0ECB0E08C9182608C938081886180834B
:102E600008959093CD008093CC0086E08093CA00B3
:102E7000E9ECF0E080818B7F8083A8ECB0E08C915E
:102E800082608C9380818861808308950E941C17E2
:102E900063E873E18CEE92E10E94F0339093BC0DF5
:102EA0008093BB0D63E873E18CEE92E10E94F033F6
:102EB0009093BA0D8093B90D0E94CD1F8093700638
:102EC0008F3F19F48EE00E940A1E1092F4061092B1
:102ED000F3061092F2061092F1068091C10080680C
:102EE0008093C10008958091C80087FFFCCF809136
:102EF000C8008F778093C8008091CE0008950000AD
:102F00000000000000000197D1F708950C94893566
:102F10000E9491350895EF92FF920F931F93CF93E4
:102F2000DF937C0180E090E00E948935182FF70143
:102F3000838381E090E00E948935082FF701828326
:102F400082E090E00E948935D82FF701818383E0E9
:102F500090E00E948935C82FF701808384E090E0DB
:102F60000E948935100FD10FCD0F8C1711F08FEF04
:102F700001C081E0DF91CF911F910F91FF90EF9001
:102F80000895CF93DF93EC0185E090E00E948935AE
:102F9000888381E0DF91CF910895FC01608186E014
:102FA00090E00E94913581E00895CF93DF93EC018A
:102FB00086E090E00E948935888381E0DF91CF919F
:102FC00008950F931F93CF93DF938C01C0E0D0E05F
:102FD000CE0108960E948935F80181938F012196D0
:102FE000C031D105A9F781E0DF91CF911F910F91F9
:102FF00008950F931F93CF93DF938C01C0E0D0E02F
:10300000F80161918F01CE0108960E9491352196B9
:10301000C031D105A9F781E0DF91CF911F910F91C8
:103020000895CF93DF93EC0187E090E00E9489350B
:10303000888381E0DF91CF910895FC01608187E072
:1030400090E00E94913581E00895F8940895789475
:1030500008950E942518FFCFCF93DF93CDB7DEB739
:10306000A3970FB6F894DEBF0FBECDBF0E94CD1F51
:103070008093460D8F3F21F460E08EE00E94171E82
:103080000E94B02E80FF04C060E086E00E94171E00
:103090000E94C7308F3F31F40E94AA3060E080E187
:1030A0000E94171E0E94B8301092490D1092570DC1
:1030B0001092560D1092480D1092470D1092580D17
:1030C0000E94DB191092550D8FEF80933C0D809379
:1030D0003E0D80933D0D80933F0D8093410D809375
:1030E000400D8093420D8093440D8093430D80E00A
:1030F00090E033E62FEFFC01ED59F34F3287208744
:103100008B96873D9105B9F7E2E9FDE0CF01059681
:1031100094838383F783E683FC018DE0EB3AF80721
:10312000A9F71092940D1092930D1092AF0D10927A
:10313000AE0D10924C0D10924B0D82E99DE09093D4
:10314000620C8093610C6DEC78E2CE0101960E94D6
:10315000E83040E051E068E07BE0CE0101960E945B
:10316000EC3085E58093080B19861C861D861E862B
:103170001F86188A198A1A8A1B8A1C8A1D8A1E8A27
:103180001F8A188E198E1A8E1B8E1C8E1D8E1E8EF7
:103190001F8E18A219A21AA21BA281E0888792E0B2
:1031A0009A878B87CE0101960E940224A3960FB6C0
:1031B000F894DEBF0FBECDBFDF91CF9108950BE62F
:1031C0001CE0C0E0F801D080FFEFDF1222C0CF5F2B
:1031D000055D1F4FC530B1F70E94F1222BE282023C
:1031E000C0011124FC01ED59F34F82858093580DE5
:1031F000F093570DE093560DF093480DE093470D73
:103200008093490D0E945E310E9448310E946231D4
:1032100016C08BE6E82E8CE0F82ED0E0CD1741F0FA
:10322000F7018081D81204C06D2D85E00E94171E21
:10323000DF5FFBE2EF0EF11CD53081F7C8CFFFCF87
:10324000CF92DF92EF92FF920F931F93CF93DF9372
:10325000EC018B017A018985823021F08091450D46
:10326000888301C018828091450D853020F060E090
:1032700087E00E94171E8985823029F08091450DD4
:103280008F5F8093450D8091450D811103C081E0D2
:103290008093450D38812BE23203F0011124ED5962
:1032A000F34F118300838885828738813203F001D0
:1032B0001124ED59F34F83E0818738813203F00107
:1032C0001124ED59F34F3087088102038001112446
:1032D0000D59134FF8011582CE010B960E945F28FD
:1032E000F80161A372A383A394A38B859C85AD850C
:1032F000BE8588339948A144B10520F0688186E1F4
:103300000E94171EC880DD24C7FCD094CE014B96C6
:103310000E945F281BE21C9DF0011D9DF00D1124F1
:10332000ED59F34F658B768B878B908F2881210326
:10333000C00111249C012D59334F6901F9014589C0
:1033400056896789708D81A192A1A3A1B4A1840F30
:10335000951FA61FB71F818F928FA38FB48FCE01A9
:1033600043960E945F28F60165A376A387A390A7E2
:1033700028812103F0011124ED59F34F85A196A175
:10338000A7A1B0A5858F968FA78FB0A381E090E00D
:1033900092A781A7F382E2828487DF91CF911F9168
:1033A0000F91FF90EF90DF90CF9008950C94E72855
:1033B00085E690E00895109212081092130810927A
:1033C00014081092150810921608109217081092FF
:1033D000180810921908EEE5FAE080E090E01082FB
:1033E000118212821382108611861286138614822D
:1033F0001582168217821486158616861786108AFD
:10340000118A128A138A108E118E128E138EDC018D
:10341000A25AB54F5C961C925C975D961C927E9664
:103420004E9686399105D9F608950F931F93E2E1E0
:10343000F8E0A82FB0E023EB36EE4EE050E00E941B
:1034400002330481158126813781DC01CB01800F95
:10345000911FA21FB31F84839583A683B783CF01D7
:103460001F910F910C942C27E2E1F8E040815181EB
:1034700062817381DC014D935D936D937C9313970F
:103480004481558166817781FC014483558366833D
:10349000778308952EE1829FC0011124FC01E25A36
:1034A000F54F858D813039F0848D8F5F848F8F3F0C
:1034B00011F481E0858F08952EE1829FC0011124CF
:1034C000FC01E25AF54F858D8130B1F0148A158ADE
:1034D000168A178A80899189A289B3890196A11DCC
:1034E000B11D808B918BA28BB38B8E3F9F4FAF4FC3
:1034F000BF4F11F481E0858F08950F931F932EE144
:10350000829FC0011124FC01E25AF54F858D813064
:1035100071F1808D918DA28DB38D0196A11DB11D8C
:10352000808F918FA28FB38F462F50E060E070E0C4
:103530000489158926893789040F151F261F371F0F
:10354000048B158B268B378B00811181228133816F
:10355000400F511F621F731F408351836283738327
:103560008E3F9F4FAF4FBF4F11F481E0858F1F916A
:103570000F910895CF92DF92EF92FF92282F30E0C3
:103580009EE1899FF0011124E25AF54F858D81302B
:1035900009F44BC0462F50E060E070E084899589C3
:1035A000A689B789840F951FA61FB71F84879587A3
:1035B000A687B787C080D180E280F3804C0D5D1D67
:1035C0006E1D7F1D408351836283738344815581C7
:1035D00066817781411551056105710529F08417D0
:1035E0009507A607B70760F44EE1429FF001439F9D
:1035F000F00D1124E25AF54F84839583A683B78397
:103600004EE1429FF001439FF00D1124E25AF54F25
:103610004085518562857385481759076A077B077E
:1036200020F480879187A287B387FF90EF90DF9087
:10363000CF9008958F929F92AF92BF92CF92DF92D8
:10364000EF92FF920F931F93CF93DF93CDB7DEB727
:1036500028970FB6F894DEBF0FBECDBF182F81E6B6
:1036600094E00E946E13A12EB12C1F921F9385EB44
:1036700093E09F938F930E94B1340F900F900F901F
:103680000F90111152C086E494E00E946E13CE0197
:1036900001960E9443266D817E818F819885E0E4AA
:1036A000CE2EE2E4DE2EEFE0EE2EF12CA701960105
:1036B0000E9431335F934F933F932F938C818F936D
:1036C0008B818F938A818F9389818F9308EB13E08D
:1036D0001F930F930E94B13485E294E00E946E1311
:1036E0006091160870911708809118089091190838
:1036F000A70196010E9431335F934F933F932F931D
:10370000809115088F93809114088F9380911308EE
:103710008F93809112088F931F930F930E94B1345F
:103720000FB6F894DEBF0FBECDBF84E194E00E94D7
:103730006E138EE18A9D80018B9D100D1124025A1B
:10374000154FF80160817181828193810E94282840
:1037500029833A834B835C836D837E838F83988731
:103760006D817E818F81988520E4822E22E4922EC5
:103770002FE0A22EB12CA50194010E9431335F935A
:103780004F933F932F938C818F938B818F938A815B
:103790008F9389818F9338EBE32E33E0F32EFF92E2
:1037A000EF920E94B13489EF93E00E946E13F8010A
:1037B00064817581868197810E94282829833A83B4
:1037C0004B835C836D837E838F8398876D817E813D
:1037D0008F819885A50194010E9431335F934F93A7
:1037E0003F932F938C818F938B818F938A818F93BB
:1037F00089818F9348ECC42E43E0D42EDF92CF9280
:103800000E94B134F80164857585868597850E948C
:10381000282829833A834B835C836D837E838F833F
:1038200098876D817E818F819885A50194010E9482
:1038300031335F934F933F932F938C818F938B8181
:103840008F938A818F9389818F93DF92CF920E9489
:10385000B134F80160857185828593850E9428289E
:1038600029833A834B835C836D837E838F83988720
:103870006D817E818F819885A50194010E943133ED
:103880005F934F933F932F938C818F938B818F9373
:103890008A818F9389818F93FF92EF920E94B13436
:1038A0000FB6F894DEBF0FBECDBF89EE93E00E9445
:1038B0006E13F801709683818F9382818F9381813B
:1038C0008F93F80180898F935AEDE52E53E0F52E02
:1038D000FF92EF920E94B13486ED93E00E946E1346
:1038E000F801789683818F9382818F9381818F9362
:1038F000F801808D8F93FF92EF920E94B1348DEB8F
:1039000093E00E946E13F801848D1F928F936EEDE9
:10391000E62E63E0F62EFF92EF920E94B13480EA29
:1039200093E00E946E13F801858D1F928F93FF9292
:10393000EF920E94B1348DE993E00E946E130FB6AE
:10394000F894DEBF0FBECDBF28960FB6F894DEBF49
:103950000FBECDBFDF91CF911F910F91FF90EF90E0
:10396000DF90CF90BF90AF909F908F900895CF93AE
:1039700080E893E00E946E13C0E08C2F0E941A1B17
:10398000CF5FC530D1F7CF910895DB01853008F0C6
:1039900054C09EE1899FF0011124E25AF54F408105
:1039A0005181628173814D935D936D937C931397E5
:1039B000448155816681778114964D935D936D9313
:1039C0007C931797408551856285738518964D9332
:1039D0005D936D937C931B974485558566857785AC
:1039E0001C964D935D936D937C931F9740895189ED
:1039F0006289738950964D935D936D937C93539731
:103A0000448955896689778954964D935D936D9362
:103A10007C935797408D518D628D738D58964D9341
:103A20005D936D937C935B97848D5C968C935C9790
:103A3000858D5D968C9381E008958FEF0895E091D8
:103A4000560DF091570D84870895E091560DF09131
:103A5000570D84850895FC018091F40A882331F084
:103A6000DB018C9380910308808381E0089580912D
:103A7000F40A882309F483C088E996E00E946E1353
:103A8000809103081F928F9385EB93E09F938F9310
:103A90000E94B13484E996E00E946E130F900F905B
:103AA0000F900F908091F40A883110F01092F40A70
:103AB000E091F40A8E2F90E0FC013197E631F10598
:103AC00008F046C0E654FF4F0C94B23388E596E008
:103AD00041C081E396E03EC08DE196E03BC087E0C7
:103AE00096E038C08CEE95E035C086ED95E032C0AA
:103AF0008EEB95E02FC08BEA95E02CC088E995E02D
:103B000029C08AE795E026C085E595E023C089E4D1
:103B100095E020C08EE295E01DC08FE195E01AC0CF
:103B20008BE095E017C08AEF94E014C086EE94E035
:103B300011C086EC94E00EC08EEA94E00BC083E9DD
:103B400094E008C082E894E005C083E794E002C0F6
:103B50008CE694E00E946E136091BB0D7091BC0DD9
:103B60008DE090E00E9479346091BB0D7091BC0DA6
:103B70008AE090E00E9479348091F40A089580E010
:103B8000089513BC1092B60018BC17BC16BC15BC27
:103B900014BC1DBA1CBA1BBA10929B0010929A005A
:103BA0001092990010929800109295001092940033
:103BB000109291001092900018BA10927100109219
:103BC000B4001092B3001092B2001092B100E0EB7A
:103BD000F0E01082108217BA109270008FEF84BF4D
:103BE00008950E9425180E94AA308091F40A80311D
:103BF00071F08351823058F00E94C11D84EA96E032
:103C00000E946E130E94B8300E942518FFCF1092B8
:103C1000F40A08958093F40AE091560DF091570D3F
:103C20008085809303080E94371D0C94F11D8093BA
:103C3000F40A609303080E94371D0C94F11DCF9382
:103C4000DF931F92CDB7DEB719828981843640F4A5
:103C500080ED97E00E94E62C89818F5F8983F5CF04
:103C60000F90DF91CF91089581E090E00E94F416CB
:103C70000E941F1E0E941F1E0E941F1E81E090E0D6
:103C80000E94DD160C941F1E81E090E00E94F41645
:103C90000E941F1E81E090E00E94DD160C941F1E02
:103CA000FF920F931F93CF93DF9300D01F92CDB756
:103CB000DEB71F928F9385EB93E09F938F938E01D6
:103CC0000F5F1F4F1F930F930E94FB340F900F90B5
:103CD0000F900F900F900F90F12CF80101900020A1
:103CE000E9F73197E01BF10B8F2D90E08E179F07BE
:103CF00008F05DC0F801E80FF91FE0818E2F90E019
:103D0000FC01F097EA30F10508F049C0E053FF4F9D
:103D10000C94B2330E94341E02C00E94441E0E94C2
:103D2000341E0E94341E0E94341E0E94341E37C06E
:103D30000E94441E0E94441EF4CF0E94441E0E9412
:103D4000441E0E94441EEFCF0E94441E0E94441E47
:103D50000E94441E0E94441EE8CF0E94441E02C0DE
:103D60000E94341E0E94441E04C00E94341E0E9401
:103D7000341E0E94441E06C00E94341E0E94341E3F
:103D80000E94341E0E94441E08C00E94341E0E94DD
:103D9000341E0E94341E0E94341E0E94441E0E9443
:103DA0001F1E0E941F1E0E941F1EF39496CF0F908D
:103DB0000F900F90DF91CF911F910F91FF90089579
:103DC0006F927F928F929F92AF92BF92CF92DF922B
:103DD000EF92FF920F931F93CF93DF9384EB96E0C4
:103DE0000E946E13E091560DF091570D8085282F9B
:103DF000332727FD30953F938F9381EE93E09F9378
:103E00008F930E94B134E091560DF091570DC2810D
:103E1000D381DF93CF9385E194E09F938F930E94AA
:103E2000B13488811F928F938AEE93E09F938F9392
:103E30000E94B134E091560DF091570D81818F931E
:103E400080818F9387EF93E09F938F930E94B1348B
:103E50008091570D8F938091560D8F9381E094E060
:103E60009F938F930E94B134C3E6DCE0EDB7FEB7B9
:103E700074960FB6F894FEBF0FBEEDBF00E010E0E1
:103E800081E1682E84E0782E9AEE892E93E0992EB7
:103E900027EFA22E23E0B22E31E0C32E34E0D32E42
:103EA000EA80FB80FF92EF921F930F937F926F92B5
:103EB0000E94B134F70180811F928F939F928F925D
:103EC0000E94B13489818F9388818F93BF92AF9282
:103ED0000E94B134DF93CF93DF92CF920E94B1342E
:103EE0000F5F1F4FAB96EDB7FEB772960FB6F89403
:103EF000FEBF0FBEEDBF0530110591F6DF91CF91EA
:103F00001F910F91FF90EF90DF90CF90BF90AF90F7
:103F10009F908F907F906F900895CF93DF93E09163
:103F2000560DF091570DC281D3818881853539F0C6
:103F30000E94E01E81E00E940A1E85E58883E091D0
:103F4000560DF091570D808191818115924438F082
:103F50000E94E01E82E1DF91CF910C940A1EDF9156
:103F6000CF9108952BE28202C0011124FC01ED598A
:103F7000F34FA281B3818C91853519F085E58C933F
:103F800008C0808191818115924428F082E10E94CD
:103F90000A1E8FEF089581E008950F931F934091BB
:103FA0008A0950918B0960918C0970918D0980E08C
:103FB00090E08A019B01082E04C03695279517953D
:103FC00007950A94D2F700FD19C001E010E020E047
:103FD00030E0082E04C0000F111F221F331F0A9467
:103FE000D2F7402B512B622B732B40938A095093AD
:103FF0008B0960938C0970938D0905C001968032FE
:104000009105B9F68FEF1F910F910895E091560D2C
:10401000F091570D65857685878590890895CF92B3
:10402000DF92EF92FF920F931F93CF93DF93C12CF8
:10403000D12C7601C394082E04C0CC0CDD1CEE1CE0
:10404000FF1C0A94D2F740918A0950918B09609124
:104050008C0970918D094C215D216E217F21452BAA
:10406000462B472B09F460C0082F0E942518ECE668
:10407000FCE0B701A601409550956095709513E05E
:10408000DF0111978C918F3F39F184819581A68151
:10409000B7818C159D05AE05BF0551F410861186BC
:1040A000128613869F0122503109E901188210837C
:1040B00084239523A623B72384839583A683B7837C
:1040C00080859185A285B38584239523A623B72374
:1040D00080879187A287B387BB96DDE0E334FD0735
:1040E00079F68EEF9FEFAFEFBFEF04C0880F991FF7
:1040F000AA1FBB1F0A95D2F740918A0950918B09DC
:1041000060918C0970918D0984239523A623B72390
:1041100080938A0990938B09A0938C09B0938D09A1
:104120000E94271881E001C08FEFDF91CF911F918E
:104130000F91FF90EF90DF90CF9008950F931F9312
:1041400041E050E060E070E08A019B0104C0000F94
:10415000111F221F331F8A95D2F7D901C801E091A0
:10416000560DF091570D4585568567857089042356
:10417000152326233723012B022B032BD1F0809507
:104180009095A095B095482359236A237B234587B2
:1041900056876787708B4189528963897489842324
:1041A0009523A623B723818B928BA38BB48B81E0BD
:1041B00001C08FEF1F910F910895282F40918A0918
:1041C00050918B0960918C0970918D09082E04C063
:1041D00076956795579547950A94D2F740FF1DC08D
:1041E000E091560DF091570D81E090E0A0E0B0E035
:1041F00004C0880F991FAA1FBB1F2A95D2F74585B7
:10420000568567857089842B952BA62BB72B8587C0
:104210009687A787B08B81E008958FEF0895CF929E
:10422000DF92EF92FF92CF93C12CD12C7601C394F1
:1042300004C0CC0CDD1CEE1CFF1C8A95D2F78091CB
:104240008A0990918B09A0918C09B0918D098C21DC
:104250009D21AE21BF21892B8A2B8B2B11F481E06C
:1042600044C00E942518EAE6FCE0ACE6BCE0C0E0F1
:1042700083E090819130B9F44285538564857585DA
:104280004C215D216E217F21452B462B472B59F078
:104290008C9316861786108A118A1082C286D3865E
:1042A000E486F586C1E090819230A1F44285538581
:1042B000648575854C155D056E057F0559F48C93F5
:1042C00016861786108A118A108212861386148623
:1042D0001586C1E0BB969B969DE0E134F90749F64F
:1042E0000E942718C11105C082E00E941F1D8FEF98
:1042F00001C081E0CF91FF90EF90DF90CF900895C3
:104300000F931F93E091560DF091570D058516857B
:104310002785308906231723282339230115110502
:104320002105310511F1DC01CB01818B928BA38B2F
:10433000B48B21E027830090460D04C0B695A79565
:10434000979587950A94D2F780FF03C00E946A254B
:1043500004C080E090E00E943B25E091560DF09172
:10436000570D0189128923893489C901B8011F9128
:104370000F9108959091550D923018F520913C0DB4
:104380002F3F51F020913F0D2F3F41F02091420DE2
:104390002F3F31F4E2E005C0E0E003C0E1E001C0FE
:1043A000E3E0F0E09F01220F331FE20FF31FE45C14
:1043B000F24F8283808361839F5F9093550DCF017D
:1043C000089580E090E008952DE08C33920749F045
:1043D0002DE08F33920739F082549D4031F482E012
:1043E000089580E0089581E008958FEF08950E9478
:1043F000E4218F3F11F481E003C0833029F482E08F
:104400000E941F1D8FEF0895992787FD9095FC014D
:10441000EE0FFF1F8E0F9F1FFC01E45CF24F8281A5
:104420000895EF92FF920F931F93CF93DF931F9204
:10443000CDB7DEB70E94E4218F3F11F481E003C0C5
:10444000833029F482E00E941F1D8FEF41C08983D1
:104450000E9425188981E82EFF24E7FCF09487014B
:10446000000F111FF801EE0DFF1DE45CF24F928169
:10447000911116C0E091560DF091570D9781926001
:104480009783992787FD9095A92FB92F818B928BC0
:10449000A38BB48B0E94271880E090E00E943B25FC
:1044A0000E0D1F1DD801A45CB24F12968C9112976D
:1044B000815012968C931297E091560DF091570D02
:1044C00011968C91838781E084830E94271881E074
:1044D0000F90DF91CF911F910F91FF90EF90089572
:1044E0000F931F93CF93DF931F92CDB7DEB70E9438
:1044F000E4218F3F11F481E003C0833029F482E08E
:104500000E941F1D8FEF44C0482F552747FD50952F
:104510009A01220F331F240F351F8901045C124FAB
:10452000F80122819081291794F589830E9425182A
:10453000F80192819F5F9283E091560DF091570DA3
:104540001482EAE6FCE08981992787FD9095A92FDE
:10455000B92F23E03081323099F442855385648548
:104560007585481759076A077B0751F42283168619
:104570001786108A118A1082128613861486158671
:10458000BB963DE0E134F30729F70E94271881E04C
:104590000F90DF91CF911F910F9108950E94E42118
:1045A0008F3F11F481E003C0833029F482E00E9440
:1045B0001F1D8FEF0895992787FD9095FC01EE0F41
:1045C000FF1F8E0F9F1FFC01E45CF24F8FEF808373
:1045D000828381838091550D81508093550D81E0B8
:1045E0000895E0914B0DF0914C0D80810895E0917C
:1045F0004B0DF0914C0D309721F00380F481E02DAC
:10460000FACF0895AF92BF92CF92DF92EF92FF92CE
:104610000F931F93CF93DF93E091610CF091620CA5
:10462000309709F494C000914B0D10914C0D011579
:10463000110509F44CC0D8014BE2582F54039001E6
:1046400011242D59334F79019AE0E90EF11C6901CB
:10465000C4E0CC0ED11C5901DBE0AD0EB11C2C9195
:1046600030E0429FB001439F700D11246D59734F8C
:10467000EB019C81992329F05B85E701988159170B
:1046800040F1E6019881992369F0429FB001439F70
:10469000700D11246D59734FEB015A85E501988116
:1046A0005917B8F0429FB001439F700D11249B0130
:1046B0002D59334FE9012A85E7019881291748F0E0
:1046C00013960D90BC91A02D109749F602C0A0E062
:1046D000B0E08083C381D481D093620CC093610C1D
:1046E000A017B107B1F4109749F0B483A3831282E5
:1046F00011821296FC93EE93119706C014821382D6
:1047000012821182FA83E983F0934C0DE0934B0DF2
:104710001EC0AC17BD0779F011968D919C91129730
:1047200092838183B483A3831196CD91DC911297F8
:10473000FC83EB8308C01482138211968D919C91A7
:104740001297928381831296FC93EE931197DF91D7
:10475000CF911F910F91FF90EF90DF90CF90BF907E
:10476000AF900895CF93DF93E0914B0DF0914C0DF6
:10477000309709F444C0992787FD9095208130E057
:104780002817390781F4A381B481B0934C0DA0930D
:104790004B0D12961C921E92119718C00380F48143
:1047A000E02D309761F1208130E028173907B1F70B
:1047B000C181D281838194819C838B83A381B481C5
:1047C000109721F01296DC93CE931197A091610C73
:1047D000B091620C109739F4F093620CE093610C85
:1047E000148213820AC0B483A3831296FC93EE93BF
:1047F0001197F093620CE093610C12821182DF91A9
:10480000CF910895EF92FF920F931F93CF93DF9371
:10481000EC014B815C8169817A818D819E810E944E
:104820000A312F81222371F04B815C81E12CF12C24
:1048300000E010E020E030E0BC01CE010E94201931
:104840001F820CC0E8812BE2E202F0011124ED5935
:10485000F34F21852330B9F491838083E8818BE283
:10486000E802F0011124ED59F34F85899689A78953
:10487000B08D892B8A2B8B2B41F482E08187888134
:104880000E94022302C08FEF01C081E0DF91CF912F
:104890001F910F91FF90EF9008951F93CF93DF9397
:1048A000CDB7DEB728970FB6F894DEBF0FBECDBFE9
:1048B00029833A834B835C836D837E838F839887C0
:1048C0000E9425180E94342E182FCE0101960E94B6
:1048D0005F286330710598F0E091560DF091570D07
:1048E000212F30E0620F731FCB01A0E0B0E0858B79
:1048F000968BA78BB08F0E94271881E001C08FEFA5
:1049000028960FB6F894DEBF0FBECDBFDF91CF91D2
:104910001F9108950E94DD30E091560DF091570DE2
:1049200085818111F7CF0895CF930E948D1F0E943A
:104930002518E091560DF091570D81E090E092A777
:1049400081A785830E94342EC82F883F80F40E945F
:10495000CE2D2C2F30E02F5F3F4F90E028173907E6
:1049600034F482E08C0F80935D0A0E94D22D0E9465
:1049700027180E948A2481E0CF910895E091560D76
:10498000F091570D80850E94B223E091560DF09171
:10499000570D84E081870E94942481E00895CF938D
:1049A000DF93EC010E948D1F209711F4C1E0D0E04D
:1049B0000E942518E091560DF091570D81E08583F6
:1049C000D2A7C1A70E94342EC82F883F80F40E942E
:1049D000CE2D2C2F30E02F5F3F4F90E02817390766
:1049E00034F482E08C0F80935D0A0E94D22D0E94E5
:1049F00027180E948A2481E0DF91CF910895EF92D9
:104A0000FF920F931F93CF938C010E942518E09182
:104A1000560DF091570D81E085830E94342EC82FEA
:104A2000E091560DF091570DE82EF12CC701800F43
:104A3000911FA0E0B0E0858B968BA78BB08FC83F0D
:104A400078F40E94CE2D9FEFE91AF90A90E0E8165B
:104A5000F90634F482E08C0F80935D0A0E94D22D17
:104A60000E9427180E948A2481E0CF911F910F9104
:104A7000FF90EF900895CF93DF93EC010E942518EB
:104A8000E091560DF091570D21E02583CE01A0E075
:104A9000B0E0858B968BA78BB08F0E94342EC82FE9
:104AA000883F80F40E94CE2D2C2F30E02F5F3F4FA7
:104AB00090E02817390734F482E08C0F80935D0A68
:104AC0000E94D22D0E9427180E948A2481E0DF9143
:104AD000CF910895CF930E942518E091560DF09143
:104AE000570D81E0858386830E94342EC82F883F2E
:104AF00080F40E94CE2D2C2F30E02F5F3F4F90E0AE
:104B00002817390734F482E08C0F80935D0A0E94E5
:104B1000D22D0E9427180E948A2481E0CF91089507
:104B20001F93CF93DF93CDB7DEB728970FB6F894D6
:104B3000DEBF0FBECDBF29833A834B835C836D8379
:104B40007E838F8398870E948D1F0E942518E09195
:104B5000560DF091570D81E0858381E090E092A79A
:104B600081A70E94342E182FCE0101960E945F2843
:104B7000E091560DF091570DDC01CB01810F911D95
:104B8000A11DB11D858B968BA78BB08F183F80F42C
:104B90000E94CE2D212F30E02F5F3F4F90E028174D
:104BA000390734F482E0810F80935D0A0E94D22D90
:104BB0000E9427180E948A2481E028960FB6F89454
:104BC000DEBF0FBECDBFDF91CF911F9108958F92B1
:104BD0009F92AF92BF92CF92DF92EF92FF920F938C
:104BE0001F93CF93DF93CDB7DEB760970FB6F894DE
:104BF000DEBF0FBECDBF29873A874B875C876D87A5
:104C00007E878F87988BCE0101960E9443268980EC
:104C10009A80AB80BC80CD80DE80EF80F8840985EF
:104C20001A852B853C854D855E856F857889CE01FB
:104C300009960E94A0268F3F61F029853A854B8511
:104C40005C856D857E858F8598890E94902581E0A1
:104C500001C08FEF60960FB6F894DEBF0FBECDBFD8
:104C6000DF91CF911F910F91FF90EF90DF90CF9048
:104C7000BF90AF909F908F900895E091560DF09166
:104C8000570D808508950F931F93CF93DF93EC0109
:104C90001C821D821E821F8280914D0D90914E0DAF
:104CA000A0914F0DB091500D88839983AA83BB8347
:104CB0008091510D9091520DA091530DB091540DD2
:104CC0008C839D83AE83BF830E94342EA82FB0E0D7
:104CD00023EB36EE4EE050E00E9402330C811D8142
:104CE0002E813F81DC01CB01800F911FA21FB31FDA
:104CF0008C839D83AE83BF838C819D81AE81BF8178
:104D000081152AEC92072AE9A2072BE3B20798F053
:104D10009A5CAA49BB438C839D83AE83BF83888101
:104D20009981AA81BB810196A11DB11D88839983B8
:104D3000AA83BB83E1CFDF91CF911F910F9108959B
:104D40008F929F92AF92BF92CF92DF92EF92FF929B
:104D50000F931F93CF93DF93CDB7DEB760970FB656
:104D6000F894DEBF0FBECDBFFC0109831A832B83ED
:104D70003C834D835E836F83788789869A86AB8672
:104D8000BC86CD86DE86EF86F88A09811A812B8162
:104D90003C814D815E816F817885C984DA84EB84A2
:104DA000FC848D859E85AF85B8890C151D052E0563
:104DB0003F05F0F1C016D106E206F30691F448175C
:104DC00059076A077B07A0F1481B590B6A0B7B0B3D
:104DD0004483558366837783108211821282138203
:104DE00025C0481759076A077B0780F4015011094D
:104DF000210931090C191D092E093F09008311836E
:104E00002283338356536546744C08C00C191D0920
:104E10002E093F090083118322833383481B590BDA
:104E20006A0B7B0B448355836683778381E001C0E3
:104E30008FEF60960FB6F894DEBF0FBECDBFDF9147
:104E4000CF911F910F91FF90EF90DF90CF90BF9087
:104E5000AF909F908F900895FC01448155816681A9
:104E6000778141158AEC58078AE968078BE3780750
:104E700098F05A5C6A497B43448355836683778301
:104E800080819181A281B3810196A11DB11D808392
:104E90009183A283B383E1CF08958F929F92AF92C3
:104EA000BF92CF92DF92EF92FF920F931F93CF9317
:104EB000DF93CDB7DEB760970FB6F894DEBF0FBEB5
:104EC000CDBF09831A832B833C834D835E836F831D
:104ED000788789869A86AB86BC86CD86DE86EF8605
:104EE000F88A09851A852B853C8549815A816B8111
:104EF0007C81400F511F621F731FFC01408351834F
:104F0000628373830D851E852F8538894D815E816F
:104F10006F817885400F511F621F731F4483558333
:104F2000668377830E942C2781E060960FB6F89401
:104F3000DEBF0FBECDBFDF91CF911F910F91FF90CC
:104F4000EF90DF90CF90BF90AF909F908F9008959B
:104F5000EDE4FDE060837183828393832483358352
:104F60004683578308952F923F924F925F926F929C
:104F70007F928F929F92AF92BF92CF92DF92EF92E9
:104F8000FF920F931F93FC01C080D180E280F380D9
:104F9000C114D104E104F104E1F184819581A68179
:104FA000B78122E4C216D104E104F104F0F51C013A
:104FB0002D01612C712C4301E0E08E2F90E0A0E0E8
:104FC000B0E08C159D05AE05BF0588F49101A201E6
:104FD000B301C40136534546544C6F4F7F4F8F4F3A
:104FE0009F4F19012A013B014C01EF5FE6CF83EB94
:104FF000A82E96EEB92E2EE0C22ED12CE12CF12C4B
:1050000000E010E09101A201B301C4010E945533F8
:105010000AC0648175818681978123EB36EE4EE06C
:1050200050E00E943133C90102C080E090E01F913E
:105030000F91FF90EF90DF90CF90BF90AF909F9037
:105040008F907F906F905F904F903F902F9008953A
:10505000CF92DF92EF92FF92CF93DF93CDB7DEB77F
:1050600028970FB6F894DEBF0FBECDBF6B017C0151
:105070002AE0F694E794D794C7942A95D1F7C98289
:10508000DA82EB82FC829B01AC0133704427552706
:1050900063EB76EE8EE090E00E940D332C2D3A818A
:1050A0004B815C8128960FB6F894DEBF0FBECDBF52
:1050B000DF91CF91FF90EF90DF90CF9008952F92E6
:1050C0003F924F925F926F927F928F929F92AF9298
:1050D000BF92CF92DF92EF92FF920F931F93FC014A
:1050E000C080D180E280F380C114D104E104F104D6
:1050F000B9F184819581A681B7811C012D01612CB4
:10510000712C4301E0E08E2F90E0A0E0B0E08C1520
:105110009D05AE05BF0588F49101A201B301C4014C
:1051200036534546544C6F4F7F4F8F4F9F4F190159
:105130002A013B014C01EF5FE6CF83EBA82E96EEF0
:10514000B92E2EE0C22ED12CE12CF12C00E010E083
:105150009101A201B301C4010E945533CA010BC0E1
:10516000648175818681978123EB36EE4EE050E0B5
:105170000E943133CA01B9011F910F91FF90EF9046
:10518000DF90CF90BF90AF909F908F907F906F9067
:105190005F904F903F902F900895C1E00E948D1F27
:1051A0000E94CE2D843010F4C0934A0D0E94DD3051
:1051B0008091080B853519F088E00E940A1E8091C5
:1051C000FE40853559F388E00E940A1EE7CF2F92F2
:1051D0003F924F925F926F927F928F929F92AF9287
:1051E000BF92CF92DF92EF92FF920F931F93CF93D4
:1051F000DF930E9427188AEF0E94D22D0E94CE30A2
:105200000E949C2BC0915D0AAC2FB0E023EB36EEE0
:105210004EE050E00E9402330091510D1091520D6A
:105220002091530D3091540D6B017C01C00ED11EA5
:10523000E21EF31EC701B60123EB36EE4EE050E04E
:105240000E943133C61AD70AE80AF90AC092510DF2
:10525000D092520DE092530DF092540DE091560D04
:10526000F091570D8085811130C080914A0D8230B8
:1052700019F48C2F0E94151AE091560DF091570DDC
:1052800060915D0A80850E947D1AE091560DF09133
:10529000570D60E080850E94BA1A8091510D90915F
:1052A000520DA091530DB091540D00914D0D1091E0
:1052B0004E0D20914F0D3091500D53EB452E56EE73
:1052C000552E5EE0652E712C07C095816C2F9111D3
:1052D000E2CF0E947D1AE1CF480159014FEF841AB5
:1052E000940AA40AB40A81155AEC95075AE9A5074D
:1052F0005BE3B507C8F06C017D012AECD21A2AE9FC
:10530000E20A2BE3F20AC701B601A30192010E944F
:105310003133A7019601261B370B480B590BDA01D5
:10532000C90195018401D8CF8093510D9093520DFE
:10533000A093530DB093540D00934D0D10934E0D4B
:1053400020934F0D3093500DE091560DF091570D75
:105350008581882339F18185843021F187818230EC
:1053600029F0882341F08681811102C085E001C0C7
:1053700083E0818714C083E0818717821682858944
:105380009689A789B08D892B8A2B8B2B41F4818D2F
:10539000928DA38DB48D858B968BA78BB08F8085D6
:1053A0000E94B223E091560DF091570D85A196A170
:1053B000A7A1B0A5892B8A2B8B2B09F44EC0808521
:1053C000882309F44AC09185943009F446C0458D7C
:1053D000568D678D70A100915D0A10E020E030E0ED
:1053E000401751076207730798F40E944A1AE09128
:1053F000560DF091570D608582E00E94171EE091D6
:10540000560DF091570D158E168E178E10A208C0EE
:10541000401B510B620B730B458F568F678F70A328
:10542000E091560DF091570DC085858D968DA78D15
:10543000B0A1892B8A2B8B2B81F48C2F0E944A1AC6
:105440006C2F83E00E94171EE091560DF091570DCE
:1054500083E081878C2F0E94B223CCE6DCE000E65B
:105460001AEE312C2AEFC22ED12CE12CF12C32E095
:10547000232E812C912C54018394FE01319780813D
:105480008F3F09F4E5C033971082882309F45BC08D
:105490008881843009F457C04C845D846E847F8495
:1054A00060915D0A70E080E090E04616570668065D
:1054B000790648F0461A570A680A790A4C865D86CA
:1054C0006E867F8604C01C861D861E861F864888C1
:1054D00059886A887B88461657066806790648F018
:1054E000461A570A680A790A488A598A6A8A7B8A58
:1054F0001AC0288D398D4A8D5B8D6217730784071A
:10550000950758F429013A01461A570A680A790A98
:10551000488A598A6A8A7B8A06C00E943133688B1E
:10552000798B8A8B9B8B88899989AA89BB89892BDE
:105530008A2B8B2B41F4888D998DAA8DBB8D888BFE
:10554000998BAA8BBB8B8881833009F081C08C85B5
:105550009D85AE85BF85892B8A2B8B2B09F067C073
:10556000DE0112978C91FE013397882391F08081A0
:10557000882379F0B501A4010090460D04C0440FC2
:10558000551F661F771F0A94D2F7488759876A8785
:105590007B871C921082A8A1B9A1A130B10509F5A1
:1055A0008C8D9D8DAE8DBF8D8C8B9D8BAE8BBF8B6F
:1055B000288288899989AA89BB898C879D87AE872B
:1055C000BF87888D998DAA8DBB8D892B8A2B8B2BBC
:1055D00021F4CC86DD86EE86FF86832D0E94022391
:1055E00026C04C8D5D8D6E8D7F8D4C8B5D8B6E8B53
:1055F0007F8B488C598C6A8C7B8C1197A30192010C
:105600000E9402336C877D878E879F87688B798B9A
:105610008A8B9B8B45284628472821F4CC86DD863B
:10562000EE86FF8666246394712C79A268A28C852D
:105630009D85AE85BF850097A105B10549F0A801FC
:1056400060E070E084179507A607B70708F48C019F
:105650003394AB9685E0782E37100FCFE091560D3E
:10566000F091570D80850E945C1A0E94F122C82F8C
:105670002BE28202F0011124ED59F34F2285209391
:10568000580DF093480DE093470D8823D9F085A17C
:1056900096A1A7A1B0A5892B8A2B8B2B99F0858D7C
:1056A000968DA78DB0A18A3F9105A105B10550F453
:1056B000A80160E070E084179507A607B70710F40B
:1056C0008C0105C00B3F110510F00AEF10E020938C
:1056D000490DF093570DE093560D00935D0A0E941B
:1056E000342E282F30E02F5F3F4F2017310740F036
:1056F0000E94342E082F10E00E5F1F4F00935D0AAA
:10570000C11110924A0D802F0E94D22D0E94573154
:10571000DF91CF911F910F91FF90EF90DF90CF908D
:10572000BF90AF909F908F907F906F905F904F90C1
:105730003F902F900C9462313F924F925F926F9204
:105740007F928F929F92AF92BF92CF92DF92EF9211
:10575000FF920F931F93CF93DF93CDB7DEB7609780
:105760000FB6F894DEBF0FBECDBFCE0109960E94E2
:10577000432689E5482E8DE0582E612C712C93E14B
:10578000392ED20112968C91813051F5369CF00160
:10579000379CF00D1124EC59F24F89849A84AB8424
:1057A000BC84CD84DE84EF84F8880081118122815D
:1057B00033814481558166817781CE0101960E94B3
:1057C000A0268F3F69F4662D85E10E94171ED20145
:1057D000ED91FC91309719F40E94291801C00995A8
:1057E000BFEF6B1A7B0AE3E14E0E511CF3E06F161C
:1057F000710439F660960FB6F894DEBF0FBECDBFC8
:10580000DF91CF911F910F91FF90EF90DF90CF909C
:10581000BF90AF909F908F907F906F905F904F90D0
:105820003F900895E9E5FDE01282158A10A60895DB
:10583000CF93DF938330E0F493E1899FF00111244B
:10584000E75AF24F51834083EB0188819981AA8105
:10585000BB8183839483A583B6838C819D81AE8134
:10586000BF8187839087A187B287128281E001C0C0
:105870008FEFDF91CF910895CF92DF92EF92FF9259
:105880000F931F93CF93DF93CDB7DEB728970FB653
:10589000F894DEBF0FBECDBF8330A8F5182FCE0120
:1058A00001960E94432623E1129FC00111248C011E
:1058B000075A124FF801C380D480E580F6804981F1
:1058C0005A816B817C814C0D5D1D6E1D7F1D438750
:1058D000548765877687C780D084E184F2844D81C0
:1058E0005E816F8178854C0D5D1D6E1D7F1D478724
:1058F000508B618B728B8C59924F0E942C2781E0C8
:10590000F801828301C08FEF28960FB6F894DEBFAE
:105910000FBECDBFDF91CF911F910F91FF90EF9000
:10592000DF90CF9008951F93CF93DF93CDB7DEB76D
:1059300028970FB6F894DEBF0FBECDBF833070F549
:10594000182FCE0101960E94432683E1189FF00193
:105950001124E75AF24F4381548165817681898110
:105960009A81AB81BC81840F951FA61FB71F8387C7
:105970009487A587B68747815085618572858D811B
:105980009E81AF81B885840F951FA61FB71F87879B
:10599000908BA18BB28B81E0828301C08FEF289620
:1059A0000FB6F894DEBF0FBECDBFDF91CF911F9130
:1059B0000895833048F493E1899FF0011124E75A58
:1059C000F24F128281E008958FEF089500000000E9
:1059D00000000000000000000000000000000000C7
:1059E00000000000019791F7089510922101089599
:1059F00089E0809321018DE89CE3909329018093B5
:105A00002801089510922501109224010895CF9342
:105A1000DF9300D0CDB7DEB78091240190912501AE
:105A20009A83898389819A810F900F90DF91CF911A
:105A3000089510928100089581E080938100089577
:105A400083B5816083BD1092850010928400089513
:105A5000CF93DF9300D0CDB7DEB7809184009091D3
:105A600085009A83898389819A810F900F90DF91B5
:105A7000CF910895CF92DF92EF92FF92CF93DF9371
:105A8000EC01CC0FDD1FC9378FEFD80710F0C0E055
:105A9000D0E06B01E12CF12CCC0EDD1EE11CF11CE1
:105AA00081E0C816D104E806F10440F081E0E81A6C
:105AB000F1080E94282DC817D907D8F30E94282D75
:105AC0008C159D05D8F3DF91CF91FF90EF90DF907B
:105AD000CF9008951092B100E0E7F0E080818D7FD3
