:100000000C9409030C94A82C0C94DA2C0C940C2D51
:100010000C9428030C9428030C9428030C942803B4
:100020000C9428030C94762C0C9428030C9428032D
:100030000C9428030C94D52A0C9428030C94D52AEC
:100040000C9428030C9428030C9428030C94280384
:100050000C9428030C9428030C9428030C94280374
:100060000C9428030C9428030C9428030C94280364
:100070000C9428030C9428030C9428030C94280354
:100080000C94082B0C9428030C9428030C9428033C
:100090000C9428030C9428030C9428030C94280334
:1000A0000C9428030C9428030C9428030C94280324
:1000B0000C9428030C9428030C9428030C94280314
:1000C0000C9428030C9428030C9428030C94280304
:1000D0000C9428030C9428030C9428030C942803F4
:1000E0000C9428030C940B0E0C94FC0D0C94CC0D6A
:1000F0000C94BC0E0C94BD0D0C94AE0D0C949C0D88
:100100000C948D0D0C9428030C9428030C94280354
:100110000C9428030C9428030C9428030C942803B3
:100120003C1049105610631070107D108A10AD10ED
:10013000BB10C910D710E510F310011124112611BE
:1001400028112A112C112E1130114F1172119611F4
:10015000B911DC11FF1122125C126912761283129E
:1001600090129D12AA12C312D012DD12EA12F712D7
:10017000041311132E1A341A371A3A1A3D1A401A58
:10018000461A431A491A4C1A4F1A581A5B1A5E1A21
:10019000611A551A2B1A311A641A671A521A281A38
:1001A000501B531B5E1B631B6A1B731B761B7B1B45
:1001B000821B8B1B7478206572726F720D0A00456A
:1001C00052524F522073657474696E6720757020A7
:1001D00074696D65720D0A004661696C656420740E
:1001E0006F207265676973746572207369676E61E9
:1001F0006C0D0A0054444D41204552524F523A2052
:100200006372656174696E6720656E61626C6520FA
:100210007369676E616C206661696C65640D0A00C4
:1002200054444D41204552524F523A206372656109
:1002300074696E67207478207369676E616C2066DC
:1002400061696C65640D0A0054444D412045525269
:100250004F523A206372656174696E67207278202C
:100260007369676E616C206661696C65640D0A0074
:1002700054444D412054583A20576F6B6520757097
:10028000206F6E2077726F6E67207369676E616C86
:100290000D0A0054444D412054583A204572726F63
:1002A000722063616C6C696E67206576656E742080
:1002B000776169740D0A000D0A4E616E6F2D524B05
:1002C000205461736B205374617469737469637330
:1002D0003A0D0A000D0A000D0A2020204F766572A3
:1002E000666C6F77204572726F72205374617475FB
:1002F000733A20000D0A2020204B65726E656C2039
:1003000056696F6C6174696F6E733A20000D0A2034
:100310002020507265656D7074696F6E733A2000AD
:100320000D0A202020537761702D696E733A2000EA
:100330000D0A20202054696D65205B4D696E2C4CA0
:100340006173742C4D61785D3A20000D0A202020E5
:10035000546F74616C204350553A20000D0A2020E0
:100360002049646C65205461736B2044656570207E
:10037000536C6565702054696D653A20000D0A2044
:100380002020546F74616C2053797374656D20550F
:100390007074696D653A2000205461736B20494484
:1003A0003A2000554E4B4F574E0045787465726E9B
:1003B000616C2052657365740042726F776E204FD6
:1003C000757420446574656374004661696C656486
:1003D00020746F206372656174652053656D617070
:1003E000686F7265004661696C656420746F206394
:1003F0007265617465205369676E616C004B65724C
:100400006E656C2066756E6374696F6E206E6F74B6
:1004100020696D706C656D656E7465640044657609
:1004200069636520447269766572204572726F72E5
:10043000005761746368646F6720526573746172FA
:1004400074005357205761746368646F6720526566
:1004500073746172740054696D6572204F766572B1
:10046000666C6F7700556E68616E646C65642049D8
:100470006E7465727275707420566563746F720065
:100480004C6F7720566F6C746167650045787472A5
:1004900061205461736B20737461727465642C20E5
:1004A0006973206E726B5F6366672E68206F6B3FA7
:1004B0000049646C65206F72204B65726E656C201C
:1004C000537461636B204F766572666C6F7700556D
:1004D0006E657870656374656420526573746172CB
:1004E00074004475706C6963617465642054617351
:1004F0006B204944005363686564756C6572204DD8
:1005000069737365642057616B657570005461731E
:100510006B20526573657276652056696F6C6174E5
:1005200065640052657365727665204572726F72FC
:1005300020696E205363686564756C657200496E4E
:1005400076616C696420537461636B20506F696ECF
:10055000746572005461736B20537461636B204F38
:10056000766572666C6F7700537461636B20776198
:1005700073206E6F7420646566696E6564206173B4
:10058000206C6172676520656E6F75676821005425
:1005900061736B20706572696F6420746F6F206C7B
:1005A000617267652E20506572696F64206D757386
:1005B00074206265206C657373207468616E2036E8
:1005C00031207365636F6E64732E00293A20002A10
:1005D0004E524B204552524F5228004E524B205201
:1005E00065626F6F742E2E2E0D0A000D0A53544152
:1005F000434B2044554D500D0A00454647656667FC
:1006000000202B2D2E3031323334353637383968CF
:10061000000011241FBECFEFD1E4DEBFCDBF13E039
:10062000A0E0B2E0E4EBF6E600E00BBF02C007900A
:100630000D92AA37B107D9F71AE0AAE7B3E001C0D3
:100640001D92A636B107E1F70E94212E0C94583373
:100650000C94CB2A80E090E00C942B13CF93DF9383
:10066000CDB7DEB72A970FB6F894DEBF0FBECDBF69
:1006700040E050E0BE016F5F7F4F80E090E00E945D
:10068000AC2880E090E00E9427292AE233E040ED88
:1006900057E062E070E080E00E948D2A813021F016
:1006A0008FEB91E00E94081080E00E94702AF09089
:1006B000560260E08F2D0E94471280E00E94842A3B
:1006C00007E712E080E090E00E94D02880E090E010
:1006D0000E942B138F2D0E941211882399F380E022
:1006E0000E947A2A9A87898780E00E94702A20E0F7
:1006F00042E0BE01675F7F4F8CE896E00E942804CD
:10070000811104C084EB91E00E9408108A858F93C8
:1007100089858F931F930F930E941A310F900F902A
:100720000F900F90CFCF6EE273E086E596E00E94C7
:100730007C2D40E850E06EE976E086E596E00E9488
:10074000802DE6E5F6E082E0808781E0878381877F
:100750008287138614861586168680E892EBA6EEAD
:10076000BEE08787908BA18BB28B138A148A158A7F
:10077000168A178A108E118E128E81E090E0A0E00A
:10078000B0E0838F948FA58FB68F178E10A211A221
:1007900012A2CF010E9496200C945D0A08950C9439
:1007A000080F81E08093B003089581E08093B00347
:1007B000089580917D030895009731F090937C0314
:1007C00080937B0381E008958FEF08959093B303A6
:1007D0008093B20381E08093B10308958FEF089571
:1007E00080E090E00895803220F40E94E70A81E0E2
:1007F00008958FEF08958B3168F4682F8093A303D9
:1008000024E132E140E254E286EC95E00E94290BBB
:1008100081E008958FEF08959093AB038093AA032E
:10082000E9E8F3E0DC0120E432E44FE050E00E942C
:10083000B02F64837583868397831082118212821E
:10084000138281E008959093A9038093A8030895EB
:10085000CF92DF92EF92FF92CF93DF9300D0CDB78C
:10086000DEB76C017B018091AC03813009F48DC04F
:10087000442309F48AC06115710509F486C0C114C6
:10088000D10409F482C0211108C08091B5072A83E0
:1008900049830E94A31D49812A8181E08093AC0392
:1008A0008AE294E090937D0680937C06F601818134
:1008B00080932B04808180932A0485819681909374
:1008C0002D0480932C048091AF0380932F04109209
:1008D0002E048185928501969287818790933104B9
:1008E0008093300483818093330482818093320427
:1008F0003091AD03F0E13F9FC0011124832B809321
:1009000034045E2DF7018CE090E03E2F351B341748
:1009100050F43191A0917C06B0917D06A80FB91FCB
:100920003C930196F2CF445F40937B0621112BC08C
:1009300081E090E0A0E0B0E0BC01CD010090B507FF
:1009400004C0660F771F881F991F0A94D2F70E9470
:10095000461E6B017C01611571058105910521F42D
:1009600083E992E00E9408100090B50704C0F69455
:10097000E794D794C7940A94D2F7C0FC04C080E7E8
:1009800092E00E94081081E001C08FEF0F900F905D
:10099000DF91CF91FF90EF90DF90CF9008958F92ED
:1009A0009F92AF92BF92CF92DF92EF92FF920F93FE
:1009B0001F93CF93DF931F92CDB7DEB74C018B010E
:1009C0005A018091A50321111CC08130F1F480915E
:1009D000B40729830E94A31D81E090E0A0E0B0E06D
:1009E000BC01CD010090B40704C0660F771F881FBB
:1009F000991F0A94D2F70E94461E6B017C0129813F
:100A000004C0813011F48FEF7CC08091C9058C3017
:100A1000D4F38C50D5018C9380E0F5019081891737
:100A200078F4482F50E0E091CB05F091CC05E40F2D
:100A3000F51F9485F801E40FF51F90838F5FEDCFCC
:100A40008091CE05992787FD9095D4011E969C93A1
:100A50008E931D978091CF051F968C931F97809141
:100A6000D00550968C9350978091D10551968C93D8
:100A70005197E091CB05F091CC05858190E0982FBE
:100A800088273481832B18969C938E9317978381A4
:100A900090E0982F88273281832B16969C938E9313
:100AA0001597818190E0982F88273081832B1196AC
:100AB0009C938E93878190E0982F88273681832B93
:100AC0001A969C938E931997818590E0982F88278A
:100AD0003085832B13969C938E93129782851C9658
:100AE0008C9321110BC00090B40704C0F694E794D6
:100AF000D794C7940A94D2F7C0FE85CF81E0809343
:100B0000A5030F90DF91CF911F910F91FF90EF9070
:100B1000DF90CF90BF90AF909F908F9008950097F7
:100B200051F09093CC058093CB056093CA0581E08A
:100B30008093A50308958FEF08958093AD030895E2
:100B40000F931F93CF93DF93162FD42F052F9FEF73
:100B50009093800310927F0310927E038093AE03E4
:100B60001092B10383E08093AD0310927D0380E087
:100B700094E09093A9038093A80380E896E9A8E9FC
:100B8000B0E080938D0390938E03A0938F03B09376
:100B900090031092890310928A0310928B03109293
:100BA0008C030E94931CC82F8093B4078F3F19F4C5
:100BB00088E492E009C00E94931CC82F8093B50777
:100BC0008F3F69F480E292E00E940810E091F909F9
:100BD000F091FA0960858EE00E94DB1A2DC00E9418
:100BE000931CC82F80934E088F3F19F484EF91E037
:100BF000EBCF8AEB93E09093CC058093CB0580E715
:100C00008093CA05C1E0C093A5031092AC032D2FB9
:100C1000302F4FEF5FEF612F86EC95E00E94290B9C
:100C20001093A303D093AF0383ED9FEF0E941A0E9E
:100C3000C093A403C093A2038C2FDF91CF911F9187
:100C40000F9108958091B4070E94A31D8091B4076D
:100C500008958091B5070E94A31D8091B50708955E
:100C60002091A503213039F4FC011082FB01108290
:100C700080E090E008952091C905FC0120838091D7
:100C8000CE05FB0180838091CB059091CC05089522
:100C900081E08093A50308951092A2030C94A80A02
:100CA00081E08093A2030E94CE0A80914E080C94AA
:100CB000D51D81E08093BD0508958091A40308951A
:100CC0008091A503813099F00E949F0B0E94990B9F
:100CD00080917A038F5F80937A03833030F0109293
:100CE000A5038091B4070E94D51D8FEF089510923F
:100CF0007A030E94A30C813091F56091C9056D3093
:100D00006CF18091B003811107C01092A50380910E
:100D1000B4070E94D51D22C08091CB059091CC05CF
:100D20000E94790F8091CB059091CC052091C90547
:100D3000820F911D27FD9A95FC01319720812A3C55
:100D4000A1F6319720812E3F81F6319720812E3BED
:100D500061F6319780818F3EC1F2C7CF81E008955F
:100D6000CF93DF938091A503813011F08FEF40C0C6
:100D7000D4E60E94A30CC82F813089F56091C90583
:100D80006D30ACF18091B003811107C01092A503C2
:100D90008091B4070E94D51D2AC08091CB05909107
:100DA000CC050E94790F8091CB059091CC052091C4
:100DB000C905820F911D27FD9A95FC01319720816D
:100DC0002A3CA1F6319720812E3F81F63197208170
:100DD0002E3B61F6319780818F3EC1F2C7CF84E60A
:100DE00090E00E947A29D15021F68C2F01C081E039
:100DF000DF91CF9108950F931F93CF939091B003FC
:100E0000992309F443C020917B0684E0820F382F98
:100E10003F7031F087FF02C083E1820F807F805FE7
:100E200080937B0680917B06E0917C06F0917D06A5
:100E3000E80FF11D87FDFA9531978AEC8083809148
:100E40007B06E0917C06F0917D06E80FF11D87FDA1
:100E5000FA9532978EEF808380917B06E0917C0635
:100E6000F0917D06E80FF11D87FDFA9533978EEB23
:100E7000808380917B06E0917C06F0917D06E80FEF
:100E8000F11D87FDFA9534978FEE808360917B0684
:100E9000062F112707FD1095E0917C06F0917D0645
:100EA000C0E040E0242F30E0201731073CF42E0F43
:100EB0003F1FD9018C91C80F4F5FF4CF992319F0D0
:100EC000CF010E942A0FE0917B06FF27E7FDF095F6
:100ED000E657FE4FC08389E796E00E94A50B10926B
:100EE000AC038091B5070E94D51D81E0CF911F9181
:100EF0000F910895CF93DF9300D0CDB7DEB70E9456
:100F000028218091A4038823D1F380914E080E9468
:100F1000A31D8A838F3F21F488ED91E00E94081081
:100F2000612C712C22242A94322C8091AE038130C2
:100F300009F0E1C080937D036114710409F088C059
:100F40008091AC03811116C02AE234E030937D0613
:100F500020937C063FEF30932C0430932D041092A5
:100F60002E0410922F0410923004109231048CE061
:100F700080937B06E0917C06F0917D069091A8031A
:100F80008091A903908781871082E0917C06F0917F
:100F90007D061182E0917C06F0917D062091AD03E3
:100FA00030E1239FC0011124822B82878091AA0304
:100FB000838781E893E00E94D72230927A062092BC
:100FC000790610927F0610927E060E94FB060E9410
:100FD000990B8091BD05813009F043C0412C512C03
:100FE000C20165E070E00E94CB2F892B21F483E0E1
:100FF00090E00E942B13E0917C06F0917D068FEF2C
:101000008083E0917C06F0917D068183E0917C06EF
:10101000F0917D061482E0917C06F0917D061582A8
:101020009CE090937B060E94FB068AE090E00E9481
:10103000CF21EFEF4E1A5E0AF8EE4F16F3E05F068F
:1010400079F683E090E00E9442131092BD0509C03A
:101050000E9460062A81213021F47092A7036092D9
:10106000A6033FEF631A730A8091A8039091A90326
:101070008615970528F48AE090E00E94CF21ECC104
:101080008090890390908A03A0908B03B0908C038A
:10109000C0908D03D0908E03E0908F03F09090036A
:1010A0000091810310918203209183033091840386
:1010B0004091850350918603609187037091880366
:1010C00081E893E00E94E12381E893E00E94C0233D
:1010D00020918103309182034091830350918403D6
:1010E00060918503709186038091870390918803B6
:1010F0000E947B221ACF672809F057C00E94CE0AAF
:101100000E94990B612C712C0E94B0068A8381E8A1
:1011100093E00E94D7228A81813009F5E091CB05C6
:10112000F091CC05818190E0982F88272081822B37
:10113000258130E0322F22274481242B232B21F4D8
:101140008F3F2FEF920721F0892B09F488C102C04D
:10115000612C712C31E03093A5038FEF8A8394E6E4
:1011600069167104C0F010927D03E0917B03F09149
:101170007C03309729F0C30184569109099589832E
:10118000E981E13019F4612C712C05C0F0E36F1690
:10119000F5E77F0618F42FEF621A720A31E03093F8
:1011A000A5038A81813009F0AFCFE091CB05F091A2
:1011B000CC059285892F82958F709F70891B813114
:1011C00018F48093A10302C01092A1031092990316
:1011D00010929A0310929B0310929C0310929D030D
:1011E00010929E0310929F031092A00310929103FD
:1011F000109292031092930310929403A091C90548
:10120000BB27A7FDB09520E03DE70E94A92FDC0198
:10121000CB01935BA74FBF4F8093950390939603A9
:10122000A0939703B0939803612C712C8091A10334
:1012300090E06816790640F58090910390909203B3
:10124000A0909303B0909403C0909503D090960320
:10125000E0909703F09098030091990310919A03FE
:1012600020919B0330919C0340919D0350919E03DC
:1012700060919F037091A00389E993E00E94E123AC
:101280009FEF691A790AD2CFE1E0E0937D030E94D3
:101290009F0B0E94A80A8091B2039091B3036090C3
:1012A000A8037090A9038615970508F43C01412C0A
:1012B000512C4614570441F18090890390908A0381
:1012C000A0908B03B0908C03C0908D03D0908E03C0
:1012D000E0908F03F09090030091810310918203BE
:1012E00020918303309184034091850350918603BC
:1012F000609187037091880381E893E00E94E12365
:10130000FFEF4F1A5F0AD5CF8090990390909A0310
:10131000A0909B03B0909C03C0909D03D0909E032F
:10132000E0909F03F090A00300918103109182034D
:10133000209183033091840340918503509186036B
:10134000609187037091880381E893E00E943423C1
:1013500081E893E00E94C0232091810330918203B1
:1013600040918303509184036091850370918603BB
:1013700080918703909188030E947B228091AC0327
:101380008130B1F4E0917C06F0917D066082E091BD
:101390007C06F0917D06718230927A062092790661
:1013A00010927F0610927E060E94CE0A0E94FB06D3
:1013B0000E949F0B0E94A80A412C512C8091A803E7
:1013C0009091A903861997094816590640F580900F
:1013D000890390908A03A0908B03B0908C03C090F7
:1013E0008D03D0908E03E0908F03F09090030091D6
:1013F00081031091820320918303309184034091F3
:10140000850350918603609187037091880381E87A
:1014100093E00E94E1232FEF421A520ACFCF81E8D6
:1014200093E00E94C0232091810330918203409178
:1014300083035091840360918503709186038091AA
:101440008703909188030E947B228091A2038111DF
:1014500003C00E942821F9CF612C712C66CD8285B2
:1014600082958F708093AD03818590E0982F8827B7
:101470002085822B9093A9038093A803A3858A2FAC
:1014800090E09093AB038093AA03DC0120E432E464
:101490004FE050E00E94B02F60938D0370938E0355
:1014A00080938F03909390031092890310928A0384
:1014B00010928B0310928C0352CE6AE777E08AE990
:1014C00095E00E947C2D40E051E06AE974E08AE9F1
:1014D00095E00E94802DEAE9F5E084E1808781E0D3
:1014E00087838187828781E090E0A0E0B0E08387F6
:1014F0009487A587B6871786108A118A128A87E093
:1015000090E0A0E0B0E0838B948BA58BB68B178A1C
:10151000108E118E128E138E148E158E168E178EBF
:1015200010A211A212A2CF010C9496209091410119
:101530009F719F31D9F38093420108958093BE0536
:10154000089581E08093D50808951092D5080895F4
:10155000809141018F718F31D9F3809141018F7159
:10156000E1F08F30D1F0809141018F71883031F4FA
:10157000809139018260809339010BC088E00E941C
:10158000960A809141018F718830D9F7F1CF8F3061
:1015900021F0809141018F71D1F70895809141012F
:1015A0008F718F31D9F3809141018F7111F08F309C
:1015B00051F4809139018D7F8093390180914101EF
:1015C0008F718830D9F7089589E00C94960AE5E484
:1015D000F1E09081907F908390818F70982B908321
:1015E0000895E7E5F1E080818D7F80830895E7E548
:1015F000F1E08081826080830895EEE6F1E08081F1
:101600008F7E80830895EEE6F1E0808180618083A3
:10161000089580936001909361019093DF08809317
:10162000DE0808959093D9088093D808E8E4F1E0A3
:101630008081807E80838081682B60830895909371
:10164000C2058093C10508959093C0058093BF059E
:1016500008950F931F93CF93DF93FC01D90180E28C
:101660008093440180EC809345016062609348015F
:1016700085EC8093490187EA80934B0180E8809351
:101680004C0120936001B09361014093620150933B
:101690006301C6E4D1E00881888198812881302FD8
:1016A00032953695377060E4369F8001112422957B
:1016B00026952370622F602B82958695837070E14A
:1016C000879F90011124262B92959695937084E024
:1016D000989FB0011124622B60936D0188819881DD
:1016E000929596959370392F3064982F92959670B5
:1016F000932B90936E0110926C018FEF80934E01AB
:10170000C8EDD8E0F983E8831A821B825D834C839D
:10171000BF83AE83188681E08093F2081092090996
:101720001092E1081092D508DF91CF911F910F918F
:10173000089586E10C94960A86E10C94960A88E056
:101740000E94960A1092090908950F931F93CF9350
:10175000DF93FC018091F208811102C08FEFABC0D2
:1017600026818091DA088F5F8093DA089091810159
:10177000907E916020FB95F99F7390649093810116
:1017800088E8809382018091D508882361F08FEFEB
:10179000809383018AEA9AEA909389018093880171
:1017A0008FEF9FEF10C08091DA0880938301209122
:1017B00061018091600190E0922B90938901809368
:1017C0008801808191819093870180938601209187
:1017D00063018091620190E0922B90938501809348
:1017E00084018F014281552747FD509563817481A3
:1017F0008AE891E00E948030F8018281855F8093C1
:10180000800180914101D82FDF719FEF9D0F9230B1
:10181000C0F3D131B1F3D231A1F3DF3191F398EFBD
:101820009D0F923020F08F70863009F097CF86E1BF
:101830000E94960AF801858181110BC089E00E94FF
:10184000960AF8018681882391F089E10E94960A20
:101850000EC08091480180688093480180914101C9
:1018600087FFFCCF8091410186FF78CFE7CF1092B0
:10187000E10882E00E94960A80E090E02091E10871
:10188000211105C00196883EFDEF9F07B9F7F801C9
:101890002681222331F0209142012295269527703E
:1018A00029F4883E9D4F11F0C1E001C0CFEF8D2F8C
:1018B0000E94960A8C2FDF91CF911F910F9108956E
:1018C0001092E10882E00E94960A88EE9DEF209136
:1018D000E108211104C00197D1F78FEF089581E04D
:1018E0000895CF93DF938091F208882341F180918E
:1018F0004101C82FCF719FEF9C0F9230C0F3C131CF
:10190000B1F3C231A1F3CF3191F3C83019F08F7028
:101910008630A9F486E10E94960A80914801806889
:10192000809348018091410187FFFCCFD091410114
:101930008C2F0E94960AD6FB882780F901C08FEF72
:10194000DF91CF9108958091F208882309F4E3C0D4
:1019500080910909882309F4DCC080917B01E09122
:10196000D808F091D90890E002972481332727FD09
:101970003095281739070CF4CEC0E091D808F091C3
:10198000D908809182018083E091D808F091D9082C
:10199000809187019091880192838183E091D8089A
:1019A000F091D90880917B018B508383A091D80856
:1019B000B091D908E091D808F091D90813969C917C
:1019C000848189173CF0E091D808F091D90883818F
:1019D00087FF0DC01092090980914C018F77809389
:1019E0004C0180914C01806880934C0194C0A0917F
:1019F000D808B091D908E091D808F091D908139689
:101A00004C91552747FD509569E871E08581968195
:101A10000E9480308091BE05882309F43EC0E09189
:101A2000D808F091D90883818031B9F5E091D808C0
:101A3000F091D9086581768144E050E080E192E040
:101A40000E948930892B49F5E091D808F091D90896
:101A50006581768140E150E080E192E00E9489302A
:101A6000892BD9F49DE088E10FB6F894A89580936E
:101A700060000FBE9093600080E090E00E945913D8
:101A800081E090E00E94591382E090E00E94591397
:101A900083E090E00E945913FFCFE091D808F091C5
:101AA000D9088091800185FB882780F98783E091A0
:101AB000D808F091D908809147018087E091D80833
:101AC000F091D90880914601869586958695818703
:101AD000E091D808F091D908809147018287A091C0
:101AE000D808B091D908E0917B01F0E0E058FE4FB2
:101AF00080811B968C931092090980914C018F77FD
:101B000080934C0180914C01806880934C0181E06E
:101B1000089580E008958FEF08951F920F920FB6F9
:101B20000F9211248F9380E880934F018F910F9033
:101B30000FBE0F901F9018951F920F920FB60F9225
:101B400011248F9381E08093E10880E480934F011A
:101B50008F910F900FBE0F901F9018951F920F92AC
:101B60000FB60F9211248F9380E280934F018F91D3
:101B70000F900FBE0F901F9018951F920F920FB6E7
:101B80000F9211248F9380E180934F018F910F90DA
:101B90000FBE0F901F9018951F920F920FB60F92C5
:101BA00011240BB60F922F933F934F935F936F9334
:101BB0007F938F939F93AF93BF93EF93FF9384E0B3
:101BC00080934F01E091C105F091C205309709F073
:101BD0000995FF91EF91BF91AF919F918F917F9167
:101BE0006F915F914F913F912F910F900BBE0F908E
:101BF0000FBE0F901F9018951F920F920FB60F9265
:101C000011248F9382E080934F018F910F900FBE2C
:101C10000F901F9018951F920F920FB60F921124DC
:101C20008F9381E080934F018F910F900FBE0F90A3
:101C30001F901895E9E4F1E09081907F9083908166
:101C40008F70982B908308958FEF089508950895CD
:101C500008958FEF08958091D3089091D408089546
:101C6000089581E0089581E0089581E00895089540
:101C700008950895089508950895089508959898E9
:101C80008DB1806E8DB98EB1806A8EB908959898A5
:101C90008DB1806E8DB98EB180668EB90895CF9268
:101CA000DF92EF92FF920F931F93CF93DF93CDB705
:101CB000DEB727970FB6F894DEBF0FBECDBF0E94E8
:101CC0007614E091D808F091D908C080D380E580DF
:101CD000F68000850E94A30C18161CF08AE892E09A
:101CE00006C0F7011081111107C089EA92E00E9435
:101CF00034310E94781431C0153021F48AE090E02C
:101D00000E942E31C70101969F938F93802F9927B0
:101D100087FD90959F930F931F921F931F92CF92D1
:101D20008BEC92E09F938F930E941A31FD82EC829C
:101D30001150F7011083DB821E821F828FEF9FEF0D
:101D40009A8389830E947814CE0101960E94A50B84
:101D50000FB6F894DEBF0FBECDBF27960FB6F8942E
:101D6000DEBF0FBECDBFDF91CF911F910F91FF90CE
:101D7000EF90DF90CF9008951F920F920FB60F92C1
:101D800011240BB60F922F933F934F935F936F9352
:101D90007F938F939F93AF93BF93EF93FF9380E0D5
:101DA00090917B01891710F48F5FFACF80914601E3
:101DB00087FF04C081E08093090904C084EF92E0AA
:101DC0000E94343188E080934F018091460187FF63
:101DD00005C08091D50881110E944F0EE091BF058A
:101DE000F091C005309709F00995FF91EF91BF91EF
:101DF000AF919F918F917F916F915F914F913F91A3
:101E00002F910F900BBE0F900FBE0F901F90189543
:101E1000A2EEB8E0FC01409620812D932191209301
:101E20003F01E817F907C1F780E110923E018150A8
:101E3000E1F780E880933C0180913D0180FFFCCF79
:101E4000E3EFF8E080E18E0F90913F0191938E13C4
:101E5000FBCF0895CF93DF93DC01662309F445C0DF
:101E6000862F8F7009F041C0E2EEF8E090E19E0FFE
:101E7000219120933F019E13FBCF90E070E0E0E2C0
:101E800040E1949F90011124261737077CF59111AA
:101E900003C010923C0102C0E0933C0140E050E0DE
:101EA0002A0F3B1FE901C40FD51FF881F0933E01B3
:101EB0004F5F5F4F40315105A9F740913C014068A9
:101EC00040933C0140913D0140FFFCCF40E050E099
:101ED000F0913E01E901C40FD51FF8834F5F5F4FBA
:101EE00040315105A9F79F5FCBCF81E0DF91CF91C2
:101EF00008950F931F93CF93DF93DC01613009F4B2
:101F000058C0862F8F7009F054C0E3EFF8E090E1DD
:101F10009E0F219120933F019E13FBCF62956F701E
:101F2000615078E06F3F09F445C070933C01462F43
:101F3000552747FD509520E030E0ED0190E1690222
:101F4000C00DD11D1124FE01E20FF31F908190936B
:101F50003E012F5F3F4F20313105A9F790913C01A1
:101F6000906890933C0190913D0190FFFCCF4150CF
:101F7000510994E0440F551F9A95E1F720E030E0B5
:101F800090913E018E01020F131FF801908366238A
:101F900049F0F901E40FF51FEA0FFB1FE0819E27CE
:101FA000F80190832F5F3F4F2031310549F7615091
:101FB000B9CF81E0DF91CF911F910F91089580916A
:101FC000C00087FFFCCF8091C0008F778093C00056
:101FD0008091C60008959091C00095FFFCCF90912C
:101FE000C0009F7D9093C0008093C60008958FEF3E
:101FF0000895813019F48091C80004C0811106C091
:102000008091C000881F8827881F089580E0089568
:10201000CF93DF93FC012491EC012196222351F010
:1020200060915E0A70915F0A822F90E00E94E23018
:10203000CE01F0CFDF91CF91089586E084B985B9C4
:1020400088EF8AB980EF8BB982E08DB908950C943E
:102050001D108F3F09F46CC0E82FE7704E2F50E041
:102060004730510508F064C0FA01E057FF4F8695EC
:10207000869586950C94603042B121E030E0B9013C
:1020800002C0660F771F8A95E2F7CB01842B82B9D5
:102090004DC045B121E030E0B90102C0660F771FA5
:1020A0008A95E2F7CB01842B85B940C048B121E085
:1020B00030E0B90102C0660F771F8A95E2F7CB01C5
:1020C000842B88B933C04BB121E030E0B90102C0A4
:1020D000660F771F8A95E2F7CB01842B8BB926C058
:1020E0004EB121E030E0B90102C0660F771F8A953A
:1020F000E2F7CB01842B8EB919C041B321E030E067
:10210000B90102C0660F771F8A95E2F7CB01842BD5
:1021100081BB0CC044B321E030E0B90102C0660FBE
:10212000771F8A95E2F7CB01842B84BB81E0089569
:102130008FEF08958F3F09F473C0E82FE7704E2F9B
:1021400050E04730510508F06BC0FA01E956FF4FE7
:102150008695869586950C94603042B121E030E0FA
:10216000B90102C0660F771F8A95E2F7CB0180950F
:10217000842382B953C045B121E030E0B90102C0E7
:10218000660F771F8A95E2F7CB018095842385B986
:1021900045C048B121E030E0B90102C0660F771FA9
:1021A0008A95E2F7CB018095842388B937C04BB17B
:1021B00021E030E0B90102C0660F771F8A95E2F78F
:1021C000CB01809584238BB929C04EB121E030E04A
:1021D000B90102C0660F771F8A95E2F7CB0180959F
:1021E00084238EB91BC041B321E030E0B90102C0A5
:1021F000660F771F8A95E2F7CB018095842381BB18
:102200000DC044B321E030E0B90102C0660F771F72
:102210008A95E2F7CB018095842384BB81E0089501
:102220008FEF08958F3F31F1E82FE7704E2F50E088
:1022300047305105F8F4FA01E256FF4F282F269552
:10224000269526950C94603090B10BC093B109C0CF
:1022500096B107C099B105C09CB103C09FB101C040
:1022600092B3892F90E002C0959587952A95E2F761
:10227000817008958FEF08958F3F09F406C1E82F0C
:10228000E7704E2F50E04730510508F0FEC0FA01CC
:10229000EB55FF4F8695869586950C94603020B15E
:1022A00030E0082E02C0359527950A94E2F742B136
:1022B00020FD0BC021E030E0B90102C0660F771F9E
:1022C0008A95E2F7CB01842B0BC021E030E0B90105
:1022D00002C0660F771F8A95E2F7CB0180958423B1
:1022E00082B916C023B130E0082E02C0359527957B
:1022F0000A94E2F745B120FD0DC021E030E0B901BC
:1023000002C0660F771F8A95E2F7CB01842B85B94F
:1023100081E0089521E030E0B90102C0660F771F27
:102320008A95E2F7CB0180958423F1CF26B130E086
:10233000082E02C0359527950A94E2F748B120FD92
:102340000BC021E030E0B90102C0660F771F8A950B
:10235000E2F7CB01842B0BC021E030E0B90102C0D1
:10236000660F771F8A95E2F7CB018095842388B9A1
:10237000CFCF29B130E0082E02C0359527950A94B9
:10238000E2F74BB120FD0BC021E030E0B90102C003
:10239000660F771F8A95E2F7CB01842B0BC021E0F3
:1023A00030E0B90102C0660F771F8A95E2F7CB01D2
:1023B000809584238BB9ACCF2CB130E0082E02C0BD
:1023C000359527950A94E2F74EB120FD0BC021E028
:1023D00030E0B90102C0660F771F8A95E2F7CB01A2
:1023E000842B0BC021E030E0B90102C0660F771FDB
:1023F0008A95E2F7CB01809584238EB989CF2FB1DE
:1024000030E0082E02C0359527950A94E2F741B3D3
:1024100020FD0BC021E030E0B90102C0660F771F3C
:102420008A95E2F7CB01842B0BC021E030E0B901A3
:1024300002C0660F771F8A95E2F7CB01809584234F
:1024400081BB66CF22B330E0082E02C035952795B8
:102450000A94E2F744B320FD0BC021E030E0B9015B
:1024600002C0660F771F8A95E2F7CB01842B0BC061
:1024700021E030E0B90102C0660F771F8A95E2F7CC
:10248000CB018095842384BB43CF8FEF08958F3F8A
:1024900009F4D5C0E82FE7704E2F50E0611167C0F6
:1024A0004730510508F0CBC0FA01E455FF4F86953F
:1024B000869586950C94603041B121E030E0B901F9
:1024C00002C0660F771F8A95E2F7CB0180958423BF
:1024D00065C044B121E030E0B90102C0660F771F4A
:1024E0008A95E2F7CB018095842365C047B121E04E
:1024F00030E0B90102C0660F771F8A95E2F7CB0181
:102500008095842365C04AB121E030E0B90102C062
:10251000660F771F8A95E2F7CB018095842365C00B
:102520004DB121E030E0B90102C0660F771F8A95F6
:10253000E2F7CB018095842365C040B321E030E011
:10254000B90102C0660F771F8A95E2F7CB0180952B
:10255000842365C043B321E030E0B90102C0660FB7
:10256000771F8A95E2F7CB018095842365C04730B9
:10257000510508F064C0FA01ED54FF4F8695869529
:1025800086950C94603041B121E030E0B90102C081
:10259000660F771F8A95E2F7CB01842B81B94DC076
:1025A00044B121E030E0B90102C0660F771F8A957F
:1025B000E2F7CB01842B84B940C047B121E030E081
:1025C000B90102C0660F771F8A95E2F7CB01842B11
:1025D00087B933C04AB121E030E0B90102C0660FCB
:1025E000771F8A95E2F7CB01842B8AB926C04DB1BB
:1025F00021E030E0B90102C0660F771F8A95E2F74B
:10260000CB01842B8DB919C040B321E030E0B90172
:1026100002C0660F771F8A95E2F7CB01842B80BB3F
:102620000CC043B321E030E0B90102C0660F771F50
:102630008A95E2F7CB01842B83BB81E008958FEF6D
:102640000895811106C080B18695817091E0892737
:1026500008958FEF0895009711F483E20DC0813043
:10266000910511F48BE208C08230910511F483E3E7
:1026700003C0039729F48BE30E943C1181E0089585
:102680008FEF0895009711F483E20DC0813091051A
:1026900011F48BE208C08230910511F483E303C08A
:1026A000039729F48BE30E94291081E008958FEFAE
:1026B0000895009711F483E20DC08130910511F463
:1026C0008BE208C08230910511F483E303C00397C5
:1026D00029F48BE30E949A1081E008958FEF08950A
:1026E000882319F085B78F7E02C085B7806185BFCA
:1026F00081E008959091C80095FFFCCF8093CE00B3
:1027000008959093C5008093C40086E08093C20032
:10271000E1ECF0E080818B7F8083A0ECB0E08C91D5
:1027200082608C9380818861808308959093CD002E
:102730008093CC0086E08093CA00E9ECF0E08081D1
:102740008B7F8083A8ECB0E08C9182608C93808139
:10275000886180830895CF93DF930E9481136FED8A
:102760007FE08BEE9FE00E949730CCE5DAE09B8320
:102770008A836FED7FE08BEE9FE00E949730998314
:102780008883DF91CF9108958091C80087FFFCCFA7
:102790008091C8008F778093C8008091CE00089503
:1027A00000000000000000000197D1F708950C948C
:1027B000F2310E94FA310895EF92FF920F931F9326
:1027C000CF93DF937C0180E090E00E94F231182FDC
:1027D000F701838381E090E00E94F231082FF70136
:1027E000828382E090E00E94F231D82FF70181834A
:1027F00083E090E00E94F231C82FF701808384E0EB
:1028000090E00E94F231100FD10FCD0F8C1711F014
:102810008FEF01C081E0DF91CF911F910F91FF9069
:10282000EF900895CF93DF93EC0185E090E00E9454
:10283000F231888381E0DF91CF910895FC016081BE
:1028400086E090E00E94FA3181E00895CF93DF9313
:10285000EC0186E090E00E94F231888381E0DF9114
:10286000CF9108950F931F93CF93DF938C01C0E016
:10287000D0E0CE0108960E94F231F80181938F01D9
:102880002196C031D105A9F781E0DF91CF911F9149
:102890000F9108950F931F93CF93DF938C01C0E0A6
:1028A000D0E0F80161918F01CE0108960E94FA31C3
:1028B0002196C031D105A9F781E0DF91CF911F9119
:1028C0000F910895CF93DF93EC0187E090E00E9491
:1028D000F231888381E0DF91CF910895FC0160811E
:1028E00087E090E00E94FA3181E00895F89408951D
:1028F000789408950E947614FFCFCF93DF93CDB7DD
:10290000DEB7A3970FB6F894DEBF0FBECDBF0E940F
:10291000931C8093E9098F3F21F460E08EE00E94D0
:10292000DB1A0E94442B80FF04C060E086E00E9416
:10293000DB1A0E945B2D8F3F31F40E943E2D60E038
:1029400080E10E94DB1A0E944C2D1092EC0910923B
:10295000FA091092F9091092EB091092EA09109203
:10296000FB090E9420161092F8098FEF8093E50969
:102970008093E7098093E60980E090E033E62FEF4B
:10298000FC01E45FF64F328720878B96873D9105E7
:10299000B9F7E5E3FAE0CF01059694838383F783E3
:1029A000E683FC018AE0EE34F807A9F71092370AB3
:1029B0001092360A1092520A1092510A1092EF09A0
:1029C0001092EE0985E39AE090930B0980930A092F
:1029D00061E675E2CE0101960E947C2D40E850E050
:1029E0006FE478E0CE0101960E94802D85E580930A
:1029F0004F0819861C861D861E861F86188A198A0E
:102A00001A8A1B8A1C8A1D8A1E8A1F8A188E198E92
:102A10001A8E1B8E1C8E1D8E1E8E1F8E18A219A242
:102A20001AA21BA281E0888792E09A878B87CE0149
:102A300001960E949620A3960FB6F894DEBF0FBEB3
:102A4000CDBFDF91CF91089504E119E0C0E0F80116
:102A5000D080FFEFDF1222C0CF5F055D1F4FC53072
:102A6000B1F70E94851F2BE28202C0011124FC01F4
:102A7000E45FF64F82858093FB09F093FA09E093B7
:102A8000F909F093EB09E093EA098093EC090E94BD
:102A9000F22D0E94DC2D0E94F62D16C084E1E82E56
:102AA00089E0F82ED0E0CD1741F0F7018081D812EF
:102AB00004C06D2D85E00E94DB1ADF5FFBE2EF0EA4
:102AC000F11CD53081F7C8CFFFCFCF92DF92EF92C4
:102AD000FF920F931F93CF93DF93EC018B017A0149
:102AE0008985823021F08091E809888301C01882AD
:102AF0008091E809853020F060E087E00E94DB1AD1
:102B00008985823029F08091E8098F5F8093E809F8
:102B10008091E809811103C081E08093E809388140
:102B20002BE23203F0011124E45FF64F118300839E
:102B30008885828738813203F0011124E45FF64FE3
:102B400083E0818738813203F0011124E45FF64F7E
:102B500030870881020380011124045F164FF801B9
:102B60001582CE010B960E94F324F80161A372A393
:102B700083A394A38B859C85AD85BE8588339948B6
:102B8000A144B10520F0688186E10E94DB1AC8806B
:102B9000DD24C7FCD094CE014B960E94F3241BE2A7
:102BA0001C9DF0011D9DF00D1124E45FF64F658B17
:102BB000768B878B908F28812103C00111249C0183
:102BC000245F364F6901F901458956896789708DFF
:102BD00081A192A1A3A1B4A1840F951FA61FB71F25
:102BE000818F928FA38FB48FCE0143960E94F324DE
:102BF000F60165A376A387A390A728812103F0019E
:102C00001124E45FF64F85A196A1A7A1B0A5858FF9
:102C1000968FA78FB0A381E090E092A781A7F3825F
:102C2000E2828487DF91CF911F910F91FF90EF9007
:102C3000DF90CF9008950C947B2585E690E0089571
:102C400010928006109281061092820610928306DE
:102C500010928406109285061092860610928706BE
:102C6000E7EBF7E080E090E010821182128213829D
:102C70001086118612861386148215821682178298
:102C80001486158616861786108A118A128A138A68
:102C9000108E118E128E138EDC01A954B84F5C96E3
:102CA0001C925C975D961C927E964E968639910595
:102CB000D9F608950F931F93E0E8F6E0A82FB0E04F
:102CC00023EB36EE4EE050E00E94B02F04811581D8
:102CD00026813781DC01CB01800F911FA21FB31F1A
:102CE00084839583A683B783CF011F910F910C94A2
:102CF000C023E0E8F6E04081518162817381DC010C
:102D00004D935D936D937C931397448155816681B8
:102D10007781FC01448355836683778308952EE190
:102D2000829FC0011124FC01E954F84F858D813048
:102D300039F0848D8F5F848F8F3F11F481E0858F10
:102D400008952EE1829FC0011124FC01E954F84F3F
:102D5000858D8130B1F0148A158A168A178A808988
:102D60009189A289B3890196A11DB11D808B918B98
:102D7000A28BB38B8E3F9F4FAF4FBF4F11F481E0BB
:102D8000858F08950F931F932EE1829FC001112418
:102D9000FC01E954F84F858D813071F1808D918D62
:102DA000A28DB38D0196A11DB11D808F918FA28F31
:102DB000B38F462F50E060E070E0048915892689C2
:102DC0003789040F151F261F371F048B158B268B81
:102DD000378B0081118122813381400F511F621F87
:102DE000731F40835183628373838E3F9F4FAF4F26
:102DF000BF4F11F481E0858F1F910F910895CF92FD
:102E0000DF92EF92FF92282F30E09EE1899FF00140
:102E10001124E954F84F858D813009F44BC0462FB9
:102E200050E060E070E084899589A689B789840FB5
:102E3000951FA61FB71F84879587A687B787C08071
:102E4000D180E280F3804C0D5D1D6E1D7F1D40839F
:102E500051836283738344815581668177814115F3
:102E600051056105710529F084179507A607B70775
:102E700060F44EE1429FF001439FF00D1124E954AC
:102E8000F84F84839583A683B7834EE1429FF00178
:102E9000439FF00D1124E954F84F40855185628518
:102EA0007385481759076A077B0720F48087918745
:102EB000A287B387FF90EF90DF90CF9008958F9215
:102EC0009F92AF92BF92CF92DF92EF92FF920F93B9
:102ED0001F93CF93DF93CDB7DEB728970FB6F89443
:102EE000DEBF0FBECDBF182F88E993E00E94081007
:102EF000A12EB12C1F921F938DE093E09F938F938F
:102F00000E941A310F900F900F900F90111152C024
:102F10008DE793E00E940810CE0101960E94D7220F
:102F20006D817E818F819885E0E4CE2EE2E4DE2EF5
:102F3000EFE0EE2EF12CA70196010E94DF2F5F93A8
:102F40004F933F932F938C818F938B818F938A81A3
:102F50008F9389818F9300E113E01F930F930E9459
:102F60001A318CE593E00E940810609184067091FC
:102F700085068091860690918706A70196010E949A
:102F8000DF2F5F934F933F932F93809183068F930F
:102F9000809182068F93809181068F938091800625
:102FA0008F931F930F930E941A310FB6F894DEBFD0
:102FB0000FBECDBF8BE493E00E9408108EE18A9D86
:102FC00080018B9D100D11240954184FF801608168
:102FD0007181828193810E94BC2429833A834B832F
:102FE0005C836D837E838F8398876D817E818F81E3
:102FF000988520E4822E22E4922E2FE0A22EB12C7E
:10300000A50194010E94DF2F5F934F933F932F936D
:103010008C818F938B818F938A818F9389818F93FA
:1030200030E1E32E33E0F32EFF92EF920E941A314B
:1030300080E393E00E940810F80164817581868125
:1030400097810E94BC2429833A834B835C836D83E0
:103050007E838F8398876D817E818F819885A5017E
:1030600094010E94DF2F5F934F933F932F938C81A6
:103070008F938B818F938A818F9389818F9340E285
:10308000C42E43E0D42EDF92CF920E941A31F80171
:1030900064857585868597850E94BC2429833A833B
:1030A0004B835C836D837E838F8398876D817E8164
:1030B0008F819885A50194010E94DF2F5F934F9324
:1030C0003F932F938C818F938B818F938A818F93E2
:1030D00089818F93DF92CF920E941A31F801608527
:1030E0007185828593850E94BC2429833A834B8312
:1030F0005C836D837E838F8398876D817E818F81D2
:103100009885A50194010E94DF2F5F934F933F9311
:103110002F938C818F938B818F938A818F93898159
:103120008F93FF92EF920E941A310FB6F894DEBF90
:103130000FBECDBF80E293E00E940810F8017096A8
:1031400083818F9382818F9381818F93F80180890E
:103150008F9352E3E52E53E0F52EFF92EF920E94FB
:103160001A318DE093E00E940810F801789683816F
:103170008F9382818F9381818F93F801808D8F93BC
:10318000FF92EF920E941A3184EF92E00E940810A1
:10319000F801848D1F928F9366E3E62E63E0F62E8E
:1031A000FF92EF920E941A3187ED92E00E94081080
:1031B000F801858D1F928F93FF92EF920E941A3132
:1031C00084ED92E00E9408100FB6F894DEBF0FBEA7
:1031D000CDBF28960FB6F894DEBF0FBECDBFDF91EE
:1031E000CF911F910F91FF90EF90DF90CF90BF9004
:1031F000AF909F908F900895CF9387EB92E00E94BD
:103200000810C0E08C2F0E945F17CF5FC530D1F748
:10321000CF910895DB01853008F054C09EE1899F6D
:10322000F0011124E954F84F40815181628173818A
:103230004D935D936D937C93139744815581668183
:10324000778114964D935D936D937C93179740858A
:1032500051856285738518964D935D936D937C932C
:103260001B9744855585668577851C964D935D93A0
:103270006D937C931F974089518962897389509619
:103280004D935D936D937C935397448955896689DB
:10329000778954964D935D936D937C935797408DAA
:1032A000518D628D738D58964D935D936D937C9384
:1032B0005B97848D5C968C935C97858D5D968C93E3
:1032C00081E008958FEF0895E091F909F091FA09EE
:1032D00084870895E091F909F091FA0984850895A9
:1032E000CF93DF93D82FC62F80E092E00E94D713B0
:1032F0008F5F8F3F19F08093C30502C01092C30502
:103300002091C30536E0239FC00111246D2F8F5FEC
:103310009D4F0E94D9138091C30546E0849FC00150
:1033200011246C2F8E5F9D4F0E94D9132091C305ED
:103330004091F0095091F1096091F2097091F309FF
:10334000672F77278827992746E0249F900111242B
:10335000C9018D5F9D4F0E94D9132091C3054091F3
:10336000F0095091F1096091F2097091F3098827F1
:10337000992746E0249F90011124C9018C5F9D4F3D
:103380000E94D9132091C3054091F0095091F10991
:103390006091F2097091F3099927872F762F652F95
:1033A00046E0249F90011124C9018B5F9D4F0E942C
:1033B000D9138091C30526E0829FC001112460913A
:1033C000F0098A5F9D4F0E94D9136091C30580E088
:1033D00092E0DF91CF910C94D913FC0180914D08BC
:1033E000882331F0DB018C9380915206808381E049
:1033F000089580914D08882309F483C08FEC95E0EF
:103400000E940810809152061F928F938DE093E0E6
:103410009F938F930E941A318BEC95E00E940810C5
:103420000F900F900F900F9080914D08883110F001
:1034300010924D08E0914D088E2F90E0FC013197DD
:10344000E631F10508F046C0E654FF4F0C946030B9
:103450008FE895E041C088E695E03EC084E595E0C0
:103460003BC08EE395E038C083E295E035C08DE047
:1034700095E032C085EF94E02FC082EE94E02CC03E
:103480008FEC94E029C081EB94E026C08CE894E0B6
:1034900023C080E894E020C085E694E01DC086E566
:1034A00094E01AC082E494E017C081E394E014C071
:1034B0008DE194E011C08DEF93E00EC085EE93E0B6
:1034C0000BC08AEC93E008C089EB93E005C08AEA60
:1034D00093E002C083EA93E00E94081060915E0AC4
:1034E00070915F0A8DE090E00E94E23060915E0A88
:1034F00070915F0A8AE090E00E94E23080914D086E
:10350000089580E0089513BC1092B60018BC17BC53
:1035100016BC15BC14BC1DBA1CBA1BBA10929B0079
:1035200010929A00109299001092980010929500B3
:1035300010929400109291001092900018BA10927C
:1035400071001092B4001092B3001092B200109269
:10355000B100E0EBF0E01082108217BA1092700018
:103560008FEF84BF08950E9476140E943E2D8091B3
:103570004D08803171F08351823058F00E94831AD7
:103580008BED95E00E9408100E944C2D0E9476144D
:10359000FFCF10924D08089580934D08E091F909EE
:1035A000F091FA096085609352060E9470190E949A
:1035B000F9190C94B31A80934D08609352060E9437
:1035C00070190E94F9190C94B31ACF93DF931F92CC
:1035D000CDB7DEB719828981843640F480ED97E05B
:1035E0000E947A2989818F5F8983F5CF0F90DF91BF
:1035F000CF91089581E090E00E9459130E94E51A4E
:103600000E94E51A0E94E51A81E090E00E944213B0
:103610000C94E51A81E090E00E9459130E94E51A8B
:1036200081E090E00E9442130C94E51AFF920F9300
:103630001F93CF93DF9300D01F92CDB7DEB71F92B9
:103640008F938DE093E09F938F938E010F5F1F4FB9
:103650001F930F930E9464310F900F900F900F9063
:103660000F900F90F12CF80101900020E9F73197AD
:10367000E01BF10B8F2D90E08E179F0708F05DC0C7
:10368000F801E80FF91FE0818E2F90E0FC01F09720
:10369000EA30F10508F049C0E053FF4F0C94603068
:1036A0000E94FA1A02C00E940A1B0E94FA1A0E9483
:1036B000FA1A0E94FA1A0E94FA1A37C00E940A1BCC
:1036C0000E940A1BF4CF0E940A1B0E940A1B0E9440
:1036D0000A1BEFCF0E940A1B0E940A1B0E940A1BB2
:1036E0000E940A1BE8CF0E940A1B02C00E94FA1A1D
:1036F0000E940A1B04C00E94FA1A0E94FA1A0E9431
:103700000A1B06C00E94FA1A0E94FA1A0E94FA1AAC
:103710000E940A1B08C00E94FA1A0E94FA1A0E940C
:10372000FA1A0E94FA1A0E940A1B0E94E51A0E94C5
:10373000E51A0E94E51AF39496CF0F900F900F9020
:10374000DF91CF911F910F91FF9008956F927F921B
:103750008F929F92AF92BF92CF92DF92EF92FF92A1
:103760000F931F93CF93DF938BEE95E00E94081089
:10377000E091F909F091FA098085282F332727FD78
:1037800030953F938F9389E393E09F938F930E94AB
:103790001A31E091F909F091FA09C281D381DF93DE
:1037A000CF938DE693E09F938F930E941A31888187
:1037B0001F928F9382E493E09F938F930E941A311C
:1037C000E091F909F091FA0981818F9380818F93BB
:1037D0008FE493E09F938F930E941A318091FA09AE
:1037E0008F938091F9098F9389E593E09F938F934D
:1037F0000E941A31CCE0D9E0EDB7FEB774960FB64F
:10380000F894FEBF0FBEEDBF00E010E089E6682E21
:1038100083E0782E92E4892E93E0992E2FE4A22E55
:1038200023E0B22E39E5C32E33E0D32EEA80FB80AD
:10383000FF92EF921F930F937F926F920E941A3123
:10384000F70180811F928F939F928F920E941A316D
:1038500089818F9388818F93BF92AF920E941A3192
:10386000DF93CF93DF92CF920E941A310F5F1F4FE9
:10387000AB96EDB7FEB772960FB6F894FEBF0FBECB
:10388000EDBF0530110591F6DF91CF911F910F919A
:10389000FF90EF90DF90CF90BF90AF909F908F9070
:1038A0007F906F900895CF93DF93E091F909F091A5
:1038B000FA09C281D3818881853539F00E94A61B1F
:1038C00081E00E94CC1A85E58883E091F909F091A6
:1038D000FA09808191818115924438F00E94A61BDB
:1038E00082E1DF91CF910C94CC1ADF91CF910895B2
:1038F0002BE28202C0011124FC01E45FF64FA28199
:10390000B3818C91853519F085E58C9308C0808151
:1039100091818115924428F082E10E94CC1A8FEFA8
:10392000089581E008950F931F9340918806509168
:10393000890660918A0670918B0680E090E08A018A
:103940009B01082E04C036952795179507950A9474
:10395000D2F700FD19C001E010E020E030E0082EB1
:1039600004C0000F111F221F331F0A94D2F7402BEF
:10397000512B622B732B40938806509389066093DA
:103980008A0670938B0605C0019680329105B9F6C0
:103990008FEF1F910F910895E091F909F091FA09C5
:1039A00065857685878590890895CF92DF92EF921D
:1039B000FF920F931F93CF93DF93C12CD12C7601ED
:1039C000C394082E04C0CC0CDD1CEE1CFF1C0A9412
:1039D000D2F7409188065091890660918A067091CD
:1039E0008B064C215D216E217F21452B462B472BD9
:1039F00009F460C0082F0E947614E5E1F9E0B701F0
:103A0000A601409550956095709513E0DF011197E0
:103A10008C918F3F39F184819581A681B7818C1576
:103A20009D05AE05BF0551F41086118612861386DA
:103A30009F0122503109E9011882108384239523C4
:103A4000A623B72384839583A683B7838085918536
:103A5000A285B38584239523A623B72380879187E6
:103A6000A287B387BB96D9E0EC3EFD0779F68EEFCF
:103A70009FEFAFEFBFEF04C0880F991FAA1FBB1FB6
:103A80000A95D2F7409188065091890660918A067E
:103A900070918B0684239523A623B72380938806F1
:103AA00090938906A0938A06B0938B060E9478149F
:103AB00081E001C08FEFDF91CF911F910F91FF90B7
:103AC000EF90DF90CF9008950F931F9341E050E067
:103AD00060E070E08A019B0104C0000F111F221FEB
:103AE000331F8A95D2F7D901C801E091F909F09105
:103AF000FA09458556856785708904231523262391
:103B00003723012B022B032BD1F080959095A095A4
:103B1000B095482359236A237B23458756876787B7
:103B2000708B418952896389748984239523A623E4
:103B3000B723818B928BA38BB48B81E001C08FEF75
:103B40001F910F910895282F409188065091890662
:103B500060918A0670918B06082E04C07695679551
:103B6000579547950A94D2F740FF1DC0E091F90997
:103B7000F091FA0981E090E0A0E0B0E004C0880F85
:103B8000991FAA1FBB1F2A95D2F7458556856785C1
:103B90007089842B952BA62BB72B85879687A787B3
:103BA000B08B81E008958FEF0895CF92DF92EF926E
:103BB000FF92CF93C12CD12C7601C39404C0CC0CBE
:103BC000DD1CEE1CFF1C8A95D2F78091880690912F
:103BD0008906A0918A06B0918B068C219D21AE2189
:103BE000BF21892B8A2B8B2B11F481E044C00E94CA
:103BF0007614E3E1F9E0A5E1B9E0C0E083E090816B
:103C00009130B9F442855385648575854C215D21D9
:103C10006E217F21452B462B472B59F08C9316861E
:103C20001786108A118A1082C286D386E486F586AA
:103C3000C1E090819230A1F44285538564857585F9
:103C40004C155D056E057F0559F48C931686178615
:103C5000108A118A10821286138614861586C1E096
:103C6000BB969B9699E0EA3EF90749F60E947814C4
:103C7000C11105C082E00E9464198FEF01C081E08C
:103C8000CF91FF90EF90DF90CF9008950F931F9307
:103C9000E091F909F091FA090585168527853089A3
:103CA0000623172328233923011511052105310582
:103CB00011F1DC01CB01818B928BA38BB48B21E0C2
:103CC00027830090E90904C0B695A7959795879535
:103CD0000A94D2F780FF03C00E94FE2104C080E056
:103CE00090E00E94CF21E091F909F091FA09018951
:103CF000128923893489C901B8011F910F91089550
:103D000080E090E0089521E0855E994009F420E08C
:103D1000822F819508950E94831E8F3F11F481E0C8
:103D200003C0813029F482E00E9464198FEF089566
:103D3000992787FD9095FC01EE0FFF1F8E0F9F1FA7
:103D4000FC01EB51F64F82810895EF92FF920F93A1
:103D50001F93CF93DF931F92CDB7DEB70E94831ED0
:103D60008F3F11F481E003C0813029F482E00E948A
:103D700064198FEF41C089830E9476148981E82EEF
:103D8000FF24E7FCF0948701000F111FF801EE0DEE
:103D9000FF1DEB51F64F9281911116C0E091F90988
:103DA000F091FA09978192609783992787FD909502
:103DB000A92FB92F818B928BA38BB48B0E9478147F
:103DC00080E090E00E94CF210E0D1F1DD801AB5165
:103DD000B64F12968C911297815012968C9312972F
:103DE000E091F909F091FA0911968C91838781E0AD
:103DF00084830E94781481E00F90DF91CF911F910E
:103E00000F91FF90EF9008950F931F93CF93DF933F
:103E10001F92CDB7DEB70E94831E8F3F11F481E061
:103E200003C0813029F482E00E9464198FEF44C0FE
:103E3000482F552747FD50959A01220F331F240F15
:103E4000351F89010B51164FF801228190812917E6
:103E500094F589830E947614F80192819F5F928382
:103E6000E091F909F091FA091482E3E1F9E089811E
:103E7000992787FD9095A92FB92F23E03081323003
:103E800099F44285538564857585481759076A07F3
:103E90007B0751F4228316861786108A118A1082B6
:103EA0001286138614861586BB9639E0EA3EF30720
:103EB00029F70E94781481E00F90DF91CF911F9134
:103EC0000F9108950E94831E8F3F11F481E003C07B
:103ED000813029F482E00E9464198FEF08959927B8
:103EE00087FD9095FC01EE0FFF1F8E0F9F1FFC01B9
:103EF000EB51F64F8FEF8083828381838091F809A5
:103F000081508093F80981E00895E091EE09F091E5
:103F1000EF0980810895E091EE09F091EF09309763
:103F200021F00380F481E02DFACF0895AF92BF9283
:103F3000CF92DF92EF92FF920F931F93CF93DF9375
:103F4000E0910A09F0910B09309709F494C00091AF
:103F5000EE091091EF090115110509F44CC0D801C3
:103F60004BE2582F540390011124245F364F7901FE
:103F70009AE0E90EF11C6901C4E0CC0ED11C590194
:103F8000DBE0AD0EB11C2C9130E0429FB001439FAD
:103F9000700D1124645F764FEB019C81992329F009
:103FA0005B85E7019881591740F1E60198819923D3
:103FB00069F0429FB001439F700D1124645F764FFA
:103FC000EB015A85E50198815917B8F0429FB0017D
:103FD000439F700D11249B01245F364FE9012A8510
:103FE000E7019881291748F013960D90BC91A02DF8
:103FF000109749F602C0A0E0B0E08083C381D4816D
:10400000D0930B09C0930A09A017B107B1F4109718
:1040100049F0B483A383128211821296FC93EE932B
:10402000119706C01482138212821182FA83E983E7
:10403000F093EF09E093EE091EC0AC17BD0779F0CD
:1040400011968D919C91129792838183B483A3835F
:104050001196CD91DC911297FC83EB8308C01482FA
:10406000138211968D919C9112979283818312965F
:10407000FC93EE931197DF91CF911F910F91FF90D9
:10408000EF90DF90CF90BF90AF900895CF93DF93E4
:10409000E091EE09F091EF09309709F444C09927B7
:1040A00087FD9095208130E02817390781F4A3819E
:1040B000B481B093EF09A093EE0912961C921E9260
:1040C000119718C00380F481E02D309761F12081B1
:1040D00030E028173907B1F7C181D28183819481FB
:1040E0009C838B83A381B481109721F01296DC937B
:1040F000CE931197A0910A09B0910B09109739F44A
:10410000F0930B09E0930A09148213820AC0B48366
:10411000A3831296FC93EE931197F0930B09E0930F
:104120000A0912821182DF91CF910895EF92FF92D6
:104130000F931F93CF93DF93EC014B815C816981D7
:104140007A818D819E810E949E2D2F81222371F084
:104150004B815C81E12CF12C00E010E020E030E0AC
:10416000BC01CE010E9465151F820CC0E8812BE2C4
:10417000E202F0011124E45FF64F21852330B9F407
:1041800091838083E8818BE2E802F0011124E45FEF
:10419000F64F85899689A789B08D892B8A2B8B2B21
:1041A00041F482E0818788810E94961F02C08FEFD0
:1041B00001C081E0DF91CF911F910F91FF90EF90AF
:1041C00008951F93CF93DF93CDB7DEB728970FB62F
:1041D000F894DEBF0FBECDBF29833A834B835C8347
:1041E0006D837E838F8398870E9476140E94C82AED
:1041F000182FCE0101960E94F3246330710598F0C8
:10420000E091F909F091FA09212F30E0620F731F54
:10421000CB01A0E0B0E0858B968BA78BB08F0E947E
:10422000781481E001C08FEF28960FB6F894DEBFB6
:104230000FBECDBFDF91CF911F9108950E94712DC8
:10424000E091F909F091FA0985818111F7CF08957C
:10425000CF930E94531C0E947614E091F909F091CB
:10426000FA0981E090E092A781A785830E94C82A7D
:10427000C82F883F80F40E94622A2C2F30E02F5FE5
:104280003F4F90E02817390734F482E08C0F809379
:10429000B6070E94662A0E9478140E941E2181E0BF
:1042A000CF910895E091F909F091FA0980850E9473
:1042B0004620E091F909F091FA0984E081870E9493
:1042C000282181E00895CF93DF93EC010E94531CD5
:1042D000209711F4C1E0D0E00E947614E091F90932
:1042E000F091FA0981E08583D2A7C1A70E94C82A6C
:1042F000C82F883F80F40E94622A2C2F30E02F5F65
:104300003F4F90E02817390734F482E08C0F8093F8
:10431000B6070E94662A0E9478140E941E2181E03E
:10432000DF91CF910895EF92FF920F931F93CF9358
:104330008C010E947614E091F909F091FA0981E06C
:1043400085830E94C82AC82FE091F909F091FA09E3
:10435000E82EF12CC701800F911FA0E0B0E0858B03
:10436000968BA78BB08FC83F78F40E94622A9FEF8C
:10437000E91AF90A90E0E816F90634F482E08C0FA5
:104380008093B6070E94662A0E9478140E941E211C
:1043900081E0CF911F910F91FF90EF900895CF93FF
:1043A000DF93EC010E947614E091F909F091FA098B
:1043B00021E02583CE01A0E0B0E0858B968BA78B12
:1043C000B08F0E94C82AC82F883F80F40E94622ABA
:1043D0002C2F30E02F5F3F4F90E02817390734F43F
:1043E00082E08C0F8093B6070E94662A0E947814A0
:1043F0000E941E2181E0DF91CF910895CF930E940A
:104400007614E091F909F091FA0981E085838683B9
:104410000E94C82AC82F883F80F40E94622A2C2F4D
:1044200030E02F5F3F4F90E02817390734F482E0E7
:104430008C0F8093B6070E94662A0E9478140E940F
:104440001E2181E0CF9108951F93CF93DF93CDB7C5
:10445000DEB728970FB6F894DEBF0FBECDBF298315
:104460003A834B835C836D837E838F8398870E941E
:10447000531C0E947614E091F909F091FA0981E049
:10448000858381E090E092A781A70E94C82A182F17
:10449000CE0101960E94F324E091F909F091FA0906
:1044A000DC01CB01810F911DA11DB11D858B968B68
:1044B000A78BB08F183F80F40E94622A212F30E032
:1044C0002F5F3F4F90E02817390734F482E0810FC7
:1044D0008093B6070E94662A0E9478140E941E21CB
:1044E00081E028960FB6F894DEBF0FBECDBFDF91F6
:1044F000CF911F9108958F929F92AF92BF92CF92CA
:10450000DF92EF92FF920F931F93CF93DF93CDB77C
:10451000DEB760970FB6F894DEBF0FBECDBF298718
:104520003A874B875C876D877E878F87988BCE0114
:1045300001960E94D72289809A80AB80BC80CD8072
:10454000DE80EF80F88409851A852B853C854D85B2
:104550005E856F857889CE0109960E9434238F3F4E
:1045600061F029853A854B855C856D857E858F85D3
:1045700098890E94242281E001C08FEF60960FB6D7
:10458000F894DEBF0FBECDBFDF91CF911F910F9189
:10459000FF90EF90DF90CF90BF90AF909F908F9063
:1045A0000895E091F909F091FA09808508950F9333
:1045B0001F93CF93DF93EC011C821D821E821F820A
:1045C0008091F0099091F109A091F209B091F3095D
:1045D00088839983AA83BB838091F4099091F5091C
:1045E000A091F609B091F7098C839D83AE83BF83B8
:1045F0000E94C82AA82FB0E023EB36EE4EE050E030
:104600000E94B02F0C811D812E813F81DC01CB01E6
:10461000800F911FA21FB31F8C839D83AE83BF8326
:104620008C819D81AE81BF8181152AEC92072AE998
:10463000A2072BE3B20798F09A5CAA49BB438C838C
:104640009D83AE83BF8388819981AA81BB810196B6
:10465000A11DB11D88839983AA83BB83E1CFDF911C
:10466000CF911F910F9108958F929F92AF92BF9219
:10467000CF92DF92EF92FF920F931F93CF93DF932E
:10468000CDB7DEB760970FB6F894DEBF0FBECDBFD3
:10469000FC0109831A832B833C834D835E836F83E4
:1046A000788789869A86AB86BC86CD86DE86EF863D
:1046B000F88A09811A812B813C814D815E816F814D
:1046C0007885C984DA84EB84FC848D859E85AF85EA
:1046D000B8890C151D052E053F05F0F1C016D10651
:1046E000E206F30691F4481759076A077B07A0F121
:1046F000481B590B6A0B7B0B448355836683778376
:10470000108211821282138225C0481759076A0746
:104710007B0780F401501109210931090C191D0989
:104720002E093F0900831183228333835653654644
:10473000744C08C00C191D092E093F090083118310
:1047400022833383481B590B6A0B7B0B44835583AD
:104750006683778381E001C08FEF60960FB6F8948F
:10476000DEBF0FBECDBFDF91CF911F910F91FF90A4
:10477000EF90DF90CF90BF90AF909F908F90089573
:10478000FC01448155816681778141158AEC580787
:104790008AE968078BE3780798F05A5C6A497B439B
:1047A000448355836683778380819181A281B3811D
:1047B0000196A11DB11D80839183A283B383E1CFB4
:1047C00008958F929F92AF92BF92CF92DF92EF9215
:1047D000FF920F931F93CF93DF93CDB7DEB7609710
:1047E0000FB6F894DEBF0FBECDBF09831A832B83AB
:1047F0003C834D835E836F83788789869A86AB86F8
:10480000BC86CD86DE86EF86F88A09851A852B85DB
:104810003C8549815A816B817C81400F511F621F09
:10482000731FFC0140835183628373830D851E8552
:104830002F8538894D815E816F817885400F511FAA
:10484000621F731F44835583668377830E94C0234E
:1048500081E060960FB6F894DEBF0FBECDBFDF914A
:10486000CF911F910F91FF90EF90DF90CF90BF906D
:10487000AF909F908F900895E0EFF9E0608371838F
:1048800082839383248335834683578308952F92AD
:104890003F924F925F926F927F928F929F92AF92D0
:1048A000BF92CF92DF92EF92FF920F931F93FC0182
:1048B000C080D180E280F380C114D104E104F1040E
:1048C000E1F184819581A681B78122E4C216D104E9
:1048D000E104F104F0F51C012D01612C712C430160
:1048E000E0E08E2F90E0A0E0B0E08C159D05AE05D5
:1048F000BF0588F49101A201B301C40136534546B6
:10490000544C6F4F7F4F8F4F9F4F19012A013B012E
:104910004C01EF5FE6CF83EBA82E96EEB92E2EE08A
:10492000C22ED12CE12CF12C00E010E09101A2016B
:10493000B301C4010E9403300AC06481758186817D
:10494000978123EB36EE4EE050E00E94DF2FC90145
:1049500002C080E090E01F910F91FF90EF90DF90F8
:10496000CF90BF90AF909F908F907F906F905F900F
:104970004F903F902F900895CF92DF92EF92FF9249
:10498000CF93DF93CDB7DEB728970FB6F894DEBF8D
:104990000FBECDBF6B017C012AE0F694E794D7945B
:1049A000C7942A95D1F7C982DA82EB82FC829B01F7
:1049B000AC0133704427552763EB76EE8EE090E030
:1049C0000E94BB2F2C2D3A814B815C8128960FB61B
:1049D000F894DEBF0FBECDBFDF91CF91FF90EF9077
:1049E000DF90CF9008952F923F924F925F926F92F7
:1049F0007F928F929F92AF92BF92CF92DF92EF926F
:104A0000FF920F931F93FC01C080D180E280F3805E
:104A1000C114D104E104F104B9F184819581A68126
:104A2000B7811C012D01612C712C4301E0E08E2F18
:104A300090E0A0E0B0E08C159D05AE05BF0588F4C0
:104A40009101A201B301C40136534546544C6F4F46
:104A50007F4F8F4F9F4F19012A013B014C01EF5FA0
:104A6000E6CF83EBA82E96EEB92E2EE0C22ED12CE7
:104A7000E12CF12C00E010E09101A201B301C4018E
:104A80000E940330CA010BC06481758186819781C1
:104A900023EB36EE4EE050E00E94DF2FCA01B90151
:104AA0001F910F91FF90EF90DF90CF90BF90AF904C
:104AB0009F908F907F906F905F904F903F902F903E
:104AC0000895C1E00E94531C0E94622A843010F4B1
:104AD000C093ED090E94712D80914F08853519F022
:104AE00088E00E94CC1A80917E41853559F388E098
:104AF0000E94CC1AE7CF2F923F924F925F926F9213
:104B00007F928F929F92AF92BF92CF92DF92EF925D
:104B1000FF920F931F93CF93DF930E9478148AEF35
:104B20000E94662A0E94622D0E943028C091B6071A
:104B3000AC2FB0E023EB36EE4EE050E00E94B02FF9
:104B40000091F4091091F5092091F6093091F709C7
:104B50006B017C01C00ED11EE21EF31EC701B6011F
:104B600023EB36EE4EE050E00E94DF2FC61AD70A44
:104B7000E80AF90AC092F409D092F509E092F60920
:104B8000F092F709E091F909F091FA098085811115
:104B900030C08091ED09823019F48C2F0E945A1692
:104BA000E091F909F091FA096091B60780850E94B9
:104BB000C216E091F909F091FA0960E080850E943F
:104BC000FF168091F4099091F509A091F609B09132
:104BD000F7090091F0091091F1092091F209309143
:104BE000F30953EB452E56EE552E5EE0652E712CE3
:104BF00007C095816C2F9111E2CF0E94C216E1CFC0
:104C0000480159014FEF841A940AA40AB40A811585
:104C10005AEC95075AE9A5075BE3B507C8F06C01A4
:104C20007D012AECD21A2AE9E20A2BE3F20AC70133
:104C3000B601A30192010E94DF2FA7019601261B56
:104C4000370B480B590BDA01C90195018401D8CF04
:104C50008093F4099093F509A093F609B093F709AE
:104C60000093F0091093F1092093F2093093F309AE
:104C7000E091F909F091FA098581882339F181855C
:104C8000843021F18781823029F0882341F08681A8
:104C9000811102C085E001C083E0818714C083E0F8
:104CA00081871782168285899689A789B08D892B7D
:104CB0008A2B8B2B41F4818D928DA38DB48D858BA6
:104CC000968BA78BB08F80850E944620E091F909D2
:104CD000F091FA0985A196A1A7A1B0A5892B8A2BED
:104CE0008B2B09F44EC08085882309F44AC0918536
:104CF000943009F446C0458D568D678D70A10091A2
:104D0000B60710E020E030E0401751076207730754
:104D100098F40E948F16E091F909F091FA096085E4
:104D200082E00E94DB1AE091F909F091FA09158EF0
:104D3000168E178E10A208C0401B510B620B730B0E
:104D4000458F568F678F70A3E091F909F091FA09AA
:104D5000C085858D968DA78DB0A1892B8A2B8B2B35
:104D600081F48C2F0E948F166C2F83E00E94DB1A37
:104D7000E091F909F091FA0983E081878C2F0E9474
:104D80004620C5E1D9E000E61AEE312C2AEFC22E0A
:104D9000D12CE12CF12C32E0232E812C912C5401CA
:104DA0008394FE01319780818F3F09F4E5C03397EA
:104DB0001082882309F45BC08881843009F457C0CD
:104DC0004C845D846E847F846091B60770E080E0DF
:104DD00090E0461657066806790648F0461A570AC4
:104DE000680A790A4C865D866E867F8604C01C86BA
:104DF0001D861E861F86488859886A887B884616C5
:104E000057066806790648F0461A570A680A790A6A
:104E1000488A598A6A8A7B8A1AC0288D398D4A8DB8
:104E20005B8D621773078407950758F429013A01CF
:104E3000461A570A680A790A488A598A6A8A7B8A0E
:104E400006C00E94DF2F688B798B8A8B9B8B8889A9
:104E50009989AA89BB89892B8A2B8B2B41F4888D50
:104E6000998DAA8DBB8D888B998BAA8BBB8B8881E2
:104E7000833009F081C08C859D85AE85BF85892BE7
:104E80008A2B8B2B09F067C0DE0112978C91FE01F3
:104E90003397882391F08081882379F0B501A401AC
:104EA0000090E90904C0440F551F661F771F0A943C
:104EB000D2F7488759876A877B871C921082A8A1FE
:104EC000B9A1A130B10509F58C8D9D8DAE8DBF8D39
:104ED0008C8B9D8BAE8BBF8B288288899989AA8900
:104EE000BB898C879D87AE87BF87888D998DAA8D5A
:104EF000BB8D892B8A2B8B2B21F4CC86DD86EE860D
:104F0000FF86832D0E94961F26C04C8D5D8D6E8D71
:104F10007F8D4C8B5D8B6E8B7F8B488C598C6A8C14
:104F20007B8C1197A30192010E94B02F6C877D8723
:104F30008E879F87688B798B8A8B9B8B4528462829
:104F4000472821F4CC86DD86EE86FF8666246394AE
:104F5000712C79A268A28C859D85AE85BF8500974E
:104F6000A105B10549F0A80160E070E0841795073C
:104F7000A607B70708F48C013394AB9685E0782E2A
:104F800037100FCFE091F909F091FA0980850E945E
:104F9000A1160E94851FC82F2BE28202F001112466
:104FA000E45FF64F22852093FB09F093EB09E09331
:104FB000EA098823D9F085A196A1A7A1B0A5892BDC
:104FC0008A2B8B2B99F0858D968DA78DB0A18A3F6A
:104FD0009105A105B10550F4A80160E070E08417C7
:104FE0009507A607B70710F48C0105C00B3F110504
:104FF00010F00AEF10E02093EC09F093FA09E09327
:10500000F9090093B6070E94C82A282F30E02F5FC5
:105010003F4F2017310740F00E94C82A082F10E0A8
:105020000E5F1F4F0093B607C1111092ED09802F3C
:105030000E94662A0E94EB2DDF91CF911F910F9164
:10504000FF90EF90DF90CF90BF90AF909F908F90A8
:105050007F906F905F904F903F902F900C94F62D23
:105060003F924F925F926F927F928F929F92AF92F8
:10507000BF92CF92DF92EF92FF920F931F93CF9345
:10508000DF93CDB7DEB760970FB6F894DEBF0FBEE3
:10509000CDBFCE0109960E94D7228CEF482E89E021
:1050A000582E612C712C93E1392ED20112968C91DD
:1050B000813051F5369CF001379CF00D1124E95FE9
:1050C000F54F89849A84AB84BC84CD84DE84EF84DC
:1050D000F888008111812281338144815581668164
:1050E0007781CE0101960E9434238F3F69F4662DAB
:1050F00085E10E94DB1AD201ED91FC91309719F401
:105100000E947A1401C00995BFEF6B1A7B0AE3E194
:105110004E0E511CF3E06F16710439F660960FB60F
:10512000F894DEBF0FBECDBFDF91CF911F910F91DD
:10513000FF90EF90DF90CF90BF90AF909F908F90B7
:105140007F906F905F904F903F900895ECEFF9E063
:105150001282158A10A60895CF93DF938330E0F46E
:1051600093E1899FF0011124E450F64F518340836D
:10517000EB0188819981AA81BB8183839483A58374
:10518000B6838C819D81AE81BF8187839087A18703
:10519000B287128281E001C08FEFDF91CF91089535
:1051A000CF92DF92EF92FF920F931F93CF93DF93F3
:1051B000CDB7DEB728970FB6F894DEBF0FBECDBFD0
:1051C0008330A8F5182FCE0101960E94D72223E143
:1051D000129FC00111248C010450164FF801C380A6
:1051E000D480E580F68049815A816B817C814C0DA9
:1051F0005D1D6E1D7F1D4387548765877687C78039
:10520000D084E184F2844D815E816F8178854C0D7C
:105210005D1D6E1D7F1D4787508B618B728B895F73
:10522000954F0E94C02381E0F801828301C08FEF77
:1052300028960FB6F894DEBF0FBECDBFDF91CF9199
:105240001F910F91FF90EF90DF90CF9008951F93E3
:10525000CF93DF93CDB7DEB728970FB6F894DEBFB4
:105260000FBECDBF833070F5182FCE0101960E947E
:10527000D72283E1189FF0011124E450F64F4381B7
:1052800054816581768189819A81AB81BC81840F4B
:10529000951FA61FB71F83879487A587B687478169
:1052A0005085618572858D819E81AF81B885840F1F
:1052B000951FA61FB71F8787908BA18BB28B81E0AC
:1052C000828301C08FEF28960FB6F894DEBF0FBE21
:1052D000CDBFDF91CF911F910895833048F493E1C2
:1052E000899FF0011124E450F64F128281E0089565
:1052F0008FEF089500000000000000000000000093
:10530000000000000000000000000000019791F77D
:10531000089510922101089589E0809321018DE87C
:105320009CE3909329018093280108951092250110
:10533000109224010895CF93DF9300D0CDB7DEB74C
:1053400080912401909125019A83898389819A8192
:105350000F900F90DF91CF910895109281000895E2
:1053600081E080938100089583B5816083BD1092B0
:105370008500109284000895CF93DF9300D0CDB7BD
:10538000DEB780918400909185009A83898389811A
:105390009A810F900F90DF91CF910895CF92DF9275
:1053A000EF92FF92CF93DF93EC01CC0FDD1FC93753
:1053B0008FEFD80710F0C0E0D0E06B01E12CF12CAA
:1053C000CC0EDD1EE11CF11C81E0C816D104E806FC
:1053D000F10440F081E0E81AF1080E94BC29C817E6
:1053E000D907D8F30E94BC298C159D05D8F3DF910D
:1053F000CF91FF90EF90DF90CF9008951092B10081
:10540000E0E7F0E080818D7F808380818E7F8083E4
:1054100008958093B2000895E0E7F0E08081836012
:10542000808383E08093B100089583B5826083BD5B
:105430001092B200109255061092B6070895CF93BD
:10544000DF938EEF8093B60780E28093B600809161
:10545000B6078093B30083E087BB92E09093B000DF
:105460008093B10093B5926093BD87BB84BD83B533
:10547000826083BD1092800081E080938100109251
:1054800085001092840083B5826083BD83B58160FE
:1054900083BD10922001C4E2D1E01982188283B545
:1054A000826083BD83B5816083BD0E94152A198205
:1054B00018820E940C2A0E948C2910925506DF91B6
:1054C000CF9108958091B3008F5F089581508093AC
:1054D000B3000895811102C0109271008FEF0895FA
:1054E000811106C0109295001092940081E00895F9
:1054F0008FEF0895811105C08091940090919500DF
:10550000089580E090E00895811105C082E08093C5
:10551000710081E008958FEF0895811135C0CB01AE
:105520000197059710F46093B3071092900088E0FC
:105530008093910050939900409398003093C50553
:105540002093C4058091B307813021F480919100AC
:10555000816011C0823021F48091910082600BC083
:10556000833021F480919100836005C0843031F450
:105570008091910084608093910008C0853031F45F
:10558000809191008560F7CF8FEF089581E00895B5
:105590008091B20008951F920F920FB60F921124BE
:1055A00060E08AE00E94DB1AFFCF0F920FB60F92E5
:1055B0001F922F923F924F925F926F927F928F92A3
:1055C0009F92AF92BF92CF92DF92EF92FF920F9392
:1055D0001F932F933F934F935F936F937F938F937B
:1055E0009F93AF93BF93CF93DF93EF93FF93A091DC
:1055F000F909B091FA090DB60D920EB60D921F92EF
:10560000A0911E07B0911F071E90BEBFADBF0895A9
:105610001F920F920FB60F9211240BB60F922F9379
:105620003F934F935F936F937F938F939F93AF932A
:10563000BF93EF93FF93E091C405F091C5053097B8
:1056400011F0099504C060E08AE00E94DB1AFF9126
:10565000EF91BF91AF919F918F917F916F915F91EA
:105660004F913F912F910F900BBE0F900FBE0F9057
:105670001F9018951F920F920FB60F9211240F9042
:105680000FBE0F901F90189504B603FE02C080E174
:1056900001C080E004B602FE06C094B79B7F94BFB1
:1056A00004B600FE846004B601FE05C094B79D7F79
:1056B00094BF8260089581110CC004B600FE04C03E
:1056C00094B79E7F94BF01C081E09091B00091118A
:1056D00081E00895811102C0E89A39C0813011F447
:1056E000E99A0895823011F4EA9A31C0833021F4A6
:1056F00080916B00816029C0843021F480916B001F
:10570000826023C0853021F480916B0084601DC0CD
:10571000863021F480916B00886017C0873021F4B7
:1057200080916B00806111C0883021F480916B0002
:1057300080620BC0893021F480916B00806405C0C9
:105740008A3039F480916B00806880936B0081E02F
:1057500008958FEF0895811102C0E89839C0813013
:1057600011F4E9980895823011F4E99831C083303A
:1057700021F480916B008E7F29C0843021F48091C8
:105780006B008D7F23C0853021F480916B008B7F6F
:105790001DC0863021F480916B00877F17C0873051
:1057A00021F480916B008F7E11C0883021F48091AC
:1057B0006B008F7D0BC0893021F480916B008F7B53
:1057C00005C08A3039F480916B008F7780936B002D
:1057D00081E008958FEF0895811126C05093570AF4
:1057E0004093560A611104C0809169008C7F3DC0CE
:1057F000613049F4809169008D7F809369008091C8
:105800006900816032C0623049F480916900826031
:1058100080936900809169008E7F27C0633039F5DD
:1058200080916900836021C0813049F55093550A09
:105830004093540A611104C080916900837F15C0B0
:10584000613049F480916900877F8093690080917D
:10585000690084600AC0623061F4809169008860E8
:1058600080936900809169008B7F8093690081E05B
:1058700008956330E1F7809169008C60F6CF823043
:1058800031F55093590A4093580A611104C0809130
:1058900069008F7CEACF613049F4809169008F7D87
:1058A00080936900809169008061DFCF623049F4A4
:1058B00080916900806280936900809169008F7E89
:1058C000D4CF6330A1F6809169008063CECF83503E
:1058D000883050F480916800816080936800509314
:1058E0005B0A40935A0AC3CF8FEF08951F920F921D
:1058F0000FB60F9211240BB60F922F933F934F9335
:105900005F936F937F938F939F93AF93BF93EF9327
:10591000FF93E0915A0AF0915B0A309711F00995D4
:1059200004C060E08AE00E94DB1AFF91EF91BF9112
:10593000AF919F918F917F916F915F914F913F9127
:105940002F910F900BBE0F900FBE0F901F901895C8
:105950001F920F920FB60F9211240BB60F922F9336
:105960003F934F935F936F937F938F939F93AF93E7
:10597000BF93EF93FF93E091560AF091570A309747
:1059800011F0099504C060E08AE00E94DB1AFF91E3
:10599000EF91BF91AF919F918F917F916F915F91A7
:1059A0004F913F912F910F900BBE0F900FBE0F9014
:1059B0001F9018951F920F920FB60F9211240BB6DD
:1059C0000F922F933F934F935F936F937F938F9398
:1059D0009F93AF93BF93EF93FF93E091540AF0919D
:1059E000550A309711F0099504C060E08AE00E94E2
:1059F000DB1AFF91EF91BF91AF919F918F917F91B2
:105A00006F915F914F913F912F910F900BBE0F902F
:105A10000FBE0F901F9018951F920F920FB60F9206
:105A200011240BB60F922F933F934F935F936F9375
:105A30007F938F939F93AF93BF93EF93FF93E091E7
:105A4000580AF091590A309711F0099504C060E0A6
:105A50008AE00E94DB1AFF91EF91BF91AF919F9175
:105A60008F917F916F915F914F913F912F910F9007
:105A70000BBE0F900FBE0F901F901895A8959FB763
:105A8000F89484B7877F84BFE0E6F0E08081886186
:105A9000808310829FBF08959FB7F894A89584B71C
:105AA000877F84BFE0E6F0E08081886180838DE0BD
:105AB00080839FBF089504B603FE02C08FEF089550
:105AC00081E00895A8950895089583B7817F866041
:105AD00083BF83B7816083BF889583B78E7F83BF81
