:100000000C94FC020C94432F0C94752F0C94A72F86
:100010000C941B030C941B030C941B030C941B03E8
:100020000C941B030C94112F0C941B030C941B03B6
:100030000C941B030C94702D0C941B030C94702DCA
:100040000C941B030C941B030C941B030C941B03B8
:100050000C941B030C941B030C941B030C941B03A8
:100060000C941B030C941B030C941B030C941B0398
:100070000C941B030C941B030C941B030C941B0388
:100080000C94A32D0C941B030C941B030C941B03C6
:100090000C941B030C941B030C941B030C94990CE1
:1000A0000C941B030C941B030C941B030C941B0358
:1000B0000C941B030C941B030C941B030C941B0348
:1000C0000C941B030C941B030C941B030C941B0338
:1000D0000C941B030C941B030C941B030C941B0328
:1000E0000C941B030C9485100C9476100C94461001
:1000F0000C9436110C9437100C9428100C94161094
:100100000C9407100C941B030C941B030C941B03FE
:100110000C941B030C941B030C941B030C941B03E7
:10012000B612C312D012DD12EA12F712041327130B
:100130003513431351135F136D137B139E13A013D9
:10014000A213A413A613A813AA13C913EC13101413
:100150003314561479149C14D614E314F014FD14BB
:100160000A15171524153D154A15571564157115EF
:100170007E158B15C91CCF1CD21CD51CD81CDB1CB2
:10018000E11CDE1CE41CE71CEA1CF31CF61CF91C39
:10019000FC1CF01CC61CCC1CFF1C021DED1CC31C4F
:1001A000EB1DEE1DF91DFE1D051E0E1E111E161E59
:1001B0001D1E261E7478206572726F720D0A00462D
:1001C00061696C656420746F20726567697374651A
:1001D00072207369676E616C0D0A0054444D4120B2
:1001E0004552524F523A206372656174696E6720BE
:1001F000656E61626C65207369676E616C20666113
:10020000696C65640D0A0054444D41204552524FBB
:10021000523A206372656174696E67207478207346
:1002200069676E616C206661696C65640D0A0054D3
:10023000444D41204552524F523A206372656174D9
:10024000696E67207278207369676E616C206661E1
:10025000696C65640D0A0054444D412054583A209D
:10026000576F6B65207570206F6E2077726F6E67A9
:10027000207369676E616C0D0A0054444D4120542F
:10028000583A204572726F722063616C6C696E67B8
:10029000206576656E7420776169740D0A000D0A19
:1002A0004E616E6F2D524B205461736B20537461FD
:1002B000746973746963733A0D0A000D0A000D0ABC
:1002C0002020204F766572666C6F77204572726FC2
:1002D00072205374617475733A20000D0A20202037
:1002E0004B65726E656C2056696F6C6174696F6ED8
:1002F000733A20000D0A202020507265656D7074DD
:10030000696F6E733A20000D0A20202053776170C8
:100310002D696E733A20000D0A20202054696D6506
:10032000205B4D696E2C4C6173742C4D61785D3A85
:1003300020000D0A202020546F74616C204350551A
:100340003A20000D0A20202049646C652054617316
:100350006B204465657020536C6565702054696D31
:10036000653A20000D0A202020546F74616C2053E0
:10037000797374656D20557074696D653A2000203D
:100380005461736B2049443A2000554E4B4F574EF1
:100390000045787465726E616C20526573657400F7
:1003A00042726F776E204F75742044657465637474
:1003B000004661696C656420746F206372656174C6
:1003C000652053656D6170686F7265004661696C88
:1003D000656420746F20637265617465205369677A
:1003E0006E616C004B65726E656C2066756E637431
:1003F000696F6E206E6F7420696D706C656D656ECF
:100400007465640044657669636520447269766545
:1004100072204572726F72005761746368646F670F
:10042000205265737461727400535720576174636E
:1004300068646F6720526573746172740054696DEB
:100440006572204F766572666C6F7700556E6861D5
:100450006E646C656420496E746572727570742088
:10046000566563746F72004C6F7720566F6C7461C1
:100470006765004578747261205461736B207374F2
:1004800061727465642C206973206E726B5F6366A1
:10049000672E68206F6B3F0049646C65206F722087
:1004A0004B65726E656C20537461636B204F76658B
:1004B00072666C6F7700556E6578706563746564FD
:1004C0002052657374617274004475706C69636165
:1004D000746564205461736B2049440053636865FC
:1004E00064756C6572204D69737365642057616B28
:1004F000657570005461736B205265736572766523
:100500002056696F6C61746564005265736572761C
:1005100065204572726F7220696E2053636865644E
:10052000756C657200496E76616C69642053746104
:10053000636B20506F696E746572005461736B2039
:10054000537461636B204F766572666C6F770053EE
:100550007461636B20776173206E6F7420646566CD
:10056000696E6564206173206C6172676520656ED9
:100570006F75676821005461736B20706572696FD5
:100580006420746F6F206C617267652E20506572F5
:10059000696F64206D757374206265206C65737378
:1005A000207468616E203631207365636F6E6473EA
:1005B0002E00293A20002A4E524B204552524F52CB
:1005C00028004E524B205265626F6F742E2E2E0DF6
:1005D0000A000D0A535441434B2044554D500D0A17
:1005E0000045464765666700202B2D2E303132339B
:1005F000343536373839680011241FBECFEFD1E4C7
:10060000DEBFCDBF13E0A0E0B2E0E0E0FCE600E03A
:100610000BBF02C007900D92A039B107D9F71AE0BD
:10062000A0E9B3E001C01D92A738B107E1F70E942D
:10063000BC300C94FE350C94662DCF93DF9300D024
:10064000CDB7DEB711E086EAF82E92E3E92E27EA6D
:10065000D22E30EDC32E4DE1B42E51EDA52E6CE31C
:10066000962E73E0872EEDE37E2E04E110920106B4
:1006700010939B078091A5069091A6069C012F5F81
:100680003F4F3093A6062093A50680939C07F092D7
:100690009206E092930662E082E996E00E94530C93
:1006A000D092920667E082E996E00E94530C67E0E0
:1006B00082E996E00E94820C82E090E02C012FEF0C
:1006C000421A520AFC01EF56F94F2081FC01E5560F
:1006D000F84F2083C2018830910581F7C0929206BD
:1006E000B092930662E082E996E00E94530CA092D9
:1006F000920667E082E996E00E94530C67E082E987
:1007000096E00E94820C92012F5F3F4FF201E55765
:10071000F94F8081F201E556F84F808329012E3090
:10072000310589F7909292068092930662E082E901
:1007300096E029833A830E94530C7092920667E0F8
:1007400082E996E00E94530C67E082E996E00E94FD
:10075000820C3A812981F901EB57F94F8081F90127
:10076000E556F84F80832F5F3F4F2431310599F7CD
:100770000093A608109301060E94C32377CFCF935E
:10078000DF93CDB7DEB728970FB6F894DEBF0FBE64
:10079000CDBF0E946C251F928F9388E792E09F93B4
:1007A0008F930E94C03385E090E0A0E0B0E08983A1
:1007B0009A83AB83BC831D821E821F82188640E011
:1007C00050E0BE016F5F7F4F80E090E00E94472BBA
:1007D00080E090E00E94C22B0F900F900F900F903E
:1007E0000E940508811116C00E94C323F9CF80E042
:1007F00090E00E94BC1520E04091A6086BE977E0EC
:1008000084EE96E00E94D005813021F089E892E0E4
:100810000E94DA3380E090E00E946B2B80E090E051
:100820000E94D315809101068111E1CF0E94C3235C
:10083000DECF60E0809157020E94C11444EB54E087
:1008400063E080E00E94872E80E00E94052E60E039
:10085000809156020E94C11447EB54E063E081E0AE
:100860000E94872E81E00C94052E7F928F929F929A
:10087000AF92BF92CF92DF92EF92FF920F931F93AE
:10088000CF93DF93CDB7DEB768970FB6F894DEBF8E
:100890000FBECDBF782ECE0101960E947225772023
:1008A00039F081E078120DC088E0EAE9F3E003C096
:1008B00088E0E2EAF3E0DE01519601900D928A951C
:1008C000E1F789889A88AB88BC88CD88DE88EF8874
:1008D000F88C09811A812B813C814D815E816F8169
:1008E0007885CE0109960E94CF2581E08093900300
:1008F0007092910389859A85AB85BC85809392031C
:1009000090939303A0939403B09395038D859E8554
:10091000AF85B8898093960390939703A09398032B
:10092000B093990320E040E760E973E084EE96E03D
:100930000E94D005811104C084EB91E00E948212D4
:1009400068960FB6F894DEBF0FBECDBFDF91CF9192
:100950001F910F91FF90EF90DF90CF90BF90AF90DD
:100960009F908F907F90089580E00C94350481E0F3
:100970000C943504E2E9F6E080ED808386E1818322
:100980008BE1828363E0CF010C94530CE2E9F6E043
:100990008CE3808382E08183128263E0CF010C9438
:1009A000530C0F931F93CF93DF93C2E9D6E016EA5F
:1009B00018830DE209831A8263E0CE010E94530C72
:1009C000188388E3898380E88A8363E0CE010E94EC
:1009D000530C188381E389838FE08A8363E0CE011F
:1009E0000E94530C1883098388E08A8363E0CE0158
:1009F000DF91CF911F910F910C94530CCF92DF9206
:100A0000EF92FF92CF936DE173E08CEA96E00E9443
:100A1000173040E850E066EF76E08CEA96E00E94FE
:100A20001B30ECEAF6E0C1E0C087C783C187C2870C
:100A3000138614861586168680E498E7ADE7B1E044
:100A40008787908BA18BB28B138A148A158A168A9A
:100A5000178A108E118E128EC12CD12C7601C39460
:100A6000C38ED48EE58EF68E178E10A211A212A21E
:100A7000CF010E9431236FEB73E088E797E00E947B
:100A8000173040E850E062E176E088E797E00E94A6
:100A90001B30E8E7F7E082E08087C783C187C28721
:100AA000138614861586168680EC91EEA4EEB0E0CF
:100AB0008787908BA18BB28B138A148A158A168A2A
:100AC000178A108E118E128EC38ED48EE58EF68EFE
:100AD000178E10A211A212A2CF010E943123CF9132
:100AE000FF90EF90DF90CF900C94050C08950C943C
:100AF000821181E08093E003089581E08093E00318
:100B000008958091AD030895009731F09093AC0360
:100B10008093AB0381E008958FEF08959093E303F2
:100B20008093E20381E08093E10308958FEF0895BD
:100B300080E090E00895803220F40E94610D81E011
:100B400008958FEF08958B3168F4682F8093D30355
:100B500024E132E140E254E284E096E00E94A30DF9
:100B600081E008958FEF08959093DB038093DA037B
:100B7000E9EBF3E0DC0120E432E44FE050E00E94D6
:100B80005632648375838683978310821182128222
:100B9000138281E008959093D9038093D803089538
:100BA000CF92DF92EF92FF92CF93DF9300D0CDB739
:100BB000DEB76C017B018091DC03813009F48DC0CC
:100BC000442309F48AC06115710509F486C0C11473
:100BD000D10409F482C0211108C080910D082A8334
:100BE00049830E943E2049812A8181E08093DC0371
:100BF0008AE594E09093D3068093D206F601818132
:100C000080935B04808180935A04858196819093C0
:100C10005D0480935C048091DF0380935F041092F5
:100C20005E04818592850196928781879093610405
:100C30008093600483818093630482818093620443
:100C40003091DD03F0E13F9FC0011124832B80939D
:100C500064045E2DF7018CE090E03E2F351B3417C5
:100C600050F43191A091D206B091D306A80FB91FCC
:100C70003C930196F2CF445F4093D10621112BC0E3
:100C800081E090E0A0E0B0E0BC01CD0100900D0853
:100C900004C0660F771F881F991F0A94D2F70E941D
:100CA000E1206B017C01611571058105910521F43D
:100CB0008AE792E00E94821200900D0804C0F69428
:100CC000E794D794C7940A94D2F7C0FC04C087E590
:100CD00092E00E94821281E001C08FEF0F900F908E
:100CE000DF91CF91FF90EF90DF90CF9008958F929A
:100CF0009F92AF92BF92CF92DF92EF92FF920F93AB
:100D00001F93CF93DF931F92CDB7DEB74C018B01BA
:100D10005A018091D50321111CC08130F1F48091DA
:100D20000C0829830E943E2081E090E0A0E0B0E022
:100D3000BC01CD0100900C0804C0660F771F881F0E
:100D4000991F0A94D2F70E94E1206B017C0129814E
:100D500004C0813011F48FEF7CC0809107068C3085
:100D6000D4F38C50D5018C9380E0F50190818917E4
:100D700078F4482F50E0E0910906F0910A06E40F5C
:100D8000F51F9485F801E40FF51F90838F5FEDCF79
:100D900080910C06992787FD9095D4011E969C930F
:100DA0008E931D9780910D061F968C931F978091AF
:100DB0000E0650968C93509780910F0651968C9307
:100DC0005197E0910906F0910A06858190E0982FED
:100DD00088273481832B18969C938E931797838151
:100DE00090E0982F88273281832B16969C938E93C0
:100DF0001597818190E0982F88273081832B119659
:100E00009C938E93878190E0982F88273681832B3F
:100E10001A969C938E931997818590E0982F882736
:100E20003085832B13969C938E93129782851C9604
:100E30008C9321110BC000900C0804C0F694E79429
:100E4000D794C7940A94D2F7C0FE85CF81E08093EF
:100E5000D5030F90DF91CF911F910F91FF90EF90ED
:100E6000DF90CF90BF90AF909F908F9008950097A4
:100E700051F090930A06809309066093080681E07A
:100E80008093D50308958FEF08958093DD0308952F
:100E90000F931F93CF93DF93162FD42F052F9FEF20
:100EA0009093B0031092AF031092AE038093DE03D1
:100EB0001092E10383E08093DD031092AD0380E0A4
:100EC00094E09093D9038093D80380E896E9A8E949
:100ED000B0E08093BD039093BE03A093BF03B09393
:100EE000C0031092B9031092BA031092BB03109280
:100EF000BC030E942E1FC82F80930C088F3F19F44B
:100F00008FE292E009C00E942E1FC82F80930D0827
:100F10008F3F69F487E092E00E948212E091270AF5
:100F2000F091280A60858EE00E94761D2DC00E94F7
:100F30002E1FC82F8093A7088F3F19F48BED91E0E7
:100F4000EBCF8AEE93E090930A068093090680E740
:100F500080930806C1E0C093D5031092DC032D2FC7
:100F6000302F4FEF5FEF612F84E096E00E94A30DDA
:100F70001093D303D093DF0383ED9FEF0E9494106F
:100F8000C093D403C093D2038C2FDF91CF911F91D4
:100F90000F91089580910C080E943E2080910C08CA
:100FA000089580910D080E943E2080910D080895BB
:100FB0002091D503213039F4FC011082FB0110820D
:100FC00080E090E0089520910706FC012083809145
:100FD0000C06FB0180838091090690910A06089512
:100FE00081E08093D50308951092D2030C94220DD2
:100FF00081E08093D2030E94480D8091A7080C9451
:10100000702081E08093ED0508958091D4030895C8
:101010008091D503813099F00E94190E0E94130E21
:101020008091AA038F5F8093AA03833030F01092DF
:10103000D50380910C080E9470208FEF08951092C4
:10104000AA030E941D0F813091F5609107066D3053
:101050006CF18091E003811107C01092D50380915B
:101060000C080E94702022C08091090690910A0607
:101070000E94F3118091090690910A0620910706BB
:10108000820F911D27FD9A95FC01319720812A3C02
:10109000A1F6319720812E3F81F6319720812E3B9A
:1010A00061F6319780818F3EC1F2C7CF81E008950C
:1010B000CF93DF938091D503813011F08FEF40C043
:1010C000D4E60E941D0FC82F813089F56091070674
:1010D0006D30ACF18091E003811107C01092D5030F
:1010E00080910C080E9470202AC08091090690917E
:1010F0000A060E94F3118091090690910A06209138
:101100000706820F911D27FD9A95FC0131972081DA
:101110002A3CA1F6319720812E3F81F6319720811C
:101120002E3B61F6319780818F3EC1F2C7CF84E6B6
:1011300090E00E94152CD15021F68C2F01C081E047
:10114000DF91CF9108950F931F93CF939091E00378
:10115000992309F443C02091D10684E0820F382FEF
:101160003F7031F087FF02C083E1820F807F805F94
:101170008093D1068091D106E091D206F091D306FA
:10118000E80FF11D87FDFA9531978AEC80838091F5
:10119000D106E091D206F091D306E80FF11D87FD4C
:1011A000FA9532978EEF80838091D106E091D20636
:1011B000F091D306E80FF11D87FDFA9533978EEB7A
:1011C00080838091D106E091D206F091D306E80F9A
:1011D000F11D87FDFA9534978FEE80836091D106DB
:1011E000062F112707FD1095E091D206F091D30646
:1011F000C0E040E0242F30E0201731073CF42E0FF0
:101200003F1FD9018C91C80F4F5FF4CF992319F07C
:10121000CF010E94A411E091D106FF27E7FDF095D0
:10122000E657FE4FC0838FEC96E00E941F0E10928F
:10123000DC0380910D080E94702081E0CF911F9106
:101240000F910895CF93DF9300D0CDB7DEB70E9402
:10125000C3238091D4038823D1F38091A7080E94EF
:101260003E208A838F3F21F48FEB91E00E9482120F
:10127000612C712C22242A94322C8091DE0381303F
:1012800009F0E1C08093AD036114710409F088C0D6
:101290008091DC03811116C02AE534E03093D30637
:1012A0002093D2063FEF30935C0430935D0410929C
:1012B0005E0410925F0410926004109261048CE04E
:1012C0008093D106E091D206F091D3069091D80395
:1012D0008091D903908781871082E091D206F091A6
:1012E000D3061182E091D206F091D3062091DD035E
:1012F00030E1239FC0011124822B82878091DA0381
:10130000838781EB93E00E9472253092D006209271
:10131000CF061092D5061092D4060E94A3080E9410
:10132000130E8091ED05813009F043C0412C512C02
:10133000C20165E070E00E947132892B21F483E0E4
:1013400090E00E94A515E091D206F091D3068FEFB0
:101350008083E091D206F091D3068183E091D2069A
:10136000F091D3061482E091D206F091D306158253
:101370009CE09093D1060E94A3088AE090E00E942E
:101380006A24EFEF4E1A5E0AF8EE4F16F3E05F069E
:1013900079F683E090E00E94BC151092ED0509C03B
:1013A0000E9408082A81213021F47092D7036092AC
:1013B000D6033FEF631A730A8091D8039091D90343
:1013C0008615970528F48AE090E00E946A24ECC113
:1013D0008090B9039090BA03A090BB03B090BC0377
:1013E000C090BD03D090BE03E090BF03F090C00357
:1013F0000091B1031091B2032091B3033091B40373
:101400004091B5035091B6036091B7037091B80352
:1014100081EB93E00E947C2681EB93E00E945B26A7
:101420002091B1033091B2034091B3035091B403C2
:101430006091B5037091B6038091B7039091B803A2
:101440000E9416251ACF672809F057C00E94480D40
:101450000E94130E612C712C0E9458088A8381EB24
:1014600093E00E9472258A81813009F5E091090696
:10147000F0910A06818190E0982F88272081822BA5
:10148000258130E0322F22274481242B232B21F485
:101490008F3F2FEF920721F0892B09F488C102C0FA
:1014A000612C712C31E03093D5038FEF8A8394E661
:1014B00069167104C0F01092AD03E091AB03F09196
:1014C000AC03309729F0C3018456910909958983AB
:1014D000E981E13019F4612C712C05C0F0E36F163D
:1014E000F5E77F0618F42FEF621A720A31E03093A5
:1014F000D5038A81813009F0AFCFE0910906F091E0
:101500000A069285892F82958F709F70891B813181
:1015100018F48093D10302C01092D1031092C90332
:101520001092CA031092CB031092CC031092CD03F9
:101530001092CE031092CF031092D0031092C103E9
:101540001092C2031092C3031092C403A091070625
:10155000BB27A7FDB09520E03DE70E944F32DC019C
:10156000CB01935BA74FBF4F8093C5039093C603F6
:10157000A093C703B093C803612C712C8091D10351
:1015800090E06816790640F58090C1039090C20300
:10159000A090C303B090C403C090C503D090C6030D
:1015A000E090C703F090C8030091C9031091CA03EB
:1015B0002091CB033091CC034091CD035091CE03C9
:1015C0006091CF037091D00389EC93E00E947C2658
:1015D0009FEF691A790AD2CFE1E0E093AD030E9450
:1015E000190E0E94220D8091E2039091E303609016
:1015F000D8037090D9038615970508F43C01412C57
:10160000512C4614570441F18090B9039090BA03CD
:10161000A090BB03B090BC03C090BD03D090BE03AC
:10162000E090BF03F090C0030091B1031091B203AA
:101630002091B3033091B4034091B5035091B603A8
:101640006091B7037091B80381EB93E00E947C2610
:10165000FFEF4F1A5F0AD5CF8090C9039090CA035D
:10166000A090CB03B090CC03C090CD03D090CE031C
:10167000E090CF03F090D0030091B1031091B2033A
:101680002091B3033091B4034091B5035091B60358
:101690006091B7037091B80381EB93E00E94CF256E
:1016A00081EB93E00E945B262091B1033091B2035D
:1016B0004091B3035091B4036091B5037091B603A8
:1016C0008091B7039091B8030E9416258091DC03A6
:1016D0008130B1F4E091D206F091D3066082E091BE
:1016E000D206F091D30671823092D0062092CF06B6
:1016F0001092D5061092D4060E94480D0E94A308AD
:101700000E94190E0E94220D412C512C8091D80369
:101710009091D903861997094816590640F580908B
:10172000B9039090BA03A090BB03B090BC03C090E3
:10173000BD03D090BE03E090BF03F090C0030091C2
:10174000B1031091B2032091B3033091B4034091DF
:10175000B5035091B6036091B7037091B80381EB64
:1017600093E00E947C262FEF421A520ACFCF81EBE2
:1017700093E00E945B262091B1033091B203409127
:10178000B3035091B4036091B5037091B603809197
:10179000B7039091B8030E9416258091D20381115E
:1017A00003C00E94C323F9CF612C712C66CD8285C2
:1017B00082958F708093DD03818590E0982F882734
:1017C0002085822B9093D9038093D803A3858A2FF9
:1017D00090E09093DB038093DA03DC0120E432E4B1
:1017E0004FE050E00E9456326093BD037093BE03F9
:1017F0008093BF039093C0031092B9031092BA0371
:101800001092BB031092BC0352CE62E279E08AECE4
:1018100095E00E94173040E051E06AEC74E08AECF9
:1018200095E00E941B30EAECF5E084E1808781E0DE
:1018300087838187828781E090E0A0E0B0E08387A2
:101840009487A587B6871786108A118A128A87E03F
:1018500090E0A0E0B0E0838B948BA58BB68B178AC9
:10186000108E118E128E138E148E158E168E178E6C
:1018700010A211A212A2CF010C9431238AE080930E
:10188000B8008FEF8093BB0084E08093BC00089584
:101890008091BC00817008958091BC0080FDFCCFD8
:1018A0008091100208952091BC0020FDFCCF609330
:1018B000F005FC0120812093F10520FF09C0109262
:1018C000EE0588EF8093100285EA8093BC000895AE
:1018D000FC01319621EF35E0D90111968A2F821B48
:1018E000861768F781918C93F8CF8091BC0080FDBA
:1018F000FCCF1092EE0588EF8093100285EA80936A
:10190000BC0008952091BC0020FDFCCF2091EE0585
:1019100020FD04C08091EE058170089521EF35E02F
:10192000FC01D9018A2F821B8617A0F78D91819324
:10193000F9CF1F920F920FB60F9211240BB60F9290
:101940002F933F938F939F93EF93FF938091B900D1
:10195000883201F140F48031D9F08831D9F08830F3
:1019600009F04AC015C0803491F128F4883309F099
:1019700043C085EA46C08035F1F08835E9F58091AD
:10198000BB00E091EF05F0E0EF50FA4F80832DC0EF
:101990001092EF05E091EF058091F005E81728F52A
:1019A00081E08E0F8093EF05F0E0EF50FA4F8081D9
:1019B0008093BB0018C0E091EF0581E08E0F80930B
:1019C000EF058091BB00F0E0EF50FA4F808320914B
:1019D000EF0530E08091F00590E001972817390776
:1019E00014F485EC0EC085E80CC08091EE05816092
:1019F0008093EE0584E905C08091B90080931002C0
:101A000084E08093BC00FF91EF919F918F913F9173
:101A10002F910F900BBE0F900FBE0F901F90189537
:101A2000909141019F719F31D9F3809342010895B4
:101A30008093FB05089581E080932E09089510920C
:101A40002E090895809141018F718F31D9F38091D2
:101A500041018F71E1F08F30D1F0809141018F71A0
:101A6000883031F4809139018260809339010BC054
:101A700088E00E94100D809141018F718830D9F764
:101A8000F1CF8F3021F0809141018F71D1F708950E
:101A9000809141018F718F31D9F3809141018F7114
:101AA00011F08F3051F4809139018D7F809339018D
:101AB000809141018F718830D9F7089589E00C94A5
:101AC000100DE5E4F1E09081907F908390818F701C
:101AD000982B90830895E7E5F1E080818D7F8083E6
:101AE0000895E7E5F1E08081826080830895EEE665
:101AF000F1E080818F7E80830895EEE6F1E08081C1
:101B00008061808308958093600190936101909338
:101B100038098093370908959093320980933109E9
:101B2000E8E4F1E08081807E80838081682B60839F
:101B300008959093FF058093FE0508959093FD0509
:101B40008093FC0508950F931F93CF93DF93FC01BF
:101B5000D90180E28093440180EC8093450160626A
:101B60006093480185EC8093490187EA80934B019B
:101B700080E880934C0120936001B0936101409311
:101B8000620150936301C6E4D1E0088188819881A5
:101B90002881302F32953695377060E4369F80016A
:101BA0001124229526952370622F602B82958695AD
:101BB000837070E1879F90011124262B9295969552
:101BC000937084E0989FB0011124622B60936D01A3
:101BD00088819881929596959370392F3064982FCB
:101BE00092959670932B90936E0110926C018FEFEB
:101BF00080934E01C1E3D9E0F983E8831A821B8206
:101C00005D834C83BF83AE83188681E080934B094C
:101C10001092620910923A0910922E09DF91CF9129
:101C20001F910F91089586E10C94100D86E10C949C
:101C3000100D88E00E94100D1092620908950F9314
:101C40001F93CF93DF93FC0180914B09811102C058
:101C50008FEFABC02681809133098F5F809333096A
:101C600090918101907E916020FB95F99F73906423
:101C70009093810188E88093820180912E098823C6
:101C800061F08FEF809383018AEA9AEA9093890149
:101C9000809388018FEF9FEF10C08091330980936C
:101CA0008301209161018091600190E0922B9093DB
:101CB000890180938801808191819093870180932D
:101CC0008601209163018091620190E0922B9093B4
:101CD0008501809384018F014281552747FD5095EE
:101CE000638174818AE891E00E942633F801828141
:101CF000855F8093800180914101D82FDF719FEF34
:101D00009D0F9230C0F3D131B1F3D231A1F3DF3165
:101D100091F398EF9D0F923020F08F70863009F08C
:101D200097CF86E10E94100DF801858181110BC0CB
:101D300089E00E94100DF8018681882391F089E1E5
:101D40000E94100D0EC08091480180688093480168
:101D50008091410187FFFCCF8091410186FF78CFC0
:101D6000E7CF10923A0982E00E94100D80E090E0E7
:101D700020913A09211105C00196883EFDEF9F0789
:101D8000B9F7F8012681222331F0209142012295F2
:101D90002695277029F4883E9D4F11F0C1E001C0BF
:101DA000CFEF8D2F0E94100D8C2FDF91CF911F91BF
:101DB0000F91089510923A0982E00E94100D88EE6A
:101DC0009DEF20913A09211104C00197D1F78FEFBF
:101DD000089581E00895CF93DF9380914B09882384
:101DE00041F180914101C82FCF719FEF9C0F92303C
:101DF000C0F3C131B1F3C231A1F3CF3191F3C83097
:101E000019F08F708630A9F486E10E94100D809140
:101E100048018068809348018091410187FFFCCF91
:101E2000D09141018C2F0E94100DD6FB882780F99C
:101E300001C08FEFDF91CF91089580914B098823E6
:101E400009F4E3C080916209882309F4DCC0809121
:101E50007B01E0913109F091320990E002972481F1
:101E6000332727FD3095281739070CF4CEC0E091B1
:101E70003109F0913209809182018083E09131092A
:101E8000F09132098091870190918801928381833A
:101E9000E0913109F091320980917B018B5083836D
:101EA000A0913109B0913209E0913109F0913209E4
:101EB00013969C91848189173CF0E0913109F0914F
:101EC0003209838187FF0DC01092620980914C0115
:101ED0008F7780934C0180914C01806880934C01F6
:101EE00094C0A0913109B0913209E0913109F0918B
:101EF000320913964C91552747FD509569E871E0DA
:101F0000858196810E9426338091FB05882309F400
:101F10003EC0E0913109F091320983818031B9F5F9
:101F2000E0913109F09132096581768144E050E019
:101F300081E192E00E942F33892B49F5E09131092C
:101F4000F09132096581768140E150E081E192E0D3
:101F50000E942F33892BD9F49DE088E10FB6F894C5
:101F6000A895809360000FBE9093600080E090E0A1
:101F70000E94D31581E090E00E94D31582E090E0AA
:101F80000E94D31583E090E00E94D315FFCFE0912B
:101F90003109F09132098091800185FB882780F911
:101FA0008783E0913109F091320980914701808760
:101FB000E0913109F091320980914601869586952C
:101FC00086958187E0913109F0913209809147012E
:101FD0008287A0913109B0913209E0917B01F0E054
:101FE000E058FE4F80811B968C931092620980917D
:101FF0004C018F7780934C0180914C0180688093D5
:102000004C0181E0089580E008958FEF08951F92BC
:102010000F920FB60F9211248F9380E880934F0197
:102020008F910F900FBE0F901F9018951F920F92D7
:102030000FB60F9211248F9381E080933A0980E4C8
:1020400080934F018F910F900FBE0F901F901895A6
:102050001F920F920FB60F9211248F9380E28093FC
:102060004F018F910F900FBE0F901F9018951F92E8
:102070000F920FB60F9211248F9380E180934F013E
:102080008F910F900FBE0F901F9018951F920F9277
:102090000FB60F9211240BB60F922F933F934F93CD
:1020A0005F936F937F938F939F93AF93BF93EF93C0
:1020B000FF9384E080934F01E091FE05F091FF05CE
:1020C000309709F00995FF91EF91BF91AF919F91E2
:1020D0008F917F916F915F914F913F912F910F90D1
:1020E0000BBE0F900FBE0F901F9018951F920F926E
:1020F0000FB60F9211248F9382E080934F018F913E
:102100000F900FBE0F901F9018951F920F920FB651
:102110000F9211248F9381E080934F018F910F9044
:102120000FBE0F901F901895E9E4F1E09081907F29
:10213000908390818F70982B908308958FEF0895EE
:102140000895089508958FEF089580912C09909136
:102150002D090895089581E0089581E0089581E0B2
:102160000895089508950895089508950895089587
:10217000089598988DB1806E8DB98EB1806A8EB9B0
:10218000089598988DB1806E8DB98EB180668EB9A4
:102190000895CF92DF92EF92FF920F931F93CF9308
:1021A000DF93CDB7DEB727970FB6F894DEBF0FBE2B
:1021B000CDBF0E94F016E0913109F0913209C08044
:1021C000D380E580F68000850E941D0F18161CF054
:1021D00080EA92E006C0F7011081111107C08FEB71
:1021E00092E00E94DA330E94F21631C0153021F4D9
:1021F0008AE090E00E94D433C70101969F938F93A9
:10220000802F992787FD90959F930F931F921F937F
:102210001F92CF9281EE92E09F938F930E94C033E2
:10222000FD82EC821150F7011083DB821E821F8237
:102230008FEF9FEF9A8389830E94F216CE01019659
:102240000E941F0E0FB6F894DEBF0FBECDBF2796BB
:102250000FB6F894DEBF0FBECDBFDF91CF911F91B7
:102260000F91FF90EF90DF90CF9008951F920F9203
:102270000FB60F9211240BB60F922F933F934F93EB
:102280005F936F937F938F939F93AF93BF93EF93DE
:10229000FF9380E090917B01891710F48F5FFACF54
:1022A0008091460187FF04C081E08093620904C0E9
:1022B0008AE093E00E94DA3388E080934F018091B6
:1022C000460187FF05C080912E0981110E94C91027
:1022D000E091FC05F091FD05309709F00995FF911B
:1022E000EF91BF91AF919F918F917F916F915F918E
:1022F0004F913F912F910F900BBE0F900FBE0F90FB
:102300001F901895ABE3B9E0FC01409620812D9316
:10231000219120933F01E817F907C1F780E110925E
:102320003E018150E1F780E880933C0180913D01BE
:1023300080FFFCCFECE4F9E080E18E0F90913F014B
:1023400091938E13FBCF0895CF93DF93DC01662327
:1023500009F445C0862F8F7009F041C0EBE3F9E026
:1023600090E19E0F219120933F019E13FBCF90E0BF
:1023700070E0E0E240E1949F9001112426173707B6
:102380007CF5911103C010923C0102C0E0933C0126
:1023900040E050E02A0F3B1FE901C40FD51FF88130
:1023A000F0933E014F5F5F4F40315105A9F74091D7
:1023B0003C01406840933C0140913D0140FFFCCF0F
:1023C00040E050E0F0913E01E901C40FD51FF883D1
:1023D0004F5F5F4F40315105A9F79F5FCBCF81E041
:1023E000DF91CF9108950F931F93CF93DF93DC017B
:1023F000613009F458C0862F8F7009F054C0ECE4A6
:10240000F9E090E19E0F219120933F019E13FBCFB5
:1024100062956F70615078E06F3F09F445C070932A
:102420003C01462F552747FD509520E030E0ED0157
:1024300090E16902C00DD11D1124FE01E20FF31FCE
:10244000908190933E012F5F3F4F20313105A9F7D6
:1024500090913C01906890933C0190913D0190FFD8
:10246000FCCF4150510994E0440F551F9A95E1F774
:1024700020E030E090913E018E01020F131FF80121
:102480009083662349F0F901E40FF51FEA0FFB1F63
:10249000E0819E27F80190832F5F3F4F2031310567
:1024A00049F76150B9CF81E0DF91CF911F910F9132
:1024B00008958091C00087FFFCCF8091C0008F7786
:1024C0008093C0008091C60008959091C00095FF50
:1024D000FCCF9091C0009F7D9093C0008093C60078
:1024E00008958FEF0895813019F48091C80004C0D9
:1024F000811106C08091C000881F8827881F089519
:1025000080E00895CF93DF93FC012491EC012196A4
:10251000222351F060917F0A7091800A822F90E00F
:102520000E948833CE01F0CFDF91CF91089586E0ED
:1025300084B985B988EF8AB980EF8BB982E08DB90B
:1025400008950C9497128F3F09F46CC0E82FE77040
:102550004E2F50E04730510508F064C0FA01E057B3
:10256000FF4F8695869586950C94063342B121E0FF
:1025700030E0B90102C0660F771F8A95E2F7CB0100
:10258000842B82B94DC045B121E030E0B90102C0D1
:10259000660F771F8A95E2F7CB01842B85B940C07F
:1025A00048B121E030E0B90102C0660F771F8A957B
:1025B000E2F7CB01842B88B933C04BB121E030E086
:1025C000B90102C0660F771F8A95E2F7CB01842B11
:1025D0008BB926C04EB121E030E0B90102C0660FD0
:1025E000771F8A95E2F7CB01842B8EB919C041B3CE
:1025F00021E030E0B90102C0660F771F8A95E2F74B
:10260000CB01842B81BB0CC044B321E030E0B90185
:1026100002C0660F771F8A95E2F7CB01842B84BB3B
:1026200081E008958FEF08958F3F09F473C0E82F7C
:10263000E7704E2F50E04730510508F06BC0FA01AB
:10264000E956FF4F8695869586950C94063342B1E0
:1026500021E030E0B90102C0660F771F8A95E2F7EA
:10266000CB018095842382B953C045B121E030E08D
:10267000B90102C0660F771F8A95E2F7CB018095FA
:10268000842385B945C048B121E030E0B90102C0DA
:10269000660F771F8A95E2F7CB018095842388B96E
:1026A00037C04BB121E030E0B90102C0660F771F9F
:1026B0008A95E2F7CB01809584238BB929C04EB16E
:1026C00021E030E0B90102C0660F771F8A95E2F77A
:1026D000CB01809584238EB91BC041B321E030E04B
:1026E000B90102C0660F771F8A95E2F7CB0180958A
:1026F000842381BB0DC044B321E030E0B90102C0A6
:10270000660F771F8A95E2F7CB018095842384BBFF
:1027100081E008958FEF08958F3F31F1E82FE77042
:102720004E2F50E047305105F8F4FA01E256FF4FC2
:10273000282F2695269526950C94063390B10BC02C
:1027400093B109C096B107C099B105C09CB103C04F
:102750009FB101C092B3892F90E002C095958795F3
:102760002A95E2F7817008958FEF08958F3F09F45D
:1027700006C1E82FE7704E2F50E04730510508F0B2
:10278000FEC0FA01EB55FF4F8695869586950C9411
:10279000063320B130E0082E02C0359527950A9403
:1027A000E2F742B120FD0BC021E030E0B90102C0E8
:1027B000660F771F8A95E2F7CB01842B0BC021E0CF
:1027C00030E0B90102C0660F771F8A95E2F7CB01AE
:1027D0008095842382B916C023B130E0082E02C050
:1027E000359527950A94E2F745B120FD0DC021E00B
:1027F00030E0B90102C0660F771F8A95E2F7CB017E
:10280000842B85B981E0089521E030E0B90102C050
:10281000660F771F8A95E2F7CB0180958423F1CF6D
:1028200026B130E0082E02C0359527950A94E2F7CC
:1028300048B120FD0BC021E030E0B90102C0660FB5
:10284000771F8A95E2F7CB01842B0BC021E030E0A3
:10285000B90102C0660F771F8A95E2F7CB01809518
:10286000842388B9CFCF29B130E0082E02C0359536
:1028700027950A94E2F74BB120FD0BC021E030E030
:10288000B90102C0660F771F8A95E2F7CB01842B4E
:102890000BC021E030E0B90102C0660F771F8A95B6
:1028A000E2F7CB01809584238BB9ACCF2CB130E01B
:1028B000082E02C0359527950A94E2F74EB120FD07
:1028C0000BC021E030E0B90102C0660F771F8A9586
:1028D000E2F7CB01842B0BC021E030E0B90102C04C
:1028E000660F771F8A95E2F7CB01809584238EB916
:1028F00089CF2FB130E0082E02C0359527950A9474
:10290000E2F741B320FD0BC021E030E0B90102C085
:10291000660F771F8A95E2F7CB01842B0BC021E06D
:1029200030E0B90102C0660F771F8A95E2F7CB014C
:102930008095842381BB66CF22B330E0082E02C08D
:10294000359527950A94E2F744B320FD0BC021E0AA
:1029500030E0B90102C0660F771F8A95E2F7CB011C
:10296000842B0BC021E030E0B90102C0660F771F55
:102970008A95E2F7CB018095842384BB43CF8FEF08
:1029800008958F3F09F4D5C0E82FE7704E2F50E02F
:10299000611167C04730510508F0CBC0FA01E4551A
:1029A000FF4F8695869586950C94063341B121E0BC
:1029B00030E0B90102C0660F771F8A95E2F7CB01BC
:1029C0008095842365C044B121E030E0B90102C0A4
:1029D000660F771F8A95E2F7CB018095842365C047
:1029E00047B121E030E0B90102C0660F771F8A9538
:1029F000E2F7CB018095842365C04AB121E030E045
:102A0000B90102C0660F771F8A95E2F7CB01809566
:102A1000842365C04DB121E030E0B90102C0660FEA
:102A2000771F8A95E2F7CB018095842365C040B378
:102A300021E030E0B90102C0660F771F8A95E2F706
:102A4000CB018095842365C043B321E030E0B90118
:102A500002C0660F771F8A95E2F7CB018095842329
:102A600065C04730510508F064C0FA01ED54FF4FCE
:102A70008695869586950C94063341B121E030E029
:102A8000B90102C0660F771F8A95E2F7CB01842B4C
:102A900081B94DC044B121E030E0B90102C0660FF8
:102AA000771F8A95E2F7CB01842B84B940C047B1E8
:102AB00021E030E0B90102C0660F771F8A95E2F786
:102AC000CB01842B87B933C04AB121E030E0B90192
:102AD00002C0660F771F8A95E2F7CB01842B8AB973
:102AE00026C04DB121E030E0B90102C0660F771F6A
:102AF0008A95E2F7CB01842B8DB919C040B321E050
:102B000030E0B90102C0660F771F8A95E2F7CB016A
:102B1000842B80BB0CC043B321E030E0B90102C07C
:102B2000660F771F8A95E2F7CB01842B83BB81E088
:102B300008958FEF0895811106C080B18695817048
:102B400091E0892708958FEF0895009711F483E2AB
:102B50000DC08130910511F48BE208C082309105DF
:102B600011F483E303C0039729F48BE30E94B613A7
:102B700081E008958FEF0895009711F483E20DC06E
:102B80008130910511F48BE208C08230910511F477
:102B900083E303C0039729F48BE30E94A31281E02F
:102BA00008958FEF0895009711F483E20DC08130EE
:102BB000910511F48BE208C08230910511F483E392
:102BC00003C0039729F48BE30E94141381E0089556
:102BD0008FEF0895882319F085B78F7E02C085B7DF
:102BE000806185BF81E008959091C80095FFFCCF7A
:102BF0008093CE0008959093C5008093C40086E032
:102C00008093C200E1ECF0E080818B7F8083A0ECB8
:102C1000B0E08C9182608C9380818861808308957C
:102C20009093CD008093CC0086E08093CA00E9ECBD
:102C3000F0E080818B7F8083A8ECB0E08C91826093
:102C40008C938081886180830895CF93DF930E9465
:102C5000FB1569E572E185E692E10E943D33CDE71F
:102C6000DAE09B838A8369E572E185E692E10E945E
:102C70003D3399838883DF91CF9108958091C80077
:102C800087FFFCCF8091C8008F778093C800809128
:102C9000CE00089500000000000000000197D1F769
:102CA00008950C9498340E94A0340895EF92FF92F6
:102CB0000F931F93CF93DF937C0180E090E00E94FD
:102CC0009834182FF701838381E090E00E949834B4
:102CD000082FF701828382E090E00E949834D82F79
:102CE000F701818383E090E00E949834C82FF701B8
:102CF000808384E090E00E949834100FD10FCD0FB4
:102D00008C1711F08FEF01C081E0DF91CF911F91FF
:102D10000F91FF90EF900895CF93DF93EC0185E042
:102D200090E00E949834888381E0DF91CF910895EC
:102D3000FC01608186E090E00E94A03481E008956B
:102D4000CF93DF93EC0186E090E00E949834888373
:102D500081E0DF91CF9108950F931F93CF93DF937D
:102D60008C01C0E0D0E0CE0108960E949834F801B2
:102D700081938F012196C031D105A9F781E0DF91C0
:102D8000CF911F910F9108950F931F93CF93DF93CE
:102D90008C01C0E0D0E0F80161918F01CE0108966E
:102DA0000E94A0342196C031D105A9F781E0DF91BE
:102DB000CF911F910F910895CF93DF93EC0187E09E
:102DC00090E00E949834888381E0DF91CF9108954C
:102DD000FC01608187E090E00E94A03481E00895CA
:102DE000F8940895789408950E94F016FFCFCF9339
:102DF000DF93CDB7DEB7A3970FB6F894DEBF0FBE53
:102E0000CDBF0E942E1F8093170A8F3F21F460E0F0
:102E10008EE00E94761D0E94DF2D80FF04C060E0DE
:102E200086E00E94761D0E94F62F8F3F31F40E94AB
:102E3000D92F60E080E10E94761D0E94E72F10925A
:102E40001A0A1092280A1092270A1092190A109250
:102E5000180A1092290A0E94B9181092260A8FEFB8
:102E60008093130A8093150A8093140A93E6909333
:102E70006F0980936D0990939A09809398099093B4
:102E8000C5098093C3099093F0098093EE0983E606
:102E90009AE028E63AE03093670A2093660A909316
:102EA0006A0A8093690A4DE65AE050936C0A40938F
:102EB0006B0A30936F0A20936E0A22E73AE0309350
:102EC000710A2093700A5093740A4093730A47E77B
:102ED0005AE05093760A4093750A3093790A20930A
:102EE000780A1092650A1092640A10927B0A109276
:102EF0007A0A10921D0A10921C0A9093640980931A
:102F000063096CEF77E2CE0101960E94173040E82A
:102F100050E068EA78E0CE0101960E941B3085E51A
:102F20008093A80819861C861D861E861F86188A0F
:102F3000198A1A8A1B8A1C8A1D8A1E8A1F8A188E61
:102F4000198E1A8E1B8E1C8E1D8E1E8E1F8E18A221
:102F500019A21AA21BA281E0888792E09A878B8728
:102F6000CE0101960E943123A3960FB6F894DEBFDE
:102F70000FBECDBFDF91CF9108950DE619E0C0E0FF
:102F8000F801D080FFEFDF1222C0CF5F055D1F4F39
:102F9000C430B1F70E9420222BE28202C00111242A
:102FA000FC01EB59F64F82858093290AF093280A99
:102FB000E093270AF093190AE093180A80931A0AFB
:102FC0000E948D300E9477300E94913016C08DE6AD
:102FD000E82E89E0F82ED0E0CD1741F0F70180818E
:102FE000D81204C06D2D85E00E94761DDF5FFBE2E4
:102FF000EF0EF11CD43081F7C8CFFFCFCF92DF9214
:10300000EF92FF920F931F93CF93DF93EC018B010D
:103010007A018985823021F08091160A888301C067
:1030200018828091160A843020F060E087E00E94C8
:10303000761D8985823029F08091160A8F5F8093F2
:10304000160A8091160A811103C081E08093160A46
:1030500038812BE23203F0011124EB59F64F118332
:1030600000838885828738813203F0011124EB596F
:10307000F64F83E0818738813203F0011124EB5948
:10308000F64F308708810203800111240B59164F37
:10309000F8011582CE010B960E948E27F80161A3DC
:1030A00072A383A394A38B859C85AD85BE8588334D
:1030B0009948A144B10520F0688186E10E94761DFF
:1030C000C880DD24C7FCD094CE014B960E948E2789
:1030D0001BE21C9DF0011D9DF00D1124EB59F64FD4
:1030E000658B768B878B908F28812103C0011124FB
:1030F0009C012B59364F6901F90145895689678929
:10310000708D81A192A1A3A1B4A1840F951FA61FC8
:10311000B71F818F928FA38FB48FCE0143960E94E9
:103120008E27F60165A376A387A390A728812103A4
:10313000F0011124EB59F64F85A196A1A7A1B0A5E6
:10314000858F968FA78FB0A381E090E092A781A78B
:10315000F382E2828487DF91CF911F910F91FF90DC
:10316000EF90DF90CF9008950C94162885E690E0BC
:1031700008951092D6061092D7061092D806109293
:10318000D9061092DA061092DB061092DC06109235
:10319000DD06EFE0F8E080E090E01082118212821C
:1031A0001382108611861286138614821582168267
:1031B00017821486158616861786108A118A128A37
:1031C000138A108E118E128E138EDC01A15FB74F01
:1031D0005C961C925C975D961C927E964E96883704
:1031E0009105D9F608950F931F93E6EDF6E0A82F09
:1031F000B0E023EB36EE4EE050E00E945632048100
:10320000158126813781DC01CB01800F911FA21F20
:10321000B31F84839583A683B783CF011F910F913A
:103220000C945B26E6EDF6E040815181628173816A
:10323000DC014D935D936D937C931397448155818D
:1032400066817781FC014483558366837783089583
:103250002EE1829FC0011124FC01E15FF74F858DB3
:10326000813039F0848D8F5F848F8F3F11F481E03E
:10327000858F08952EE1829FC0011124FC01E15F3A
:10328000F74F858D8130B1F0148A158A168A178A16
:1032900080899189A289B3890196A11DB11D808B76
:1032A000918BA28BB38B8E3F9F4FAF4FBF4F11F4CB
:1032B00081E0858F08950F931F932EE1829FC001B7
:1032C0001124FC01E15FF74F858D813071F1808D14
:1032D000918DA28DB38D0196A11DB11D808F918F0F
:1032E000A28FB38F462F50E060E070E0048915890B
:1032F00026893789040F151F261F371F048B158B4E
:10330000268B378B0081118122813381400F511F21
:10331000621F731F40835183628373838E3F9F4F6D
:10332000AF4FBF4F11F481E0858F1F910F9108952A
:10333000CF92DF92EF92FF92282F30E09EE1899F9B
:10334000F0011124E15FF74F858D813009F44BC006
:10335000462F50E060E070E084899589A689B7899E
:10336000840F951FA61FB71F84879587A687B787E9
:10337000C080D180E280F3804C0D5D1D6E1D7F1DED
:103380004083518362837383448155816681778151
:10339000411551056105710529F084179507A607A8
:1033A000B70760F44EE1429FF001439FF00D1124F6
:1033B000E15FF74F84839583A683B7834EE1429FF5
:1033C000F001439FF00D1124E15FF74F40855185D7
:1033D00062857385481759076A077B0720F4808741
:1033E0009187A287B387FF90EF90DF90CF900895E9
:1033F0008F929F92AF92BF92CF92DF92EF92FF9205
:103400000F931F93CF93DF93CDB7DEB728970FB6F7
:10341000F894DEBF0FBECDBF182F8FE793E00E9458
:103420008212A12EB12C1F921F9383E293E09F93EF
:103430008F930E94C0330F900F900F900F90111137
:1034400052C084E693E00E948212CE0101960E944F
:1034500072256D817E818F819885E0E4CE2EE2E435
:10346000DE2EEFE0EE2EF12CA70196010E948532B0
:103470005F934F933F932F938C818F938B818F9387
:103480008A818F9389818F9306E213E01F930F93B4
:103490000E94C03383E493E00E9482126091DA06B6
:1034A0007091DB068091DC069091DD06A701960104
:1034B0000E9485325F934F933F932F938091D9065B
:1034C0008F938091D8068F938091D7068F938091A8
:1034D000D6068F931F930F930E94C0330FB6F894B4
:1034E000DEBF0FBECDBF82E393E00E9482128EE169
:1034F0008A9D80018B9D100D1124015F174FF801EB
:1035000060817181828193810E94572729833A8348
:103510004B835C836D837E838F8398876D817E81EF
:103520008F81988520E4822E22E4922E2FE0A22E15
:10353000B12CA50194010E9485325F934F933F9374
:103540002F938C818F938B818F938A818F93898125
:103550008F9336E2E32E33E0F32EFF92EF920E9438
:10356000C03387E193E00E948212F8016481758183
:10357000868197810E94572729833A834B835C83F6
:103580006D837E838F8398876D817E818F819885FF
:10359000A50194010E9485325F934F933F932F932F
:1035A0008C818F938B818F938A818F9389818F9365
:1035B00046E3C42E43E0D42EDF92CF920E94C03364
:1035C000F80164857585868597850E94572729832C
:1035D0003A834B835C836D837E838F8398876D8171
:1035E0007E818F819885A50194010E9485325F9329
:1035F0004F933F932F938C818F938B818F938A81ED
:103600008F9389818F93DF92CF920E94C033F8010C
:1036100060857185828593850E94572729833A8327
:103620004B835C836D837E838F8398876D817E81DE
:103630008F819885A50194010E9485325F934F93F5
:103640003F932F938C818F938B818F938A818F935C
:1036500089818F93FF92EF920E94C0330FB6F89446
:10366000DEBF0FBECDBF87E093E00E948212F8015B
:10367000709683818F9382818F9381818F93F801DC
:1036800080898F9358E4E52E53E0F52EFF92EF9258
:103690000E94C03384EF92E00E948212F801789673
:1036A00083818F9382818F9381818F93F801808DA5
:1036B0008F93FF92EF920E94C0338BED92E00E94B5
:1036C0008212F801848D1F928F936CE4E62E63E0E2
:1036D000F62EFF92EF920E94C0338EEB92E00E9492
:1036E0008212F801858D1F928F93FF92EF920E94B4
:1036F000C0338BEB92E00E9482120FB6F894DEBFCB
:103700000FBECDBF28960FB6F894DEBF0FBECDBF5B
:10371000DF91CF911F910F91FF90EF90DF90CF90AD
:10372000BF90AF909F908F9008958EE992E00E9495
:10373000821280E00E94F81981E00E94F81982E06C
:103740000E94F81983E00C94F819DB01843008F02A
:1037500054C09EE1899FF0011124E15FF74F408141
:103760005181628173814D935D936D937C93139727
:10377000448155816681778114964D935D936D9355
:103780007C931797408551856285738518964D9374
:103790005D936D937C931B974485558566857785EE
:1037A0001C964D935D936D937C931F97408951892F
:1037B0006289738950964D935D936D937C93539773
:1037C000448955896689778954964D935D936D93A5
:1037D0007C935797408D518D628D738D58964D9384
:1037E0005D936D937C935B97848D5C968C935C97D3
:1037F000858D5D968C9381E008958FEF0895E0911B
:10380000270AF091280A84870895E091270AF09109
:10381000280A84850895CF93DF93D82FC62F80E0A0
:1038200092E00E9451168F5F8F3F19F0809300063F
:1038300002C0109200062091000636E0239FC001CE
:1038400011246D2F8F5F9D4F0E94531680910006AB
:1038500046E0849FC00111246C2F8E5F9D4F0E9413
:1038600053162091000640911E0A50911F0A609144
:10387000200A7091210A672F77278827992746E029
:10388000249F90011124C9018D5F9D4F0E94531602
:103890002091000640911E0A50911F0A6091200A53
:1038A0007091210A8827992746E0249F90011124CE
:1038B000C9018C5F9D4F0E945316209100064091D4
:1038C0001E0A50911F0A6091200A7091210A9927BF
:1038D000872F762F652F46E0249F90011124C90180
:1038E0008B5F9D4F0E9453168091000626E0829FB9
:1038F000C001112460911E0A8A5F9D4F0E945316D9
:103900006091000680E092E0DF91CF910C94531615
:10391000FC018091A508882331F0DB018C93809114
:10392000A406808381E008958091A508882309F486
:1039300083C086EB95E00E9482128091A4061F92BC
:103940008F9383E293E09F938F930E94C03382EB27
:1039500095E00E9482120F900F900F900F9080912F
:10396000A508883110F01092A508E091A5088E2FC7
:1039700090E0FC013197E631F10508F046C0E654CD
:10398000FF4F0C94063386E795E041C08FE495E045
:103990003EC08BE395E03BC085E295E038C08AE00D
:1039A00095E035C084EF94E032C08CED94E02FC0F8
:1039B00089EC94E02CC086EB94E029C088E994E07F
:1039C00026C083E794E023C087E694E020C08CE41F
:1039D00094E01DC08DE394E01AC089E294E017C022
:1039E00088E194E014C084E094E011C084EE93E098
:1039F0000EC08CEC93E00BC081EB93E008C080EA32
:103A000093E005C081E993E002C08AE893E00E9458
:103A1000821260917F0A7091800A8DE090E00E948E
:103A2000883360917F0A7091800A8AE090E00E945A
:103A300088338091A508089580E0089513BC109202
:103A4000B60018BC17BC16BC15BC14BC1DBA1CBAF9
:103A50001BBA10929B0010929A001092990010923B
:103A6000980010929500109294001092910010927C
:103A7000900018BA109271001092B4001092B30026
:103A80001092B2001092B100E0EBF0E010821082D0
:103A900017BA109270008FEF84BF08950E94F0163D
:103AA0000E94D92F8091A508803171F08351823016
:103AB00058F00E941E1D82EC95E00E9482120E9426
:103AC000E72F0E94F016FFCF1092A508089580936B
:103AD000A508E091270AF091280A60856093A40662
:103AE0000E940B1C0E94941C0C944E1D8093A508F0
:103AF0006093A4060E940B1C0E94941C0C944E1D03
:103B0000CF93DF931F92CDB7DEB7198289818436B8
:103B100040F480ED97E00E94152C89818F5F8983A6
:103B2000F5CF0F90DF91CF91089581E090E00E9452
:103B3000D3150E94801D0E94801D0E94801D81E07F
:103B400090E00E94BC150C94801D81E090E00E94E2
:103B5000D3150E94801D81E090E00E94BC150C945A
:103B6000801DFF920F931F93CF93DF9300D01F927E
:103B7000CDB7DEB71F928F9383E293E09F938F932D
:103B80008E010F5F1F4F1F930F930E940A340F90F7
:103B90000F900F900F900F900F90F12CF801019063
:103BA0000020E9F73197E01BF10B8F2D90E08E1785
:103BB0009F0708F05DC0F801E80FF91FE0818E2F24
:103BC00090E0FC01F097EA30F10508F049C0E053BD
:103BD000FF4F0C9406330E94951D02C00E94A51D44
:103BE0000E94951D0E94951D0E94951D0E94951D85
:103BF00037C00E94A51D0E94A51DF4CF0E94A51DDF
:103C00000E94A51D0E94A51DEFCF0E94A51D0E9428
:103C1000A51D0E94A51D0E94A51DE8CF0E94A51DFF
:103C200002C00E94951D0E94A51D04C00E94951D02
:103C30000E94951D0E94A51D06C00E94951D0E9410
:103C4000951D0E94951D0E94A51D08C00E94951DEE
:103C50000E94951D0E94951D0E94951D0E94A51D04
:103C60000E94801D0E94801D0E94801DF39496CFAB
:103C70000F900F900F90DF91CF911F910F91FF90B8
:103C800008956F927F928F929F92AF92BF92CF9240
:103C9000DF92EF92FF920F931F93CF93DF9382ED0A
:103CA00095E00E948212E091270AF091280A80850F
:103CB000282F332727FD30953F938F938FE493E090
:103CC0009F938F930E94C033E091270AF091280AB6
:103CD000C281D381DF93CF9383E893E09F938F9347
:103CE0000E94C03388811F928F9388E593E09F9351
:103CF0008F930E94C033E091270AF091280A8181B6
:103D00008F9380818F9385E693E09F938F930E949A
:103D1000C0338091280A8F938091270A8F938FE672
:103D200093E09F938F930E94C033C5E6D9E0EDB72F
:103D3000FEB774960FB6F894FEBF0FBEEDBF00E05D
:103D400010E08FE7682E83E0782E98E5892E93E0C7
:103D5000992E25E6A22E23E0B22E3FE6C32E33E0B5
:103D6000D32EEA80FB80FF92EF921F930F937F92F6
:103D70006F920E94C033F70180811F928F939F92B0
:103D80008F920E94C03389818F9388818F93BF92D5
:103D9000AF920E94C033DF93CF93DF92CF920E9405
:103DA000C0330F5F1F4FAB96EDB7FEB772960FB6DD
:103DB000F894FEBF0FBEEDBF0430110591F6DF9100
:103DC000CF911F910F91FF90EF90DF90CF90BF9018
:103DD000AF909F908F907F906F900895CF93DF93D7
:103DE000E091270AF091280AC281D3818881853524
:103DF00039F00E94411E81E00E94671D85E588839D
:103E0000E091270AF091280A8081918181159244DE
:103E100038F00E94411E82E1DF91CF910C94671D22
:103E2000DF91CF9108952BE28202C0011124FC01A1
:103E3000EB59F64FA281B3818C91853519F085E558
:103E40008C9308C0808191818115924428F082E191
:103E50000E94671D8FEF089581E008950F931F93CF
:103E60004091E0065091E1066091E2067091E30610
:103E700080E090E08A019B01082E04C036952795CA
:103E8000179507950A94D2F700FD19C001E010E0DC
:103E900020E030E0082E04C0000F111F221F331F46
:103EA0000A94D2F7402B512B622B732B4093E006E0
:103EB0005093E1066093E2067093E30605C0019615
:103EC00080329105B9F68FEF1F910F910895E0911F
:103ED000270AF091280A6585768587859089089557
:103EE000CF92DF92EF92FF920F931F93CF93DF93C6
:103EF000C12CD12C7601C394082E04C0CC0CDD1C3F
:103F0000EE1CFF1C0A94D2F74091E0065091E106A6
:103F10006091E2067091E3064C215D216E217F21C4
:103F2000452B462B472B09F460C0082F0E94F01642
:103F3000EEE6F9E0B701A6014095509560957095C1
:103F400013E0DF0111978C918F3F39F184819581C6
:103F5000A681B7818C159D05AE05BF0551F410866D
:103F60001186128613869F0122503109E9011882B9
:103F7000108384239523A623B72384839583A68364
:103F8000B78380859185A285B38584239523A62355
:103F9000B72380879187A287B387BB96DAE0EA319F
:103FA000FD0779F68EEF9FEFAFEFBFEF04C0880FEC
:103FB000991FAA1FBB1F0A95D2F74091E0065091A6
:103FC000E1066091E2067091E30684239523A6231F
:103FD000B7238093E0069093E106A093E206B093A6
:103FE000E3060E94F21681E001C08FEFDF91CF91CE
:103FF0001F910F91FF90EF90DF90CF9008950F9356
:104000001F9341E050E060E070E08A019B0104C032
:10401000000F111F221F331F8A95D2F7D901C80143
:10402000E091270AF091280A4585568567857089B1
:104030000423152326233723012B022B032BD1F036
:1040400080959095A095B095482359236A237B23AA
:10405000458756876787708B418952896389748940
:1040600084239523A623B723818B928BA38BB48BB8
:1040700081E001C08FEF1F910F910895282F40918B
:10408000E0065091E1066091E2067091E306082E89
:1040900004C076956795579547950A94D2F740FFE7
:1040A0001DC0E091270AF091280A81E090E0A0E08D
:1040B000B0E004C0880F991FAA1FBB1F2A95D2F732
:1040C0004585568567857089842B952BA62BB72B44
:1040D00085879687A787B08B81E008958FEF089535
:1040E000CF92DF92EF92FF92CF93C12CD12C760129
:1040F000C39404C0CC0CDD1CEE1CFF1C8A95D2F7C7
:104100008091E0069091E106A091E206B091E3066D
:104110008C219D21AE21BF21892B8A2B8B2B11F461
:1041200081E044C00E94F016ECE6F9E0AEE6B9E0AA
:10413000C0E083E090819130B9F442855385648575
:1041400075854C215D216E217F21452B462B472B08
:1041500059F08C9316861786108A118A1082C286AF
:10416000D386E486F586C1E090819230A1F4428541
:104170005385648575854C155D056E057F0559F47D
:104180008C9316861786108A118A108212861386DF
:1041900014861586C1E0BB969B969AE0E831F90734
:1041A00049F60E94F216C11105C082E00E94FF1B71
:1041B0008FEF01C081E0CF91FF90EF90DF90CF9023
:1041C00008950F931F93E091270AF091280A05851F
:1041D00016852785308906231723282339230115BF
:1041E00011052105310511F1DC01CB01818B928B89
:1041F000A38BB48B21E027830090170A04C0B695E7
:10420000A795979587950A94D2F780FF03C00E94DF
:10421000992404C080E090E00E946A24E091270A7B
:10422000F091280A0189128923893489C901B801CA
:104230001F910F91089580E090E0089521E083514F
:104240009A4009F420E0822F819508950E941E2152
:104250008F3F11F481E003C0813029F482E00E9495
:10426000FF1B8FEF0895992787FD9095FC01EE0FB6
:10427000FF1F8E0F9F1FFC01ED5EF54F8281089599
:10428000EF92FF920F931F93CF93DF931F92CDB7BF
:10429000DEB70E941E218F3F11F481E003C0813000
:1042A00029F482E00E94FF1B8FEF41C089830E94A6
:1042B000F0168981E82EFF24E7FCF0948701000FB7
:1042C000111FF801EE0DFF1DED5EF54F928191116A
:1042D00016C0E091270AF091280A9781926097838F
:1042E000992787FD9095A92FB92F818B928BA38B4E
:1042F000B48B0E94F21680E090E00E946A240E0DBA
:104300001F1DD801AD5EB54F12968C91129781504A
:1043100012968C931297E091270AF091280A119631
:104320008C91838781E084830E94F21681E00F9054
:10433000DF91CF911F910F91FF90EF9008950F9310
:104340001F93CF93DF931F92CDB7DEB70E941E213C
:104350008F3F11F481E003C0813029F482E00E9494
:10436000FF1B8FEF44C0482F552747FD50959A01FA
:10437000220F331F240F351F89010D5E154FF801E1
:1043800022819081291794F589830E94F016F80103
:1043900092819F5F9283E091270AF091280A14820C
:1043A000ECE6F9E08981992787FD9095A92FB92F2F
:1043B00023E03081323099F44285538564857585D8
:1043C000481759076A077B0751F422831686178618
:1043D000108A118A10821286138614861586BB965F
:1043E0003AE0E831F30729F70E94F21681E00F90D6
:1043F000DF91CF911F910F9108950E941E218F3F51
:1044000011F481E003C0813029F482E00E94FF1B97
:104410008FEF0895992787FD9095FC01EE0FFF1F00
:104420008E0F9F1FFC01ED5EF54F8FEF808382831F
:1044300081838091260A81508093260A81E0089525
:10444000E0911C0AF0911D0A80810895E0911C0AF8
:10445000F0911D0A309721F00380F481E02DFACF0E
:104460000895AF92BF92CF92DF92EF92FF920F9397
:104470001F93CF93DF93E0916309F0916409309724
:1044800009F494C000911C0A10911D0A0115110530
:1044900009F44CC0D8014BE2582F54039001112469
:1044A0002B59364F79019AE0E90EF11C6901C4E0FD
:1044B000CC0ED11C5901DBE0AD0EB11C2C9130E0CB
:1044C000429FB001439F700D11246B59764FEB0151
:1044D0009C81992329F05B85E7019881591740F168
:1044E000E6019881992369F0429FB001439F700DC6
:1044F00011246B59764FEB015A85E50198815917C4
:10450000B8F0429FB001439F700D11249B012B59BD
:10451000364FE9012A85E7019881291748F013965B
:104520000D90BC91A02D109749F602C0A0E0B0E01C
:104530008083C381D481D0936409C0936309A01799
:10454000B107B1F4109749F0B483A38312821182AA
:104550001296FC93EE93119706C014821382128276
:104560001182FA83E983F0931D0AE0931C0A1EC0AE
:10457000AC17BD0779F011968D919C91129792839B
:104580008183B483A3831196CD91DC911297FC8330
:10459000EB8308C01482138211968D919C9112971F
:1045A000928381831296FC93EE931197DF91CF91C2
:1045B0001F910F91FF90EF90DF90CF90BF90AF9041
:1045C0000895CF93DF93E0911C0AF0911D0A309774
:1045D00009F444C0992787FD9095208130E0281781
:1045E000390781F4A381B481B0931D0AA0931C0AFA
:1045F00012961C921E92119718C00380F481E02D30
:10460000309761F1208130E028173907B1F7C18177
:10461000D281838194819C838B83A381B481109701
:1046200021F01296DC93CE931197A0916309B0917B
:104630006409109739F4F0936409E09363091482D4
:1046400013820AC0B483A3831296FC93EE9311974E
:10465000F0936409E093630912821182DF91CF9194
:104660000895EF92FF920F931F93CF93DF93EC0186
:104670004B815C8169817A818D819E810E94393074
:104680002F81222371F04B815C81E12CF12C00E021
:1046900010E020E030E0BC01CE010E94FE171F8236
:1046A0000CC0E8812BE2E202F0011124EB59F64F35
:1046B00021852330B9F491838083E8818BE2E8027D
:1046C000F0011124EB59F64F85899689A789B08DA1
:1046D000892B8A2B8B2B41F482E0818788810E9471
:1046E000312202C08FEF01C081E0DF91CF911F9195
:1046F0000F91FF90EF9008951F93CF93DF93CDB765
:10470000DEB728970FB6F894DEBF0FBECDBF298362
:104710003A834B835C836D837E838F8398870E946B
:10472000F0160E94632D182FCE0101960E948E274D
:104730006330710598F0E091270AF091280A212F43
:1047400030E0620F731FCB01A0E0B0E0858B968B49
:10475000A78BB08F0E94F21681E001C08FEF2896E0
:104760000FB6F894DEBF0FBECDBFDF91CF911F9182
:1047700008950E940C30E091270AF091280A858163
:104780008111F7CF0895CF930E94EE1E0E94F0167C
:10479000E091270AF091280A81E090E092A781A792
:1047A00085830E94632DC82F883F80F40E94FD2CD2
:1047B0002C2F30E02F5F3F4F90E02817390734F45B
:1047C00082E08C0F80930E080E94012D0E94F21649
:1047D0000E94B92381E0CF910895E091270AF091DA
:1047E000280A80850E94E122E091270AF091280A98
:1047F00084E081870E94C32381E00895CF93DF93F3
:10480000EC010E94EE1E209711F4C1E0D0E00E945E
:10481000F016E091270AF091280A81E08583D2A75B
:10482000C1A70E94632DC82F883F80F40E94FD2CF1
:104830002C2F30E02F5F3F4F90E02817390734F4DA
:1048400082E08C0F80930E080E94012D0E94F216C8
:104850000E94B92381E0DF91CF910895EF92FF92FA
:104860000F931F93CF938C010E94F016E091270ABB
:10487000F091280A81E085830E94632DC82FE09182
:10488000270AF091280AE82EF12CC701800F911F0A
:10489000A0E0B0E0858B968BA78BB08FC83F78F4F3
:1048A0000E94FD2C9FEFE91AF90A90E0E816F9063C
:1048B00034F482E08C0F80930E080E94012D0E9438
:1048C000F2160E94B92381E0CF911F910F91FF90C2
:1048D000EF900895CF93DF93EC010E94F016E091E2
:1048E000270AF091280A21E02583CE01A0E0B0E05C
:1048F000858B968BA78BB08F0E94632DC82F883F26
:1049000080F40E94FD2C2C2F30E02F5F3F4F90E071
:104910002817390734F482E08C0F80930E080E9428
:10492000012D0E94F2160E94B92381E0DF91CF9100
:104930000895CF930E94F016E091270AF091280A7B
:1049400081E0858386830E94632DC82F883F80F491
:104950000E94FD2C2C2F30E02F5F3F4F90E0281756
:10496000390734F482E08C0F80930E080E94012DE9
:104970000E94F2160E94B92381E0CF9108951F93FF
:10498000CF93DF93CDB7DEB728970FB6F894DEBF8D
:104990000FBECDBF29833A834B835C836D837E83B7
:1049A0008F8398870E94EE1E0E94F016E091270ADE
:1049B000F091280A81E0858381E090E092A781A7A9
:1049C0000E94632D182FCE0101960E948E27E09140
:1049D000270AF091280ADC01CB01810F911DA11D4E
:1049E000B11D858B968BA78BB08F183F80F40E94EA
:1049F000FD2C212F30E02F5F3F4F90E02817390723
:104A000034F482E0810F80930E080E94012D0E94F1
:104A1000F2160E94B92381E028960FB6F894DEBF03
:104A20000FBECDBFDF91CF911F9108958F929F92BE
:104A3000AF92BF92CF92DF92EF92FF920F931F93AC
:104A4000CF93DF93CDB7DEB760970FB6F894DEBF94
:104A50000FBECDBF29873A874B875C876D877E87DE
:104A60008F87988BCE0101960E94722589809A804B
:104A7000AB80BC80CD80DE80EF80F88409851A850C
:104A80002B853C854D855E856F857889CE0109969D
:104A90000E94CF258F3F61F029853A854B855C8543
:104AA0006D857E858F8598890E94BF2481E001C035
:104AB0008FEF60960FB6F894DEBF0FBECDBFDF91CB
:104AC000CF911F910F91FF90EF90DF90CF90BF900B
:104AD000AF909F908F900895E091270AF091280A57
:104AE000808508950F931F93CF93DF93EC011C8271
:104AF0001D821E821F8280911E0A90911F0AA09122
:104B0000200AB091210A88839983AA83BB8380916C
:104B1000220A9091230AA091240AB091250A8C833D
:104B20009D83AE83BF830E94632DA82FB0E023EB4B
:104B300036EE4EE050E00E9456320C811D812E81EF
:104B40003F81DC01CB01800F911FA21FB31F8C831B
:104B50009D83AE83BF838C819D81AE81BF81811592
:104B60002AEC92072AE9A2072BE3B20798F09A5C95
:104B7000AA49BB438C839D83AE83BF83888199817F
:104B8000AA81BB810196A11DB11D88839983AA8347
:104B9000BB83E1CFDF91CF911F910F9108958F9249
:104BA0009F92AF92BF92CF92DF92EF92FF920F93BC
:104BB0001F93CF93DF93CDB7DEB760970FB6F8940E
:104BC000DEBF0FBECDBFFC0109831A832B833C835C
:104BD0004D835E836F83788789869A86AB86BC8691
:104BE000CD86DE86EF86F88A09811A812B813C8189
:104BF0004D815E816F817885C984DA84EB84FC8481
:104C00008D859E85AF85B8890C151D052E053F0540
:104C1000F0F1C016D106E206F30691F448175907E1
:104C20006A077B07A0F1481B590B6A0B7B0B448377
:104C3000558366837783108211821282138225C086
:104C4000481759076A077B0780F4015011092109A9
:104C500031090C191D092E093F0900831183228394
:104C6000338356536546744C08C00C191D092E0930
:104C70003F090083118322833383481B590B6A0B3E
:104C80007B0B448355836683778381E001C08FEF7C
:104C900060960FB6F894DEBF0FBECDBFDF91CF9107
:104CA0001F910F91FF90EF90DF90CF90BF90AF904A
:104CB0009F908F900895FC01448155816681778192
:104CC00041158AEC58078AE968078BE3780798F062
:104CD0005A5C6A497B43448355836683778380812A
:104CE0009181A281B3810196A11DB11D8083918321
:104CF000A283B383E1CF08958F929F92AF92BF9228
:104D0000CF92DF92EF92FF920F931F93CF93DF9397
:104D1000CDB7DEB760970FB6F894DEBF0FBECDBF3C
:104D200009831A832B833C834D835E836F8378874B
:104D300089869A86AB86BC86CD86DE86EF86F88A23
:104D400009851A852B853C8549815A816B817C8137
:104D5000400F511F621F731FFC0140835183628308
:104D600073830D851E852F8538894D815E816F8106
:104D70007885400F511F621F731F448355836683DC
:104D800077830E945B2681E060960FB6F894DEBFC1
:104D90000FBECDBFDF91CF911F910F91FF90EF908C
:104DA000DF90CF90BF90AF909F908F900895EEE1ED
:104DB000FAE06083718382839383248335834683FF
:104DC000578308952F923F924F925F926F927F92F6
:104DD0008F929F92AF92BF92CF92DF92EF92FF920B
:104DE0000F931F93FC01C080D180E280F380C11437
:104DF000D104E104F104E1F184819581A681B781B8
:104E000022E4C216D104E104F104F0F51C012D01E5
:104E1000612C712C4301E0E08E2F90E0A0E0B0E027
:104E20008C159D05AE05BF0588F49101A201B30163
:104E3000C40136534546544C6F4F7F4F8F4F9F4FA1
:104E400019012A013B014C01EF5FE6CF83EBA82E4D
:104E500096EEB92E2EE0C22ED12CE12CF12C00E0E2
:104E600010E09101A201B301C4010E94A9320AC05D
:104E7000648175818681978123EB36EE4EE050E0A8
:104E80000E948532C90102C080E090E01F910F911D
:104E9000FF90EF90DF90CF90BF90AF909F908F905A
:104EA0007F906F905F904F903F902F900895CF929A
:104EB000DF92EF92FF92CF93DF93CDB7DEB72897C3
:104EC0000FB6F894DEBF0FBECDBF6B017C012AE0A8
:104ED000F694E794D794C7942A95D1F7C982DA82D9
:104EE000EB82FC829B01AC0133704427552763EBB6
:104EF00076EE8EE090E00E9461322C2D3A814B815B
:104F00005C8128960FB6F894DEBF0FBECDBFDF914F
:104F1000CF91FF90EF90DF90CF9008952F923F9226
:104F20004F925F926F927F928F929F92AF92BF92B9
:104F3000CF92DF92EF92FF920F931F93FC01C080FC
:104F4000D180E280F380C114D104E104F104B9F10D
:104F500084819581A681B7811C012D01612C712C62
:104F60004301E0E08E2F90E0A0E0B0E08C159D05BD
:104F7000AE05BF0588F49101A201B301C401365307
:104F80004546544C6F4F7F4F8F4F9F4F19012A0159
:104F90003B014C01EF5FE6CF83EBA82E96EEB92ED6
:104FA0002EE0C22ED12CE12CF12C00E010E091017A
:104FB000A201B301C4010E94A932CA010BC06481DD
:104FC00075818681978123EB36EE4EE050E00E949A
:104FD0008532CA01B9011F910F91FF90EF90DF90C8
:104FE000CF90BF90AF909F908F907F906F905F9089
:104FF0004F903F902F900895C1E00E94EE1E0E94B6
:10500000FD2C843010F4C0931B0A0E940C30809158
:10501000A808853519F088E00E94671D80917E41BF
:10502000853559F388E00E94671DE7CF2F923F92A4
:105030004F925F926F927F928F929F92AF92BF92A8
:10504000CF92DF92EF92FF920F931F93CF93DF9354
:105050000E94F2168AEF0E94012D0E94FD2F0E94ED
:10506000CB2AC0910E08AC2FB0E023EB36EE4EE019
:1050700050E00E9456320091220A1091230A20919A
:10508000240A3091250A6B017C01C00ED11EE21E5C
:10509000F31EC701B60123EB36EE4EE050E00E944E
:1050A0008532C61AD70AE80AF90AC092220AD092B3
:1050B000230AE092240AF092250AE091270AF0914F
:1050C000280A8085811130C080911B0A823019F432
:1050D0008C2F0E94F318E091270AF091280A609122
:1050E0000E0880850E945B19E091270AF091280A3A
:1050F00060E080850E9498198091220A9091230A8D
:10510000A091240AB091250A00911E0A10911F0A4D
:105110002091200A3091210A53EB452E56EE552E50
:105120005EE0652E712C07C095816C2F9111E2CF46
:105130000E945B19E1CF480159014FEF841A940A8C
:10514000A40AB40A81155AEC95075AE9A5075BE34E
:10515000B507C8F06C017D012AECD21A2AE9E20AEF
:105160002BE3F20AC701B601A30192010E94853226
:10517000A7019601261B370B480B590BDA01C90111
:1051800095018401D8CF8093220A9093230AA0939B
:10519000240AB093250A00931E0A10931F0A209335
:1051A000200A3093210AE091270AF091280A85818C
:1051B000882339F18185843021F18781823029F07B
:1051C000882341F08681811102C085E001C083E01F
:1051D000818714C083E0818717821682858996892A
:1051E000A789B08D892B8A2B8B2B41F4818D928DD1
:1051F000A38DB48D858B968BA78BB08F80850E94F5
:10520000E122E091270AF091280A85A196A1A7A1A1
:10521000B0A5892B8A2B8B2B09F44EC0808588235F
:1052200009F44AC09185943009F446C0458D568DE5
:10523000678D70A100910E0810E020E030E040176B
:1052400051076207730798F40E942819E091270A12
:10525000F091280A608582E00E94761DE091270A7D
:10526000F091280A158E168E178E10A208C0401BCA
:10527000510B620B730B458F568F678F70A3E091B4
:10528000270AF091280AC085858D968DA78DB0A13B
:10529000892B8A2B8B2B81F48C2F0E9428196C2F41
:1052A00083E00E94761DE091270AF091280A83E0AE
:1052B00081878C2F0E94E122CEE6D9E000E61AEE2B
:1052C000312C2AEFC22ED12CE12CF12C32E0232EEE
:1052D000812C912C54018394FE01319780818F3F62
:1052E00009F4E5C033971082882309F45BC08881F4
:1052F000843009F457C04C845D846E847F8460914F
:105300000E0870E080E090E04616570668067906C1
:1053100048F0461A570A680A790A4C865D866E86F6
:105320007F8604C01C861D861E861F864888598875
:105330006A887B88461657066806790648F0461A3A
:10534000570A680A790A488A598A6A8A7B8A1AC07F
:10535000288D398D4A8D5B8D6217730784079507F9
:1053600058F429013A01461A570A680A790A488A04
:10537000598A6A8A7B8A06C00E948532688B798B3B
:105380008A8B9B8B88899989AA89BB89892B8A2BCF
:105390008B2B41F4888D998DAA8DBB8D888B998B31
:1053A000AA8BBB8B8881833009F081C08C859D8559
:1053B000AE85BF85892B8A2B8B2B09F067C0DE0158
:1053C00012978C91FE013397882391F08081882376
:1053D00079F0B501A4010090170A04C0440F551FCD
:1053E000661F771F0A94D2F7488759876A877B8799
:1053F0001C921082A8A1B9A1A130B10509F58C8D2C
:105400009D8DAE8DBF8D8C8B9D8BAE8BBF8B28827F
:1054100088899989AA89BB898C879D87AE87BF8730
:10542000888D998DAA8DBB8D892B8A2B8B2B21F48E
:10543000CC86DD86EE86FF86832D0E94312226C033
:105440004C8D5D8D6E8D7F8D4C8B5D8B6E8B7F8BD0
:10545000488C598C6A8C7B8C1197A30192010E9415
:1054600056326C877D878E879F87688B798B8A8B76
:105470009B8B45284628472821F4CC86DD86EE867E
:10548000FF8666246394712C79A268A28C859D8521
:10549000AE85BF850097A105B10549F0A80160E080
:1054A00070E084179507A607B70708F48C013394BA
:1054B000AB9684E0782E37100FCFE091270AF09159
:1054C000280A80850E943A190E942022C82F2BE2C8
:1054D0008202F0011124EB59F64F22852093290A0C
:1054E000F093190AE093180A8823D9F085A196A1B0
:1054F000A7A1B0A5892B8A2B8B2B99F0858D968D32
:10550000A78DB0A18A3F9105A105B10550F4A8016E
:1055100060E070E084179507A607B70710F48C01C8
:1055200005C00B3F110510F00AEF10E020931A0A96
:10553000F093280AE093270A00930E080E94632D37
:10554000282F30E02F5F3F4F2017310740F00E9497
:10555000632D082F10E00E5F1F4F00930E08C1113E
:1055600010921B0A802F0E94012D0E948630DF912D
:10557000CF911F910F91FF90EF90DF90CF90BF9050
:10558000AF909F908F907F906F905F904F903F90E3
:105590002F900C9491303F924F925F926F927F9236
:1055A0008F929F92AF92BF92CF92DF92EF92FF9233
:1055B0000F931F93CF93DF93CDB7DEB760970FB6EE
:1055C000F894DEBF0FBECDBFCE0109960E947225B2
:1055D0008AE2482E8AE0582E612C712C93E1392EF4
:1055E000D20112968C91813051F5369CF001379C96
:1055F000F00D1124EB5CF54F89849A84AB84BC8454
:10560000CD84DE84EF84F88800811181228133818A
:105610004481558166817781CE0101960E94CF2514
:105620008F3F69F4662D85E10E94761DD201ED91D0
:10563000FC91309719F40E94F41601C00995BFEF50
:105640006B1A7B0AE3E14E0E511CF3E06F167104F6
:1056500039F660960FB6F894DEBF0FBECDBFDF916E
:10566000CF911F910F91FF90EF90DF90CF90BF905F
:10567000AF909F908F907F906F905F904F903F90F2
:105680000895EAE2FAE01282158A10A60895CF93EF
:10569000DF938330E0F493E1899FF0011124E65D0C
:1056A000F54F51834083EB0188819981AA81BB81A9
:1056B00083839483A583B6838C819D81AE81BF81D2
:1056C00087839087A187B287128281E001C08FEF24
:1056D000DF91CF910895CF92DF92EF92FF920F93D7
:1056E0001F93CF93DF93CDB7DEB728970FB6F8940B
:1056F000DEBF0FBECDBF8330A8F5182FCE010196B7
:105700000E94722523E1129FC00111248C01065DC5
:10571000154FF801C380D480E580F68049815A8115
:105720006B817C814C0D5D1D6E1D7F1D43875487F1
:1057300065877687C780D084E184F2844D815E815D
:105740006F8178854C0D5D1D6E1D7F1D4787508BC9
:10575000618B728B8B5C954F0E945B2681E0F80118
:10576000828301C08FEF28960FB6F894DEBF0FBE7C
:10577000CDBFDF91CF911F910F91FF90EF90DF9000
:10578000CF9008951F93CF93DF93CDB7DEB72897BF
:105790000FB6F894DEBF0FBECDBF833070F5182F63
:1057A000CE0101960E94722583E1189FF001112419
:1057B000E65DF54F438154816581768189819A81C7
:1057C000AB81BC81840F951FA61FB71F8387948769
:1057D000A587B68747815085618572858D819E81B9
:1057E000AF81B885840F951FA61FB71F8787908B41
:1057F000A18BB28B81E0828301C08FEF28960FB618
:10580000F894DEBF0FBECDBFDF91CF911F910895F9
:10581000833048F493E1899FF0011124E65DF54F50
:10582000128281E008958FEF0895000000000000CB
:105830000000000000000000000000000000000068
:105840000000019791F7089510922101089589E0D1
:10585000809321018DE89CE3909329018093280196
:10586000089510922501109224010895CF93DF939B
:1058700000D0CDB7DEB780912401909125019A83A5
:10588000898389819A810F900F90DF91CF9108953C
:1058900010928100089581E080938100089583B57E
:1058A000816083BD10928500109284000895CF938B
:1058B000DF9300D0CDB7DEB7809184009091850052
:1058C0009A83898389819A810F900F90DF91CF917C
:1058D0000895CF92DF92EF92FF92CF93DF93EC0186
:1058E000CC0FDD1FC9378FEFD80710F0C0E0D0E034
:1058F0006B01E12CF12CCC0EDD1EE11CF11C81E0D2
:10590000C816D104E806F10440F081E0E81AF10875
:105910000E94572CC817D907D8F30E94572C8C1512
:105920009D05D8F3DF91CF91FF90EF90DF90CF905E
:1059300008951092B100E0E7F0E080818D7F8083D0
:1059400080818E7F808308958093B2000895E0E780
:10595000F0E080818360808383E08093B1000895CC
:1059600083B5826083BD1092B2001092A906109296
:105970000E080895CF93DF938EEF80930E0880E298
:105980008093B60080910E088093B30083E087BBBC
:1059900092E09093B0008093B10093B5926093BD74
:1059A00087BB84BD83B5826083BD1092800081E097
:1059B00080938100109285001092840083B58260EC
:1059C00083BD83B5816083BD10922001C4E2D1E024
:1059D0001982188283B5826083BD83B5816083BDDF
:1059E0000E94B02C198218820E94A72C0E94272C9A
:1059F0001092A906DF91CF9108958091B3008F5F37
:105A0000089581508093B3000895811102C01092CF
:105A100071008FEF0895811106C0109295001092C9
:105A2000940081E008958FEF0895811105C0809161
:105A3000940090919500089580E090E00895811180
:105A400005C082E08093710081E008958FEF089592
:105A5000811135C0CB010197059710F460930B08B5
:105A60001092900088E080939100509399004093A9
:105A70009800309303062093020680910B08813032
:105A800021F480919100816011C0823021F48091D5
:105A9000910082600BC0833021F48091910083607B
:105AA00005C0843031F4809191008460809391002E
:105AB00008C0853031F4809191008560F7CF8FEF79
:105AC000089581E008958091B20008951F920F9289
:105AD0000FB60F92112460E08AE00E94761DFFCF7E
