:100000000C94FC020C94952F0C94C72F0C94F92F90
:100010000C941B030C941B030C941B030C941B03E8
:100020000C941B030C94632F0C941B030C941B0364
:100030000C941B030C94C22D0C941B030C94C22D26
:100040000C941B030C941B030C941B030C941B03B8
:100050000C941B030C941B030C941B030C941B03A8
:100060000C941B030C941B030C941B030C941B0398
:100070000C941B030C941B030C941B030C941B0388
:100080000C94F52D0C941B030C941B030C941B0374
:100090000C941B030C941B030C941B030C94BE0CBC
:1000A0000C941B030C941B030C941B030C941B0358
:1000B0000C941B030C941B030C941B030C941B0348
:1000C0000C941B030C941B030C941B030C941B0338
:1000D0000C941B030C941B030C941B030C941B0328
:1000E0000C941B030C94AA100C949B100C946B1092
:1000F0000C945B110C945C100C944D100C943B1000
:100100000C942C100C941B030C941B030C941B03D9
:100110000C941B030C941B030C941B030C941B03E7
:10012000DB12E812F51202130F131C1329134C13E0
:100130005A136813761384139213A013C313C513B1
:10014000C713C913CB13CD13CF13EE1311143514EA
:1001500058147B149E14C114FB1408151515221590
:100160002F153C15491562156F157C1589159615C7
:10017000A315B015E91CEF1CF21CF51CF81CFB1CA8
:10018000011DFE1C041D071D0A1D131D161D191D32
:100190001C1D101DE61CEC1C1F1D221D0D1DE31C4B
:1001A0000B1E0E1E191E1E1E251E2E1E311E361E55
:1001B0003D1E461E7478206572726F720D0A0046ED
:1001C00061696C656420746F20726567697374651A
:1001D00072207369676E616C0D0A0054444D4120B2
:1001E0004552524F523A206372656174696E6720BE
:1001F000656E61626C65207369676E616C20666113
:10020000696C65640D0A0054444D41204552524FBB
:10021000523A206372656174696E67207478207346
:1002200069676E616C206661696C65640D0A0054D3
:10023000444D41204552524F523A206372656174D9
:10024000696E67207278207369676E616C206661E1
:10025000696C65640D0A0054444D412054583A209D
:10026000576F6B65207570206F6E2077726F6E67A9
:10027000207369676E616C0D0A0054444D4120542F
:10028000583A204572726F722063616C6C696E67B8
:10029000206576656E7420776169740D0A000D0A19
:1002A0004E616E6F2D524B205461736B20537461FD
:1002B000746973746963733A0D0A000D0A000D0ABC
:1002C0002020204F766572666C6F77204572726FC2
:1002D00072205374617475733A20000D0A20202037
:1002E0004B65726E656C2056696F6C6174696F6ED8
:1002F000733A20000D0A202020507265656D7074DD
:10030000696F6E733A20000D0A20202053776170C8
:100310002D696E733A20000D0A20202054696D6506
:10032000205B4D696E2C4C6173742C4D61785D3A85
:1003300020000D0A202020546F74616C204350551A
:100340003A20000D0A20202049646C652054617316
:100350006B204465657020536C6565702054696D31
:10036000653A20000D0A202020546F74616C2053E0
:10037000797374656D20557074696D653A2000203D
:100380005461736B2049443A2000554E4B4F574EF1
:100390000045787465726E616C20526573657400F7
:1003A00042726F776E204F75742044657465637474
:1003B000004661696C656420746F206372656174C6
:1003C000652053656D6170686F7265004661696C88
:1003D000656420746F20637265617465205369677A
:1003E0006E616C004B65726E656C2066756E637431
:1003F000696F6E206E6F7420696D706C656D656ECF
:100400007465640044657669636520447269766545
:1004100072204572726F72005761746368646F670F
:10042000205265737461727400535720576174636E
:1004300068646F6720526573746172740054696DEB
:100440006572204F766572666C6F7700556E6861D5
:100450006E646C656420496E746572727570742088
:10046000566563746F72004C6F7720566F6C7461C1
:100470006765004578747261205461736B207374F2
:1004800061727465642C206973206E726B5F6366A1
:10049000672E68206F6B3F0049646C65206F722087
:1004A0004B65726E656C20537461636B204F76658B
:1004B00072666C6F7700556E6578706563746564FD
:1004C0002052657374617274004475706C69636165
:1004D000746564205461736B2049440053636865FC
:1004E00064756C6572204D69737365642057616B28
:1004F000657570005461736B205265736572766523
:100500002056696F6C61746564005265736572761C
:1005100065204572726F7220696E2053636865644E
:10052000756C657200496E76616C69642053746104
:10053000636B20506F696E746572005461736B2039
:10054000537461636B204F766572666C6F770053EE
:100550007461636B20776173206E6F7420646566CD
:10056000696E6564206173206C6172676520656ED9
:100570006F75676821005461736B20706572696FD5
:100580006420746F6F206C617267652E20506572F5
:10059000696F64206D757374206265206C65737378
:1005A000207468616E203631207365636F6E6473EA
:1005B0002E00293A20002A4E524B204552524F52CB
:1005C00028004E524B205265626F6F742E2E2E0DF6
:1005D0000A000D0A535441434B2044554D500D0A17
:1005E0000045464765666700202B2D2E303132339B
:1005F000343536373839680011241FBECFEFD1E4C7
:10060000DEBFCDBF13E0A0E0B2E0E4EAFCE600E02C
:100610000BBF02C007900D92A039B107D9F71AE0BD
:10062000A0E9B3E001C01D92A036B107E1F70E9436
:100630000E310C9450360C94B82D5F926F927F92CD
:100640008F929F92AF92BF92CF92DF92EF92FF92E2
:100650000F931F93CF93DF93CDB7DEB768970FB695
:10066000F894DEBF0FBECDBFCE0101960E94C42517
:10067000809162020E94B113811106C080916002D4
:100680000E94B11381110FC088E0E3EAF3E0DE01BC
:10069000519601900D928A95E1F7512C9DE0692EBB
:1006A00098E0792E0FC088E0EBE9F3E0DE01519687
:1006B00001900D928A95E1F7552453948CE0682EB1
:1006C00088E0782E89889A88AB88BC88CD88DE88B7
:1006D000EF88F88C09811A812B813C814D815E81E4
:1006E0006F817885CE0109960E942126F3018081D1
:1006F0008F5F808391E09093900380939103509259
:10070000920389859A85AB85BC85809393039093EA
:100710009403A0939503B09396038D859E85AF8532
:10072000B8898093970390939803A0939903B0930B
:100730009A0320E040E760E973E085EE96E00E94CE
:100740004306811104C084EB91E00E94A7126896D1
:100750000FB6F894DEBF0FBECDBFDF91CF911F91D2
:100760000F91FF90EF90DF90CF90BF90AF909F9050
:100770008F907F906F905F900895CF93DF9300D01C
:10078000CDB7DEB711E086EAF82E92E3E92E27EA2C
:10079000D22E30EDC32E4DE1B42E51EDA52E6CE3DB
:1007A000962E73E0872EEDE37E2E04E11092020672
:1007B00010939C078091A6069091A7069C012F5F3D
:1007C0003F4F3093A7062093A60680939D07F09293
:1007D0009306E092940662E083E996E00E94780C2A
:1007E000D092930667E083E996E00E94780C67E078
:1007F00083E996E00E94A70C82E090E02C012FEFA5
:10080000421A520AFC01EE56F94F2081FC01E456CF
:10081000F84F2083C2018830910581F7C09293067A
:10082000B092940662E083E996E00E94780CA09270
:10083000930667E083E996E00E94780C67E083E91D
:1008400096E00E94A70C92012F5F3F4FF201E45700
:10085000F94F8081F201E456F84F808329012E3050
:10086000310589F7909293068092940662E083E9BD
:1008700096E029833A830E94780C7092930667E091
:1008800083E996E00E94780C67E083E996E00E9495
:10089000A70C3A812981F901EA57F94F8081F901C2
:1008A000E456F84F80832F5F3F4F2431310599F78D
:1008B0000093A908109302060E94152477CFCF93C6
:1008C000DF93CDB7DEB728970FB6F894DEBF0FBE23
:1008D000CDBF0E94BE251F928F9388E792E09F9321
:1008E0008F930E94123485E090E0A0E0B0E089830D
:1008F0009A83AB83BC831D821E821F82188640E0D0
:1009000050E0BE016F5F7F4F80E090E00E94992B26
:1009100080E090E00E94142C0F900F900F900F90A9
:100920000E947808811116C00E941524F9CF80E03A
:1009300090E00E94E11520E04091A9086CE977E081
:1009400085EE96E00E944306813021F089E892E02E
:100950000E942C3480E090E00E94BD2B80E090E06B
:100960000E94F815809102068111E1CF0E941524A2
:10097000DECF60E0809162020E94E6144DE153E018
:1009800061E088E00E94D92E88E00E94572E60E046
:10099000809160020E94E6144DE153E061E08AE03C
:1009A0000E94D92E8AE00C94572EE3E9F6E080ED00
:1009B000808386E181838BE1828363E0CF010C94A5
:1009C000780CE3E9F6E08CE3808382E08183128295
:1009D00063E0CF010C94780C0F931F93CF93DF93B8
:1009E000C3E9D6E016EA18830DE209831A8263E0B0
:1009F000CE010E94780C188388E3898380E88A837B
:100A000063E0CE010E94780C188381E389838FE034
:100A10008A8363E0CE010E94780C1883098388E002
:100A20008A8363E0CE01DF91CF911F910F910C94E7
:100A3000780C8F929F92AF92BF92CF92DF92EF92FB
:100A4000FF92CF936DEB73E08DEA96E00E946930E0
:100A500040E850E067EF76E08DEA96E00E946D3066
:100A6000EDEAF6E0C1E0C087C783C187C28713867D
:100A700014861586168680E4882E88E7982E8DE7E2
:100A8000A82EBB24B3948786908AA18AB28A138A3F
:100A9000148A158A168A178A108E118E128EC12C0E
:100AA000D12C7601C394C38ED48EE58EF68E178E2C
:100AB00010A211A212A2CF010E9483236FE574E05D
:100AC00089E797E00E94693040E850E063E176E012
:100AD00089E797E00E946D30E9E7F7E082E08087E0
:100AE000C783C187C28713861486158616868786B4
:100AF000908AA18AB28A138A148A158A168A178A5A
:100B0000108E118E128EC38ED48EE58EF68E178EB9
:100B100010A211A212A2CF010E948323CF91FF90B5
:100B2000EF90DF90CF90BF90AF909F908F900C94FC
:100B30002A0C8091D603813099F00E943E0E0E94CB
:100B4000380E8091AB038F5F8093AB03833030F01E
:100B50001092D60380910F080E9490208FEF089585
:100B60001092AB030E94420F813091F5609108060C
:100B70006D306CF18091E103811107C01092D603B2
:100B800080910F080E94902022C080910A069091C7
:100B90000B060E94181280910A0690910B06209174
:100BA0000806820F911D27FD9A95FC01319720813F
:100BB0002A3CA1F6319720812E3F81F63197208182
:100BC0002E3B61F6319780818F3EC1F2C7CF81E025
:100BD000089508950C94A71181E08093E10308958E
:100BE00081E08093E10308958091AE03089500971A
:100BF00031F09093AD038093AC0381E008958FEFC3
:100C000008959093E4038093E30381E08093E203EB
:100C100008958FEF089580E090E00895803220F4E9
:100C20000E94860D81E008958FEF08958B3168F45E
:100C3000682F8093D40324E132E140E254E285E05E
:100C400096E00E94C80D81E008958FEF089590937B
:100C5000DC038093DB03EAEBF3E0DC0120E432E425
:100C60004FE050E00E94A8326483758386839783A7
:100C7000108211821282138281E008959093DA0328
:100C80008093D9030895CF92DF92EF92FF92CF9392
:100C9000DF9300D0CDB7DEB76C017B018091DD031F
:100CA000813009F48DC0442309F48AC061157105AF
:100CB00009F486C0C114D10409F482C0211108C00E
:100CC000809110082A8349830E945E2049812A81ED
:100CD00081E08093DD038BE594E09093D4068093CC
:100CE000D306F601818180935C04808180935B044C
:100CF0008581968190935E0480935D048091E003EA
:100D00008093600410925F0481859285019692879A
:100D1000818790936204809361048381809364044B
:100D20008281809363043091DE03F0E13F9FC00134
:100D30001124832B809365045E2DF7018CE090E0F5
:100D40003E2F351B341750F43191A091D306B0914A
:100D5000D406A80FB91F3C930196F2CF445F40938D
:100D6000D20621112BC081E090E0A0E0B0E0BC01F0
:100D7000CD010090100804C0660F771F881F991FCF
:100D80000A94D2F70E9401216B017C016115710563
:100D90008105910521F48AE792E00E94A712009054
:100DA000100804C0F694E794D794C7940A94D2F735
:100DB000C0FC04C087E592E00E94A71281E001C058
:100DC0008FEF0F900F90DF91CF91FF90EF90DF901A
:100DD000CF9008958F929F92AF92BF92CF92DF9261
:100DE000EF92FF920F931F93CF93DF931F92CDB794
:100DF000DEB74C018B015A018091D60321111CC032
:100E00008130F1F480910F0829830E945E2081E0F7
:100E100090E0A0E0B0E0BC01CD0100900F0804C05C
:100E2000660F771F881F991F0A94D2F70E9401212D
:100E30006B017C01298104C0813011F48FEF7CC0EB
:100E4000809108068C30D4F38C50D5018C9380E0CF
:100E5000F5019081891778F4482F50E0E0910A0657
:100E6000F0910B06E40FF51F9485F801E40FF51FD0
:100E700090838F5FEDCF80910D06992787FD909528
:100E8000D4011E969C938E931D9780910E061F96FB
:100E90008C931F9780910F0650968C93509780915A
:100EA000100651968C935197E0910A06F0910B062B
:100EB000858190E0982F88273481832B18969C9306
:100EC0008E931797838190E0982F88273281832B08
:100ED00016969C938E931597818190E0982F882782
:100EE0003081832B11969C938E93878190E0982F6D
:100EF00088273681832B1A969C938E931997818528
:100F000090E0982F88273085832B13969C938E939F
:100F1000129782851C968C9321110BC000900F08AC
:100F200004C0F694E794D794C7940A94D2F7C0FE0D
:100F300085CF81E08093D6030F90DF91CF911F91F1
:100F40000F91FF90EF90DF90CF90BF90AF909F9068
:100F50008F900895009751F090930B0680930A06A6
:100F60006093090681E08093D60308958FEF08957A
:100F70008093DE0308950F931F93CF93DF93162F73
:100F8000D42F052F9FEF9093B1031092B0031092CE
:100F9000AF038093DF031092E20383E08093DE03CC
:100FA0001092AE0380E094E09093DA038093D9032B
:100FB00080E896E9A8E9B0E08093BE039093BF0370
:100FC000A093C003B093C1031092BA031092BB0365
:100FD0001092BC031092BD030E944E1FC82F809335
:100FE0000F088F3F19F48FE292E009C00E944E1F54
:100FF000C82F809310088F3F69F487E092E00E9429
:10100000A712E091050AF091060A60858EE00E9421
:10101000961D2DC00E944E1FC82F8093AA088F3F97
:1010200019F48BED91E0EBCF8BEE93E090930B06F0
:1010300080930A0680E780930906C1E0C093D60337
:101040001092DD032D2F302F4FEF5FEF612F85E0E2
:1010500096E00E94C80D1093D403D093E00383ED73
:101060009FEF0E94B910C093D503C093D3038C2F78
:10107000DF91CF911F910F91089580910F080E94E9
:101080005E2080910F080895809110080E945E20D4
:101090008091100808952091D603213039F4FC0185
:1010A0001082FB01108280E090E0089520910806F4
:1010B000FC01208380910D06FB01808380910A064C
:1010C00090910B06089581E08093D60308951092C5
:1010D000D3030C94470D81E08093D3030E946D0DE0
:1010E0008091AA080C94902081E08093EE050895E9
:1010F0008091D5030895CF93DF938091D6038130FB
:1011000011F08FEF40C0D4E60E94420FC82F81300B
:1011100089F5609108066D30ACF18091E103811191
:1011200007C01092D60380910F080E9490202AC019
:1011300080910A0690910B060E94181280910A066F
:1011400090910B0620910806820F911D27FD9A951C
:10115000FC01319720812A3CA1F6319720812E3F56
:1011600081F6319720812E3B61F6319780818F3E49
:10117000C1F2C7CF84E690E00E94672CD15021F6DF
:101180008C2F01C081E0DF91CF9108950F931F93C1
:10119000CF939091E103992309F443C02091D206A3
:1011A00084E0820F382F3F7031F087FF02C083E167
:1011B000820F807F805F8093D2068091D206E0917B
:1011C000D306F091D406E80FF11D87FDFA9531970B
:1011D0008AEC80838091D206E091D306F091D40608
:1011E000E80FF11D87FDFA9532978EEF808380918D
:1011F000D206E091D306F091D406E80FF11D87FDE9
:10120000FA9533978EEB80838091D206E091D306D6
:10121000F091D406E80FF11D87FDFA9534978FEE13
:1012200080836091D206062F112707FD1095E0916B
:10123000D306F091D406C0E040E0242F30E0201720
:1012400031073CF42E0F3F1FD9018C91C80F4F5F1F
:10125000F4CF992319F0CF010E94C911E091D20671
:10126000FF27E7FDF095E657FE4FC08380ED96E03F
:101270000E94440E1092DD03809110080E9490207D
:1012800081E0CF911F910F910895CF93DF9300D00C
:10129000CDB7DEB70E9415248091D5038823D1F302
:1012A0008091AA080E945E208A838F3F21F48FEBF1
:1012B00091E00E94A712612C712C22242A94322CD6
:1012C0008091DF03813009F0E3C08093AE036114A5
:1012D000710409F088C08091DD03811116C02BE5EF
:1012E00034E03093D4062093D3063FEF30935D046F
:1012F00030935E0410925F041092600410926104B7
:10130000109262048CE08093D206E091D306F091B3
:10131000D4069091D9038091DA0390878187108257
:10132000E091D306F091D4061182E091D306F091BA
:10133000D4062091DE0330E1239FC0011124822BCB
:1013400082878091DB03838782EB93E00E94C42530
:101350003092D1062092D0061092D6061092D50671
:101360000E94C6080E94380E8091EE05813009F077
:1013700045C0412C512CC20165E070E00E94C3328F
:10138000892B21F482E090E00E94CA15E091D306F7
:10139000F091D4068FEF8083E091D306F091D406CC
:1013A0008183E091D306F091D4061482E091D306B4
:1013B000F091D40615829CE09093D2060E94C60854
:1013C0008AE090E00E94BC24EFEF4E1A5E0AF8EE2D
:1013D0004F16F3E05F0679F682E090E00E94E11597
:1013E0001092EE050BC089E995E00E94C30D2A8199
:1013F000213021F47092D8036092D7033FEF631A33
:10140000730A8091D9039091DA038615970528F421
:101410008AE090E00E94BC24ECC18090BA039090D6
:10142000BB03A090BC03B090BD03C090BE03D0909E
:10143000BF03E090C003F090C1030091B20310918C
:10144000B3032091B4033091B5034091B60350919A
:10145000B7036091B8037091B90382EB93E00E94E7
:10146000CE2682EB93E00E94AD262091B20330910C
:10147000B3034091B4035091B5036091B6037091EA
:10148000B7038091B8039091B9030E94682518CFE3
:10149000672809F057C00E946D0D0E94380E612C1C
:1014A000712C0E947B088A8382EB93E00E94C42502
:1014B0008A81813009F5E0910A06F0910B0681815D
:1014C00090E0982F88272081822B258130E0322FD1
:1014D00022274481242B232B21F48F3F2FEF9207C7
:1014E00021F0892B09F488C102C0612C712C31E0F4
:1014F0003093D6038FEF8A8394E669167104C0F0A7
:101500001092AE03E091AC03F091AD03309729F057
:10151000C3018456910909958983E981E13019F461
:10152000612C712C05C0F0E36F16F5E77F0618F407
:101530002FEF621A720A31E03093D6038A8181302C
:1015400009F0AFCFE0910A06F0910B069285892F42
:1015500082958F709F70891B813118F48093D2031C
:1015600002C01092D2031092CA031092CB031092C1
:10157000CC031092CD031092CE031092CF031092A1
:10158000D0031092D1031092C2031092C3031092A1
:10159000C4031092C503A0910806BB27A7FDB09510
:1015A00020E03DE70E94A132DC01CB01935BA74F15
:1015B000BF4F8093C6039093C703A093C803B09313
:1015C000C903612C712C8091D20390E068167906D2
:1015D00040F58090C2039090C303A090C403B090E4
:1015E000C503C090C603D090C703E090C803F09035
:1015F000C9030091CA031091CB032091CC03309111
:10160000CD034091CE035091CF036091D0037091F0
:10161000D1038AEC93E00E94CE269FEF691A790AE3
:10162000D2CFE1E0E093AE030E943E0E0E94470D50
:101630008091E3039091E4036090D9037090DA0302
:101640008615970508F43C01412C512C461457048B
:1016500041F18090BA039090BB03A090BC03B0907E
:10166000BD03C090BE03D090BF03E090C003F090D4
:10167000C1030091B2031091B3032091B4033091E0
:10168000B5034091B6035091B7036091B8037091D0
:10169000B90382EB93E00E94CE26FFEF4F1A5F0A58
:1016A000D5CF8090CA039090CB03A090CC03B0908C
:1016B000CD03C090CE03D090CF03E090D003F09044
:1016C000D1030091B2031091B3032091B403309180
:1016D000B5034091B6035091B7036091B803709180
:1016E000B90382EB93E00E94212682EB93E00E94F3
:1016F000AD262091B2033091B3034091B4035091D1
:10170000B5036091B6037091B7038091B8039091CF
:10171000B9030E9468258091DD038130B1F4E09126
:10172000D306F091D4066082E091D306F091D406FE
:1017300071823092D1062092D0061092D606109275
:10174000D5060E946D0D0E94C6080E943E0E0E94A2
:10175000470D412C512C8091D9039091DA038619C1
:1017600097094816590640F58090BA039090BB033C
:10177000A090BC03B090BD03C090BE03D090BF0347
:10178000E090C003F090C1030091B2031091B30345
:101790002091B4033091B5034091B6035091B70343
:1017A0006091B8037091B90382EB93E00E94CE265A
:1017B0002FEF421A520ACFCF82EB93E00E94AD2660
:1017C0002091B2033091B3034091B4035091B5031B
:1017D0006091B6037091B7038091B8039091B903FB
:1017E0000E9468258091D303811103C00E941524B3
:1017F000F9CF612C712C64CD828582958F70809396
:10180000DE03818590E0982F88272085822B909396
:10181000DA038093D903A3858A2F90E09093DC03A9
:101820008093DB03DC0120E432E44FE050E00E94CF
:10183000A8326093BE037093BF038093C00390935C
:10184000C1031092BA031092BB031092BC03109212
:10185000BD0352CE65E479E08BEC95E00E946930DF
:1018600040E051E06BEC74E08BEC95E00E946D3051
:10187000EBECF5E084E1808781E0878381878287D4
:1018800081E090E0A0E0B0E083879487A587B687E9
:101890001786108A118A128A87E090E0A0E0B0E0F3
:1018A000838B948BA58BB68B178A108E118E128E1C
:1018B000138E148E158E168E178E10A211A212A2E0
:1018C000CF010C9483238AE08093B8008FEF80933C
:1018D000BB0084E08093BC0008958091BC008170BF
:1018E00008958091BC0080FDFCCF80911002089586
:1018F0002091BC0020FDFCCF6093F105FC0120810C
:101900002093F20520FF09C01092EF0588EF809325
:10191000100285EA8093BC000895FC01319622EF05
:1019200035E0D90111968A2F821B861768F78191BD
:101930008C93F8CF8091BC0080FDFCCF1092EF0516
:1019400088EF8093100285EA8093BC00089520916F
:10195000BC0020FDFCCF2091EF0520FD04C080914C
:10196000EF058170089522EF35E0FC01D9018A2F3F
:10197000821B8617A0F78D918193F9CF1F920F924A
:101980000FB60F9211240BB60F922F933F938F93A4
:101990009F93EF93FF938091B900883201F140F457
:1019A0008031D9F08831D9F0883009F04AC015C0AB
:1019B000803491F128F4883309F043C085EA46C0A9
:1019C0008035F1F08835E9F58091BB00E091F005B4
:1019D000F0E0EE50FA4F80832DC01092F005E091B8
:1019E000F0058091F105E81728F581E08E0F8093CE
:1019F000F005F0E0EE50FA4F80818093BB0018C0F4
:101A0000E091F00581E08E0F8093F0058091BB009E
:101A1000F0E0EE50FA4F80832091F00530E08091A5
:101A2000F10590E001972817390714F485EC0EC0F2
:101A300085E80CC08091EF0581608093EF0584E913
:101A400005C08091B9008093100284E08093BC00AF
:101A5000FF91EF919F918F913F912F910F900BBE2E
:101A60000F900FBE0F901F901895909141019F719C
:101A70009F31D9F38093420108958093FC05089526
:101A800081E0809331090895109231090895809181
:101A900041018F718F31D9F3809141018F71E1F054
:101AA0008F30D1F0809141018F71883031F4809175
:101AB00039018260809339010BC088E00E94350DA6
:101AC000809141018F718830D9F7F1CF8F3021F0AB
:101AD000809141018F71D1F70895809141018F71FB
:101AE0008F31D9F3809141018F7111F08F3051F412
:101AF000809139018D7F80933901809141018F71EF
:101B00008830D9F7089589E00C94350DE5E4F1E0CB
:101B10009081907F908390818F70982B908308950F
:101B2000E7E5F1E080818D7F80830895E7E5F1E0CE
:101B30008081826080830895EEE6F1E080818F7E6F
:101B400080830895EEE6F1E08081806180830895CE
:101B5000809360019093610190933B0980933A09CF
:101B600008959093350980933409E8E4F1E0808189
:101B7000807E80838081682B608308959093000627
:101B80008093FF0508959093FE058093FD050895C9
:101B90000F931F93CF93DF93FC01D90180E28093D1
:101BA000440180EC8093450160626093480185ECBC
:101BB0008093490187EA80934B0180E880934C0130
:101BC00020936001B09361014093620150936301DF
:101BD000C6E4D1E00881888198812881302F329530
:101BE0003695377060E4369F800111242295269542
:101BF0002370622F602B82958695837070E1879F9A
:101C000090011124262B92959695937084E0989FCD
:101C1000B0011124622B60936D01888198819295A7
:101C200096959370392F3064982F92959670932BD8
:101C300090936E0110926C018FEF80934E01C4E37C
:101C4000D9E0F983E8831A821B825D834C83BF83CA
:101C5000AE83188681E080934E0910926509109238
:101C60003D0910923109DF91CF911F910F91089595
:101C700086E10C94350D86E10C94350D88E00E94C8
:101C8000350D1092650908950F931F93CF93DF933D
:101C9000FC0180914E09811102C08FEFABC02681FB
:101CA000809136098F5F8093360990918101907EF3
:101CB000916020FB95F99F7390649093810188E86F
:101CC0008093820180913109882361F08FEF8093A6
:101CD00083018AEA9AEA90938901809388018FEFC1
:101CE0009FEF10C08091360980938301209161019C
:101CF0008091600190E0922B9093890180938801FC
:101D00008081918190938701809386012091630166
:101D10008091620190E0922B9093850180938401E1
:101D20008F014281552747FD5095638174818AE870
:101D300091E00E947833F8018281855F8093800171
:101D400080914101D82FDF719FEF9D0F9230C0F33A
:101D5000D131B1F3D231A1F3DF3191F398EF9D0F7F
:101D6000923020F08F70863009F097CF86E10E9484
:101D7000350DF801858181110BC089E00E94350D78
:101D8000F8018681882391F089E10E94350D0EC00B
:101D9000809148018068809348018091410187FFCC
:101DA000FCCF8091410186FF78CFE7CF10923D09AB
:101DB00082E00E94350D80E090E020913D092111E4
:101DC00005C00196883EFDEF9F07B9F7F80126810F
:101DD000222331F02091420122952695277029F483
:101DE000883E9D4F11F0C1E001C0CFEF8D2F0E94C2
:101DF000350D8C2FDF91CF911F910F910895109287
:101E00003D0982E00E94350D88EE9DEF20913D094D
:101E1000211104C00197D1F78FEF089581E0089553
:101E2000CF93DF9380914E09882341F18091410146
:101E3000C82FCF719FEF9C0F9230C0F3C131B1F327
:101E4000C231A1F3CF3191F3C83019F08F708630D1
:101E5000A9F486E10E94350D809148018068809345
:101E600048018091410187FFFCCFD09141018C2F27
:101E70000E94350DD6FB882780F901C08FEFDF91D6
:101E8000CF91089580914E09882309F4E3C0809191
:101E90006509882309F4DCC080917B01E091340955
:101EA000F091350990E002972481332727FD309582
:101EB000281739070CF4CEC0E0913409F0913509A8
:101EC000809182018083E0913409F09135098091FD
:101ED00087019091880192838183E0913409F09188
:101EE000350980917B018B508383A0913409B09197
:101EF0003509E0913409F091350913969C9184815C
:101F000089173CF0E0913409F0913509838187FF0E
:101F10000DC01092650980914C018F7780934C0120
:101F200080914C01806880934C0194C0A091340949
:101F3000B0913509E0913409F091350913964C912F
:101F4000552747FD509569E871E0858196810E948B
:101F500078338091FC05882309F43EC0E091340970
:101F6000F091350983818031B9F5E0913409F09120
:101F700035096581768144E050E081E192E00E947C
:101F80008133892B49F5E0913409F0913509658158
:101F9000768140E150E081E192E00E948133892B1B
:101FA000D9F49DE088E10FB6F894A895809360007D
:101FB0000FBE9093600080E090E00E94F81581E0F1
:101FC00090E00E94F81582E090E00E94F81583E00E
:101FD00090E00E94F815FFCFE0913409F0913509A7
:101FE0008091800185FB882780F98783E0913409FF
:101FF000F0913509809147018087E0913409F09193
:102000003509809146018695869586958187E09170
:102010003409F0913509809147018287A0913409F4
:10202000B0913509E0917B01F0E0E058FE4F8081EE
:102030001B968C931092650980914C018F77809349
:102040004C0180914C01806880934C0181E008959F
:1020500080E008958FEF08951F920F920FB60F92B0
:1020600011248F9380E880934F018F910F900FBEC2
:102070000F901F9018951F920F920FB60F92112478
:102080008F9381E080933D0980E480934F018F918D
:102090000F900FBE0F901F9018951F920F920FB6C2
:1020A0000F9211248F9380E280934F018F910F90B4
:1020B0000FBE0F901F9018951F920F920FB60F92A0
:1020C00011248F9380E180934F018F910F900FBE69
:1020D0000F901F9018951F920F920FB60F92112418
:1020E0000BB60F922F933F934F935F936F937F9312
:1020F0008F939F93AF93BF93EF93FF9384E080936D
:102100004F01E091FF05F0910006309709F0099525
:10211000FF91EF91BF91AF919F918F917F916F91BF
:102120005F914F913F912F910F900BBE0F900FBE7B
:102130000F901F9018951F920F920FB60F921124B7
:102140008F9382E080934F018F910F900FBE0F907D
:102150001F9018951F920F920FB60F9211248F9314
:1021600081E080934F018F910F900FBE0F901F90D1
:102170001895E9E4F1E09081907F908390818F70D1
:10218000982B908308958FEF0895089508950895EA
:102190008FEF089580912F09909130090895089547
:1021A00081E0089581E0089581E0089508950895FB
:1021B00008950895089508950895089598988DB103
:1021C000806E8DB98EB1806A8EB9089598988DB160
:1021D000806E8DB98EB180668EB90895CF92DF92F0
:1021E000EF92FF920F931F93CF93DF93CDB7DEB79C
:1021F00027970FB6F894DEBF0FBECDBF0E9415170C
:10220000E0913409F0913509C080D380E580F680F3
:1022100000850E94420F18161CF080EA92E006C06A
:10222000F7011081111107C08FEB92E00E942C344E
:102230000E94171731C0153021F48AE090E00E9407
:102240002634C70101969F938F93802F992787FD8E
:1022500090959F930F931F921F931F92CF9281EEA1
:1022600092E09F938F930E941234FD82EC82115072
:10227000F7011083DB821E821F828FEF9FEF9A830C
:1022800089830E941717CE0101960E94440E0FB653
:10229000F894DEBF0FBECDBF27960FB6F894DEBF11
:1022A0000FBECDBFDF91CF911F910F91FF90EF90A7
:1022B000DF90CF9008951F920F920FB60F921124C6
:1022C0000BB60F922F933F934F935F936F937F9330
:1022D0008F939F93AF93BF93EF93FF9380E0909181
:1022E0007B01891710F48F5FFACF8091460187FF39
:1022F00004C081E08093650904C08AE093E00E94F5
:102300002C3488E080934F018091460187FF05C0FF
:102310008091310981110E94EE10E091FD05F0914C
:10232000FE05309709F00995FF91EF91BF91AF91AC
:102330009F918F917F916F915F914F913F912F91DD
:102340000F900BBE0F900FBE0F901F901895AEE32D
:10235000B9E0FC01409620812D93219120933F010B
:10236000E817F907C1F780E110923E018150E1F7CB
:1023700080E880933C0180913D0180FFFCCFEFE439
:10238000F9E080E18E0F90913F0191938E13FBCF86
:102390000895CF93DF93DC01662309F445C0862FAF
:1023A0008F7009F041C0EEE3F9E090E19E0F2191BA
:1023B00020933F019E13FBCF90E070E0E0E240E10C
:1023C000949F90011124261737077CF5911103C0C3
:1023D00010923C0102C0E0933C0140E050E02A0F23
:1023E0003B1FE901C40FD51FF881F0933E014F5FF9
:1023F0005F4F40315105A9F740913C01406840933F
:102400003C0140913D0140FFFCCF40E050E0F091A5
:102410003E01E901C40FD51FF8834F5F5F4F403184
:102420005105A9F79F5FCBCF81E0DF91CF91089550
:102430000F931F93CF93DF93DC01613009F458C0F1
:10244000862F8F7009F054C0EFE4F9E090E19E0F01
:10245000219120933F019E13FBCF62956F706150D5
:1024600078E06F3F09F445C070933C01462F552733
:1024700047FD509520E030E0ED0190E16902C00D8C
:10248000D11D1124FE01E20FF31F908190933E01B4
:102490002F5F3F4F20313105A9F790913C019068A3
:1024A00090933C0190913D0190FFFCCF4150510928
:1024B00094E0440F551F9A95E1F720E030E09091A9
:1024C0003E018E01020F131FF8019083662349F02D
:1024D000F901E40FF51FEA0FFB1FE0819E27F801C9
:1024E00090832F5F3F4F2031310549F76150B9CFBD
:1024F00081E0DF91CF911F910F9108958091C000ED
:1025000087FFFCCF8091C0008F778093C0008091BF
:10251000C60008959091C00095FFFCCF9091C00037
:102520009F7D9093C0008093C60008958FEF08951B
:10253000813019F48091C80004C0811106C08091D7
:10254000C000881F8827881F089580E00895CF93D2
:10255000DF93FC012491EC012196222351F060913C
:10256000580A7091590A822F90E00E94DA33CE0106
:10257000F0CFDF91CF91089586E084B985B988EFD7
:102580008AB980EF8BB982E08DB908950C94BC12A2
:102590008F3F09F46CC0E82FE7704E2F50E04730B2
:1025A000510508F064C0FA01E057FF4F8695869503
:1025B00086950C94583342B121E030E0B90102C055
:1025C000660F771F8A95E2F7CB01842B82B94DC045
:1025D00045B121E030E0B90102C0660F771F8A954E
:1025E000E2F7CB01842B85B940C048B121E030E04F
:1025F000B90102C0660F771F8A95E2F7CB01842BE1
:1026000088B933C04BB121E030E0B90102C0660F98
:10261000771F8A95E2F7CB01842B8BB926C04EB188
:1026200021E030E0B90102C0660F771F8A95E2F71A
:10263000CB01842B8EB919C041B321E030E0B90140
:1026400002C0660F771F8A95E2F7CB01842B81BB0E
:102650000CC044B321E030E0B90102C0660F771F1F
:102660008A95E2F7CB01842B84BB81E008958FEF3C
:1026700008958F3F09F473C0E82FE7704E2F50E0A4
:102680004730510508F06BC0FA01E956FF4F8695B7
:10269000869586950C94583342B121E030E0B9011B
:1026A00002C0660F771F8A95E2F7CB0180958423DD
:1026B00082B953C045B121E030E0B90102C0660FD4
:1026C000771F8A95E2F7CB018095842385B945C0B1
:1026D00048B121E030E0B90102C0660F771F8A954A
:1026E000E2F7CB018095842388B937C04BB121E054
:1026F00030E0B90102C0660F771F8A95E2F7CB017F
:10270000809584238BB929C04EB121E030E0B90116
:1027100002C0660F771F8A95E2F7CB01809584236C
:102720008EB91BC041B321E030E0B90102C0660F91
:10273000771F8A95E2F7CB018095842381BB0DC07A
:1027400044B321E030E0B90102C0660F771F8A95DB
:10275000E2F7CB018095842384BB81E008958FEF5D
:1027600008958F3F31F1E82FE7704E2F50E047304A
:102770005105F8F4FA01E256FF4F282F26952695C9
:1027800026950C94583390B10BC093B109C096B103
:1027900007C099B105C09CB103C09FB101C092B3FD
:1027A000892F90E002C0959587952A95E2F7817070
:1027B00008958FEF08958F3F09F406C1E82FE77061
:1027C0004E2F50E04730510508F0FEC0FA01EB559E
:1027D000FF4F8695869586950C94583320B130E04E
:1027E000082E02C0359527950A94E2F742B120FDE4
:1027F0000BC021E030E0B90102C0660F771F8A9557
:10280000E2F7CB01842B0BC021E030E0B90102C01C
:10281000660F771F8A95E2F7CB018095842382B9F2
:1028200016C023B130E0082E02C0359527950A94D2
:10283000E2F745B120FD0DC021E030E0B90102C052
:10284000660F771F8A95E2F7CB01842B85B981E06B
:10285000089521E030E0B90102C0660F771F8A9524
:10286000E2F7CB0180958423F1CF26B130E0082E2A
:1028700002C0359527950A94E2F748B120FD0BC0B8
:1028800021E030E0B90102C0660F771F8A95E2F7B8
:10289000CB01842B0BC021E030E0B90102C0660FF0
:1028A000771F8A95E2F7CB018095842388B9CFCF33
:1028B00029B130E0082E02C0359527950A94E2F739
:1028C0004BB120FD0BC021E030E0B90102C0660F22
:1028D000771F8A95E2F7CB01842B0BC021E030E013
:1028E000B90102C0660F771F8A95E2F7CB01809588
:1028F00084238BB9ACCF2CB130E0082E02C03595C3
:1029000027950A94E2F74EB120FD0BC021E030E09C
:10291000B90102C0660F771F8A95E2F7CB01842BBD
:102920000BC021E030E0B90102C0660F771F8A9525
:10293000E2F7CB01809584238EB989CF2FB130E0A7
:10294000082E02C0359527950A94E2F741B320FD81
:102950000BC021E030E0B90102C0660F771F8A95F5
:10296000E2F7CB01842B0BC021E030E0B90102C0BB
:10297000660F771F8A95E2F7CB018095842381BB90
:1029800066CF22B330E0082E02C0359527950A9411
:10299000E2F744B320FD0BC021E030E0B90102C0F2
:1029A000660F771F8A95E2F7CB01842B0BC021E0DD
:1029B00030E0B90102C0660F771F8A95E2F7CB01BC
:1029C0008095842384BB43CF8FEF08958F3F09F414
:1029D000D5C0E82FE7704E2F50E0611167C0473037
:1029E000510508F0CBC0FA01E455FF4F8695869556
:1029F00086950C94583341B121E030E0B90102C012
:102A0000660F771F8A95E2F7CB018095842365C016
:102A100044B121E030E0B90102C0660F771F8A950A
:102A2000E2F7CB018095842365C047B121E030E017
:102A3000B90102C0660F771F8A95E2F7CB01809536
:102A4000842365C04AB121E030E0B90102C0660FBD
:102A5000771F8A95E2F7CB018095842365C04DB13D
:102A600021E030E0B90102C0660F771F8A95E2F7D6
:102A7000CB018095842365C040B321E030E0B901EB
:102A800002C0660F771F8A95E2F7CB0180958423F9
:102A900065C043B321E030E0B90102C0660F771F83
:102AA0008A95E2F7CB018095842365C047305105B4
:102AB00008F064C0FA01ED54FF4F8695869586951F
:102AC0000C94583341B121E030E0B90102C0660FE7
:102AD000771F8A95E2F7CB01842B81B94DC044B1B1
:102AE00021E030E0B90102C0660F771F8A95E2F756
:102AF000CB01842B84B940C047B121E030E0B9015B
:102B000002C0660F771F8A95E2F7CB01842B87B945
:102B100033C04AB121E030E0B90102C0660F771F2F
:102B20008A95E2F7CB01842B8AB926C04DB121E00A
:102B300030E0B90102C0660F771F8A95E2F7CB013A
:102B4000842B8DB919C040B321E030E0B90102C037
:102B5000660F771F8A95E2F7CB01842B80BB0CC0F0
:102B600043B321E030E0B90102C0660F771F8A95B8
:102B7000E2F7CB01842B83BB81E008958FEF0895AA
:102B8000811106C080B18695817091E089270895F2
:102B90008FEF0895009711F483E20DC08130910505
:102BA00011F48BE208C08230910511F483E303C075
:102BB000039729F48BE30E94DB1381E008958FEFE4
:102BC0000895009711F483E20DC08130910511F44E
:102BD0008BE208C08230910511F483E303C00397B0
:102BE00029F48BE30E94C81281E008958FEF0895C5
:102BF000009711F483E20DC08130910511F48BE24E
:102C000008C08230910511F483E303C0039729F4CF
:102C10008BE30E94391381E008958FEF0895882394
:102C200019F085B78F7E02C085B7806185BF81E0CE
:102C300008959091C80095FFFCCF8093CE00089531
:102C40009093C5008093C40086E08093C200E1ECBD
:102C5000F0E080818B7F8083A0ECB0E08C9182607B
:102C60008C9380818861808308959093CD008093B8
:102C7000CC0086E08093CA00E9ECF0E080818B7F95
:102C80008083A8ECB0E08C9182608C938081886115
:102C900080830895CF93DF930E9420166EE772E140
:102CA0008AE892E10E948F33C6E5DAE09B838A834B
:102CB0006EE772E18AE892E10E948F3399838883FC
:102CC000DF91CF9108958091C80087FFFCCF80915C
:102CD000C8008F778093C8008091CE0008950000CF
:102CE0000000000000000197D1F708950C94EA3429
:102CF0000E94F2340895EF92FF920F931F93CF93A7
:102D0000DF937C0180E090E00E94EA34182FF70105
:102D1000838381E090E00E94EA34082FF7018283E8
:102D200082E090E00E94EA34D82FF701818383E0AB
:102D300090E00E94EA34C82FF701808384E090E09D
:102D40000E94EA34100FD10FCD0F8C1711F08FEFC6
:102D500001C081E0DF91CF911F910F91FF90EF9023
:102D60000895CF93DF93EC0185E090E00E94EA3470
:102D7000888381E0DF91CF910895FC01608186E036
:102D800090E00E94F23481E00895CF93DF93EC014C
:102D900086E090E00E94EA34888381E0DF91CF9161
:102DA00008950F931F93CF93DF938C01C0E0D0E081
:102DB000CE0108960E94EA34F80181938F01219692
:102DC000C031D105A9F781E0DF91CF911F910F911B
:102DD00008950F931F93CF93DF938C01C0E0D0E051
:102DE000F80161918F01CE0108960E94F23421967C
:102DF000C031D105A9F781E0DF91CF911F910F91EB
:102E00000895CF93DF93EC0187E090E00E94EA34CD
:102E1000888381E0DF91CF910895FC01608187E094
:102E200090E00E94F23481E00895F8940895789437
:102E300008950E941517FFCFCF93DF93CDB7DEB76C
:102E4000A3970FB6F894DEBF0FBECDBF0E944E1FF2
:102E50008093F5098F3F21F460E08EE00E94961D7B
:102E60000E94312E80FF04C060E086E00E94961D23
:102E70000E9448308F3F31F40E942B3060E080E1A7
:102E80000E94961D0E9439301092F8091092060A8D
:102E90001092050A1092F7091092F6091092070A8B
:102EA0000E94DC181092040A8FEF8093EB09809344
:102EB000ED098093EC098093EE098093F0098093EB
:102EC000EF098093F1098093F3098093F20993E667
:102ED000909372098093700990939D0980939B0948
:102EE0009093C8098093C60981E49AE046E45AE0C9
:102EF0005093450A4093440A9093480A8093470AA6
:102F00002BE43AE030934A0A2093490A50934D0A41
:102F100040934C0A40E55AE050934F0A40934E0AC2
:102F20003093520A2093510A1092430A1092420A97
:102F30001092540A1092530A1092FB091092FA0947
:102F400090936709809366096EE478E2CE0101965A
:102F50000E94693040E850E06BEA78E0CE010196CB
:102F60000E946D3085E58093AB0819861C861D860E
:102F70001E861F86188A198A1A8A1B8A1C8A1D8A2D
:102F80001E8A1F8A188E198E1A8E1B8E1C8E1D8EFD
:102F90001E8E1F8E18A219A21AA21BA281E088877A
:102FA00092E09A878B87CE0101960E948323A39695
:102FB0000FB6F894DEBF0FBECDBFDF91CF9108955D
:102FC00000E719E0C0E0F801D080FFEFDF1222C077
:102FD000CF5F055D1F4FC330B1F70E9472222BE215
:102FE0008202C0011124FC01E859F64F82858093CA
:102FF000070AF093060AE093050AF093F709E093B5
:10300000F6098093F8090E94DF300E94C9300E94BF
:10301000E33016C080E7E82E89E0F82ED0E0CD1727
:1030200041F0F7018081D81204C06D2D85E00E9427
:10303000961DDF5FFBE2EF0EF11CD33081F7C8CFA6
:10304000FFCFCF92DF92EF92FF920F931F93CF9318
:10305000DF93EC018B017A018985823021F0809128
:10306000F409888301C018828091F409833020F02C
:1030700060E087E00E94961D8985823029F080916A
:10308000F4098F5F8093F4098091F409811103C0E2
:1030900081E08093F40938812BE23203F00111249E
:1030A000E859F64F1183008388858287388132037F
:1030B000F0011124E859F64F83E08187388132030B
:1030C000F0011124E859F64F30870881020380018E
:1030D00011240859164FF8011582CE010B960E9453
:1030E000E027F80161A372A383A394A38B859C8539
:1030F000AD85BE8588339948A144B10520F068812B
:1031000086E10E94961DC880DD24C7FCD094CE01C4
:103110004B960E94E0271BE21C9DF0011D9DF00DC7
:103120001124E859F64F658B768B878B908F288119
:103130002103C00111249C012859364F6901F9016E
:10314000458956896789708D81A192A1A3A1B4A1F7
:10315000840F951FA61FB71F818F928FA38FB48FE7
:10316000CE0143960E94E027F60165A376A387A3CC
:1031700090A728812103F0011124E859F64F85A179
:1031800096A1A7A1B0A5858F968FA78FB0A381E048
:1031900090E092A781A7F382E2828487DF91CF91AA
:1031A0001F910F91FF90EF90DF90CF9008950C94B6
:1031B000682885E690E008951092D7061092D80608
:1031C0001092D9061092DA061092DB061092DC06F5
:1031D0001092DD061092DE06E2E1F8E080E090E079
:1031E0001082118212821382108611861286138633
:1031F0001482158216821782148615861686178603
:10320000108A118A128A138A108E118E128E138ED2
:10321000DC01AE5EB74F5C961C925C975D961C928B
:103220007E964E968A359105D9F608950F931F9391
:10323000E7EDF6E0A82FB0E023EB36EE4EE050E0ED
:103240000E94A8320481158126813781DC01CB01DF
:10325000800F911FA21FB31F84839583A683B7831A
:10326000CF011F910F910C94AD26E7EDF6E0408160
:10327000518162817381DC014D935D936D937C93E9
:1032800013974481558166817781FC01448355837E
:103290006683778308952EE1829FC0011124FC018B
:1032A000EE5EF74F858D813039F0848D8F5F848F8E
:1032B0008F3F11F481E0858F08952EE1829FC00138
:1032C0001124FC01EE5EF74F858D8130B1F0148A38
:1032D000158A168A178A80899189A289B3890196ED
:1032E000A11DB11D808B918BA28BB38B8E3F9F4F05
:1032F000AF4FBF4F11F481E0858F08950F931F9357
:103300002EE1829FC0011124FC01EE5EF74F858DF6
:10331000813071F1808D918DA28DB38D0196A11DAB
:10332000B11D808F918FA28FB38F462F50E060E048
:1033300070E00489158926893789040F151F261F17
:10334000371F048B158B268B378B008111812281CF
:103350003381400F511F621F731F4083518362836B
:1033600073838E3F9F4FAF4FBF4F11F481E0858F26
:103370001F910F910895CF92DF92EF92FF92282F25
:1033800030E09EE1899FF0011124EE5EF74F858DBC
:10339000813009F44BC0462F50E060E070E0848932
:1033A0009589A689B789840F951FA61FB71F8487A3
:1033B0009587A687B787C080D180E280F3804C0DC7
:1033C0005D1D6E1D7F1D4083518362837383448125
:1033D000558166817781411551056105710529F097
:1033E00084179507A607B70760F44EE1429FF001E6
:1033F000439FF00D1124EE5EF74F84839583A683DF
:10340000B7834EE1429FF001439FF00D1124EE5E21
:10341000F74F4085518562857385481759076A07BC
:103420007B0720F480879187A287B387FF90EF9076
:10343000DF90CF9008958F929F92AF92BF92CF92DC
:10344000DF92EF92FF920F931F93CF93DF93CDB74D
:10345000DEB728970FB6F894DEBF0FBECDBF182F8A
:103460008FE793E00E94A712A12EB12C1F921F9309
:1034700083E293E09F938F930E9412340F900F90FA
:103480000F900F90111152C084E693E00E94A71292
:10349000CE0101960E94C4256D817E818F81988521
:1034A000E0E4CE2EE2E4DE2EEFE0EE2EF12CA701DA
:1034B00096010E94D7325F934F933F932F938C8155
:1034C0008F938B818F938A818F9389818F9306E26B
:1034D00013E01F930F930E94123483E493E00E9441
:1034E000A7126091DB067091DC068091DD06909159
:1034F000DE06A70196010E94D7325F934F933F9358
:103500002F938091DA068F938091D9068F938091C3
:10351000D8068F938091D7068F931F930F930E94A5
:1035200012340FB6F894DEBF0FBECDBF82E393E036
:103530000E94A7128EE18A9D80018B9D100D11249F
:103540000E5E174FF80160817181828193810E9424
:10355000A92729833A834B835C836D837E838F8382
:1035600098876D817E818F81988520E4822E22E468
:10357000922E2FE0A22EB12CA50194010E94D732E9
:103580005F934F933F932F938C818F938B818F9376
:103590008A818F9389818F9336E2E32E33E0F32E75
:1035A000FF92EF920E94123487E193E00E94A712EB
:1035B000F80164817581868197810E94A9272983FA
:1035C0003A834B835C836D837E838F8398876D8181
:1035D0007E818F819885A50194010E94D7325F93E7
:1035E0004F933F932F938C818F938B818F938A81FD
:1035F0008F9389818F9346E3C42E43E0D42EDF92CC
:10360000CF920E941234F80164857585868597856E
:103610000E94A92729833A834B835C836D837E8331
:103620008F8398876D817E818F819885A501940114
:103630000E94D7325F934F933F932F938C818F9348
:103640008B818F938A818F9389818F93DF92CF9221
:103650000E941234F80160857185828593850E94ED
:10366000A92729833A834B835C836D837E838F8371
:1036700098876D817E818F819885A50194010E9434
:10368000D7325F934F933F932F938C818F938B818E
:103690008F938A818F9389818F93FF92EF920E94FB
:1036A00012340FB6F894DEBF0FBECDBF87E093E0B3
:1036B0000E94A712F801709683818F9382818F9365
:1036C00081818F93F80180898F9358E4E52E53E030
:1036D000F52EFF92EF920E94123484EF92E00E9446
:1036E000A712F801789683818F9382818F938181CD
:1036F0008F93F801808D8F93FF92EF920E94123486
:103700008BED92E00E94A712F801848D1F928F9397
:103710006CE4E62E63E0F62EFF92EF920E941234E4
:103720008EEB92E00E94A712F801858D1F928F9375
:10373000FF92EF920E9412348BEB92E00E94A7124C
:103740000FB6F894DEBF0FBECDBF28960FB6F89423
:10375000DEBF0FBECDBFDF91CF911F910F91FF90C4
:10376000EF90DF90CF90BF90AF909F908F90089593
:103770008EE992E00E94A71280E00E941B1A81E06D
:103780000E941B1A82E00C941B1ADB01833008F0A4
:1037900054C09EE1899FF0011124EE5EF74F4081F5
:1037A0005181628173814D935D936D937C931397E7
:1037B000448155816681778114964D935D936D9315
:1037C0007C931797408551856285738518964D9334
:1037D0005D936D937C931B974485558566857785AE
:1037E0001C964D935D936D937C931F9740895189EF
:1037F0006289738950964D935D936D937C93539733
:10380000448955896689778954964D935D936D9364
:103810007C935797408D518D628D738D58964D9343
:103820005D936D937C935B97848D5C968C935C9792
:10383000858D5D968C9381E008958FEF0895E091DA
:10384000050AF091060A84870895E091050AF0912F
:10385000060A84850895CF93DF93D82FC62F80E082
:1038600092E00E9476168F5F8F3F19F080930106D9
:1038700002C0109201062091010636E0239FC0018C
:1038800011246D2F8F5F9D4F0E9478168091010645
:1038900046E0849FC00111246C2F8E5F9D4F0E94D3
:1038A0007816209101064091FC095091FD09609124
:1038B000FE097091FF09672F77278827992746E02F
:1038C000249F90011124C9018D5F9D4F0E9478169D
:1038D000209101064091FC095091FD096091FE097B
:1038E0007091FF098827992746E0249F90011124B1
:1038F000C9018C5F9D4F0E9478162091010640916E
:10390000FC095091FD096091FE097091FF0999270A
:10391000872F762F652F46E0249F90011124C9013F
:103920008B5F9D4F0E9478168091010626E0829F52
:10393000C00111246091FC098A5F9D4F0E94781696
:103940006091010680E092E0DF91CF910C947816AF
:10395000FC018091A808882331F0DB018C938091D1
:10396000A506808381E008958091A808882309F442
:1039700083C086EB95E00E94A7128091A5061F9256
:103980008F9383E293E09F938F930E94123482EB94
:1039900095E00E94A7120F900F900F900F908091CA
:1039A000A808883110F01092A808E091A8088E2F7E
:1039B00090E0FC013197E631F10508F046C0E6548D
:1039C000FF4F0C94583386E795E041C08FE495E0B3
:1039D0003EC08BE395E03BC085E295E038C08AE0CD
:1039E00095E035C084EF94E032C08CED94E02FC0B8
:1039F00089EC94E02CC086EB94E029C088E994E03F
:103A000026C083E794E023C087E694E020C08CE4DE
:103A100094E01DC08DE394E01AC089E294E017C0E1
:103A200088E194E014C084E094E011C084EE93E057
:103A30000EC08CEC93E00BC081EB93E008C080EAF1
:103A400093E005C081E993E002C08AE893E00E9418
:103A5000A7126091580A7091590A8DE090E00E9477
:103A6000DA336091580A7091590A8AE090E00E9416
:103A7000DA338091A808089580E0089513BC10926D
:103A8000B60018BC17BC16BC15BC14BC1DBA1CBAB9
:103A90001BBA10929B0010929A00109299001092FB
:103AA000980010929500109294001092910010923C
:103AB000900018BA109271001092B4001092B300E6
:103AC0001092B2001092B100E0EBF0E01082108290
:103AD00017BA109270008FEF84BF08950E941517D7
:103AE0000E942B308091A808803171F08351823080
:103AF00058F00E943E1D82EC95E00E94A7120E94A1
:103B000039300E941517FFCF1092A80808958093AE
:103B1000A808E091050AF091060A60856093A50661
:103B20000E942B1C0E94B41C0C946E1D8093A8084C
:103B30006093A5060E942B1C0E94B41C0C946E1D61
:103B4000CF93DF931F92CDB7DEB719828981843678
:103B500040F480ED97E00E94672C89818F5F898314
:103B6000F5CF0F90DF91CF91089580E090E00E9413
:103B7000F8150E94A01D0E94A01D0E94A01D80E0BB
:103B800090E00E94E1150C94A01D80E090E00E945E
:103B9000F8150E94A01D80E090E00E94E1150C94B1
:103BA000A01DFF920F931F93CF93DF9300D01F921E
:103BB000CDB7DEB71F928F9383E293E09F938F93ED
:103BC0008E010F5F1F4F1F930F930E945C340F9065
:103BD0000F900F900F900F900F90F12CF801019023
:103BE0000020E9F73197E01BF10B8F2D90E08E1745
:103BF0009F0708F05DC0F801E80FF91FE0818E2FE4
:103C000090E0FC01F097EA30F10508F049C0E0537C
:103C1000FF4F0C9458330E94B51D02C00E94C51D71
:103C20000E94B51D0E94B51D0E94B51D0E94B51DC4
:103C300037C00E94C51D0E94C51DF4CF0E94C51D3E
:103C40000E94C51D0E94C51DEFCF0E94C51D0E9488
:103C5000C51D0E94C51D0E94C51DE8CF0E94C51D3F
:103C600002C00E94B51D0E94C51D04C00E94B51D62
:103C70000E94B51D0E94C51D06C00E94B51D0E9470
:103C8000B51D0E94B51D0E94C51D08C00E94B51D2E
:103C90000E94B51D0E94B51D0E94B51D0E94C51D44
:103CA0000E94A01D0E94A01D0E94A01DF39496CF0B
:103CB0000F900F900F90DF91CF911F910F91FF9078
:103CC00008956F927F928F929F92AF92BF92CF9200
:103CD000DF92EF92FF920F931F93CF93DF9382EDCA
:103CE00095E00E94A712E091050AF091060A8085EE
:103CF000282F332727FD30953F938F938FE493E050
:103D00009F938F930E941234E091050AF091060A66
:103D1000C281D381DF93CF9383E893E09F938F9306
:103D20000E94123488811F928F9388E593E09F93BD
:103D30008F930E941234E091050AF091060A818166
:103D40008F9380818F9385E693E09F938F930E945A
:103D500012348091060A8F938091050A8F938FE623
:103D600093E09F938F930E941234C8E6D9E0EDB799
:103D7000FEB774960FB6F894FEBF0FBEEDBF00E01D
:103D800010E08FE7682E83E0782E98E5892E93E087
:103D9000992E25E6A22E23E0B22E3FE6C32E33E075
:103DA000D32EEA80FB80FF92EF921F930F937F92B6
:103DB0006F920E941234F70180811F928F939F921D
:103DC0008F920E94123489818F9388818F93BF9242
:103DD000AF920E941234DF93CF93DF92CF920E9472
:103DE00012340F5F1F4FAB96EDB7FEB772960FB64A
:103DF000F894FEBF0FBEEDBF0330110591F6DF91C1
:103E0000CF911F910F91FF90EF90DF90CF90BF90D7
:103E1000AF909F908F907F906F900895CF93DF9396
:103E2000E091050AF091060AC281D3818881853527
:103E300039F00E94611E81E00E94871D85E588831C
:103E4000E091050AF091060A8081918181159244E2
:103E500038F00E94611E82E1DF91CF910C94871DA2
:103E6000DF91CF9108952BE28202C0011124FC0161
:103E7000E859F64FA281B3818C91853519F085E51B
:103E80008C9308C0808191818115924428F082E151
:103E90000E94871D8FEF089581E008950F931F936F
:103EA0004091E1065091E2066091E3067091E406CC
:103EB00080E090E08A019B01082E04C0369527958A
:103EC000179507950A94D2F700FD19C001E010E09C
:103ED00020E030E0082E04C0000F111F221F331F06
:103EE0000A94D2F7402B512B622B732B4093E1069F
:103EF0005093E2066093E3067093E40605C00196D2
:103F000080329105B9F68FEF1F910F910895E091DE
:103F1000050AF091060A658576858785908908955A
:103F2000CF92DF92EF92FF920F931F93CF93DF9385
:103F3000C12CD12C7601C394082E04C0CC0CDD1CFE
:103F4000EE1CFF1C0A94D2F74091E1065091E20664
:103F50006091E3067091E4064C215D216E217F2182
:103F6000452B462B472B09F460C0082F0E941517DC
:103F7000E1E7F9E0B701A60140955095609570958D
:103F800013E0DF0111978C918F3F39F18481958186
:103F9000A681B7818C159D05AE05BF0551F410862D
:103FA0001186128613869F0122503109E901188279
:103FB000108384239523A623B72384839583A68324
:103FC000B78380859185A285B38584239523A62315
:103FD000B72380879187A287B387BB96D9E0E23F5A
:103FE000FD0779F68EEF9FEFAFEFBFEF04C0880FAC
:103FF000991FAA1FBB1F0A95D2F74091E106509165
:10400000E2066091E3067091E40684239523A623DB
:10401000B7238093E1069093E206A093E306B09362
:10402000E4060E94171781E001C08FEFDF91CF9166
:104030001F910F91FF90EF90DF90CF9008950F9315
:104040001F9341E050E060E070E08A019B0104C0F2
:10405000000F111F221F331F8A95D2F7D901C80103
:10406000E091050AF091060A4585568567857089B5
:104070000423152326233723012B022B032BD1F0F6
:1040800080959095A095B095482359236A237B236A
:10409000458756876787708B418952896389748900
:1040A00084239523A623B723818B928BA38BB48B78
:1040B00081E001C08FEF1F910F910895282F40914B
:1040C000E1065091E2066091E3067091E406082E45
:1040D00004C076956795579547950A94D2F740FFA7
:1040E0001DC0E091050AF091060A81E090E0A0E091
:1040F000B0E004C0880F991FAA1FBB1F2A95D2F7F2
:104100004585568567857089842B952BA62BB72B03
:1041100085879687A787B08B81E008958FEF0895F4
:10412000CF92DF92EF92FF92CF93C12CD12C7601E8
:10413000C39404C0CC0CDD1CEE1CFF1C8A95D2F786
:104140008091E1069091E206A091E306B091E40629
:104150008C219D21AE21BF21892B8A2B8B2B11F421
:1041600081E044C00E941517EFE6F9E0A1E7B9E04D
:10417000C0E083E090819130B9F442855385648535
:1041800075854C215D216E217F21452B462B472BC8
:1041900059F08C9316861786108A118A1082C2866F
:1041A000D386E486F586C1E090819230A1F4428501
:1041B0005385648575854C155D056E057F0559F43D
:1041C0008C9316861786108A118A1082128613869F
:1041D00014861586C1E0BB969B9699E0E03FF907EF
:1041E00049F60E941717C11105C082E00E941F1CEA
:1041F0008FEF01C081E0CF91FF90EF90DF90CF90E3
:1042000008950F931F93E091050AF091060A058522
:10421000168527853089062317232823392301157E
:1042200011052105310511F1DC01CB01818B928B48
:10423000A38BB48B21E027830090F50904C0B695C9
:10424000A795979587950A94D2F780FF03C00E949F
:10425000EB2404C080E090E00E94BC24E091050AB9
:10426000F091060A0189128923893489C901B801AC
:104270001F910F9108959091040A923018F52091A2
:10428000EB092F3F51F02091EE092F3F41F0209193
:10429000F1092F3F31F4E2E005C0E0E003C0E1E0C6
:1042A00001C0E3E0F0E09F01220F331FE20FF31F94
:1042B000E551F64F8283808361839F5F9093040A68
:1042C000CF01089580E090E0089529E08B3E9207A9
:1042D00049F029E08E3E920739F0815F994031F430
:1042E00082E0089580E0089581E008958FEF0895B9
:1042F0000E9465218F3F11F481E003C0833029F4CF
:1043000082E00E941F1C8FEF0895992787FD9095EA
:10431000FC01EE0FFF1F8E0F9F1FFC01E551F64FB2
:1043200082810895EF92FF920F931F93CF93DF93B3
:104330001F92CDB7DEB70E9465218F3F11F481E057
:1043400003C0833029F482E00E941F1C8FEF41C01C
:1043500089830E9415178981E82EFF24E7FCF094D9
:104360008701000F111FF801EE0DFF1DE551F64FFB
:104370009281911116C0E091050AF091060A978189
:1043800092609783992787FD9095A92FB92F818BEC
:10439000928BA38BB48B0E94171780E090E00E9451
:1043A000BC240E0D1F1DD801A551B64F12968C913D
:1043B0001297815012968C931297E091050AF09112
:1043C000060A11968C91838781E084830E941717D7
:1043D00081E00F90DF91CF911F910F91FF90EF90AF
:1043E00008950F931F93CF93DF931F92CDB7DEB73E
:1043F0000E9465218F3F11F481E003C0833029F4CE
:1044000082E00E941F1C8FEF44C0482F552747FDB4
:1044100050959A01220F331F240F351F8901055132
:10442000164FF80122819081291794F589830E9403
:104430001517F80192819F5F9283E091050AF09130
:10444000060A1482EFE6F9E08981992787FD9095A5
:10445000A92FB92F23E03081323099F4428553855A
:1044600064857585481759076A077B0751F42283CD
:1044700016861786108A118A108212861386148671
:104480001586BB9639E0E03FF30729F70E9417171E
:1044900081E00F90DF91CF911F910F9108950E94BD
:1044A00065218F3F11F481E003C0833029F482E05D
:1044B0000E941F1C8FEF0895992787FD9095FC019E
:1044C000EE0FFF1F8E0F9F1FFC01E551F64F8FEF80
:1044D0008083828381838091040A81508093040ABF
:1044E00081E00895E091FA09F091FB098081089537
:1044F000E091FA09F091FB09309721F00380F481F3
:10450000E02DFACF0895AF92BF92CF92DF92EF9253
:10451000FF920F931F93CF93DF93E0916609F09181
:104520006709309709F494C00091FA091091FB09CA
:104530000115110509F44CC0D8014BE2582F540362
:10454000900111242859364F79019AE0E90EF11CA7
:104550006901C4E0CC0ED11C5901DBE0AD0EB11CE9
:104560002C9130E0429FB001439F700D1124685997
:10457000764FEB019C81992329F05B85E7019881B7
:10458000591740F1E6019881992369F0429FB001E3
:10459000439F700D11246859764FEB015A85E50150
:1045A00098815917B8F0429FB001439F700D1124B4
:1045B0009B012859364FE9012A85E701988129177F
:1045C00048F013960D90BC91A02D109749F602C0AB
:1045D000A0E0B0E08083C381D481D0936709C09309
:1045E0006609A017B107B1F4109749F0B483A3830B
:1045F000128211821296FC93EE93119706C01482D8
:10460000138212821182FA83E983F093FB09E0930B
:10461000FA091EC0AC17BD0779F011968D919C91D7
:10462000129792838183B483A3831196CD91DC91F9
:104630001297FC83EB8308C01482138211968D912C
:104640009C911297928381831296FC93EE9311971B
:10465000DF91CF911F910F91FF90EF90DF90CF905E
:10466000BF90AF900895CF93DF93E091FA09F09156
:10467000FB09309709F444C0992787FD9095208164
:1046800030E02817390781F4A381B481B093FB0986
:10469000A093FA0912961C921E92119718C00380DB
:1046A000F481E02D309761F1208130E0281739073F
:1046B000B1F7C181D281838194819C838B83A38153
:1046C000B481109721F01296DC93CE931197A091AC
:1046D0006609B0916709109739F4F0936709E09380
:1046E0006609148213820AC0B483A3831296FC93D2
:1046F000EE931197F0936709E09366091282118295
:10470000DF91CF910895EF92FF920F931F93CF9374
:10471000DF93EC014B815C8169817A818D819E817F
:104720000E948B302F81222371F04B815C81E12C20
:10473000F12C00E010E020E030E0BC01CE010E944E
:1047400021181F820CC0E8812BE2E202F001112443
:10475000E859F64F21852330B9F491838083E881AD
:104760008BE2E802F0011124E859F64F8589968919
:10477000A789B08D892B8A2B8B2B41F482E081870E
:1047800088810E94832202C08FEF01C081E0DF9107
:10479000CF911F910F91FF90EF9008951F93CF93AA
:1047A000DF93CDB7DEB728970FB6F894DEBF0FBE04
:1047B000CDBF29833A834B835C836D837E838F8354
:1047C00098870E9415170E94B52D182FCE010196CB
:1047D0000E94E0276330710598F0E091050AF0919E
:1047E000060A212F30E0620F731FCB01A0E0B0E07A
:1047F000858B968BA78BB08F0E94171781E001C025
:104800008FEF28960FB6F894DEBF0FBECDBFDF91B5
:10481000CF911F9108950E945E30E091050AF091BA
:10482000060A85818111F7CF0895CF930E940E1F4C
:104830000E941517E091050AF091060A81E090E0C8
:1048400092A781A785830E94B52DC82F883F80F449
:104850000E944F2D2C2F30E02F5F3F4F90E0281704
:10486000390734F482E08C0F809311080E94532D95
:104870000E9417170E940B2481E0CF910895E091C8
:10488000050AF091060A80850E943323E091050A0B
:10489000F091060A84E081870E94152481E0089542
:1048A000CF93DF93EC010E940E1F209711F4C1E01B
:1048B000D0E00E941517E091050AF091060A81E008
:1048C0008583D2A7C1A70E94B52DC82F883F80F449
:1048D0000E944F2D2C2F30E02F5F3F4F90E0281784
:1048E000390734F482E08C0F809311080E94532D15
:1048F0000E9417170E940B2481E0DF91CF91089549
:10490000EF92FF920F931F93CF938C010E94151784
:10491000E091050AF091060A81E085830E94B52D99
:10492000C82FE091050AF091060AE82EF12CC70184
:10493000800F911FA0E0B0E0858B968BA78BB08F86
:10494000C83F78F40E944F2D9FEFE91AF90A90E0D2
:10495000E816F90634F482E08C0F809311080E9467
:10496000532D0E9417170E940B2481E0CF911F91B5
:104970000F91FF90EF900895CF93DF93EC010E9489
:104980001517E091050AF091060A21E02583CE0172
:10499000A0E0B0E0858B968BA78BB08F0E94B52DE1
:1049A000C82F883F80F40E944F2D2C2F30E02F5FBE
:1049B0003F4F90E02817390734F482E08C0F809342
:1049C00011080E94532D0E9417170E940B2481E0AA
:1049D000DF91CF910895CF930E941517E091050ABA
:1049E000F091060A81E0858386830E94B52DC82F49
:1049F000883F80F40E944F2D2C2F30E02F5F3F4FD7
:104A000090E02817390734F482E08C0F8093110866
:104A10000E94532D0E9417170E940B2481E0CF9112
:104A200008951F93CF93DF93CDB7DEB728970FB6C6
:104A3000F894DEBF0FBECDBF29833A834B835C83DE
:104A40006D837E838F8398870E940E1F0E941517A7
:104A5000E091050AF091060A81E0858381E090E00B
:104A600092A781A70E94B52D182FCE0101960E9412
:104A7000E027E091050AF091060ADC01CB01810FE5
:104A8000911DA11DB11D858B968BA78BB08F183FF3
:104A900080F40E944F2D212F30E02F5F3F4F90E098
:104AA0002817390734F482E0810F809311080E949F
:104AB000532D0E9417170E940B2481E028960FB6F1
:104AC000F894DEBF0FBECDBFDF91CF911F91089547
:104AD0008F929F92AF92BF92CF92DF92EF92FF920E
:104AE0000F931F93CF93DF93CDB7DEB760970FB6C9
:104AF000F894DEBF0FBECDBF29873A874B875C870E
:104B00006D877E878F87988BCE0101960E94C42582
:104B100089809A80AB80BC80CD80DE80EF80F88475
:104B200009851A852B853C854D855E856F8578893D
:104B3000CE0109960E9421268F3F61F029853A8592
:104B40004B855C856D857E858F8598890E941125B2
:104B500081E001C08FEF60960FB6F894DEBF0FBE04
:104B6000CDBFDF91CF911F910F91FF90EF90DF901C
:104B7000CF90BF90AF909F908F900895E091050ADD
:104B8000F091060A808508950F931F93CF93DF93CA
:104B9000EC011C821D821E821F828091FC09909173
:104BA000FD09A091FE09B091FF0988839983AA832A
:104BB000BB838091000A9091010AA091020AB091F2
:104BC000030A8C839D83AE83BF830E94B52DA82FDB
:104BD000B0E023EB36EE4EE050E00E94A8320C81AC
:104BE0001D812E813F81DC01CB01800F911FA21F0F
:104BF000B31F8C839D83AE83BF838C819D81AE81E7
:104C0000BF8181152AEC92072AE9A2072BE3B2079C
:104C100098F09A5CAA49BB438C839D83AE83BF8383
:104C200088819981AA81BB810196A11DB11D8883CC
:104C30009983AA83BB83E1CFDF91CF911F910F911D
:104C400008958F929F92AF92BF92CF92DF92EF9290
:104C5000FF920F931F93CF93DF93CDB7DEB760978B
:104C60000FB6F894DEBF0FBECDBFFC0109831A83D7
:104C70002B833C834D835E836F83788789869A86F6
:104C8000AB86BC86CD86DE86EF86F88A09811A81DE
:104C90002B813C814D815E816F817885C984DA8466
:104CA000EB84FC848D859E85AF85B8890C151D0528
:104CB0002E053F05F0F1C016D106E206F30691F489
:104CC000481759076A077B07A0F1481B590B6A0B65
:104CD0007B0B448355836683778310821182128213
:104CE000138225C0481759076A077B0780F40150D3
:104CF0001109210931090C191D092E093F090083E9
:104D000011832283338356536546744C08C00C19B3
:104D10001D092E093F090083118322833383481B19
:104D2000590B6A0B7B0B448355836683778381E041
:104D300001C08FEF60960FB6F894DEBF0FBECDBFF7
:104D4000DF91CF911F910F91FF90EF90DF90CF9067
:104D5000BF90AF909F908F900895FC014481558142
:104D60006681778141158AEC58078AE968078BE3E9
:104D7000780798F05A5C6A497B434483558366837D
:104D8000778380819181A281B3810196A11DB11D9C
:104D900080839183A283B383E1CF08958F929F9202
:104DA000AF92BF92CF92DF92EF92FF920F931F9339
:104DB000CF93DF93CDB7DEB760970FB6F894DEBF21
:104DC0000FBECDBF09831A832B833C834D835E8343
:104DD0006F83788789869A86AB86BC86CD86DE8689
:104DE000EF86F88A09851A852B853C8549815A8189
:104DF0006B817C81400F511F621F731FFC01408338
:104E00005183628373830D851E852F8538894D817B
:104E10005E816F817885400F511F621F731F44832D
:104E20005583668377830E94AD2681E060960FB636
:104E3000F894DEBF0FBECDBFDF91CF911F910F91D0
:104E4000FF90EF90DF90CF90BF90AF909F908F90AA
:104E50000895ECEFF9E06083718382839383248368
:104E600035834683578308952F923F924F925F92E6
:104E70006F927F928F929F92AF92BF92CF92DF926A
:104E8000EF92FF920F931F93FC01C080D180E280CC
:104E9000F380C114D104E104F104E1F1848195812E
:104EA000A681B78122E4C216D104E104F104F0F531
:104EB0001C012D01612C712C4301E0E08E2F90E04C
:104EC000A0E0B0E08C159D05AE05BF0588F491010A
:104ED000A201B301C40136534546544C6F4F7F4F76
:104EE0008F4F9F4F19012A013B014C01EF5FE6CF25
:104EF00083EBA82E96EEB92E2EE0C22ED12CE12CFB
:104F0000F12C00E010E09101A201B301C4010E9464
:104F1000FB320AC0648175818681978123EB36EE6E
:104F20004EE050E00E94D732C90102C080E090E01C
:104F30001F910F91FF90EF90DF90CF90BF90AF90B7
:104F40009F908F907F906F905F904F903F902F90A9
:104F50000895CF92DF92EF92FF92CF93DF93CDB778
:104F6000DEB728970FB6F894DEBF0FBECDBF6B013A
:104F70007C012AE0F694E794D794C7942A95D1F758
:104F8000C982DA82EB82FC829B01AC013370442738
:104F9000552763EB76EE8EE090E00E94B3322C2D25
:104FA0003A814B815C8128960FB6F894DEBF0FBE24
:104FB000CDBFDF91CF91FF90EF90DF90CF9008951C
:104FC0002F923F924F925F926F927F928F929F9219
:104FD000AF92BF92CF92DF92EF92FF920F931F9307
:104FE000FC01C080D180E280F380C114D104E104CF
:104FF000F104B9F184819581A681B7811C012D014D
:10500000612C712C4301E0E08E2F90E0A0E0B0E035
:105010008C159D05AE05BF0588F49101A201B30171
:10502000C40136534546544C6F4F7F4F8F4F9F4FAF
:1050300019012A013B014C01EF5FE6CF83EBA82E5B
:1050400096EEB92E2EE0C22ED12CE12CF12C00E0F0
:1050500010E09101A201B301C4010E94FB32CA0118
:105060000BC0648175818681978123EB36EE4EE01B
:1050700050E00E94D732CA01B9011F910F91FF90F1
:10508000EF90DF90CF90BF90AF909F908F907F90E8
:105090006F905F904F903F902F900895C1E00E94D5
:1050A0000E1F0E944F2D843010F4C093F9090E9406
:1050B0005E308091AB08853519F088E00E94871D2D
:1050C0008091FE40853559F388E00E94871DE7CF27
:1050D0002F923F924F925F926F927F928F929F9208
:1050E000AF92BF92CF92DF92EF92FF920F931F93F6
:1050F000CF93DF930E9417178AEF0E94532D0E94CF
:105100004F300E941D2BC0911108AC2FB0E023EB53
:1051100036EE4EE050E00E94A8320091000A109155
:10512000010A2091020A3091030A6B017C01C00E32
:10513000D11EE21EF31EC701B60123EB36EE4EE090
:1051400050E00E94D732C61AD70AE80AF90AC0927C
:10515000000AD092010AE092020AF092030AE0915A
:10516000050AF091060A8085811130C08091F90905
:10517000823019F48C2F0E941619E091050AF091E3
:10518000060A6091110880850E947E19E091050A47
:10519000F091060A60E080850E94BB198091000AA8
:1051A0009091010AA091020AB091030A0091FC09B2
:1051B0001091FD092091FE093091FF0953EB452E16
:1051C00056EE552E5EE0652E712C07C095816C2F32
:1051D0009111E2CF0E947E19E1CF480159014FEFB2
:1051E000841A940AA40AB40A81155AEC95075AE95C
:1051F000A5075BE3B507C8F06C017D012AECD21A64
:105200002AE9E20A2BE3F20AC701B601A3019201DF
:105210000E94D732A7019601261B370B480B590B6A
:10522000DA01C90195018401D8CF8093000A9093D7
:10523000010AA093020AB093030A0093FC09109399
:10524000FD092093FE093093FF09E091050AF091D2
:10525000060A8581882339F18185843021F187818F
:10526000823029F0882341F08681811102C085E0D7
:1052700001C083E0818714C083E081871782168292
:1052800085899689A789B08D892B8A2B8B2B41F430
:10529000818D928DA38DB48D858B968BA78BB08FCE
:1052A00080850E943323E091050AF091060A85A1CA
:1052B00096A1A7A1B0A5892B8A2B8B2B09F44EC0F0
:1052C0008085882309F44AC09185943009F446C04A
:1052D000458D568D678D70A10091110810E020E07A
:1052E00030E0401751076207730798F40E944B198A
:1052F000E091050AF091060A608582E00E94961D01
:10530000E091050AF091060A158E168E178E10A2EE
:1053100008C0401B510B620B730B458F568F678F74
:1053200070A3E091050AF091060AC085858D968DDF
:10533000A78DB0A1892B8A2B8B2B81F48C2F0E94F7
:105340004B196C2F83E00E94961DE091050AF091A5
:10535000060A83E081878C2F0E943323C1E7D9E0BE
:1053600000E61AEE312C2AEFC22ED12CE12CF12CC2
:1053700032E0232E812C912C54018394FE0131972D
:1053800080818F3F09F4E5C033971082882309F4A8
:105390005BC08881843009F457C04C845D846E847E
:1053A0007F846091110870E080E090E04616570617
:1053B0006806790648F0461A570A680A790A4C8640
:1053C0005D866E867F8604C01C861D861E861F86AF
:1053D000488859886A887B88461657066806790681
:1053E00048F0461A570A680A790A488A598A6A8A26
:1053F0007B8A1AC0288D398D4A8D5B8D62177307A1
:105400008407950758F429013A01461A570A680A91
:10541000790A488A598A6A8A7B8A06C00E94D732EA
:10542000688B798B8A8B9B8B88899989AA89BB89A0
:10543000892B8A2B8B2B41F4888D998DAA8DBB8D5E
:10544000888B998BAA8BBB8B8881833009F081C0B4
:105450008C859D85AE85BF85892B8A2B8B2B09F08A
:1054600067C0DE0112978C91FE013397882391F07B
:105470008081882379F0B501A4010090F50904C06A
:10548000440F551F661F771F0A94D2F74887598724
:105490006A877B871C921082A8A1B9A1A130B105AF
:1054A00009F58C8D9D8DAE8DBF8D8C8B9D8BAE8BBC
:1054B000BF8B288288899989AA89BB898C879D8717
:1054C000AE87BF87888D998DAA8DBB8D892B8A2B3E
:1054D0008B2B21F4CC86DD86EE86FF86832D0E9401
:1054E000832226C04C8D5D8D6E8D7F8D4C8B5D8BA8
:1054F0006E8B7F8B488C598C6A8C7B8C1197A301A7
:1055000092010E94A8326C877D878E879F87688B67
:10551000798B8A8B9B8B45284628472821F4CC869B
:10552000DD86EE86FF8666246394712C79A268A2DC
:105530008C859D85AE85BF850097A105B10549F095
:10554000A80160E070E084179507A607B70708F484
:105550008C013394AB9683E0782E37100FCFE09117
:10556000050AF091060A80850E945D190E94722248
:10557000C82F2BE28202F0011124E859F64F228550
:105580002093070AF093F709E093F6098823D9F0EE
:1055900085A196A1A7A1B0A5892B8A2B8B2B99F069
:1055A000858D968DA78DB0A18A3F9105A105B10586
:1055B00050F4A80160E070E084179507A607B707CC
:1055C00010F48C0105C00B3F110510F00AEF10E03C
:1055D0002093F809F093060AE093050A0093110856
:1055E0000E94B52D282F30E02F5F3F4F2017310745
:1055F00040F00E94B52D082F10E00E5F1F4F009362
:105600001108C1111092F909802F0E94532D0E9498
:10561000D830DF91CF911F910F91FF90EF90DF90E5
:10562000CF90BF90AF909F908F907F906F905F9042
:105630004F903F902F900C94E3303F924F925F92A7
:105640006F927F928F929F92AF92BF92CF92DF9292
:10565000EF92FF920F931F93CF93DF93CDB7DEB7F7
:1056600060970FB6F894DEBF0FBECDBFCE0109968E
:105670000E94C42588E0482E8AE0582E612C712CA7
:1056800093E1392ED20112968C91813051F5369CDE
:10569000F001379CF00D1124ED5EF54F89849A845A
:1056A000AB84BC84CD84DE84EF84F88800811181D2
:1056B000228133814481558166817781CE010196B3
:1056C0000E9421268F3F69F4662D85E10E94961D78
:1056D000D201ED91FC91309719F40E94191701C085
:1056E0000995BFEF6B1A7B0AE3E14E0E511CF3E004
:1056F0006F16710439F660960FB6F894DEBF0FBED0
:10570000CDBFDF91CF911F910F91FF90EF90DF9070
:10571000CF90BF90AF909F908F907F906F905F9051
:105720004F903F900895E8E0FAE01282158A10A6A3
:105730000895CF93DF938330E0F493E1899FF001E4
:105740001124E85FF54F51834083EB0188819981F3
:10575000AA81BB8183839483A583B6838C819D8139
:10576000AE81BF8187839087A187B287128281E053
:1057700001C08FEFDF91CF910895CF92DF92EF922A
:10578000FF920F931F93CF93DF93CDB7DEB7289788
:105790000FB6F894DEBF0FBECDBF8330A8F5182F2B
:1057A000CE0101960E94C42523E1129FC00111245D
:1057B0008C01085F154FF801C380D480E580F68026
:1057C00049815A816B817C814C0D5D1D6E1D7F1D51
:1057D0004387548765877687C780D084E184F284C5
:1057E0004D815E816F8178854C0D5D1D6E1D7F1D25
:1057F0004787508B618B728B8D5E954F0E94AD26D3
:1058000081E0F801828301C08FEF28960FB6F894EB
:10581000DEBF0FBECDBFDF91CF911F910F91FF90E3
:10582000EF90DF90CF9008951F93CF93DF93CDB784
:10583000DEB728970FB6F894DEBF0FBECDBF83301A
:1058400070F5182FCE0101960E94C42583E1189FA0
:10585000F0011124E85FF54F438154816581768121
:1058600089819A81AB81BC81840F951FA61FB71FC8
:1058700083879487A587B687478150856185728520
:105880008D819E81AF81B885840F951FA61FB71F9C
:105890008787908BA18BB28B81E0828301C08FEFD1
:1058A00028960FB6F894DEBF0FBECDBFDF91CF9123
:1058B0001F910895833048F493E1899FF0011124EA
:1058C000E85FF54F128281E008958FEF08950000A0
:1058D00000000000000000000000000000000000C8
:1058E000000000000000019791F708951092210137
:1058F000089589E0809321018DE89CE3909329012C
:105900008093280108951092250110922401089592
:10591000CF93DF9300D0CDB7DEB780912401909173
:1059200025019A83898389819A810F900F90DF9155
:10593000CF91089510928100089581E080938100B5
:10594000089583B5816083BD109285001092840014
:105950000895CF93DF9300D0CDB7DEB78091840058
:10596000909185009A83898389819A810F900F9005
:10597000DF91CF910895CF92DF92EF92FF92CF9374
:10598000DF93EC01CC0FDD1FC9378FEFD80710F084
:10599000C0E0D0E06B01E12CF12CCC0EDD1EE11C4F
:1059A000F11C81E0C816D104E806F10440F081E062
:1059B000E81AF1080E94A92CC817D907D8F30E9449
:1059C000A92C8C159D05D8F3DF91CF91FF90EF9016
:1059D000DF90CF9008951092B100E0E7F0E0808171
:1059E0008D7F808380818E7F808308958093B20035
:1059F0000895E0E7F0E080818360808383E0809316
:105A0000B100089583B5826083BD1092B2001092F8
:105A1000AA06109211080895CF93DF938EEF80931A
:105A2000110880E28093B600809111088093B30042
:105A300083E087BB92E09093B0008093B10093B570
:105A4000926093BD87BB84BD83B5826083BD109295
:105A5000800081E080938100109285001092840084
:105A600083B5826083BD83B5816083BD10922001C0
:105A7000C4E2D1E01982188283B5826083BD83B508
:105A8000816083BD0E94022D198218820E94F92C28
:105A90000E94792C1092AA06DF91CF9108958091EF
:105AA000B3008F5F089581508093B30008958111F2
:105AB00002C0109271008FEF0895811106C01092FC
:105AC00095001092940081E008958FEF0895811160
:105AD00005C08091940090919500089580E090E039
