:100000000C94A7020C940D2A0C943F2A0C94712A8C
:100010000C94C6020C94C6020C94C6020C94C60240
:100020000C94C6020C94DB290C94C6020C94C602F4
:100030000C94C6020C943A280C94C6020C943A28EC
:100040000C94C6020C94C6020C94C6020C94C60210
:100050000C94C6020C94C6020C94C6020C94C60200
:100060000C94C6020C9463110C94C6020C94C60244
:100070000C94C6020C94C6020C94C6020C94C602E0
:100080000C946D280C94C6020C94C6020C94C60203
:100090000C94C6020C94C6020C94C6020C94CF04B5
:1000A0000C94C6020C94C6020C94C6020C94C602B0
:1000B0000C94C6020C94C6020C94C6020C94C602A0
:1000C0000C94C6020C94C6020C94C6020C94C60290
:1000D0000C94C6020C94C6020C94C6020C94C60280
:1000E0000C94C6020C94830F0C94740F0C94440F60
:1000F0000C9434100C94350F0C94260F0C94140FA0
:100100000C94050F0C94C6020C94C6020C94C60203
:100110000C94C6020C94C6020C94C6020C94C6023F
:1001200042124F125C126912761283129012B312AD
:10013000C112CF12DD12EB12F91207132A132C137E
:100140002E133013321334133613551378139C13B4
:10015000BF13E2130514281462146F147C1489145D
:100160009614A314B014C914D614E314F014FD1497
:100170000A1517159E18A418A718AA18AD18B018B4
:10018000B618B318B918BC18BF18C818CB18CE18B1
:10019000D118C5189B18A118D418D718C2189818C8
:1001A0008E1991199C19A119A819B119B419B91965
:1001B000C019C919436F756C64206E6F7420616437
:1001C0006420736C6F74210D0A004E616E6F2D52A6
:1001D0004B2056657273696F6E20004170702074F9
:1001E000785F6275662053656E740D0A004661691A
:1001F0006C656420746F2072656769737465722022
:100200007369676E616C0D0A0054444D412045527C
:10021000524F523A206372656174696E6720656E51
:1002200061626C65207369676E616C206661696CE0
:1002300065640D0A0054444D41204552524F523AD4
:10024000206372656174696E6720747820736967D2
:100250006E616C206661696C65640D0A0054444DE2
:1002600041204552524F523A206372656174696E63
:1002700067207278207369676E616C206661696CB3
:1002800065640D0A0054444D412054583A20576F7C
:100290006B65207570206F6E2077726F6E672073AC
:1002A00069676E616C0D0A0054444D412054583A00
:1002B000204572726F722063616C6C696E67206595
:1002C00076656E7420776169740D0A0075617274C9
:1002D00020727820736967206661696C65640D0A15
:1002E00000554E4B4F574E0045787465726E616CE9
:1002F0002052657365740042726F776E204F75747B
:1003000020446574656374004661696C656420749B
:100310006F206372656174652053656D6170686FED
:100320007265004661696C656420746F2063726554
:10033000617465205369676E616C004B65726E6510
:100340006C2066756E6374696F6E206E6F742069C1
:100350006D706C656D656E74656400446576696387
:100360006520447269766572204572726F7200571B
:1003700061746368646F672052657374617274009E
:100380005357205761746368646F672052657374B4
:100390006172740054696D6572204F766572666C87
:1003A0006F7700556E68616E646C656420496E7489
:1003B00065727275707420566563746F72004C6F4D
:1003C0007720566F6C7461676500457874726120A0
:1003D0005461736B20737461727465642C2069734B
:1003E000206E726B5F6366672E68206F6B3F0049FB
:1003F000646C65206F72204B65726E656C2053745F
:1004000061636B204F766572666C6F7700556E6521
:1004100078706563746564205265737461727400EA
:100420004475706C696361746564205461736B20FA
:100430004944005363686564756C6572204D697347
:100440007365642057616B657570005461736B2030
:10045000526573657276652056696F6C6174656468
:100460000052657365727665204572726F722069FD
:100470006E205363686564756C657200496E7661C1
:100480006C696420537461636B20506F696E74658E
:1004900072005461736B20537461636B204F7665F7
:1004A00072666C6F7700537461636B2077617320A1
:1004B0006E6F7420646566696E6564206173206C7C
:1004C0006172676520656E6F75676821005461739E
:1004D0006B20706572696F6420746F6F206C61723D
:1004E00067652E20506572696F64206D7573742086
:1004F0006265206C657373207468616E20363120EC
:100500007365636F6E64732E00293A20002A4E5281
:100510004B204552524F5228004E524B2048616C9E
:10052000742E2E2E0D0A000D0A535441434B2044C5
:10053000554D500D0A0045464765666700202B2D36
:100540002E303132333435363738396800001124D3
:100550001FBECFEFD1E4DEBFCDBF13E0A0E0B2E01D
:10056000E6E8F1E600E00BBF02C007900D92A0396B
:10057000B107D9F71BE0A0E9B3E001C01D92A03E8E
:10058000B107E1F70E94862B0C94C1300C943028FF
:100590000E9490211F928F9388E792E09F938F9300
:1005A0000E94832E0F900F900F900F900E94D507FE
:1005B000811103C00E94E71FF9CFC8E009E812E0EB
:1005C00080E1E82E89E0F82E1F92CF931F930F93BE
:1005D000FF92EF920E94CD2EC0931B0A20E048E0CC
:1005E00060E179E089EE97E00E94A0050F900F90FE
:1005F0000F900F900F900F90813029F48BED91E0C8
:100600000E94D911E1CF84E992E00E949D2EDCCFB7
:10061000CF93C82F883411F0803211F40E94AB04BC
:100620001F92CF938DEA92E09F938F930E94832E27
:100630000F900F900F900F908C2FCF910895EAEFAD
:10064000F6E080ED808386E181838BE1828363E045
:10065000CF010C948904EAEFF6E08CE3808382E01A
:100660008183128263E0CF010C9489040F931F935E
:10067000CF93DF93CAEFD6E016EA18830DE2098321
:100680001A8263E0CE010E948904188388E389837B
:1006900080E88A8363E0CE010E948904188309837D
:1006A00088E08A8363E0CE01DF91CF911F910F91A3
:1006B0000C948904CF93DF9300D0CDB7DEB786EAE0
:1006C000F82E92E3E92E27EAD22E30EDC32E4DE12B
:1006D000B42E51EDA52E6CE3962E73E0872EEDE33C
:1006E0007E2E03E111E010926B0680910B07909132
:1006F0000C079C012F5F3F4F30930C0720930B0793
:1007000080931009F092FA06E092FB0662E08AEF0D
:1007100096E00E948904D092FA0667E08AEF96E09C
:100720000E94890481E090E02C012FEF421A520AC6
:10073000FC01E650F94F2081FC01E05FF64F208379
:10074000C2018730910581F7C092FA06B092FB068C
:1007500062E08AEF96E00E948904A092FA0667E0C0
:100760008AEF96E00E94890492012F5F3F4FF201C9
:10077000EC50F94F8081F201E05FF64F8083290150
:100780002D30310589F79092FA068092FB0662E0DF
:100790008AEF96E029833A830E9489047092FA06D0
:1007A00067E08AEF96E00E9489043A812981F90185
:1007B000E251F94F8081F901E05FF64F80832F5FAE
:1007C0003F4F2331310599F700931B0A10936B06B5
:1007D0000E94E71F88CFCF93DF931F92CDB7DEB77C
:1007E0008AEC91E00E94D9111F9285E68F9382EBEB
:1007F00092E09F938F930E94832E0E9490211F92DC
:100800008F9387EB92E09F938F930E94832E40916A
:100810000D0750910E076DE082E00E9418070FB699
:10082000F894DEBF0FBECDBF0E94D507811103C073
:100830000E94E71FF9CF80910D0790910E070E944B
:100840005E05813021F084EB91E00E94D91120E017
:10085000AE014F5F5F4F6BEF77E08DE19AE00E9452
:100860004706813021F084E992E00E949D2E0E948B
:10087000E71FEDCF68EC72E08DEE98E00E94E12A70
:1008800040E850E06AE776E08DEE98E00E94E52AC5
:10089000EDEEF8E081E08087878381878287138689
:1008A00014861586168680E498E7ADE7B1E0878761
:1008B000908BA18BB28B138A148A158A168A80E8D2
:1008C00093ECA9ECB1E0878B908FA18FB28F138E40
:1008D000148E158E168E178E10A211A212A2CF01A1
:1008E0000E94551F0C94D50B8AE08093B8008FEFBF
:1008F0008093BB0084E08093BC0008958091BC008D
:10090000817008958091BC0080FDFCCF8091100221
:1009100008952091BC0020FDFCCF60939203FC0160
:1009200020812093930320FF09C01092900388EF49
:100930008093100285EA8093BC000895FC013196F3
:1009400023E933E0D90111968A2F821B861768F7B5
:1009500081918C93F8CF8091BC0080FDFCCF1092E8
:10096000900388EF8093100285EA8093BC0008957D
:100970002091BC0020FDFCCF2091900320FD04C0FD
:10098000809190038170089523E933E0FC01D9013F
:100990008A2F821B8617A0F78D918193F9CF1F9222
:1009A0000F920FB60F9211240BB60F922F933F9315
:1009B0008F939F93EF93FF938091B900883201F159
:1009C00040F48031D9F08831D9F0883009F04AC03C
:1009D00015C0803491F128F4883309F043C085EACA
:1009E00046C08035F1F08835E9F58091BB00E09193
:1009F0009103F0E0ED56FC4F80832DC010929103DF
:100A0000E091910380919203E81728F581E08E0F21
:100A100080939103F0E0ED56FC4F80818093BB0002
:100A200018C0E091910381E08E0F80939103809133
:100A3000BB00F0E0ED56FC4F80832091910330E045
:100A40008091920390E001972817390714F485EC00
:100A50000EC085E80CC08091900381608093900364
:100A600084E905C08091B9008093100284E08093EE
:100A7000BC00FF91EF919F918F913F912F910F902B
:100A80000BBE0F900FBE0F901F90189508950C94F9
:100A9000801081E08093D303089581E08093D30395
:100AA00008958091A0030895009731F090939F03DB
:100AB00080939E0381E008958FEF08959093D6036D
:100AC0008093D50381E08093D40308958FEF089538
:100AD00080E090E00895803220F40E945F0C81E075
:100AE00008958FEF08958B3168F4682F8093C603C3
:100AF00024E132E140E254E28EE696E00E94A10C4D
:100B000081E008958FEF08959093CE038093CD03F5
:100B1000ECEAF3E0DC0120E432E44FE050E00E9434
:100B2000192D6483758386839783108211821282C4
:100B3000138281E008959093CC038093CB030895B2
:100B4000CF92DF92EF92FF92CF93DF9300D0CDB799
:100B5000DEB76C017B018091CF03813009F48DC039
:100B6000442309F48AC06115710509F486C0C114D3
:100B7000D10409F482C0211108C0809182092A831E
:100B800049830E94401C49812A8181E08093CF03E0
:100B90008DE494E09093370780933607F6018181C6
:100BA00080934E04808180934D048581968190933B
:100BB000500480934F048091D2038093520410928A
:100BC0005104818592850196928781879093540480
:100BD00080935304838180935604828180935504CB
:100BE0003091D003F0E13F9FC0011124832B80930B
:100BF00057045E2DF7018CE090E03E2F351B341733
:100C000050F43191A0913607B0913707A80FB91F62
:100C10003C930196F2CF445F4093350721112BC0DE
:100C200081E090E0A0E0B0E0BC01CD01009082093D
:100C300004C0660F771F881F991F0A94D2F70E947D
:100C4000E31C6B017C01611571058105910521F49F
:100C500088EA92E00E94D9110090820904C0F694BB
:100C6000E794D794C7940A94D2F7C0FC04C085E8EF
:100C700092E00E94D91181E001C08FEF0F900F9098
:100C8000DF91CF91FF90EF90DF90CF9008958F92FA
:100C90009F92AF92BF92CF92DF92EF92FF920F930B
:100CA0001F93CF93DF931F92CDB7DEB74C018B011B
:100CB0005A018091C80321111CC08130F1F4809148
:100CC000810929830E94401C81E090E0A0E0B0E00F
:100CD000BC01CD010090810904C0660F771F881FF9
:100CE000991F0A94D2F70E94E31C6B017C012981B1
:100CF00004C0813011F48FEF7CC0809171068C307C
:100D0000D4F38C50D5018C9380E0F5019081891744
:100D100078F4482F50E0E0917306F0917406E40FE8
:100D2000F51F9485F801E40FF51F90838F5FEDCFD9
:100D300080917606992787FD9095D4011E969C9305
:100D40008E931D97809177061F968C931F978091A5
:100D5000780650968C9350978091790651968C9393
:100D60005197E0917306F0917406858190E0982F79
:100D700088273481832B18969C938E9317978381B1
:100D800090E0982F88273281832B16969C938E9320
:100D90001597818190E0982F88273081832B1196B9
:100DA0009C938E93878190E0982F88273681832BA0
:100DB0001A969C938E931997818590E0982F882797
:100DC0003085832B13969C938E93129782851C9665
:100DD0008C9321110BC00090810904C0F694E79414
:100DE000D794C7940A94D2F7C0FE85CF81E0809350
:100DF000C8030F90DF91CF911F910F91FF90EF905B
:100E0000DF90CF90BF90AF909F908F900895009704
:100E100051F090937406809373066093720681E09C
:100E20008093C80308958FEF08958093D0030895A9
:100E30000F931F93CF93DF93162FD42F052F9FEF80
:100E40009093A3031092A2031092A1038093D10365
:100E50001092D40383E08093D0031092A00380E02B
:100E600094E09093CC038093CB0380E896E9A8E9C3
:100E7000B0E08093B0039093B103A093B203B0931A
:100E8000B3031092AC031092AD031092AE03109214
:100E9000AF030E94301BC82F809381098F3F19F444
:100EA0008DE592E009C00E94301BC82F8093820913
:100EB0008F3F69F485E392E00E94D911E091B10B74
:100EC000F091B20B60858EE00E943B1A2DC00E940B
:100ED000301BC82F80931C0A8F3F19F489E092E0E1
:100EE000EBCF8DED93E0909374068093730680E7CB
:100EF00080937206C1E0C093C8031092CF032D2FD8
:100F0000302F4FEF5FEF612F8EE696E00E94A10C2D
:100F10001093C603D093D20383ED9FEF0E94920FEC
:100F2000C093C703C093C5038C2FDF91CF911F914E
:100F30000F910895809181090E94401C8091810940
:100F40000895809182090E94401C80918209089531
:100F50002091C803213039F4FC011082FB0110827A
:100F600080E090E0089520917106FC01208380913B
:100F70007606FB0180838091730690917406089534
:100F800081E08093C80308951092C5030C94200C4F
:100F900081E08093C5030E94460C80911C0A0C944A
:100FA000721C81E08093E00508958091C703089545
:100FB0008091C803813099F00E94170D0E94110D95
:100FC00080919D038F5F80939D03833030F010925A
:100FD000C803809181090E94721C8FEF08951092BE
:100FE0009D030E941B0E813091F5609171066D305A
:100FF0006CF18091D303811107C01092C8038091D6
:1010000081090E94721C22C080917306909174061F
:101010000E94F110809173069091740620917106E0
:10102000820F911D27FD9A95FC01319720812A3C62
:10103000A1F6319720812E3F81F6319720812E3BFA
:1010400061F6319780818F3EC1F2C7CF81E008956C
:10105000CF93DF938091C803813011F08FEF40C0B0
:10106000D4E60E941B0EC82F813089F5609171066D
:101070006D30ACF18091D303811107C01092C80389
:10108000809181090E94721C2AC080917306909100
:1010900074060E94F110809173069091740620915D
:1010A0007106820F911D27FD9A95FC0131972081D1
:1010B0002A3CA1F6319720812E3F81F6319720817D
:1010C0002E3B61F6319780818F3EC1F2C7CF84E617
:1010D00090E00E94DF26D15021F68C2F01C081E0E4
:1010E000DF91CF9108950F931F93CF939091D303E6
:1010F000992309F443C02091350784E0820F382FEB
:101100003F7031F087FF02C083E1820F807F805FF4
:101110008093350780913507E0913607F0913707C6
:10112000E80FF11D87FDFA9531978AEC8083809155
:101130003507E0913607F0913707E80FF11D87FD7D
:10114000FA9532978EEF808380913507E0913607CC
:10115000F0913707E80FF11D87FDFA9533978EEB75
:10116000808380913507E0913607F0913707E80FCB
:10117000F11D87FDFA9534978FEE808360913507D6
:10118000062F112707FD1095E0913607F0913707DC
:10119000C0E040E0242F30E0201731073CF42E0F50
:1011A0003F1FD9018C91C80F4F5FF4CF992319F0DD
:1011B000CF010E94A210E0913507FF27E7FDF095CF
:1011C000E657FE4FC08383E397E00E941D0D109207
:1011D000CF03809182090E94721C81E0CF911F9100
:1011E0000F910895CF93DF9300D0CDB7DEB70E9463
:1011F000E71F8091C7038823D1F380911C0A0E94C6
:10120000401C8A838F3F21F48DEE91E00E94D9111A
:10121000612C712C22242A94322C8091D1038130AC
:1012200009F0E1C08093A0036114710409F088C043
:101230008091CF03811116C02DE434E0309337073D
:10124000209336073FEF30934F04309350041092B1
:1012500051041092520410925304109254048CE0E2
:1012600080933507E0913607F09137079091CB03D3
:101270008091CC03908781871082E0913607F091AE
:1012800037071182E0913607F09137072091D0039C
:1012900030E1239FC0011124822B82878091CD03EE
:1012A000838784EA93E00E9496213092340720924B
:1012B000330710923907109238070E9473080E9472
:1012C000110D8091E005813009F043C0412C512C73
:1012D000C20165E070E00E94342D892B21F483E087
:1012E00090E00E943115E0913607F09137078FEFBB
:1012F0008083E0913607F09137078183E0913607CC
:10130000F09137071482E0913607F0913707158284
:101310009CE0909335070E9473088AE090E00E9459
:101320008E20EFEF4E1A5E0AF8EE4F16F3E05F06DE
:1013300079F683E090E00E9448151092E00509C01C
:101340000E94D8072A81213021F47092CA0360924A
:10135000C9033FEF631A730A8091CB039091CC03CA
:101360008615970528F48AE090E00E948E20ECC153
:101370008090AC039090AD03A090AE03B090AF030B
:10138000C090B003D090B103E090B203F090B303EB
:101390000091A4031091A5032091A6033091A70307
:1013A0004091A8035091A9036091AA037091AB03E7
:1013B00084EA93E00E94A02284EA93E00E947F22C4
:1013C0002091A4033091A5034091A6035091A70357
:1013D0006091A8037091A9038091AA039091AB0337
:1013E0000E943A211ACF672809F057C00E94460C84
:1013F0000E94110D612C712C0E9428088A8384EAB6
:1014000093E00E9496218A81813009F5E09173066C
:10141000F0917406818190E0982F88272081822B9B
:10142000258130E0322F22274481242B232B21F4E5
:101430008F3F2FEF920721F0892B09F488C102C05A
:10144000612C712C31E03093C8038FEF8A8394E6CE
:1014500069167104C0F01092A003E0919E03F09110
:101460009F03309729F0C301845691090995898318
:10147000E981E13019F4612C712C05C0F0E36F169D
:10148000F5E77F0618F42FEF621A720A31E0309305
:10149000C8038A81813009F0AFCFE0917306F091E3
:1014A00074069285892F82958F709F70891B813178
:1014B00018F48093C40302C01092C4031092BC03BA
:1014C0001092BD031092BE031092BF031092C0038E
:1014D0001092C1031092C2031092C3031092B4037E
:1014E0001092B5031092B6031092B703A091710643
:1014F000BB27A7FDB09520E03DE70E94122DDC013F
:10150000CB01935BA74FBF4F8093B8039093B90370
:10151000A093BA03B093BB03612C712C8091C403D8
:1015200090E06816790640F58090B4039090B5037A
:10153000A090B603B090B703C090B803D090B903A1
:10154000E090BA03F090BB030091BC031091BD037F
:101550002091BE033091BF034091C0035091C1035D
:101560006091C2037091C3038CEB93E00E94A022B0
:101570009FEF691A790AD2CFE1E0E093A0030E94BD
:10158000170D0E94200C8091D5039091D603609096
:10159000CB037090CC038615970508F43C01412CD1
:1015A000512C4614570441F18090AC039090AD0348
:1015B000A090AE03B090AF03C090B003D090B10341
:1015C000E090B203F090B3030091A4031091A5033F
:1015D0002091A6033091A7034091A8035091A9033D
:1015E0006091AA037091AB0384EA93E00E94A02269
:1015F000FFEF4F1A5F0AD5CF8090BC039090BD03D8
:10160000A090BE03B090BF03C090C003D090C103B0
:10161000E090C203F090C3030091A4031091A503CE
:101620002091A6033091A7034091A8035091A903EC
:101630006091AA037091AB0384EA93E00E94F321C6
:1016400084EA93E00E947F222091A4033091A503B5
:101650004091A6035091A7036091A8037091A9033C
:101660008091AA039091AB030E943A218091CF030D
:101670008130B1F4E0913607F09137076082E09154
:101680003607F09137077182309234072092330782
:1016900010923907109238070E94460C0E94730876
:1016A0000E94170D0E94200C412C512C8091CB03DD
:1016B0009091CC03861997094816590640F58090F9
:1016C000AC039090AD03A090AE03B090AF03C09078
:1016D000B003D090B103E090B203F090B303009157
:1016E000A4031091A5032091A6033091A703409174
:1016F000A8035091A9036091AA037091AB0384EAF7
:1017000093E00E94A0222FEF421A520ACFCF84EA20
:1017100093E00E947F222091A4033091A503409181
:10172000A6035091A7036091A8037091A90380912B
:10173000AA039091AB030E943A218091C5038111C5
:1017400003C00E94E71FF9CF612C712C66CD828502
:1017500082958F708093D003818590E0982F8827A1
:101760002085822B9093CC038093CB03A3858A2F73
:1017700090E09093CE038093CD03DC0120E432E42B
:101780004FE050E00E94192D6093B0037093B103B5
:101790008093B2039093B3031092AC031092AD0305
:1017A0001092AE031092AF0352CE62EF78E08DEB51
:1017B00095E00E94E12A40E051E06DEB74E08DEB92
:1017C00095E00E94E52AEDEBF5E084E1808781E079
:1017D00087838187828781E090E0A0E0B0E0838703
:1017E0009487A587B6871786108A118A128A87E0A0
:1017F00090E0A0E0B0E0838B948BA58BB68B178A2A
:10180000108E118E128E138E148E158E168E178ECC
:1018100010A211A212A2CF010C94551F9091410168
:101820009F719F31D9F38093420108958093E10520
:10183000089581E08093B50A08951092B50A08953D
:10184000809141018F718F31D9F3809141018F7166
:10185000E1F08F30D1F0809141018F71883031F407
:10186000809139018260809339010BC088E00E9429
:101870000E0C809141018F718830D9F7F1CF8F30F4
:1018800021F0809141018F71D1F70895809141013C
:101890008F718F31D9F3809141018F7111F08F30A9
:1018A00051F4809139018D7F8093390180914101FC
:1018B0008F718830D9F7089589E00C940E0CE5E417
:1018C000F1E09081907F908390818F70982B90832E
:1018D0000895E7E5F1E080818D7F80830895E7E555
:1018E000F1E08081826080830895EEE6F1E08081FE
:1018F0008F7E80830895EEE6F1E0808180618083B1
:10190000089580936001909361019093BF0A809342
:10191000BE0A08959093B90A8093B80AE8E4F1E00A
:101920008081807E80838081682B6083089590937E
:10193000E5058093E40508959093E3058093E2051F
:1019400008950F931F93CF93DF93FC01D90180E299
:101950008093440180EC809345016062609348016C
:1019600085EC8093490187EA80934B0180E880935E
:101970004C0120936001B093610140936201509348
:101980006301C6E4D1E00881888198812881302FE5
:1019900032953695377060E4369F80011124229588
:1019A00026952370622F602B82958695837070E157
:1019B000879F90011124262B92959695937084E031
:1019C000989FB0011124622B60936D0188819881EA
:1019D000929596959370392F3064982F92959670C2
:1019E000932B90936E0110926C018FEF80934E01B8
:1019F000C8EBDAE0F983E8831A821B825D834C83AB
:101A0000BF83AE83188681E08093D20A1092E90AE0
:101A10001092C10A1092B50ADF91CF911F910F91D8
:101A2000089586E10C940E0C86E10C940E0C88E06F
:101A30000E940E0C1092E90A08950F931F93CF9302
:101A4000DF93FC018091D20A811102C08FEFABC0FD
:101A500026818091BA0A8F5F8093BA0A90918101A2
:101A6000907E916020FB95F99F7390649093810123
:101A700088E8809382018091B50A882361F08FEF16
:101A8000809383018AEA9AEA90938901809388017E
:101A90008FEF9FEF10C08091BA0A8093830120914D
:101AA00061018091600190E0922B90938901809375
:101AB0008801808191819093870180938601209194
:101AC00063018091620190E0922B90938501809355
:101AD00084018F014281552747FD509563817481B0
:101AE0008AE891E00E94E92DF8018281855F809368
:101AF000800180914101D82FDF719FEF9D0F9230BF
:101B0000C0F3D131B1F3D231A1F3DF3191F398EFCA
:101B10009D0F923020F08F70863009F097CF86E1CC
:101B20000E940E0CF801858181110BC089E00E9492
:101B30000E0CF8018681882391F089E10E940E0C39
:101B40000EC08091480180688093480180914101D6
:101B500087FFFCCF8091410186FF78CFE7CF1092BD
:101B6000C10A82E00E940E0C80E090E02091C10A40
:101B7000211105C00196883EFDEF9F07B9F7F801D6
:101B80002681222331F0209142012295269527704B
:101B900029F4883E9D4F11F0C1E001C0CFEF8D2F99
:101BA0000E940E0C8C2FDF91CF911F910F91089501
:101BB0001092C10A82E00E940E0C88EE9DEF2091E7
:101BC000C10A211104C00197D1F78FEF089581E078
:101BD0000895CF93DF938091D20A882341F18091B9
:101BE0004101C82FCF719FEF9C0F9230C0F3C131DC
:101BF000B1F3C231A1F3CF3191F3C83019F08F7036
:101C00008630A9F486E10E940E0C8091480180681C
:101C1000809348018091410187FFFCCFD091410121
:101C20008C2F0E940E0CD6FB882780F901C08FEF05
:101C3000DF91CF9108958091D20A882309F4E3C0FF
:101C40008091E90A882309F4DCC080917B01E0914E
:101C5000B80AF091B90A90E002972481332727FD52
:101C60003095281739070CF4CEC0E091B80AF091EE
:101C7000B90A809182018083E091B80AF091B90A93
:101C8000809187019091880192838183E091B80AC5
:101C9000F091B90A80917B018B508383A091B80A9F
:101CA000B091B90AE091B80AF091B90A13969C91E3
:101CB000848189173CF0E091B80AF091B90A8381D8
:101CC00087FF0DC01092E90A80914C018F778093B5
:101CD0004C0180914C01806880934C0194C0A0918C
:101CE000B80AB091B90AE091B80AF091B90A13960E
:101CF0004C91552747FD509569E871E085819681A3
:101D00000E94E92D8091E105882309F43EC0E0910D
:101D1000B80AF091B90A83818031B9F5E091B80A27
:101D2000F091B90A6581768144E050E081E192E06A
:101D30000E94F22D892B49F5E091B80AF091B90A79
:101D40006581768140E150E081E192E00E94F22DD0
:101D5000892BD9F49DE088E10FB6F894A89580937B
:101D600060000FBE9093600080E090E00E945F15DD
:101D700081E090E00E945F1582E090E00E945F1594
:101D800083E090E00E945F15FFCFE091B80AF091E8
:101D9000B90A8091800185FB882780F98783E091CB
:101DA000B80AF091B90A809147018087E091B80A9A
:101DB000F091B90A8091460186958695869581872E
:101DC000E091B80AF091B90A809147018287A09109
:101DD000B80AB091B90AE0917B01F0E0E058FE4FFB
:101DE00080811B968C931092E90A80914C018F7729
:101DF00080934C0180914C01806880934C0181E07C
:101E0000089580E008958FEF08951F920F920FB606
:101E10000F9211248F9380E880934F018F910F9040
:101E20000FBE0F901F9018951F920F920FB60F9232
:101E300011248F9381E08093C10A80E480934F0145
:101E40008F910F900FBE0F901F9018951F920F92B9
:101E50000FB60F9211248F9380E280934F018F91E0
:101E60000F900FBE0F901F9018951F920F920FB6F4
:101E70000F9211248F9380E180934F018F910F90E7
:101E80000FBE0F901F9018951F920F920FB60F92D2
:101E900011240BB60F922F933F934F935F936F9341
:101EA0007F938F939F93AF93BF93EF93FF9384E0C0
:101EB00080934F01E091E405F091E505309709F03A
:101EC0000995FF91EF91BF91AF919F918F917F9174
:101ED0006F915F914F913F912F910F900BBE0F909B
:101EE0000FBE0F901F9018951F920F920FB60F9272
:101EF00011248F9382E080934F018F910F900FBE3A
:101F00000F901F9018951F920F920FB60F921124E9
:101F10008F9381E080934F018F910F900FBE0F90B0
:101F20001F901895E9E4F1E09081907F9083908173
:101F30008F70982B908308958FEF089508950895DA
:101F400008958FEF08958091B30A9091B40A08958F
:101F5000089581E0089581E0089581E0089508954D
:101F600008950895089508950895089508959898F6
:101F70008DB1806E8DB98EB1806A8EB908959898B2
:101F80008DB1806E8DB98EB180668EB90895CF9275
:101F9000DF92EF92FF920F931F93CF93DF93CDB712
:101FA000DEB727970FB6F894DEBF0FBECDBF0E94F5
:101FB0009016E091B80AF091B90AC080D380E5800C
:101FC000F68000850E941B0E18161CF088EC92E02B
:101FD00006C0F7011081111107C087EE92E00E9440
:101FE0009D2E0E94921631C0153021F48AE090E0B7
:101FF0000E94972EC70101969F938F93802F992758
:1020000087FD90959F930F931F921F931F92CF92DE
:1020100089E093E09F938F930E94832EFD82EC8250
:102020001150F7011083DB821E821F828FEF9FEF1A
:102030009A8389830E949216CE0101960E941D0DFB
:102040000FB6F894DEBF0FBECDBF27960FB6F8943B
:10205000DEBF0FBECDBFDF91CF911F910F91FF90DB
:10206000EF90DF90CF9008951F920F920FB60F92CE
:1020700011240BB60F922F933F934F935F936F935F
:102080007F938F939F93AF93BF93EF93FF9380E0E2
:1020900090917B01891710F48F5FFACF80914601F0
:1020A00087FF04C081E08093E90A04C082E393E0E3
:1020B0000E949D2E88E080934F018091460187FF0A
:1020C00005C08091B50A81110E94C70FE091E20519
:1020D000F091E305309709F00995FF91EF91BF91D9
:1020E000AF919F918F917F916F915F914F913F91B0
:1020F0002F910F900BBE0F900FBE0F901F90189551
:10210000A2ECBAE0FC01409620812D93219120930E
:102110003F01E817F907C1F780E110923E018150B5
:10212000E1F780E880933C0180913D0180FFFCCF86
:10213000E3EDFAE080E18E0F90913F0191938E13D1
:10214000FBCF0895CF93DF93DC01662309F445C0EC
:10215000862F8F7009F041C0E2ECFAE090E19E0F0B
:10216000219120933F019E13FBCF90E070E0E0E2CD
:1021700040E1949F90011124261737077CF59111B7
:1021800003C010923C0102C0E0933C0140E050E0EB
:102190002A0F3B1FE901C40FD51FF881F0933E01C0
:1021A0004F5F5F4F40315105A9F740913C014068B6
:1021B00040933C0140913D0140FFFCCF40E050E0A6
:1021C000F0913E01E901C40FD51FF8834F5F5F4FC7
:1021D00040315105A9F79F5FCBCF81E0DF91CF91CF
:1021E00008950F931F93CF93DF93DC01613009F4BF
:1021F00058C0862F8F7009F054C0E3EDFAE090E1EB
:102200009E0F219120933F019E13FBCF62956F702B
:10221000615078E06F3F09F445C070933C01462F50
:10222000552747FD509520E030E0ED0190E169022F
:10223000C00DD11D1124FE01E20FF31F9081909378
:102240003E012F5F3F4F20313105A9F790913C01AE
:10225000906890933C0190913D0190FFFCCF4150DC
:10226000510994E0440F551F9A95E1F720E030E0C2
:1022700090913E018E01020F131FF8019083662397
:1022800049F0F901E40FF51FEA0FFB1FE0819E27DB
:10229000F80190832F5F3F4F2031310549F761509E
:1022A000B9CF81E0DF91CF911F910F910895909167
:1022B000C00095FFFCCF9091C0009F7D9093C0001F
:1022C0008093C60008951F920F920FB60F921124AB
:1022D0000BB60F922F933F934F935F936F937F9320
:1022E0008F939F93AF93BF93EF93FF930E949016AA
:1022F0008091C00087FFFCCF8091C0008F778093D2
:10230000C0002091C6008091670690916806FC018C
:10231000E951FA4F208301968038910529F0909376
:1023200068068093670604C01092680610926706DC
:102330008091E6050E94721C8091C0008F77809387
:10234000C0000E949216FF91EF91BF91AF919F91B3
:102350008F917F916F915F914F913F912F910F904E
:102360000BBE0F900FBE0F901F90189581110DC0DE
:1023700081E04091690650916A062091670630918C
:1023800068064217530751F408C0813031F4809138
:10239000C800881F8827881F089580E008958091CD
:1023A000E6058F3F19F48EE00E942E1A8091E60513
:1023B0000895CF93DF93FC012491EC012196222311
:1023C00051F06091D80B7091D90B822F90E00E9450
:1023D0004B2ECE01F0CFDF91CF9108952091690669
:1023E00030916A0680916706909168062817390730
:1023F00069F48091E6050E94401C6091E60577270C
:1024000067FD7095872F972F0E94E31C6F3F21F483
:102410008CEC92E00E94D9112091690630916A06F5
:10242000F901E951FA4F80812F5F3F4F2038310584
:1024300028F430936A0620936906089510926A067C
:1024400010926906089586E084B985B988EF8AB943
:1024500080EF8BB982E08DB908950C9423128F3FE1
:1024600009F46CC0E82FE7704E2F50E0473051055B
:1024700008F064C0FA01E057FF4F8695869586956F
:102480000C94C92D42B121E030E0B90102C0660FC1
:10249000771F8A95E2F7CB01842B82B94DC045B1F5
:1024A00021E030E0B90102C0660F771F8A95E2F79C
:1024B000CB01842B85B940C048B121E030E0B9019F
:1024C00002C0660F771F8A95E2F7CB01842B88B98B
:1024D00033C04BB121E030E0B90102C0660F771F75
:1024E0008A95E2F7CB01842B8BB926C04EB121E04F
:1024F00030E0B90102C0660F771F8A95E2F7CB0181
:10250000842B8EB919C041B321E030E0B90102C07B
:10251000660F771F8A95E2F7CB01842B81BB0CC035
:1025200044B321E030E0B90102C0660F771F8A95FD
:10253000E2F7CB01842B84BB81E008958FEF0895EF
:102540008F3F09F473C0E82FE7704E2F50E04730FB
:10255000510508F06BC0FA01E956FF4F8695869544
:1025600086950C94C92D42B121E030E0B90102C03A
:10257000660F771F8A95E2F7CB018095842382B995
:1025800053C045B121E030E0B90102C0660F771FAA
:102590008A95E2F7CB018095842385B945C048B17F
:1025A00021E030E0B90102C0660F771F8A95E2F79B
:1025B000CB018095842388B937C04BB121E030E04E
:1025C000B90102C0660F771F8A95E2F7CB018095AB
:1025D00084238BB929C04EB121E030E0B90102C09B
:1025E000660F771F8A95E2F7CB01809584238EB919
:1025F0001BC041B321E030E0B90102C0660F771F74
:102600008A95E2F7CB018095842381BB0DC044B34A
:1026100021E030E0B90102C0660F771F8A95E2F72A
:10262000CB018095842384BB81E008958FEF0895CA
:102630008F3F31F1E82FE7704E2F50E047305105C2
:10264000F8F4FA01E256FF4F282F26952695269595
:102650000C94C92D90B10BC093B109C096B107C0BD
:1026600099B105C09CB103C09FB101C092B3892F3D
:1026700090E002C0959587952A95E2F781700895BC
:102680008FEF08958F3F09F406C1E82FE7704E2FB2
:1026900050E04730510508F0FEC0FA01EB55FF4FFE
:1026A0008695869586950C94C92D20B130E0082E2C
:1026B00002C0359527950A94E2F742B120FD0BC080
:1026C00021E030E0B90102C0660F771F8A95E2F77A
:1026D000CB01842B0BC021E030E0B90102C0660FB2
:1026E000771F8A95E2F7CB018095842382B916C0C3
:1026F00023B130E0082E02C0359527950A94E2F701
:1027000045B120FD0DC021E030E0B90102C0660FE7
:10271000771F8A95E2F7CB01842B85B981E0089574
:1027200021E030E0B90102C0660F771F8A95E2F719
:10273000CB0180958423F1CF26B130E0082E02C072
:10274000359527950A94E2F748B120FD0BC021E0AA
:1027500030E0B90102C0660F771F8A95E2F7CB011E
:10276000842B0BC021E030E0B90102C0660F771F57
:102770008A95E2F7CB018095842388B9CFCF29B120
:1027800030E0082E02C0359527950A94E2F74BB148
:1027900020FD0BC021E030E0B90102C0660F771FB9
:1027A0008A95E2F7CB01842B0BC021E030E0B90120
:1027B00002C0660F771F8A95E2F7CB0180958423CC
:1027C0008BB9ACCF2CB130E0082E02C035952795DF
:1027D0000A94E2F74EB120FD0BC021E030E0B901D0
:1027E00002C0660F771F8A95E2F7CB01842B0BC0DE
:1027F00021E030E0B90102C0660F771F8A95E2F749
:10280000CB01809584238EB989CF2FB130E0082E7B
:1028100002C0359527950A94E2F741B320FD0BC01D
:1028200021E030E0B90102C0660F771F8A95E2F718
:10283000CB01842B0BC021E030E0B90102C0660F50
:10284000771F8A95E2F7CB018095842381BB66CF01
:1028500022B330E0082E02C0359527950A94E2F79E
:1028600044B320FD0BC021E030E0B90102C0660F87
:10287000771F8A95E2F7CB01842B0BC021E030E073
:10288000B90102C0660F771F8A95E2F7CB018095E8
:10289000842384BB43CF8FEF08958F3F09F4D5C0C5
:1028A000E82FE7704E2F50E0611167C047305105A7
:1028B00008F0CBC0FA01E455FF4F869586958695C2
:1028C0000C94C92D41B121E030E0B90102C0660F7E
:1028D000771F8A95E2F7CB018095842365C044B1C8
:1028E00021E030E0B90102C0660F771F8A95E2F758
:1028F000CB018095842365C047B121E030E0B90168
:1029000002C0660F771F8A95E2F7CB01809584237A
:1029100065C04AB121E030E0B90102C0660F771FFF
:102920008A95E2F7CB018095842365C04DB121E003
:1029300030E0B90102C0660F771F8A95E2F7CB013C
:102940008095842365C040B321E030E0B90102C026
:10295000660F771F8A95E2F7CB018095842365C0C7
:1029600043B321E030E0B90102C0660F771F8A95BA
:10297000E2F7CB018095842365C04730510508F00C
:1029800064C0FA01ED54FF4F8695869586950C94A8
:10299000C92D41B121E030E0B90102C0660F771FB7
:1029A0008A95E2F7CB01842B81B94DC044B121E077
:1029B00030E0B90102C0660F771F8A95E2F7CB01BC
:1029C000842B84B940C047B121E030E0B90102C096
:1029D000660F771F8A95E2F7CB01842B87B933C046
:1029E0004AB121E030E0B90102C0660F771F8A9535
:1029F000E2F7CB01842B8AB926C04DB121E030E04B
:102A0000B90102C0660F771F8A95E2F7CB01842BCC
:102A10008DB919C040B321E030E0B90102C0660FA2
:102A2000771F8A95E2F7CB01842B80BB0CC043B3A0
:102A300021E030E0B90102C0660F771F8A95E2F706
:102A4000CB01842B83BB81E008958FEF0895811122
:102A500006C080B18695817091E0892708958FEF37
:102A60000895009711F483E20DC08130910511F4AF
:102A70008BE208C08230910511F483E303C0039711
:102A800029F48BE30E94421381E008958FEF0895AB
:102A9000009711F483E20DC08130910511F48BE2AF
:102AA00008C08230910511F483E303C0039729F431
:102AB0008BE30E942F1281E008958FEF0895009715
:102AC00011F483E20DC08130910511F48BE208C04E
:102AD0008230910511F483E303C0039729F48BE35B
:102AE0000E94A01281E008958FEF0895882319F0C5
:102AF00085B78F7E02C085B7806185BF81E008956C
:102B00009091C80095FFFCCF8093CE0008959093DC
:102B1000C5008093C40086E08093C200E1ECF0E041
:102B200080818B7F8083A0ECB0E08C9182608C935D
:102B300080818861808308959093CD008093CC003C
:102B400086E08093CA00E9ECF0E080818B7F80838F
:102B5000A8ECB0E08C9182608C9380818861808346
:102B600008950E9487156EEE71E187E591E10E945C
:102B7000002E9093D90B8093D80B6EEE71E187E510
:102B800091E10E94002E9093D70B8093D60B0E9468
:102B9000301B8093E6058F3F19F48EE00E942E1AB9
:102BA00010926A06109269061092680610926706E3
:102BB0008091C10080688093C10008958091C80011
:102BC00087FFFCCF8091C8008F778093C8008091E9
:102BD000CE00089500000000000000000197D1F72A
:102BE00008950C945B2F0E94632F0895EF92FF923B
:102BF0000F931F93CF93DF937C0180E090E00E94BE
:102C00005B2F182FF701838381E090E00E945B2FF8
:102C1000082FF701828382E090E00E945B2FD82F7B
:102C2000F701818383E090E00E945B2FC82FF701BA
:102C3000808384E090E00E945B2F100FD10FCD0FB6
:102C40008C1711F08FEF01C081E0DF91CF911F91C0
:102C50000F91FF90EF900895CF93DF93EC0185E003
:102C600090E00E945B2F888381E0DF91CF910895EF
:102C7000FC01608186E090E00E94632F81E008956E
:102C8000CF93DF93EC0186E090E00E945B2F888376
:102C900081E0DF91CF9108950F931F93CF93DF933E
:102CA0008C01C0E0D0E0CE0108960E945B2FF801B5
:102CB00081938F012196C031D105A9F781E0DF9181
:102CC000CF911F910F9108950F931F93CF93DF938F
:102CD0008C01C0E0D0E0F80161918F01CE0108962F
:102CE0000E94632F2196C031D105A9F781E0DF91C1
:102CF000CF911F910F910895CF93DF93EC0187E05F
:102D000090E00E945B2F888381E0DF91CF9108954E
:102D1000FC01608187E090E00E94632F81E00895CC
:102D2000F8940895789408950E949016FFCFCF9359
:102D3000DF93CDB7DEB7A3970FB6F894DEBF0FBE13
:102D4000CDBF0E94301B8093A10B8F3F21F460E028
:102D50008EE00E943B1A0E94A92880FF04C060E018
:102D600086E00E943B1A1092A40B1092B20B1092B4
:102D7000B10B1092A30B1092A20B1092B30B1092F6
:102D8000B00B8FEF80939A0B80939C0B80939B0BDF
:102D900080939D0B80939F0B80939E0B93E6909363
:102DA000F60A8093F40A9093210B80931F0B909363
:102DB0004C0B80934A0B9093770B8093750B84EBAD
:102DC0009BE029EB3BE03093B80B2093B70B90933B
:102DD000BB0B8093BA0B4EEB5BE05093BD0B409363
:102DE000BC0B3093C00B2093BF0B23EC3BE0309324
:102DF000C20B2093C10B5093C50B4093C40B48ECFE
:102E00005BE05093C70B4093C60B3093CA0B2093E3
:102E1000C90B1092B60B1092B50B1092CC0B1092FE
:102E2000CB0B1092A70B1092A60B9093EB0A8093FA
:102E3000EA0A60E274E2CE0101960E94E12A40E8CB
:102E400050E06FE27AE0CE0101960E94E52A85E526
:102E500080932F0A19861C861D861E861F86188A57
:102E6000198A1A8A1B8A1C8A1D8A1E8A1F8A188E32
:102E7000198E1A8E1B8E1C8E1D8E1E8E1F8E18A2F2
:102E800019A21AA21BA281E0888792E09A878B87F9
:102E9000CE0101960E94551FA3960FB6F894DEBF8F
:102EA0000FBECDBFDF91CF91089504EF1AE0C0E0CF
:102EB000F801D080FFEFDF1222C0CF5F055D1F4F0A
:102EC000C430B1F70E94441E2BE28202C0011124DB
:102ED000FC01E451F54F82858093B30BF093B20B64
:102EE000E093B10BF093A30BE093A20B8093A40BA0
:102EF0000E94572B0E94412B0E945B2B16C084EF2F
:102F0000E82E8AE0F82ED0E0CD1741F0F70180815D
:102F1000D81204C06D2D85E00E943B1ADF5FFBE2F2
:102F2000EF0EF11CD43081F7C8CFFFCFCF92DF92E4
:102F3000EF92FF920F931F93CF93DF93EC018B01DE
:102F40007A018985823021F08091A00B888301C0AD
:102F500018828091A00B843020F060E087E00E940E
:102F60003B1A8985823029F08091A00B8F5F809376
:102F7000A00B8091A00B811103C081E08093A00B76
:102F800038812BE23203F0011124E451F54F118313
:102F900000838885828738813203F0011124E4514F
:102FA000F54F83E0818738813203F0011124E45129
:102FB000F54F308708810203800111240451154F19
:102FC000F8011582CE010B960E94B223F80161A38D
:102FD00072A383A394A38B859C85AD85BE8588331E
:102FE0009948A144B10520F0688186E10E943B1A0E
:102FF000C880DD24C7FCD094CE014B960E94B2233A
:103000001BE21C9DF0011D9DF00D1124E451F54FB4
:10301000658B768B878B908F28812103C0011124CB
:103020009C012451354F6901F90145895689678909
:10303000708D81A192A1A3A1B4A1840F951FA61F99
:10304000B71F818F928FA38FB48FCE0143960E94BA
:10305000B223F60165A376A387A390A72881210355
:10306000F0011124E451F54F85A196A1A7A1B0A5C7
:10307000858F968FA78FB0A381E090E092A781A75C
:10308000F382E2828487DF91CF911F910F91FF90AD
:10309000EF90DF90CF9008950C943A2485E690E06D
:1030A0000895E091B10BF091B20B84870895E091FF
:1030B000B10BF091B20B84850895FC0180911A0A3E
:1030C000882331F0DB018C9380910A07808381E0B3
:1030D000089580911A0A882309F483C08DE095E051
:1030E0000E94D91180910A071F928F938BE493E07D
:1030F0009F938F930E94832E89E095E00E94D911BF
:103100000F900F900F900F9080911A0A883110F055
:1031100010921A0AE0911A0A8E2F90E0FC01319762
:10312000E631F10508F046C0E654FF4F0C94C92D76
:103130008DEC94E041C086EA94E03EC082E994E0E0
:103140003BC08CE794E038C081E694E035C08BE466
:1031500094E032C083E394E02FC080E294E02CC07E
:103160008DE094E029C08FEE93E026C08AEC93E0D6
:1031700023C08EEB93E020C083EA93E01DC084E976
:1031800093E01AC080E893E017C08FE693E014C084
:103190008BE593E011C08BE393E00EC083E293E0F4
:1031A0000BC088E093E008C087EF92E005C088EE8E
:1031B00092E002C081EE92E00E94D9116091D80B9A
:1031C0007091D90B8DE090E00E944B2E6091D80B4E
:1031D0007091D90B8AE090E00E944B2E80911A0AE0
:1031E000089580E0089513BC1092B60018BC17BC77
:1031F00016BC15BC14BC1DBA1CBA1BBA10929B009D
:1032000010929A00109299001092980010929500D6
:1032100010929400109291001092900018BA10929F
:1032200071001092B4001092B3001092B20010928C
:10323000B100E0EBF0E01082108217BA109270003B
:103240008FEF84BF0895CF93DF931F92CDB7DEB782
:1032500019828981843640F480ED97E00E94DF2650
:1032600089818F5F8983F5CF0F90DF91CF9108958A
:1032700081E090E00E945F150E9423190E942319AB
:103280000E94231981E090E00E9448150C942319B4
:1032900081E090E00E945F150E94231981E090E098
:1032A0000E9448150C942319FF920F931F93CF93FC
:1032B000DF9300D01F92CDB7DEB71F928F938BE4C0
:1032C00093E09F938F938E010F5F1F4F1F930F9378
:1032D0000E94CD2E0F900F900F900F900F900F9097
:1032E000F12CF80101900020E9F73197E01BF10B78
:1032F0008F2D90E08E179F0708F05DC0F801E80F52
:10330000F91FE0818E2F90E0FC01F097EA30F10583
:1033100008F049C0E053FF4F0C94C92D0E943819A2
:1033200002C00E9448190E9438190E9438190E9450
:1033300038190E94381937C00E9448190E9448194C
:10334000F4CF0E9448190E9448190E944819EFCFF3
:103350000E9448190E9448190E9448190E94481961
:10336000E8CF0E94481902C00E9438190E944819EB
:1033700004C00E9438190E9438190E94481906C0DA
:103380000E9438190E9438190E9438190E94481961
:1033900008C00E9438190E9438190E9438190E94EA
:1033A00038190E9448190E9423190E9423190E946B
:1033B0002319F39496CF0F900F900F90DF91CF9138
:1033C0001F910F91FF9008950E9490160E94A32ACA
:1033D0000E94901689E195E00E94D911C4E182E033
:1033E00090E00E945F1583E090E00E944815D4E6CB
:1033F00088EE93E00E94DF26D150D1F783E090E081
:103400000E945F1582E090E00E944815D4E688EEA5
:1034100093E00E94DF26D150D1F7C15001F783E03D
:1034200090E00E94481582E090E00E94481580914B
:103430000A070E9454190E94231982E090E00E941A
:103440005F150E94231982E090E00E9448150E94B7
:10345000231980911A0A0E945419C0CF80931A0A26
:10346000E091B10BF091B20B808580930A070E9426
:1034700069180E94E41980931A0A60930A070E944F
:1034800069180E94E4196F927F928F929F92AF9277
:10349000BF92CF92DF92EF92FF920F931F93CF9341
:1034A000DF9387E295E00E94D911E091B10BF09192
:1034B000B20B8085282F332727FD30953F938F93BC
:1034C0008EE493E09F938F930E94832EE091B10B43
:1034D000F091B20BC281D381DF93CF9382E893E066
:1034E0009F938F930E94832E88811F928F9387E5ED
:1034F00093E09F938F930E94832EE091B10BF09104
:10350000B20B81818F9380818F9384E693E09F93A8
:103510008F930E94832E8091B20B8F938091B10B79
:103520008F938EE693E09F938F930E94832ECCEE31
:10353000DAE0EDB7FEB774960FB6F894FEBF0FBE93
:10354000EDBF00E010E08EE7682E83E0782E97E56F
:10355000892E93E0992E24E6A22E23E0B22E3EE699
:10356000C32E33E0D32EEA80FB80FF92EF921F93AD
:103570000F937F926F920E94832EF70180811F929A
:103580008F939F928F920E94832E89818F9388813F
:103590008F93BF92AF920E94832EDF93CF93DF92DF
:1035A000CF920E94832E0F5F1F4FAB96EDB7FEB7F1
:1035B00072960FB6F894FEBF0FBEEDBF0430110532
:1035C00091F6DF91CF911F910F91FF90EF90DF90D7
:1035D000CF90BF90AF909F908F907F906F90089505
:1035E000CF93DF93E091B10BF091B20BC281D38105
:1035F0008881853539F00E94431A81E00E942E1A95
:1036000085E58883E091B10BF091B20B80819181C7
:103610008115924438F00E94431A82E1DF91CF91E4
:103620000C942E1ADF91CF9108952BE28202C001F3
:103630001124FC01E451F54FA281B3818C918535B1
:1036400019F085E58C9308C08081918181159244A1
:1036500028F082E10E942E1A8FEF089581E00895EC
:103660000F931F934091C2075091C3076091C40705
:103670007091C50780E090E08A019B01082E04C08C
:1036800036952795179507950A94D2F700FD19C02E
:1036900001E010E020E030E0082E04C0000F111F10
:1036A000221F331F0A94D2F7402B512B622B732B0E
:1036B0004093C2075093C3076093C4077093C50734
:1036C00005C0019680329105B9F68FEF1F910F91D9
:1036D0000895E091B10BF091B20B658576858785F1
:1036E00090890895CF92DF92EF92FF920F931F93EC
:1036F000CF93DF93C12CD12C7601C394082E04C044
:10370000CC0CDD1CEE1CFF1C0A94D2F74091C207C2
:103710005091C3076091C4077091C5074C215D218A
:103720006E217F21452B462B472B09F460C0082FC3
:103730000E949016E5EFFAE0B701A601409550957A
:103740006095709513E0DF0111978C918F3F39F1EF
:1037500084819581A681B7818C159D05AE05BF0535
:1037600051F410861186128613869F01225031096A
:10377000E9011882108384239523A623B723848329
:103780009583A683B78380859185A285B38584239D
:103790009523A623B72380879187A287B387BB96FB
:1037A000DBE0E13AFD0779F68EEF9FEFAFEFBFEF79
:1037B00004C0880F991FAA1FBB1F0A95D2F740911A
:1037C000C2075091C3076091C4077091C507842355
:1037D0009523A623B7238093C2079093C307A09392
:1037E000C407B093C5070E94921681E001C08FEF15
:1037F000DF91CF911F910F91FF90EF90DF90CF90CD
:1038000008950F931F9341E050E060E070E08A015B
:103810009B0104C0000F111F221F331F8A95D2F78E
:10382000D901C801E091B10BF091B20B45855685E5
:10383000678570890423152326233723012B022B48
:10384000032BD1F080959095A095B09548235923EE
:103850006A237B23458756876787708B4189528906
:103860006389748984239523A623B723818B928B44
:10387000A38BB48B81E001C08FEF1F910F9108954E
:10388000282F4091C2075091C3076091C4077091DF
:10389000C507082E04C076956795579547950A94F5
:1038A000D2F740FF1DC0E091B10BF091B20B81E067
:1038B00090E0A0E0B0E004C0880F991FAA1FBB1FD2
:1038C0002A95D2F74585568567857089842B952B77
:1038D000A62BB72B85879687A787B08B81E00895A5
:1038E0008FEF0895CF92DF92EF92FF92CF93C12C8A
:1038F000D12C7601C39404C0CC0CDD1CEE1CFF1C43
:103900008A95D2F78091C2079091C307A091C4070E
:10391000B091C5078C219D21AE21BF21892B8A2B17
:103920008B2B11F481E044C00E949016E3EFFAE083
:10393000A5EFBAE0C0E083E090819130B9F4428510
:103940005385648575854C215D216E217F21452B32
:10395000462B472B59F08C9316861786108A118AAE
:103960001082C286D386E486F586C1E090819230CB
:10397000A1F442855385648575854C155D056E05FA
:103980007F0559F48C9316861786108A118A108247
:103990001286138614861586C1E0BB969B969BE023
:1039A000EF39F90749F60E949216C11105C082E06D
:1039B0000E9451188FEF01C081E0CF91FF90EF90EE
:1039C000DF90CF9008950F931F93E091B10BF0918A
:1039D000B20B0585168527853089062317232823F2
:1039E0003923011511052105310511F1DC01CB0148
:1039F000818B928BA38BB48B21E027830090A10B4A
:103A000004C0B695A795979587950A94D2F780FF3D
:103A100003C00E94BD2004C080E090E00E948E2080
:103A2000E091B10BF091B20B01891289238934899D
:103A3000C901B8011F910F9108959091B00B911198
:103A40001DC090919A0B9F3F31F090919D0B9F3F2D
:103A500021F0E2E003C0E0E001C0E1E0F0E09F011E
:103A6000220F331FE20FF31FE656F44F8283808349
:103A7000618381E08093B00BCF01089580E090E0F6
:103A800008952BE08A39920729F08D599B4021F443
:103A900081E0089580E008958FEF08950E94411D10
:103AA0008F3F11F481E002C0823021F40E9451184E
:103AB0008FEF0895992787FD9095FC01EE0FFF1F6A
:103AC0008E0F9F1FFC01E656F44F82810895EF92FE
:103AD000FF920F931F93CF93DF931F92CDB7DEB763
:103AE0000E94411D8F3F11F481E002C0823021F419
:103AF0000E9451188FEF41C089830E9490168981DE
:103B0000E82EFF24E7FCF0948701000F111FF80155
:103B1000EE0DFF1DE656F44F9281911116C0E09113
:103B2000B10BF091B20B978192609783992787FD33
:103B30009095A92FB92F818B928BA38BB48B0E9468
:103B4000921680E090E00E948E200E0D1F1DD8017D
:103B5000A656B44F12968C911297815012968C9360
:103B60001297E091B10BF091B20B11968C91838773
:103B700081E084830E94921681E00F90DF91CF91C3
:103B80001F910F91FF90EF9008950F931F93CF9384
:103B9000DF931F92CDB7DEB70E94411D8F3F11F416
:103BA00081E002C0823021F40E9451188FEF44C09E
:103BB000482F552747FD50959A01220F331F240F98
:103BC000351F89010656144FF8012281908129176B
:103BD00094F589830E949016F80192819F5F9283E9
:103BE000E091B10BF091B20B1482E3EFFAE089811E
:103BF000992787FD9095A92FB92F23E03081323086
:103C000099F44285538564857585481759076A0775
:103C10007B0751F4228316861786108A118A108238
:103C20001286138614861586BB963BE0EF39F307A0
:103C300029F70E94921681E00F90DF91CF911F919A
:103C40000F9108950E94411D8F3F11F481E002C041
:103C5000823021F40E9451188FEF0895992787FD33
:103C60009095FC01EE0FFF1F8E0F9F1FFC01E65683
:103C7000F44F8FEF8083828381838091B00B8150DA
:103C80008093B00B81E00895E091A60BF091A70B13
:103C900080810895E091A60BF091A70B309721F059
:103CA0000380F481E02DFACF0895AF92BF92CF92B6
:103CB000DF92EF92FF920F931F93CF93DF93E091E8
:103CC000EA0AF091EB0A309709F494C00091A60B30
:103CD0001091A70B0115110509F44CC0D8014BE256
:103CE000582F5403900111242451354F79019AE043
:103CF000E90EF11C6901C4E0CC0ED11C5901DBE0D6
:103D0000AD0EB11C2C9130E0429FB001439F700D6D
:103D100011246451754FEB019C81992329F05B8537
:103D2000E7019881591740F1E6019881992369F0DC
:103D3000429FB001439F700D11246451754FEB01F8
:103D40005A85E50198815917B8F0429FB001439F09
:103D5000700D11249B012451354FE9012A85E7019B
:103D60009881291748F013960D90BC91A02D1097BB
:103D700049F602C0A0E0B0E08083C381D481D09333
:103D8000EB0AC093EA0AA017B107B1F4109749F003
:103D9000B483A383128211821296FC93EE9311973F
:103DA00006C01482138212821182FA83E983F0938F
:103DB000A70BE093A60B1EC0AC17BD0779F01196B8
:103DC0008D919C91129792838183B483A3831196E2
:103DD000CD91DC911297FC83EB8308C0148213828F
:103DE00011968D919C911297928381831296FC93E8
:103DF000EE931197DF91CF911F910F91FF90EF906C
:103E0000DF90CF90BF90AF900895CF93DF93E09174
:103E1000A60BF091A70B309709F444C0992787FDB2
:103E20009095208130E02817390781F4A381B4816F
:103E3000B093A70BA093A60B12961C921E921197FB
:103E400018C00380F481E02D309761F1208130E0CB
:103E500028173907B1F7C181D281838194819C836E
:103E60008B83A381B481109721F01296DC93CE93BB
:103E70001197A091EA0AB091EB0A109739F4F093E8
:103E8000EB0AE093EA0A148213820AC0B483A38384
:103E90001296FC93EE931197F093EB0AE093EA0AE3
:103EA00012821182DF91CF910895EF92FF920F93CA
:103EB0001F93CF93DF93EC014B815C8169817A8101
:103EC0008D819E810E94032B2F81222371F04B81D3
:103ED0005C81E12CF12C00E010E020E030E0BC013E
:103EE000CE010E9496171F820CC0E8812BE2E202ED
:103EF000F0011124E451F54F21852330B9F4918369
:103F00008083E8818BE2E802F0011124E451F54F4F
:103F100085899689A789B08D892B8A2B8B2B41F4B3
:103F200082E0818788810E94551E02C08FEF01C008
:103F300081E0DF91CF911F910F91FF90EF90089555
:103F40001F93CF93DF93CDB7DEB728970FB6F894C2
:103F5000DEBF0FBECDBF29833A834B835C836D8365
:103F60007E838F8398870E9490160E942D28182F99
:103F7000CE0101960E94B2236330710598F0E09162
:103F8000B10BF091B20B212F30E0620F731FCB0108
:103F9000A0E0B0E0858B968BA78BB08F0E94921625
:103FA00081E001C08FEF28960FB6F894DEBF0FBEF8
:103FB000CDBFDF91CF911F9108950E94D62AE09145
:103FC000B10BF091B20B85818111F7CF0895CF939A
:103FD0000E94F01A0E949016E091B10BF091B20B82
:103FE00081E090E092A781A785830E942D28C82FA9
:103FF000883F80F40E94C7272C2F30E02F5F3F4F6F
:1040000090E02817390734F482E08C0F80938309FD
:104010000E94CB270E9492160E94DD1F81E0CF9163
:104020000895E091B10BF091B20B80850E94051FBD
:10403000E091B10BF091B20B84E081870E94E71F01
:1040400081E00895CF93DF93EC010E94F01A20974E
:1040500011F4C1E0D0E00E949016E091B10BF09114
:10406000B20B81E08583D2A7C1A70E942D28C82F5B
:10407000883F80F40E94C7272C2F30E02F5F3F4FEE
:1040800090E02817390734F482E08C0F809383097D
:104090000E94CB270E9492160E94DD1F81E0DF91D3
:1040A000CF910895EF92FF920F931F93CF938C01BE
:1040B0000E949016E091B10BF091B20B81E08583E4
:1040C0000E942D28C82FE091B10BF091B20BE82E81
:1040D000F12CC701800F911FA0E0B0E0858B968B7B
:1040E000A78BB08FC83F78F40E94C7279FEFE91ACB
:1040F000F90A90E0E816F90634F482E08C0F809318
:1041000083090E94CB270E9492160E94DD1F81E046
:10411000CF911F910F91FF90EF900895CF93DF9370
:10412000EC010E949016E091B10BF091B20B21E0EE
:104130002583CE01A0E0B0E0858B968BA78BB08F56
:104140000E942D28C82F883F80F40E94C7272C2F5B
:1041500030E02F5F3F4F90E02817390734F482E0BA
:104160008C0F809383090E94CB270E9492160E9495
:10417000DD1F81E0DF91CF910895CF930E949016CB
:10418000E091B10BF091B20B81E0858386830E94B0
:104190002D28C82F883F80F40E94C7272C2F30E09D
:1041A0002F5F3F4F90E02817390734F482E08C0FDF
:1041B000809383090E94CB270E9492160E94DD1FE4
:1041C00081E0CF9108951F93CF93DF93CDB7DEB7F2
:1041D00028970FB6F894DEBF0FBECDBF29833A8370
:1041E0004B835C836D837E838F8398870E94F01A54
:1041F0000E949016E091B10BF091B20B81E08583A3
:1042000081E090E092A781A70E942D28182FCE016F
:1042100001960E94B223E091B10BF091B20BDC0148
:10422000CB01810F911DA11DB11D858B968BA78B95
:10423000B08F183F80F40E94C727212F30E02F5FF6
:104240003F4F90E02817390734F482E0810F8093C4
:1042500083090E94CB270E9492160E94DD1F81E0F5
:1042600028960FB6F894DEBF0FBECDBFDF91CF9179
:104270001F9108958F929F92AF92BF92CF92DF923B
:10428000EF92FF920F931F93CF93DF93CDB7DEB7DB
:1042900060970FB6F894DEBF0FBECDBF29873A876F
:1042A0004B875C876D877E878F87988BCE010196C1
:1042B0000E94962189809A80AB80BC80CD80DE8070
:1042C000EF80F88409851A852B853C854D855E85B0
:1042D0006F857889CE0109960E94F3218F3F61F0A6
:1042E00029853A854B855C856D857E858F85988986
:1042F0000E94E32081E001C08FEF60960FB6F89432
:10430000DEBF0FBECDBFDF91CF911F910F91FF9008
:10431000EF90DF90CF90BF90AF909F908F900895D7
:10432000E091B10BF091B20B808508950F931F932C
:10433000CF93DF93EC011C821D821E821F8280912D
:10434000A80B9091A90BA091AA0BB091AB0B8883FD
:104350009983AA83BB838091AC0B9091AD0BA09104
:10436000AE0BB091AF0B8C839D83AE83BF830E9455
:104370002D28A82FB0E023EB36EE4EE050E00E944F
:10438000192D0C811D812E813F81DC01CB01800F15
:10439000911FA21FB31F8C839D83AE83BF838C812B
:1043A0009D81AE81BF8181152AEC92072AE9A2077F
:1043B0002BE3B20798F09A5CAA49BB438C839D8398
:1043C000AE83BF8388819981AA81BB810196A11D9B
:1043D000B11D88839983AA83BB83E1CFDF91CF91FD
:1043E0001F910F9108958F929F92AF92BF92CF929B
:1043F000DF92EF92FF920F931F93CF93DF93CDB78E
:10440000DEB760970FB6F894DEBF0FBECDBFFC01DC
:1044100009831A832B833C834D835E836F83788764
:1044200089869A86AB86BC86CD86DE86EF86F88A3C
:1044300009811A812B813C814D815E816F81788554
:10444000C984DA84EB84FC848D859E85AF85B88928
:104450000C151D052E053F05F0F1C016D106E2062C
:10446000F30691F4481759076A077B07A0F1481B28
:10447000590B6A0B7B0B44835583668377831082C9
:1044800011821282138225C0481759076A077B07D9
:1044900080F401501109210931090C191D092E0957
:1044A0003F09008311832283338356536546744C3E
:1044B00008C00C191D092E093F09008311832283AE
:1044C0003383481B590B6A0B7B0B448355836683EC
:1044D000778381E001C08FEF60960FB6F894DEBF5E
:1044E0000FBECDBFDF91CF911F910F91FF90EF9045
:1044F000DF90CF90BF90AF909F908F900895FC0178
:10450000448155816681778141158AEC58078AE993
:1045100068078BE3780798F05A5C6A497B434483C9
:1045200055836683778380819181A281B3810196CF
:10453000A11DB11D80839183A283B383E1CF089530
:104540008F929F92AF92BF92CF92DF92EF92FF92A3
:104550000F931F93CF93DF93CDB7DEB760970FB65E
:10456000F894DEBF0FBECDBF09831A832B833C8333
:104570004D835E836F83788789869A86AB86BC86F7
:10458000CD86DE86EF86F88A09851A852B853C85DF
:1045900049815A816B817C81400F511F621F731FBB
:1045A000FC0140835183628373830D851E852F85B3
:1045B00038894D815E816F817885400F511F621F60
:1045C000731F44835583668377830E947F2281E033
:1045D00060960FB6F894DEBF0FBECDBFDF91CF91CE
:1045E0001F910F91FF90EF90DF90CF90BF90AF9011
:1045F0009F908F900895E8EAFBE060837183828347
:104600009383248335834683578308952F923F9263
:104610004F925F926F927F928F929F92AF92BF92D2
:10462000CF92DF92EF92FF920F931F93FC01C08015
:10463000D180E280F380C114D104E104F104E1F1FE
:1046400084819581A681B78122E4C216D104E10458
:10465000F104F0F51C012D01612C712C4301E0E007
:104660008E2F90E0A0E0B0E08C159D05AE05BF0553
:1046700088F49101A201B301C40136534546544C5C
:104680006F4F7F4F8F4F9F4F19012A013B014C0104
:10469000EF5FE6CF83EBA82E96EEB92E2EE0C22E6A
:1046A000D12CE12CF12C00E010E09101A201B3012A
:1046B000C4010E946C2D0AC0648175818681978136
:1046C00023EB36EE4EE050E00E94482DC90102C0B7
:1046D00080E090E01F910F91FF90EF90DF90CF90DE
:1046E000BF90AF909F908F907F906F905F904F9012
:1046F0003F902F900895CF92DF92EF92FF92CF9349
:10470000DF93CDB7DEB728970FB6F894DEBF0FBEA4
:10471000CDBF6B017C012AE0F694E794D794C7944F
:104720002A95D1F7C982DA82EB82FC829B01AC0127
:1047300033704427552763EB76EE8EE090E00E94BD
:10474000242D2C2D3A814B815C8128960FB6F8944C
:10475000DEBF0FBECDBFDF91CF91FF90EF90DF9016
:10476000CF9008952F923F924F925F926F927F92D7
:104770008F929F92AF92BF92CF92DF92EF92FF9271
:104780000F931F93FC01C080D180E280F380C1149D
:10479000D104E104F104B9F184819581A681B78146
:1047A0001C012D01612C712C4301E0E08E2F90E063
:1047B000A0E0B0E08C159D05AE05BF0588F4910121
:1047C000A201B301C40136534546544C6F4F7F4F8D
:1047D0008F4F9F4F19012A013B014C01EF5FE6CF3C
:1047E00083EBA82E96EEB92E2EE0C22ED12CE12C12
:1047F000F12C00E010E09101A201B301C4010E947C
:104800006C2DCA010BC0648175818681978123EB71
:1048100036EE4EE050E00E94482DCA01B9011F91CA
:104820000F91FF90EF90DF90CF90BF90AF909F904F
:104830008F907F906F905F904F903F902F90089552
:10484000C1E00E94F01A0E94C727843010F4C09380
:10485000A50B0E94D62A80912F0A853519F088E091
:104860000E942E1A80917E41853559F388E00E947E
:104870002E1AE7CF2F923F924F925F926F927F92C4
:104880008F929F92AF92BF92CF92DF92EF92FF9260
:104890000F931F93CF93DF9300D01F92CDB7DEB756
:1048A0000E9492160E94FB260E9419270E9421272F
:1048B0001C018AEF0E94CB27A0918309B0E023EB73
:1048C00036EE4EE050E00E94192D0091AC0B109195
:1048D000AD0B2091AE0B3091AF0B6B017C01C00E84
:1048E000D11EE21EF31EC701B60123EB36EE4EE0E9
:1048F00050E00E94482D26013701461A570A680ADF
:10490000790AD301C2010091A80B1091A90B209143
:10491000AA0B3091AB0B43EB842E46EE942E4EE067
:10492000A42EB12C680179014FEFC41AD40AE40A0D
:10493000F40A81155AEC95075AE9A5075BE3B50718
:10494000C8F02C013D012AEC521A2AE9620A2BE335
:10495000720AC301B201A50194010E94482DA3016E
:104960009201261B370B480B590BDA01C90197013D
:104970008601D8CF8093AC0B9093AD0BA093AE0B78
:10498000B093AF0B0093A80B1093A90B2093AA0B25
:104990003093AB0BE091B10BF091B20B8581882382
:1049A00039F18185843021F18781823029F0882393
:1049B00041F08681811102C085E001C083E08187DA
:1049C00014C083E081871782168285899689A7891A
:1049D000B08D892B8A2B8B2B41F4818D928DA38DE9
:1049E000B48D858B968BA78BB08F80850E94051F19
:1049F000E091B10BF091B20B85A196A1A7A1B0A552
:104A0000892B8A2B8B2B09F444C02085222309F49F
:104A100040C081858430E9F1858D968DA78DB0A148
:104A20004091830950E060E070E084179507A60785
:104A3000B70768F4622F82E00E943B1AE091B10B45
:104A4000F091B20B158E168E178E10A208C0841B23
:104A5000950BA60BB70B858F968FA78FB0A3E09110
:104A6000B10BF091B20B1085858D968DA78DB0A1FD
:104A7000892B8A2B8B2B69F4612F83E00E943B1AD0
:104A8000E091B10BF091B20B83E08187812F0E94FE
:104A9000051F85EF9AE09B838A8300E61AEE198250
:104AA0002AEFC22ED12CE12CF12C812C912C540117
:104AB0008394EA81FB81319780818F3F09F404C19F
:104AC000EA81FB8134971082882309F467C0EA8168
:104AD000FB818081843009F461C0448455846684FC
:104AE00077846091830970E080E090E04616570675
:104AF0006806790648F0461A570A680A790A448611
:104B000055866686778606C0EA81FB8114861586FF
:104B100016861786EA81FB814088518862887388EF
:104B2000461657066806790648F0461A570A680A74
:104B3000790A408A518A628A738A1EC0EA81FB819F
:104B4000208D318D428D538D621773078407950731
:104B500058F429013A01461A570A680A790A408A24
:104B6000518A628A738A08C00E94482DEA81FB81BB
:104B7000608B718B828B938BEA81FB818089918919
:104B8000A289B389892B8A2B8B2B41F4808D918D3F
:104B9000A28DB38D808B918BA28BB38BEA81FB812D
:104BA0008081833009F090C084859585A685B7857E
:104BB000892B8A2B8B2B09F074C0DF0112978C9103
:104BC0009F01235031098823A9F0F90180818823AE
:104BD00089F0B501A4010090A10B04C0440F551F3A
:104BE000661F771F0A94D2F7EA81FB8140875187BD
:104BF000628773871C92F9011082EA81FB81A0A170
:104C0000B1A1A130B10519F5848D958DA68DB78D13
:104C1000848B958BA68BB78B92E0492E408280893E
:104C20009189A289B38984879587A687B787808D64
:104C3000918DA28DB38D892B8A2B8B2B21F4C48669
:104C4000D586E686F78689810E94551E2AC0EA81AC
:104C5000FB81448D558D668D778D448B558B668B8E
:104C6000778B408C518C628C738C1197A3019201CD
:104C70000E94192D6487758786879787608B718B53
:104C8000828B938B45284628472821F4C486D586F5
:104C9000E686F78644244394512CEA81FB8151A295
:104CA00040A2EA81FB8184859585A685B78500971A
:104CB000A105B10549F0A80160E070E084179507EF
:104CC000A607B70708F48C01F981FF5FF9832A81F1
:104CD0003B81255D3F4F3B832A83F43009F0E9CEC9
:104CE0000E94441EF82E3BE28302F0011124E4519D
:104CF000F54F22852093B30BF093A30BE093A20B07
:104D00008823D9F085A196A1A7A1B0A5892B8A2BCC
:104D10008B2B99F0858D968DA78DB0A18A3F91053B
:104D2000A105B10550F4A80160E070E08417950773
:104D3000A607B70710F48C0105C00B3F110510F052
:104D40000AEF10E02093A40BF093B20BE093B10BA9
:104D5000009383090E942D28282F30E02F5F3F4FBA
:104D60002017310740F00E942D28082F10E00E5F19
:104D70001F4F00938309F1101092A50B802F0E9402
:104D8000CB276CED75E0C1010E9433270E94502BA8
:104D90000F900F900F90DF91CF911F910F91FF9087
:104DA000EF90DF90CF90BF90AF909F908F907F90CB
:104DB0006F905F904F903F902F900C945B2B000072
:104DC00000000000000000000000000000000000E3
:104DD000000000000000019791F708951092210152
:104DE000089589E0809321018DE89CE39093290147
:104DF00080932801089510922501109224010895AE
:104E0000CF93DF9300D0CDB7DEB78091240190918E
:104E100025019A83898389819A810F900F90DF9170
:104E2000CF91089510928100089581E080938100D0
:104E3000089583B5816083BD10928500109284002F
:104E40000895CF93DF9300D0CDB7DEB78091840073
:104E5000909185009A83898389819A810F900F9020
:104E6000DF91CF910895CF92DF92EF92FF92CF938F
:104E7000DF93EC01CC0FDD1FC9378FEFD80710F09F
:104E8000C0E0D0E06B01E12CF12CCC0EDD1EE11C6A
:104E9000F11C81E0C816D104E806F10440F081E07D
:104EA000E81AF1080E942127C817D907D8F30E94F1
:104EB00021278C159D05D8F3DF91CF91FF90EF90BE
:104EC000DF90CF9008951092B100E0E7F0E080818C
:104ED0008D7F808380818E7F808308958093B20050
:104EE0000895E0E7F0E080818360808383E0809331
:104EF000B100089583B5826083BD1092B200109214
:104F00000F07109283090895CF93DF938EEF80935C
:104F1000830980E28093B600809183098093B30077
:104F200083E087BB92E09093B0008093B10093B58B
:104F3000926093BD87BB84BD83B5826083BD1092B0
:104F4000800081E08093810010928500109284009F
:104F500083B5826083BD83B5816083BD10922001DB
:104F6000C4E2D1E01982188283B5826083BD83B523
:104F7000816083BD0E947A27198218820E9471275E
:104F80000E94F12610920F07DF91CF910895809132
:104F9000B3008F5F089581508093B300089581110D
:104FA00002C0109271008FEF0895811106C0109217
:104FB00095001092940081E008958FEF089581117B
:104FC00005C08091940090919500089580E090E054
:104FD0000895811105C082E08093710081E00895F9
:104FE0008FEF0895811135C0CB010197059710F41B
:104FF000609380091092900088E080939100509314
:1050000099004093980030936D0620936C06809130
:105010008009813021F480919100816011C082303B
:1050200021F48091910082600BC0833021F4809143
:105030009100836005C0843031F4809191008460D8
:105040008093910008C0853031F480919100856093
:10505000F7CF8FEF089581E008958091B200089511
:105060001F920F920FB60F92112460E08AE00E9407
:105070003B1AFFCF0F920FB60F921F922F923F92C3
:105080004F925F926F927F928F929F92AF92BF9258
:10509000CF92DF92EF92FF920F931F932F933F9344
:1050A0004F935F936F937F938F939F93AF93BF9330
:1050B000CF93DF93EF93FF93A091B10BB091B20B1D
:1050C0000DB60D920EB60D921F92A091EB08B09105
:1050D000EC081E90BEBFADBF08951F920F920FB691
:1050E0000F9211240BB60F922F933F934F935F9320
:1050F0006F937F938F939F93AF93BF93EF93FF93A0
:10510000E0916C06F0916D06309711F0099504C09E
:1051100060E08AE00E943B1AFF91EF91BF91AF914E
:105120009F918F917F916F915F914F913F912F91BF
:105130000F900BBE0F900FBE0F901F9018951F92EF
:105140000F920FB60F9211240F900FBE0F901F9069
:10515000189504B603FE02C080E101C080E004B6E9
:1051600002FE06C094B79B7F94BF04B600FE846025
:1051700004B601FE05C094B79D7F94BF8260089578
:1051800081110CC004B600FE04C094B79E7F94BF8A
:1051900001C081E09091B000911181E008958111EA
:1051A00002C0E89A39C0813011F4E99A089582303A
:1051B00011F4EA9A31C0833021F480916B00816050
:1051C00029C0843021F480916B00826023C0853037
:1051D00021F480916B0084601DC0863021F48091A1
:1051E0006B00886017C0873021F480916B0080616C
:1051F00011C0883021F480916B0080620BC089302F
:1052000021F480916B00806405C08A3039F480916C
:105210006B00806880936B0081E008958FEF0895A4
:10522000811102C0E89839C0813011F4E9980895DD
:10523000823011F4E99831C0833021F480916B0001
:105240008E7F29C0843021F480916B008D7F23C034
:10525000853021F480916B008B7F1DC0863021F456
:1052600080916B00877F17C0873021F480916B009D
:105270008F7E11C0883021F480916B008F7D0BC030
:10528000893021F480916B008F7B05C08A3039F41E
:1052900080916B008F7780936B0081E008958FEF92
:1052A0000895811126C05093D10B4093D00B61110A
:1052B00004C0809169008C7F3DC0613049F48091C9
:1052C00069008D7F8093690080916900816032C0A0
:1052D000623049F480916900826080936900809116
:1052E00069008E7F27C0633039F580916900836043
:1052F00021C0813049F55093CF0B4093CE0B611103
:1053000004C080916900837F15C0613049F48091A9
:105310006900877F809369008091690084600AC07A
:10532000623061F4809169008860809369008091A7
:1053300069008B7F8093690081E008956330E1F715
:10534000809169008C60F6CF823031F55093D30B99
:105350004093D20B611104C0809169008F7CEACF29
:10536000613049F4809169008F7D8093690080915C
:1053700069008061DFCF623049F48091690080620A
:1053800080936900809169008F7ED4CF6330A1F64D
:10539000809169008063CECF8350883050F4809133
:1053A00068008160809368005093D50B4093D40BC4
:1053B000C3CF8FEF08951F920F920FB60F92112453
:1053C0000BB60F922F933F934F935F936F937F93FF
:1053D0008F939F93AF93BF93EF93FF93E091D40B81
:1053E000F091D50B309711F0099504C060E08AE088
:1053F0000E943B1AFF91EF91BF91AF919F918F91C6
:105400007F916F915F914F913F912F910F900BBEC4
:105410000F900FBE0F901F9018951F920F920FB60E
:105420000F9211240BB60F922F933F934F935F93DC
:105430006F937F938F939F93AF93BF93EF93FF935C
:10544000E091D00BF091D10B309711F0099504C089
:1054500060E08AE00E943B1AFF91EF91BF91AF910B
:105460009F918F917F916F915F914F913F912F917C
:105470000F900BBE0F900FBE0F901F9018951F92AC
:105480000F920FB60F9211240BB60F922F933F93EA
:105490004F935F936F937F938F939F93AF93BF933C
:1054A000EF93FF93E091CE0BF091CF0B309711F07B
:1054B000099504C060E08AE00E943B1AFF91EF91D9
:1054C000BF91AF919F918F917F916F915F914F911C
:1054D0003F912F910F900BBE0F900FBE0F901F901A
:1054E00018951F920F920FB60F9211240BB60F92C0
:1054F0002F933F934F935F936F937F938F939F93DC
:10550000AF93BF93EF93FF93E091D20BF091D30B46
:10551000309711F0099504C060E08AE00E943B1AC0
:10552000FF91EF91BF91AF919F918F917F916F917B
:105530005F914F913F912F910F900BBE0F900FBE37
:105540000F901F901895A8959FB7F89484B7877F00
:1055500084BFE0E6F0E080818861808310829FBF95
:1055600008959FB7F894A89584B7877F84BFE0E635
:10557000F0E08081886180838DE080839FBF089503
:1055800004B603FE02C08FEF089581E00895A89548
:105590000895089583B7817F866083BF83B7816054
:1055A00083BF889583B78E7F83BF089583B7817F3C
:1055B00083BF83B7816083BF889583B78E7F83BFA6
:1055C0000895FC01768365830895EF92FF920F930F
:1055D0001F93CF93DF938C017B01EA014032510589
:1055E00018F481E10E942E1A2197CE0DDF1DF801DB
:1055F000D283C183F482E382DF91CF911F910F9117
:10560000FF90EF90089525E5FA012083FB01329782
:105610009083319680833397118210823297118262
:105620001082329711821082329711821082329743
:105630001182108232971182108232971182108269
:105640003297118210823297118210823297118222
:105650001082329711821082329711821082329713
:105660001182108232971182108232971182108239
:10567000329711821082CB018497FC011182108233
:10568000089585E580937E41EEEFF1E4F093EC0818
:10569000E093EB088CE498E190838093FF410895B8
:1056A0008CE498E19093FE418093FF4108950E941D
:1056B00084270C949216A091A20BB091A30BCD91CC
:1056C000CDBFDD91DEBFFF91EF91DF91CF91BF9113
:1056D000AF919F918F917F916F915F914F913F918A
:1056E0002F911F910F91FF90EF90DF90CF90BF907F
:1056F000AF909F908F907F906F905F904F903F9072
:105700002F901F900F900FBE0F9018950E942D1292
:1057100080E190E00E94B11540910D0750910E0775
:105720006DE082E00E94180780910D0790910E07AE
:105730000E945E050E947404789410920C071092E7
:105740000B0781E080936B060E94971681E090E042
:1057500090930E0780930D0782E090E00E94481519
:1057600083E090E00E94481581E090E00E94481597
:1057700080E090E00E94481520E030E0A90160E060
:1057800070E0CB010E94FB220E943A040E94551750
:1057900080E090E008956F927F928F929F92AF92F7
:1057A000BF92CF92DF92EF92FF920F931F93CF930E
:1057B000DF93CDB7DEB72C970FB6F894DEBF0FBEE0
:1057C000CDBF6C015B017A01FC01178216828381D7
:1057D00081FF0EC1CE0101964C01F6010381F50156
:1057E00003FD159103FF11915F01112309F4FCC022
:1057F000153249F403FD159103FF11915F01153234
:1058000011F020E01BC0B601812F90E00E944B2ECA
:1058100037017301E2CF112309F4E6C0612F70E074
:105820008DE395E02C870E94DE2D2C85892B49F095
:10583000F50103FD159103FF11915F0127FFEBCFE8
:1058400009C0133229F01C3609F0D5C02068F0CF0A
:1058500020E1EECF022F112309F4C6C0612F70E0C2
:1058600086E395E02C870E94DE2D2C85892B41F064
:105870003701F4E06F0E711CB6018FE390E011C0A8
:10588000133639F0133781F0133519F5022F016003
:105890000BC0370182E0680E711CB601F7018081F0
:1058A00091810E944B2EB5CF3701F2E06F0E711C33
:1058B000F701E080F180F70100FD859100FF819103
:1058C0007F01882309F4A5CFB60190E00E944B2EFA
:1058D000F2CF143611F0193629F5370127FF09C028
:1058E000F4E06F0E711CF7016081718182819381F8
:1058F0000AC0F2E06F0E711CF70160817181882788
:1059000077FD8095982F022F0F7E97FF08C0909506
:105910008095709561957F4F8F4F9F4F00642AE06F
:1059200030E033C0103799F040F41835B1F01F362D
:1059300009F05AC028E030E014C0153719F01837C4
:1059400041F052C0022F0F7E2AE030E00AC0022F41
:105950000061046220E130E004C0022F046020E115
:1059600032E0370107FF09C0F4E06F0E711CF70148
:10597000608171818281938108C0F2E06F0E711C99
:10598000F7016081718180E090E0A4010E94FD2E0A
:10599000182F181906FF05C0B6018DE290E00E948D
:1059A0004B2E04FF15C0FE01E10FF11D80818033F5
:1059B00079F0B60180E390E00E944B2E02FF08C010
:1059C0000072802F90E0B601885A9F4F0E944B2EA4
:1059D0001150F401E10FF11D8081B60190E00E94A9
:1059E0004B2E1111F5CF15CFF6018681978105C099
:1059F0008FEF9FEF02C0022F31CF2C960FB6F89495
:105A0000DEBF0FBECDBFDF91CF911F910F91FF90F1
:105A1000EF90DF90CF90BF90AF909F908F907F904E
:105A20006F9008950E94CF2DB7FF0895821B930BAE
:105A300008950E94CF2DA59F900DB49F900DA49F17
:105A4000800D911D11240895DB018F939F930E9477
:105A5000192DBF91AF91A29F800D911DA39F900D15
:105A6000B29F900D11240895AA1BBB1B51E107C0E2
:105A7000AA1FBB1FA617B70710F0A61BB70B881FDE
:105A8000991F5A95A9F780959095BC01CD0108956D
:105A9000A1E21A2EAA1BBB1BFD010DC0AA1FBB1F32
:105AA000EE1FFF1FA217B307E407F50720F0A21BA4
:105AB000B30BE40BF50B661F771F881F991F1A9411
:105AC00069F760957095809590959B01AC01BD013B
:105AD000CF010895689401C0E8948F929F92CF936C
