:100000000C9413030C944C2F0C947E2F0C94B02F53
:100010000C9432030C9432030C9432030C9432038C
:100020000C9432030C941A2F0C9432030C94320368
:100030000C9432030C94792D0C9432030C94792D8A
:100040000C9432030C9432030C9432030C9432035C
:100050000C9432030C9432030C9432030C9432034C
:100060000C9432030C9432030C9432030C9432033C
:100070000C9432030C9432030C9432030C9432032C
:100080000C94AC2D0C9432030C9432030C94320378
:100090000C9432030C9432030C9432030C9420061B
:1000A0000C9432030C9432030C9432030C943203FC
:1000B0000C9432030C9432030C9432030C943203EC
:1000C0000C9432030C9432030C9432030C943203DC
:1000D0000C9432030C9432030C9432030C943203CC
:1000E0000C9432030C94BB100C94AC100C947C1048
:1000F0000C946C110C946D100C945E100C944F10B9
:100100000C9440100C9432030C9432030C94320380
:100110000C9432030C9432030C9432030C9432038B
:10012000E012ED12FA120713141321132E135113B8
:100130005F136D137B1389139713A513C813CA1389
:10014000CC13CE13D013D213D413F31316143A14C2
:100150005D148014A314C61400150D151A15271567
:10016000341541154E156715741581158E159B159F
:10017000A815B515D21CD81CDB1CDE1CE11CE41C28
:10018000EA1CE71CED1CF01CF31CFC1CFF1C021DF0
:10019000051DF91CCF1CD51C081D0B1DF61CCC1C05
:1001A000F41DF71D021E071E0E1E171E1A1E1F1E0F
:1001B000261E2F1E436F756C64206E6F7420616461
:1001C0006420736C6F74210D0A004E616E6F2D52A6
:1001D0004B2056657273696F6E20004170702074F9
:1001E000785F6275662053656E740A004661696CBB
:1001F000656420746F20726567697374657220731B
:1002000069676E616C0D0A0054444D41204552529D
:100210004F523A206372656174696E6720656E6142
:10022000626C65207369676E616C206661696C65DC
:10023000640D0A0054444D41204552524F523A2019
:100240006372656174696E67207478207369676E84
:10025000616C206661696C65640D0A0054444D410F
:10026000204552524F523A206372656174696E673D
:10027000207278207369676E616C206661696C65B5
:10028000640D0A0054444D412054583A20576F6B76
:1002900065207570206F6E2077726F6E67207369AE
:1002A000676E616C0D0A0054444D412054583A2049
:1002B0004572726F722063616C6C696E672065763F
:1002C000656E7420776169740D0A000D0A4E616EC7
:1002D0006F2D524B205461736B205374617469739A
:1002E000746963733A0D0A000D0A000D0A2020207C
:1002F0004F766572666C6F77204572726F7220530D
:1003000074617475733A20000D0A2020204B6572C9
:100310006E656C2056696F6C6174696F6E733A20FC
:10032000000D0A202020507265656D7074696F6E33
:10033000733A20000D0A202020537761702D696EDA
:10034000733A20000D0A20202054696D65205B4D12
:10035000696E2C4C6173742C4D61785D3A20000DF0
:100360000A202020546F74616C204350553A2000BD
:100370000D0A20202049646C65205461736B204471
:1003800065657020536C6565702054696D653A2011
:10039000000D0A202020546F74616C20537973740F
:1003A000656D20557074696D653A20002054617345
:1003B0006B2049443A2000554E4B4F574E0045782C
:1003C0007465726E616C2052657365740042726F61
:1003D000776E204F757420446574656374004661C0
:1003E000696C656420746F20637265617465205365
:1003F000656D6170686F7265004661696C65642047
:10040000746F20637265617465205369676E616CF7
:10041000004B65726E656C2066756E6374696F6EF5
:10042000206E6F7420696D706C656D656E746564A7
:10043000004465766963652044726976657220457B
:1004400072726F72005761746368646F67205265DF
:100450007374617274005357205761746368646FDA
:100460006720526573746172740054696D657220FF
:100470004F766572666C6F7700556E68616E646C5E
:10048000656420496E746572727570742056656378
:10049000746F72004C6F7720566F6C7461676500E3
:1004A0004578747261205461736B20737461727447
:1004B00065642C206973206E726B5F6366672E68BB
:1004C000206F6B3F0049646C65206F72204B657232
:1004D0006E656C20537461636B204F766572666C39
:1004E0006F7700556E65787065637465642052653A
:1004F0007374617274004475706C696361746564CF
:10050000205461736B204944005363686564756CC3
:100510006572204D69737365642057616B657570F2
:10052000005461736B20526573657276652056695D
:100530006F6C617465640052657365727665204501
:1005400072726F7220696E205363686564756C65A2
:100550007200496E76616C696420537461636B202C
:10056000506F696E746572005461736B20537461CF
:10057000636B204F766572666C6F770053746163AE
:100580006B20776173206E6F7420646566696E6599
:1005900064206173206C6172676520656E6F75679A
:1005A0006821005461736B20706572696F642074F8
:1005B0006F6F206C617267652E20506572696F6481
:1005C000206D757374206265206C65737320746888
:1005D000616E203631207365636F6E64732E00295F
:1005E0003A20002A4E524B204552524F5228004E7C
:1005F000524B205265626F6F742E2E2E0D0A000D25
:100600000A535441434B2044554D500D0A00454672
:100610004765666700202B2D2E3031323334353656
:1006200037383968000011241FBECFEFD1E4DEBF98
:10063000CDBF13E0A0E0B2E0E8EEFBE600E00BBFC8
:1006400002C007900D92AE3BB107D9F71CE0AEEBAC
:10065000B3E001C01D92A530B107E1F70E94C5309B
:100660000C94F2350C946F2D86EAE82E92E3D92E85
:1006700027EAC22E30EDB32E4DE1A42E51ED952E7A
:100680006CE3862E73E0772EEDE36E2EFF24F39459
:10069000109215068091B5069091B6069C012F5FC9
:1006A0003F4F3093B6062093B5068093BA08E09288
:1006B000A406D092A50662E084EA96E00E94DA05DC
:1006C000C092A40667E084EA96E00E94DA0581E021
:1006D00090E0EC012196FC01EC55F94F2081FC01E2
:1006E000E654F74F2083CE01C730D10591F7B09281
:1006F000A406A092A50662E084EA96E00E94DA05CC
:100700009092A40667E084EA96E00E94DA058E01E2
:100710000F5F1F4FFE01E256F94F8081C654D74F3D
:100720008883E8010D30110591F78092A40670923C
:10073000A50662E084EA96E00E94DA056092A406CB
:1007400067E084EA96E00E94DA05F801E856F94F7E
:100750008081F801E654F74F80830F5F1F4F03310C
:10076000110599F7F09215060E94CC2391CF0E94B3
:1007700075251F928F9388E692E09F938F930E9436
:10078000B4330F900F900F900F900E947609811153
:1007900007C080911506811103C00E94CC23F5CFBC
:1007A000C0E089E7E82E82E0F82E0AEB18E081E04D
:1007B00090E00E94E6151F92CF938091B8068F9328
:1007C0008091B7068F93FF92EF921F930F930E9431
:1007D000FE33CF5FF80101900020E9F73197EA5B23
:1007E000F84041E04E0F20E06AEB78E083E997E0C3
:1007F0000E9441072DB73EB7285F3F4F0FB6F894D0
:100800003EBF0FBE2DBF813041F481E090E00E94D9
:10081000FD158BED91E00E94AC120E94CC23C7CF56
:10082000CF93DF931F92CDB7DEB78AEC91E00E94A1
:10083000AC121F9285E68F938FEA92E09F938F937D
:100840000E94B4330E9475251F928F938FE892E027
:100850009F938F930E94B43381E090E09093B80609
:100860008093B70641E050E06DE082E00E94B90855
:100870000FB6F894DEBF0FBECDBF0E94760981117E
:1008800003C00E94CC23F9CF8091B7069091B8069F
:100890000E94FF06813021F084EB91E00E94AC12AF
:1008A00080EAE82E82E0F82E94EBC92E92E0D92E51
:1008B0002FEBA22E22E0B22E3FEC832E32E0932EBD
:1008C00083E090E00E94E61520E0AE014F5F5F4FAD
:1008D00065EA77E086EC99E00E94E807813009F04C
:1008E00046C08091D4098F938091D3098F938091D2
:1008F000CE098F938091CD098F93FF92EF920E9442
:10090000B4338091C7098F938091C6098F93DF928A
:10091000CF920E94B4338091C9098F938091C80906
:100920008F93BF92AF920E94B43389811F928F93AD
:100930009F928F920E94B4330FB6F894DEBF0FBE21
:10094000CDBF10E08981181750F4E12FF0E0EB558E
:10095000F84F808190E00E94C8331F5FF3CF84E09E
:1009600093E00E94CE3383E090E00E94FD150E9448
:10097000CC23A6CFCF93C82F883411F0803211F446
:100980000E94FC051F92CF9382EE92E09F938F937B
:100990000E94B4330F900F900F900F908C2FCF9137
:1009A0000895E4EAF6E080ED808386E181838BE1BF
:1009B000828363E0CF010C94DA05E4EAF6E08CE38D
:1009C000808382E08183128263E0CF010C94DA0598
:1009D0000F931F93CF93DF93C4EAD6E016EA1883F0
:1009E0000DE209831A8263E0CE010E94DA051883C2
:1009F00088E3898380E88A8363E0CE010E94DA0578
:100A00001883098388E08A8363E0CE01DF91CF9168
:100A10001F910F910C94DA058F929F92AF92BF9223
:100A2000CF92DF92EF92FF92CF9364E373E08AEB71
:100A300096E00E94203040E850E065E178E08AEBE3
:100A400096E00E942430EAEBF6E0C1E0C087C7835D
:100A5000C187C287138614861586168680E8C82E3D
:100A600082EBD82E86EEE82E8EE0F82EC786D08A4E
:100A7000E18AF28A138A148A158A168A80E893EC2E
:100A8000A9ECB1E0878B908FA18FB28F81E090E0CD
:100A9000A0E0B0E0838F948FA58FB68F178E10A241
:100AA00011A212A2CF010E943A2360E174E080E714
:100AB00097E00E94203040E850E06CEE76E080E75E
:100AC00097E00E942430E0E7F7E0C087C783C18742
:100AD000C2871386148615861686C786D08AE18A51
:100AE000F28A138A148A158A168A812C91EE992E1D
:100AF00095EFA92E95E0B92E878A908EA18EB28EA1
:100B0000138E148E158E168E178E10A211A212A29D
:100B1000CF010E943A2367EB73E087E998E00E94D7
:100B2000203040E850E064E276E087E998E00E94F7
:100B30002430E7E9F8E0C087C783C187C2871386FE
:100B4000148615861686C786D08AE18AF28A138AA9
:100B5000148A158A168A878A908EA18EB28E138E79
:100B6000148E158E168E178E10A211A212A2CF010E
:100B70000E943A23CF91FF90EF90DF90CF90BF90EB
:100B8000AF909F908F900C94280D8AE08093B800CE
:100B90008FEF8093BB0084E08093BC000895809128
:100BA000BC00817008958091BC0080FDFCCF8091D5
:100BB000000208952091BC0020FDFCCF6093C0038B
:100BC000FC0120812093C10320FF09C01092BE03C5
:100BD00088EF8093000285EA8093BC000895FC01B1
:100BE000319621EC33E0D90111968A2F821B8617AA
:100BF00068F781918C93F8CF8091BC0080FDFCCF89
:100C00001092BE0388EF8093000285EA8093BC00B7
:100C100008952091BC0020FDFCCF2091BE0320FD53
:100C200004C08091BE038170089521EC33E0FC0183
:100C3000D9018A2F821B8617A0F78D918193F9CF56
:100C40001F920F920FB60F9211240BB60F922F9393
:100C50003F938F939F93EF93FF938091B9008832D6
:100C600001F140F48031D9F08831D9F0883009F0B1
:100C70004AC015C0803491F128F4883309F043C08C
:100C800085EA46C08035F1F08835E9F58091BB00F2
:100C9000E091BF03F0E0EF53FC4F80832DC0109232
:100CA000BF03E091BF038091C003E81728F581E0FE
:100CB0008E0F8093BF03F0E0EF53FC4F8081809351
:100CC000BB0018C0E091BF0381E08E0F8093BF038B
:100CD0008091BB00F0E0EF53FC4F80832091BF0375
:100CE00030E08091C00390E001972817390714F491
:100CF00085EC0EC085E80CC08091BE0381608093B6
:100D0000BE0384E905C08091B9008093000284E0AD
:100D10008093BC00FF91EF919F918F913F912F9114
:100D20000F900BBE0F900FBE0F901F9018958091E3
:100D3000F603813099F00E94630E0E945D0E80914F
:100D4000CB038F5F8093CB03833030F01092F60398
:100D500080912B090E9479208FEF08951092CB0388
:100D60000E94540F813091F560911B066D306CF13B
:100D700080910104811107C01092F60380912B0924
:100D80000E94792022C080911D0690911E060E942B
:100D90001D1280911D0690911E0620911B06820F48
:100DA000911D27FD9A95FC01319720812A3CA1F6DF
:100DB000319720812E3F81F6319720812E3B61F6BD
:100DC000319780818F3EC1F2C7CF81E008950895A9
:100DD0000C94AC1181E080930104089581E080932C
:100DE000010408958091CE030895009731F0909307
:100DF000CD038093CC0381E008958FEF0895909305
:100E000004048093030481E08093020408958FEF2B
:100E1000089580E090E00895803220F40E94AF0DA4
:100E200081E008958FEF08958B3168F4682F8093E7
:100E3000F40324E132E140E254E288E196E00E94CA
:100E4000F10D81E008958FEF08959093FC03809356
:100E5000FB03EAEDF3E0DC0120E432E44FE050E094
:100E60000E944A326483758386839783108211823D
:100E70001282138281E008959093FA038093F9031C
:100E80000895CF92DF92EF92FF92CF93DF9300D03D
:100E9000CDB7DEB76C017B018091FD03813009F491
:100EA0008DC0442309F48AC06115710509F486C018
:100EB000C114D10409F482C0211108C080912C0909
:100EC0002A8349830E94472049812A8181E08093B7
:100ED000FD038BE794E09093E1068093E006F60132
:100EE000818180937C04808180937B0485819681BD
:100EF00090937E0480937D0480910004809380040D
:100F000010927F04818592850196928781879093C4
:100F100082048093810483818093840482818093FE
:100F200083043091FE03F0E13F9FC0011124832B25
:100F3000809385045E2DF7018CE090E03E2F351BF9
:100F4000341750F43191A091E006B091E106A80F5A
:100F5000B91F3C930196F2CF445F4093DF06211105
:100F60002BC081E090E0A0E0B0E0BC01CD0100909A
:100F70002C0904C0660F771F881F991F0A94D2F7A7
:100F80000E94EA206B017C016115710581059105C4
:100F900021F487EA92E00E94AC1200902C0904C070
:100FA000F694E794D794C7940A94D2F7C0FC04C08F
:100FB00084E892E00E94AC1281E001C08FEF0F90B4
:100FC0000F90DF91CF91FF90EF90DF90CF90089539
:100FD0008F929F92AF92BF92CF92DF92EF92FF9249
:100FE0000F931F93CF93DF931F92CDB7DEB74C01C2
:100FF0008B015A018091F60321111CC08130F1F45C
:1010000080912B0929830E94472081E090E0A0E095
:10101000B0E0BC01CD0100902B0904C0660F771F22
:10102000881F991F0A94D2F70E94EA206B017C0165
:10103000298104C0813011F48FEF7CC080911B06A0
:101040008C30D4F38C50D5018C9380E0F5019081E5
:10105000891778F4482F50E0E0911D06F0911E06A4
:10106000E40FF51F9485F801E40FF51F90838F5F5F
:10107000EDCF80912006992787FD9095D4011E968B
:101080009C938E931D97809121061F968C931F979A
:101090008091220650968C9350978091230651960A
:1010A0008C935197E0911D06F0911E06858190E08A
:1010B000982F88273481832B18969C938E931797AB
:1010C000838190E0982F88273281832B16969C93FA
:1010D0008E931597818190E0982F88273081832BFC
:1010E00011969C938E93878190E0982F8827368164
:1010F000832B1A969C938E931997818590E0982F55
:1011000088273085832B13969C938E931297828524
:101110001C968C9321110BC000902B0904C0F694EF
:10112000E794D794C7940A94D2F7C0FE85CF81E0A4
:101130008093F6030F90DF91CF911F910F91FF9055
:10114000EF90DF90CF90BF90AF909F908F900895D9
:10115000009751F090931E0680931D0660931C0625
:1011600081E08093F60308958FEF08958093FE0346
:1011700008950F931F93CF93DF93162FD42F052F2E
:101180009FEF9093D1031092D0031092CF038093DE
:10119000FF031092020483E08093FE031092CE03BB
:1011A00080E094E09093FA038093F90380E896E955
:1011B000A8E9B0E08093DE039093DF03A093E003FF
:1011C000B093E1031092DA031092DB031092DC0378
:1011D0001092DD030E94371FC82F80932B098F3F89
:1011E00019F48CE592E009C00E94371FC82F809344
:1011F0002C098F3F69F484E392E00E94AC12E091E5
:10120000980BF091990B60858EE00E947F1D2DC098
:101210000E94371FC82F8093C5098F3F19F488E0BB
:1012200092E0EBCF8BE094E090931E0680931D0636
:1012300080E780931C06C1E0C093F6031092FD0383
:101240002D2F302F4FEF5FEF612F88E196E00E9446
:10125000F10D1093F403D093000483ED9FEF0E94EF
:10126000CA10C093F503C093F3038C2FDF91CF9185
:101270001F910F91089580912B090E944720809122
:101280002B09089580912C090E94472080912C09F8
:1012900008952091F603213039F4FC011082FB01FE
:1012A000108280E090E0089520911B06FC012083CD
:1012B00080912006FB01808380911D0690911E067F
:1012C000089581E08093F60308951092F3030C943F
:1012D000730D81E08093F3030E94990D8091C509FD
:1012E0000C94792081E080930E0608958091F50397
:1012F0000895CF93DF938091F603813011F08FEF43
:1013000040C0D4E60E94540FC82F813089F5609107
:101310001B066D30ACF180910104811107C0109261
:10132000F60380912B090E9479202AC080911D0626
:1013300090911E060E941D1280911D0690911E061E
:1013400020911B06820F911D27FD9A95FC01319774
:1013500020812A3CA1F6319720812E3F81F63197DA
:1013600020812E3B61F6319780818F3EC1F2C7CF3D
:1013700084E690E00E941E2CD15021F68C2F01C0F3
:1013800081E0DF91CF9108950F931F93CF939091B8
:101390000104992309F443C02091DF0684E0820F01
:1013A000382F3F7031F087FF02C083E1820F807FCA
:1013B000805F8093DF068091DF06E091E006F09188
:1013C000E106E80FF11D87FDFA9531978AEC8083DD
:1013D0008091DF06E091E006F091E106E80FF11D53
:1013E00087FDFA9532978EEF80838091DF06E0913A
:1013F000E006F091E106E80FF11D87FDFA953397BD
:101400008EEB80838091DF06E091E006F091E106AB
:10141000E80FF11D87FDFA9534978FEE8083609178
:10142000DF06062F112707FD1095E091E006F091E9
:10143000E106C0E040E0242F30E0201731073CF403
:101440002E0F3F1FD9018C91C80F4F5FF4CF992306
:1014500019F0CF010E94CE11E091DF06FF27E7FDD2
:10146000F095E657FE4FC0838DED96E00E94660E24
:101470001092FD0380912C090E94792081E0CF9188
:101480001F910F910895CF93DF9300D0CDB7DEB7B2
:101490000E94CC238091F5038823D1F38091C50964
:1014A0000E9447208A838F3F21F48CEE91E00E94B6
:1014B000AC12612C712C22242A94322C8091FF03CF
:1014C000813009F0E3C08093CE036114710409F008
:1014D00088C08091FD03811116C02BE734E0309362
:1014E000E1062093E0063FEF30937D0430937E04C5
:1014F00010927F0410928004109281041092820452
:101500008CE08093DF06E091E006F091E106909197
:10151000F9038091FA03908781871082E091E006B9
:10152000F091E1061182E091E006F091E106209150
:10153000FE0330E1239FC0011124822B828780911A
:10154000FB03838782ED93E00E947B253092DE06C9
:101550002092DD061092E3061092E2060E94C40972
:101560000E945D0E80910E06813009F045C0412C2D
:10157000512CC20165E070E00E946532892B21F494
:1015800083E090E00E94CF15E091E006F091E10643
:101590008FEF8083E091E006F091E1068183E09196
:1015A000E006F091E1061482E091E006F091E10698
:1015B00015829CE09093DF060E94C4098AE090E0C7
:1015C0000E947324EFEF4E1A5E0AF8EE4F16F3E016
:1015D0005F0679F683E090E00E94E61510920E0611
:1015E0000BC087E996E00E94EC0D2A81213021F49E
:1015F0007092F8036092F7033FEF631A730A8091C9
:10160000F9039091FA038615970528F48AE090E093
:101610000E947324ECC18090DA039090DB03A090C9
:10162000DC03B090DD03C090DE03D090DF03E090D8
:10163000E003F090E1030091D2031091D3032091D5
:10164000D4033091D5034091D6035091D7036091D4
:10165000D8037091D90382ED93E00E94852682ED34
:1016600093E00E9464262091D2033091D3034091ED
:10167000D4035091D5036091D6037091D703809124
:10168000D8039091D9030E941F2518CF672809F02D
:1016900057C00E94990D0E945D0E612C712C0E9412
:1016A00079098A8382ED93E00E947B258A818130CB
:1016B00009F5E0911D06F0911E06818190E0982FBA
:1016C00088272081822B258130E0322F22274481F8
:1016D000242B232B21F48F3F2FEF920721F0892B0E
:1016E00009F488C102C0612C712C31E03093F603FB
:1016F0008FEF8A8394E669167104C0F01092CE03CE
:10170000E091CC03F091CD03309729F0C3018456CA
:10171000910909958983E981E13019F4612C712CD3
:1017200005C0F0E36F16F5E77F0618F42FEF621A95
:10173000720A31E03093F6038A81813009F0AFCF2D
:10174000E0911D06F0911E069285892F82958F707B
:101750009F70891B813118F48093F20302C01092AC
:10176000F2031092EA031092EB031092EC03109232
:10177000ED031092EE031092EF031092F00310921B
:10178000F1031092E2031092E3031092E40310922B
:10179000E503A0911B06BB27A7FDB09520E03DE720
:1017A0000E944332DC01CB01935BA74FBF4F809374
:1017B000E6039093E703A093E803B093E903612C59
:1017C000712C8091F20390E06816790640F58090C4
:1017D000E2039090E303A090E403B090E503C0908F
:1017E000E603D090E703E090E803F090E90300916E
:1017F000EA031091EB032091EC033091ED0340914B
:10180000EE035091EF036091F0037091F1038AEEC3
:1018100093E00E9485269FEF691A790AD2CFE1E012
:10182000E093CE030E94630E0E94730D8091030427
:10183000909104046090F9037090FA03861597055F
:1018400008F43C01412C512C4614570441F180907E
:10185000DA039090DB03A090DC03B090DD03C0902E
:10186000DE03D090DF03E090E003F090E10300910D
:10187000D2031091D3032091D4033091D50340912A
:10188000D6035091D7036091D8037091D90382EDAC
:1018900093E00E948526FFEF4F1A5F0AD5CF809014
:1018A000EA039090EB03A090EC03B090ED03C0909E
:1018B000EE03D090EF03E090F003F090F10300917D
:1018C000D2031091D3032091D4033091D5034091DA
:1018D000D6035091D7036091D8037091D90382ED5C
:1018E00093E00E94D82582ED93E00E946426209127
:1018F000D2033091D3034091D4035091D50360912A
:10190000D6037091D7038091D8039091D9030E9498
:101910001F258091FD038130B1F4E091E006F09144
:10192000E1066082E091E006F091E106718230927A
:10193000DE062092DD061092E3061092E2060E9477
:10194000990D0E94C4090E94630E0E94730D412CE0
:10195000512C8091F9039091FA0386199709481642
:10196000590640F58090DA039090DB03A090DC03E9
:10197000B090DD03C090DE03D090DF03E090E00381
:10198000F090E1030091D2031091D3032091D4038E
:101990003091D5034091D6035091D7036091D8037D
:1019A0007091D90382ED93E00E9485262FEF421AB1
:1019B000520ACFCF82ED93E00E9464262091D20399
:1019C0003091D3034091D4035091D5036091D60355
:1019D0007091D7038091D8039091D9030E941F255D
:1019E0008091F303811103C00E94CC23F9CF612CB5
:1019F000712C64CD828582958F708093FE038185E2
:101A000090E0982F88272085822B9093FA0380936B
:101A1000F903A3858A2F90E09093FC038093FB0346
:101A2000DC0120E432E44FE050E00E944A3260934F
:101A3000DE037093DF038093E0039093E103109241
:101A4000DA031092DB031092DC031092DD0352CE16
:101A500063E47AE08BEE95E00E94203040E051E0B4
:101A60006BEE74E08BEE95E00E942430EBEEF5E037
:101A700084E1808781E087838187828781E090E0AD
:101A8000A0E0B0E083879487A587B6871786108A81
:101A9000118A128A87E090E0A0E0B0E0838B948BFB
:101AA000A58BB68B178A108E118E128E138E148E04
:101AB000158E168E178E10A211A212A2CF010C94B1
:101AC0003A23909141019F719F31D9F38093420154
:101AD000089580930F06089581E080935E0A08952B
:101AE00010925E0A0895809141018F718F31D9F370
:101AF000809141018F71E1F08F30D1F080914101EF
:101B00008F71883031F4809139018260809339017E
:101B10000BC088E00E94610D809141018F71883077
:101B2000D9F7F1CF8F3021F0809141018F71D1F73A
:101B30000895809141018F718F31D9F380914101D6
:101B40008F7111F08F3051F4809139018D7F809326
:101B50003901809141018F718830D9F70895E5E40A
:101B6000F1E09081907F908390818F70982B90838B
:101B70000895E7E5F1E080818D7F80830895E7E5B2
:101B8000F1E08081826080830895EEE6F1E080815B
:101B90008F7E80830895EEE6F1E08081806180830E
:101BA000089580936001909361019093680A8093F7
:101BB000670A08959093620A8093610AE8E4F1E06D
:101BC0008081807E80838081682B608308959093DC
:101BD00013068093120608959093110680931006C1
:101BE00008950F931F93CF93DF93FC01D90180E2F7
:101BF0008093440180EC80934501606260934801CA
:101C000085EC8093490187EA80934B0180E88093BB
:101C10004C0120936001B0936101409362015093A5
:101C20006301C6E4D1E00881888198812881302F42
:101C300032953695377060E4369F800111242295E5
:101C400026952370622F602B82958695837070E1B4
:101C5000879F90011124262B92959695937084E08E
:101C6000989FB0011124622B60936D018881988147
:101C7000929596959370392F3064982F929596701F
:101C8000932B90936E0110926C0184E080934E012F
:101C9000C1E6DAE0F983E8831A821B825D834C8314
:101CA000BF83AE83188681E08093820A10925E0A19
:101CB000DF91CF911F910F91089586E10C94610DF2
:101CC00086E10C94610D88E00C94610D0F931F93D5
:101CD000CF93DF93FC018091820A811102C08FEFC4
:101CE000ACC026818091630A8F5F8093630A9091D4
:101CF0008101907E916020FB95F99F739064909391
:101D0000810188E88093820180915E0A882361F0D6
:101D10008FEF809383018AEA9AEA909389018093F6
:101D200088018FEF9FEF10C08091630A8093830139
:101D3000209161018091600190E0922B9093890144
:101D4000809388018081918190938701809386019F
:101D5000209163018091620190E0922B9093850124
:101D6000809384018F014281552747FD50956381FF
:101D700074818AE891E00E941A33F8018281855FBC
:101D80008093800180914101D82FDF719FEF9D0FDB
:101D90009230C0F3D131B1F3D231A1F3DF3191F3FD
:101DA00098EF9D0F923020F08F70863009F097CF1A
:101DB00086E10E94610DF801858181110BC089E0E7
:101DC0000E94610DF8018681882391F089E10E94CB
:101DD000610D0EC080914801806880934801809118
:101DE000410187FFFCCF8091410186FF78CFE7CF8B
:101DF00082E00E94610D80E090E020914F0126FD7D
:101E000005C00196883EFDEF9F07B9F720E42093B7
:101E10004F01F8012681222331F0209142012295C1
:101E20002695277029F4883E9D4F11F0C1E001C02E
:101E3000CFEF8D2F0E94610D8C2FDF91CF911F91DD
:101E40000F910895CF93DF938091820A882341F107
:101E500080914101C82FCF719FEF9C0F9230C0F34A
:101E6000C131B1F3C231A1F3CF3191F3C83019F0D0
:101E70008F708630A9F486E10E94610D809148013F
:101E80008068809348018091410187FFFCCFD09109
:101E900041018C2F0E94610DD6FB882780F901C07B
:101EA0008FEFDF91CF9108958091820A882309F402
:101EB000E5C080914F0183FFDFC08091460187FF1D
:101EC000DBC080917B01E091610AF091620A90E0B1
:101ED00002972481332727FD3095281739070CF402
:101EE000CDC088E080934F01E091610AF091620AD1
:101EF000809182018083E091610AF091620A809171
:101F000087019091880192838183E091610AF09129
:101F1000620A80917B018B508383A091610AB0910A
:101F2000620AE091610AF091620A13969C918481A1
:101F300089173CF0E091610AF091620A838187FF82
:101F40000BC080914C018F7780934C0180914C01A4
:101F5000806880934C0192C0A091610AB091620A9E
:101F6000E091610AF091620A13964C91552747FD62
:101F7000509569E871E0858196810E941A338091BD
:101F80000F06882309F43EC0E091610AF091620ACD
:101F900083818031B9F5E091610AF091620A65812F
:101FA000768144E050E081E092E00E942333892B67
:101FB00049F5E091610AF091620A6581768140E11C
:101FC00050E081E092E00E942333892BD9F49DE018
:101FD00088E10FB6F894A895809360000FBE9093A7
:101FE000600080E090E00E94FD1581E090E00E949A
:101FF000FD1582E090E00E94FD1583E090E00E94D4
:10200000FD15FFCFE091610AF091620A8091800195
:1020100085FB882780F98783E091610AF091620A45
:10202000809147018087E091610AF091620A809176
:1020300046018695869586958187E091610AF091A3
:10204000620A809147018287A091610AB091620A79
:10205000E0917B01F0E0E058FE4F80811B968C936D
:1020600080914C018F7780934C0180914C01806866
:1020700080934C0181E0089580E008958FEF0895EA
:102080001F920F920FB60F9211248F9380E88093C6
:102090004F018F910F900FBE0F901F9018951F92B8
:1020A0000F920FB60F9211248F9380E480934F010B
:1020B0008F910F900FBE0F901F9018951F920F9247
:1020C0000FB60F9211248F9380E280934F018F916E
:1020D0000F900FBE0F901F9018951F920F920FB682
:1020E0000F9211248F9380E180934F018F910F9075
:1020F0000FBE0F901F9018951F920F920FB60F9260
:1021000011240BB60F922F933F934F935F936F93CE
:102110007F938F939F93AF93BF93EF93FF9384E04D
:1021200080934F01E0911206F0911306309709F069
:102130000995FF91EF91BF91AF919F918F917F9101
:102140006F915F914F913F912F910F900BBE0F9028
:102150000FBE0F901F9018951F920F920FB60F92FF
:1021600011248F9382E080934F018F910F900FBEC7
:102170000F901F9018951F920F920FB60F92112477
:102180008F9381E080934F018F910F900FBE0F903E
:102190001F901895E9E4F1E09081907F9083908101
:1021A0008F70982B908308958FEF08950895089568
:1021B00008958FEF089580915C0A90915D0A0895CB
:1021C000089581E0089581E0089581E008950895DB
:1021D0000895089508950895089508950895989884
:1021E0008DB1806E8DB98EB1806A8EB90895989840
:1021F0008DB1806E8DB98EB180668EB90895CF9203
:10220000DF92EF92FF920F931F93CF93DF93CDB79F
:10221000DEB727970FB6F894DEBF0FBECDBF0E9482
:102220001A17E091610AF091620AC080D380E580BC
:10223000F68000850E94540F18161CF087EE92E07D
:1022400006C0F7011081111107C086E093E00E94DB
:10225000CE330E941C1731C0153021F48AE090E083
:102260000E94C833C70101969F938F93802F9927AF
:1022700087FD90959F930F931F921F931F92CF926C
:1022800088E293E09F938F930E94B433FD82EC82A7
:102290001150F7011083DB821E821F828FEF9FEFA8
:1022A0009A8389830E941C17CE0101960E94660EB4
:1022B0000FB6F894DEBF0FBECDBF27960FB6F894C9
:1022C000DEBF0FBECDBFDF91CF911F910F91FF9069
:1022D000EF90DF90CF9008951F920F920FB60F925C
:1022E00011240BB60F922F933F934F935F936F93ED
:1022F0007F938F939F93AF93BF93EF93FF9380E070
:1023000090917B01891710F48F5FFACF88E080935A
:102310004F018091460187FF05C080915E0A8111BF
:102320000E94FF10E0911006F0911106309709F01D
:102330000995FF91EF91BF91AF919F918F917F91FF
:102340006F915F914F913F912F910F900BBE0F9026
:102350000FBE0F901F901895A2E7BAE0FC014096BF
:1023600020812D93219120933F01E817F907C1F7B0
:1023700080E110923E018150E1F780E880933C01BA
:1023800080913D0180FFFCCFEBE8FAE080E18E0F09
:1023900090913F0191938E13FBCF0895CF93DF93DC
:1023A000DC01662309F445C0862F8F7009F041C017
:1023B000E2E7FAE090E19E0F219120933F019E1306
:1023C000FBCF90E070E0E0E240E1949F90011124A7
:1023D000261737077CF5911103C010923C0102C00B
:1023E000E0933C0140E050E02A0F3B1FE901C40F9D
:1023F000D51FF881F0933E014F5F5F4F403151058B
:10240000A9F740913C01406840933C0140913D0157
:1024100040FFFCCF40E050E0F0913E01E901C40FE5
:10242000D51FF8834F5F5F4F40315105A9F79F5F7C
:10243000CBCF81E0DF91CF9108950F931F93CF937E
:10244000DF93DC01613009F458C0862F8F7009F0EA
:1024500054C0EBE8FAE090E19E0F219120933F01F8
:102460009E13FBCF62956F70615078E06F3F09F467
:1024700045C070933C01462F552747FD509520E0FD
:1024800030E0ED0190E16902C00DD11D1124FE0183
:10249000E20FF31F908190933E012F5F3F4F203159
:1024A0003105A9F790913C01906890933C0190917F
:1024B0003D0190FFFCCF4150510994E0440F551F5E
:1024C0009A95E1F720E030E090913E018E01020FF5
:1024D000131FF8019083662349F0F901E40FF51FFB
:1024E000EA0FFB1FE0819E27F80190832F5F3F4F8B
:1024F0002031310549F76150B9CF81E0DF91CF91AB
:102500001F910F9108958091C00087FFFCCF8091AB
:10251000C0008F778093C0008091C600089590918D
:10252000C00095FFFCCF9091C0009F7D9093C000AC
:102530008093C60008958FEF0895813019F480913B
:10254000C80004C0811106C08091C000881F882780
:10255000881F089580E00895CF93DF93FC012491B4
:10256000EC012196222351F06091FD0B7091FE0B3E
:10257000822F90E00E947C33CE01F0CFDF91CF918B
:10258000089586E084B985B988EF8AB980EF8BB960
:1025900082E08DB908950C94C1128F3F09F46CC08C
:1025A000E82FE7704E2F50E04730510508F064C027
:1025B000FA01E057FF4F8695869586950C94FA327E
:1025C00042B121E030E0B90102C0660F771F8A9561
:1025D000E2F7CB01842B82B94DC045B121E030E058
:1025E000B90102C0660F771F8A95E2F7CB01842BF1
:1025F00085B940C048B121E030E0B90102C0660FA2
:10260000771F8A95E2F7CB01842B88B933C04BB191
:1026100021E030E0B90102C0660F771F8A95E2F72A
:10262000CB01842B8BB926C04EB121E030E0B9013B
:1026300002C0660F771F8A95E2F7CB01842B8EB913
:1026400019C041B321E030E0B90102C0660F771F25
:102650008A95E2F7CB01842B81BB0CC044B321E007
:1026600030E0B90102C0660F771F8A95E2F7CB010F
:10267000842B84BB81E008958FEF08958F3F09F488
:1026800073C0E82FE7704E2F50E04730510508F037
:102690006BC0FA01E956FF4F8695869586950C9496
:1026A000FA3242B121E030E0B90102C0660F771F73
:1026B0008A95E2F7CB018095842382B953C045B156
:1026C00021E030E0B90102C0660F771F8A95E2F77A
:1026D000CB018095842385B945C048B121E030E025
:1026E000B90102C0660F771F8A95E2F7CB0180958A
:1026F000842388B937C04BB121E030E0B90102C072
:10270000660F771F8A95E2F7CB01809584238BB9FA
:1027100029C04EB121E030E0B90102C0660F771F39
:102720008A95E2F7CB01809584238EB91BC041B313
:1027300021E030E0B90102C0660F771F8A95E2F709
:10274000CB018095842381BB0DC044B321E030E0F0
:10275000B90102C0660F771F8A95E2F7CB01809519
:10276000842384BB81E008958FEF08958F3F31F17A
:10277000E82FE7704E2F50E047305105F8F4FA018A
:10278000E256FF4F282F2695269526950C94FA326F
:1027900090B10BC093B109C096B107C099B105C003
:1027A0009CB103C09FB101C092B3892F90E002C0D9
:1027B000959587952A95E2F7817008958FEF089592
:1027C0008F3F09F406C1E82FE7704E2F50E04730E5
:1027D000510508F0FEC0FA01EB55FF4F869586952E
:1027E00086950C94FA3220B130E0082E02C035955F
:1027F00027950A94E2F742B120FD0BC021E030E0BA
:10280000B90102C0660F771F8A95E2F7CB01842BCE
:102810000BC021E030E0B90102C0660F771F8A9536
:10282000E2F7CB018095842382B916C023B130E052
:10283000082E02C0359527950A94E2F745B120FD90
:102840000DC021E030E0B90102C0660F771F8A9504
:10285000E2F7CB01842B85B981E0089521E030E0D7
:10286000B90102C0660F771F8A95E2F7CB01809508
:102870008423F1CF26B130E0082E02C0359527958C
:102880000A94E2F748B120FD0BC021E030E0B90125
:1028900002C0660F771F8A95E2F7CB01842B0BC02D
:1028A00021E030E0B90102C0660F771F8A95E2F798
:1028B000CB018095842388B9CFCF29B130E0082E91
:1028C00002C0359527950A94E2F74BB120FD0BC065
:1028D00021E030E0B90102C0660F771F8A95E2F768
:1028E000CB01842B0BC021E030E0B90102C0660FA0
:1028F000771F8A95E2F7CB01809584238BB9ACCF03
:102900002CB130E0082E02C0359527950A94E2F7E5
:102910004EB120FD0BC021E030E0B90102C0660FCE
:10292000771F8A95E2F7CB01842B0BC021E030E0C2
:10293000B90102C0660F771F8A95E2F7CB01809537
:1029400084238EB989CF2FB130E0082E02C035958F
:1029500027950A94E2F741B320FD0BC021E030E057
:10296000B90102C0660F771F8A95E2F7CB01842B6D
:102970000BC021E030E0B90102C0660F771F8A95D5
:10298000E2F7CB018095842381BB66CF22B330E090
:10299000082E02C0359527950A94E2F744B320FD2E
:1029A0000BC021E030E0B90102C0660F771F8A95A5
:1029B000E2F7CB01842B0BC021E030E0B90102C06B
:1029C000660F771F8A95E2F7CB018095842384BB3D
:1029D00043CF8FEF08958F3F09F4D5C0E82FE770FC
:1029E0004E2F50E0611167C04730510508F0CBC051
:1029F000FA01E455FF4F8695869586950C94FA3238
:102A000041B121E030E0B90102C0660F771F8A951D
:102A1000E2F7CB018095842365C044B121E030E02A
:102A2000B90102C0660F771F8A95E2F7CB01809546
:102A3000842365C047B121E030E0B90102C0660FD0
:102A4000771F8A95E2F7CB018095842365C04AB150
:102A500021E030E0B90102C0660F771F8A95E2F7E6
:102A6000CB018095842365C04DB121E030E0B901F0
:102A700002C0660F771F8A95E2F7CB018095842309
:102A800065C040B321E030E0B90102C0660F771F96
:102A90008A95E2F7CB018095842365C043B321E09A
:102AA00030E0B90102C0660F771F8A95E2F7CB01CB
:102AB0008095842365C04730510508F064C0FA0151
:102AC000ED54FF4F8695869586950C94FA3241B168
:102AD00021E030E0B90102C0660F771F8A95E2F766
:102AE000CB01842B81B94DC044B121E030E0B90164
:102AF00002C0660F771F8A95E2F7CB01842B84B959
:102B000040C047B121E030E0B90102C0660F771F35
:102B10008A95E2F7CB01842B87B933C04AB121E013
:102B200030E0B90102C0660F771F8A95E2F7CB014A
:102B3000842B8AB926C04DB121E030E0B90102C032
:102B4000660F771F8A95E2F7CB01842B8DB919C0E8
:102B500040B321E030E0B90102C0660F771F8A95CB
:102B6000E2F7CB01842B80BB0CC043B321E030E003
:102B7000B90102C0660F771F8A95E2F7CB01842B5B
:102B800083BB81E008958FEF0895811106C080B165
:102B90008695817091E0892708958FEF08950097B9
:102BA00011F483E20DC08130910511F48BE208C06D
:102BB0008230910511F483E303C0039729F48BE37A
:102BC0000E94E01381E008958FEF0895009711F4BB
:102BD00083E20DC08130910511F48BE208C0823090
:102BE000910511F483E303C0039729F48BE30E945A
:102BF000CD1281E008958FEF0895009711F483E2DC
:102C00000DC08130910511F48BE208C0823091052E
:102C100011F483E303C0039729F48BE30E943E136E
:102C200081E008958FEF0895882319F085B78F7E8E
:102C300002C085B7806185BF81E008959091C8008A
:102C400095FFFCCF8093CE0008959093C5008093AC
:102C5000C40086E08093C200E1ECF0E080818B7FCD
:102C60008083A0ECB0E08C9182608C93808188613D
:102C7000808308959093CD008093CC0086E080936C
:102C8000CA00E9ECF0E080818B7F8083A8ECB0E0A3
:102C90008C9182608C938081886180830895CF932A
:102CA000DF930E94251663E872E18FE892E10E94AB
:102CB0003133CBEFDBE09B838A8363E872E18FE8FB
:102CC00092E10E94313399838883DF91CF910895F7
:102CD0008091C80087FFFCCF8091C8008F778093D8
:102CE000C8008091CE0008950000000000000000A0
:102CF0000197D1F708950C948C340E949434089570
:102D0000EF92FF920F931F93CF93DF937C0180E0AC
:102D100090E00E948C34182FF701838381E090E0CB
:102D20000E948C34082FF701828382E090E00E9499
:102D30008C34D82FF701818383E090E00E948C349B
:102D4000C82FF701808384E090E00E948C34100F3C
:102D5000D10FCD0F8C1711F08FEF01C081E0DF9103
:102D6000CF911F910F91FF90EF900895CF93DF9334
:102D7000EC0185E090E00E948C34888381E0DF9153
:102D8000CF910895FC01608186E090E00E94943428
:102D900081E00895CF93DF93EC0186E090E00E94FC
:102DA0008C34888381E0DF91CF9108950F931F9336
:102DB000CF93DF938C01C0E0D0E0CE0108960E9453
:102DC0008C34F80181938F012196C031D105A9F788
:102DD00081E0DF91CF911F910F9108950F931F9381
:102DE000CF93DF938C01C0E0D0E0F80161918F01B7
:102DF000CE0108960E9494342196C031D105A9F7DE
:102E000081E0DF91CF911F910F910895CF93DF93D0
:102E1000EC0187E090E00E948C34888381E0DF91B0
:102E2000CF910895FC01608187E090E00E94943486
:102E300081E00895F8940895789408950E941A17EF
:102E4000FFCFCF93DF93CDB7DEB7A3970FB6F8943C
:102E5000DEBF0FBECDBF0E94371F8093880B8F3F10
:102E600021F460E08EE00E947F1D0E94E82D80FF2B
:102E700004C060E086E00E947F1D0E94FF2F8F3F0C
:102E800031F40E94E22F60E080E10E947F1D0E94E9
:102E9000F02F10928B0B1092990B1092980B1092AE
:102EA0008A0B1092890B10929A0B0E94C4181092F0
:102EB000970B8FEF8093840B8093860B8093850B09
:102EC00080E090E033E62FEFFC01E555F54F3287C7
:102ED00020878B96873D9105B9F7E4EDFBE0CF01A4
:102EE000059694838383F783E683FC018BE0ED3EB4
:102EF000F807A9F71092D60B1092D50B1092F10B90
:102F00001092F00B10928E0B10928D0B84ED9BE0C3
:102F10009093AA0A8093A90A65E078E2CE0101960F
:102F20000E94203040E850E068ED79E0CE01019643
:102F30000E94243085E58093D80919861C861D8659
:102F40001E861F86188A198A1A8A1B8A1C8A1D8A5D
:102F50001E8A1F8A188E198E1A8E1B8E1C8E1D8E2D
:102F60001E8E1F8E18A219A21AA21BA281E08887AA
:102F700092E09A878B87CE0101960E943A23A3960E
:102F80000FB6F894DEBF0FBECDBFDF91CF9108958D
:102F900003EB1AE0C0E0F801D080FFEFDF1222C09F
:102FA000CF5F055D1F4FC530B1F70E9429222BE28C
:102FB0008202C0011124FC01E555F54F8285809302
:102FC0009A0BF093990BE093980BF0938A0BE09394
:102FD000890B80938B0B0E9496300E9480300E9458
:102FE0009A3016C083EBE82E8AE0F82ED0E0CD1799
:102FF00041F0F7018081D81204C06D2D85E00E9458
:103000007F1DDF5FFBE2EF0EF11CD53081F7C8CFEB
:10301000FFCFCF92DF92EF92FF920F931F93CF9348
:10302000DF93EC018B017A018985823021F0809158
:10303000870B888301C018828091870B853020F030
:1030400060E087E00E947F1D8985823029F08091B1
:10305000870B8F5F8093870B8091870B811103C053
:1030600081E08093870B38812BE23203F001112439
:10307000E555F54F118300838885828738813203B7
:10308000F0011124E555F54F83E081873881320343
:10309000F0011124E555F54F3087088102038001C6
:1030A00011240555154FF8011582CE010B960E948B
:1030B0009727F80161A372A383A394A38B859C85B2
:1030C000AD85BE8588339948A144B10520F068815B
:1030D00086E10E947F1DC880DD24C7FCD094CE010C
:1030E0004B960E9497271BE21C9DF0011D9DF00D41
:1030F0001124E555F54F658B768B878B908F288152
:103100002103C00111249C012555354F6901F901A6
:10311000458956896789708D81A192A1A3A1B4A127
:10312000840F951FA61FB71F818F928FA38FB48F17
:10313000CE0143960E949727F60165A376A387A345
:1031400090A728812103F0011124E555F54F85A1B1
:1031500096A1A7A1B0A5858F968FA78FB0A381E078
:1031600090E092A781A7F382E2828487DF91CF91DA
:103170001F910F91FF90EF90DF90CF9008950C94E6
:103180001F2885E690E008951092E4061092E50667
:103190001092E6061092E7061092E8061092E906F1
:1031A0001092EA061092EB06EEE2F9E080E090E081
:1031B0001082118212821382108611861286138663
:1031C0001482158216821782148615861686178633
:1031D000108A118A128A138A108E118E128E138E03
:1031E000DC01A25DB64F5C961C925C975D961C92CA
:1031F0007E964E9686399105D9F608950F931F93C2
:10320000E4EEF6E0A82FB0E023EB36EE4EE050E01F
:103210000E944A320481158126813781DC01CB016D
:10322000800F911FA21FB31F84839583A683B7834A
:10323000CF011F910F910C946426E4EEF6E04081DB
:10324000518162817381DC014D935D936D937C9319
:1032500013974481558166817781FC0144835583AE
:103260006683778308952EE1829FC0011124FC01BB
:10327000E25DF64F858D813039F0848D8F5F848FCC
:103280008F3F11F481E0858F08952EE1829FC00168
:103290001124FC01E25DF64F858D8130B1F0148A76
:1032A000158A168A178A80899189A289B38901961D
:1032B000A11DB11D808B918BA28BB38B8E3F9F4F35
:1032C000AF4FBF4F11F481E0858F08950F931F9387
:1032D0002EE1829FC0011124FC01E25DF64F858D35
:1032E000813071F1808D918DA28DB38D0196A11DDC
:1032F000B11D808F918FA28FB38F462F50E060E079
:1033000070E00489158926893789040F151F261F47
:10331000371F048B158B268B378B008111812281FF
:103320003381400F511F621F731F4083518362839B
:1033300073838E3F9F4FAF4FBF4F11F481E0858F56
:103340001F910F910895CF92DF92EF92FF92282F55
:1033500030E09EE1899FF0011124E25DF64F858DFA
:10336000813009F44BC0462F50E060E070E0848962
:103370009589A689B789840F951FA61FB71F8487D3
:103380009587A687B787C080D180E280F3804C0DF7
:103390005D1D6E1D7F1D4083518362837383448155
:1033A000558166817781411551056105710529F0C7
:1033B00084179507A607B70760F44EE1429FF00116
:1033C000439FF00D1124E25DF64F84839583A6831D
:1033D000B7834EE1429FF001439FF00D1124E25D5F
:1033E000F64F4085518562857385481759076A07EE
:1033F0007B0720F480879187A287B387FF90EF90A7
:10340000DF90CF9008958F929F92AF92BF92CF920C
:10341000DF92EF92FF920F931F93CF93DF93CDB77D
:10342000DEB728970FB6F894DEBF0FBECDBF182FBA
:103430008CEA93E00E94AC12A12EB12C1F921F9334
:1034400081E593E09F938F930E94B4330F900F9088
:103450000F900F90111152C081E993E00E94AC12BD
:10346000CE0101960E947B256D817E818F8198859A
:10347000E0E4CE2EE2E4DE2EEFE0EE2EF12CA7010A
:1034800096010E9479325F934F933F932F938C81E3
:103490008F938B818F938A818F9389818F9304E59A
:1034A00013E01F930F930E94B43380E793E00E94D0
:1034B000AC126091E8067091E9068091EA0690915D
:1034C000EB06A70196010E9479325F934F933F93D9
:1034D0002F938091E7068F938091E6068F938091DA
:1034E000E5068F938091E4068F931F930F930E94BC
:1034F000B4330FB6F894DEBF0FBECDBF8FE593E0B7
:103500000E94AC128EE18A9D80018B9D100D1124CA
:10351000025D164FF80160817181828193810E9462
:10352000602729833A834B835C836D837E838F83FB
:1035300098876D817E818F81988520E4822E22E498
:10354000922E2FE0A22EB12CA50194010E94793277
:103550005F934F933F932F938C818F938B818F93A6
:103560008A818F9389818F9334E5E32E33E0F32EA4
:10357000FF92EF920E94B43384E493E00E94AC1275
:10358000F80164817581868197810E946027298373
:103590003A834B835C836D837E838F8398876D81B1
:1035A0007E818F819885A50194010E9479325F9375
:1035B0004F933F932F938C818F938B818F938A812D
:1035C0008F9389818F9344E6C42E43E0D42EDF92FB
:1035D000CF920E94B433F8016485758586859785FE
:1035E0000E94602729833A834B835C836D837E83AB
:1035F0008F8398876D817E818F819885A501940145
:103600000E9479325F934F933F932F938C818F93D6
:103610008B818F938A818F9389818F93DF92CF9251
:103620000E94B433F80160857185828593850E947C
:10363000602729833A834B835C836D837E838F83EA
:1036400098876D817E818F819885A50194010E9464
:1036500079325F934F933F932F938C818F938B811C
:103660008F938A818F9389818F93FF92EF920E942B
:10367000B4330FB6F894DEBF0FBECDBF84E393E042
:103680000E94AC12F801709683818F9382818F9390
:1036900081818F93F80180898F9356E7E52E53E05F
:1036A000F52EFF92EF920E94B43381E293E00E94E4
:1036B000AC12F801789683818F9382818F938181F8
:1036C0008F93F801808D8F93FF92EF920E94B43315
:1036D00088E093E00E94AC12F801848D1F928F93D2
:1036E0006AE7E62E63E0F62EFF92EF920E94B43373
:1036F0008BEE92E00E94AC12F801858D1F928F93A1
:10370000FF92EF920E94B43388EE92E00E94AC12D6
:103710000FB6F894DEBF0FBECDBF28960FB6F89453
:10372000DEBF0FBECDBFDF91CF911F910F91FF90F4
:10373000EF90DF90CF90BF90AF909F908F900895C3
:10374000CF938BEC92E00E94AC12C0E08C2F0E94D1
:10375000031ACF5FC530D1F7CF910895DB018530D3
:1037600008F054C09EE1899FF0011124E25DF64FFC
:1037700040815181628173814D935D936D937C9300
:103780001397448155816681778114964D935D939B
:103790006D937C9317974085518562857385189644
:1037A0004D935D936D937C931B97448555856685FA
:1037B00077851C964D935D936D937C931F974089FD
:1037C00051896289738950964D935D936D937C9373
:1037D0005397448955896689778954964D935D93AB
:1037E0006D937C935797408D518D628D738D589654
:1037F0004D935D936D937C935B97848D5C968C93D6
:103800005C97858D5D968C9381E008958FEF089588
:10381000E091980BF091990B84870895E091980BB3
:10382000F091990B84850895CF93DF93D82FC62FFD
:1038300080E092E00E947B168F5F8F3F19F08093AB
:10384000140602C0109214062091140636E0239F3D
:10385000C00111246D2F8F5F9D4F0E947D168091B6
:10386000140646E0849FC00111246C2F8E5F9D4F8B
:103870000E947D162091140640918F0B5091900B61
:103880006091910B7091920B672F7727882799276A
:1038900046E0249F90011124C9018D5F9D4F0E9435
:1038A0007D162091140640918F0B5091900B6091E2
:1038B000910B7091920B8827992746E0249F9001E5
:1038C0001124C9018C5F9D4F0E947D162091140622
:1038D00040918F0B5091900B6091910B7091920BD6
:1038E0009927872F762F652F46E0249F900111247A
:1038F000C9018B5F9D4F0E947D168091140626E0C2
:10390000829FC001112460918F0B8A5F9D4F0E949E
:103910007D166091140680E092E0DF91CF910C94C7
:103920007D16FC018091C409882331F0DB018C9362
:103930008091B406808381E008958091C409882332
:1039400009F483C083EE95E00E94AC128091B40626
:103950001F928F9381E593E09F938F930E94B433DE
:103960008FED95E00E94AC120F900F900F900F908A
:103970008091C409883110F01092C409E091C40903
:103980008E2F90E0FC013197E631F10508F046C03A
:10399000E654FF4F0C94FA3283EA95E041C08CE77D
:1039A00095E03EC088E695E03BC082E595E038C0F2
:1039B00087E395E035C081E295E032C089E095E08B
:1039C0002FC086EF94E02CC083EE94E029C085ECF4
:1039D00094E026C080EA94E023C084E994E020C00B
:1039E00089E794E01DC08AE694E01AC086E594E079
:1039F00017C085E494E014C081E394E011C081E134
:103A000094E00EC089EF93E00BC08EED93E008C008
:103A10008DEC93E005C08EEB93E002C087EB93E062
:103A20000E94AC126091FD0B7091FE0B8DE090E056
:103A30000E947C336091FD0B7091FE0B8AE090E058
:103A40000E947C338091C409089580E0089513BCDE
:103A50001092B60018BC17BC16BC15BC14BC1DBA1D
:103A60001CBA1BBA10929B0010929A0010929900F7
:103A7000109298001092950010929400109291006C
:103A80001092900018BA109271001092B400109227
:103A9000B3001092B2001092B100E0EBF0E010829F
:103AA000108217BA109270008FEF84BF08950E94A1
:103AB0001A170E94E22F8091C409803171F083515E
:103AC000823058F00E94271D8FEE95E00E94AC12C4
:103AD0000E94F02F0E941A17FFCF1092C409089578
:103AE0008093C409E091980BF091990B60856093E5
:103AF000B4060E94141C0E949D1C0C94571D8093B8
:103B0000C4096093B4060E94141C0E949D1C0C946E
:103B1000571DCF93DF931F92CDB7DEB719828981EE
:103B2000843640F480ED97E00E941E2C89818F5FDF
:103B30008983F5CF0F90DF91CF91089581E090E0D8
:103B40000E94FD150E94891D0E94891D0E94891DE9
:103B500081E090E00E94E6150C94891D81E090E0E0
:103B60000E94FD150E94891D81E090E00E94E615EB
:103B70000C94891DFF920F931F93CF93DF9300D076
:103B80001F92CDB7DEB71F928F9381E593E09F938D
:103B90008F938E010F5F1F4F1F930F930E94FE3371
:103BA0000F900F900F900F900F900F90F12CF80145
:103BB00001900020E9F73197E01BF10B8F2D90E089
:103BC0008E179F0708F05DC0F801E80FF91FE0812C
:103BD0008E2F90E0FC01F097EA30F10508F049C023
:103BE000E053FF4F0C94FA320E949E1D02C00E94C7
:103BF000AE1D0E949E1D0E949E1D0E949E1D0E9441
:103C00009E1D37C00E94AE1D0E94AE1DF4CF0E94C3
:103C1000AE1D0E94AE1D0E94AE1DEFCF0E94AE1DD4
:103C20000E94AE1D0E94AE1D0E94AE1DE8CF0E94F4
:103C3000AE1D02C00E949E1D0E94AE1D04C00E94C7
:103C40009E1D0E949E1D0E94AE1D06C00E949E1DCC
:103C50000E949E1D0E949E1D0E94AE1D08C00E94D3
:103C60009E1D0E949E1D0E949E1D0E949E1D0E94E0
:103C7000AE1D0E94891D0E94891D0E94891DF3941A
:103C800096CF0F900F900F90DF91CF911F910F91D2
:103C9000FF9008956F927F928F929F92AF92BF9202
:103CA000CF92DF92EF92FF920F931F93CF93DF9308
:103CB0008FEF95E00E94AC12E091980BF091990B78
:103CC0008085282F332727FD30953F938F938DE7ED
:103CD00093E09F938F930E94B433E091980BF091FF
:103CE000990BC281D381DF93CF9381EB93E09F93B4
:103CF0008F930E94B43388811F928F9386E893E05C
:103D00009F938F930E94B433E091980BF091990B9D
:103D100081818F9380818F9383E993E09F938F9329
:103D20000E94B4338091990B8F938091980B8F935D
:103D30008DE993E09F938F930E94B433CBEADAE04E
:103D4000EDB7FEB774960FB6F894FEBF0FBEEDBF89
:103D500000E010E08DEA682E83E0782E96E8892E48
:103D600093E0992E23E9A22E23E0B22E3DE9C32E43
:103D700033E0D32EEA80FB80FF92EF921F930F93E4
:103D80007F926F920E94B433F70180811F928F93CC
:103D90009F928F920E94B43389818F9388818F93F1
:103DA000BF92AF920E94B433DF93CF93DF92CF9252
:103DB0000E94B4330F5F1F4FAB96EDB7FEB77296FC
:103DC0000FB6F894FEBF0FBEEDBF0530110591F69A
:103DD000DF91CF911F910F91FF90EF90DF90CF90E7
:103DE000BF90AF909F908F907F906F900895CF93EA
:103DF000DF93E091980BF091990BC281D381888178
:103E0000853539F00E944A1E81E00E94701D85E5CB
:103E10008883E091980BF091990B808191818115B5
:103E2000924438F00E944A1E82E1DF91CF910C94B7
:103E3000701DDF91CF9108952BE28202C001112401
:103E4000FC01E555F54FA281B3818C91853519F0C0
:103E500085E58C9308C0808191818115924428F07A
:103E600082E10E94701D8FEF089581E008950F9305
:103E70001F9340916C0750916D0760916E07709190
:103E80006F0780E090E08A019B01082E04C0369500
:103E90002795179507950A94D2F700FD19C001E000
:103EA00010E020E030E0082E04C0000F111F221F98
:103EB000331F0A94D2F7402B512B622B732B409364
:103EC0006C0750936D0760936E0770936F0705C082
:103ED000019680329105B9F68FEF1F910F910895E9
:103EE000E091980BF091990B65857685878590898F
:103EF0000895CF92DF92EF92FF920F931F93CF938B
:103F0000DF93C12CD12C7601C394082E04C0CC0CB5
:103F1000DD1CEE1CFF1C0A94D2F740916C075091F7
:103F20006D0760916E0770916F074C215D216E21C6
:103F30007F21452B462B472B09F460C0082F0E9498
:103F40001A17E4EBFAE0B701A60140955095609589
:103F5000709513E0DF0111978C918F3F39F18481C7
:103F60009581A681B7818C159D05AE05BF0551F4DD
:103F700010861186128613869F0122503109E901AD
:103F80001882108384239523A623B72384839583E3
:103F9000A683B78380859185A285B38584239523E5
:103FA000A623B72380879187A287B387BB96DBE0E0
:103FB000EB38FD0779F68EEF9FEFAFEFBFEF04C050
:103FC000880F991FAA1FBB1F0A95D2F740916C0753
:103FD00050916D0760916E0770916F078423952350
:103FE000A623B72380936C0790936D07A0936E0769
:103FF000B0936F070E941C1781E001C08FEFDF9123
:10400000CF911F910F91FF90EF90DF90CF90089587
:104010000F931F9341E050E060E070E08A019B0144
:1040200004C0000F111F221F331F8A95D2F7D90138
:10403000C801E091980BF091990B458556856785ED
:1040400070890423152326233723012B022B032BEE
:10405000D1F080959095A095B095482359236A2377
:104060007B23458756876787708B4189528963898F
:10407000748984239523A623B723818B928BA38BEA
:10408000B48B81E001C08FEF1F910F910895282F0D
:1040900040916C0750916D0760916E0770916F07AA
:1040A000082E04C076956795579547950A94D2F7E0
:1040B00040FF1DC0E091980BF091990B81E090E0DA
:1040C000A0E0B0E004C0880F991FAA1FBB1F2A956B
:1040D000D2F74585568567857089842B952BA62B4D
:1040E000B72B85879687A787B08B81E008958FEFE0
:1040F0000895CF92DF92EF92FF92CF93C12CD12CF3
:104100007601C39404C0CC0CDD1CEE1CFF1C8A9508
:10411000D2F780916C0790916D07A0916E07B091D6
:104120006F078C219D21AE21BF21892B8A2B8B2BE0
:1041300011F481E044C00E941A17E2EBFAE0A4EB0C
:10414000BAE0C0E083E090819130B9F442855385B4
:10415000648575854C215D216E217F21452B462B81
:10416000472B59F08C9316861786108A118A108275
:10417000C286D386E486F586C1E090819230A1F4B0
:1041800042855385648575854C155D056E057F05F3
:1041900059F48C9316861786108A118A108212861B
:1041A000138614861586C1E0BB969B969BE0E93882
:1041B000F90749F60E941C17C11105C082E00E9450
:1041C000081C8FEF01C081E0CF91FF90EF90DF904E
:1041D000CF9008950F931F93E091980BF091990B56
:1041E000058516852785308906231723282339233B
:1041F000011511052105310511F1DC01CB01818B80
:10420000928BA38BB48B21E027830090880B04C092
:10421000B695A795979587950A94D2F780FF03C026
:104220000E94A22404C080E090E00E947324E091E8
:10423000980BF091990B0189128923893489C9015E
:10424000B8011F910F91089580E090E0089521E05A
:1042500084589B4009F420E0822F819508950E94A4
:1042600027218F3F11F481E003C0813029F482E0DF
:104270000E94081C8FEF0895992787FD9095FC01F7
:10428000EE0FFF1F8E0F9F1FFC01EC57F44F828132
:104290000895EF92FF920F931F93CF93DF931F9296
:1042A000CDB7DEB70E9427218F3F11F481E003C014
:1042B000813029F482E00E94081C8FEF41C089837D
:1042C0000E941A178981E82EFF24E7FCF0948701E9
:1042D000000F111FF801EE0DFF1DEC57F44F9281F6
:1042E000911116C0E091980BF091990B9781926013
:1042F0009783992787FD9095A92FB92F818B928B52
:10430000A38BB48B0E941C1780E090E00E94732462
:104310000E0D1F1DD801AC57B44F12968C911297F9
:10432000815012968C931297E091980BF091990B13
:1043300011968C91838781E084830E941C1781E011
:104340000F90DF91CF911F910F91FF90EF90089503
:104350000F931F93CF93DF931F92CDB7DEB70E94C9
:1043600027218F3F11F481E003C0813029F482E0DE
:104370000E94081C8FEF44C0482F552747FD5095D9
:104380009A01220F331F240F351F89010C57144F38
:10439000F80122819081291794F589830E941A17C8
:1043A000F80192819F5F9283E091980BF091990BB5
:1043B0001482E2EBFAE08981992787FD9095A92F75
:1043C000B92F23E03081323099F4428553856485DA
:1043D0007585481759076A077B0751F422831686AB
:1043E0001786108A118A1082128613861486158603
:1043F000BB963BE0E938F30729F70E941C1781E0E0
:104400000F90DF91CF911F910F9108950E94272166
:104410008F3F11F481E003C0813029F482E00E94D3
:10442000081C8FEF0895992787FD9095FC01EE0FEA
:10443000FF1F8E0F9F1FFC01EC57F44F8FEF8083FF
:10444000828381838091970B81508093970B81E0C9
:104450000895E0918D0BF0918E0B80810895E0918D
:104460008D0BF0918E0B309721F00380F481E02DBD
:10447000FACF0895AF92BF92CF92DF92EF92FF9260
:104480000F931F93CF93DF93E091A90AF091AA0AAB
:10449000309709F494C000918D0B10918E0B01158B
:1044A000110509F44CC0D8014BE2582F5403900178
:1044B00011242555354F79019AE0E90EF11C690167
:1044C000C4E0CC0ED11C5901DBE0AD0EB11C2C9127
:1044D00030E0429FB001439F700D11246555754F28
:1044E000EB019C81992329F05B85E701988159179D
:1044F00040F1E6019881992369F0429FB001439F02
:10450000700D11246555754FEB015A85E5019881B1
:104510005917B8F0429FB001439F700D11249B01C1
:104520002555354FE9012A85E7019881291748F07B
:1045300013960D90BC91A02D109749F602C0A0E0F3
:10454000B0E08083C381D481D093AA0AC093A90A22
:10455000A017B107B1F4109749F0B483A383128276
:1045600011821296FC93EE93119706C01482138267
:1045700012821182FA83E983F0938E0BE0938D0B04
:104580001EC0AC17BD0779F011968D919C911297C2
:1045900092838183B483A3831196CD91DC9112978A
:1045A000FC83EB8308C01482138211968D919C9139
:1045B0001297928381831296FC93EE931197DF9169
:1045C000CF911F910F91FF90EF90DF90CF90BF9010
:1045D000AF900895CF93DF93E0918D0BF0918E0B08
:1045E000309709F444C0992787FD9095208130E0E9
:1045F0002817390781F4A381B481B0938E0BA0935F
:104600008D0B12961C921E92119718C00380F48194
:10461000E02D309761F1208130E028173907B1F79C
:10462000C181D281838194819C838B83A381B48156
:10463000109721F01296DC93CE931197A091A90ABE
:10464000B091AA0A109739F4F093AA0AE093A90A44
:10465000148213820AC0B483A3831296FC93EE9350
:104660001197F093AA0AE093A90A12821182DF91AE
:10467000CF910895EF92FF920F931F93CF93DF9303
:10468000EC014B815C8169817A818D819E810E94E0
:1046900042302F81222371F04B815C81E12CF12C7F
:1046A00000E010E020E030E0BC01CE010E940918DB
:1046B0001F820CC0E8812BE2E202F0011124E555D3
:1046C000F54F21852330B9F491838083E8818BE213
:1046D000E802F0011124E555F54F85899689A789EF
:1046E000B08D892B8A2B8B2B41F482E081878881C6
:1046F0000E943A2202C08FEF01C081E0DF91CF918A
:104700001F910F91FF90EF9008951F93CF93DF9328
:10471000CDB7DEB728970FB6F894DEBF0FBECDBF7A
:1047200029833A834B835C836D837E838F83988751
:104730000E941A170E946C2D182FCE0101960E941C
:1047400097276330710598F0E091980BF091990BE1
:10475000212F30E0620F731FCB01A0E0B0E0858B0A
:10476000968BA78BB08F0E941C1781E001C08FEF42
:1047700028960FB6F894DEBF0FBECDBFDF91CF9164
:104780001F9108950E941530E091980BF091990BBC
:1047900085818111F7CF0895CF930E94F71E0E9463
:1047A0001A17E091980BF091990B81E090E092A795
:1047B00081A785830E946C2DC82F883F80F40E94BA
:1047C000062D2C2F30E02F5F3F4F90E02817390740
:1047D00034F482E08C0F80932D090E940A2D0E94F0
:1047E0001C170E94C22381E0CF910895E091980B9D
:1047F000F091990B80850E94EA22E091980BF0914C
:10480000990B84E081870E94CC2381E00895CF93A7
:10481000DF93EC010E94F71E209711F4C1E0D0E075
:104820000E941A17E091980BF091990B81E0858313
:10483000D2A7C1A70E946C2DC82F883F80F40E9488
:10484000062D2C2F30E02F5F3F4F90E028173907BF
:1048500034F482E08C0F80932D090E940A2D0E946F
:104860001C170E94C22381E0DF91CF910895EF923F
:10487000FF920F931F93CF938C010E941A17E09120
:10488000980BF091990B81E085830E946C2DC82FC5
:10489000E091980BF091990BE82EF12CC701800F55
:1048A000911FA0E0B0E0858B968BA78BB08FC83F9F
:1048B00078F40E94062D9FEFE91AF90A90E0E816B5
:1048C000F90634F482E08C0F80932D090E940A2DA2
:1048D0000E941C170E94C22381E0CF911F910F916B
:1048E000FF90EF900895CF93DF93EC010E941A1789
:1048F000E091980BF091990B21E02583CE01A0E087
:10490000B0E0858B968BA78BB08F0E946C2DC82F43
:10491000883F80F40E94062D2C2F30E02F5F3F4F00
:1049200090E02817390734F482E08C0F80932D092A
:104930000E940A2D0E941C170E94C22381E0DF9171
:10494000CF910895CF930E941A17E091980BF091A0
:10495000990B81E0858386830E946C2DC82F883F48
:1049600080F40E94062D2C2F30E02F5F3F4F90E007
:104970002817390734F482E08C0F80932D090E94A8
:104980000A2D0E941C170E94C22381E0CF91089536
:104990001F93CF93DF93CDB7DEB728970FB6F89468
:1049A000DEBF0FBECDBF29833A834B835C836D830B
:1049B0007E838F8398870E94F71E0E941A17E091CA
:1049C000980BF091990B81E0858381E090E092A7AC
:1049D00081A70E946C2D182FCE0101960E94972767
:1049E000E091980BF091990BDC01CB01810F911DA7
:1049F000A11DB11D858B968BA78BB08F183F80F4BE
:104A00000E94062D212F30E02F5F3F4F90E02817A6
:104A1000390734F482E0810F80932D090E940A2D1A
:104A20000E941C170E94C22381E028960FB6F894BA
:104A3000DEBF0FBECDBFDF91CF911F9108958F9242
:104A40009F92AF92BF92CF92DF92EF92FF920F931D
:104A50001F93CF93DF93CDB7DEB760970FB6F8946F
:104A6000DEBF0FBECDBF29873A874B875C876D8736
:104A70007E878F87988BCE0101960E947B25898047
:104A80009A80AB80BC80CD80DE80EF80F884098581
:104A90001A852B853C854D855E856F857889CE018D
:104AA00009960E94D8258F3F61F029853A854B856C
:104AB0005C856D857E858F8598890E94C82481E0FC
:104AC00001C08FEF60960FB6F894DEBF0FBECDBF6A
:104AD000DF91CF911F910F91FF90EF90DF90CF90DA
:104AE000BF90AF909F908F900895E091980BF091B8
:104AF000990B808508950F931F93CF93DF93EC015B
:104B00001C821D821E821F8280918F0B9091900BC0
:104B1000A091910BB091920B88839983AA83BB8358
:104B20008091930B9091940BA091950BB091960B63
:104B30008C839D83AE83BF830E946C2DA82FB0E031
:104B400023EB36EE4EE050E00E944A320C811D818C
:104B50002E813F81DC01CB01800F911FA21FB31F6B
:104B60008C839D83AE83BF838C819D81AE81BF8109
:104B700081152AEC92072AE9A2072BE3B20798F0E5
:104B80009A5CAA49BB438C839D83AE83BF83888193
:104B90009981AA81BB810196A11DB11D888399834A
:104BA000AA83BB83E1CFDF91CF911F910F9108952D
:104BB0008F929F92AF92BF92CF92DF92EF92FF922D
:104BC0000F931F93CF93DF93CDB7DEB760970FB6E8
:104BD000F894DEBF0FBECDBFFC0109831A832B837F
:104BE0003C834D835E836F83788789869A86AB8604
:104BF000BC86CD86DE86EF86F88A09811A812B81F4
:104C00003C814D815E816F817885C984DA84EB8433
:104C1000FC848D859E85AF85B8890C151D052E05F4
:104C20003F05F0F1C016D106E206F30691F44817ED
:104C300059076A077B07A0F1481B590B6A0B7B0BCE
:104C40004483558366837783108211821282138294
:104C500025C0481759076A077B0780F401501109DE
:104C6000210931090C191D092E093F0900831183FF
:104C70002283338356536546744C08C00C191D09B2
:104C80002E093F090083118322833383481B590B6C
:104C90006A0B7B0B448355836683778381E001C075
:104CA0008FEF60960FB6F894DEBF0FBECDBFDF91D9
:104CB000CF911F910F91FF90EF90DF90CF90BF9019
:104CC000AF909F908F900895FC014481558166813B
:104CD000778141158AEC58078AE968078BE37807E2
:104CE00098F05A5C6A497B43448355836683778393
:104CF00080819181A281B3810196A11DB11D808324
:104D00009183A283B383E1CF08958F929F92AF9254
:104D1000BF92CF92DF92EF92FF920F931F93CF93A8
:104D2000DF93CDB7DEB760970FB6F894DEBF0FBE46
:104D3000CDBF09831A832B833C834D835E836F83AE
:104D4000788789869A86AB86BC86CD86DE86EF8696
:104D5000F88A09851A852B853C8549815A816B81A2
:104D60007C81400F511F621F731FFC0140835183E0
:104D7000628373830D851E852F8538894D815E8101
:104D80006F817885400F511F621F731F44835583C5
:104D9000668377830E94642681E060960FB6F8945C
:104DA000DEBF0FBECDBFDF91CF911F910F91FF905E
:104DB000EF90DF90CF90BF90AF909F908F9008952D
:104DC000EFE8FBE0608371838283938324833583E0
:104DD0004683578308952F923F924F925F926F922E
:104DE0007F928F929F92AF92BF92CF92DF92EF927B
:104DF000FF920F931F93FC01C080D180E280F3806B
:104E0000C114D104E104F104E1F184819581A6810A
:104E1000B78122E4C216D104E104F104F0F51C01CB
:104E20002D01612C712C4301E0E08E2F90E0A0E079
:104E3000B0E08C159D05AE05BF0588F49101A20177
:104E4000B301C40136534546544C6F4F7F4F8F4FCB
:104E50009F4F19012A013B014C01EF5FE6CF83EB25
:104E6000A82E96EEB92E2EE0C22ED12CE12CF12CDC
:104E700000E010E09101A201B301C4010E949D3243
:104E80000AC0648175818681978123EB36EE4EE0FE
:104E900050E00E947932C90102C080E090E01F9189
:104EA0000F91FF90EF90DF90CF90BF90AF909F90C9
:104EB0008F907F906F905F904F903F902F900895CC
:104EC000CF92DF92EF92FF92CF93DF93CDB7DEB711
:104ED00028970FB6F894DEBF0FBECDBF6B017C01E3
:104EE0002AE0F694E794D794C7942A95D1F7C9821B
:104EF000DA82EB82FC829B01AC0133704427552798
:104F000063EB76EE8EE090E00E9455322C2D3A81D4
:104F10004B815C8128960FB6F894DEBF0FBECDBFE3
:104F2000DF91CF91FF90EF90DF90CF9008952F9277
:104F30003F924F925F926F927F928F929F92AF9229
:104F4000BF92CF92DF92EF92FF920F931F93FC01DB
:104F5000C080D180E280F380C114D104E104F10467
:104F6000B9F184819581A681B7811C012D01612C45
:104F7000712C4301E0E08E2F90E0A0E0B0E08C15B2
:104F80009D05AE05BF0588F49101A201B301C401DE
:104F900036534546544C6F4F7F4F8F4F9F4F1901EB
:104FA0002A013B014C01EF5FE6CF83EBA82E96EE82
:104FB000B92E2EE0C22ED12CE12CF12C00E010E015
:104FC0009101A201B301C4010E949D32CA010BC02C
:104FD000648175818681978123EB36EE4EE050E047
:104FE0000E947932CA01B9011F910F91FF90EF9091
:104FF000DF90CF90BF90AF909F908F907F906F90F9
:105000005F904F903F902F900895C1E00E94F71E4F
:105010000E94062D843010F4C0938C0B0E94153032
:105020008091D809853519F088E00E94701D809123
:105030007E41853559F388E00E94701DE7CF2F929D
:105040003F924F925F926F927F928F929F92AF9218
:10505000BF92CF92DF92EF92FF920F931F93CF9365
:10506000DF930E941C178AEF0E940A2D0E940630CF
:105070000E94D42AC0912D09AC2FB0E023EB36EE6C
:105080004EE050E00E944A320091930B1091940B35
:105090002091950B3091960B6B017C01C00ED11EB7
:1050A000E21EF31EC701B60123EB36EE4EE050E0E0
:1050B0000E947932C61AD70AE80AF90AC092930BFD
:1050C000D092940BE092950BF092960BE091980B96
:1050D000F091990B8085811130C080918C0B8230CA
:1050E00019F48C2F0E94FE18E091980BF091990B07
:1050F00060912D0980850E946619E091980BF091CE
:10510000990B60E080850E94A3198091930B909188
:10511000940BA091950BB091960B00918F0B109171
:10512000900B2091910B3091920B53EB452E56EE44
:10513000552E5EE0652E712C07C095816C2F911164
:10514000E2CF0E946619E1CF480159014FEF841A5E
:10515000940AA40AB40A81155AEC95075AE9A507DE
:105160005BE3B507C8F06C017D012AECD21A2AE98D
:10517000E20A2BE3F20AC701B601A30192010E94E1
:105180007932A7019601261B370B480B590BDA0120
:10519000C90195018401D8CF8093930B9093940B10
:1051A000A093950BB093960B00938F0B1093900BDD
:1051B0002093910B3093920BE091980BF091990B07
:1051C0008581882339F18185843021F1878182307E
:1051D00029F0882341F08681811102C085E001C059
:1051E00083E0818714C083E08187178216828589D6
:1051F0009689A789B08D892B8A2B8B2B41F4818DC1
:10520000928DA38DB48D858B968BA78BB08F808567
:105210000E94EA22E091980BF091990B85A196A14A
:10522000A7A1B0A5892B8A2B8B2B09F44EC08085B2
:10523000882309F44AC09185943009F446C0458D0D
:10524000568D678D70A100912D0910E020E030E0AF
:10525000401751076207730798F40E943319E091D1
:10526000980BF091990B608582E00E947F1DE09180
:10527000980BF091990B158E168E178E10A208C000
:10528000401B510B620B730B458F568F678F70A3BA
:10529000E091980BF091990BC085858D968DA78D27
:1052A000B0A1892B8A2B8B2B81F48C2F0E94331970
:1052B0006C2F83E00E947F1DE091980BF091990B79
:1052C00083E081878C2F0E94EA22C4EBDAE000E6BB
:1052D0001AEE312C2AEFC22ED12CE12CF12C32E027
:1052E000232E812C912C54018394FE0131978081CF
:1052F0008F3F09F4E5C033971082882309F45BC01F
:105300008881843009F457C04C845D846E847F8426
:1053100060912D0970E080E090E04616570668061F
:10532000790648F0461A570A680A790A4C865D865B
:105330006E867F8604C01C861D861E861F86488852
:1053400059886A887B88461657066806790648F0A9
:10535000461A570A680A790A488A598A6A8A7B8AE9
:105360001AC0288D398D4A8D5B8D621773078407AB
:10537000950758F429013A01461A570A680A790A2A
:10538000488A598A6A8A7B8A06C00E947932688B69
:10539000798B8A8B9B8B88899989AA89BB89892B70
:1053A0008A2B8B2B41F4888D998DAA8DBB8D888B90
:1053B000998BAA8BBB8B8881833009F081C08C8547
:1053C0009D85AE85BF85892B8A2B8B2B09F067C005
:1053D000DE0112978C91FE013397882391F0808132
:1053E000882379F0B501A4010090880B04C0440F14
:1053F000551F661F771F0A94D2F7488759876A8717
:105400007B871C921082A8A1B9A1A130B10509F532
:105410008C8D9D8DAE8DBF8D8C8B9D8BAE8BBF8B00
:10542000288288899989AA89BB898C879D87AE87BC
:10543000BF87888D998DAA8DBB8D892B8A2B8B2B4D
:1054400021F4CC86DD86EE86FF86832D0E943A22EB
:1054500026C04C8D5D8D6E8D7F8D4C8B5D8B6E8BE4
:105460007F8B488C598C6A8C7B8C1197A30192019D
:105470000E944A326C877D878E879F87688B798BE5
:105480008A8B9B8B45284628472821F4CC86DD86CD
:10549000EE86FF8666246394712C79A268A28C85BF
:1054A0009D85AE85BF850097A105B10549F0A8018E
:1054B00060E070E084179507A607B70708F48C0131
:1054C0003394AB9685E0782E37100FCFE091980B90
:1054D000F091990B80850E9445190E942922C82FBE
:1054E0002BE28202F0011124E555F54F228520932D
:1054F0009A0BF0938A0BE093890B8823D9F085A14E
:1055000096A1A7A1B0A5892B8A2B8B2B99F0858D0D
:10551000968DA78DB0A18A3F9105A105B10550F4E4
:10552000A80160E070E084179507A607B70710F49C
:105530008C0105C00B3F110510F00AEF10E020931D
:105540008B0BF093990BE093980B00932D090E941D
:105550006C2D282F30E02F5F3F4F2017310740F090
:105560000E946C2D082F10E00E5F1F4F00932D0935
:10557000C11110928C0B802F0E940A2D0E948F3037
:10558000DF91CF911F910F91FF90EF90DF90CF901F
:10559000BF90AF909F908F907F906F905F904F9053
:1055A0003F902F900C949A303F924F925F926F925F
:1055B0007F928F929F92AF92BF92CF92DF92EF92A3
:1055C000FF920F931F93CF93DF93CDB7DEB7609712
:1055D0000FB6F894DEBF0FBECDBFCE0109960E9474
:1055E0007B258BE9482E8BE0582E612C712C93E1A2
:1055F000392ED20112968C91813051F5369CF001F2
:10560000379CF00D1124EA55F44F89849A84AB84B9
:10561000BC84CD84DE84EF84F888008111812281EE
:1056200033814481558166817781CE0101960E9444
:10563000D8258F3F69F4662D85E10E947F1DD20138
:10564000ED91FC91309719F40E941E1701C0099545
:10565000BFEF6B1A7B0AE3E14E0E511CF3E06F16AD
:10566000710439F660960FB6F894DEBF0FBECDBF59
:10567000DF91CF911F910F91FF90EF90DF90CF902E
:10568000BF90AF909F908F907F906F905F904F9062
:105690003F900895EBE9FBE01282158A10A6089569
:1056A000CF93DF938330E0F493E1899FF0011124DD
:1056B000E556F44F51834083EB0188819981AA819B
:1056C000BB8183839483A583B6838C819D81AE81C6
:1056D000BF8187839087A187B287128281E001C052
:1056E0008FEFDF91CF910895CF92DF92EF92FF92EB
:1056F0000F931F93CF93DF93CDB7DEB728970FB6E5
:10570000F894DEBF0FBECDBF8330A8F5182FCE01B1
:1057100001960E947B2523E1129FC00111248C0178
:105720000556144FF801C380D480E580F680498186
:105730005A816B817C814C0D5D1D6E1D7F1D4387E1
:10574000548765877687C780D084E184F2844D8151
:105750005E816F8178854C0D5D1D6E1D7F1D4787B5
:10576000508B618B728B8A55944F0E94642681E026
:10577000F801828301C08FEF28960FB6F894DEBF40
:105780000FBECDBFDF91CF911F910F91FF90EF9092
:10579000DF90CF9008951F93CF93DF93CDB7DEB7FF
:1057A00028970FB6F894DEBF0FBECDBF833070F5DB
:1057B000182FCE0101960E947B2583E1189FF001EE
:1057C0001124E556F44F43815481658176818981A6
:1057D0009A81AB81BC81840F951FA61FB71F838759
:1057E0009487A587B68747815085618572858D81AD
:1057F0009E81AF81B885840F951FA61FB71F87872D
:10580000908BA18BB28B81E0828301C08FEF2896B1
:105810000FB6F894DEBF0FBECDBFDF91CF911F91C1
:105820000895833048F493E1899FF0011124E556EF
:10583000F44F128281E008958FEF08950000000078
:105840000000000000000000000000000000000058
:1058500000000000019791F708951092210108952A
:1058600089E0809321018DE89CE390932901809346
:105870002801089510922501109224010895CF93D4
:10588000DF9300D0CDB7DEB7809124019091250140
:105890009A83898389819A810F900F90DF91CF91AC
:1058A000089510928100089581E080938100089509
:1058B00083B5816083BD10928500109284000895A5
:1058C000CF93DF9300D0CDB7DEB780918400909165
:1058D00085009A83898389819A810F900F90DF9147
:1058E000CF910895CF92DF92EF92FF92CF93DF9303
:1058F000EC01CC0FDD1FC9378FEFD80710F0C0E0E7
:10590000D0E06B01E12CF12CCC0EDD1EE11CF11C72
:1059100081E0C816D104E806F10440F081E0E81AFD
:10592000F1080E94602CC817D907D8F30E94602C98
:105930008C159D05D8F3DF91CF91FF90EF90DF900C
:10594000CF9008951092B100E0E7F0E080818D7F64
:10595000808380818E7F808308958093B200089534
:10596000E0E7F0E080818360808383E08093B10092
:10597000089583B5826083BD1092B2001092B9067B
:1059800010922D090895CF93DF938EEF80932D0908
:1059900080E28093B60080912D098093B30083E06C
:1059A00087BB92E09093B0008093B10093B5926072
:1059B00093BD87BB84BD83B5826083BD1092800098
:1059C00081E080938100109285001092840083B55D
:1059D000826083BD83B5816083BD10922001C4E2E3
:1059E000D1E01982188283B5826083BD83B581605E
:1059F00083BD0E94B92C198218820E94B02C0E948B
:105A0000302C1092B906DF91CF9108958091B300A8
:105A10008F5F089581508093B3000895811102C073
:105A2000109271008FEF0895811106C010929500B9
:105A30001092940081E008958FEF0895811105C0C0
:105A40008091940090919500089580E090E00895F1
:105A5000811105C082E08093710081E008958FEF8D
:105A60000895811135C0CB010197059710F460931B
:105A70002A091092900088E0809391005093990039
:105A800040939800309317062093160680912A09B8
:105A9000813021F480919100816011C0823021F425
:105AA0008091910082600BC0833021F4809191003D
:105AB000836005C0843031F48091910084608093CC
:105AC000910008C0853031F4809191008560F7CF56
:105AD0008FEF089581E008958091B20008951F929C
