:100000000C94F7020C94B42E0C94E62E0C94182F3A
:100010000C9416030C9416030C9416030C941603FC
:100020000C9416030C94822E0C9416030C94160355
:100030000C9416030C94E12C0C9416030C94E12CF4
:100040000C9416030C9416030C9416030C941603CC
:100050000C9416030C9416030C9416030C941603BC
:100060000C9416030C9416030C9416030C941603AC
:100070000C9416030C9416030C9416030C9416039C
:100080000C94142D0C9416030C9416030C94160364
:100090000C9416030C9416030C9416030C9442054E
:1000A0000C9416030C9416030C9416030C9416036C
:1000B0000C9416030C9416030C9416030C9416035C
:1000C0000C9416030C9416030C9416030C9416034C
:1000D0000C9416030C9416030C9416030C9416033C
:1000E0000C9416030C94F60F0C94E70F0C94B70FB6
:1000F0000C94A7100C94A80F0C94990F0C94870FD4
:100100000C94780F0C9416030C9416030C9416039D
:100110000C9416030C9416030C9416030C941603FB
:100120002712341241124E125B1268127512981285
:10013000A612B412C212D012DE12EC120F13111357
:1001400013131513171319131B133A135D1381138C
:10015000A413C713EA130D144714541461146E1436
:100160007B1488149514AE14BB14C814D514E2146F
:10017000EF14FC143A1C401C431C461C491C4C1C2C
:10018000521C4F1C551C581C5B1C641C671C6A1CB1
:100190006D1C611C371C3D1C701C731C5E1C341CC8
:1001A0005C1D5F1D6A1D6F1D761D7F1D821D871DD5
:1001B0008E1D971D4661696C656420746F207265A1
:1001C000676973746572207369676E616C0D0A00EC
:1001D00054444D41204552524F523A20637265615A
:1001E00074696E6720656E61626C65207369676E05
:1001F000616C206661696C65640D0A0054444D4170
:10020000204552524F523A206372656174696E679D
:10021000207478207369676E616C206661696C6513
:10022000640D0A0054444D41204552524F523A2029
:100230006372656174696E67207278207369676E96
:10024000616C206661696C65640D0A0054444D411F
:100250002054583A20576F6B65207570206F6E20C0
:1002600077726F6E67207369676E616C0D0A005458
:10027000444D412054583A204572726F7220636198
:100280006C6C696E67206576656E74207761697441
:100290000D0A000D0A4E616E6F2D524B2054617392
:1002A0006B20537461746973746963733A0D0A0047
:1002B0000D0A000D0A2020204F766572666C6F775C
:1002C000204572726F72205374617475733A200006
:1002D0000D0A2020204B65726E656C2056696F6C8C
:1002E0006174696F6E733A20000D0A2020205072ED
:1002F00065656D7074696F6E733A20000D0A202079
:1003000020537761702D696E733A20000D0A20200A
:100310002054696D65205B4D696E2C4C6173742CA3
:100320004D61785D3A20000D0A202020546F7461E1
:100330006C204350553A20000D0A20202049646C5F
:1003400065205461736B204465657020536C65654E
:10035000702054696D653A20000D0A202020546FEA
:1003600074616C2053797374656D20557074696D78
:10037000653A2000205461736B2049443A200055AF
:100380004E4B4F574E0045787465726E616C20522B
:10039000657365740042726F776E204F75742044E8
:1003A0006574656374004661696C656420746F20D0
:1003B0006372656174652053656D6170686F726505
:1003C000004661696C656420746F206372656174B6
:1003D00065205369676E616C004B65726E656C20B9
:1003E00066756E6374696F6E206E6F7420696D70D0
:1003F0006C656D656E74656400446576696365203F
:10040000447269766572204572726F72005761742A
:100410006368646F67205265737461727400535728
:10042000205761746368646F6720526573746172EA
:10043000740054696D6572204F766572666C6F77D3
:1004400000556E68616E646C656420496E746572F7
:100450007275707420566563746F72004C6F7720EC
:10046000566F6C74616765004578747261205461E1
:10047000736B20737461727465642C206973206ED1
:10048000726B5F6366672E68206F6B3F0049646C18
:1004900065206F72204B65726E656C2053746163CA
:1004A0006B204F766572666C6F7700556E6578705D
:1004B0006563746564205265737461727400447579
:1004C000706C696361746564205461736B20494486
:1004D000005363686564756C6572204D697373655C
:1004E000642057616B657570005461736B205265B1
:1004F00073657276652056696F6C6174656400522D
:10050000657365727665204572726F7220696E2020
:100510005363686564756C657200496E76616C69D9
:100520006420537461636B20506F696E7465720050
:100530005461736B20537461636B204F76657266F0
:100540006C6F7700537461636B20776173206E6FFB
:100550007420646566696E6564206173206C6172E5
:10056000676520656E6F75676821005461736B2045
:10057000706572696F6420746F6F206C617267655B
:100580002E20506572696F64206D757374206265EA
:10059000206C657373207468616E2036312073653A
:1005A000636F6E64732E00293A20002A4E524B204E
:1005B0004552524F5228004E524B205265626F6F87
:1005C000742E2E2E0D0A000D0A535441434B204425
:1005D000554D500D0A0045464765666700202B2D96
:1005E0002E30313233343536373839680000112433
:1005F0001FBECFEFD1E4DEBFCDBF13E0A0E0B2E07D
:10060000EEEDFAE600E00BBF02C007900D92A639AE
:10061000B107D9F71BE0A6E9B3E001C01D92AA37E4
:10062000B107E1F70E942D300C946D350C94D72C56
:10063000CF93DF9300D0CDB7DEB711E086EAF82E76
:1006400092E3E92E27EAD22E30EDC32E4DE1B42EEF
:1006500051EDA52E6CE3962E73E0872EEDE37E2EF2
:1006600004E11092ED051093920880918D0690910F
:100670008E069C012F5F3F4F30938E0620938D0690
:1006800080939308F0927C06E0927D0662E08CE70E
:1006900096E00E94FC04D0927C0667E08CE796E02E
:1006A0000E94FC0467E08CE796E00E942B0582E044
:1006B00090E02C012FEF421A520AFC01E558F94F45
:1006C0002081FC01EE56F74F2083C201883091054E
:1006D00081F7C0927C06B0927D0662E08CE796E0DE
:1006E0000E94FC04A0927C0667E08CE796E00E94E2
:1006F000FC0467E08CE796E00E942B0592012F5FD7
:100700003F4FF201EB58F94F8081F201EE56F74F5F
:10071000808329012E30310589F790927C068092E2
:100720007D0662E08CE796E029833A830E94FC0410
:1007300070927C0667E08CE796E00E94FC0467E01C
:100740008CE796E00E942B053A812981F901E15955
:10075000F94F8081F901EE56F74F80832F5F3F4FAD
:100760002431310599F700937F091093ED050E941C
:10077000342377CFCF93DF93CDB7DEB728970FB66B
:10078000F894DEBF0FBECDBF0E94DD241F928F9371
:1007900088E792E09F938F930E942F3385E090E04B
:1007A000A0E0B0E089839A83AB83BC831D821E8264
:1007B0001F82188640E050E0BE016F5F7F4F80E0EF
:1007C00090E00E94B82A80E090E00E94332B0F90C6
:1007D0000F900F900F900E944808811116C00E9440
:1007E0003423F9CF80E090E00E942D1520E0409165
:1007F0007F0962E978E08BE697E00E94130681307A
:1008000021F089E892E00E94493380E090E00E9464
:10081000DC2A80E090E00E9444158091ED05811172
:10082000E1CF0E943423DECFCF93C82F883411F05C
:10083000803211F40E941E051F92CF9380EA92E04D
:100840009F938F930E942F330F900F900F900F90D4
:100850008C2FCF910895ECE7F6E080ED808386E160
:1008600081838BE1828363E0CF010C94FC04ECE78D
:10087000F6E08CE3808382E08183128263E0CF0123
:100880000C94FC040F931F93CF93DF93CCE7D6E037
:1008900016EA18830DE209831A8263E0CE010E94F2
:1008A000FC04188388E3898380E88A8363E0CE01AF
:1008B0000E94FC04188381E389838FE08A8363E0CC
:1008C000CE010E94FC041883098388E08A8363E0D8
:1008D000CE01DF91CF911F910F910C94FC04CF9228
:1008E000DF92EF92FF92CF9368E173E082E996E0A6
:1008F0000E94882F40E850E06DEE77E082E996E0B4
:100900000E948C2FE2E9F6E0C1E0C087C783C1876F
:10091000C287138614861586168680E498E7ADE7AD
:10092000B1E08787908BA18BB28B138A148A158ACA
:10093000168A178A108E118E128EC12CD12C760138
:10094000C394C38ED48EE58EF68E178E10A211A29C
:1009500012A2CF010E94A2226AEB73E08FE698E018
:100960000E94882F40E850E06CEF75E08FE698E039
:100970000E948C2FEFE6F8E082E08087C783C18772
:10098000C287138614861586168680EC91EEA4EE37
:10099000B0E08787908BA18BB28B138A148A158A5B
:1009A000168A178A108E118E128EC38ED48EE58E03
:1009B000F68E178E10A211A212A2CF010E94A222BF
:1009C000CF91FF90EF90DF90CF900C94480C8AE08D
:1009D0008093B8008FEF8093BB0084E08093BC00CD
:1009E00008958091BC00817008958091BC0080FDC5
:1009F000FCCF8091100208952091BC0020FDFCCF17
:100A000060939803FC0120812093990320FF09C083
:100A10001092960388EF8093100285EA8093BC00C1
:100A20000895FC01319629E933E0D90111968A2F06
:100A3000821B861768F781918C93F8CF8091BC0058
:100A400080FDFCCF1092960388EF8093100285EA18
:100A50008093BC0008952091BC0020FDFCCF209124
:100A6000960320FD04C0809196038170089529E9C2
:100A700033E0FC01D9018A2F821B8617A0F78D91E4
:100A80008193F9CF1F920F920FB60F9211240BB6DC
:100A90000F922F933F938F939F93EF93FF938091A8
:100AA000B900883201F140F48031D9F08831D9F0B1
:100AB000883009F04AC015C0803491F128F4883399
:100AC00009F043C085EA46C08035F1F08835E9F584
:100AD0008091BB00E0919703F0E0E756FC4F8083E4
:100AE0002DC010929703E091970380919803E81727
:100AF00028F581E08E0F80939703F0E0E756FC4FD6
:100B000080818093BB0018C0E091970381E08E0F35
:100B1000809397038091BB00F0E0E756FC4F808301
:100B20002091970330E08091980390E00197281777
:100B3000390714F485EC0EC085E80CC0809196034B
:100B400081608093960384E905C08091B900809309
:100B5000100284E08093BC00FF91EF919F918F91F0
:100B60003F912F910F900BBE0F900FBE0F901F90D3
:100B7000189508950C94F31081E08093D90308959B
:100B800081E08093D90308958091A603089500978A
:100B900031F09093A5038093A40381E008958FEF33
:100BA00008959093DC038093DB0381E08093DA0364
:100BB00008958FEF089580E090E00895803220F44A
:100BC0000E94D20C81E008958FEF08958B3168F474
:100BD000682F8093CC0324E132E140E254E280EFBD
:100BE00095E00E94140D81E008958FEF0895909391
:100BF000D4038093D303E2EBF3E0DC0120E432E49E
:100C00004FE050E00E94C5316483758386839783EB
:100C1000108211821282138281E008959093D20390
:100C20008093D1030895CF92DF92EF92FF92CF93FA
:100C3000DF9300D0CDB7DEB76C017B018091D50387
:100C4000813009F48DC0442309F48AC0611571050F
:100C500009F486C0C114D10409F482C0211108C06E
:100C6000809104092A8349830E94AF1F49812A8108
:100C700081E08093D50383E594E09093B906809357
:100C8000B806F601818180935404808180935304D7
:100C90008581968190935604809355048091D80362
:100CA000809358041092570481859285019692870B
:100CB000818790935A0480935904838180935C04C4
:100CC000828180935B043091D603F0E13F9FC001A5
:100CD0001124832B80935D045E2DF7018CE090E05E
:100CE0003E2F351B341750F43191A091B806B091C6
:100CF000B906A80FB91F3C930196F2CF445F409309
:100D0000B70621112BC081E090E0A0E0B0E0BC016B
:100D1000CD010090040904C0660F771F881F991F3A
:100D20000A94D2F70E9452206B017C016115710573
:100D30008105910521F48FE692E00E94F311009065
:100D4000040904C0F694E794D794C7940A94D2F7A0
:100D5000C0FC04C08CE492E00E94F31181E001C069
:100D60008FEF0F900F90DF91CF91FF90EF90DF907A
:100D7000CF9008958F929F92AF92BF92CF92DF92C1
:100D8000EF92FF920F931F93CF93DF931F92CDB7F4
:100D9000DEB74C018B015A018091CE0321111CC09A
:100DA0008130F1F48091030929830E94AF1F81E013
:100DB00090E0A0E0B0E0BC01CD010090030904C0C8
:100DC000660F771F881F991F0A94D2F70E9452203E
:100DD0006B017C01298104C0813011F48FEF7CC04C
:100DE0008091F3058C30D4F38C50D5018C9380E046
:100DF000F5019081891778F4482F50E0E091F505CE
:100E0000F091F605E40FF51F9485F801E40FF51F46
:100E100090838F5FEDCF8091F805992787FD90959E
:100E2000D4011E969C938E931D978091F9051F9671
:100E30008C931F978091FA0550968C9350978091D0
:100E4000FB0551968C935197E091F505F091F605CD
:100E5000858190E0982F88273481832B18969C9366
:100E60008E931797838190E0982F88273281832B68
:100E700016969C938E931597818190E0982F8827E2
:100E80003081832B11969C938E93878190E0982FCD
:100E900088273681832B1A969C938E931997818588
:100EA00090E0982F88273085832B13969C938E9300
:100EB000129782851C968C9321110BC00090030918
:100EC00004C0F694E794D794C7940A94D2F7C0FE6E
:100ED00085CF81E08093CE030F90DF91CF911F915A
:100EE0000F91FF90EF90DF90CF90BF90AF909F90C9
:100EF0008F900895009751F09093F6058093F50533
:100F00006093F40581E08093CE0308958FEF0895F8
:100F10008093D60308950F931F93CF93DF93162FDB
:100F2000D42F052F9FEF9093A9031092A80310923E
:100F3000A7038093D7031092DA0383E08093D6034C
:100F40001092A60380E094E09093D2038093D103A3
:100F500080E896E9A8E9B0E08093B6039093B703E0
:100F6000A093B803B093B9031092B2031092B303E5
:100F70001092B4031092B5030E949F1EC82F809355
:100F800003098F3F19F484E292E009C00E949F1E7A
:100F9000C82F809304098F3F69F48CEF91E00E9481
:100FA000F311E091120BF091130B60858EE00E941B
:100FB000E71C2DC00E949F1EC82F809380098F3F81
:100FC00019F480ED91E0EBCF83EE93E09093F6057A
:100FD0008093F50580E78093F405C1E0C093CE03CC
:100FE0001092D5032D2F302F4FEF5FEF612F80EF41
:100FF00095E00E94140D1093CC03D093D80383ED99
:101000009FEF0E940510C093CD03C093CB038C2F9C
:10101000DF91CF911F910F910895809103090E9454
:10102000AF1F809103090895809104090E94AF1FAA
:101030008091040908952091CE03213039F4FC01F8
:101040001082FB01108280E090E008952091F3056A
:10105000FC0120838091F805FB0180838091F505D8
:101060009091F605089581E08093CE030895109243
:10107000CB030C94930C81E08093CB030E94B90CBA
:10108000809180090C94E11F81E08093E60508952A
:101090008091CD0308958091CE03813099F00E9414
:1010A0008A0D0E94840D8091A3038F5F8093A30318
:1010B000833030F01092CE03809103090E94E11F2B
:1010C0008FEF08951092A3030E948E0E813091F548
:1010D0006091F3056D306CF18091D903811107C0E7
:1010E0001092CE03809103090E94E11F22C08091DB
:1010F000F5059091F6050E9464118091F505909197
:10110000F6052091F305820F911D27FD9A95FC01AC
:10111000319720812A3CA1F6319720812E3F81F61C
:10112000319720812E3B61F6319780818F3EC1F24D
:10113000C7CF81E00895CF93DF938091CE038130B4
:1011400011F08FEF40C0D4E60E948E0EC82F813080
:1011500089F56091F3056D30ACF18091D90381116F
:1011600007C01092CE03809103090E94E11F2AC09C
:101170008091F5059091F6050E9464118091F50526
:101180009091F6052091F305820F911D27FD9A9508
:10119000FC01319720812A3CA1F6319720812E3F16
:1011A00081F6319720812E3B61F6319780818F3E09
:1011B000C1F2C7CF84E690E00E94862BD15021F681
:1011C0008C2F01C081E0DF91CF9108950F931F9381
:1011D000CF939091D903992309F443C02091B70686
:1011E00084E0820F382F3F7031F087FF02C083E127
:1011F000820F807F805F8093B7068091B706E09171
:10120000B806F091B906E80FF11D87FDFA95319700
:101210008AEC80838091B706E091B806F091B90618
:10122000E80FF11D87FDFA9532978EEF808380914C
:10123000B706E091B806F091B906E80FF11D87FDF9
:10124000FA9533978EEB80838091B706E091B806CC
:10125000F091B906E80FF11D87FDFA9534978FEEEE
:1012600080836091B706062F112707FD1095E09146
:10127000B806F091B906C0E040E0242F30E0201716
:1012800031073CF42E0F3F1FD9018C91C80F4F5FDF
:10129000F4CF992319F0CF010E941511E091B70600
:1012A000FF27E7FDF095E657FE4FC08385EB96E0FC
:1012B0000E94900D1092D503809104090E94E11FB5
:1012C00081E0CF911F910F910895CF93DF9300D0CC
:1012D000CDB7DEB70E9434238091CD038823D1F3AC
:1012E000809180090E94AF1F8A838F3F21F484EB95
:1012F00091E00E94F311612C712C22242A94322C4B
:101300008091D703813009F0E1C08093A603611476
:10131000710409F088C08091D503811116C023E5BE
:1013200034E03093B9062093B8063FEF309355046C
:101330003093560410925704109258041092590496
:1013400010925A048CE08093B706E091B806F091B1
:10135000B9069091D1038091D20390878187108242
:10136000E091B806F091B9061182E091B806F091CB
:10137000B9062091D60330E1239FC0011124822BAE
:1013800082878091D30383878AEA93E00E94E324D3
:101390003092B6062092B5061092BB061092BA069D
:1013A0000E94E6080E94840D8091E605813009F0D4
:1013B00043C0412C512CC20165E070E00E94E03135
:1013C000892B21F483E090E00E941615E091B80685
:1013D000F091B9068FEF8083E091B806F091B906DD
:1013E0008183E091B806F091B9061482E091B806C5
:1013F000F091B90615829CE09093B7060E94E6082A
:101400008AE090E00E94DB23EFEF4E1A5E0AF8EECE
:101410004F16F3E05F0679F683E090E00E942D1509
:101420001092E60509C00E944B082A81213021F460
:101430007092D0036092CF033FEF631A730A8091DA
:10144000D1039091D2038615970528F48AE090E0A5
:101450000E94DB23ECC18090B2039090B303A09074
:10146000B403B090B503C090B603D090B703E0903A
:10147000B803F090B9030091AA031091AB03209137
:10148000AC033091AD034091AE035091AF03609136
:10149000B0037091B1038AEA93E00E94ED258AEAD5
:1014A00093E00E94CC252091AA033091AB03409198
:1014B000AC035091AD036091AE037091AF03809186
:1014C000B0039091B1030E9487241ACF672809F0D6
:1014D00057C00E94B90C0E94840D612C712C0E948F
:1014E0009B088A838AEA93E00E94E3248A81813000
:1014F00009F5E091F505F091F605818190E0982FCE
:1015000088272081822B258130E0322F22274481B9
:10151000242B232B21F48F3F2FEF920721F0892BCF
:1015200009F488C102C0612C712C31E03093CE03E4
:101530008FEF8A8394E669167104C0F01092A603B7
:10154000E091A403F091A503309729F0C3018456DC
:10155000910909958983E981E13019F4612C712C95
:1015600005C0F0E36F16F5E77F0618F42FEF621A57
:10157000720A31E03093CE038A81813009F0AFCF17
:10158000E091F505F091F6059285892F82958F708F
:101590009F70891B813118F48093CA0302C0109296
:1015A000CA031092C2031092C3031092C403109294
:1015B000C5031092C6031092C7031092C80310927D
:1015C000C9031092BA031092BB031092BC0310928D
:1015D000BD03A091F305BB27A7FDB09520E03DE733
:1015E0000E94BE31DC01CB01935BA74FBF4F8093BC
:1015F000BE039093BF03A093C003B093C103612CBB
:10160000712C8091CA0390E06816790640F58090AD
:10161000BA039090BB03A090BC03B090BD03C090F0
:10162000BE03D090BF03E090C003F090C1030091CF
:10163000C2031091C3032091C4033091C5034091AC
:10164000C6035091C7036091C8037091C90382EC2F
:1016500093E00E94ED259FEF691A790AD2CFE1E06D
:10166000E093A6030E948A0D0E94930C8091DB03F5
:101670009091DC036090D1037090D203861597059A
:1016800008F43C01412C512C4614570441F1809040
:10169000B2039090B303A090B403B090B503C09090
:1016A000B603D090B703E090B803F090B90300916F
:1016B000AA031091AB032091AC033091AD0340918C
:1016C000AE035091AF036091B0037091B1038AEA09
:1016D00093E00E94ED25FFEF4F1A5F0AD5CF80906F
:1016E000C2039090C303A090C403B090C503C09000
:1016F000C603D090C703E090C803F090C9030091DF
:10170000AA031091AB032091AC033091AD0340913B
:10171000AE035091AF036091B0037091B1038AEAB8
:1017200093E00E9440258AEA93E00E94CC25209114
:10173000AA033091AB034091AC035091AD0360918B
:10174000AE037091AF038091B0039091B1030E94FA
:1017500087248091D5038130B1F4E091B806F091EF
:10176000B9066082E091B806F091B90671823092B4
:10177000B6062092B5061092BB061092BA060E94D9
:10178000B90C0E94E6080E948A0D0E94930C412C1D
:10179000512C8091D1039091D20386199709481654
:1017A000590640F58090B2039090B303A090B40323
:1017B000B090B503C090B603D090B703E090B803E3
:1017C000F090B9030091AA031091AB032091AC03F0
:1017D0003091AD034091AE035091AF036091B003DF
:1017E0007091B1038AEA93E00E94ED252FEF421A2F
:1017F000520ACFCF8AEA93E00E94CC252091AA0317
:101800003091AB034091AC035091AD036091AE03B6
:101810007091AF038091B0039091B1030E9487242F
:101820008091CB03811103C00E943423F9CF612C36
:10183000712C66CD828582958F708093D6038185C9
:1018400090E0982F88272085822B9093D203809355
:10185000D103A3858A2F90E09093D4038093D30380
:10186000DC0120E432E44FE050E00E94C531609397
:10187000B6037093B7038093B8039093B9031092A3
:10188000B2031092B3031092B4031092B50352CE78
:1018900065E679E083EC95E00E94882F40E051E016
:1018A00063EC74E083EC95E00E948C2FE3ECF5E0B0
:1018B00084E1808781E087838187828781E090E06F
:1018C000A0E0B0E083879487A587B6871786108A43
:1018D000118A128A87E090E0A0E0B0E0838B948BBD
:1018E000A58BB68B178A108E118E128E138E148EC6
:1018F000158E168E178E10A211A212A2CF010C9473
:10190000A222909141019F719F31D9F380934201AE
:1019100008958093E705089581E08093190A08955A
:101920001092190A0895809141018F718F31D9F376
:10193000809141018F71E1F08F30D1F080914101B0
:101940008F71883031F48091390182608093390140
:101950000BC088E00E94810C809141018F7188301A
:10196000D9F7F1CF8F3021F0809141018F71D1F7FC
:101970000895809141018F718F31D9F38091410198
:101980008F7111F08F3051F4809139018D7F8093E8
:101990003901809141018F718830D9F7089589E02C
:1019A0000C94810CE5E4F1E09081907F908390812C
:1019B0008F70982B90830895E7E5F1E080818D7F0B
:1019C00080830895E7E5F1E0808182608083089557
:1019D000EEE6F1E080818F7E80830895EEE6F1E00F
:1019E000808180618083089580936001909361017C
:1019F0009093230A8093220A089590931D0A80935E
:101A00001C0AE8E4F1E08081807E80838081682B7D
:101A1000608308959093EB058093EA050895909371
:101A2000E9058093E80508950F931F93CF93DF9303
:101A3000FC01D90180E28093440180EC8093450150
:101A400060626093480185EC8093490187EA809346
:101A50004B0180E880934C0120936001B0936101B9
:101A60004093620150936301C6E4D1E0088188810C
:101A700098812881302F32953695377060E4369FF3
:101A800080011124229526952370622F602B829568
:101A90008695837070E1879F90011124262B929583
:101AA0009695937084E0989FB0011124622B609307
:101AB0006D0188819881929596959370392F306445
:101AC000982F92959670932B90936E0110926C01C3
:101AD0008FEF80934E01CCE1DAE0F983E8831A823C
:101AE0001B825D834C83BF83AE83188681E0809325
:101AF000360A10924D0A1092250A1092190ADF91A7
:101B0000CF911F910F91089586E10C94810C86E18D
:101B10000C94810C88E00E94810C10924D0A08956B
:101B20000F931F93CF93DF93FC018091360A8111AD
:101B300002C08FEFABC0268180911E0A8F5F809319
:101B40001E0A90918101907E916020FB95F99F7310
:101B500090649093810188E8809382018091190AB2
:101B6000882361F08FEF809383018AEA9AEA909349
:101B70008901809388018FEF9FEF10C080911E0A2A
:101B800080938301209161018091600190E0922B0C
:101B9000909389018093880180819181909387013E
:101BA00080938601209163018091620190E0922BE5
:101BB00090938501809384018F014281552747FDD1
:101BC0005095638174818AE891E00E949532F80112
:101BD0008281855F8093800180914101D82FDF71E0
:101BE0009FEF9D0F9230C0F3D131B1F3D231A1F309
:101BF000DF3191F398EF9D0F923020F08F70863097
:101C000009F097CF86E10E94810CF801858181114E
:101C10000BC089E00E94810CF8018681882391F035
:101C200089E10E94810C0EC08091480180688093F8
:101C300048018091410187FFFCCF8091410186FFDF
:101C400078CFE7CF1092250A82E00E94810C80E0D5
:101C500090E02091250A211105C00196883EFDEFF4
:101C60009F07B9F7F8012681222331F02091420124
:101C700022952695277029F4883E9D4F11F0C1E0EA
:101C800001C0CFEF8D2F0E94810C8C2FDF91CF915F
:101C90001F910F9108951092250A82E00E94810CF5
:101CA00088EE9DEF2091250A211104C00197D1F7FC
:101CB0008FEF089581E00895CF93DF938091360AE6
:101CC000882341F180914101C82FCF719FEF9C0F74
:101CD0009230C0F3C131B1F3C231A1F3CF3191F3EE
:101CE000C83019F08F708630A9F486E10E94810C0B
:101CF000809148018068809348018091410187FF6D
:101D0000FCCFD09141018C2F0E94810CD6FB8827FB
:101D100080F901C08FEFDF91CF9108958091360A4D
:101D2000882309F4E3C080914D0A882309F4DCC0BC
:101D300080917B01E0911C0AF0911D0A90E00297CE
:101D40002481332727FD3095281739070CF4CEC09E
:101D5000E0911C0AF0911D0A809182018083E0913C
:101D60001C0AF0911D0A809187019091880192834D
:101D70008183E0911C0AF0911D0A80917B018B50B8
:101D80008383A0911C0AB0911D0AE0911C0AF09176
:101D90001D0A13969C91848189173CF0E0911C0ADE
:101DA000F0911D0A838187FF0DC010924D0A80912A
:101DB0004C018F7780934C0180914C018068809317
:101DC0004C0194C0A0911C0AB0911D0AE0911C0A1C
:101DD000F0911D0A13964C91552747FD509569E8DF
:101DE00071E0858196810E9495328091E705882374
:101DF00009F43EC0E0911C0AF0911D0A83818031F4
:101E0000B9F5E0911C0AF0911D0A6581768144E0E4
:101E100050E081E192E00E949E32892B49F5E091E9
:101E20001C0AF0911D0A6581768140E150E081E154
:101E300092E00E949E32892BD9F49DE088E10FB692
:101E4000F894A895809360000FBE9093600080E0A6
:101E500090E00E94441581E090E00E94441582E0E9
:101E600090E00E94441583E090E00E944415FFCF6B
:101E7000E0911C0AF0911D0A8091800185FB882762
:101E800080F98783E0911C0AF0911D0A8091470137
:101E90008087E0911C0AF0911D0A80914601869589
:101EA000869586958187E0911C0AF0911D0A8091A4
:101EB00047018287A0911C0AB0911D0AE0917B0125
:101EC000F0E0E058FE4F80811B968C9310924D0AF3
:101ED00080914C018F7780934C0180914C018068F8
:101EE00080934C0181E0089580E008958FEF08957C
:101EF0001F920F920FB60F9211248F9380E8809358
:101F00004F018F910F900FBE0F901F9018951F9249
:101F10000F920FB60F9211248F9381E08093250AC0
:101F200080E480934F018F910F900FBE0F901F9010
:101F300018951F920F920FB60F9211248F9380E283
:101F400080934F018F910F900FBE0F901F901895A7
:101F50001F920F920FB60F9211248F9380E18093FE
:101F60004F018F910F900FBE0F901F9018951F92E9
:101F70000F920FB60F9211240BB60F922F933F932F
:101F80004F935F936F937F938F939F93AF93BF9381
:101F9000EF93FF9384E080934F01E091EA05F09185
:101FA000EB05309709F00995FF91EF91BF91AF9143
:101FB0009F918F917F916F915F914F913F912F9161
:101FC0000F900BBE0F900FBE0F901F9018951F9291
:101FD0000F920FB60F9211248F9382E080934F01DE
:101FE0008F910F900FBE0F901F9018951F920F9218
:101FF0000FB60F9211248F9381E080934F018F9140
:102000000F900FBE0F901F901895E9E4F1E09081BA
:10201000907F908390818F70982B908308958FEF9D
:1020200008950895089508958FEF08958091170AEF
:102030009091180A0895089581E0089581E0089527
:1020400081E00895089508950895089508950895E4
:102050000895089598988DB1806E8DB98EB1806A7B
:102060008EB9089598988DB1806E8DB98EB18066C5
:102070008EB90895CF92DF92EF92FF920F931F9344
:10208000CF93DF93CDB7DEB727970FB6F894DEBFB7
:102090000FBECDBF0E946116E0911C0AF0911D0A8F
:1020A000C080D380E580F68000850E948E0E1816D1
:1020B0001CF085EA92E006C0F7011081111107C0FB
:1020C00084EC92E00E9449330E94631631C01530BF
:1020D00021F48AE090E00E944333C70101969F9368
:1020E0008F93802F992787FD90959F930F931F9231
:1020F0001F931F92CF9286EE92E09F938F930E9440
:102100002F33FD82EC821150F7011083DB821E8297
:102110001F828FEF9FEF9A8389830E946316CE01FF
:1021200001960E94900D0FB6F894DEBF0FBECDBF92
:1021300027960FB6F894DEBF0FBECDBFDF91CF91CB
:102140001F910F91FF90EF90DF90CF9008951F9215
:102150000F920FB60F9211240BB60F922F933F934D
:102160004F935F936F937F938F939F93AF93BF939F
:10217000EF93FF9380E090917B01891710F48F5FBC
:10218000FACF8091460187FF04C081E080934D0A19
:1021900004C08FE093E00E94493388E080934F01B0
:1021A0008091460187FF05C08091190A81110E9424
:1021B0003A10E091E805F091E905309709F00995AA
:1021C000FF91EF91BF91AF919F918F917F916F910F
:1021D0005F914F913F912F910F900BBE0F900FBECB
:1021E0000F901F901895A6E2BAE0FC01409620815E
:1021F0002D93219120933F01E817F907C1F780E162
:1022000010923E018150E1F780E880933C0180917B
:102210003D0180FFFCCFE7E3FAE080E18E0F909173
:102220003F0191938E13FBCF0895CF93DF93DC0191
:10223000662309F445C0862F8F7009F041C0E6E29D
:10224000FAE090E19E0F219120933F019E13FBCF76
:1022500090E070E0E0E240E1949F900111242617A5
:1022600037077CF5911103C010923C0102C0E09346
:102270003C0140E050E02A0F3B1FE901C40FD51F8D
:10228000F881F0933E014F5F5F4F40315105A9F750
:1022900040913C01406840933C0140913D0140FF2A
:1022A000FCCF40E050E0F0913E01E901C40FD51FA2
:1022B000F8834F5F5F4F40315105A9F79F5FCBCF48
:1022C00081E0DF91CF9108950F931F93CF93DF9318
:1022D000DC01613009F458C0862F8F7009F054C0BA
:1022E000E7E3FAE090E19E0F219120933F019E13D6
:1022F000FBCF62956F70615078E06F3F09F445C085
:1023000070933C01462F552747FD509520E030E063
:10231000ED0190E16902C00DD11D1124FE01E20F13
:10232000F31F908190933E012F5F3F4F2031310585
:10233000A9F790913C01906890933C0190913D01E8
:1023400090FFFCCF4150510994E0440F551F9A95DE
:10235000E1F720E030E090913E018E01020F131F63
:10236000F8019083662349F0F901E40FF51FEA0FA5
:10237000FB1FE0819E27F80190832F5F3F4F2031A4
:10238000310549F76150B9CF81E0DF91CF911F91BD
:102390000F9108958091C00087FFFCCF8091C0000D
:1023A0008F778093C0008091C60008959091C000FF
:1023B00095FFFCCF9091C0009F7D9093C0008093CB
:1023C000C60008958FEF0895813019F48091C800F8
:1023D00004C0811106C08091C000881F8827881F13
:1023E000089580E00895CF93DF93FC012491EC01E0
:1023F0002196222351F06091720B7091730B822F02
:1024000090E00E94F732CE01F0CFDF91CF91089596
:1024100086E084B985B988EF8AB980EF8BB982E00C
:102420008DB908950C9408128F3F09F46CC0E82F01
:10243000E7704E2F50E04730510508F064C0FA01B4
:10244000E057FF4F8695869586950C94753242B17C
:1024500021E030E0B90102C0660F771F8A95E2F7EC
:10246000CB01842B82B94DC045B121E030E0B901E8
:1024700002C0660F771F8A95E2F7CB01842B85B9DE
:1024800040C048B121E030E0B90102C0660F771FBB
:102490008A95E2F7CB01842B88B933C04BB121E098
:1024A00030E0B90102C0660F771F8A95E2F7CB01D1
:1024B000842B8BB926C04EB121E030E0B90102C0B7
:1024C000660F771F8A95E2F7CB01842B8EB919C06E
:1024D00041B321E030E0B90102C0660F771F8A9551
:1024E000E2F7CB01842B81BB0CC044B321E030E088
:1024F000B90102C0660F771F8A95E2F7CB01842BE2
:1025000084BB81E008958FEF08958F3F09F473C075
:10251000E82FE7704E2F50E04730510508F06BC0B0
:10252000FA01E956FF4F8695869586950C9475328B
:1025300042B121E030E0B90102C0660F771F8A95F1
:10254000E2F7CB018095842382B953C045B121E0E5
:1025500030E0B90102C0660F771F8A95E2F7CB0120
:102560008095842385B945C048B121E030E0B901A8
:1025700002C0660F771F8A95E2F7CB01809584230E
:1025800088B937C04BB121E030E0B90102C0660F15
:10259000771F8A95E2F7CB01809584238BB929C0F8
:1025A0004EB121E030E0B90102C0660F771F8A9575
:1025B000E2F7CB01809584238EB91BC041B321E0A3
:1025C00030E0B90102C0660F771F8A95E2F7CB01B0
:1025D0008095842381BB0DC044B321E030E0B90174
:1025E00002C0660F771F8A95E2F7CB01809584239E
:1025F00084BB81E008958FEF08958F3F31F1E82F7C
:10260000E7704E2F50E047305105F8F4FA01E256DA
:10261000FF4F282F2695269526950C94753290B15C
:102620000BC093B109C096B107C099B105C09CB168
:1026300003C09FB101C092B3892F90E002C095956D
:1026400087952A95E2F7817008958FEF08958F3F5F
:1026500009F406C1E82FE7704E2F50E047305105CE
:1026600008F0FEC0FA01EB55FF4F869586958695DA
:102670000C94753220B130E0082E02C035952795B4
:102680000A94E2F742B120FD0BC021E030E0B9012D
:1026900002C0660F771F8A95E2F7CB01842B0BC02F
:1026A00021E030E0B90102C0660F771F8A95E2F79A
:1026B000CB018095842382B916C023B130E0082E67
:1026C00002C0359527950A94E2F745B120FD0DC06B
:1026D00021E030E0B90102C0660F771F8A95E2F76A
:1026E000CB01842B85B981E0089521E030E0B90168
:1026F00002C0660F771F8A95E2F7CB01809584238D
:10270000F1CF26B130E0082E02C0359527950A9406
:10271000E2F748B120FD0BC021E030E0B90102C072
:10272000660F771F8A95E2F7CB01842B0BC021E05F
:1027300030E0B90102C0660F771F8A95E2F7CB013E
:102740008095842388B9CFCF29B130E0082E02C00C
:10275000359527950A94E2F74BB120FD0BC021E097
:1027600030E0B90102C0660F771F8A95E2F7CB010E
:10277000842B0BC021E030E0B90102C0660F771F47
:102780008A95E2F7CB01809584238BB9ACCF2CB12D
:1027900030E0082E02C0359527950A94E2F74EB135
:1027A00020FD0BC021E030E0B90102C0660F771FA9
:1027B0008A95E2F7CB01842B0BC021E030E0B90110
:1027C00002C0660F771F8A95E2F7CB0180958423BC
:1027D0008EB989CF2FB130E0082E02C035952795EC
:1027E0000A94E2F741B320FD0BC021E030E0B901CB
:1027F00002C0660F771F8A95E2F7CB01842B0BC0CE
:1028000021E030E0B90102C0660F771F8A95E2F738
:10281000CB018095842381BB66CF22B330E0082EA4
:1028200002C0359527950A94E2F744B320FD0BC00A
:1028300021E030E0B90102C0660F771F8A95E2F708
:10284000CB01842B0BC021E030E0B90102C0660F40
:10285000771F8A95E2F7CB018095842384BB43CF11
:102860008FEF08958F3F09F4D5C0E82FE7704E2F02
:1028700050E0611167C04730510508F0CBC0FA0144
:10288000E455FF4F8695869586950C94753241B137
:1028900021E030E0B90102C0660F771F8A95E2F7A8
:1028A000CB018095842365C044B121E030E0B901BB
:1028B00002C0660F771F8A95E2F7CB0180958423CB
:1028C00065C047B121E030E0B90102C0660F771F53
:1028D0008A95E2F7CB018095842365C04AB121E057
:1028E00030E0B90102C0660F771F8A95E2F7CB018D
:1028F0008095842365C04DB121E030E0B90102C06C
:10290000660F771F8A95E2F7CB018095842365C017
:1029100040B321E030E0B90102C0660F771F8A950D
:10292000E2F7CB018095842365C043B321E030E01A
:10293000B90102C0660F771F8A95E2F7CB01809537
:10294000842365C04730510508F064C0FA01ED5496
:10295000FF4F8695869586950C94753241B121E09E
:1029600030E0B90102C0660F771F8A95E2F7CB010C
:10297000842B81B94DC044B121E030E0B90102C0DF
:10298000660F771F8A95E2F7CB01842B84B940C08C
:1029900047B121E030E0B90102C0660F771F8A9588
:1029A000E2F7CB01842B87B933C04AB121E030E094
:1029B000B90102C0660F771F8A95E2F7CB01842B1D
:1029C0008AB926C04DB121E030E0B90102C0660FDE
:1029D000771F8A95E2F7CB01842B8DB919C040B3DC
:1029E00021E030E0B90102C0660F771F8A95E2F757
:1029F000CB01842B80BB0CC043B321E030E0B90194
:102A000002C0660F771F8A95E2F7CB01842B83BB48
:102A100081E008958FEF0895811106C080B18695F9
:102A2000817091E0892708958FEF0895009711F440
:102A300083E20DC08130910511F48BE208C0823031
:102A4000910511F483E303C0039729F48BE30E94FB
:102A5000271381E008958FEF0895009711F483E222
:102A60000DC08130910511F48BE208C082309105D0
:102A700011F483E303C0039729F48BE30E9414123B
:102A800081E008958FEF0895009711F483E20DC05F
:102A90008130910511F48BE208C08230910511F468
:102AA00083E303C0039729F48BE30E94851281E03E
:102AB00008958FEF0895882319F085B78F7E02C09F
:102AC00085B7806185BF81E008959091C80095FF2A
:102AD000FCCF8093CE0008959093C5008093C400EE
:102AE00086E08093C200E1ECF0E080818B7F808300
:102AF000A0ECB0E08C9182608C93808188618083AF
:102B000008959093CD008093CC0086E08093CA0016
:102B1000E9ECF0E080818B7F8083A8ECB0E08C91C1
:102B200082608C938081886180830895CF93DF9346
:102B30000E946C156AEC71E186ED91E10E94AC3265
:102B4000C0E7DBE09B838A836AEC71E186ED91E16B
:102B50000E94AC3299838883DF91CF910895809150
:102B6000C80087FFFCCF8091C8008F778093C80092
:102B70008091CE0008950000000000000000019741
:102B8000D1F708950C9407340E940F340895EF9202
:102B9000FF920F931F93CF93DF937C0180E090E02F
:102BA0000E940734182FF701838381E090E00E9490
:102BB0000734082FF701828382E090E00E940734F7
:102BC000D82FF701818383E090E00E940734C82F5B
:102BD000F701808384E090E00E940734100FD10F4A
:102BE000CD0F8C1711F08FEF01C081E0DF91CF91F5
:102BF0001F910F91FF90EF900895CF93DF93EC0119
:102C000085E090E00E940734888381E0DF91CF91D6
:102C10000895FC01608186E090E00E940F3481E01D
:102C20000895CF93DF93EC0186E090E00E94073493
:102C3000888381E0DF91CF9108950F931F93CF9305
:102C4000DF938C01C0E0D0E0CE0108960E940734EB
:102C5000F80181938F012196C031D105A9F781E058
:102C6000DF91CF911F910F9108950F931F93CF93F1
:102C7000DF938C01C0E0D0E0F80161918F01CE01BB
:102C800008960E940F342196C031D105A9F781E042
:102C9000DF91CF911F910F910895CF93DF93EC01B6
:102CA00087E090E00E940734888381E0DF91CF9134
:102CB0000895FC01608187E090E00E940F3481E07C
:102CC0000895F8940895789408950E946116FFCFAE
:102CD000CF93DF93CDB7DEB7A3970FB6F894DEBFDF
:102CE0000FBECDBF0E949F1E8093020B8F3F21F429
:102CF00060E08EE00E94E71C0E94502D80FF04C01F
:102D000060E086E00E94E71C0E94672F8F3F31F44D
:102D10000E944A2F60E080E10E94E71C0E94582F29
:102D20001092050B1092130B1092120B1092040BC1
:102D30001092030B1092140B0E942A181092110B80
:102D40008FEF8093FE0A8093000B8093FF0A93E637
:102D500090935A0A8093580A9093850A8093830A25
:102D60009093B00A8093AE0A9093DB0A8093D90ABD
:102D70008EE49BE023E53BE03093520B2093510B14
:102D80009093550B8093540B48E55BE05093570BA1
:102D90004093560B30935A0B2093590B2DE53BE093
:102DA00030935C0B20935B0B50935F0B40935E0B57
:102DB00042E65BE05093610B4093600B3093640BF1
:102DC0002093630B1092500B10924F0B1092660BD6
:102DD0001092650B1092080B1092070B90934F0AFC
:102DE00080934E0A6DE677E2CE0101960E94882F0D
:102DF00040E850E063E979E0CE0101960E948C2F13
:102E000085E58093930919861C861D861E861F867C
:102E1000188A198A1A8A1B8A1C8A1D8A1E8A1F8A86
:102E2000188E198E1A8E1B8E1C8E1D8E1E8E1F8E56
:102E300018A219A21AA21BA281E0888792E09A87A1
:102E40008B87CE0101960E94A222A3960FB6F8941A
:102E5000DEBF0FBECDBFDF91CF91089508E51AE028
:102E6000C0E0F801D080FFEFDF1222C0CF5F055D28
:102E70001F4FC430B1F70E9491212BE28202C001A2
:102E80001124FC01E05BF54F82858093140BF093D5
:102E9000130BE093120BF093040BE093030B80935E
:102EA000050B0E94FE2F0E94E82F0E94023016C0E0
:102EB00088E5E82E8AE0F82ED0E0CD1741F0F70142
:102EC0008081D81204C06D2D85E00E94E71CDF5F71
:102ED000FBE2EF0EF11CD43081F7C8CFFFCFCF92C9
:102EE000DF92EF92FF920F931F93CF93DF93EC014A
:102EF0008B017A018985823021F08091010B8883D2
:102F000001C018828091010B843020F060E087E0DE
:102F10000E94E71C8985823029F08091010B8F5F28
:102F20008093010B8091010B811103C081E080939C
:102F3000010B38812BE23203F0011124E05BF54FE5
:102F4000118300838885828738813203F001112440
:102F5000E05BF54F83E0818738813203F001112473
:102F6000E05BF54F30870881020380011124005B8C
:102F7000154FF8011582CE010B960E94FF26F8012D
:102F800061A372A383A394A38B859C85AD85BE8525
:102F900088339948A144B10520F0688186E10E94F8
:102FA000E71CC880DD24C7FCD094CE014B960E945C
:102FB000FF261BE21C9DF0011D9DF00D1124E05B1E
:102FC000F54F658B768B878B908F28812103C0010D
:102FD00011249C01205B354F6901F901458956890F
:102FE0006789708D81A192A1A3A1B4A1840F951FBF
:102FF000A61FB71F818F928FA38FB48FCE014396E8
:103000000E94FF26F60165A376A387A390A72881D7
:103010002103F0011124E05BF54F85A196A1A7A142
:10302000B0A5858F968FA78FB0A381E090E092A77F
:1030300081A7F382E2828487DF91CF911F910F9164
:10304000FF90EF90DF90CF9008950C94872785E64E
:1030500090E008951092BC061092BD061092BE0634
:103060001092BF061092C0061092C1061092C206BE
:103070001092C306E6E0F9E080E090E01082118251
:10308000128213821086118612861386148215828C
:10309000168217821486158616861786108A118A5C
:1030A000128A138A108E118E128E138EDC01AA5F83
:1030B000B64F5C961C925C975D961C927E964E96DF
:1030C00088379105D9F608950F931F93ECEBF6E03E
:1030D000A82FB0E023EB36EE4EE050E00E94C53161
:1030E0000481158126813781DC01CB01800F911F7E
:1030F000A21FB31F84839583A683B783CF011F913B
:103100000F910C94CC25ECEBF6E04081518162816B
:103110007381DC014D935D936D937C931397448190
:10312000558166817781FC0144835583668377836B
:1031300008952EE1829FC0011124FC01EA5FF64F41
:10314000858D813039F0848D8F5F848F8F3F11F4AE
:1031500081E0858F08952EE1829FC0011124FC013A
:10316000EA5FF64F858D8130B1F0148A158A168A90
:10317000178A80899189A289B3890196A11DB11D01
:10318000808B918BA28BB38B8E3F9F4FAF4FBF4FE6
:1031900011F481E0858F08950F931F932EE1829F94
:1031A000C0011124FC01EA5FF64F858D813071F179
:1031B000808D918DA28DB38D0196A11DB11D808F43
:1031C000918FA28FB38F462F50E060E070E00489AA
:1031D000158926893789040F151F261F371F048B71
:1031E000158B268B378B0081118122813381400F13
:1031F000511F621F731F40835183628373838E3F0D
:103200009F4FAF4FBF4F11F481E0858F1F910F91FA
:103210000895CF92DF92EF92FF92282F30E09EE147
:10322000899FF0011124EA5FF64F858D813009F402
:103230004BC0462F50E060E070E084899589A689F4
:10324000B789840F951FA61FB71F84879587A68708
:10325000B787C080D180E280F3804C0D5D1D6E1D6C
:103260007F1D4083518362837383448155816681CE
:103270007781411551056105710529F0841795077E
:10328000A607B70760F44EE1429FF001439FF00D9F
:103290001124EA5FF64F84839583A683B7834EE1BA
:1032A000429FF001439FF00D1124EA5FF64F4085E5
:1032B000518562857385481759076A077B0720F493
:1032C00080879187A287B387FF90EF90DF90CF90A0
:1032D00008958F929F92AF92BF92CF92DF92EF921A
:1032E000FF920F931F93CF93DF93CDB7DEB728974D
:1032F0000FB6F894DEBF0FBECDBF182F84E793E062
:103300000E94F311A12EB12C1F921F9388E293E02B
:103310009F938F930E942F330F900F900F900F90D9
:10332000111152C089E593E00E94F311CE0101967C
:103330000E94E3246D817E818F819885E0E4CE2E0A
:10334000E2E4DE2EEFE0EE2EF12CA70196010E94C2
:10335000F4315F934F933F932F938C818F938B81A5
:103360008F938A818F9389818F930BE213E01F9350
:103370000F930E942F3388E393E00E94F311609132
:10338000C0067091C1068091C2069091C306A70144
:1033900096010E94F4315F934F933F932F93809156
:1033A000BF068F938091BE068F938091BD068F9349
:1033B0008091BC068F931F930F930E942F330FB6FB
:1033C000F894DEBF0FBECDBF87E293E00E94F311F9
:1033D0008EE18A9D80018B9D100D11240A5F164F8E
:1033E000F80160817181828193810E94C8262983BE
:1033F0003A834B835C836D837E838F8398876D8153
:103400007E818F81988520E4822E22E4922E2FE007
:10341000A22EB12CA50194010E94F4315F934F9329
:103420003F932F938C818F938B818F938A818F937E
:1034300089818F933BE2E32E33E0F32EFF92EF92EC
:103440000E942F338CE093E00E94F311F801648115
:103450007581868197810E94C82629833A834B8390
:103460005C836D837E838F8398876D817E818F815E
:103470009885A50194010E94F4315F934F933F9387
:103480002F938C818F938B818F938A818F938981E6
:103490008F934BE3C42E43E0D42EDF92CF920E9451
:1034A0002F33F80164857585868597850E94C82627
:1034B00029833A834B835C836D837E838F839887D4
:1034C0006D817E818F819885A50194010E94F431E0
:1034D0005F934F933F932F938C818F938B818F9327
:1034E0008A818F9389818F93DF92CF920E942F33AD
:1034F000F80160857185828593850E94C82629839D
:103500003A834B835C836D837E838F8398876D8141
:103510007E818F819885A50194010E94F4315F938B
:103520004F933F932F938C818F938B818F938A81BD
:103530008F9389818F93FF92EF920E942F330FB662
:10354000F894DEBF0FBECDBF8CEF92E00E94F31166
:10355000F801709683818F9382818F9381818F93FD
:10356000F80180898F935DE4E52E53E0F52EFF92FC
:10357000EF920E942F3389EE92E00E94F311F8013E
:10358000789683818F9382818F9381818F93F801C5
:10359000808D8F93FF92EF920E942F3380ED92E007
:1035A0000E94F311F801848D1F928F9361E5E62E3E
:1035B00063E0F62EFF92EF920E942F3383EB92E0AE
:1035C0000E94F311F801858D1F928F93FF92EF9265
:1035D0000E942F3380EB92E00E94F3110FB6F89413
:1035E000DEBF0FBECDBF28960FB6F894DEBF0FBE6C
:1035F000CDBFDF91CF911F910F91FF90EF90DF90A2
:10360000CF90BF90AF909F908F90089583E992E004
:103610000E94F31180E00E94691981E00E946919FB
:1036200082E00E94691983E00C946919DB018430FF
:1036300008F054C09EE1899FF0011124EA5FF64F23
:1036400040815181628173814D935D936D937C9331
:103650001397448155816681778114964D935D93CC
:103660006D937C9317974085518562857385189675
:103670004D935D936D937C931B974485558566852B
:1036800077851C964D935D936D937C931F9740892E
:1036900051896289738950964D935D936D937C93A4
:1036A0005397448955896689778954964D935D93DC
:1036B0006D937C935797408D518D628D738D589685
:1036C0004D935D936D937C935B97848D5C968C9307
:1036D0005C97858D5D968C9381E008958FEF0895BA
:1036E000E091120BF091130B84870895E091120B77
:1036F000F091130B84850895CF93DF93D82FC62FB5
:1037000080E092E00E94C2158F5F8F3F19F0809396
:10371000EC0502C01092EC052091EC0536E0239FE9
:10372000C00111246D2F8F5F9D4F0E94C4158091A1
:10373000EC0546E0849FC00111246C2F8E5F9D4FE5
:103740000E94C4152091EC054091090B50910A0B81
:1037500060910B0B70910C0B672F772788279927A7
:1037600046E0249F90011124C9018D5F9D4F0E9466
:10377000C4152091EC054091090B50910A0B609102
:103780000B0B70910C0B8827992746E0249F900122
:103790001124C9018C5F9D4F0E94C4152091EC0536
:1037A0004091090B50910A0B60910B0B70910C0B1F
:1037B0009927872F762F652F46E0249F90011124AB
:1037C000C9018B5F9D4F0E94C4158091EC0526E0D6
:1037D000829FC00111246091090B8A5F9D4F0E9456
:1037E000C4156091EC0580E092E0DF91CF910C94DC
:1037F000C415FC0180917E09882331F0DB018C9394
:1038000080918C06808381E0089580917E098823D1
:1038100009F483C08BEA95E00E94F31180918C0635
:103820001F928F9388E293E09F938F930E942F3390
:1038300087EA95E00E94F3110F900F900F900F9080
:1038400080917E09883110F010927E09E0917E0906
:103850008E2F90E0FC013197E631F10508F046C06B
:10386000E654FF4F0C9475328BE695E041C084E43A
:1038700095E03EC080E395E03BC08AE195E038C02A
:103880008FEF94E035C089EE94E032C081ED94E092
:103890002FC08EEB94E02CC08BEA94E029C08DE819
:1038A00094E026C088E694E023C08CE594E020C034
:1038B00081E494E01DC082E394E01AC08EE194E0BC
:1038C00017C08DE094E014C089EF93E011C089ED3A
:1038D00093E00EC081EC93E00BC086EA93E008C051
:1038E00085E993E005C086E893E002C08FE793E0A6
:1038F0000E94F3116091720B7091730B8DE090E058
:103900000E94F7326091720B7091730B8AE090E025
:103910000E94F73280917E09089580E0089513BCDB
:103920001092B60018BC17BC16BC15BC14BC1DBA4E
:103930001CBA1BBA10929B0010929A001092990028
:10394000109298001092950010929400109291009D
:103950001092900018BA109271001092B400109258
:10396000B3001092B2001092B100E0EBF0E01082D0
:10397000108217BA109270008FEF84BF08950E94D2
:1039800061160E944A2F80917E09803171F0835127
:10399000823058F00E948F1C87EB95E00E94F31153
:1039A0000E94582F0E946116FFCF10927E09089541
:1039B00080937E09E091120BF091130B6085609368
:1039C0008C060E947C1B0E94051C0C94BF1C8093DB
:1039D0007E0960938C060E947C1B0E94051C0C943F
:1039E000BF1CCF93DF931F92CDB7DEB719828981B9
:1039F000843640F480ED97E00E94862B89818F5FAA
:103A00008983F5CF0F90DF91CF91089581E090E009
:103A10000E9444150E94F11C0E94F11C0E94F11C9E
:103A200081E090E00E942D150C94F11C81E090E063
:103A30000E9444150E94F11C81E090E00E942D1527
:103A40000C94F11CFF920F931F93CF93DF9300D040
:103A50001F92CDB7DEB71F928F9388E293E09F93BA
:103A60008F938E010F5F1F4F1F930F930E94793327
:103A70000F900F900F900F900F900F90F12CF80176
:103A800001900020E9F73197E01BF10B8F2D90E0BA
:103A90008E179F0708F05DC0F801E80FF91FE0815D
:103AA0008E2F90E0FC01F097EA30F10508F049C054
:103AB000E053FF4F0C9475320E94061D02C00E9415
:103AC000161D0E94061D0E94061D0E94061D0E94D2
:103AD000061D37C00E94161D0E94161DF4CF0E94BD
:103AE000161D0E94161D0E94161DEFCF0E94161D66
:103AF0000E94161D0E94161D0E94161DE8CF0E94EE
:103B0000161D02C00E94061D0E94161D04C00E94C0
:103B1000061D0E94061D0E94161D06C00E94061D5D
:103B20000E94061D0E94061D0E94161D08C00E94CC
:103B3000061D0E94061D0E94061D0E94061D0E9471
:103B4000161D0E94F11C0E94F11C0E94F11CF394AE
:103B500096CF0F900F900F90DF91CF911F910F9103
:103B6000FF9008956F927F928F929F92AF92BF9233
:103B7000CF92DF92EF92FF920F931F93CF93DF9339
:103B800087EC95E00E94F311E091120BF091130B7A
:103B90008085282F332727FD30953F938F9384E529
:103BA00093E09F938F930E942F33E091120BF0913B
:103BB000130BC281D381DF93CF9388E893E09F9367
:103BC0008F930E942F3388811F928F938DE593E00E
:103BD0009F938F930E942F33E091120BF091130B60
:103BE00081818F9380818F938AE693E09F938F9357
:103BF0000E942F338091130B8F938091120B8F9320
:103C000084E793E09F938F930E942F33C0E5DAE01F
:103C1000EDB7FEB774960FB6F894FEBF0FBEEDBFBA
:103C200000E010E084E8682E83E0782E9DE5892E80
:103C300093E0992E2AE6A22E23E0B22E34E7C32E7B
:103C400033E0D32EEA80FB80FF92EF921F930F9315
:103C50007F926F920E942F33F70180811F928F9382
:103C60009F928F920E942F3389818F9388818F93A7
:103C7000BF92AF920E942F33DF93CF93DF92CF9208
:103C80000E942F330F5F1F4FAB96EDB7FEB77296B2
:103C90000FB6F894FEBF0FBEEDBF0430110591F6CC
:103CA000DF91CF911F910F91FF90EF90DF90CF9018
:103CB000BF90AF909F908F907F906F900895CF931B
:103CC000DF93E091120BF091130BC281D3818881B5
:103CD000853539F00E94B21D81E00E94D81C85E52F
:103CE0008883E091120BF091130B808191818115F3
:103CF000924438F00E94B21D82E1DF91CF910C9482
:103D0000D81CDF91CF9108952BE28202C0011124CB
:103D1000FC01E05BF54FA281B3818C91853519F0F0
:103D200085E58C9308C0808191818115924428F0AB
:103D300082E10E94D81C8FEF089581E008950F93CF
:103D40001F93409144075091450760914607709139
:103D5000470780E090E08A019B01082E04C0369559
:103D60002795179507950A94D2F700FD19C001E031
:103D700010E020E030E0082E04C0000F111F221FC9
:103D8000331F0A94D2F7402B512B622B732B409395
:103D9000440750934507609346077093470705C053
:103DA000019680329105B9F68FEF1F910F9108951A
:103DB000E091120BF091130B6585768587859089CC
:103DC0000895CF92DF92EF92FF920F931F93CF93BC
:103DD000DF93C12CD12C7601C394082E04C0CC0CE7
:103DE000DD1CEE1CFF1C0A94D2F740914407509151
:103DF000450760914607709147074C215D216E2170
:103E00007F21452B462B472B09F460C0082F0E94C9
:103E10006116E9E5FAE0B701A60140955095609575
:103E2000709513E0DF0111978C918F3F39F18481F8
:103E30009581A681B7818C159D05AE05BF0551F40E
:103E400010861186128613869F0122503109E901DE
:103E50001882108384239523A623B7238483958314
:103E6000A683B78380859185A285B3858423952316
:103E7000A623B72380879187A287B387BB96DBE011
:103E8000E530FD0779F68EEF9FEFAFEFBFEF04C08F
:103E9000880F991FAA1FBB1F0A95D2F740914407AC
:103EA00050914507609146077091470784239523F9
:103EB000A623B7238093440790934507A093460712
:103EC000B09347070E94631681E001C08FEFDF9136
:103ED000CF911F910F91FF90EF90DF90CF900895B9
:103EE0000F931F9341E050E060E070E08A019B0176
:103EF00004C0000F111F221F331F8A95D2F7D9016A
:103F0000C801E091120BF091130B4585568567852A
:103F100070890423152326233723012B022B032B1F
:103F2000D1F080959095A095B095482359236A23A8
:103F30007B23458756876787708B418952896389C0
:103F4000748984239523A623B723818B928BA38B1B
:103F5000B48B81E001C08FEF1F910F910895282F3E
:103F6000409144075091450760914607709147077B
:103F7000082E04C076956795579547950A94D2F711
:103F800040FF1DC0E091120BF091130B81E090E017
:103F9000A0E0B0E004C0880F991FAA1FBB1F2A959C
:103FA000D2F74585568567857089842B952BA62B7E
:103FB000B72B85879687A787B08B81E008958FEF11
:103FC0000895CF92DF92EF92FF92CF93C12CD12C24
:103FD0007601C39404C0CC0CDD1CEE1CFF1C8A953A
:103FE000D2F78091440790914507A0914607B09180
:103FF00047078C219D21AE21BF21892B8A2B8B2B3A
:1040000011F481E044C00E946116E7E5FAE0A9E5F9
:10401000BAE0C0E083E090819130B9F442855385E5
:10402000648575854C215D216E217F21452B462BB2
:10403000472B59F08C9316861786108A118A1082A6
:10404000C286D386E486F586C1E090819230A1F4E1
:1040500042855385648575854C155D056E057F0524
:1040600059F48C9316861786108A118A108212864C
:10407000138614861586C1E0BB969B969BE0E330C1
:10408000F90749F60E946316C11105C082E00E943B
:10409000701B8FEF01C081E0CF91FF90EF90DF9018
:1040A000CF9008950F931F93E091120BF091130B93
:1040B000058516852785308906231723282339236C
:1040C000011511052105310511F1DC01CB01818BB1
:1040D000928BA38BB48B21E027830090020B04C04A
:1040E000B695A795979587950A94D2F780FF03C058
:1040F0000E940A2404C080E090E00E94DB23E0914B
:10410000120BF091130B0189128923893489C9019B
:10411000B8011F910F91089580E090E0089521E08B
:104120008E5F9A4009F420E0822F819508950E94C5
:104130008F208F3F11F481E003C0813029F482E0A9
:104140000E94701B8FEF0895992787FD9095FC01C1
:10415000EE0FFF1F8E0F9F1FFC01E250F54F828173
:104160000895EF92FF920F931F93CF93DF931F92C7
:10417000CDB7DEB70E948F208F3F11F481E003C0DE
:10418000813029F482E00E94701B8FEF41C0898347
:104190000E9461168981E82EFF24E7FCF0948701D4
:1041A000000F111FF801EE0DFF1DE250F54F928137
:1041B000911116C0E091120BF091130B9781926050
:1041C0009783992787FD9095A92FB92F818B928B83
:1041D000A38BB48B0E94631680E090E00E94DB23E7
:1041E0000E0D1F1DD801A250B54F12968C9112973B
:1041F000815012968C931297E091120BF091130B51
:1042000011968C91838781E084830E94631681E0FC
:104210000F90DF91CF911F910F91FF90EF90089534
:104220000F931F93CF93DF931F92CDB7DEB70E94FA
:104230008F208F3F11F481E003C0813029F482E0A8
:104240000E94701B8FEF44C0482F552747FD5095A3
:104250009A01220F331F240F351F89010250154F79
:10426000F80122819081291794F589830E946116B3
:10427000F80192819F5F9283E091120BF091130BF2
:104280001482E7E5FAE08981992787FD9095A92FA7
:10429000B92F23E03081323099F44285538564850B
:1042A0007585481759076A077B0751F422831686DC
:1042B0001786108A118A1082128613861486158634
:1042C000BB963BE0E330F30729F70E94631681E0D9
:1042D0000F90DF91CF911F910F9108950E948F2031
:1042E0008F3F11F481E003C0813029F482E00E9405
:1042F000701B8FEF0895992787FD9095FC01EE0FB5
:10430000FF1F8E0F9F1FFC01E250F54F8FEF808340
:10431000828381838091110B81508093110B81E006
:104320000895E091070BF091080B80810895E091CA
:10433000070BF091080B309721F00380F481E02DFA
:10434000FACF0895AF92BF92CF92DF92EF92FF9291
:104350000F931F93CF93DF93E0914E0AF0914F0A92
:10436000309709F494C00091070B1091080B0115C8
:10437000110509F44CC0D8014BE2582F54039001A9
:104380001124205B354F79019AE0E90EF11C690197
:10439000C4E0CC0ED11C5901DBE0AD0EB11C2C9158
:1043A00030E0429FB001439F700D1124605B754F58
:1043B000EB019C81992329F05B85E70198815917CE
:1043C00040F1E6019881992369F0429FB001439F33
:1043D000700D1124605B754FEB015A85E5019881E2
:1043E0005917B8F0429FB001439F700D11249B01F3
:1043F000205B354FE9012A85E7019881291748F0AC
:1044000013960D90BC91A02D109749F602C0A0E024
:10441000B0E08083C381D481D0934F0AC0934E0A09
:10442000A017B107B1F4109749F0B483A3831282A7
:1044300011821296FC93EE93119706C01482138298
:1044400012821182FA83E983F093080BE093070B41
:104450001EC0AC17BD0779F011968D919C911297F3
:1044600092838183B483A3831196CD91DC911297BB
:10447000FC83EB8308C01482138211968D919C916A
:104480001297928381831296FC93EE931197DF919A
:10449000CF911F910F91FF90EF90DF90CF90BF9041
:1044A000AF900895CF93DF93E091070BF091080B45
:1044B000309709F444C0992787FD9095208130E01A
:1044C0002817390781F4A381B481B093080BA09316
:1044D000070B12961C921E92119718C00380F4814C
:1044E000E02D309761F1208130E028173907B1F7CE
:1044F000C181D281838194819C838B83A381B48188
:10450000109721F01296DC93CE931197A0914E0A4A
:10451000B0914F0A109739F4F0934F0AE0934E0A86
:10452000148213820AC0B483A3831296FC93EE9381
:104530001197F0934F0AE0934E0A12821182DF9195
:10454000CF910895EF92FF920F931F93CF93DF9334
:10455000EC014B815C8169817A818D819E810E9411
:10456000AA2F2F81222371F04B815C81E12CF12C49
:1045700000E010E020E030E0BC01CE010E946F17A7
:104580001F820CC0E8812BE2E202F0011124E05B03
:10459000F54F21852330B9F491838083E8818BE244
:1045A000E802F0011124E05BF54F85899689A7891F
:1045B000B08D892B8A2B8B2B41F482E081878881F7
:1045C0000E94A22102C08FEF01C081E0DF91CF9154
:1045D0001F910F91FF90EF9008951F93CF93DF935A
:1045E000CDB7DEB728970FB6F894DEBF0FBECDBFAC
:1045F00029833A834B835C836D837E838F83988783
:104600000E9461160E94D42C182FCE0101960E94A0
:10461000FF266330710598F0E091120BF091130BB7
:10462000212F30E0620F731FCB01A0E0B0E0858B3B
:10463000968BA78BB08F0E94631681E001C08FEF2D
:1046400028960FB6F894DEBF0FBECDBFDF91CF9195
:104650001F9108950E947D2FE091120BF091130B92
:1046600085818111F7CF0895CF930E945F1E0E942C
:104670006116E091120BF091130B81E090E092A78C
:1046800081A785830E94D42CC82F883F80F40E9484
:104690006E2C2C2F30E02F5F3F4F90E0281739070A
:1046A00034F482E08C0F809305090E94722C0E94E2
:1046B00063160E942A2381E0CF910895E091120BA6
:1046C000F091130B80850E945222E091120BF09121
:1046D000130B84E081870E94342381E00895CF93F7
:1046E000DF93EC010E945F1E209711F4C1E0D0E03F
:1046F0000E946116E091120BF091130B81E085830B
:10470000D2A7C1A70E94D42CC82F883F80F40E9452
:104710006E2C2C2F30E02F5F3F4F90E02817390789
:1047200034F482E08C0F809305090E94722C0E9461
:1047300063160E942A2381E0DF91CF910895EF92C2
:10474000FF920F931F93CF938C010E946116E0910B
:10475000120BF091130B81E085830E94D42CC82F9B
:10476000E091120BF091130BE82EF12CC701800F92
:10477000911FA0E0B0E0858B968BA78BB08FC83FD0
:1047800078F40E946E2C9FEFE91AF90A90E0E8167F
:10479000F90634F482E08C0F809305090E94722C94
:1047A0000E9463160E942A2381E0CF911F910F91EE
:1047B000FF90EF900895CF93DF93EC010E94611674
:1047C000E091120BF091130B21E02583CE01A0E0C4
:1047D000B0E0858B968BA78BB08F0E94D42CC82F0E
:1047E000883F80F40E946E2C2C2F30E02F5F3F4FCB
:1047F00090E02817390734F482E08C0F8093050984
:104800000E94722C0E9463160E942A2381E0DF918D
:10481000CF910895CF930E946116E091120BF09111
:10482000130B81E0858386830E94D42CC82F883F98
:1048300080F40E946E2C2C2F30E02F5F3F4F90E0D1
:104840002817390734F482E08C0F809305090E9401
:10485000722C0E9463160E942A2381E0CF91089552
:104860001F93CF93DF93CDB7DEB728970FB6F89499
:10487000DEBF0FBECDBF29833A834B835C836D833C
:104880007E838F8398870E945F1E0E946116E0914D
:10489000120BF091130B81E0858381E090E092A7E9
:1048A00081A70E94D42C182FCE0101960E94FF26CA
:1048B000E091120BF091130BDC01CB01810F911DE4
:1048C000A11DB11D858B968BA78BB08F183F80F4EF
:1048D0000E946E2C212F30E02F5F3F4F90E0281771
:1048E000390734F482E0810F809305090E94722C0D
:1048F0000E9463160E942A2381E028960FB6F8943E
:10490000DEBF0FBECDBFDF91CF911F9108958F9273
:104910009F92AF92BF92CF92DF92EF92FF920F934E
:104920001F93CF93DF93CDB7DEB760970FB6F894A0
:10493000DEBF0FBECDBF29873A874B875C876D8767
:104940007E878F87988BCE0101960E94E324898011
:104950009A80AB80BC80CD80DE80EF80F8840985B2
:104960001A852B853C854D855E856F857889CE01BE
:1049700009960E9440258F3F61F029853A854B8535
:104980005C856D857E858F8598890E94302481E0C5
:1049900001C08FEF60960FB6F894DEBF0FBECDBF9B
:1049A000DF91CF911F910F91FF90EF90DF90CF900B
:1049B000BF90AF909F908F900895E091120BF0916F
:1049C000130B808508950F931F93CF93DF93EC0112
:1049D0001C821D821E821F828091090B90910A0BFE
:1049E000A0910B0BB0910C0B88839983AA83BB8396
:1049F00080910D0B90910E0BA0910F0BB091100BAD
:104A00008C839D83AE83BF830E94D42CA82FB0E0FB
:104A100023EB36EE4EE050E00E94C5310C811D8143
:104A20002E813F81DC01CB01800F911FA21FB31F9C
:104A30008C839D83AE83BF838C819D81AE81BF813A
:104A400081152AEC92072AE9A2072BE3B20798F016
:104A50009A5CAA49BB438C839D83AE83BF838881C4
:104A60009981AA81BB810196A11DB11D888399837B
:104A7000AA83BB83E1CFDF91CF911F910F9108955E
:104A80008F929F92AF92BF92CF92DF92EF92FF925E
:104A90000F931F93CF93DF93CDB7DEB760970FB619
:104AA000F894DEBF0FBECDBFFC0109831A832B83B0
:104AB0003C834D835E836F83788789869A86AB8635
:104AC000BC86CD86DE86EF86F88A09811A812B8125
:104AD0003C814D815E816F817885C984DA84EB8465
:104AE000FC848D859E85AF85B8890C151D052E0526
:104AF0003F05F0F1C016D106E206F30691F448171F
:104B000059076A077B07A0F1481B590B6A0B7B0BFF
:104B100044835583668377831082118212821382C5
:104B200025C0481759076A077B0780F4015011090F
:104B3000210931090C191D092E093F090083118330
:104B40002283338356536546744C08C00C191D09E3
:104B50002E093F090083118322833383481B590B9D
:104B60006A0B7B0B448355836683778381E001C0A6
:104B70008FEF60960FB6F894DEBF0FBECDBFDF910A
:104B8000CF911F910F91FF90EF90DF90CF90BF904A
:104B9000AF909F908F900895FC014481558166816C
:104BA000778141158AEC58078AE968078BE3780713
:104BB00098F05A5C6A497B434483558366837783C4
:104BC00080819181A281B3810196A11DB11D808355
:104BD0009183A283B383E1CF08958F929F92AF9286
:104BE000BF92CF92DF92EF92FF920F931F93CF93DA
:104BF000DF93CDB7DEB760970FB6F894DEBF0FBE78
:104C0000CDBF09831A832B833C834D835E836F83DF
:104C1000788789869A86AB86BC86CD86DE86EF86C7
:104C2000F88A09851A852B853C8549815A816B81D3
:104C30007C81400F511F621F731FFC014083518311
:104C4000628373830D851E852F8538894D815E8132
:104C50006F817885400F511F621F731F44835583F6
:104C6000668377830E94CC2581E060960FB6F89426
:104C7000DEBF0FBECDBFDF91CF911F910F91FF908F
:104C8000EF90DF90CF90BF90AF909F908F9008955E
:104C9000E9E0FBE06083718382839383248335831F
:104CA0004683578308952F923F924F925F926F925F
:104CB0007F928F929F92AF92BF92CF92DF92EF92AC
:104CC000FF920F931F93FC01C080D180E280F3809C
:104CD000C114D104E104F104E1F184819581A6813C
:104CE000B78122E4C216D104E104F104F0F51C01FD
:104CF0002D01612C712C4301E0E08E2F90E0A0E0AB
:104D0000B0E08C159D05AE05BF0588F49101A201A8
:104D1000B301C40136534546544C6F4F7F4F8F4FFC
:104D20009F4F19012A013B014C01EF5FE6CF83EB56
:104D3000A82E96EEB92E2EE0C22ED12CE12CF12C0D
:104D400000E010E09101A201B301C4010E941832F9
:104D50000AC0648175818681978123EB36EE4EE02F
:104D600050E00E94F431C90102C080E090E01F9140
:104D70000F91FF90EF90DF90CF90BF90AF909F90FA
:104D80008F907F906F905F904F903F902F900895FD
:104D9000CF92DF92EF92FF92CF93DF93CDB7DEB742
:104DA00028970FB6F894DEBF0FBECDBF6B017C0114
:104DB0002AE0F694E794D794C7942A95D1F7C9824C
:104DC000DA82EB82FC829B01AC01337044275527C9
:104DD00063EB76EE8EE090E00E94D0312C2D3A818C
:104DE0004B815C8128960FB6F894DEBF0FBECDBF15
:104DF000DF91CF91FF90EF90DF90CF9008952F92A9
:104E00003F924F925F926F927F928F929F92AF925A
:104E1000BF92CF92DF92EF92FF920F931F93FC010C
:104E2000C080D180E280F380C114D104E104F10498
:104E3000B9F184819581A681B7811C012D01612C76
:104E4000712C4301E0E08E2F90E0A0E0B0E08C15E3
:104E50009D05AE05BF0588F49101A201B301C4010F
:104E600036534546544C6F4F7F4F8F4F9F4F19011C
:104E70002A013B014C01EF5FE6CF83EBA82E96EEB3
:104E8000B92E2EE0C22ED12CE12CF12C00E010E046
:104E90009101A201B301C4010E941832CA010BC0E2
:104EA000648175818681978123EB36EE4EE050E078
:104EB0000E94F431CA01B9011F910F91FF90EF9048
:104EC000DF90CF90BF90AF909F908F907F906F902A
:104ED0005F904F903F902F900895C1E00E945F1E19
:104EE0000E946E2C843010F4C093060B0E947D2F1C
:104EF00080919309853519F088E00E94D81C809133
:104F00007E41853559F388E00E94D81CE7CF2F9267
:104F10003F924F925F926F927F928F929F92AF9249
:104F2000BF92CF92DF92EF92FF920F931F93CF9396
:104F3000DF930E9463168AEF0E94722C0E946E2FEC
:104F40000E943C2AC0910509AC2FB0E023EB36EE5D
:104F50004EE050E00E94C53100910D0B10910E0BF8
:104F600020910F0B3091100B6B017C01C00ED11EF4
:104F7000E21EF31EC701B60123EB36EE4EE050E011
:104F80000E94F431C61AD70AE80AF90AC0920D0B3A
:104F9000D0920E0BE0920F0BF092100BE091120BDF
:104FA000F091130B8085811130C08091060B823007
:104FB00019F48C2F0E946418E091120BF091130BDE
:104FC0006091050980850E94CC18E091120BF09148
:104FD000130B60E080850E94091980910D0B909160
:104FE0000E0BA0910F0BB091100B0091090B1091BB
:104FF0000A0B20910B0B30910C0B53EB452E56EE08
:10500000552E5EE0652E712C07C095816C2F911195
:10501000E2CF0E94CC18E1CF480159014FEF841A2A
:10502000940AA40AB40A81155AEC95075AE9A5070F
:105030005BE3B507C8F06C017D012AECD21A2AE9BE
:10504000E20A2BE3F20AC701B601A30192010E9412
:10505000F431A7019601261B370B480B590BDA01D7
:10506000C90195018401D8CF80930D0B90930E0B4D
:10507000A0930F0BB093100B0093090B10930A0B26
:1050800020930B0B30930C0BE091120BF091130B50
:105090008581882339F18185843021F187818230AF
:1050A00029F0882341F08681811102C085E001C08A
:1050B00083E0818714C083E0818717821682858907
:1050C0009689A789B08D892B8A2B8B2B41F4818DF2
:1050D000928DA38DB48D858B968BA78BB08F808599
:1050E0000E945222E091120BF091130B85A196A120
:1050F000A7A1B0A5892B8A2B8B2B09F44EC08085E4
:10510000882309F44AC09185943009F446C0458D3E
:10511000568D678D70A10091050910E020E030E008
:10512000401751076207730798F40E949918E0919D
:10513000120BF091130B608582E00E94E71CE09156
:10514000120BF091130B158E168E178E10A208C03D
:10515000401B510B620B730B458F568F678F70A3EB
:10516000E091120BF091130BC085858D968DA78D64
:10517000B0A1892B8A2B8B2B81F48C2F0E9499183C
:105180006C2F83E00E94E71CE091120BF091130B4F
:1051900083E081878C2F0E945222C9E5DAE000E685
:1051A0001AEE312C2AEFC22ED12CE12CF12C32E058
:1051B000232E812C912C54018394FE013197808100
:1051C0008F3F09F4E5C033971082882309F45BC050
:1051D0008881843009F457C04C845D846E847F8458
:1051E0006091050970E080E090E046165706680679
:1051F000790648F0461A570A680A790A4C865D868D
:105200006E867F8604C01C861D861E861F86488883
:1052100059886A887B88461657066806790648F0DA
:10522000461A570A680A790A488A598A6A8A7B8A1A
:105230001AC0288D398D4A8D5B8D621773078407DC
:10524000950758F429013A01461A570A680A790A5B
:10525000488A598A6A8A7B8A06C00E94F431688B20
:10526000798B8A8B9B8B88899989AA89BB89892BA1
:105270008A2B8B2B41F4888D998DAA8DBB8D888BC1
:10528000998BAA8BBB8B8881833009F081C08C8578
:105290009D85AE85BF85892B8A2B8B2B09F067C036
:1052A000DE0112978C91FE013397882391F0808163
:1052B000882379F0B501A4010090020B04C0440FCB
:1052C000551F661F771F0A94D2F7488759876A8748
:1052D0007B871C921082A8A1B9A1A130B10509F564
:1052E0008C8D9D8DAE8DBF8D8C8B9D8BAE8BBF8B32
:1052F000288288899989AA89BB898C879D87AE87EE
:10530000BF87888D998DAA8DBB8D892B8A2B8B2B7E
:1053100021F4CC86DD86EE86FF86832D0E94A221B5
:1053200026C04C8D5D8D6E8D7F8D4C8B5D8B6E8B15
:105330007F8B488C598C6A8C7B8C1197A3019201CE
:105340000E94C5316C877D878E879F87688B798B9C
:105350008A8B9B8B45284628472821F4CC86DD86FE
:10536000EE86FF8666246394712C79A268A28C85F0
:105370009D85AE85BF850097A105B10549F0A801BF
:1053800060E070E084179507A607B70708F48C0162
:105390003394AB9684E0782E37100FCFE091120B48
:1053A000F091130B80850E94AB180E949121C82FA9
:1053B0002BE28202F0011124E05BF54F228520935D
:1053C000140BF093040BE093030B8823D9F085A111
:1053D00096A1A7A1B0A5892B8A2B8B2B99F0858D3F
:1053E000968DA78DB0A18A3F9105A105B10550F416
:1053F000A80160E070E084179507A607B70710F4CE
:105400008C0105C00B3F110510F00AEF10E020934E
:10541000050BF093130BE093120B009305090E9408
:10542000D42C282F30E02F5F3F4F2017310740F05A
:105430000E94D42C082F10E00E5F1F4F0093050927
:10544000C1111092060B802F0E94722C0E94F72F20
:10545000DF91CF911F910F91FF90EF90DF90CF9050
:10546000BF90AF909F908F907F906F905F904F9084
:105470003F902F900C9402303F924F925F926F9228
:105480007F928F929F92AF92BF92CF92DF92EF92D4
:10549000FF920F931F93CF93DF93CDB7DEB7609743
:1054A0000FB6F894DEBF0FBECDBFCE0109960E94A5
:1054B000E32485E1482E8BE0582E612C712C93E17A
:1054C000392ED20112968C91813051F5369CF00123
:1054D000379CF00D1124E05EF44F89849A84AB84EC
:1054E000BC84CD84DE84EF84F88800811181228120
:1054F00033814481558166817781CE0101960E9476
:1055000040258F3F69F4662D85E10E94E71CD2019A
:10551000ED91FC91309719F40E94651601C0099530
:10552000BFEF6B1A7B0AE3E14E0E511CF3E06F16DE
:10553000710439F660960FB6F894DEBF0FBECDBF8A
:10554000DF91CF911F910F91FF90EF90DF90CF905F
:10555000BF90AF909F908F907F906F905F904F9093
:105560003F900895E5E1FBE01282158A10A60895A8
:10557000CF93DF938330E0F493E1899FF00111240E
:10558000EB5EF44F51834083EB0188819981AA81BE
:10559000BB8183839483A583B6838C819D81AE81F7
:1055A000BF8187839087A187B287128281E001C083
:1055B0008FEFDF91CF910895CF92DF92EF92FF921C
:1055C0000F931F93CF93DF93CDB7DEB728970FB616
:1055D000F894DEBF0FBECDBF8330A8F5182FCE01E3
:1055E00001960E94E32423E1129FC00111248C0143
:1055F0000B5E144FF801C380D480E580F6804981AA
:105600005A816B817C814C0D5D1D6E1D7F1D438712
:10561000548765877687C780D084E184F2844D8182
:105620005E816F8178854C0D5D1D6E1D7F1D4787E6
:10563000508B618B728B805E944F0E94CC2581E0F1
:10564000F801828301C08FEF28960FB6F894DEBF71
:105650000FBECDBFDF91CF911F910F91FF90EF90C3
:10566000DF90CF9008951F93CF93DF93CDB7DEB730
:1056700028970FB6F894DEBF0FBECDBF833070F50C
:10568000182FCE0101960E94E32483E1189FF001B8
:105690001124EB5EF44F43815481658176818981C9
:1056A0009A81AB81BC81840F951FA61FB71F83878A
:1056B0009487A587B68747815085618572858D81DE
:1056C0009E81AF81B885840F951FA61FB71F87875E
:1056D000908BA18BB28B81E0828301C08FEF2896E3
:1056E0000FB6F894DEBF0FBECDBFDF91CF911F91F3
:1056F0000895833048F493E1899FF0011124EB5E13
:10570000F44F128281E008958FEF089500000000A9
:105710000000000000000000000000000000000089
:1057200000000000019791F708951092210108955B
:1057300089E0809321018DE89CE390932901809377
:105740002801089510922501109224010895CF9305
:10575000DF9300D0CDB7DEB7809124019091250171
:105760009A83898389819A810F900F90DF91CF91DD
:10577000089510928100089581E08093810008953A
:1057800083B5816083BD10928500109284000895D6
:10579000CF93DF9300D0CDB7DEB780918400909196
:1057A00085009A83898389819A810F900F90DF9178
:1057B000CF910895CF92DF92EF92FF92CF93DF9334
:1057C000EC01CC0FDD1FC9378FEFD80710F0C0E018
:1057D000D0E06B01E12CF12CCC0EDD1EE11CF11CA4
:1057E00081E0C816D104E806F10440F081E0E81A2F
:1057F000F1080E94C82BC817D907D8F30E94C82BFC
:105800008C159D05D8F3DF91CF91FF90EF90DF903D
:10581000CF9008951092B100E0E7F0E080818D7F95
:10582000808380818E7F808308958093B200089565
:10583000E0E7F0E080818360808383E08093B100C3
:10584000089583B5826083BD1092B20010929106D4
:10585000109205090895CF93DF938EEF8093050989
:1058600080E28093B600809105098093B30083E0C5
:1058700087BB92E09093B0008093B10093B59260A3
:1058800093BD87BB84BD83B5826083BD10928000C9
:1058900081E080938100109285001092840083B58E
:1058A000826083BD83B5816083BD10922001C4E214
:1058B000D1E01982188283B5826083BD83B581608F
:1058C00083BD0E94212C198218820E94182C0E94EC
:1058D000982B10929106DF91CF9108958091B3009B
:1058E0008F5F089581508093B3000895811102C0A5
:1058F000109271008FEF0895811106C010929500EB
:105900001092940081E008958FEF0895811105C0F1
:105910008091940090919500089580E090E0089522
:10592000811105C082E08093710081E008958FEFBE
:105930000895811135C0CB010197059710F460934C
:1059400002091092900088E0809391005093990092
:10595000409398003093EF052093EE058091020963
:10596000813021F480919100816011C0823021F456
:105970008091910082600BC0833021F4809191006E
:10598000836005C0843031F48091910084608093FD
:10599000910008C0853031F4809191008560F7CF87
:1059A0008FEF089581E008958091B20008951F92CD
:1059B0000F920FB60F92112460E08AE00E94E71C5C
:1059C000FFCF0F920FB60F921F922F923F924F92DE
:1059D0005F926F927F928F929F92AF92BF92CF927F
:1059E000DF92EF92FF920F931F932F933F934F936A
:1059F0005F936F937F938F939F93AF93BF93CF9357
:105A0000DF93EF93FF93A091120BB091130B0DB6A0
:105A10000D920EB60D921F92A0916D08B0916E0876
:105A20001E90BEBFADBF08951F920F920FB60F928A
:105A300011240BB60F922F933F934F935F936F9365
:105A40007F938F939F93AF93BF93EF93FF93E091D7
:105A5000EE05F091EF05309711F0099504C060E074
:105A60008AE00E94E71CFF91EF91BF91AF919F9157
:105A70008F917F916F915F914F913F912F910F90F7
:105A80000BBE0F900FBE0F901F9018951F920F9294
:105A90000FB60F9211240F900FBE0F901F90189504
:105AA00004B603FE02C080E101C080E004B602FE3D
:105AB00006C094B79B7F94BF04B600FE846004B612
:105AC00001FE05C094B79D7F94BF82600895811147
:105AD0000CC004B600FE04C094B79E7F94BF01C002
