:100000000C9413030C94092F0C943B2F0C946D2F1C
:100010000C9432030C9432030C9432030C9432038C
:100020000C9432030C94D72E0C9432030C943203AC
:100030000C9432030C94362D0C9432030C94362D10
:100040000C9432030C9432030C9432030C9432035C
:100050000C9432030C9432030C9432030C9432034C
:100060000C9432030C9432030C9432030C9432033C
:100070000C9432030C9432030C9432030C9432032C
:100080000C94692D0C9432030C9432030C943203BB
:100090000C9432030C9432030C9432030C94370505
:1000A0000C9432030C9432030C9432030C943203FC
:1000B0000C9432030C9432030C9432030C943203EC
:1000C0000C9432030C9432030C9432030C943203DC
:1000D0000C9432030C9432030C9432030C943203CC
:1000E0000C9432030C94EB0F0C94DC0F0C94AC0FBB
:1000F0000C949C100C949D0F0C948E0F0C947C0F00
:100100000C946D0F0C9432030C9432030C94320354
:100110000C9432030C9432030C9432030C9432038B
:100120001C1229123612431250125D126A128D12DD
:100130009B12A912B712C512D312E11204130613AF
:1001400008130A130C130E1310132F1352137613E4
:100150009913BC13DF1302143C144914561463148E
:1001600070147D148A14A314B014BD14CA14D714C7
:10017000E414F114141C1A1C1D1C201C231C261C26
:100180002C1C291C2F1C321C351C3E1C411C441CE1
:10019000471C3B1C111C171C4A1C4D1C381C0E1CF8
:1001A000361D391D441D491D501D591D5C1D611D05
:1001B000681D711D436F756C64206E6F74206164DF
:1001C0006420736C6F74210D0A004E616E6F2D52A6
:1001D0004B2056657273696F6E20004170702074F9
:1001E000785F6275662053656E740D0A004661691A
:1001F0006C656420746F2072656769737465722022
:100200007369676E616C0D0A0054444D412045527C
:10021000524F523A206372656174696E6720656E51
:1002200061626C65207369676E616C206661696CE0
:1002300065640D0A0054444D41204552524F523AD4
:10024000206372656174696E6720747820736967D2
:100250006E616C206661696C65640D0A0054444DE2
:1002600041204552524F523A206372656174696E63
:1002700067207278207369676E616C206661696CB3
:1002800065640D0A0054444D412054583A20576F7C
:100290006B65207570206F6E2077726F6E672073AC
:1002A00069676E616C0D0A0054444D412054583A00
:1002B000204572726F722063616C6C696E67206595
:1002C00076656E7420776169740D0A000D0A4E61BF
:1002D0006E6F2D524B205461736B2053746174699F
:1002E00073746963733A0D0A000D0A000D0A202029
:1002F000204F766572666C6F77204572726F722040
:100300005374617475733A20000D0A2020204B65E8
:10031000726E656C2056696F6C6174696F6E733AAA
:1003200020000D0A202020507265656D7074696F81
:100330006E733A20000D0A202020537761702D69DA
:100340006E733A20000D0A20202054696D65205BF1
:100350004D696E2C4C6173742C4D61785D3A2000B0
:100360000D0A202020546F74616C204350553A20B0
:10037000000D0A20202049646C65205461736B20B5
:100380004465657020536C6565702054696D653AED
:1003900020000D0A202020546F74616C2053797363
:1003A00074656D20557074696D653A200020546144
:1003B000736B2049443A2000554E4B4F574E004531
:1003C000787465726E616C20526573657400427258
:1003D0006F776E204F7574204465746563740046B2
:1003E00061696C656420746F206372656174652057
:1003F00053656D6170686F7265004661696C656414
:1004000020746F20637265617465205369676E6143
:100410006C004B65726E656C2066756E6374696FF7
:100420006E206E6F7420696D706C656D656E74659D
:10043000640044657669636520447269766572205C
:100440004572726F72005761746368646F672052FF
:1004500065737461727400535720576174636864E4
:100460006F6720526573746172740054696D6572B0
:10047000204F766572666C6F7700556E68616E64AA
:100480006C656420496E746572727570742056656F
:1004900063746F72004C6F7720566F6C7461676580
:1004A000004578747261205461736B2073746172BB
:1004B0007465642C206973206E726B5F6366672EAF
:1004C00068206F6B3F0049646C65206F72204B653C
:1004D000726E656C20537461636B204F7665726633
:1004E0006C6F7700556E6578706563746564205233
:1004F000657374617274004475706C6963617465CE
:1005000064205461736B20494400536368656475CB
:100510006C6572204D69737365642057616B6575F6
:1005200070005461736B2052657365727665205656
:10053000696F6C61746564005265736572766520DD
:100540004572726F7220696E205363686564756CC2
:10055000657200496E76616C696420537461636BE7
:1005600020506F696E746572005461736B20537410
:1005700061636B204F766572666C6F7700537461B0
:10058000636B20776173206E6F7420646566696E9B
:100590006564206173206C6172676520656E6F759C
:1005A000676821005461736B20706572696F642005
:1005B000746F6F206C617267652E20506572696F71
:1005C00064206D757374206265206C65737320748C
:1005D00068616E203631207365636F6E64732E0020
:1005E000293A20002A4E524B204552524F522800A1
:1005F0004E524B205265626F6F742E2E2E0D0A00E4
:100600000D0A535441434B2044554D500D0A0045AB
:10061000464765666700202B2D2E30313233343546
:1006200036373839680011241FBECFEFD1E4DEBF62
:10063000CDBF13E0A0E0B2E0EAE8FBE600E00BBFCC
:1006400002C007900D92A43CB107D9F71BE0A4ECBF
:10065000B3E001C01D92A93FB107E1F70E948230CB
:100660000C94C3350C942C2DC1E0D4E1C093C00888
:100670008091BB069091BC069C012F5F3F4F309349
:10068000BC062093BB068093C10882E090E0FC0189
:10069000E054F74F8083019684319105C1F7C093F0
:1006A0001B06D093CB090E943023E0CFCF93DF937A
:1006B000CDB7DEB728970FB6F894DEBF0FBECDBF1B
:1006C0000E94D9241F928F9388E792E09F938F9383
:1006D0000E94853385E090E0A0E0B0E089839A83B2
:1006E000AB83BC831D821E821F82188640E050E0CF
:1006F000BE016F5F7F4F80E090E00E940D2B80E095
:1007000090E00E94882B0F900F900F900F900E9406
:100710003D08811115C00E943023F9CF80E090E0A0
:100720000E94221520E044E160EC78E089E997E03E
:100730000E940806813099F48BED91E00E94E81147
:1007400080E090E00E94312B80E090E00E9439151B
:1007500080911B068111E2CF0E943023DFCF89E810
:1007600092E00E949F33ECCFCF93C82F883411F0D2
:10077000803211F40E9413051F92CF9380EA92E019
:100780009F938F930E9485330F900F900F900F903F
:100790008C2FCF910895EAEAF6E080ED808386E120
:1007A00081838BE1828363E0CF010C94F104EAEA58
:1007B000F6E08CE3808382E08183128263E0CF01E4
:1007C0000C94F1040F931F93CF93DF93CAEAD6E002
:1007D00016EA18830DE209831A8263E0CE010E94B3
:1007E000F104188388E3898380E88A8363E0CE017B
:1007F0000E94F1041883098388E08A8363E0CE01B4
:10080000DF91CF911F910F910C94F104CF93DF935F
:100810001F92CDB7DEB78AEC91E00E94E8111F92DB
:1008200085E68F9385EA92E09F938F930E948533AC
:100830000E94D9241F928F938AEA92E09F938F930C
:100840000E9485334091BD065091BE066DE082E066
:100850000E9480070FB6F894DEBF0FBECDBF0E9486
:100860003D08811103C00E943023F9CF8091BD065D
:100870009091BE060E94C605813021F084EB91E084
:100880000E94E81120E0AE014F5F5F4F6BEA77E016
:100890008DEC99E00E94AF06813021F08BEB92E065
:1008A0000E949F330E943023EDCF8F929F92AF9290
:1008B000BF92CF92DF92EF92FF92CF9364E373E007
:1008C00080EC96E00E94DD2F40E850E06BE178E09C
:1008D00080EC96E00E94E12FE0ECF6E082E0808779
:1008E000C1E0C783C187C287138614861586168622
:1008F00080E8882E82EB982E86EEA82E8EE0B82E09
:100900008786908AA18AB28A138A148A158A168ADF
:10091000C12C91EED92E95EFE92E95E0F92EC78ADC
:10092000D08EE18EF28E81E090E0A0E0B0E0838F87
:10093000948FA58FB68F178E10A211A212A2CF018D
:100940000E949E2266E573E08DE998E00E94DD2F0B
:1009500040E850E06AE276E08DE998E00E94E12FFD
:10096000EDE9F8E0C087C783C187C2871386148684
:10097000158616868786908AA18AB28A138A148A77
:10098000158A168AC78AD08EE18EF28E138E148E47
:10099000158E168E178E10A211A212A2CF010E94E0
:1009A0009E22CF91FF90EF90DF90CF90BF90AF90BD
:1009B0009F908F900C943D0C8AE08093B8008FEF4D
:1009C0008093BB0084E08093BC0008958091BC00BC
:1009D000817008958091BC0080FDFCCF8091100251
:1009E00008952091BC0020FDFCCF6093C603FC015C
:1009F00020812093C70320FF09C01092C40388EF11
:100A00008093100285EA8093BC000895FC01319622
:100A100027EC33E0D90111968A2F821B861768F7DD
:100A200081918C93F8CF8091BC0080FDFCCF109217
:100A3000C40388EF8093100285EA8093BC00089578
:100A40002091BC0020FDFCCF2091C40320FD04C0F8
:100A50008091C4038170089527EC33E0FC01D90133
:100A60008A2F821B8617A0F78D918193F9CF1F9251
:100A70000F920FB60F9211240BB60F922F933F9344
:100A80008F939F93EF93FF938091B900883201F188
:100A900040F48031D9F08831D9F0883009F04AC06B
:100AA00015C0803491F128F4883309F043C085EAF9
:100AB00046C08035F1F08835E9F58091BB00E091C2
:100AC000C503F0E0E953FC4F80832DC01092C503AD
:100AD000E091C5038091C603E81728F581E08E0FE9
:100AE0008093C503F0E0E953FC4F80818093BB0005
:100AF00018C0E091C50381E08E0F8093C5038091FB
:100B0000BB00F0E0E953FC4F80832091C50330E047
:100B10008091C60390E001972817390714F485ECFB
:100B20000EC085E80CC08091C40381608093C4032B
:100B300084E905C08091B9008093100284E080931D
:100B4000BC00FF91EF919F918F913F912F910F905A
:100B50000BBE0F900FBE0F901F90189508950C9428
:100B6000E81081E080930704089581E080930704F2
:100B700008958091D4030895009731F09093D303A2
:100B80008093D20381E008958FEF089590930A0433
:100B90008093090481E08093080408958FEF0895FD
:100BA00080E090E00895803220F40E94C70C81E03C
:100BB00008958FEF08958B3168F4682F8093FA03BE
:100BC00024E132E140E254E28EE196E00E94090D18
:100BD00081E008958FEF08959093020480930104BB
:100BE000E0EEF3E0DC0120E432E44FE050E00E946C
:100BF0001B326483758386839783108211821282ED
:100C0000138281E00895909300048093FF03089578
:100C1000CF92DF92EF92FF92CF93DF9300D0CDB7C8
:100C2000DEB76C017B0180910304813009F48DC033
:100C3000442309F48AC06115710509F486C0C11402
:100C4000D10409F482C0211108C0809132092A839D
:100C500049830E94891F49812A8181E0809303048E
:100C600081E894E09093E7068093E606F60181819F
:100C70008093820480818093810485819681909302
:100C800084048093830480910604809386041092E8
:100C90008504818592850196928781879093880447
:100CA00080938704838180938A048281809389045E
:100CB00030910404F0E13F9FC0011124832B809305
:100CC0008B045E2DF7018CE090E03E2F351B34172E
:100CD00050F43191A091E606B091E706A80FB91F34
:100CE0003C930196F2CF445F4093E50621112BC05F
:100CF00081E090E0A0E0B0E0BC01CD0100903209BD
:100D000004C0660F771F881F991F0A94D2F70E94AC
:100D10002C206B017C01611571058105910521F481
:100D200088EA92E00E94E8110090320904C0F6942B
:100D3000E794D794C7940A94D2F7C0FC04C085E81E
:100D400092E00E94E81181E001C08FEF0F900F90B8
:100D5000DF91CF91FF90EF90DF90CF9008958F9229
:100D60009F92AF92BF92CF92DF92EF92FF920F933A
:100D70001F93CF93DF931F92CDB7DEB74C018B014A
:100D80005A018091FC0321111CC08130F1F4809143
:100D9000310929830E94891F81E090E0A0E0B0E042
:100DA000BC01CD010090310904C0660F771F881F78
:100DB000991F0A94D2F70E942C206B017C01298193
:100DC00004C0813011F48FEF7CC0809121068C30FB
:100DD000D4F38C50D5018C9380E0F5019081891774
:100DE00078F4482F50E0E0912306F0912406E40FB8
:100DF000F51F9485F801E40FF51F90838F5FEDCF09
:100E000080912606992787FD9095D4011E969C9384
:100E10008E931D97809127061F968C931F97809124
:100E2000280650968C9350978091290651968C9362
:100E30005197E0912306F0912406858190E0982F48
:100E400088273481832B18969C938E9317978381E0
:100E500090E0982F88273281832B16969C938E934F
:100E60001597818190E0982F88273081832B1196E8
:100E70009C938E93878190E0982F88273681832BCF
:100E80001A969C938E931997818590E0982F8827C6
:100E90003085832B13969C938E93129782851C9694
:100EA0008C9321110BC00090310904C0F694E79493
:100EB000D794C7940A94D2F7C0FE85CF81E080937F
:100EC000FC030F90DF91CF911F910F91FF90EF9056
:100ED000DF90CF90BF90AF909F908F900895009734
:100EE00051F090932406809323066093220681E0BC
:100EF0008093FC0308958FEF089580930404089570
:100F00000F931F93CF93DF93162FD42F052F9FEFAF
:100F10009093D7031092D6031092D50380930504C3
:100F20001092080483E0809304041092D40380E0BC
:100F300094E0909300048093FF0380E896E9A8E989
:100F4000B0E08093E4039093E503A093E603B093AD
:100F5000E7031092E0031092E1031092E203109273
:100F6000E3030E94791EC82F809331098F3F19F443
:100F70008DE592E009C00E94791EC82F8093320946
:100F80008F3F69F485E392E00E94E811E0918C0BB9
:100F9000F0918D0B60858EE00E94C11C2DC00E94D7
:100FA000791EC82F8093CC098F3F19F489E092E015
:100FB000EBCF81E194E0909324068093230680E7B1
:100FC00080932206C1E0C093FC03109203042D2FEE
:100FD000302F4FEF5FEF612F8EE196E00E94090DF9
:100FE0001093FA03D093060483ED9FEF0E94FA0F4B
:100FF000C093FB03C093F9038C2FDF91CF911F9116
:101000000F910895809131090E94891F80913109C3
:101010000895809132090E94891F809132090895B4
:101020002091FC03213039F4FC011082FB01108275
:1010300080E090E0089520912106FC0120838091BA
:101040002606FB0180838091230690912406089553
:1010500081E08093FC0308951092F9030C94880CAE
:1010600081E08093F9030E94AE0C8091CC090C942E
:10107000BB1F81E08093140608958091FB030895BF
:101080008091FC03813099F00E947F0D0E94790DC0
:101090008091D1038F5F8093D103833030F0109221
:1010A000FC03809131090E94BB1F8FEF08951092BD
:1010B000D1030E94830E813091F5609121066D303D
:1010C0006CF180910704811107C01092FC0380919C
:1010D00031090E94BB1F22C08091230690912406F3
:1010E0000E94591180912306909124062091210697
:1010F000820F911D27FD9A95FC01319720812A3C92
:10110000A1F6319720812E3F81F6319720812E3B29
:1011100061F6319780818F3EC1F2C7CF81E008959B
:10112000CF93DF938091FC03813011F08FEF40C0AB
:10113000D4E60E94830EC82F813089F56091210684
:101140006D30ACF180910704811107C01092FC034F
:10115000809131090E94BB1F2AC080912306909183
:1011600024060E9459118091230690912406209113
:101170002106820F911D27FD9A95FC013197208150
:101180002A3CA1F6319720812E3F81F631972081AC
:101190002E3B61F6319780818F3EC1F2C7CF84E646
:1011A00090E00E94DB2BD15021F68C2F01C081E012
:1011B000DF91CF9108950F931F93CF9390910704E0
:1011C000992309F443C02091E50684E0820F382F6B
:1011D0003F7031F087FF02C083E1820F807F805F24
:1011E0008093E5068091E506E091E606F091E7063A
:1011F000E80FF11D87FDFA9531978AEC8083809185
:10120000E506E091E606F091E706E80FF11D87FD9F
:10121000FA9532978EEF80838091E506E091E6069D
:10122000F091E706E80FF11D87FDFA9533978EEBF5
:1012300080838091E506E091E606F091E706E80FED
:10124000F11D87FDFA9534978FEE80836091E50656
:10125000062F112707FD1095E091E606F091E706AD
:10126000C0E040E0242F30E0201731073CF42E0F7F
:101270003F1FD9018C91C80F4F5FF4CF992319F00C
:10128000CF010E940A11E091E506FF27E7FDF095E6
:10129000E657FE4FC08383EE96E00E94850D1092C4
:1012A0000304809132090E94BB1F81E0CF911F91FE
:1012B0000F910895CF93DF9300D0CDB7DEB70E9492
:1012C00030238091FB038823D1F38091CC090E94C5
:1012D000891F8A838F3F21F48DEE91E00E94E811EF
:1012E000612C712C22242A94322C809105048130A7
:1012F00009F0E1C08093D4036114710409F088C03F
:1013000080910304811116C021E834E03093E70690
:101310002093E6063FEF30938304309384041092C9
:1013200085041092860410928704109288048CE041
:101330008093E506E091E606F091E7069091FF03C1
:1013400080910004908781871082E091E606F091F9
:10135000E7061182E091E606F091E7062091040489
:1013600030E1239FC0011124822B828780910104E8
:10137000838788ED93E00E94DF243092E406209278
:10138000E3061092E9061092E8060E94DB080E942C
:10139000790D80911406813009F043C0412C512C05
:1013A000C20165E070E00E943632892B21F483E0AF
:1013B00090E00E940B15E091E606F091E7068FEFB2
:1013C0008083E091E606F091E7068183E091E606EE
:1013D000F091E7061482E091E606F091E7061582A7
:1013E0009CE09093E5060E94DB088AE090E00E9472
:1013F000D723EFEF4E1A5E0AF8EE4F16F3E05F06C2
:1014000079F683E090E00E9422151092140609C03C
:101410000E9440082A81213021F47092FE036092DC
:10142000FD033FEF631A730A8091FF03909100045C
:101430008615970528F48AE090E00E94D723ECC136
:101440008090E0039090E103A090E203B090E3036A
:10145000C090E403D090E503E090E603F090E7034A
:101460000091D8031091D9032091DA033091DB0366
:101470004091DC035091DD036091DE037091DF0346
:1014800088ED93E00E94E92588ED93E00E94C8254D
:101490002091D8033091D9034091DA035091DB03B6
:1014A0006091DC037091DD038091DE039091DF0396
:1014B0000E9483241ACF672809F057C00E94AE0CFF
:1014C0000E94790D612C712C0E9490088A8388ED0E
:1014D00093E00E94DF248A81813009F5E0912306A0
:1014E000F0912406818190E0982F88272081822B1B
:1014F000258130E0322F22274481242B232B21F415
:101500008F3F2FEF920721F0892B09F488C102C089
:10151000612C712C31E03093FC038FEF8A8394E6C9
:1015200069167104C0F01092D403E091D203F091D7
:10153000D303309729F0C301845691090995898313
:10154000E981E13019F4612C712C05C0F0E36F16CC
:10155000F5E77F0618F42FEF621A720A31E0309334
:10156000FC038A81813009F0AFCFE0912306F0912E
:1015700024069285892F82958F709F70891B8131F7
:1015800018F48093F80302C01092F8031092F0034D
:101590001092F1031092F2031092F3031092F403ED
:1015A0001092F5031092F6031092F7031092E803DD
:1015B0001092E9031092EA031092EB03A091210626
:1015C000BB27A7FDB09520E03DE70E941432DC0167
:1015D000CB01935BA74FBF4F8093EC039093ED0338
:1015E000A093EE03B093EF03612C712C8091F8036C
:1015F00090E06816790640F58090E8039090E90342
:10160000A090EA03B090EB03C090EC03D090ED0300
:10161000E090EE03F090EF030091F0031091F103DE
:101620002091F2033091F3034091F4035091F503BC
:101630006091F6037091F70380EF93E00E94E92533
:101640009FEF691A790AD2CFE1E0E093D4030E94B8
:101650007F0D0E94880C8091090490910A0460908B
:10166000FF03709000048615970508F43C01412C97
:10167000512C4614570441F18090E0039090E1030F
:10168000A090E203B090E303C090E403D090E503A0
:10169000E090E603F090E7030091D8031091D9039E
:1016A0002091DA033091DB034091DC035091DD039C
:1016B0006091DE037091DF0388ED93E00E94E925DD
:1016C000FFEF4F1A5F0AD5CF8090F0039090F1039F
:1016D000A090F203B090F303C090F403D090F50310
:1016E000E090F603F090F7030091D8031091D9032E
:1016F0002091DA033091DB034091DC035091DD034C
:101700006091DE037091DF0388ED93E00E943C2539
:1017100088ED93E00E94C8252091D8033091D90329
:101720004091DA035091DB036091DC037091DD039B
:101730008091DE039091DF030E9483248091030453
:101740008130B1F4E091E606F091E7066082E09125
:10175000E606F091E70671823092E4062092E306F5
:101760001092E9061092E8060E94AE0C0E94DB0877
:101770000E947F0D0E94880C412C512C8091FF0308
:1017800090910004861997094816590640F58090F3
:10179000E0039090E103A090E203B090E303C090D7
:1017A000E403D090E503E090E603F090E7030091B6
:1017B000D8031091D9032091DA033091DB034091D3
:1017C000DC035091DD036091DE037091DF0388ED4F
:1017D00093E00E94E9252FEF421A520ACFCF88EDFD
:1017E00093E00E94C8252091D8033091D9034091FD
:1017F000DA035091DB036091DC037091DD0380918B
:10180000DE039091DF030E9483248091F90381110C
:1018100003C00E943023F9CF612C712C66CD8285E4
:1018200082958F7080930404818590E0982F88279B
:101830002085822B909300048093FF03A3858A2F39
:1018400090E09093020480930104DC0120E432E4F0
:101850004FE050E00E941B326093E4037093E50375
:101860008093E6039093E7031092E0031092E10364
:101870001092E2031092E30352CE6AE579E081EF21
:1018800095E00E94DD2F40E051E061EF74E081EFD0
:1018900095E00E94E12FE1EFF5E084E1808781E0AF
:1018A00087838187828781E090E0A0E0B0E0838732
:1018B0009487A587B6871786108A118A128A87E0CF
:1018C00090E0A0E0B0E0838B948BA58BB68B178A59
:1018D000108E118E128E138E148E158E168E178EFC
:1018E00010A211A212A2CF010C949E22909141014C
:1018F0009F719F31D9F3809342010895809315061B
:10190000089581E08093650A08951092650A08950C
:10191000809141018F718F31D9F3809141018F7195
:10192000E1F08F30D1F0809141018F71883031F436
:10193000809139018260809339010BC088E00E9458
:10194000760C809141018F718830D9F7F1CF8F30BB
:1019500021F0809141018F71D1F70895809141016B
:101960008F718F31D9F3809141018F7111F08F30D8
:1019700051F4809139018D7F80933901809141012B
:101980008F718830D9F7089589E00C94760CE5E4DE
:10199000F1E09081907F908390818F70982B90835D
:1019A0000895E7E5F1E080818D7F80830895E7E584
:1019B000F1E08081826080830895EEE6F1E080812D
:1019C0008F7E80830895EEE6F1E0808180618083E0
:1019D0000895809360019093610190936F0A8093C2
:1019E0006E0A08959093690A8093680AE8E4F1E02A
:1019F0008081807E80838081682B608308959093AE
:101A0000190680931806089590931706809316067A
:101A100008950F931F93CF93DF93FC01D90180E2C8
:101A20008093440180EC809345016062609348019B
:101A300085EC8093490187EA80934B0180E880938D
:101A40004C0120936001B093610140936201509377
:101A50006301C6E4D1E00881888198812881302F14
:101A600032953695377060E4369F800111242295B7
:101A700026952370622F602B82958695837070E186
:101A8000879F90011124262B92959695937084E060
:101A9000989FB0011124622B60936D018881988119
:101AA000929596959370392F3064982F92959670F1
:101AB000932B90936E0110926C018FEF80934E01E7
:101AC000C8E6DAE0F983E8831A821B825D834C83DF
:101AD000BF83AE83188681E08093820A1092990AB0
:101AE0001092710A1092650ADF91CF911F910F91A8
:101AF000089586E10C94760C86E10C94760C88E0CF
:101B00000E94760C1092990A08950F931F93CF9319
:101B1000DF93FC018091820A811102C08FEFABC07C
:101B2000268180916A0A8F5F80936A0A9091810171
:101B3000907E916020FB95F99F7390649093810152
:101B400088E8809382018091650A882361F08FEF95
:101B5000809383018AEA9AEA9093890180938801AD
:101B60008FEF9FEF10C080916A0A809383012091CC
:101B700061018091600190E0922B909389018093A4
:101B800088018081918190938701809386012091C3
:101B900063018091620190E0922B90938501809384
:101BA00084018F014281552747FD509563817481DF
:101BB0008AE891E00E94EB32F8018281855F809390
:101BC000800180914101D82FDF719FEF9D0F9230EE
:101BD000C0F3D131B1F3D231A1F3DF3191F398EFFA
:101BE0009D0F923020F08F70863009F097CF86E1FC
:101BF0000E94760CF801858181110BC089E00E945A
:101C0000760CF8018681882391F089E10E94760C98
:101C10000EC0809148018068809348018091410105
:101C200087FFFCCF8091410186FF78CFE7CF1092EC
:101C3000710A82E00E94760C80E090E02091710AA7
:101C4000211105C00196883EFDEF9F07B9F7F80105
:101C50002681222331F0209142012295269527707A
:101C600029F4883E9D4F11F0C1E001C0CFEF8D2FC8
:101C70000E94760C8C2FDF91CF911F910F910895C8
:101C80001092710A82E00E94760C88EE9DEF2091FE
:101C9000710A211104C00197D1F78FEF089581E0F7
:101CA0000895CF93DF938091820A882341F1809138
:101CB0004101C82FCF719FEF9C0F9230C0F3C1310B
:101CC000B1F3C231A1F3CF3191F3C83019F08F7065
:101CD0008630A9F486E10E94760C809148018068E4
:101CE000809348018091410187FFFCCFD091410151
:101CF0008C2F0E94760CD6FB882780F901C08FEFCD
:101D0000DF91CF9108958091820A882309F4E3C07E
:101D10008091990A882309F4DCC080917B01E091CD
:101D2000680AF091690A90E002972481332727FD21
:101D30003095281739070CF4CEC0E091680AF0916D
:101D4000690A809182018083E091680AF091690AB2
:101D5000809187019091880192838183E091680A44
:101D6000F091690A80917B018B508383A091680A6E
:101D7000B091690AE091680AF091690A13969C9102
:101D8000848189173CF0E091680AF091690A8381A7
:101D900087FF0DC01092990A80914C018F77809334
:101DA0004C0180914C01806880934C0194C0A091BB
:101DB000680AB091690AE091680AF091690A13967D
:101DC0004C91552747FD509569E871E085819681D2
:101DD0000E94EB3280911506882309F43EC0E09101
:101DE000680AF091690A83818031B9F5E091680A47
:101DF000F091690A6581768144E050E081E192E0EA
:101E00000E94F432892B49F5E091680AF091690A41
:101E10006581768140E150E081E192E00E94F432F8
:101E2000892BD9F49DE088E10FB6F894A8958093AA
:101E300060000FBE9093600080E090E00E94391532
:101E400081E090E00E94391582E090E00E9439150F
:101E500083E090E00E943915FFCFE091680AF0918D
:101E6000690A8091800185FB882780F98783E0914A
:101E7000680AF091690A809147018087E091680AB9
:101E8000F091690A809146018695869586958187AD
:101E9000E091680AF091690A809147018287A091D8
:101EA000680AB091690AE0917B01F0E0E058FE4FCA
:101EB00080811B968C931092990A80914C018F77A8
:101EC00080934C0180914C01806880934C0181E0AB
:101ED000089580E008958FEF08951F920F920FB636
:101EE0000F9211248F9380E880934F018F910F9070
:101EF0000FBE0F901F9018951F920F920FB60F9262
:101F000011248F9381E08093710A80E480934F01C4
:101F10008F910F900FBE0F901F9018951F920F92E8
:101F20000FB60F9211248F9380E280934F018F910F
:101F30000F900FBE0F901F9018951F920F920FB623
:101F40000F9211248F9380E180934F018F910F9016
:101F50000FBE0F901F9018951F920F920FB60F9201
:101F600011240BB60F922F933F934F935F936F9370
:101F70007F938F939F93AF93BF93EF93FF9384E0EF
:101F800080934F01E0911806F0911906309709F0FF
:101F90000995FF91EF91BF91AF919F918F917F91A3
:101FA0006F915F914F913F912F910F900BBE0F90CA
:101FB0000FBE0F901F9018951F920F920FB60F92A1
:101FC00011248F9382E080934F018F910F900FBE69
:101FD0000F901F9018951F920F920FB60F92112419
:101FE0008F9381E080934F018F910F900FBE0F90E0
:101FF0001F901895E9E4F1E09081907F90839081A3
:102000008F70982B908308958FEF08950895089509
:1020100008958FEF08958091630A9091640A08955E
:10202000089581E0089581E0089581E0089508957C
:102030000895089508950895089508950895989825
:102040008DB1806E8DB98EB1806A8EB908959898E1
:102050008DB1806E8DB98EB180668EB90895CF92A4
:10206000DF92EF92FF920F931F93CF93DF93CDB741
:10207000DEB727970FB6F894DEBF0FBECDBF0E9424
:102080005616E091680AF091690AC080D380E58015
:10209000F68000850E94830E18161CF084ED92E0F5
:1020A00006C0F7011081111107C083EF92E00E9472
:1020B0009F330E94581631C0153021F48AE090E019
:1020C0000E949933C70101969F938F93802F992780
:1020D00087FD90959F930F931F921F931F92CF920E
:1020E00085E193E09F938F930E948533FD82EC827C
:1020F0001150F7011083DB821E821F828FEF9FEF4A
:102100009A8389830E945816CE0101960E94850DFC
:102110000FB6F894DEBF0FBECDBF27960FB6F8946A
:10212000DEBF0FBECDBFDF91CF911F910F91FF900A
:10213000EF90DF90CF9008951F920F920FB60F92FD
:1021400011240BB60F922F933F934F935F936F938E
:102150007F938F939F93AF93BF93EF93FF9380E011
:1021600090917B01891710F48F5FFACF809146011F
:1021700087FF04C081E08093990A04C08EE393E056
:102180000E949F3388E080934F018091460187FF32
:1021900005C08091650A81110E942F10E0911606FA
:1021A000F0911706309709F00995FF91EF91BF91D3
:1021B000AF919F918F917F916F915F914F913F91DF
:1021C0002F910F900BBE0F900FBE0F901F90189580
:1021D000A2E7BAE0FC01409620812D932191209343
:1021E0003F01E817F907C1F780E110923E018150E5
:1021F000E1F780E880933C0180913D0180FFFCCFB6
:10220000E3E8FAE080E18E0F90913F0191938E1305
:10221000FBCF0895CF93DF93DC01662309F445C01B
:10222000862F8F7009F041C0E2E7FAE090E19E0F3F
:10223000219120933F019E13FBCF90E070E0E0E2FC
:1022400040E1949F90011124261737077CF59111E6
:1022500003C010923C0102C0E0933C0140E050E01A
:102260002A0F3B1FE901C40FD51FF881F0933E01EF
:102270004F5F5F4F40315105A9F740913C014068E5
:1022800040933C0140913D0140FFFCCF40E050E0D5
:10229000F0913E01E901C40FD51FF8834F5F5F4FF6
:1022A00040315105A9F79F5FCBCF81E0DF91CF91FE
:1022B00008950F931F93CF93DF93DC01613009F4EE
:1022C00058C0862F8F7009F054C0E3E8FAE090E11F
:1022D0009E0F219120933F019E13FBCF62956F705B
:1022E000615078E06F3F09F445C070933C01462F80
:1022F000552747FD509520E030E0ED0190E169025F
:10230000C00DD11D1124FE01E20FF31F90819093A7
:102310003E012F5F3F4F20313105A9F790913C01DD
:10232000906890933C0190913D0190FFFCCF41500B
:10233000510994E0440F551F9A95E1F720E030E0F1
:1023400090913E018E01020F131FF80190836623C6
:1023500049F0F901E40FF51FEA0FFB1FE0819E270A
:10236000F80190832F5F3F4F2031310549F76150CD
:10237000B9CF81E0DF91CF911F910F9108958091A6
:10238000C00087FFFCCF8091C0008F778093C00092
:102390008091C60008959091C00095FFFCCF909168
:1023A000C0009F7D9093C0008093C60008958FEF7A
:1023B0000895813019F48091C80004C0811106C0CD
:1023C0008091C000881F8827881F089580E00895A5
:1023D000CF93DF93FC012491EC012196222351F04D
:1023E0006091F10B7091F20B822F90E00E944D33BF
:1023F000CE01F0CFDF91CF91089586E084B985B901
:1024000088EF8AB980EF8BB982E08DB908950C947A
:10241000FD118F3F09F46CC0E82FE7704E2F50E09C
:102420004730510508F064C0FA01E057FF4F869528
:10243000869586950C94CB3242B121E030E0B9010B
:1024400002C0660F771F8A95E2F7CB01842B82B911
:102450004DC045B121E030E0B90102C0660F771FE1
:102460008A95E2F7CB01842B85B940C048B121E0C1
:1024700030E0B90102C0660F771F8A95E2F7CB0101
:10248000842B88B933C04BB121E030E0B90102C0E0
:10249000660F771F8A95E2F7CB01842B8BB926C094
:1024A0004EB121E030E0B90102C0660F771F8A9576
:1024B000E2F7CB01842B8EB919C041B321E030E0A3
:1024C000B90102C0660F771F8A95E2F7CB01842B12
:1024D00081BB0CC044B321E030E0B90102C0660FFB
:1024E000771F8A95E2F7CB01842B84BB81E00895A6
:1024F0008FEF08958F3F09F473C0E82FE7704E2FD8
:1025000050E04730510508F06BC0FA01E956FF4F23
:102510008695869586950C94CB3242B121E030E0C9
:10252000B90102C0660F771F8A95E2F7CB0180954B
:10253000842382B953C045B121E030E0B90102C023
:10254000660F771F8A95E2F7CB018095842385B9C2
:1025500045C048B121E030E0B90102C0660F771FE5
:102560008A95E2F7CB018095842388B937C04BB1B7
:1025700021E030E0B90102C0660F771F8A95E2F7CB
:10258000CB01809584238BB929C04EB121E030E086
:10259000B90102C0660F771F8A95E2F7CB018095DB
:1025A00084238EB91BC041B321E030E0B90102C0E1
:1025B000660F771F8A95E2F7CB018095842381BB54
:1025C0000DC044B321E030E0B90102C0660F771FAF
:1025D0008A95E2F7CB018095842384BB81E008953E
:1025E0008FEF08958F3F31F1E82FE7704E2F50E0C5
:1025F00047305105F8F4FA01E256FF4F282F26958F
:10260000269526950C94CB3290B10BC093B109C09E
:1026100096B107C099B105C09CB103C09FB101C07C
:1026200092B3892F90E002C0959587952A95E2F79D
:10263000817008958FEF08958F3F09F406C1E82F48
:10264000E7704E2F50E04730510508F0FEC0FA0108
:10265000EB55FF4F8695869586950C94CB3220B12D
:1026600030E0082E02C0359527950A94E2F742B172
:1026700020FD0BC021E030E0B90102C0660F771FDA
:102680008A95E2F7CB01842B0BC021E030E0B90141
:1026900002C0660F771F8A95E2F7CB0180958423ED
:1026A00082B916C023B130E0082E02C035952795B7
:1026B0000A94E2F745B120FD0DC021E030E0B901F8
:1026C00002C0660F771F8A95E2F7CB01842B85B98C
:1026D00081E0089521E030E0B90102C0660F771F64
:1026E0008A95E2F7CB0180958423F1CF26B130E0C3
:1026F000082E02C0359527950A94E2F748B120FDCF
:102700000BC021E030E0B90102C0660F771F8A9547
:10271000E2F7CB01842B0BC021E030E0B90102C00D
:10272000660F771F8A95E2F7CB018095842388B9DD
:10273000CFCF29B130E0082E02C0359527950A94F5
:10274000E2F74BB120FD0BC021E030E0B90102C03F
:10275000660F771F8A95E2F7CB01842B0BC021E02F
:1027600030E0B90102C0660F771F8A95E2F7CB010E
:10277000809584238BB9ACCF2CB130E0082E02C0F9
:10278000359527950A94E2F74EB120FD0BC021E064
:1027900030E0B90102C0660F771F8A95E2F7CB01DE
:1027A000842B0BC021E030E0B90102C0660F771F17
:1027B0008A95E2F7CB01809584238EB989CF2FB11A
:1027C00030E0082E02C0359527950A94E2F741B310
:1027D00020FD0BC021E030E0B90102C0660F771F79
:1027E0008A95E2F7CB01842B0BC021E030E0B901E0
:1027F00002C0660F771F8A95E2F7CB01809584238C
:1028000081BB66CF22B330E0082E02C035952795F4
:102810000A94E2F744B320FD0BC021E030E0B90197
:1028200002C0660F771F8A95E2F7CB01842B0BC09D
:1028300021E030E0B90102C0660F771F8A95E2F708
:10284000CB018095842384BB43CF8FEF08958F3FC6
:1028500009F4D5C0E82FE7704E2F50E0611167C032
:102860004730510508F0CBC0FA01E455FF4F86957B
:10287000869586950C94CB3241B121E030E0B901C8
:1028800002C0660F771F8A95E2F7CB0180958423FB
:1028900065C044B121E030E0B90102C0660F771F86
:1028A0008A95E2F7CB018095842365C047B121E08A
:1028B00030E0B90102C0660F771F8A95E2F7CB01BD
:1028C0008095842365C04AB121E030E0B90102C09F
:1028D000660F771F8A95E2F7CB018095842365C048
:1028E0004DB121E030E0B90102C0660F771F8A9533
:1028F000E2F7CB018095842365C040B321E030E04E
:10290000B90102C0660F771F8A95E2F7CB01809567
:10291000842365C043B321E030E0B90102C0660FF3
:10292000771F8A95E2F7CB018095842365C04730F5
:10293000510508F064C0FA01ED54FF4F8695869565
:1029400086950C94CB3241B121E030E0B90102C050
:10295000660F771F8A95E2F7CB01842B81B94DC0B2
:1029600044B121E030E0B90102C0660F771F8A95BB
:10297000E2F7CB01842B84B940C047B121E030E0BD
:10298000B90102C0660F771F8A95E2F7CB01842B4D
:1029900087B933C04AB121E030E0B90102C0660F07
:1029A000771F8A95E2F7CB01842B8AB926C04DB1F7
:1029B00021E030E0B90102C0660F771F8A95E2F787
:1029C000CB01842B8DB919C040B321E030E0B901AF
:1029D00002C0660F771F8A95E2F7CB01842B80BB7C
:1029E0000CC043B321E030E0B90102C0660F771F8D
:1029F0008A95E2F7CB01842B83BB81E008958FEFAA
:102A00000895811106C080B18695817091E0892773
:102A100008958FEF0895009711F483E20DC081307F
:102A2000910511F48BE208C08230910511F483E323
:102A300003C0039729F48BE30E941C1381E00895DF
:102A40008FEF0895009711F483E20DC08130910556
:102A500011F48BE208C08230910511F483E303C0C6
:102A6000039729F48BE30E94091281E008958FEF08
:102A70000895009711F483E20DC08130910511F49F
:102A80008BE208C08230910511F483E303C0039701
:102A900029F48BE30E947A1281E008958FEF089564
:102AA000882319F085B78F7E02C085B7806185BF06
:102AB00081E008959091C80095FFFCCF8093CE00EF
:102AC00008959093C5008093C40086E08093C2006F
:102AD000E1ECF0E080818B7F8083A0ECB0E08C9112
:102AE00082608C9380818861808308959093CD006B
:102AF0008093CC0086E08093CA00E9ECF0E080810E
:102B00008B7F8083A8ECB0E08C9182608C93808175
:102B1000886180830895CF93DF930E9461156FEBE6
:102B200071E18BEC91E10E940233CFEEDBE09B83FD
:102B30008A836FEB71E18BEC91E10E940233998300
:102B40008883DF91CF9108958091C80087FFFCCFE3
:102B50008091C8008F778093C8008091CE0008953F
:102B600000000000000000000197D1F708950C94C8
:102B70005D340E9465340895EF92FF920F931F9386
:102B8000CF93DF937C0180E090E00E945D34182FAA
:102B9000F701838381E090E00E945D34082FF70104
:102BA000828382E090E00E945D34D82FF701818318
:102BB00083E090E00E945D34C82FF701808384E0B9
:102BC00090E00E945D34100FD10FCD0F8C1711F0E3
:102BD0008FEF01C081E0DF91CF911F910F91FF90A6
:102BE000EF900895CF93DF93EC0185E090E00E9491
:102BF0005D34888381E0DF91CF910895FC0160818D
:102C000086E090E00E94653481E00895CF93DF93E1
:102C1000EC0186E090E00E945D34888381E0DF91E2
:102C2000CF9108950F931F93CF93DF938C01C0E052
:102C3000D0E0CE0108960E945D34F80181938F01A7
:102C40002196C031D105A9F781E0DF91CF911F9185
:102C50000F9108950F931F93CF93DF938C01C0E0E2
:102C6000D0E0F80161918F01CE0108960E94653491
:102C70002196C031D105A9F781E0DF91CF911F9155
:102C80000F910895CF93DF93EC0187E090E00E94CD
:102C90005D34888381E0DF91CF910895FC016081EC
:102CA00087E090E00E94653481E00895F8940895EB
:102CB000789408950E945616FFCFCF93DF93CDB737
:102CC000DEB7A3970FB6F894DEBF0FBECDBF0E944C
:102CD000791E80937C0B8F3F21F460E08EE00E9490
:102CE000C11C0E94A52D80FF04C060E086E00E9408
:102CF000C11C0E94BC2F8F3F31F40E949F2F60E0C7
:102D000080E10E94C11C0E94AD2F10927F0B109297
:102D10008D0B10928C0B10927E0B10927D0B1092EB
:102D20008E0B0E94061810928B0B8FEF8093750B01
:102D30008093770B8093760B8093780B80937A0B3C
:102D40008093790B80E090E033E62FEFFC01E456AE
:102D5000F54F328720878B96873D9105B9F7E8ECD0
:102D6000FBE0CF01059694838383F783E683FC0120
:102D70008BE0E13EF807A9F71092CA0B1092C90B3D
:102D80001092E50B1092E40B1092820B1092810BC3
:102D900088EC9BE090939B0A80939A0A69E677E21D
:102DA000CE0101960E94DD2F40E850E06FED79E002
:102DB000CE0101960E94E12F85E58093DF091986F7
:102DC0001C861D861E861F86188A198A1A8A1B8AE7
:102DD0001C8A1D8A1E8A1F8A188E198E1A8E1B8EB7
:102DE0001C8E1D8E1E8E1F8E18A219A21AA21BA247
:102DF00081E0888792E09A878B87CE0101960E94B6
:102E00009E22A3960FB6F894DEBF0FBECDBFDF9112
:102E1000CF91089504EA1AE0C0E0F801D080FFEFF6
:102E2000DF1222C0CF5F055D1F4FC530B1F70E9492
:102E30008D212BE28202C0011124FC01E456F54FE2
:102E4000828580938E0BF0938D0BE0938C0BF09327
:102E50007E0BE0937D0B80937F0B0E9453300E948A
:102E60003D300E94573016C084EAE82E8AE0F82EE2
:102E7000D0E0CD1741F0F7018081D81204C06D2D4C
:102E800085E00E94C11CDF5FFBE2EF0EF11CD53034
:102E900081F7C8CFFFCFCF92DF92EF92FF920F93CF
:102EA0001F93CF93DF93EC018B017A0189858230E8
:102EB00021F080917B0B888301C0188280917B0B6D
:102EC000853020F060E087E00E94C11C8985823057
:102ED00029F080917B0B8F5F80937B0B80917B0B24
:102EE000811103C081E080937B0B38812BE2320398
:102EF000F0011124E456F54F118300838885828701
:102F000038813203F0011124E456F54F83E08187C4
:102F100038813203F0011124E456F54F30870881DF
:102F20000203800111240456154FF8011582CE01C9
:102F30000B960E94FB26F80161A372A383A394A3BE
:102F40008B859C85AD85BE8588339948A144B105A4
:102F500020F0688186E10E94C11CC880DD24C7FC86
:102F6000D094CE014B960E94FB261BE21C9DF001E3
:102F70001D9DF00D1124E456F54F658B768B878BE4
:102F8000908F28812103C00111249C012456354FC4
:102F90006901F901458956896789708D81A192A1DE
:102FA000A3A1B4A1840F951FA61FB71F818F928F75
:102FB000A38FB48FCE0143960E94FB26F60165A332
:102FC00076A387A390A728812103F0011124E4565A
:102FD000F54F85A196A1A7A1B0A5858F968FA78F44
:102FE000B0A381E090E092A781A7F382E282848778
:102FF000DF91CF911F910F91FF90EF90DF90CF90D5
:1030000008950C948D2785E690E008951092EA06C5
:103010001092EB061092EC061092ED061092EE065E
:103020001092EF061092F0061092F106E4E3F9E038
:1030300080E090E010821182128213821086118645
:1030400012861386148215821682178214861586BC
:1030500016861786108A118A128A138A108E118E8C
:10306000128E138EDC01AC5CB64F5C961C925C97A2
:103070005D961C927E964E9686399105D9F60895F6
:103080000F931F93EAEEF6E0A82FB0E023EB36EEA5
:103090004EE050E00E941B32048115812681378169
:1030A000DC01CB01800F911FA21FB31F8483958386
:1030B000A683B783CF011F910F910C94C825EAEE28
:1030C000F6E04081518162817381DC014D935D9313
:1030D0006D937C9313974481558166817781FC01C0
:1030E000448355836683778308952EE1829FC001D0
:1030F0001124FC01EC5CF64F858D813039F0848D14
:103100008F5F848F8F3F11F481E0858F08952EE1CA
:10311000829FC0011124FC01EC5CF64F858D81304B
:10312000B1F0148A158A168A178A80899189A28932
:10313000B3890196A11DB11D808B918BA28BB38B9E
:103140008E3F9F4FAF4FBF4F11F481E0858F0895A1
:103150000F931F932EE1829FC0011124FC01EC5CB0
:10316000F64F858D813071F1808D918DA28DB38D5B
:103170000196A11DB11D808F918FA28FB38F462F15
:1031800050E060E070E00489158926893789040FD2
:10319000151F261F371F048B158B268B378B00813D
:1031A000118122813381400F511F621F731F4083A1
:1031B0005183628373838E3F9F4FAF4FBF4F11F494
:1031C00081E0858F1F910F910895CF92DF92EF924A
:1031D000FF92282F30E09EE1899FF0011124EC5CE2
:1031E000F64F858D813009F44BC0462F50E060E0EA
:1031F00070E084899589A689B789840F951FA61FD9
:10320000B71F84879587A687B787C080D180E28063
:10321000F3804C0D5D1D6E1D7F1D408351836283C5
:10322000738344815581668177814115510561051C
:10323000710529F084179507A607B70760F44EE1DA
:10324000429FF001439FF00D1124EC5CF64F848304
:103250009583A683B7834EE1429FF001439FF00D13
:103260001124EC5CF64F40855185628573854817C3
:1032700059076A077B0720F480879187A287B38765
:10328000FF90EF90DF90CF9008958F929F92AF9232
:10329000BF92CF92DF92EF92FF920F931F93CF9343
:1032A000DF93CDB7DEB728970FB6F894DEBF0FBE19
:1032B000CDBF182F8DEA93E00E94E811A12EB12C0A
:1032C0001F921F9387E593E09F938F930E9485330E
:1032D0000F900F900F900F90111152C082E993E060
:1032E0000E94E811CE0101960E94DF246D817E814B
:1032F0008F819885E0E4CE2EE2E4DE2EEFE0EE2E24
:10330000F12CA70196010E944A325F934F933F939D
:103310002F938C818F938B818F938A818F93898157
:103320008F930AE513E01F930F930E94853381E783
:1033300093E00E94E8116091EE067091EF06809193
:10334000F0069091F106A70196010E944A325F9320
:103350004F933F932F938091ED068F938091EC06CE
:103360008F938091EB068F938091EA068F931F9342
:103370000F930E9485330FB6F894DEBF0FBECDBF0A
:1033800080E693E00E94E8118EE18A9D80018B9D8A
:10339000100D11240C5C164FF8016081718182813F
:1033A00093810E94C42629833A834B835C836D8377
:1033B0007E838F8398876D817E818F81988520E4BD
:1033C000822E22E4922E2FE0A22EB12CA501940190
:1033D0000E944A325F934F933F932F938C818F9338
:1033E0008B818F938A818F9389818F933AE5E32E26
:1033F00033E0F32EFF92EF920E94853385E493E051
:103400000E94E811F80164817581868197810E948C
:10341000C42629833A834B835C836D837E838F83A9
:1034200098876D817E818F819885A50194010E9486
:103430004A325F934F933F932F938C818F938B816D
:103440008F938A818F9389818F934AE6C42E43E0BC
:10345000D42EDF92CF920E948533F8016485758562
:10346000868597850E94C42629833A834B835C8393
:103470006D837E838F8398876D817E818F81988510
:10348000A50194010E944A325F934F933F932F937B
:103490008C818F938B818F938A818F9389818F9376
:1034A000DF92CF920E948533F80160857185828515
:1034B00093850E94C42629833A834B835C836D8362
:1034C0007E838F8398876D817E818F819885A5010A
:1034D00094010E944A325F934F933F932F938C81C4
:1034E0008F938B818F938A818F9389818F93FF92A2
:1034F000EF920E9485330FB6F894DEBF0FBECDBFAA
:1035000085E393E00E94E811F801709683818F9320
:1035100082818F9381818F93F80180898F935CE7FB
:10352000E52E53E0F52EFF92EF920E94853382E262
:1035300093E00E94E811F801789683818F9382814D
:103540008F9381818F93F801808D8F93FF92EF92FB
:103550000E94853389E093E00E94E811F801848D90
:103560001F928F9360E8E62E63E0F62EFF92EF92B3
:103570000E9485338CEE92E00E94E811F801858D5F
:103580001F928F93FF92EF920E94853389EE92E013
:103590000E94E8110FB6F894DEBF0FBECDBF28968B
:1035A0000FB6F894DEBF0FBECDBFDF91CF911F9154
:1035B0000F91FF90EF90DF90CF90BF90AF909F90D2
:1035C0008F900895CF938CEC92E00E94E811C0E0B8
:1035D0008C2F0E944519CF5FC530D1F7CF91089548
:1035E000DB01853008F054C09EE1899FF001112471
:1035F000EC5CF64F40815181628173814D935D9304
:103600006D937C93139744815581668177811496DD
:103610004D935D936D937C9317974085518562859B
:10362000738518964D935D936D937C931B9744859A
:103630005585668577851C964D935D936D937C9338
:103640001F97408951896289738950964D935D9384
:103650006D937C93539744895589668977895496ED
:103660004D935D936D937C935797408D518D628DF3
:10367000738D58964D935D936D937C935B97848D7A
:103680005C968C935C97858D5D968C9381E0089514
:103690008FEF0895E0918C0BF0918D0B8487089546
:1036A000E0918C0BF0918D0B84850895CF93DF937F
:1036B000D82FC62F80E092E00E94B7158F5F8F3F12
:1036C00019F080931A0602C010921A0620911A0669
:1036D00036E0239FC00111246D2F8F5F9D4F0E9404
:1036E000B91580911A0646E0849FC00111246C2F01
:1036F0008E5F9D4F0E94B91520911A064091830B51
:103700005091840B6091850B7091860B672F772702
:103710008827992746E0249F90011124C9018D5FD5
:103720009D4F0E94B91520911A064091830B50912C
:10373000840B6091850B7091860B8827992746E052
:10374000249F90011124C9018C5F9D4F0E94B915DF
:1037500020911A064091830B5091840B6091850B48
:103760007091860B9927872F762F652F46E0249F2F
:1037700090011124C9018B5F9D4F0E94B915809162
:103780001A0626E0829FC00111246091830B8A5F94
:103790009D4F0E94B91560911A0680E092E0DF917A
:1037A000CF910C94B915FC018091CA09882331F09E
:1037B000DB018C938091BA06808381E0089580912B
:1037C000CA09882309F483C084EE95E00E94E811B9
:1037D0008091BA061F928F9387E593E09F938F9312
:1037E0000E94853380EE95E00E94E8110F900F90C3
:1037F0000F900F908091CA09883110F01092CA0979
:10380000E091CA098E2F90E0FC013197E631F10575
:1038100008F046C0E654FF4F0C94CB3284EA95E0A2
:1038200041C08DE795E03EC089E695E03BC083E569
:1038300095E038C088E395E035C082E295E032C07B
:103840008AE095E02FC087EF94E02CC084EE94E0EE
:1038500029C086EC94E026C081EA94E023C085E983
:1038600094E020C08AE794E01DC08BE694E01AC083
:1038700087E594E017C086E494E014C082E394E006
:1038800011C082E194E00EC08AEF93E00BC08FED8F
:1038900093E008C08EEC93E005C08FEB93E002C08C
:1038A00088EB93E00E94E8116091F10B7091F20BAC
:1038B0008DE090E00E944D336091F10B7091F20B1E
:1038C0008AE090E00E944D338091CA09089580E01B
:1038D000089513BC1092B60018BC17BC16BC15BCDA
:1038E00014BC1DBA1CBA1BBA10929B0010929A000D
:1038F00010929900109298001092950010929400E6
:10390000109291001092900018BA109271001092CB
:10391000B4001092B3001092B2001092B100E0EB2C
:10392000F0E01082108217BA109270008FEF84BFFF
:1039300008950E9456160E949F2F8091CA098031D7
:1039400071F08351823058F00E94691C80EF95E03D
:103950000E94E8110E94AD2F0E945616FFCF1092D0
:10396000CA0908958093CA09E0918C0BF0918D0BE0
:1039700060856093BA060E94561B0E94DF1B0C9460
:10398000991C8093CA096093BA060E94561B0E9434
:10399000DF1B0C94991CCF93DF931F92CDB7DEB73A
:1039A00019828981843640F480ED97E00E94DB2BF8
:1039B00089818F5F8983F5CF0F90DF91CF91089533
:1039C00081E090E00E9439150E94CB1C0E94CB1C24
:1039D0000E94CB1C81E090E00E9422150C94CB1C2D
:1039E00081E090E00E9439150E94CB1C81E090E0BC
:1039F0000E9422150C94CB1CFF920F931F93CF9320
:103A0000DF9300D01F92CDB7DEB71F928F9387E56B
:103A100093E09F938F938E010F5F1F4F1F930F9320
:103A20000E94CF330F900F900F900F900F900F9038
:103A3000F12CF80101900020E9F73197E01BF10B20
:103A40008F2D90E08E179F0708F05DC0F801E80FFA
:103A5000F91FE0818E2F90E0FC01F097EA30F1052C
:103A600008F049C0E053FF4F0C94CB320E94E01C99
:103A700002C00E94F01C0E94E01C0E94E01C0E94F8
:103A8000E01C0E94E01C37C00E94F01C0E94F01C49
:103A9000F4CF0E94F01C0E94F01C0E94F01CEFCF9B
:103AA0000E94F01C0E94F01C0E94F01C0E94F01C5E
:103AB000E8CF0E94F01C02C00E94E01C0E94F01C93
:103AC00004C00E94E01C0E94E01C0E94F01C06C082
:103AD0000E94E01C0E94E01C0E94E01C0E94F01C5E
:103AE00008C00E94E01C0E94E01C0E94E01C0E9492
:103AF000E01C0E94F01C0E94CB1C0E94CB1C0E9468
:103B0000CB1CF39496CF0F900F900F90DF91CF9135
:103B10001F910F91FF9008956F927F928F929F92C5
:103B2000AF92BF92CF92DF92EF92FF920F931F93CB
:103B3000CF93DF9380E096E00E94E811E0918C0B38
:103B4000F0918D0B8085282F332727FD30953F93EB
:103B50008F9383E893E09F938F930E948533E09146
:103B60008C0BF0918D0BC281D381DF93CF9387EBC8
:103B700093E09F938F930E94853388811F928F9348
:103B80008CE893E09F938F930E948533E0918C0B98
:103B9000F0918D0B81818F9380818F9389E993E0E0
:103BA0009F938F930E94853380918D0B8F9380918B
:103BB0008C0B8F9383EA93E09F938F930E948533BE
:103BC000CCE9DAE0EDB7FEB774960FB6F894FEBF15
:103BD0000FBEEDBF00E010E083EB682E83E0782E8F
:103BE0009CE8892E93E0992E29E9A22E23E0B22E9B
:103BF00033EAC32E33E0D32EEA80FB80FF92EF92AC
:103C00001F930F937F926F920E948533F7018081FB
:103C10001F928F939F928F920E94853389818F93F9
:103C200088818F93BF92AF920E948533DF93CF93A9
:103C3000DF92CF920E9485330F5F1F4FAB96EDB797
:103C4000FEB772960FB6F894FEBF0FBEEDBF0530FB
:103C5000110591F6DF91CF911F910F91FF90EF9099
:103C6000DF90CF90BF90AF909F908F907F906F909C
:103C70000895CF93DF93E0918C0BF0918D0BC2816F
:103C8000D3818881853539F00E948C1D81E00E94A6
:103C9000B21C85E58883E0918C0BF0918D0B8081BF
:103CA00091818115924438F00E948C1D82E1DF9150
:103CB000CF910C94B21CDF91CF9108952BE2820238
:103CC000C0011124FC01E456F54FA281B3818C910F
:103CD000853519F085E58C9308C080819181811527
:103CE000924428F082E10E94B21C8FEF089581E097
:103CF00008950F931F93409172075091730760913D
:103D000074077091750780E090E08A019B01082E8E
:103D100004C036952795179507950A94D2F700FDAC
:103D200019C001E010E020E030E0082E04C0000FD0
:103D3000111F221F331F0A94D2F7402B512B622BE5
:103D4000732B4093720750937307609374077093BB
:103D5000750705C0019680329105B9F68FEF1F9166
:103D60000F910895E0918C0BF0918D0B6585768510
:103D7000878590890895CF92DF92EF92FF920F93FB
:103D80001F93CF93DF93C12CD12C7601C394082EBF
:103D900004C0CC0CDD1CEE1CFF1C0A94D2F7409131
:103DA00072075091730760917407709175074C21E9
:103DB0005D216E217F21452B462B472B09F460C0E6
:103DC000082F0E945616E5EAFAE0B701A6014095D1
:103DD00050956095709513E0DF0111978C918F3F9E
:103DE00039F184819581A681B7818C159D05AE0539
:103DF000BF0551F410861186128613869F0122504A
:103E00003109E9011882108384239523A623B7235F
:103E100084839583A683B78380859185A285B385A6
:103E200084239523A623B72380879187A287B3870E
:103E3000BB96DBE0EC37FD0779F68EEF9FEFAFEF37
:103E4000BFEF04C0880F991FAA1FBB1F0A95D2F7A6
:103E500040917207509173076091740770917507D4
:103E600084239523A623B723809372079093730727
:103E7000A0937407B09375070E94581681E001C0A3
:103E80008FEFDF91CF911F910F91FF90EF90DF9017
:103E9000CF9008950F931F9341E050E060E070E0F1
:103EA0008A019B0104C0000F111F221F331F8A9536
:103EB000D2F7D901C801E0918C0BF0918D0B4585AB
:103EC0005685678570890423152326233723012B04
:103ED000022B032BD1F080959095A095B0954823A7
:103EE00059236A237B23458756876787708B4189CF
:103EF00052896389748984239523A623B723818BF0
:103F0000928BA38BB48B81E001C08FEF1F910F9137
:103F10000895282F4091720750917307609174079C
:103F200070917507082E04C076956795579547954B
:103F30000A94D2F740FF1DC0E0918C0BF0918D0BDD
:103F400081E090E0A0E0B0E004C0880F991FAA1FB4
:103F5000BB1F2A95D2F74585568567857089842BC6
:103F6000952BA62BB72B85879687A787B08B81E0EB
:103F700008958FEF0895CF92DF92EF92FF92CF9343
:103F8000C12CD12C7601C39404C0CC0CDD1CEE1CDA
:103F9000FF1C8A95D2F78091720790917307A091C8
:103FA0007407B09175078C219D21AE21BF21892B0B
:103FB0008A2B8B2B11F481E044C00E945616E3EA51
:103FC000FAE0A5EABAE0C0E083E090819130B9F46C
:103FD00042855385648575854C215D216E217F2145
:103FE000452B462B472B59F08C9316861786108A43
:103FF000118A1082C286D386E486F586C1E090815C
:104000009230A1F442855385648575854C155D0514
:104010006E057F0559F48C9316861786108A118ACF
:1040200010821286138614861586C1E0BB969B9675
:104030009BE0EA37F90749F60E945816C11105C0FE
:1040400082E00E944A1B8FEF01C081E0CF91FF9078
:10405000EF90DF90CF9008950F931F93E0918C0B1A
:10406000F0918D0B0585168527853089062317234A
:1040700028233923011511052105310511F1DC0132
:10408000CB01818B928BA38BB48B21E02783009093
:104090007C0B04C0B695A795979587950A94D2F79F
:1040A00080FF03C00E94062404C080E090E00E94CC
:1040B000D723E0918C0BF0918D0B01891289238914
:1040C0003489C901B8011F910F91089590918B0B0C
:1040D00091111DC09091750B9F3F31F09091780B1D
:1040E0009F3F21F0E2E003C0E0E001C0E1E0F0E04A
:1040F0009F01220F331FE20FF31FEB58F44F82830F
:104100008083618381E080938B0BCF01089580E0F1
:1041100090E008952BE08537920729F088579B405F
:1041200021F481E0089580E008958FEF08950E94C2
:104130008A208F3F11F481E002C0823021F40E9476
:104140004A1B8FEF0895992787FD9095FC01EE0F8C
:10415000FF1F8E0F9F1FFC01EB58F44F82810895C3
:10416000EF92FF920F931F93CF93DF931F92CDB7E0
:10417000DEB70E948A208F3F11F481E002C08230B6
:1041800021F40E944A1B8FEF41C089830E9456167A
:104190008981E82EFF24E7FCF0948701000F111FAE
:1041A000F801EE0DFF1DEB58F44F9281911116C0EE
:1041B000E0918C0BF0918D0B9781926097839927FA
:1041C00087FD9095A92FB92F818B928BA38BB48BF0
:1041D0000E94581680E090E00E94D7230E0D1F1D0C
:1041E000D801AB58B44F12968C9112978150129609
:1041F0008C931297E0918C0BF0918D0B11968C9112
:10420000838781E084830E94581681E00F90DF91BC
:10421000CF911F910F91FF90EF9008950F931F93EF
:10422000CF93DF931F92CDB7DEB70E948A208F3FD6
:1042300011F481E002C0823021F40E944A1B8FEF0A
:1042400044C0482F552747FD50959A01220F331F30
:10425000240F351F89010B58144FF80122819081DA
:10426000291794F589830E945616F80192819F5F61
:104270009283E0918C0BF0918D0B1482E3EAFAE0CB
:104280008981992787FD9095A92FB92F23E0308147
:10429000323099F4428553856485758548175907EE
:1042A0006A077B0751F4228316861786108A118AC3
:1042B00010821286138614861586BB963BE0EA3779
:1042C000F30729F70E94581681E00F90DF91CF91F4
:1042D0001F910F9108950E948A208F3F11F481E071
:1042E00002C0823021F40E944A1B8FEF0895992763
:1042F00087FD9095FC01EE0FFF1F8E0F9F1FFC01A5
:10430000EB58F44F8FEF80838283818380918B0BF6
:10431000815080938B0B81E00895E091810BF091A7
:10432000820B80810895E091810BF091820B309790
:1043300021F00380F481E02DFACF0895AF92BF926F
:10434000CF92DF92EF92FF920F931F93CF93DF9361
:10435000E0919A0AF0919B0A309709F494C0009179
:10436000810B1091820B0115110509F44CC0D80185
:104370004BE2582F5403900111242456354F7901F4
:104380009AE0E90EF11C6901C4E0CC0ED11C590180
:10439000DBE0AD0EB11C2C9130E0429FB001439F99
:1043A000700D11246456754FEB019C81992329F0FF
:1043B0005B85E7019881591740F1E60198819923BF
:1043C00069F0429FB001439F700D11246456754FF0
:1043D000EB015A85E50198815917B8F0429FB00169
:1043E000439F700D11249B012456354FE9012A8506
:1043F000E7019881291748F013960D90BC91A02DE4
:10440000109749F602C0A0E0B0E08083C381D48158
:10441000D0939B0AC0939A0AA017B107B1F41097E2
:1044200049F0B483A383128211821296FC93EE9317
:10443000119706C01482138212821182FA83E983D3
:10444000F093820BE093810B1EC0AC17BD0779F08F
:1044500011968D919C91129792838183B483A3834B
:104460001196CD91DC911297FC83EB8308C01482E6
:10447000138211968D919C9112979283818312964B
:10448000FC93EE931197DF91CF911F910F91FF90C5
:10449000EF90DF90CF90BF90AF900895CF93DF93D0
:1044A000E091810BF091820B309709F444C0992779
:1044B00087FD9095208130E02817390781F4A3818A
:1044C000B481B093820BA093810B12961C921E9222
:1044D000119718C00380F481E02D309761F120819D
:1044E00030E028173907B1F7C181D28183819481E7
:1044F0009C838B83A381B481109721F01296DC9367
:10450000CE931197A0919A0AB0919B0A109739F413
:10451000F0939B0AE0939A0A148213820AC0B48330
:10452000A3831296FC93EE931197F0939B0AE0936A
:104530009A0A12821182DF91CF910895EF92FF9231
:104540000F931F93CF93DF93EC014B815C816981C3
:104550007A818D819E810E94FF2F2F81222371F00D
:104560004B815C81E12CF12C00E010E020E030E098
:10457000BC01CE010E944B171F820CC0E8812BE2C8
:10458000E202F0011124E456F54F21852330B9F4FD
:1045900091838083E8818BE2E802F0011124E456E4
:1045A000F54F85899689A789B08D892B8A2B8B2B0E
:1045B00041F482E0818788810E949E2102C08FEFB2
:1045C00001C081E0DF91CF911F910F91FF90EF909B
:1045D00008951F93CF93DF93CDB7DEB728970FB61B
:1045E000F894DEBF0FBECDBF29833A834B835C8333
:1045F0006D837E838F8398870E9456160E94292D93
:10460000182FCE0101960E94FB266330710598F0A9
:10461000E0918C0BF0918D0B212F30E0620F731F16
:10462000CB01A0E0B0E0858B968BA78BB08F0E946A
:10463000581681E001C08FEF28960FB6F894DEBFC0
:104640000FBECDBFDF91CF911F9108950E94D22F51
:10465000E0918C0BF0918D0B85818111F7CF08953E
:10466000CF930E94391E0E945616E0918C0BF09158
:104670008D0B81E090E092A781A785830E94292D70
:10468000C82F883F80F40E94C32C2C2F30E02F5F6E
:104690003F4F90E02817390734F482E08C0F809365
:1046A00033090E94C72C0E9458160E94262381E0DD
:1046B000CF910895E0918C0BF0918D0B80850E9435
:1046C0004E22E0918C0BF0918D0B84E081870E944B
:1046D000302381E00895CF93DF93EC010E94391ECF
:1046E000209711F4C1E0D0E00E945616E0918C0BA7
:1046F000F0918D0B81E08583D2A7C1A70E94292D5F
:10470000C82F883F80F40E94C32C2C2F30E02F5FED
:104710003F4F90E02817390734F482E08C0F8093E4
:1047200033090E94C72C0E9458160E94262381E05C
:10473000DF91CF910895EF92FF920F931F93CF9344
:104740008C010E945616E0918C0BF0918D0B81E04C
:1047500085830E94292DC82FE0918C0BF0918D0B41
:10476000E82EF12CC701800F911FA0E0B0E0858BEF
:10477000968BA78BB08FC83F78F40E94C32C9FEF15
:10478000E91AF90A90E0E816F90634F482E08C0F91
:10479000809333090E94C72C0E9458160E9426233A
:1047A00081E0CF911F910F91FF90EF900895CF93EB
:1047B000DF93EC010E945616E0918C0BF0918D0B6B
:1047C00021E02583CE01A0E0B0E0858B968BA78BFE
:1047D000B08F0E94292DC82F883F80F40E94C32CDF
:1047E0002C2F30E02F5F3F4F90E02817390734F42B
:1047F00082E08C0F809333090E94C72C0E945816C8
:104800000E94262381E0DF91CF910895CF930E94EB
:104810005616E0918C0BF0918D0B81E08583868399
:104820000E94292DC82F883F80F40E94C32C2C2F72
:1048300030E02F5F3F4F90E02817390734F482E0D3
:104840008C0F809333090E94C72C0E9458160E9437
:10485000262381E0CF9108951F93CF93DF93CDB7A7
:10486000DEB728970FB6F894DEBF0FBECDBF298301
:104870003A834B835C836D837E838F8398870E940A
:10488000391E0E945616E0918C0BF0918D0B81E041
:10489000858381E090E092A781A70E94292D182F9F
:1048A000CE0101960E94FB26E0918C0BF0918D0BBE
:1048B000DC01CB01810F911DA11DB11D858B968B54
:1048C000A78BB08F183F80F40E94C32C212F30E0BB
:1048D0002F5F3F4F90E02817390734F482E0810FB3
:1048E000809333090E94C72C0E9458160E942623E9
:1048F00081E028960FB6F894DEBF0FBECDBFDF91E2
:10490000CF911F9108958F929F92AF92BF92CF92B5
:10491000DF92EF92FF920F931F93CF93DF93CDB768
:10492000DEB760970FB6F894DEBF0FBECDBF298704
:104930003A874B875C876D877E878F87988BCE0100
:1049400001960E94DF2489809A80AB80BC80CD8054
:10495000DE80EF80F88409851A852B853C854D859E
:104960005E856F857889CE0109960E943C258F3F30
:1049700061F029853A854B855C856D857E858F85BF
:1049800098890E942C2481E001C08FEF60960FB6B9
:10499000F894DEBF0FBECDBFDF91CF911F910F9175
:1049A000FF90EF90DF90CF90BF90AF909F908F904F
:1049B0000895E0918C0BF0918D0B808508950F93F5
:1049C0001F93CF93DF93EC011C821D821E821F82F6
:1049D0008091830B9091840BA091850BB091860BF5
:1049E00088839983AA83BB838091870B9091880BDE
:1049F000A091890BB0918A0B8C839D83AE83BF837A
:104A00000E94292DA82FB0E023EB36EE4EE050E0B7
:104A10000E941B320C811D812E813F81DC01CB0164
:104A2000800F911FA21FB31F8C839D83AE83BF8312
:104A30008C819D81AE81BF8181152AEC92072AE984
:104A4000A2072BE3B20798F09A5CAA49BB438C8378
:104A50009D83AE83BF8388819981AA81BB810196A2
:104A6000A11DB11D88839983AA83BB83E1CFDF9108
:104A7000CF911F910F9108958F929F92AF92BF9205
:104A8000CF92DF92EF92FF920F931F93CF93DF931A
:104A9000CDB7DEB760970FB6F894DEBF0FBECDBFBF
:104AA000FC0109831A832B833C834D835E836F83D0
:104AB000788789869A86AB86BC86CD86DE86EF8629
:104AC000F88A09811A812B813C814D815E816F8139
:104AD0007885C984DA84EB84FC848D859E85AF85D6
:104AE000B8890C151D052E053F05F0F1C016D1063D
:104AF000E206F30691F4481759076A077B07A0F10D
:104B0000481B590B6A0B7B0B448355836683778361
:104B1000108211821282138225C0481759076A0732
:104B20007B0780F401501109210931090C191D0975
:104B30002E093F0900831183228333835653654630
:104B4000744C08C00C191D092E093F0900831183FC
:104B500022833383481B590B6A0B7B0B4483558399
:104B60006683778381E001C08FEF60960FB6F8947B
:104B7000DEBF0FBECDBFDF91CF911F910F91FF9090
:104B8000EF90DF90CF90BF90AF909F908F9008955F
:104B9000FC01448155816681778141158AEC580773
:104BA0008AE968078BE3780798F05A5C6A497B4387
:104BB000448355836683778380819181A281B38109
:104BC0000196A11DB11D80839183A283B383E1CFA0
:104BD00008958F929F92AF92BF92CF92DF92EF9201
:104BE000FF920F931F93CF93DF93CDB7DEB76097FC
:104BF0000FB6F894DEBF0FBECDBF09831A832B8397
:104C00003C834D835E836F83788789869A86AB86E3
:104C1000BC86CD86DE86EF86F88A09851A852B85C7
:104C20003C8549815A816B817C81400F511F621FF5
:104C3000731FFC0140835183628373830D851E853E
:104C40002F8538894D815E816F817885400F511F96
:104C5000621F731F44835583668377830E94C82530
:104C600081E060960FB6F894DEBF0FBECDBFDF9136
:104C7000CF911F910F91FF90EF90DF90CF90BF9059
:104C8000AF909F908F900895E3E8FBE0608371837D
:104C900082839383248335834683578308952F9299
:104CA0003F924F925F926F927F928F929F92AF92BC
:104CB000BF92CF92DF92EF92FF920F931F93FC016E
:104CC000C080D180E280F380C114D104E104F104FA
:104CD000E1F184819581A681B78122E4C216D104D5
:104CE000E104F104F0F51C012D01612C712C43014C
:104CF000E0E08E2F90E0A0E0B0E08C159D05AE05C1
:104D0000BF0588F49101A201B301C40136534546A1
:104D1000544C6F4F7F4F8F4F9F4F19012A013B011A
:104D20004C01EF5FE6CF83EBA82E96EEB92E2EE076
:104D3000C22ED12CE12CF12C00E010E09101A20157
:104D4000B301C4010E946E320AC0648175818681FC
:104D5000978123EB36EE4EE050E00E944A32C901C3
:104D600002C080E090E01F910F91FF90EF90DF90E4
:104D7000CF90BF90AF909F908F907F906F905F90FB
:104D80004F903F902F900895CF92DF92EF92FF9235
:104D9000CF93DF93CDB7DEB728970FB6F894DEBF79
:104DA0000FBECDBF6B017C012AE0F694E794D79447
:104DB000C7942A95D1F7C982DA82EB82FC829B01E3
:104DC000AC0133704427552763EB76EE8EE090E01C
:104DD0000E9426322C2D3A814B815C8128960FB699
:104DE000F894DEBF0FBECDBFDF91CF91FF90EF9063
:104DF000DF90CF9008952F923F924F925F926F92E3
:104E00007F928F929F92AF92BF92CF92DF92EF925A
:104E1000FF920F931F93FC01C080D180E280F3804A
:104E2000C114D104E104F104B9F184819581A68112
:104E3000B7811C012D01612C712C4301E0E08E2F04
:104E400090E0A0E0B0E08C159D05AE05BF0588F4AC
:104E50009101A201B301C40136534546544C6F4F32
:104E60007F4F8F4F9F4F19012A013B014C01EF5F8C
:104E7000E6CF83EBA82E96EEB92E2EE0C22ED12CD3
:104E8000E12CF12C00E010E09101A201B301C4017A
:104E90000E946E32CA010BC0648175818681978140
:104EA00023EB36EE4EE050E00E944A32CA01B901CF
:104EB0001F910F91FF90EF90DF90CF90BF90AF9038
:104EC0009F908F907F906F905F904F903F902F902A
:104ED0000895C2E0D1E00E94391E0E94C32C8430A4
:104EE00028F4D093800B0E94D22F08C08AE090E073
:104EF0000E94DB2BC093800B0E94C62F8091DF099C
:104F0000853519F088E00E94B21C8091FE408535FD
:104F100011F388E00E94B21CDECF2F923F924F9295
:104F20005F926F927F928F929F92AF92BF92CF9239
:104F3000DF92EF92FF920F931F93CF93DF9300D0F6
:104F40001F92CDB7DEB70E9458160E94F72B0E9421
:104F5000152C0E941D2C1C018AEF0E94C72C0E9458
:104F6000C32F0E94912AB0903309AB2DB0E023EB00
:104F700036EE4EE050E00E941B320091870B1091FC
:104F8000880B2091890B30918A0B6B017C01C00E3C
:104F9000D11EE21EF31EC701B60123EB36EE4EE032
:104FA00050E00E944A32C61AD70AE80AF90AC092AB
:104FB000870BD092880BE092890BF0928A0BE091DC
:104FC0008C0BF0918D0B8085811130C08091800B0E
:104FD000823019F48B2D0E944018E0918C0BF091D7
:104FE0008D0B6091330980850E94A818E0918C0B8D
:104FF000F0918D0B60E080850E94E5188091870B11
:105000009091880BA091890BB0918A0B0091830B32
:105010001091840B2091850B3091860B43EB842EED
:1050200046EE942E4EE0A42EB12C07C095816B2D38
:105030009111E2CF0E94A818E1CF680179014FEFEA
:10504000C41AD40AE40AF40A81155AEC95075AE9FD
:10505000A5075BE3B507C8F02C013D012AEC521A05
:105060002AE9620A2BE3720AC301B201A501940185
:105070000E944A32A3019201261B370B480B590BA1
:10508000DA01C90197018601D8CF8093870B9093ED
:10509000880BA093890BB0938A0B0093830B10931A
:1050A000840B2093850B3093860BE0918C0BF09151
:1050B0008D0B8581882339F18185843021F18781A9
:1050C000823029F0882341F08681811102C085E079
:1050D00001C083E0818714C083E081871782168234
:1050E00085899689A789B08D892B8A2B8B2B41F4D2
:1050F000818D928DA38DB48D858B968BA78BB08F70
:1051000080850E944E22E0918C0BF0918D0B85A141
:1051100096A1A7A1B0A5892B8A2B8B2B09F44EC091
:105120008085882309F44AC09185943009F446C0EB
:10513000458D568D678D70A10091330910E020E0F8
:1051400030E0401751076207730798F40E94751802
:10515000E0918C0BF0918D0B608582E00E94C11C68
:10516000E0918C0BF0918D0B158E168E178E10A280
:1051700008C0401B510B620B730B458F568F678F16
:1051800070A3E0918C0BF0918D0B1085858D968D21
:10519000A78DB0A1892B8A2B8B2B81F4812F0E94A4
:1051A0007518612F83E00E94C11CE0918C0BF09177
:1051B0008D0B83E08187812F0E944E2285EA9AE041
:1051C0009B838A8300E61AEE19822AEFC22ED12C25
:1051D000E12CF12C812C912C54018394EA81FB81E8
:1051E000319780818F3F09F404C1EA81FB813497B4
:1051F0001082882309F467C0EA81FB8180818430B2
:1052000009F461C0448455846684778460913309CD
:1052100070E080E090E0461657066806790648F090
:10522000461A570A680A790A44865586668677863A
:1052300006C0EA81FB811486158616861786EA81E8
:10524000FB81408851886288738846165706680635
:10525000790648F0461A570A680A790A408A518A3C
:10526000628A738A1EC0EA81FB81208D318D428D56
:10527000538D621773078407950758F429013A0183
:10528000461A570A680A790A408A518A628A738ADA
:1052900008C00E944A32EA81FB81608B718B828B4D
:1052A000938BEA81FB8180899189A289B389892BBB
:1052B0008A2B8B2B41F4808D918DA28DB38D808BA9
:1052C000918BA28BB38BEA81FB818081833009F0C3
:1052D00090C084859585A685B785892B8A2B8B2BD5
:1052E00009F074C0DF0112978C919F01235031099E
:1052F0008823A9F0F9018081882389F0B501A401F0
:1053000000907C0B04C0440F551F661F771F0A9442
:10531000D2F7EA81FB8140875187628773871C92AD
:10532000F9011082EA81FB81A0A1B1A1A130B105F0
:1053300019F5848D958DA68DB78D848B958BA68B55
:10534000B78B92E0492E408280899189A289B389E6
:1053500084879587A687B787808D918DA28DB38D21
:10536000892B8A2B8B2B21F4C486D586E686F7867B
:1053700089810E949E212AC0EA81FB81448D558D3E
:10538000668D778D448B558B668B778B408C518CDB
:10539000628C738C1197A30192010E941B32648767
:1053A000758786879787608B718B828B938B452857
:1053B0004628472821F4C486D586E686F786442405
:1053C0004394512CEA81FB8151A240A2EA81FB81E6
:1053D00084859585A685B7850097A105B10549F017
:1053E000A80160E070E084179507A607B70708F4E6
:1053F0008C01F981FF5FF9832A813B81255D3F4F55
:105400003B832A83F53009F0E9CEE0918C0BF091D3
:105410008D0B80850E9487180E948D21F82E3BE21B
:105420008302F0011124E456F54F228520938E0B60
:10543000F0937E0BE0937D0B8823F9F085A196A174
:10544000A7A1B0A5892B8A2B8B2B99F0858D968DE2
:10545000A78DB0A18A3F9105A105B10550F4A8011F
:1054600060E070E084179507A607B707E8F48C01A1
:105470001BC00B3F1105C0F012C004301105A0F095
:10548000C80103978A3F910538F48C018230910559
:1054900058F402E010E008C00D3F110519F00AEFC2
:1054A00010E002C007EF10E020937F0BF0938D0B0C
:1054B000E0938C0B009333090E94292D282F30E0B4
:1054C0002F5F3F4F2017310740F00E94292D082FF2
:1054D00010E00E5F1F4F00933309F1101092800B04
:1054E000802F0E94C72C6CED75E0C1010E942F2C0B
:1054F0000E944C300F900F900F90DF91CF911F9131
:105500000F91FF90EF90DF90CF90BF90AF909F9062
:105510008F907F906F905F904F903F902F900C9462
:1055200057303F924F925F926F927F928F929F92ED
:10553000AF92BF92CF92DF92EF92FF920F931F93A1
:10554000CF93DF93CDB7DEB760970FB6F894DEBF89
:105550000FBECDBFCE0109960E94DF248FE8482EF2
:105560008BE0582E612C712C93E1392ED2011296CA
:105570008C91813051F5369CF001379CF00D11244F
:10558000E656F44F89849A84AB84BC84CD84DE844F
:10559000EF84F88800811181228133814481558113
:1055A00066817781CE0101960E943C258F3F69F488
:1055B000662D85E10E94C11CD201ED91FC913097CE
:1055C00019F40E945A1601C00995BFEF6B1A7B0AA5
:1055D000E3E14E0E511CF3E06F16710439F660964C
:1055E0000FB6F894DEBF0FBECDBFDF91CF911F91F4
:1055F0000F91FF90EF90DF90CF90BF90AF909F9072
:105600008F907F906F905F904F903F900895EFE85C
:10561000FBE01282158A10A60895CF93DF938330A2
:10562000E0F493E1899FF0011124E157F44F518395
:105630004083EB0188819981AA81BB818383948314
:10564000A583B6838C819D81AE81BF81878390873E
:10565000A187B287128281E001C08FEFDF91CF91E5
:105660000895CF92DF92EF92FF920F931F93CF9303
:10567000DF93CDB7DEB728970FB6F894DEBF0FBE25
:10568000CDBF8330A8F5182FCE0101960E94DF24EC
:1056900023E1129FC00111248C010157144FF8011E
:1056A000C380D480E580F68049815A816B817C81FA
:1056B0004C0D5D1D6E1D7F1D438754876587768762
:1056C000C780D084E184F2844D815E816F817885CA
:1056D0004C0D5D1D6E1D7F1D4787508B618B728B3E
:1056E0008656944F0E94C82581E0F801828301C04C
:1056F0008FEF28960FB6F894DEBF0FBECDBFDF91B7
:10570000CF911F910F91FF90EF90DF90CF90089570
:105710001F93CF93DF93CDB7DEB728970FB6F894DA
:10572000DEBF0FBECDBF833070F5182FCE010196BE
:105730000E94DF2483E1189FF0011124E157F44F08
:10574000438154816581768189819A81AB81BC8155
:10575000840F951FA61FB71F83879487A587B687D9
:1057600047815085618572858D819E81AF81B88525
:10577000840F951FA61FB71F8787908BA18BB28BB5
:1057800081E0828301C08FEF28960FB6F894DEBFC8
:105790000FBECDBFDF91CF911F910895833048F4A4
:1057A00093E1899FF0011124E157F44F128281E0C7
:1057B00008958FEF08950000000000000000000031
:1057C0000000000000000000000000000000019741
:1057D00091F7089510922101089589E080932101A5
:1057E0008DE89CE3909329018093280108951092FD
:1057F0002501109224010895CF93DF9300D0CDB7F7
:10580000DEB780912401909125019A838983898153
:105810009A810F900F90DF91CF910895109281009F
:10582000089581E080938100089583B5816083BDF0
:1058300010928500109284000895CF93DF9300D0DA
:10584000CDB7DEB780918400909185009A838983DB
:1058500089819A810F900F90DF91CF910895CF9217
:10586000DF92EF92FF92CF93DF93EC01CC0FDD1F1D
:10587000C9378FEFD80710F0C0E0D0E06B01E12C02
:10588000F12CCC0EDD1EE11CF11C81E0C816D10408
:10589000E806F10440F081E0E81AF1080E941D2CAE
:1058A000C817D907D8F30E941D2C8C159D05D8F375
:1058B000DF91CF91FF90EF90DF90CF9008951092FD
:1058C000B100E0E7F0E080818D7F808380818E7F72
:1058D000808308958093B2000895E0E7F0E080812E
:1058E0008360808383E08093B100089583B58260F4
:1058F00083BD1092B2001092BF0610923309089532
:10590000CF93DF938EEF8093330980E28093B600CC
:10591000809133098093B30083E087BB92E090933A
:10592000B0008093B10093B5926093BD87BB84BDF6
:1059300083B5826083BD1092800081E080938100F6
:10594000109285001092840083B5826083BD83B578
:10595000816083BD10922001C4E2D1E019821882D7
:1059600083B5826083BD83B5816083BD0E94762C40
:10597000198218820E946D2C0E94ED2B1092BF0696
:10598000DF91CF9108958091B3008F5F089581508A
:105990008093B3000895811102C0109271008FEFBF
:1059A0000895811106C0109295001092940081E034
:1059B00008958FEF0895811105C080919400909112
:1059C0009500089580E090E00895811105C082E07F
:1059D0008093710081E008958FEF0895811135C0A3
:1059E000CB010197059710F4609330091092900055
:1059F00088E08093910050939900409398003093F1
:105A00001D0620931C0680913009813021F480917D
:105A10009100816011C0823021F4809191008260F8
:105A20000BC0833021F480919100836005C08430E5
:105A300031F48091910084608093910008C085309A
:105A400031F4809191008560F7CF8FEF089581E068
:105A500008958091B20008951F920F920FB60F9291
:105A6000112460E08AE00E94C11CFFCF0F920FB6A4
:105A70000F921F922F923F924F925F926F927F925E
:105A80008F929F92AF92BF92CF92DF92EF92FF924E
:105A90000F931F932F933F934F935F936F937F9336
:105AA0008F939F93AF93BF93CF93DF93EF93FF9326
:105AB000A0918C0BB0918D0B0DB60D920EB60D9280
:105AC0001F92A0919B08B0919C081E90BEBFADBFD5
:105AD00008951F920F920FB60F9211240BB60F92DA
