:100000000C94F7020C94A32E0C94D52E0C94072F6D
:100010000C9416030C9416030C9416030C941603FC
:100020000C9416030C94712E0C9416030C94160366
:100030000C9416030C94D02C0C9416030C94D02C16
:100040000C9416030C9416030C9416030C941603CC
:100050000C9416030C9416030C9416030C941603BC
:100060000C9416030C9416030C9416030C941603AC
:100070000C9416030C9416030C9416030C9416039C
:100080000C94032D0C9416030C9416030C94160375
:100090000C9416030C9416030C9416030C942F0561
:1000A0000C9416030C9416030C9416030C9416036C
:1000B0000C9416030C9416030C9416030C9416035C
:1000C0000C9416030C9416030C9416030C9416034C
:1000D0000C9416030C9416030C9416030C9416033C
:1000E0000C9416030C94E50F0C94D60F0C94A60FE9
:1000F0000C9496100C94970F0C94880F0C94760F18
:100100000C94670F0C9416030C9416030C941603AE
:100110000C9416030C9416030C9416030C941603FB
:100120001612231230123D124A125712641287120D
:100130009512A312B112BF12CD12DB12FE120013E0
:1001400002130413061308130A1329134C13701314
:100150009313B613D913FC133614431450145D14BF
:100160006A14771484149D14AA14B714C414D114F7
:10017000DE14EB14291C2F1C321C351C381C3B1CB4
:10018000411C3E1C441C471C4A1C531C561C591C39
:100190005C1C501C261C2C1C5F1C621C4D1C231C50
:1001A0004B1D4E1D591D5E1D651D6E1D711D761D5D
:1001B0007D1D861D4661696C656420746F207265C3
:1001C000676973746572207369676E616C0D0A00EC
:1001D00054444D41204552524F523A20637265615A
:1001E00074696E6720656E61626C65207369676E05
:1001F000616C206661696C65640D0A0054444D4170
:10020000204552524F523A206372656174696E679D
:10021000207478207369676E616C206661696C6513
:10022000640D0A0054444D41204552524F523A2029
:100230006372656174696E67207278207369676E96
:10024000616C206661696C65640D0A0054444D411F
:100250002054583A20576F6B65207570206F6E20C0
:1002600077726F6E67207369676E616C0D0A005458
:10027000444D412054583A204572726F7220636198
:100280006C6C696E67206576656E74207761697441
:100290000D0A000D0A4E616E6F2D524B2054617392
:1002A0006B20537461746973746963733A0D0A0047
:1002B0000D0A000D0A2020204F766572666C6F775C
:1002C000204572726F72205374617475733A200006
:1002D0000D0A2020204B65726E656C2056696F6C8C
:1002E0006174696F6E733A20000D0A2020205072ED
:1002F00065656D7074696F6E733A20000D0A202079
:1003000020537761702D696E733A20000D0A20200A
:100310002054696D65205B4D696E2C4C6173742CA3
:100320004D61785D3A20000D0A202020546F7461E1
:100330006C204350553A20000D0A20202049646C5F
:1003400065205461736B204465657020536C65654E
:10035000702054696D653A20000D0A202020546FEA
:1003600074616C2053797374656D20557074696D78
:10037000653A2000205461736B2049443A200055AF
:100380004E4B4F574E0045787465726E616C20522B
:10039000657365740042726F776E204F75742044E8
:1003A0006574656374004661696C656420746F20D0
:1003B0006372656174652053656D6170686F726505
:1003C000004661696C656420746F206372656174B6
:1003D00065205369676E616C004B65726E656C20B9
:1003E00066756E6374696F6E206E6F7420696D70D0
:1003F0006C656D656E74656400446576696365203F
:10040000447269766572204572726F72005761742A
:100410006368646F67205265737461727400535728
:10042000205761746368646F6720526573746172EA
:10043000740054696D6572204F766572666C6F77D3
:1004400000556E68616E646C656420496E746572F7
:100450007275707420566563746F72004C6F7720EC
:10046000566F6C74616765004578747261205461E1
:10047000736B20737461727465642C206973206ED1
:10048000726B5F6366672E68206F6B3F0049646C18
:1004900065206F72204B65726E656C2053746163CA
:1004A0006B204F766572666C6F7700556E6578705D
:1004B0006563746564205265737461727400447579
:1004C000706C696361746564205461736B20494486
:1004D000005363686564756C6572204D697373655C
:1004E000642057616B657570005461736B205265B1
:1004F00073657276652056696F6C6174656400522D
:10050000657365727665204572726F7220696E2020
:100510005363686564756C657200496E76616C69D9
:100520006420537461636B20506F696E7465720050
:100530005461736B20537461636B204F76657266F0
:100540006C6F7700537461636B20776173206E6FFB
:100550007420646566696E6564206173206C6172E5
:10056000676520656E6F75676821005461736B2045
:10057000706572696F6420746F6F206C617267655B
:100580002E20506572696F64206D757374206265EA
:10059000206C657373207468616E2036312073653A
:1005A000636F6E64732E00293A20002A4E524B204E
:1005B0004552524F5228004E524B205265626F6F87
:1005C000742E2E2E0D0A000D0A535441434B204425
:1005D000554D500D0A0045464765666700202B2D96
:1005E0002E30313233343536373839680000112433
:1005F0001FBECFEFD1E4DEBFCDBF13E0A0E0B2E07D
:10060000E0EDFAE600E00BBF02C007900D92A438BF
:10061000B107D9F71BE0A4E8B3E001C01D92A836EA
:10062000B107E1F70E941C300C9466350C94C62C7F
:1006300082E0F82E96EAE92E22E3D22E37EAC32E84
:1006400040EDB42E5DE1A52E61ED962E7CE3872E64
:10065000E3E07E2EFDE36F2EF09280088091EB06A2
:100660009091EC069C012F5F3F4F3093EC06209356
:10067000EB0680938108E0926A06D0926B0662E0F6
:100680008AE696E00E94E904C0926A0667E08AE67C
:1006900096E00E94E90467E08AE696E00E94180569
:1006A00082E090E0EC012196FC01E759F94F2081AE
:1006B000FC01E058F74F2083CE01C830D10591F7F7
:1006C000B0926A06A0926B0662E08AE696E00E940B
:1006D000E90490926A0667E08AE696E00E94E904DF
:1006E00067E08AE696E00E9418058E010F5F1F4FB3
:1006F000FE01ED59F94F8081C058D74F8883E8013A
:100700000E30110591F780926A0670926B0662E0D6
:100710008AE696E00E94E90460926A0667E08AE64B
:1007200096E00E94E90467E08AE696E00E941805D8
:10073000F801E35AF94F8081F801E058F74F8083C0
:100740000F5F1F4F0431110599F784E180936D0904
:10075000E0E8F8E0AAE7B6E088E0E439F80719F045
:1007600081918D93F9CF81E08093DB050E94232353
:1007700073CFCF93DF93CDB7DEB728970FB6F8943A
:10078000DEBF0FBECDBF0E94CC241F928F9388E79F
:1007900092E09F938F930E94283385E090E0A0E041
:1007A000B0E089839A83AB83BC831D821E821F8243
:1007B000188640E050E0BE016F5F7F4F80E090E020
:1007C0000E94A72A80E090E00E94222B0F900F90B9
:1007D0000F900F900E948508811122C00E94232350
:1007E000F9CF80E090E00E941C1520E040916D0957
:1007F0006AE776E089EC97E00E94500620E040919D
:100800006D096AE776E089EC97E00E94500620E0E7
:1008100040916D096AE776E089EC97E00E94500606
:1008200080E090E00E94CB2A80E090E00E943315A7
:100830008091DB058823A1F3D4CFEAE6F6E080EDD2
:10084000808386E181838BE1828363E0CF010C9416
:10085000E904EAE6F6E08CE3808382E08183128299
:1008600063E0CF010C94E9040F931F93CF93DF93C0
:10087000CAE6D6E016EA18830DE209831A8263E01D
:10088000CE010E94E904188388E3898380E88A8383
:1008900063E0CE010E94E904188381E389838FE03D
:1008A0008A8363E0CE010E94E9041883098388E00B
:1008B0008A8363E0CE01DF91CF911F910F910C9459
:1008C000E904CF92DF92EF92FF92CF9368E173E059
:1008D00080EF96E00E94772F40E850E06BED77E0E4
:1008E00080EF96E00E947B2FE0EFF6E0C1E0C0874A
:1008F000C783C187C287138614861586168680E44F
:1009000098E7ADE7B1E08787908BA18BB28B138A14
:10091000148A158A168A178A108E118E128EC12C8F
:10092000D12C7601C394C38ED48EE58EF68E178EAD
:1009300010A211A212A2CF010E94912269EB73E0D2
:100940008DE598E00E94772F40E850E06AEE75E070
:100950008DE598E00E947B2FEDE5F8E0C087C78326
:10096000C187C28713861486158616861786108A55
:10097000118A128A138A148A158A168A178A108E87
:10098000118E128EC38ED48EE58EF68E178E10A227
:1009900011A212A2CF010E949122CF91FF90EF905D
:1009A000DF90CF900C94370C8AE08093B8008FEFE3
:1009B0008093BB0084E08093BC0008958091BC00CC
:1009C000817008958091BC0080FDFCCF8091100261
:1009D00008952091BC0020FDFCCF60938603FC01AC
:1009E00020812093870320FF09C01092840388EFA1
:1009F0008093100285EA8093BC000895FC01319633
:100A000027E833E0D90111968A2F821B861768F7F1
:100A100081918C93F8CF8091BC0080FDFCCF109227
:100A2000840388EF8093100285EA8093BC000895C8
:100A30002091BC0020FDFCCF2091840320FD04C048
:100A4000809184038170089527E833E0FC01D90187
:100A50008A2F821B8617A0F78D918193F9CF1F9261
:100A60000F920FB60F9211240BB60F922F933F9354
:100A70008F939F93EF93FF938091B900883201F198
:100A800040F48031D9F08831D9F0883009F04AC07B
:100A900015C0803491F128F4883309F043C085EA09
:100AA00046C08035F1F08835E9F58091BB00E091D2
:100AB0008503F0E0E957FC4F80832DC01092850339
:100AC000E091850380918603E81728F581E08E0F79
:100AD00080938503F0E0E957FC4F80818093BB0051
:100AE00018C0E091850381E08E0F8093850380918B
:100AF000BB00F0E0E957FC4F80832091850330E094
:100B00008091860390E001972817390714F485EC4B
:100B10000EC085E80CC080918403816080938403BB
:100B200084E905C08091B9008093100284E080932D
:100B3000BC00FF91EF919F918F913F912F910F906A
:100B40000BBE0F900FBE0F901F9018958091BC03A5
:100B5000813099F00E94790D0E94730D809191036C
:100B60008F5F80939103833030F01092BC038091AB
:100B7000F1080E94D01F8FEF0895109291030E94F8
:100B80007D0E813091F56091E1056D306CF18091C1
:100B9000C703811107C01092BC038091F1080E9425
:100BA000D01F22C08091E3059091E4050E9453116B
:100BB0008091E3059091E4052091E105820F911D5C
:100BC00027FD9A95FC01319720812A3CA1F63197A7
:100BD00020812E3F81F6319720812E3B61F631979F
:100BE00080818F3EC1F2C7CF81E0089508950C94B3
:100BF000E21081E08093C703089581E08093C703EA
:100C00000895809194030895009731F09093930391
:100C10008093920381E008958FEF08959093CA0323
:100C20008093C90381E08093C80308958FEF0895EE
:100C300080E090E00895803220F40E94C10C81E0B1
:100C400008958FEF08958B3168F4682F8093BA036D
:100C500024E132E140E254E28EED95E00E94030D82
:100C600081E008958FEF08959093C2038093C103AC
:100C7000E0EAF3E0DC0120E432E44FE050E00E94DF
:100C8000BE316483758386839783108211821282BA
:100C9000138281E008959093C0038093BF03089569
:100CA000CF92DF92EF92FF92CF93DF9300D0CDB738
:100CB000DEB76C017B018091C303813009F48DC0E4
:100CC000442309F48AC06115710509F486C0C11472
:100CD000D10409F482C0211108C08091F2082A834E
:100CE00049830E949E1F49812A8181E08093C3032A
:100CF00081E494E09093170780931607F6018181B1
:100D000080934204808180934104858196819093F1
:100D10004404809343048091C60380934604109258
:100D20004504818592850196928781879093480436
:100D300080934704838180934A048281809349048D
:100D40003091C403F0E13F9FC0011124832B8093B5
:100D50004B045E2DF7018CE090E03E2F351B3417DD
:100D600050F43191A0911607B0911707A80FB91F41
:100D70003C930196F2CF445F4093150721112BC09D
:100D800081E090E0A0E0B0E0BC01CD010090F2086D
:100D900004C0660F771F881F991F0A94D2F70E941C
:100DA00041206B017C01611571058105910521F4DC
:100DB0008FE692E00E94E2110090F20804C0F694DF
:100DC000E794D794C7940A94D2F7C0FC04C08CE48B
:100DD00092E00E94E21181E001C08FEF0F900F902E
:100DE000DF91CF91FF90EF90DF90CF9008958F9299
:100DF0009F92AF92BF92CF92DF92EF92FF920F93AA
:100E00001F93CF93DF931F92CDB7DEB74C018B01B9
:100E10005A018091BC0321111CC08130F1F48091F2
:100E2000F10829830E949E1F81E090E0A0E0B0E0DD
:100E3000BC01CD010090F10804C0660F771F881F28
:100E4000991F0A94D2F70E9441206B017C012981ED
:100E500004C0813011F48FEF7CC08091E1058C30AB
:100E6000D4F38C50D5018C9380E0F50190818917E3
:100E700078F4482F50E0E091E305F091E405E40FA9
:100E8000F51F9485F801E40FF51F90838F5FEDCF78
:100E90008091E605992787FD9095D4011E969C9335
:100EA0008E931D978091E7051F968C931F978091D5
:100EB000E80550968C9350978091E90551968C9354
:100EC0005197E091E305F091E405858190E0982F3A
:100ED00088273481832B18969C938E931797838150
:100EE00090E0982F88273281832B16969C938E93BF
:100EF0001597818190E0982F88273081832B119658
:100F00009C938E93878190E0982F88273681832B3E
:100F10001A969C938E931997818590E0982F882735
:100F20003085832B13969C938E93129782851C9603
:100F30008C9321110BC00090F10804C0F694E79443
:100F4000D794C7940A94D2F7C0FE85CF81E08093EE
:100F5000BC030F90DF91CF911F910F91FF90EF9005
:100F6000DF90CF90BF90AF909F908F9008950097A3
:100F700051F09093E4058093E3056093E20581E0EE
:100F80008093BC0308958FEF08958093C403089560
:100F90000F931F93CF93DF93162FD42F052F9FEF1F
:100FA0009093970310929603109295038093C50334
:100FB0001092C80383E08093C4031092940380E0EE
:100FC00094E09093C0038093BF0380E896E9A8E97A
:100FD000B0E08093A4039093A503A093A603B093DD
:100FE000A7031092A0031092A1031092A2031092E3
:100FF000A3030E948E1EC82F8093F1088F3F19F41F
:1010000084E292E009C00E948E1EC82F8093F208ED
:101010008F3F69F48CEF91E00E94E211E091000BA8
:10102000F091010B60858EE00E94D61C2DC00E94BD
:101030008E1EC82F80936E098F3F19F480ED91E0CA
:10104000EBCF81ED93E09093E4058093E30580E797
:101050008093E205C1E0C093BC031092C3032D2F1F
:10106000302F4FEF5FEF612F8EED95E00E94030D63
:101070001093BA03D093C60383ED9FEF0E94F40F41
:10108000C093BB03C093B9038C2FDF91CF911F9105
:101090000F9108958091F1080E949E1F8091F108A0
:1010A00008958091F2080E949E1F8091F208089591
:1010B0002091BC03213039F4FC011082FB01108225
:1010C00080E090E008952091E105FC01208380916B
:1010D000E605FB0180838091E3059091E405089586
:1010E00081E08093BC0308951092B9030C94820CA4
:1010F00081E08093B9030E94A80C80916E090C9442
:10110000D01F81E08093D40508958091BB0308959A
:10111000CF93DF938091BC03813011F08FEF40C0FB
:10112000D4E60E947D0EC82F813089F56091E105DB
:101130006D30ACF18091C703811107C01092BC03E0
:101140008091F1080E94D01F2AC08091E305909100
:10115000E4050E9453118091E3059091E4052091EC
:10116000E105820F911D27FD9A95FC0131972081A1
:101170002A3CA1F6319720812E3F81F631972081BC
:101180002E3B61F6319780818F3EC1F2C7CF84E656
:1011900090E00E94752BD15021F68C2F01C081E088
:1011A000DF91CF9108950F931F93CF939091C70331
:1011B000992309F443C02091150784E0820F382F4A
:1011C0003F7031F087FF02C083E1820F807F805F34
:1011D0008093150780911507E0911607F091170786
:1011E000E80FF11D87FDFA9531978AEC8083809195
:1011F0001507E0911607F0911707E80FF11D87FD1D
:10120000FA9532978EEF808380911507E09116074B
:10121000F0911707E80FF11D87FDFA9533978EEBD4
:10122000808380911507E0911607F0911707E80F6A
:10123000F11D87FDFA9534978FEE80836091150735
:10124000062F112707FD1095E0911607F09117075B
:10125000C0E040E0242F30E0201731073CF42E0F8F
:101260003F1FD9018C91C80F4F5FF4CF992319F01C
:10127000CF010E940411E0911507FF27E7FDF095CB
:10128000E657FE4FC08383E197E00E947F0D1092E6
:10129000C3038091F2080E94D01F81E0CF911F917B
:1012A0000F910895CF93DF9300D0CDB7DEB70E94A2
:1012B00023238091BB038823D1F380916E090E9480
:1012C0009E1F8A838F3F21F484EB91E00E94E211FC
:1012D000612C712C22242A94322C8091C5038130F8
:1012E00009F0E3C0809394036114710409F088C08D
:1012F0008091C303811116C021E434E030931707B5
:10130000209316073FEF3093430430934404109228
:1013100045041092460410924704109248048CE051
:1013200080931507E0911607F09117079091BF037E
:101330008091C003908781871082E0911607F09119
:1013400017071182E0911607F09117072091C40347
:1013500030E1239FC0011124822B82878091C10339
:10136000838788E993E00E94D22430921407209268
:10137000130710921907109218070E94D3080E94B1
:10138000730D8091D405813009F045C0412C512C5A
:10139000C20165E070E00E94D931892B21F483E01D
:1013A00090E00E940515E0911607F09117078FEF66
:1013B0008083E0911607F09117078183E09116076B
:1013C000F09117071482E0911607F0911707158224
:1013D0009CE0909315070E94D3088AE090E00E9459
:1013E000CA23EFEF4E1A5E0AF8EE4F16F3E05F06DF
:1013F00079F683E090E00E941C151092D4050BC092
:1014000086EA95E00E94FE0C2A81213021F4709238
:10141000BE036092BD033FEF631A730A8091BF035E
:101420009091C0038615970528F48AE090E00E9409
:10143000CA23ECC18090A0039090A103A090A203C6
:10144000B090A303C090A403D090A503E090A6039E
:10145000F090A703009198031091990320919A03AB
:1014600030919B0340919C0350919D0360919E039A
:1014700070919F0388E993E00E94DC2588E993E05E
:101480000E94BB25209198033091990340919A03C3
:1014900050919B0360919C0370919D0380919E03EA
:1014A00090919F030E94762418CF672809F057C0B7
:1014B0000E94A80C0E94730D612C712C0E94880858
:1014C0008A8388E993E00E94D2248A81813009F5D9
:1014D000E091E305F091E405818190E0982F882761
:1014E0002081822B258130E0322F22274481242B3A
:1014F000232B21F48F3F2FEF920721F0892B09F442
:1015000088C102C0612C712C31E03093BC038FEF95
:101510008A8394E669167104C0F010929403E091F6
:101520009203F0919303309729F0C30184569109F7
:1015300009958983E981E13019F4612C712C05C08A
:10154000F0E36F16F5E77F0618F42FEF621A720AC0
:1015500031E03093BC038A81813009F0AFCFE09154
:10156000E305F091E4059285892F82958F709F7035
:10157000891B813118F48093B80302C01092B8031C
:101580001092B0031092B1031092B2031092B30301
:101590001092B4031092B5031092B6031092B703E1
:1015A0001092A8031092A9031092AA031092AB0301
:1015B000A091E105BB27A7FDB09520E03DE70E9483
:1015C000B731DC01CB01935BA74FBF4F8093AC03D6
:1015D0009093AD03A093AE03B093AF03612C712C35
:1015E0008091B80390E06816790640F58090A803D2
:1015F0009090A903A090AA03B090AB03C090AC0355
:10160000D090AD03E090AE03F090AF030091B00333
:101610001091B1032091B2033091B3034091B40310
:101620005091B5036091B6037091B70380EB93E0DE
:101630000E94DC259FEF691A790AD2CFE1E0E0939E
:1016400094030E94790D0E94820C8091C9039091AD
:10165000CA036090BF037090C0038615970508F415
:101660003C01412C512C4614570441F18090A003B9
:101670009090A103A090A203B090A303C090A403F4
:10168000D090A503E090A603F090A70300919803E3
:101690001091990320919A0330919B0340919C03F0
:1016A00050919D0360919E0370919F0388E993E0A0
:1016B0000E94DC25FFEF4F1A5F0AD5CF8090B00360
:1016C0009090B103A090B203B090B303C090B40364
:1016D000D090B503E090B603F090B7030091980363
:1016E0001091990320919A0330919B0340919C03A0
:1016F00050919D0360919E0370919F0388E993E050
:101700000E942F2588E993E00E94BB252091980331
:101710003091990340919A0350919B0360919C03EF
:1017200070919D0380919E0390919F030E94762467
:101730008091C3038130B1F4E0911607F09117074F
:101740006082E0911607F0911707718230921407BA
:101750002092130710921907109218070E94A80CE4
:101760000E94D3080E94790D0E94820C412C512CBA
:101770008091BF039091C0038619970948165906B6
:1017800040F58090A0039090A103A090A203B09098
:10179000A303C090A403D090A503E090A603F0900B
:1017A000A703009198031091990320919A03309117
:1017B0009B0340919C0350919D0360919E03709107
:1017C0009F0388E993E00E94DC252FEF421A520A1A
:1017D000CFCF88E993E00E94BB25209198033091F8
:1017E000990340919A0350919B0360919C037091DF
:1017F0009D0380919E0390919F030E947624809187
:10180000B903811103C00E942323F9CF612C712CED
:1018100064CD828582958F708093C403818590E02A
:10182000982F88272085822B9093C0038093BF0335
:10183000A3858A2F90E09093C2038093C103DC01BB
:1018400020E432E44FE050E00E94BE316093A403F4
:101850007093A5038093A6039093A7031092A0030F
:101860001092A1031092A2031092A30352CE62E53C
:1018700079E081EB95E00E94772F40E051E061EB49
:1018800074E081EB95E00E947B2FE1EBF5E084E1D1
:10189000808781E087838187828781E090E0A0E074
:1018A000B0E083879487A587B6871786108A118A48
:1018B000128A87E090E0A0E0B0E0838B948BA58B48
:1018C000B68B178A108E118E128E138E148E158E73
:1018D000168E178E10A211A212A2CF010C94912283
:1018E000909141019F719F31D9F3809342010895F6
:1018F0008093D505089581E08093070A089510929A
:10190000070A0895809141018F718F31D9F3809139
:1019100041018F71E1F08F30D1F0809141018F71E1
:10192000883031F4809139018260809339010BC095
:1019300088E00E94700C809141018F718830D9F746
:10194000F1CF8F3021F0809141018F71D1F708954F
:10195000809141018F718F31D9F3809141018F7155
:1019600011F08F3051F4809139018D7F80933901CE
:10197000809141018F718830D9F7089589E00C94E6
:10198000700CE5E4F1E09081907F908390818F70FE
:10199000982B90830895E7E5F1E080818D7F808327
:1019A0000895E7E5F1E08081826080830895EEE6A6
:1019B000F1E080818F7E80830895EEE6F1E0808102
:1019C000806180830895809360019093610190937A
:1019D000110A8093100A089590930B0A80930A0AC3
:1019E000E8E4F1E08081807E80838081682B6083E1
:1019F00008959093D9058093D80508959093D705BD
:101A00008093D60508950F931F93CF93DF93FC0126
:101A1000D90180E28093440180EC809345016062AB
:101A20006093480185EC8093490187EA80934B01DC
:101A300080E880934C0120936001B0936101409352
:101A4000620150936301C6E4D1E0088188819881E6
:101A50002881302F32953695377060E4369F8001AB
:101A60001124229526952370622F602B82958695EE
:101A7000837070E1879F90011124262B9295969593
:101A8000937084E0989FB0011124622B60936D01E4
:101A900088819881929596959370392F3064982F0C
:101AA00092959670932B90936E0110926C018FEF2C
:101AB00080934E01CAE0DAE0F983E8831A821B8240
:101AC0005D834C83BF83AE83188681E08093240AB4
:101AD00010923B0A1092130A1092070ADF91CF91DD
:101AE0001F910F91089586E10C94700C86E10C947F
:101AF000700C88E00E94700C10923B0A08950F93BE
:101B00001F93CF93DF93FC018091240A811102C0BF
:101B10008FEFABC0268180910C0A8F5F80930C0AF7
:101B200090918101907E916020FB95F99F73906464
:101B30009093810188E8809382018091070A88232D
:101B400061F08FEF809383018AEA9AEA909389018A
:101B5000809388018FEF9FEF10C080910C0A8093D3
:101B60008301209161018091600190E0922B90931C
:101B7000890180938801808191819093870180936E
:101B80008601209163018091620190E0922B9093F5
:101B90008501809384018F014281552747FD50952F
:101BA000638174818AE891E00E948E32F80182811B
:101BB000855F8093800180914101D82FDF719FEF75
:101BC0009D0F9230C0F3D131B1F3D231A1F3DF31A7
:101BD00091F398EF9D0F923020F08F70863009F0CE
:101BE00097CF86E10E94700CF801858181110BC0AE
:101BF00089E00E94700CF8018681882391F089E1C8
:101C00000E94700C0EC0809148018068809348014A
:101C10008091410187FFFCCF8091410186FF78CF01
:101C2000E7CF1092130A82E00E94700C80E090E0EF
:101C30002091130A211105C00196883EFDEF9F07F0
:101C4000B9F7F8012681222331F020914201229533
:101C50002695277029F4883E9D4F11F0C1E001C000
:101C6000CFEF8D2F0E94700C8C2FDF91CF911F91A1
:101C70000F9108951092130A82E00E94700C88EE72
:101C80009DEF2091130A211104C00197D1F78FEF26
:101C9000089581E00895CF93DF938091240A8823EB
:101CA00041F180914101C82FCF719FEF9C0F92307D
:101CB000C0F3C131B1F3C231A1F3CF3191F3C830D8
:101CC00019F08F708630A9F486E10E94700C809123
:101CD00048018068809348018091410187FFFCCFD3
:101CE000D09141018C2F0E94700CD6FB882780F97F
:101CF00001C08FEFDF91CF9108958091240A88234E
:101D000009F4E3C080913B0A882309F4DCC0809188
:101D10007B01E0910A0AF0910B0A90E0029724817E
:101D2000332727FD3095281739070CF4CEC0E091F2
:101D30000A0AF0910B0A809182018083E0910A0ADD
:101D4000F0910B0A809187019091880192838183A1
:101D5000E0910A0AF0910B0A80917B018B508383FA
:101D6000A0910A0AB0910B0AE0910A0AF0910B0ABD
:101D700013969C91848189173CF0E0910A0AF091B6
:101D80000B0A838187FF0DC010923B0A80914C01A2
:101D90008F7780934C0180914C01806880934C0137
:101DA00094C0A0910A0AB0910B0AE0910A0AF0913E
:101DB0000B0A13964C91552747FD509569E871E041
:101DC000858196810E948E328091D505882309F401
:101DD0003EC0E0910A0AF0910B0A83818031B9F587
:101DE000E0910A0AF0910B0A6581768144E050E0A7
:101DF00081E192E00E949732892B49F5E0910A0A2D
:101E0000F0910B0A6581768140E150E081E192E03A
:101E10000E949732892BD9F49DE088E10FB6F8949F
:101E2000A895809360000FBE9093600080E090E0E2
:101E30000E94331581E090E00E94331582E090E02B
:101E40000E94331583E090E00E943315FFCFE091AC
:101E50000A0AF0910B0A8091800185FB882780F99E
:101E60008783E0910A0AF0910B0A809147018087ED
:101E7000E0910A0AF0910B0A8091460186958695B9
:101E800086958187E0910A0AF0910B0A80914701BB
:101E90008287A0910A0AB0910B0AE0917B01F0E0E1
:101EA000E058FE4F80811B968C9310923B0A8091E4
:101EB0004C018F7780934C0180914C018068809316
:101EC0004C0181E0089580E008958FEF08951F92FE
:101ED0000F920FB60F9211248F9380E880934F01D9
:101EE0008F910F900FBE0F901F9018951F920F9219
:101EF0000FB60F9211248F9381E08093130A80E430
:101F000080934F018F910F900FBE0F901F901895E7
:101F10001F920F920FB60F9211248F9380E280933D
:101F20004F018F910F900FBE0F901F9018951F9229
:101F30000F920FB60F9211248F9380E180934F017F
:101F40008F910F900FBE0F901F9018951F920F92B8
:101F50000FB60F9211240BB60F922F933F934F930E
:101F60005F936F937F938F939F93AF93BF93EF9301
:101F7000FF9384E080934F01E091D805F091D9055B
:101F8000309709F00995FF91EF91BF91AF919F9123
:101F90008F917F916F915F914F913F912F910F9012
:101FA0000BBE0F900FBE0F901F9018951F920F92AF
:101FB0000FB60F9211248F9382E080934F018F917F
:101FC0000F900FBE0F901F9018951F920F920FB693
:101FD0000F9211248F9381E080934F018F910F9086
:101FE0000FBE0F901F901895E9E4F1E09081907F6B
:101FF000908390818F70982B908308958FEF089530
:102000000895089508958FEF08958091050A90919D
:10201000060A0895089581E0089581E0089581E019
:1020200008950895089508950895089508950895C8
:10203000089598988DB1806E8DB98EB1806A8EB9F1
:10204000089598988DB1806E8DB98EB180668EB9E5
:102050000895CF92DF92EF92FF920F931F93CF9349
:10206000DF93CDB7DEB727970FB6F894DEBF0FBE6C
:10207000CDBF0E945016E0910A0AF0910B0AC08071
:10208000D380E580F68000850E947D0E18161CF036
:1020900084E992E006C0F7011081111107C083EBBB
:1020A00092E00E9442330E94521631C0153021F452
:1020B0008AE090E00E943C33C70101969F938F9382
:1020C000802F992787FD90959F930F931F921F93C1
:1020D0001F92CF9285ED92E09F938F930E942833B9
:1020E000FD82EC821150F7011083DB821E821F8279
:1020F0008FEF9FEF9A8389830E945216CE0101963B
:102100000E947F0D0FB6F894DEBF0FBECDBF27969D
:102110000FB6F894DEBF0FBECDBFDF91CF911F91F8
:102120000F91FF90EF90DF90CF9008951F920F9244
:102130000FB60F9211240BB60F922F933F934F932C
:102140005F936F937F938F939F93AF93BF93EF931F
:10215000FF9380E090917B01891710F48F5FFACF95
:102160008091460187FF04C081E080933B0A04C050
:102170008EEF92E00E94423388E080934F0180917D
:10218000460187FF05C08091070A81110E9429102E
:10219000E091D605F091D705309709F00995FF91A8
:1021A000EF91BF91AF919F918F917F916F915F91CF
:1021B0004F913F912F910F900BBE0F900FBE0F903C
:1021C0001F901895A4E1BAE0FC01409620812D9360
:1021D000219120933F01E817F907C1F780E11092A0
:1021E0003E018150E1F780E880933C0180913D0100
:1021F00080FFFCCFE5E2FAE080E18E0F90913F0195
:1022000091938E13FBCF0895CF93DF93DC01662368
:1022100009F445C0862F8F7009F041C0E4E1FAE06F
:1022200090E19E0F219120933F019E13FBCF90E000
:1022300070E0E0E240E1949F9001112426173707F7
:102240007CF5911103C010923C0102C0E0933C0167
:1022500040E050E02A0F3B1FE901C40FD51FF88171
:10226000F0933E014F5F5F4F40315105A9F7409118
:102270003C01406840933C0140913D0140FFFCCF50
:1022800040E050E0F0913E01E901C40FD51FF88312
:102290004F5F5F4F40315105A9F79F5FCBCF81E082
:1022A000DF91CF9108950F931F93CF93DF93DC01BC
:1022B000613009F458C0862F8F7009F054C0E5E2F0
:1022C000FAE090E19E0F219120933F019E13FBCFF6
:1022D00062956F70615078E06F3F09F445C070936C
:1022E0003C01462F552747FD509520E030E0ED0199
:1022F00090E16902C00DD11D1124FE01E20FF31F10
:10230000908190933E012F5F3F4F20313105A9F717
:1023100090913C01906890933C0190913D0190FF19
:10232000FCCF4150510994E0440F551F9A95E1F7B5
:1023300020E030E090913E018E01020F131FF80162
:102340009083662349F0F901E40FF51FEA0FFB1FA4
:10235000E0819E27F80190832F5F3F4F20313105A8
:1023600049F76150B9CF81E0DF91CF911F910F9173
:1023700008958091C00087FFFCCF8091C0008F77C7
:102380008093C0008091C60008959091C00095FF91
:10239000FCCF9091C0009F7D9093C0008093C600B9
:1023A00008958FEF0895813019F48091C80004C01A
:1023B000811106C08091C000881F8827881F08955A
:1023C00080E00895CF93DF93FC012491EC012196E6
:1023D000222351F06091600B7091610B822F90E08D
:1023E0000E94F032CE01F0CFDF91CF91089586E0C8
:1023F00084B985B988EF8AB980EF8BB982E08DB94D
:1024000008950C94F7118F3F09F46CC0E82FE77022
:102410004E2F50E04730510508F064C0FA01E057F4
:10242000FF4F8695869586950C946E3242B121E0D9
:1024300030E0B90102C0660F771F8A95E2F7CB0141
:10244000842B82B94DC045B121E030E0B90102C012
:10245000660F771F8A95E2F7CB01842B85B940C0C0
:1024600048B121E030E0B90102C0660F771F8A95BC
:10247000E2F7CB01842B88B933C04BB121E030E0C7
:10248000B90102C0660F771F8A95E2F7CB01842B52
:102490008BB926C04EB121E030E0B90102C0660F11
:1024A000771F8A95E2F7CB01842B8EB919C041B30F
:1024B00021E030E0B90102C0660F771F8A95E2F78C
:1024C000CB01842B81BB0CC044B321E030E0B901C7
:1024D00002C0660F771F8A95E2F7CB01842B84BB7D
:1024E00081E008958FEF08958F3F09F473C0E82FBE
:1024F000E7704E2F50E04730510508F06BC0FA01ED
:10250000E956FF4F8695869586950C946E3242B1BA
:1025100021E030E0B90102C0660F771F8A95E2F72B
:10252000CB018095842382B953C045B121E030E0CE
:10253000B90102C0660F771F8A95E2F7CB0180953B
:10254000842385B945C048B121E030E0B90102C01B
:10255000660F771F8A95E2F7CB018095842388B9AF
:1025600037C04BB121E030E0B90102C0660F771FE0
:102570008A95E2F7CB01809584238BB929C04EB1AF
:1025800021E030E0B90102C0660F771F8A95E2F7BB
:10259000CB01809584238EB91BC041B321E030E08C
:1025A000B90102C0660F771F8A95E2F7CB018095CB
:1025B000842381BB0DC044B321E030E0B90102C0E7
:1025C000660F771F8A95E2F7CB018095842384BB41
:1025D00081E008958FEF08958F3F31F1E82FE77084
:1025E0004E2F50E047305105F8F4FA01E256FF4F04
:1025F000282F2695269526950C946E3290B10BC007
:1026000093B109C096B107C099B105C09CB103C090
:102610009FB101C092B3892F90E002C09595879534
:102620002A95E2F7817008958FEF08958F3F09F49E
:1026300006C1E82FE7704E2F50E04730510508F0F3
:10264000FEC0FA01EB55FF4F8695869586950C9452
:102650006E3220B130E0082E02C0359527950A94DD
:10266000E2F742B120FD0BC021E030E0B90102C029
:10267000660F771F8A95E2F7CB01842B0BC021E010
:1026800030E0B90102C0660F771F8A95E2F7CB01EF
:102690008095842382B916C023B130E0082E02C091
:1026A000359527950A94E2F745B120FD0DC021E04C
:1026B00030E0B90102C0660F771F8A95E2F7CB01BF
:1026C000842B85B981E0089521E030E0B90102C092
:1026D000660F771F8A95E2F7CB0180958423F1CFAF
:1026E00026B130E0082E02C0359527950A94E2F70E
:1026F00048B120FD0BC021E030E0B90102C0660FF7
:10270000771F8A95E2F7CB01842B0BC021E030E0E4
:10271000B90102C0660F771F8A95E2F7CB01809559
:10272000842388B9CFCF29B130E0082E02C0359577
:1027300027950A94E2F74BB120FD0BC021E030E071
:10274000B90102C0660F771F8A95E2F7CB01842B8F
:102750000BC021E030E0B90102C0660F771F8A95F7
:10276000E2F7CB01809584238BB9ACCF2CB130E05C
:10277000082E02C0359527950A94E2F74EB120FD48
:102780000BC021E030E0B90102C0660F771F8A95C7
:10279000E2F7CB01842B0BC021E030E0B90102C08D
:1027A000660F771F8A95E2F7CB01809584238EB957
:1027B00089CF2FB130E0082E02C0359527950A94B5
:1027C000E2F741B320FD0BC021E030E0B90102C0C7
:1027D000660F771F8A95E2F7CB01842B0BC021E0AF
:1027E00030E0B90102C0660F771F8A95E2F7CB018E
:1027F0008095842381BB66CF22B330E0082E02C0CF
:10280000359527950A94E2F744B320FD0BC021E0EB
:1028100030E0B90102C0660F771F8A95E2F7CB015D
:10282000842B0BC021E030E0B90102C0660F771F96
:102830008A95E2F7CB018095842384BB43CF8FEF49
:1028400008958F3F09F4D5C0E82FE7704E2F50E070
:10285000611167C04730510508F0CBC0FA01E4555B
:10286000FF4F8695869586950C946E3241B121E096
:1028700030E0B90102C0660F771F8A95E2F7CB01FD
:102880008095842365C044B121E030E0B90102C0E5
:10289000660F771F8A95E2F7CB018095842365C088
:1028A00047B121E030E0B90102C0660F771F8A9579
:1028B000E2F7CB018095842365C04AB121E030E086
:1028C000B90102C0660F771F8A95E2F7CB018095A8
:1028D000842365C04DB121E030E0B90102C0660F2C
:1028E000771F8A95E2F7CB018095842365C040B3BA
:1028F00021E030E0B90102C0660F771F8A95E2F748
:10290000CB018095842365C043B321E030E0B90159
:1029100002C0660F771F8A95E2F7CB01809584236A
:1029200065C04730510508F064C0FA01ED54FF4F0F
:102930008695869586950C946E3241B121E030E003
:10294000B90102C0660F771F8A95E2F7CB01842B8D
:1029500081B94DC044B121E030E0B90102C0660F39
:10296000771F8A95E2F7CB01842B84B940C047B129
:1029700021E030E0B90102C0660F771F8A95E2F7C7
:10298000CB01842B87B933C04AB121E030E0B901D3
:1029900002C0660F771F8A95E2F7CB01842B8AB9B4
:1029A00026C04DB121E030E0B90102C0660F771FAB
:1029B0008A95E2F7CB01842B8DB919C040B321E091
:1029C00030E0B90102C0660F771F8A95E2F7CB01AC
:1029D000842B80BB0CC043B321E030E0B90102C0BE
:1029E000660F771F8A95E2F7CB01842B83BB81E0CA
:1029F00008958FEF0895811106C080B1869581708A
:102A000091E0892708958FEF0895009711F483E2EC
:102A10000DC08130910511F48BE208C08230910520
:102A200011F483E303C0039729F48BE30E94161388
:102A300081E008958FEF0895009711F483E20DC0AF
:102A40008130910511F48BE208C08230910511F4B8
:102A500083E303C0039729F48BE30E94031281E010
:102A600008958FEF0895009711F483E20DC081302F
:102A7000910511F48BE208C08230910511F483E3D3
:102A800003C0039729F48BE30E94741281E0089538
:102A90008FEF0895882319F085B78F7E02C085B720
:102AA000806185BF81E008959091C80095FFFCCFBB
:102AB0008093CE0008959093C5008093C40086E073
:102AC0008093C200E1ECF0E080818B7F8083A0ECFA
:102AD000B0E08C9182608C938081886180830895BE
:102AE0009093CD008093CC0086E08093CA00E9ECFF
:102AF000F0E080818B7F8083A8ECB0E08C918260D5
:102B00008C938081886180830895CF93DF930E94A6
:102B10005B1569EB71E185EC91E10E94A532CEE590
:102B2000DBE09B838A8369EB71E185EC91E10E9494
:102B3000A53299838883DF91CF9108958091C80051
:102B400087FFFCCF8091C8008F778093C800809169
:102B5000CE00089500000000000000000197D1F7AA
:102B600008950C9400340E9408340895EF92FF9267
:102B70000F931F93CF93DF937C0180E090E00E943E
:102B80000034182FF701838381E090E00E94003425
:102B9000082FF701828382E090E00E940034D82F52
:102BA000F701818383E090E00E940034C82FF70191
:102BB000808384E090E00E940034100FD10FCD0F8D
:102BC0008C1711F08FEF01C081E0DF91CF911F9141
:102BD0000F91FF90EF900895CF93DF93EC0185E084
:102BE00090E00E940034888381E0DF91CF910895C6
:102BF000FC01608186E090E00E94083481E0089545
:102C0000CF93DF93EC0186E090E00E94003488834C
:102C100081E0DF91CF9108950F931F93CF93DF93BE
:102C20008C01C0E0D0E0CE0108960E940034F8018B
:102C300081938F012196C031D105A9F781E0DF9101
:102C4000CF911F910F9108950F931F93CF93DF930F
:102C50008C01C0E0D0E0F80161918F01CE010896AF
:102C60000E9408342196C031D105A9F781E0DF9197
:102C7000CF911F910F910895CF93DF93EC0187E0DF
:102C800090E00E940034888381E0DF91CF91089525
:102C9000FC01608187E090E00E94083481E00895A3
:102CA000F8940895789408950E945016FFCFCF931A
:102CB000DF93CDB7DEB7A3970FB6F894DEBF0FBE94
:102CC000CDBF0E948E1E8093F00A8F3F21F460E0FA
:102CD0008EE00E94D61C0E943F2D80FF04C060E061
:102CE00086E00E94D61C0E94562F8F3F31F40E942E
:102CF000392F60E080E10E94D61C0E94472F10927D
:102D0000F30A1092010B1092000B1092F20A10922B
:102D1000F10A1092020B0E9419181092FF0A8FEF0D
:102D20008093EC0A8093EE0A8093ED0A93E69093E9
:102D3000480A8093460A9093730A8093710A90938D
:102D40009E0A80939C0A9093C90A8093C70A8CE3D9
:102D50009BE021E43BE03093400B20933F0B9093AA
:102D6000430B8093420B46E45BE05093450B40934A
:102D7000440B3093480B2093470B2BE43BE03093FC
:102D80004A0B2093490B50934D0B40934C0B40E55D
:102D90005BE050934F0B40934E0B3093520B2093BC
:102DA000510B10923E0B10923D0B1092540B10924F
:102DB000530B1092F60A1092F50A90933D0A8093F5
:102DC0003C0A6CE577E2CE0101960E94772F40E83D
:102DD00050E061E879E0CE0101960E947B2F85E505
:102DE0008093810919861C861D861E861F86188A77
:102DF000198A1A8A1B8A1C8A1D8A1E8A1F8A188EA3
:102E0000198E1A8E1B8E1C8E1D8E1E8E1F8E18A262
:102E100019A21AA21BA281E0888792E09A878B8769
:102E2000CE0101960E949122A3960FB6F894DEBFC0
:102E30000FBECDBFDF91CF91089506E41AE0C0E048
:102E4000F801D080FFEFDF1222C0CF5F055D1F4F7A
:102E5000C430B1F70E9480212BE28202C00111240C
:102E6000FC01E25CF54F82858093020BF093010B2D
:102E7000E093000BF093F20AE093F10A8093F30AD7
:102E80000E94ED2F0E94D72F0E94F12F16C086E4DA
:102E9000E82E8AE0F82ED0E0CD1741F0F7018081CE
:102EA000D81204C06D2D85E00E94D61CDF5FFBE2C6
:102EB000EF0EF11CD43081F7C8CFFFCFCF92DF9255
:102EC000EF92FF920F931F93CF93DF93EC018B014F
:102ED0007A018985823021F08091EF0A888301C0D0
:102EE00018828091EF0A843020F060E087E00E9431
:102EF000D61C8985823029F08091EF0A8F5F8093FC
:102F0000EF0A8091EF0A811103C081E08093EF0AFC
:102F100038812BE23203F0011124E25CF54F11837A
:102F200000838885828738813203F0011124E25CB6
:102F3000F54F83E0818738813203F0011124E25C90
:102F4000F54F30870881020380011124025C154F80
:102F5000F8011582CE010B960E94EE26F80161A3BE
:102F600072A383A394A38B859C85AD85BE8588338E
:102F70009948A144B10520F0688186E10E94D61CE1
:102F8000C880DD24C7FCD094CE014B960E94EE266B
:102F90001BE21C9DF0011D9DF00D1124E25CF54F1C
:102FA000658B768B878B908F28812103C00111243C
:102FB0009C01225C354F6901F90145895689678971
:102FC000708D81A192A1A3A1B4A1840F951FA61F0A
:102FD000B71F818F928FA38FB48FCE0143960E942B
:102FE000EE26F60165A376A387A390A72881210387
:102FF000F0011124E25CF54F85A196A1A7A1B0A52F
:10300000858F968FA78FB0A381E090E092A781A7CC
:10301000F382E2828487DF91CF911F910F91FF901D
:10302000EF90DF90CF9008950C94762785E690E09E
:10303000089510921A0710921B0710921C07109205
:103040001D0710921E0710921F0710922007109262
:103050002107E4EFF8E080E090E010821182128214
:1030600013821086118612861386148215821682A8
:1030700017821486158616861786108A118A128A78
:10308000138A108E118E128E138EDC01AC50B74F46
:103090005C961C925C975D961C927E964E96883745
:1030A0009105D9F608950F931F93EAE1F7E0A82F51
:1030B000B0E023EB36EE4EE050E00E94BE310481DA
:1030C000158126813781DC01CB01800F911FA21F62
:1030D000B31F84839583A683B783CF011F910F917C
:1030E0000C94BB25EAE1F7E0408151816281738154
:1030F000DC014D935D936D937C93139744815581CF
:1031000066817781FC0144835583668377830895C4
:103110002EE1829FC0011124FC01EC50F74F858DF8
:10312000813039F0848D8F5F848F8F3F11F481E07F
:10313000858F08952EE1829FC0011124FC01EC507F
:10314000F74F858D8130B1F0148A158A168A178A57
:1031500080899189A289B3890196A11DB11D808BB7
:10316000918BA28BB38B8E3F9F4FAF4FBF4F11F40C
:1031700081E0858F08950F931F932EE1829FC001F8
:103180001124FC01EC50F74F858D813071F1808D59
:10319000918DA28DB38D0196A11DB11D808F918F50
:1031A000A28FB38F462F50E060E070E0048915894C
:1031B00026893789040F151F261F371F048B158B8F
:1031C000268B378B0081118122813381400F511F63
:1031D000621F731F40835183628373838E3F9F4FAF
:1031E000AF4FBF4F11F481E0858F1F910F9108956C
:1031F000CF92DF92EF92FF92282F30E09EE1899FDD
:10320000F0011124EC50F74F858D813009F44BC04B
:10321000462F50E060E070E084899589A689B789DF
:10322000840F951FA61FB71F84879587A687B7872A
:10323000C080D180E280F3804C0D5D1D6E1D7F1D2E
:103240004083518362837383448155816681778192
:10325000411551056105710529F084179507A607E9
:10326000B70760F44EE1429FF001439FF00D112437
:10327000EC50F74F84839583A683B7834EE1429F3A
:10328000F001439FF00D1124EC50F74F408551851C
:1032900062857385481759076A077B0720F4808782
:1032A0009187A287B387FF90EF90DF90CF9008952A
:1032B0008F929F92AF92BF92CF92DF92EF92FF9246
:1032C0000F931F93CF93DF93CDB7DEB728970FB639
:1032D000F894DEBF0FBECDBF182F84E793E00E94A5
:1032E000E211A12EB12C1F921F9387E193E09F93CF
:1032F0008F930E9428330F900F900F900F90111111
:1033000052C089E593E00E94E211CE0101960E942D
:10331000D2246D817E818F819885E0E4CE2EE2E417
:10332000DE2EEFE0EE2EF12CA70196010E94ED318A
:103330005F934F933F932F938C818F938B818F93C8
:103340008A818F9389818F930AE113E01F930F93F2
:103350000E94283388E393E00E94E21160911E07E7
:1033600070911F078091200790912107A701960176
:103370000E94ED315F934F933F932F9380911D07F0
:103380008F9380911C078F9380911B078F9380915F
:103390001A078F931F930F930E9428330FB6F89448
:1033A000DEBF0FBECDBF87E293E00E94E2118EE147
:1033B0008A9D80018B9D100D11240C50174FF80130
:1033C00060817181828193810E94B72629833A832B
:1033D0004B835C836D837E838F8398876D817E8131
:1033E0008F81988520E4822E22E4922E2FE0A22E57
:1033F000B12CA50194010E94ED315F934F933F934F
:103400002F938C818F938B818F938A818F93898166
:103410008F933AE1E32E33E0F32EFF92EF920E9476
:1034200028338CE093E00E94E211F80164817581F9
:10343000868197810E94B72629833A834B835C83D8
:103440006D837E838F8398876D817E818F81988540
:10345000A50194010E94ED315F934F933F932F9309
:103460008C818F938B818F938A818F9389818F93A6
:103470004AE2C42E43E0D42EDF92CF920E9428333A
:10348000F80164857585868597850E94B72629830E
:103490003A834B835C836D837E838F8398876D81B2
:1034A0007E818F819885A50194010E94ED315F9303
:1034B0004F933F932F938C818F938B818F938A812E
:1034C0008F9389818F93DF92CF920E942833F801E6
:1034D00060857185828593850E94B72629833A830A
:1034E0004B835C836D837E838F8398876D817E8120
:1034F0008F819885A50194010E94ED315F934F93D0
:103500003F932F938C818F938B818F938A818F939D
:1035100089818F93FF92EF920E9428330FB6F8941F
:10352000DEBF0FBECDBF8CEF92E00E94E211F8012A
:10353000709683818F9382818F9381818F93F8011D
:1035400080898F935CE3E52E53E0F52EFF92EF9296
:103550000E94283389EE92E00E94E211F8017896E9
:1035600083818F9382818F9381818F93F801808DE6
:103570008F93FF92EF920E94283380ED92E00E9499
:10358000E211F801848D1F928F9360E4E62E63E0D0
:10359000F62EFF92EF920E94283383EB92E00E9476
:1035A000E211F801858D1F928F93FF92EF920E9496
:1035B000283380EB92E00E94E2110FB6F894DEBF50
:1035C0000FBECDBF28960FB6F894DEBF0FBECDBF9D
:1035D000DF91CF911F910F91FF90EF90DF90CF90EF
:1035E000BF90AF909F908F90089583E992E00E94E2
:1035F000E21180E00E94581981E00E94581982E08F
:103600000E94581983E00C945819DB01843008F0AB
:1036100054C09EE1899FF0011124EC50F74F408186
:103620005181628173814D935D936D937C93139768
:10363000448155816681778114964D935D936D9396
:103640007C931797408551856285738518964D93B5
:103650005D936D937C931B9744855585668577852F
:103660001C964D935D936D937C931F974089518970
:103670006289738950964D935D936D937C935397B4
:10368000448955896689778954964D935D936D93E6
:103690007C935797408D518D628D738D58964D93C5
:1036A0005D936D937C935B97848D5C968C935C9714
:1036B000858D5D968C9381E008958FEF0895E0915C
:1036C000000BF091010B84870895E091000BF091BD
:1036D000010B84850895CF93DF93D82FC62F80E008
:1036E00092E00E94B1158F5F8F3F19F08093DA0549
:1036F00002C01092DA052091DA0536E0239FC0015E
:1037000011246D2F8F5F9D4F0E94B3158091DA05B4
:1037100046E0849FC00111246C2F8E5F9D4F0E9454
:10372000B3152091DA054091F70A5091F80A60919B
:10373000F90A7091FA0A672F77278827992746E0B8
:10374000249F90011124C9018D5F9D4F0E94B315E4
:103750002091DA054091F70A5091F80A6091F90A30
:103760007091FA0A8827992746E0249F9001112436
:10377000C9018C5F9D4F0E94B3152091DA054091DD
:10378000F70A5091F80A6091F90A7091FA0A99279C
:10379000872F762F652F46E0249F90011124C901C1
:1037A0008B5F9D4F0E94B3158091DA0526E0829FC2
:1037B000C00111246091F70A8A5F9D4F0E94B315E2
:1037C0006091DA0580E092E0DF91CF910C94B3151F
:1037D000FC0180916C09882331F0DB018C9380918E
:1037E000EA06808381E0089580916C09882309F4BA
:1037F00083C08BEA95E00E94E2118091EA061F9255
:103800008F9387E193E09F938F930E94283387EAF9
:1038100095E00E94E2110F900F900F900F90809111
:103820006C09883110F010926C09E0916C098E2FB0
:1038300090E0FC013197E631F10508F046C0E6540E
:10384000FF4F0C946E328BE695E041C084E495E026
:103850003EC080E395E03BC08AE195E038C08FEF41
:1038600094E035C089EE94E032C081ED94E02FC041
:103870008EEB94E02CC08BEA94E029C08DE894E0B4
:1038800026C088E694E023C08CE594E020C081E463
:1038900094E01DC082E394E01AC08EE194E017C06A
:1038A0008DE094E014C089EF93E011C089ED93E0BE
:1038B0000EC081EC93E00BC086EA93E008C085E976
:1038C00093E005C086E893E002C08FE793E00E9492
:1038D000E2116091600B7091610B8DE090E00E94AD
:1038E000F0326091600B7091610B8AE090E00E9471
:1038F000F03280916C09089580E0089513BC109215
:10390000B60018BC17BC16BC15BC14BC1DBA1CBA3A
:103910001BBA10929B0010929A001092990010927C
:1039200098001092950010929400109291001092BD
:10393000900018BA109271001092B4001092B30067
:103940001092B2001092B100E0EBF0E01082108211
:1039500017BA109270008FEF84BF08950E9450161E
:103960000E94392F80916C09803171F0835182302F
:1039700058F00E947E1C87EB95E00E94E2110E94A5
:10398000472F0E945016FFCF10926C090895809324
:103990006C09E091000BF091010B60856093EA06E1
:1039A0000E946B1B0E94F41B0C94AE1C80936C094C
:1039B0006093EA060E946B1B0E94F41B0C94AE1CE1
:1039C000CF93DF931F92CDB7DEB7198289818436FA
:1039D00040F480ED97E00E94752B89818F5F898389
:1039E000F5CF0F90DF91CF91089581E090E00E9494
:1039F00033150E94E01C0E94E01C0E94E01C81E044
:103A000090E00E941C150C94E01C81E090E00E9464
:103A100033150E94E01C81E090E00E941C150C947C
:103A2000E01CFF920F931F93CF93DF9300D01F9260
:103A3000CDB7DEB71F928F9387E193E09F938F936B
:103A40008E010F5F1F4F1F930F930E9472330F90D1
:103A50000F900F900F900F900F90F12CF8010190A4
:103A60000020E9F73197E01BF10B8F2D90E08E17C6
:103A70009F0708F05DC0F801E80FF91FE0818E2F65
:103A800090E0FC01F097EA30F10508F049C0E053FE
:103A9000FF4F0C946E320E94F51C02C00E94051D5F
:103AA0000E94F51C0E94F51C0E94F51C0E94F51C4A
:103AB00037C00E94051D0E94051DF4CF0E94051D00
:103AC0000E94051D0E94051DEFCF0E94051D0E944A
:103AD000051D0E94051D0E94051DE8CF0E94051DC1
:103AE00002C00E94F51C0E94051D04C00E94F51C26
:103AF0000E94F51C0E94051D06C00E94F51C0E9434
:103B0000F51C0E94F51C0E94051D08C00E94F51CB2
:103B10000E94F51C0E94F51C0E94F51C0E94051DC8
:103B20000E94E01C0E94E01C0E94E01CF39496CFCF
:103B30000F900F900F90DF91CF911F910F91FF90F9
:103B400008956F927F928F929F92AF92BF92CF9281
:103B5000DF92EF92FF920F931F93CF93DF9387EC47
:103B600095E00E94E211E091000BF091010B80853D
:103B7000282F332727FD30953F938F9383E493E0DD
:103B80009F938F930E942833E091000BF091010BDB
:103B9000C281D381DF93CF9387E793E09F938F9385
:103BA0000E94283388811F928F938CE493E09F9327
:103BB0008F930E942833E091000BF091010B8181DB
:103BC0008F9380818F9389E593E09F938F930E94D9
:103BD00028338091010B8F938091000B8F9383E6A4
:103BE00093E09F938F930E942833CEE3DAE0EDB702
:103BF000FEB774960FB6F894FEBF0FBEEDBF00E09F
:103C000010E083E7682E83E0782E9CE4892E93E011
:103C1000992E29E5A22E23E0B22E33E6C32E33E0FF
:103C2000D32EEA80FB80FF92EF921F930F937F9237
:103C30006F920E942833F70180811F928F939F9289
:103C40008F920E94283389818F9388818F93BF92AE
:103C5000AF920E942833DF93CF93DF92CF920E94DE
:103C600028330F5F1F4FAB96EDB7FEB772960FB6B6
:103C7000F894FEBF0FBEEDBF0430110591F6DF9141
:103C8000CF911F910F91FF90EF90DF90CF90BF9059
:103C9000AF909F908F907F906F900895CF93DF9318
:103CA000E091000BF091010BC281D38188818535B1
:103CB00039F00E94A11D81E00E94C71C85E5888320
:103CC000E091000BF091010B80819181811592446C
:103CD00038F00E94A11D82E1DF91CF910C94C71CA6
:103CE000DF91CF9108952BE28202C0011124FC01E3
:103CF000E25CF54FA281B3818C91853519F085E5A1
:103D00008C9308C0808191818115924428F082E1D2
:103D10000E94C71C8FEF089581E008950F931F93B1
:103D20004091A2075091A3076091A4077091A50745
:103D300080E090E08A019B01082E04C0369527950B
:103D4000179507950A94D2F700FD19C001E010E01D
:103D500020E030E0082E04C0000F111F221F331F87
:103D60000A94D2F7402B512B622B732B4093A2075E
:103D70005093A3076093A4077093A50705C001960D
:103D800080329105B9F68FEF1F910F910895E09160
:103D9000000BF091010B65857685878590890895E4
:103DA000CF92DF92EF92FF920F931F93CF93DF9307
:103DB000C12CD12C7601C394082E04C0CC0CDD1C80
:103DC000EE1CFF1C0A94D2F74091A2075091A30762
:103DD0006091A4077091A5074C215D216E217F2180
:103DE000452B462B472B09F460C0082F0E94501624
:103DF000E7E4FAE0B701A60140955095609570950B
:103E000013E0DF0111978C918F3F39F18481958107
:103E1000A681B7818C159D05AE05BF0551F41086AE
:103E20001186128613869F0122503109E9011882FA
:103E3000108384239523A623B72384839583A683A5
:103E4000B78380859185A285B38584239523A62396
:103E5000B72380879187A287B387BB96DAE0E33FD9
:103E6000FD0779F68EEF9FEFAFEFBFEF04C0880F2D
:103E7000991FAA1FBB1F0A95D2F74091A207509124
:103E8000A3076091A4077091A50784239523A62317
:103E9000B7238093A2079093A307A093A407B0939E
:103EA000A5070E94521681E001C08FEFDF91CF91EC
:103EB0001F910F91FF90EF90DF90CF9008950F9397
:103EC0001F9341E050E060E070E08A019B0104C074
:103ED000000F111F221F331F8A95D2F7D901C80185
:103EE000E091000BF091010B45855685678570893F
:103EF0000423152326233723012B022B032BD1F078
:103F000080959095A095B095482359236A237B23EB
:103F1000458756876787708B418952896389748981
:103F200084239523A623B723818B928BA38BB48BF9
:103F300081E001C08FEF1F910F910895282F4091CC
:103F4000A2075091A3076091A4077091A507082EBE
:103F500004C076956795579547950A94D2F740FF28
:103F60001DC0E091000BF091010B81E090E0A0E01A
:103F7000B0E004C0880F991FAA1FBB1F2A95D2F773
:103F80004585568567857089842B952BA62BB72B85
:103F900085879687A787B08B81E008958FEF089576
:103FA000CF92DF92EF92FF92CF93C12CD12C76016A
:103FB000C39404C0CC0CDD1CEE1CFF1C8A95D2F708
:103FC0008091A2079091A307A091A407B091A507A3
:103FD0008C219D21AE21BF21892B8A2B8B2B11F4A3
:103FE00081E044C00E945016E5E4FAE0A7E4BAE09C
:103FF000C0E083E090819130B9F4428553856485B7
:1040000075854C215D216E217F21452B462B472B49
:1040100059F08C9316861786108A118A1082C286F0
:10402000D386E486F586C1E090819230A1F4428582
:104030005385648575854C155D056E057F0559F4BE
:104040008C9316861786108A118A10821286138620
:1040500014861586C1E0BB969B969AE0E13FF9076E
:1040600049F60E945216C11105C082E00E945F1BF2
:104070008FEF01C081E0CF91FF90EF90DF90CF9064
:1040800008950F931F93E091000BF091010B0585AC
:104090001685278530890623172328233923011500
:1040A00011052105310511F1DC01CB01818B928BCA
:1040B000A38BB48B21E027830090F00A04C0B6954F
:1040C000A795979587950A94D2F780FF03C00E9421
:1040D000F92304C080E090E00E94CA23E091000B25
:1040E000F091010B0189128923893489C901B80132
:1040F0001F910F91089580E090E0089521E08C5E7B
:104100009A4009F420E0822F819508950E947E2034
:104110008F3F11F481E003C0813029F482E00E94D6
:104120005F1B8FEF0895992787FD9095FC01EE0F97
:10413000FF1F8E0F9F1FFC01E451F54F82810895F0
:10414000EF92FF920F931F93CF93DF931F92CDB700
:10415000DEB70E947E208F3F11F481E003C08130E2
:1041600029F482E00E945F1B8FEF41C089830E9487
:1041700050168981E82EFF24E7FCF0948701000F98
:10418000111FF801EE0DFF1DE451F54F92819111C1
:1041900016C0E091000BF091010B9781926097831C
:1041A000992787FD9095A92FB92F818B928BA38B8F
:1041B000B48B0E94521680E090E00E94CA230E0D3C
:1041C0001F1DD801A451B54F12968C9112978150A2
:1041D00012968C931297E091000BF091010B1196BF
:1041E0008C91838781E084830E94521681E00F9036
:1041F000DF91CF911F910F91FF90EF9008950F9352
:104200001F93CF93DF931F92CDB7DEB70E947E201E
:104210008F3F11F481E003C0813029F482E00E94D5
:104220005F1B8FEF44C0482F552747FD50959A01DB
:10423000220F331F240F351F89010451154FF80138
:1042400022819081291794F589830E945016F801E4
:1042500092819F5F9283E091000BF091010B148299
:10426000E5E4FAE08981992787FD9095A92FB92F78
:1042700023E03081323099F4428553856485758519
:10428000481759076A077B0751F422831686178659
:10429000108A118A10821286138614861586BB96A0
:1042A0003AE0E13FF30729F70E94521681E00F90B0
:1042B000DF91CF911F910F9108950E947E208F3F33
:1042C00011F481E003C0813029F482E00E945F1B79
:1042D0008FEF0895992787FD9095FC01EE0FFF1F42
:1042E0008E0F9F1FFC01E451F54F8FEF8083828377
:1042F00081838091FF0A81508093FF0A81E00895B5
:10430000E091F50AF091F60A80810895E091F50AAE
:10431000F091F60A309721F00380F481E02DFACF76
:104320000895AF92BF92CF92DF92EF92FF920F93D8
:104330001F93CF93DF93E0913C0AF0913D0A3097B1
:1043400009F494C00091F50A1091F60A01151105BF
:1043500009F44CC0D8014BE2582F540390011124AA
:10436000225C354F79019AE0E90EF11C6901C4E045
:10437000CC0ED11C5901DBE0AD0EB11C2C9130E00C
:10438000429FB001439F700D1124625C754FEB0199
:104390009C81992329F05B85E7019881591740F1A9
:1043A000E6019881992369F0429FB001439F700D07
:1043B0001124625C754FEB015A85E501988159170C
:1043C000B8F0429FB001439F700D11249B01225C05
:1043D000354FE9012A85E7019881291748F013969E
:1043E0000D90BC91A02D109749F602C0A0E0B0E05E
:1043F0008083C381D481D0933D0AC0933C0AA01727
:10440000B107B1F4109749F0B483A38312821182EB
:104410001296FC93EE93119706C0148213821282B7
:104420001182FA83E983F093F60AE093F50A1EC03D
:10443000AC17BD0779F011968D919C9112979283DC
:104440008183B483A3831196CD91DC911297FC8371
:10445000EB8308C01482138211968D919C91129760
:10446000928381831296FC93EE931197DF91CF9103
:104470001F910F91FF90EF90DF90CF90BF90AF9082
:104480000895CF93DF93E091F50AF091F60A309703
:1044900009F444C0992787FD9095208130E02817C2
:1044A000390781F4A381B481B093F60AA093F50A89
:1044B00012961C921E92119718C00380F481E02D71
:1044C000309761F1208130E028173907B1F7C181B9
:1044D000D281838194819C838B83A381B481109743
:1044E00021F01296DC93CE931197A0913C0AB091E3
:1044F0003D0A109739F4F0933D0AE0933C0A148288
:1045000013820AC0B483A3831296FC93EE9311978F
:10451000F0933D0AE0933C0A12821182DF91CF9121
:104520000895EF92FF920F931F93CF93DF93EC01C7
:104530004B815C8169817A818D819E810E94992F56
:104540002F81222371F04B815C81E12CF12C00E062
:1045500010E020E030E0BC01CE010E945E171F8217
:104560000CC0E8812BE2E202F0011124E25CF54F7D
:1045700021852330B9F491838083E8818BE2E802BE
:10458000F0011124E25CF54F85899689A789B08DE9
:10459000892B8A2B8B2B41F482E0818788810E94B2
:1045A000912102C08FEF01C081E0DF91CF911F9177
:1045B0000F91FF90EF9008951F93CF93DF93CDB7A6
:1045C000DEB728970FB6F894DEBF0FBECDBF2983A4
:1045D0003A834B835C836D837E838F8398870E94AD
:1045E00050160E94C32C182FCE0101960E94EE2671
:1045F0006330710598F0E091000BF091010B212FD1
:1046000030E0620F731FCB01A0E0B0E0858B968B8A
:10461000A78BB08F0E94521681E001C08FEF2896C1
:104620000FB6F894DEBF0FBECDBFDF91CF911F91C3
:1046300008950E946C2FE091000BF091010B858191
:104640008111F7CF0895CF930E944E1E0E945016FD
:10465000E091000BF091010B81E090E092A781A71F
:1046600085830E94C32CC82F883F80F40E945D2C54
:104670002C2F30E02F5F3F4F90E02817390734F49C
:1046800082E08C0F8093F3080E94612C0E945216E6
:104690000E94192381E0CF910895E091000BF091E1
:1046A000010B80850E944122E091000BF091010BEB
:1046B00084E081870E94232381E00895CF93DF93D4
:1046C000EC010E944E1E209711F4C1E0D0E00E9440
:1046D0005016E091000BF091010B81E08583D2A789
:1046E000C1A70E94C32CC82F883F80F40E945D2C74
:1046F0002C2F30E02F5F3F4F90E02817390734F41C
:1047000082E08C0F8093F3080E94612C0E94521665
:104710000E94192381E0DF91CF910895EF92FF92DB
:104720000F931F93CF938C010E945016E091000BC2
:10473000F091010B81E085830E94C32CC82FE0918A
:10474000000BF091010BE82EF12CC701800F911F97
:10475000A0E0B0E0858B968BA78BB08FC83F78F434
:104760000E945D2C9FEFE91AF90A90E0E816F9061D
:1047700034F482E08C0F8093F3080E94612C0E9435
:1047800052160E94192381E0CF911F910F91FF9043
:10479000EF900895CF93DF93EC010E945016E091C3
:1047A000000BF091010B21E02583CE01A0E0B0E0E9
:1047B000858B968BA78BB08F0E94C32CC82F883F08
:1047C00080F40E945D2C2C2F30E02F5F3F4F90E053
:1047D0002817390734F482E08C0F8093F3080E9485
:1047E000612C0E9452160E94192381E0DF91CF9123
:1047F0000895CF930E945016E091000BF091010BA9
:1048000081E0858386830E94C32CC82F883F80F473
:104810000E945D2C2C2F30E02F5F3F4F90E0281737
:10482000390734F482E08C0F8093F3080E94612CE6
:104830000E9452160E94192381E0CF9108951F9380
:10484000CF93DF93CDB7DEB728970FB6F894DEBFCE
:104850000FBECDBF29833A834B835C836D837E83F8
:104860008F8398870E944E1E0E945016E091000B85
:10487000F091010B81E0858381E090E092A781A710
:104880000E94C32C182FCE0101960E94EE26E091C3
:10489000000BF091010BDC01CB01810F911DA11DDB
:1048A000B11D858B968BA78BB08F183F80F40E942B
:1048B0005D2C212F30E02F5F3F4F90E02817390704
:1048C00034F482E0810F8093F3080E94612C0E94EF
:1048D00052160E94192381E028960FB6F894DEBF85
:1048E0000FBECDBFDF91CF911F9108958F929F9200
:1048F000AF92BF92CF92DF92EF92FF920F931F93EE
:10490000CF93DF93CDB7DEB760970FB6F894DEBFD5
:104910000FBECDBF29873A874B875C876D877E871F
:104920008F87988BCE0101960E94D22489809A802D
:10493000AB80BC80CD80DE80EF80F88409851A854D
:104940002B853C854D855E856F857889CE010996DE
:104950000E942F258F3F61F029853A854B855C8524
:104960006D857E858F8598890E941F2481E001C016
:104970008FEF60960FB6F894DEBF0FBECDBFDF910C
:10498000CF911F910F91FF90EF90DF90CF90BF904C
:10499000AF909F908F900895E091000BF091010BE4
:1049A000808508950F931F93CF93DF93EC011C82B2
:1049B0001D821E821F828091F70A9091F80AA091B1
:1049C000F90AB091FA0A88839983AA83BB838091FC
:1049D000FB0A9091FC0AA091FD0AB091FE0A8C831B
:1049E0009D83AE83BF830E94C32CA82FB0E023EB2E
:1049F00036EE4EE050E00E94BE310C811D812E81CA
:104A00003F81DC01CB01800F911FA21FB31F8C835C
:104A10009D83AE83BF838C819D81AE81BF818115D3
:104A20002AEC92072AE9A2072BE3B20798F09A5CD6
:104A3000AA49BB438C839D83AE83BF8388819981C0
:104A4000AA81BB810196A11DB11D88839983AA8388
:104A5000BB83E1CFDF91CF911F910F9108958F928A
:104A60009F92AF92BF92CF92DF92EF92FF920F93FD
:104A70001F93CF93DF93CDB7DEB760970FB6F8944F
:104A8000DEBF0FBECDBFFC0109831A832B833C839D
:104A90004D835E836F83788789869A86AB86BC86D2
:104AA000CD86DE86EF86F88A09811A812B813C81CA
:104AB0004D815E816F817885C984DA84EB84FC84C2
:104AC0008D859E85AF85B8890C151D052E053F0582
:104AD000F0F1C016D106E206F30691F44817590723
:104AE0006A077B07A0F1481B590B6A0B7B0B4483B9
:104AF000558366837783108211821282138225C0C8
:104B0000481759076A077B0780F4015011092109EA
:104B100031090C191D092E093F09008311832283D5
:104B2000338356536546744C08C00C191D092E0971
:104B30003F090083118322833383481B590B6A0B7F
:104B40007B0B448355836683778381E001C08FEFBD
:104B500060960FB6F894DEBF0FBECDBFDF91CF9148
:104B60001F910F91FF90EF90DF90CF90BF90AF908B
:104B70009F908F900895FC014481558166817781D3
:104B800041158AEC58078AE968078BE3780798F0A3
:104B90005A5C6A497B43448355836683778380816B
:104BA0009181A281B3810196A11DB11D8083918362
:104BB000A283B383E1CF08958F929F92AF92BF9269
:104BC000CF92DF92EF92FF920F931F93CF93DF93D9
:104BD000CDB7DEB760970FB6F894DEBF0FBECDBF7E
:104BE00009831A832B833C834D835E836F8378878D
:104BF00089869A86AB86BC86CD86DE86EF86F88A65
:104C000009851A852B853C8549815A816B817C8178
:104C1000400F511F621F731FFC0140835183628349
:104C200073830D851E852F8538894D815E816F8147
:104C30007885400F511F621F731F4483558366831D
:104C400077830E94BB2581E060960FB6F894DEBFA3
:104C50000FBECDBFDF91CF911F910F91FF90EF90CD
:104C6000DF90CF90BF90AF909F908F900895E7EF27
:104C7000FAE0608371838283938324833583468340
:104C8000578308952F923F924F925F926F927F9237
:104C90008F929F92AF92BF92CF92DF92EF92FF924C
:104CA0000F931F93FC01C080D180E280F380C11478
:104CB000D104E104F104E1F184819581A681B781F9
:104CC00022E4C216D104E104F104F0F51C012D0127
:104CD000612C712C4301E0E08E2F90E0A0E0B0E069
:104CE0008C159D05AE05BF0588F49101A201B301A5
:104CF000C40136534546544C6F4F7F4F8F4F9F4FE3
:104D000019012A013B014C01EF5FE6CF83EBA82E8E
:104D100096EEB92E2EE0C22ED12CE12CF12C00E023
:104D200010E09101A201B301C4010E9411320AC036
:104D3000648175818681978123EB36EE4EE050E0E9
:104D40000E94ED31C90102C080E090E01F910F91F7
:104D5000FF90EF90DF90CF90BF90AF909F908F909B
:104D60007F906F905F904F903F902F900895CF92DB
:104D7000DF92EF92FF92CF93DF93CDB7DEB7289704
:104D80000FB6F894DEBF0FBECDBF6B017C012AE0E9
:104D9000F694E794D794C7942A95D1F7C982DA821A
:104DA000EB82FC829B01AC0133704427552763EBF7
:104DB00076EE8EE090E00E94C9312C2D3A814B8135
:104DC0005C8128960FB6F894DEBF0FBECDBFDF9191
:104DD000CF91FF90EF90DF90CF9008952F923F9268
:104DE0004F925F926F927F928F929F92AF92BF92FB
:104DF000CF92DF92EF92FF920F931F93FC01C0803E
:104E0000D180E280F380C114D104E104F104B9F14E
:104E100084819581A681B7811C012D01612C712CA3
:104E20004301E0E08E2F90E0A0E0B0E08C159D05FE
:104E3000AE05BF0588F49101A201B301C401365348
:104E40004546544C6F4F7F4F8F4F9F4F19012A019A
:104E50003B014C01EF5FE6CF83EBA82E96EEB92E17
:104E60002EE0C22ED12CE12CF12C00E010E09101BB
:104E7000A201B301C4010E941132CA010BC06481B6
:104E800075818681978123EB36EE4EE050E00E94DB
:104E9000ED31CA01B9011F910F91FF90EF90DF90A2
:104EA000CF90BF90AF909F908F907F906F905F90CA
:104EB0004F903F902F900895C1E00E944E1E0E9497
:104EC0005D2C843010F4C093F40A0E946C2F809102
:104ED0008109853519F088E00E94C71C80917E41C8
:104EE000853559F388E00E94C71CE7CF2F923F9287
:104EF0004F925F926F927F928F929F92AF92BF92EA
:104F0000CF92DF92EF92FF920F931F93CF93DF9395
:104F10000E9452168AEF0E94612C0E945D2F0E940F
:104F20002B2AC091F308AC2FB0E023EB36EE4EE015
:104F300050E00E94BE310091FB0A1091FC0A2091C2
:104F4000FD0A3091FE0A6B017C01C00ED11EE21EEB
:104F5000F31EC701B60123EB36EE4EE050E00E948F
:104F6000ED31C61AD70AE80AF90AC092FB0AD092B4
:104F7000FC0AE092FD0AF092FE0AE091000BF0912B
:104F8000010B8085811130C08091F40A823019F4C0
:104F90008C2F0E945318E091000BF091010B60914F
:104FA000F30880850E94BB18E091000BF091010B83
:104FB00060E080850E94F8188091FB0A9091FC0ABD
:104FC000A091FD0AB091FE0A0091F70A1091F80A2B
:104FD0002091F90A3091FA0A53EB452E56EE552EE0
:104FE0005EE0652E712C07C095816C2F9111E2CF88
:104FF0000E94BB18E1CF480159014FEF841A940A6F
:10500000A40AB40A81155AEC95075AE9A5075BE38F
:10501000B507C8F06C017D012AECD21A2AE9E20A30
:105020002BE3F20AC701B601A30192010E94ED3100
:10503000A7019601261B370B480B590BDA01C90152
:1050400095018401D8CF8093FB0A9093FC0AA0932A
:10505000FD0AB093FE0A0093F70A1093F80A209312
:10506000F90A3093FA0AE091000BF091010B858167
:10507000882339F18185843021F18781823029F0BC
:10508000882341F08681811102C085E001C083E060
:10509000818714C083E0818717821682858996896B
:1050A000A789B08D892B8A2B8B2B41F4818D928D12
:1050B000A38DB48D858B968BA78BB08F80850E9436
:1050C0004122E091000BF091010B85A196A1A7A1CF
:1050D000B0A5892B8A2B8B2B09F44EC080858823A1
:1050E00009F44AC09185943009F446C0458D568D27
:1050F000678D70A10091F30810E020E030E04017C8
:1051000051076207730798F40E948818E091000B1A
:10511000F091010B608582E00E94D61CE091000BAB
:10512000F091010B158E168E178E10A208C0401B31
:10513000510B620B730B458F568F678F70A3E091F5
:10514000000BF091010BC085858D968DA78DB0A1C8
:10515000892B8A2B8B2B81F48C2F0E9488186C2F23
:1051600083E00E94D61CE091000BF091010B83E0DC
:1051700081878C2F0E944122C7E4DAE000E61AEE14
:10518000312C2AEFC22ED12CE12CF12C32E0232E2F
:10519000812C912C54018394FE01319780818F3FA3
:1051A00009F4E5C033971082882309F45BC0888135
:1051B000843009F457C04C845D846E847F84609190
:1051C000F30870E080E090E046165706680679061E
:1051D00048F0461A570A680A790A4C865D866E8638
:1051E0007F8604C01C861D861E861F8648885988B7
:1051F0006A887B88461657066806790648F0461A7C
:10520000570A680A790A488A598A6A8A7B8A1AC0C0
:10521000288D398D4A8D5B8D62177307840795073A
:1052200058F429013A01461A570A680A790A488A45
:10523000598A6A8A7B8A06C00E94ED31688B798B15
:105240008A8B9B8B88899989AA89BB89892B8A2B10
:105250008B2B41F4888D998DAA8DBB8D888B998B72
:10526000AA8BBB8B8881833009F081C08C859D859A
:10527000AE85BF85892B8A2B8B2B09F067C0DE0199
:1052800012978C91FE013397882391F080818823B7
:1052900079F0B501A4010090F00A04C0440F551F35
:1052A000661F771F0A94D2F7488759876A877B87DA
:1052B0001C921082A8A1B9A1A130B10509F58C8D6D
:1052C0009D8DAE8DBF8D8C8B9D8BAE8BBF8B2882C1
:1052D00088899989AA89BB898C879D87AE87BF8772
:1052E000888D998DAA8DBB8D892B8A2B8B2B21F4D0
:1052F000CC86DD86EE86FF86832D0E94912126C016
:105300004C8D5D8D6E8D7F8D4C8B5D8B6E8B7F8B11
:10531000488C598C6A8C7B8C1197A30192010E9456
:10532000BE316C877D878E879F87688B798B8A8B50
:105330009B8B45284628472821F4CC86DD86EE86BF
:10534000FF8666246394712C79A268A28C859D8562
:10535000AE85BF850097A105B10549F0A80160E0C1
:1053600070E084179507A607B70708F48C013394FB
:10537000AB9684E0782E37100FCFE091000BF091C0
:10538000010B80850E949A180E948021C82F2BE271
:105390008202F0011124E25CF54F22852093020B7A
:1053A000F093F20AE093F10A8823D9F085A196A13F
:1053B000A7A1B0A5892B8A2B8B2B99F0858D968D73
:1053C000A78DB0A18A3F9105A105B10550F4A801B0
:1053D00060E070E084179507A607B70710F48C010A
:1053E00005C00B3F110510F00AEF10E02093F30AFF
:1053F000F093010BE093000B0093F3080E94C32C81
:10540000282F30E02F5F3F4F2017310740F00E94D8
:10541000C32C082F10E00E5F1F4F0093F308C1113B
:105420001092F40A802F0E94612C0E94E62FDF91D7
:10543000CF911F910F91FF90EF90DF90CF90BF9091
:10544000AF909F908F907F906F905F904F903F9024
:105450002F900C94F12F3F924F925F926F927F9218
:105460008F929F92AF92BF92CF92DF92EF92FF9274
:105470000F931F93CF93DF93CDB7DEB760970FB62F
:10548000F894DEBF0FBECDBFCE0109960E94D22494
:1054900083E0482E8BE0582E612C712C93E1392E3D
:1054A000D20112968C91813051F5369CF001379CD7
:1054B000F00D1124E25FF44F89849A84AB84BC849C
:1054C000CD84DE84EF84F8880081118122813381CC
:1054D0004481558166817781CE0101960E942F25F6
:1054E0008F3F69F4662D85E10E94D61CD201ED91B3
:1054F000FC91309719F40E94541601C00995BFEF32
:105500006B1A7B0AE3E14E0E511CF3E06F16710437
:1055100039F660960FB6F894DEBF0FBECDBFDF91AF
:10552000CF911F910F91FF90EF90DF90CF90BF90A0
:10553000AF909F908F907F906F905F904F903F9033
:105540000895E3E0FBE01282158A10A60895CF9338
:10555000DF938330E0F493E1899FF0011124ED5F44
:10556000F44F51834083EB0188819981AA81BB81EB
:1055700083839483A583B6838C819D81AE81BF8113
:1055800087839087A187B287128281E001C08FEF65
:10559000DF91CF910895CF92DF92EF92FF920F9318
:1055A0001F93CF93DF93CDB7DEB728970FB6F8944C
:1055B000DEBF0FBECDBF8330A8F5182FCE010196F8
:1055C0000E94D22423E1129FC00111248C010D5F9F
:1055D000144FF801C380D480E580F68049815A8158
:1055E0006B817C814C0D5D1D6E1D7F1D4387548733
:1055F00065877687C780D084E184F2844D815E819F
:105600006F8178854C0D5D1D6E1D7F1D4787508B0A
:10561000618B728B825F944F0E94BB2581E0F80101
:10562000828301C08FEF28960FB6F894DEBF0FBEBD
:10563000CDBFDF91CF911F910F91FF90EF90DF9041
:10564000CF9008951F93CF93DF93CDB7DEB7289700
:105650000FB6F894DEBF0FBECDBF833070F5182FA4
:10566000CE0101960E94D22483E1189FF0011124FB
:10567000ED5FF44F438154816581768189819A8100
:10568000AB81BC81840F951FA61FB71F83879487AA
:10569000A587B68747815085618572858D819E81FA
:1056A000AF81B885840F951FA61FB71F8787908B82
:1056B000A18BB28B81E0828301C08FEF28960FB659
:1056C000F894DEBF0FBECDBFDF91CF911F9108953B
:1056D000833048F493E1899FF0011124ED5FF44F8A
:1056E000128281E008958FEF08950000000000000D
:1056F00000000000000000000000000000000000AA
:105700000000019791F7089510922101089589E012
:10571000809321018DE89CE39093290180932801D7
:10572000089510922501109224010895CF93DF93DC
:1057300000D0CDB7DEB780912401909125019A83E6
:10574000898389819A810F900F90DF91CF9108957D
:1057500010928100089581E080938100089583B5BF
:10576000816083BD10928500109284000895CF93CC
:10577000DF9300D0CDB7DEB7809184009091850093
:105780009A83898389819A810F900F90DF91CF91BD
:105790000895CF92DF92EF92FF92CF93DF93EC01C7
:1057A000CC0FDD1FC9378FEFD80710F0C0E0D0E075
:1057B0006B01E12CF12CCC0EDD1EE11CF11C81E013
:1057C000C816D104E806F10440F081E0E81AF108B7
:1057D0000E94B72BC817D907D8F30E94B72B8C1596
:1057E0009D05D8F3DF91CF91FF90EF90DF90CF90A0
:1057F00008951092B100E0E7F0E080818D7F808312
:1058000080818E7F808308958093B2000895E0E7C1
:10581000F0E080818360808383E08093B10008950D
:1058200083B5826083BD1092B2001092EF06109291
:10583000F3080895CF93DF938EEF8093F30880E20F
:105840008093B6008091F3088093B30083E087BB18
:1058500092E09093B0008093B10093B5926093BDB5
:1058600087BB84BD83B5826083BD1092800081E0D8
:1058700080938100109285001092840083B582602D
:1058800083BD83B5816083BD10922001C4E2D1E065
:105890001982188283B5826083BD83B5816083BD20
:1058A0000E94102C198218820E94072C0E94872BBC
:1058B0001092EF06DF91CF9108958091B3008F5F32
:1058C000089581508093B3000895811102C0109211
:1058D00071008FEF0895811106C01092950010920B
:1058E000940081E008958FEF0895811105C08091A3
:1058F000940090919500089580E090E008958111C2
:1059000005C082E08093710081E008958FEF0895D3
:10591000811135C0CB010197059710F46093F00811
:105920001092900088E080939100509399004093EA
:1059300098003093DD052093DC058091F0088130DC
:1059400021F480919100816011C0823021F4809116
:10595000910082600BC0833021F4809191008360BC
:1059600005C0843031F4809191008460809391006F
:1059700008C0853031F4809191008560F7CF8FEFBA
:10598000089581E008958091B20008951F920F92CA
:105990000FB60F92112460E08AE00E94D61CFFCF60
:1059A0000F920FB60F921F922F923F924F925F92DB
:1059B0006F927F928F929F92AF92BF92CF92DF921F
:1059C000EF92FF920F931F932F933F934F935F9309
:1059D0006F937F938F939F93AF93BF93CF93DF93F7
:1059E000EF93FF93A091000BB091010B0DB60D92B8
:1059F0000EB60D921F92A0915B08B0915C081E90AC
:105A0000BEBFADBF08951F920F920FB60F92112423
:105A10000BB60F922F933F934F935F936F937F93A8
:105A20008F939F93AF93BF93EF93FF93E091DC0528
:105A3000F091DD05309711F0099504C060E08AE02F
:105A40000E94D61CFF91EF91BF91AF919F918F91D2
:105A50007F916F915F914F913F912F910F900BBE6E
:105A60000F900FBE0F901F9018951F920F920FB6B8
:105A70000F9211240F900FBE0F901F90189504B62F
:105A800003FE02C080E101C080E004B602FE06C051
:105A900094B79B7F94BF04B600FE846004B601FEF9
:105AA00005C094B79D7F94BF8260089581110CC09A
:105AB00004B600FE04C094B79E7F94BF01C081E08D
:105AC0009091B000911181E00895811102C0E89A8F
:105AD00039C0813011F4E99A0895823011F4EA9ABC
